{"contracts/Spatters.sol":{"Spatters":{"abi":[{"inputs":[{"internalType":"address[]","name":"spattersAddresses","type":"address[]"},{"internalType":"address","name":"p5jsAddress","type":"address"}],"stateMutability":"nonpayable","type":"constructor"},{"inputs":[{"internalType":"address","name":"sender","type":"address"},{"internalType":"uint256","name":"tokenId","type":"uint256"},{"internalType":"address","name":"owner","type":"address"}],"name":"ERC721IncorrectOwner","type":"error"},{"inputs":[{"internalType":"address","name":"operator","type":"address"},{"internalType":"uint256","name":"tokenId","type":"uint256"}],"name":"ERC721InsufficientApproval","type":"error"},{"inputs":[{"internalType":"address","name":"approver","type":"address"}],"name":"ERC721InvalidApprover","type":"error"},{"inputs":[{"internalType":"address","name":"operator","type":"address"}],"name":"ERC721InvalidOperator","type":"error"},{"inputs":[{"internalType":"address","name":"owner","type":"address"}],"name":"ERC721InvalidOwner","type":"error"},{"inputs":[{"internalType":"address","name":"receiver","type":"address"}],"name":"ERC721InvalidReceiver","type":"error"},{"inputs":[{"internalType":"address","name":"sender","type":"address"}],"name":"ERC721InvalidSender","type":"error"},{"inputs":[{"internalType":"uint256","name":"tokenId","type":"uint256"}],"name":"ERC721NonexistentToken","type":"error"},{"inputs":[{"internalType":"address","name":"owner","type":"address"}],"name":"OwnableInvalidOwner","type":"error"},{"inputs":[{"internalType":"address","name":"account","type":"address"}],"name":"OwnableUnauthorizedAccount","type":"error"},{"inputs":[],"name":"ReentrancyGuardReentrantCall","type":"error"},{"anonymous":false,"inputs":[{"indexed":true,"internalType":"address","name":"owner","type":"address"},{"indexed":true,"internalType":"address","name":"approved","type":"address"},{"indexed":true,"internalType":"uint256","name":"tokenId","type":"uint256"}],"name":"Approval","type":"event"},{"anonymous":false,"inputs":[{"indexed":true,"internalType":"address","name":"owner","type":"address"},{"indexed":true,"internalType":"address","name":"operator","type":"address"},{"indexed":false,"internalType":"bool","name":"approved","type":"bool"}],"name":"ApprovalForAll","type":"event"},{"anonymous":false,"inputs":[{"indexed":true,"internalType":"address","name":"requester","type":"address"},{"indexed":false,"internalType":"bytes32[3]","name":"seeds","type":"bytes32[3]"},{"indexed":false,"internalType":"uint256","name":"timestamp","type":"uint256"}],"name":"MintRequested","type":"event"},{"anonymous":false,"inputs":[{"indexed":true,"internalType":"uint256","name":"tokenId","type":"uint256"},{"indexed":true,"internalType":"address","name":"minter","type":"address"},{"indexed":false,"internalType":"bytes32","name":"seed","type":"bytes32"},{"indexed":false,"internalType":"bool","name":"hasCustomPalette","type":"bool"},{"indexed":false,"internalType":"uint256","name":"timestamp","type":"uint256"}],"name":"Minted","type":"event"},{"anonymous":false,"inputs":[{"indexed":true,"internalType":"uint256","name":"tokenId","type":"uint256"},{"indexed":true,"internalType":"uint256","name":"mutationIndex","type":"uint256"},{"indexed":false,"internalType":"string","name":"mutationType","type":"string"},{"indexed":false,"internalType":"bytes32","name":"seed","type":"bytes32"},{"indexed":false,"internalType":"uint256","name":"timestamp","type":"uint256"}],"name":"Mutated","type":"event"},{"anonymous":false,"inputs":[{"indexed":true,"internalType":"address","name":"previousOwner","type":"address"},{"indexed":true,"internalType":"address","name":"newOwner","type":"address"}],"name":"OwnershipTransferred","type":"event"},{"anonymous":false,"inputs":[{"indexed":true,"internalType":"address","name":"from","type":"address"},{"indexed":true,"internalType":"address","name":"to","type":"address"},{"indexed":true,"internalType":"uint256","name":"tokenId","type":"uint256"}],"name":"Transfer","type":"event"},{"inputs":[{"internalType":"uint256","name":"","type":"uint256"}],"name":"DEFAULT_PALETTE","outputs":[{"internalType":"string","name":"","type":"string"}],"stateMutability":"view","type":"function"},{"inputs":[],"name":"GLOBAL_COOLDOWN","outputs":[{"internalType":"uint256","name":"","type":"uint256"}],"stateMutability":"view","type":"function"},{"inputs":[],"name":"MAX_MUTATIONS","outputs":[{"internalType":"uint256","name":"","type":"uint256"}],"stateMutability":"view","type":"function"},{"inputs":[],"name":"MAX_PER_WALLET","outputs":[{"internalType":"uint256","name":"","type":"uint256"}],"stateMutability":"view","type":"function"},{"inputs":[],"name":"MAX_SUPPLY","outputs":[{"internalType":"uint256","name":"","type":"uint256"}],"stateMutability":"view","type":"function"},{"inputs":[],"name":"OWNER_RESERVE","outputs":[{"internalType":"uint256","name":"","type":"uint256"}],"stateMutability":"view","type":"function"},{"inputs":[],"name":"REQUEST_EXPIRATION","outputs":[{"internalType":"uint256","name":"","type":"uint256"}],"stateMutability":"view","type":"function"},{"inputs":[],"name":"WALLET_COOLDOWN","outputs":[{"internalType":"uint256","name":"","type":"uint256"}],"stateMutability":"view","type":"function"},{"inputs":[{"internalType":"uint256","name":"","type":"uint256"}],"name":"allowedMutations","outputs":[{"internalType":"string","name":"","type":"string"}],"stateMutability":"view","type":"function"},{"inputs":[{"internalType":"address","name":"to","type":"address"},{"internalType":"uint256","name":"tokenId","type":"uint256"}],"name":"approve","outputs":[],"stateMutability":"nonpayable","type":"function"},{"inputs":[{"internalType":"address","name":"owner","type":"address"}],"name":"balanceOf","outputs":[{"internalType":"uint256","name":"","type":"uint256"}],"stateMutability":"view","type":"function"},{"inputs":[{"internalType":"uint256","name":"tokenId","type":"uint256"}],"name":"canMutate","outputs":[{"internalType":"bool","name":"","type":"bool"}],"stateMutability":"view","type":"function"},{"inputs":[],"name":"collectionLaunchDate","outputs":[{"internalType":"uint256","name":"","type":"uint256"}],"stateMutability":"view","type":"function"},{"inputs":[{"internalType":"uint8","name":"seedChoice","type":"uint8"}],"name":"completeMint","outputs":[],"stateMutability":"nonpayable","type":"function"},{"inputs":[{"internalType":"uint256","name":"","type":"uint256"},{"internalType":"uint256","name":"","type":"uint256"}],"name":"customPalettes","outputs":[{"internalType":"string","name":"","type":"string"}],"stateMutability":"view","type":"function"},{"inputs":[],"name":"getAllowedMutations","outputs":[{"internalType":"string[]","name":"","type":"string[]"}],"stateMutability":"view","type":"function"},{"inputs":[{"internalType":"uint256","name":"tokenId","type":"uint256"}],"name":"getApproved","outputs":[{"internalType":"address","name":"","type":"address"}],"stateMutability":"view","type":"function"},{"inputs":[],"name":"getCurrentPrice","outputs":[{"internalType":"uint256","name":"","type":"uint256"}],"stateMutability":"view","type":"function"},{"inputs":[{"internalType":"uint256","name":"tokenId","type":"uint256"}],"name":"getCustomPalette","outputs":[{"internalType":"string[6]","name":"","type":"string[6]"}],"stateMutability":"view","type":"function"},{"inputs":[{"internalType":"address","name":"minter","type":"address"}],"name":"getPendingRequest","outputs":[{"components":[{"internalType":"bytes32[3]","name":"seeds","type":"bytes32[3]"},{"internalType":"uint256","name":"timestamp","type":"uint256"},{"internalType":"bool","name":"completed","type":"bool"}],"internalType":"struct Spatters.MintRequest","name":"","type":"tuple"}],"stateMutability":"view","type":"function"},{"inputs":[{"internalType":"uint256","name":"tokenId","type":"uint256"}],"name":"getTokenMutations","outputs":[{"components":[{"internalType":"string","name":"mutationType","type":"string"},{"internalType":"bytes32","name":"seed","type":"bytes32"},{"internalType":"uint256","name":"timestamp","type":"uint256"}],"internalType":"struct Spatters.MutationRecord[]","name":"","type":"tuple[]"}],"stateMutability":"view","type":"function"},{"inputs":[{"internalType":"address","name":"owner","type":"address"},{"internalType":"address","name":"operator","type":"address"}],"name":"isApprovedForAll","outputs":[{"internalType":"bool","name":"","type":"bool"}],"stateMutability":"view","type":"function"},{"inputs":[],"name":"lastGlobalMintTime","outputs":[{"internalType":"uint256","name":"","type":"uint256"}],"stateMutability":"view","type":"function"},{"inputs":[{"internalType":"address","name":"","type":"address"}],"name":"lastMintTime","outputs":[{"internalType":"uint256","name":"","type":"uint256"}],"stateMutability":"view","type":"function"},{"inputs":[{"internalType":"address","name":"","type":"address"}],"name":"mintedPerWallet","outputs":[{"internalType":"uint256","name":"","type":"uint256"}],"stateMutability":"view","type":"function"},{"inputs":[{"internalType":"uint256","name":"tokenId","type":"uint256"},{"internalType":"string","name":"mutationType","type":"string"}],"name":"mutate","outputs":[],"stateMutability":"nonpayable","type":"function"},{"inputs":[],"name":"name","outputs":[{"internalType":"string","name":"","type":"string"}],"stateMutability":"view","type":"function"},{"inputs":[],"name":"owner","outputs":[{"internalType":"address","name":"","type":"address"}],"stateMutability":"view","type":"function"},{"inputs":[{"internalType":"address","name":"to","type":"address"},{"internalType":"string[6]","name":"customPalette","type":"string[6]"}],"name":"ownerMint","outputs":[],"stateMutability":"nonpayable","type":"function"},{"inputs":[{"internalType":"uint256","name":"tokenId","type":"uint256"}],"name":"ownerOf","outputs":[{"internalType":"address","name":"","type":"address"}],"stateMutability":"view","type":"function"},{"inputs":[],"name":"p5jsScriptAddress","outputs":[{"internalType":"address","name":"","type":"address"}],"stateMutability":"view","type":"function"},{"inputs":[{"internalType":"address","name":"","type":"address"}],"name":"pendingRequests","outputs":[{"internalType":"uint256","name":"timestamp","type":"uint256"},{"internalType":"bool","name":"completed","type":"bool"}],"stateMutability":"view","type":"function"},{"inputs":[],"name":"renounceOwnership","outputs":[],"stateMutability":"nonpayable","type":"function"},{"inputs":[],"name":"requestMint","outputs":[{"internalType":"bytes32[3]","name":"","type":"bytes32[3]"}],"stateMutability":"payable","type":"function"},{"inputs":[{"internalType":"address","name":"from","type":"address"},{"internalType":"address","name":"to","type":"address"},{"internalType":"uint256","name":"tokenId","type":"uint256"}],"name":"safeTransferFrom","outputs":[],"stateMutability":"nonpayable","type":"function"},{"inputs":[{"internalType":"address","name":"from","type":"address"},{"internalType":"address","name":"to","type":"address"},{"internalType":"uint256","name":"tokenId","type":"uint256"},{"internalType":"bytes","name":"data","type":"bytes"}],"name":"safeTransferFrom","outputs":[],"stateMutability":"nonpayable","type":"function"},{"inputs":[{"internalType":"address","name":"operator","type":"address"},{"internalType":"bool","name":"approved","type":"bool"}],"name":"setApprovalForAll","outputs":[],"stateMutability":"nonpayable","type":"function"},{"inputs":[{"internalType":"address","name":"_p5jsAddress","type":"address"},{"internalType":"address","name":"_spattersAddress","type":"address"}],"name":"setScriptAddresses","outputs":[],"stateMutability":"nonpayable","type":"function"},{"inputs":[],"name":"spattersScriptAddress","outputs":[{"internalType":"address","name":"","type":"address"}],"stateMutability":"view","type":"function"},{"inputs":[{"internalType":"bytes4","name":"interfaceId","type":"bytes4"}],"name":"supportsInterface","outputs":[{"internalType":"bool","name":"","type":"bool"}],"stateMutability":"view","type":"function"},{"inputs":[],"name":"symbol","outputs":[{"internalType":"string","name":"","type":"string"}],"stateMutability":"view","type":"function"},{"inputs":[{"internalType":"uint256","name":"","type":"uint256"},{"internalType":"uint256","name":"","type":"uint256"}],"name":"tokenMutations","outputs":[{"internalType":"string","name":"mutationType","type":"string"},{"internalType":"bytes32","name":"seed","type":"bytes32"},{"internalType":"uint256","name":"timestamp","type":"uint256"}],"stateMutability":"view","type":"function"},{"inputs":[{"internalType":"uint256","name":"tokenId","type":"uint256"}],"name":"tokenURI","outputs":[{"internalType":"string","name":"","type":"string"}],"stateMutability":"view","type":"function"},{"inputs":[{"internalType":"uint256","name":"","type":"uint256"}],"name":"tokens","outputs":[{"internalType":"bytes32","name":"mintSeed","type":"bytes32"},{"internalType":"uint256","name":"mintTimestamp","type":"uint256"}],"stateMutability":"view","type":"function"},{"inputs":[],"name":"totalSupply","outputs":[{"internalType":"uint256","name":"","type":"uint256"}],"stateMutability":"view","type":"function"},{"inputs":[{"internalType":"address","name":"from","type":"address"},{"internalType":"address","name":"to","type":"address"},{"internalType":"uint256","name":"tokenId","type":"uint256"}],"name":"transferFrom","outputs":[],"stateMutability":"nonpayable","type":"function"},{"inputs":[{"internalType":"address","name":"newOwner","type":"address"}],"name":"transferOwnership","outputs":[],"stateMutability":"nonpayable","type":"function"},{"inputs":[],"name":"withdraw","outputs":[],"stateMutability":"nonpayable","type":"function"},{"stateMutability":"payable","type":"receive"}],"evm":{"bytecode":{"linkReferences":{},"object":"60406080815234620011825762004ae5803803806200001e81620011bd565b9283398101908281830312620011825780516001600160401b039190828111620011825781019183601f840112156200118257825191818311620011875760059483861b94602062000072818801620011bd565b809681520190602082978201019283116200118257602001905b82821062001167575050506020620000a59101620011e3565b620000af6200119d565b926008845267537061747465727360c01b6020850152620000cf6200119d565b956004968781526314d4105560e21b60208201528551858111620011525780600097620000fd8954620011f8565b601f811162001114575b50602090601f8311600114620010ab5789926200109f575b50508160011b916000199060031b1c19161786555b8051908582116200108c5781906200014e600154620011f8565b601f811162001041575b50602090601f831160011462000fca57889262000fbe575b50508160011b916000199060031b1c1916176001555b331562000fa75760068054336001600160a01b0319821681179092556001600160a01b03167f8be0079c531659141344cd1fd0a4f28419497f9722a3daafe3b4186f6b6457e08780a360076001815588519060c082018281108782111762000f94578a52620001f46200119d565b818152662366633161346160c81b60208201528252620002136200119d565b8181526608cdcd590d0e4d60ca1b60208201526020830152620002356200119d565b818152662332353837633360c81b60208201528a830152620002566200119d565b818152662366326339343560c81b60208201526060830152620002786200119d565b818152660233030303030360cc1b602082015260808301526200029a6200119d565b9081526611a3232323232360c91b602082015260a0820152600886915b6006831062000e5e5750505050600160145580511562000e1b575191821162000e0857680100000000000000009182811162000db957600e94855482875580831062000dea575b5085855260208520855b83811062000dcc575050600f80546001600160a81b0319166001600160a01b0390941693909317600160a01b179092555050601980548281101562000db95780600162000358920183556200127b565b62000da757620003746200036d8254620011f8565b826200124e565b7f70616c657474654368616e6765416c6c00000000000000000000000000000020905580548281101562000db957806001620003b3920183556200127b565b62000da757620003c86200036d8254620011f8565b7f70616c657474654368616e67654f6e6500000000000000000000000000000020905580548281101562000db95780600162000407920183556200127b565b62000da7576200041c6200036d8254620011f8565b7f70616c65747465496e766572740000000000000000000000000000000000001a905580548281101562000db9578060016200045b920183556200127b565b62000da757620004706200036d8254620011f8565b7f70616c6574746553776170000000000000000000000000000000000000000016905580548281101562000db957806001620004af920183556200127b565b62000da757620004c46200036d8254620011f8565b7f7368617065457870616e64000000000000000000000000000000000000000016905580548281101562000db95780600162000503920183556200127b565b62000da757620005186200036d8254620011f8565b7f7368617065436f6e74726163740000000000000000000000000000000000001a905580548281101562000db95780600162000557920183556200127b565b62000da7576200056c6200036d8254620011f8565b7f7368617065526f74617465000000000000000000000000000000000000000016905580548281101562000db957806001620005ab920183556200127b565b62000da757620005c06200036d8254620011f8565b7f73686170654368616e6765437572766543656e7465727300000000000000002e905580548281101562000db957806001620005ff920183556200127b565b62000da757620006146200036d8254620011f8565b7f73686170654368616e67654c696e65456e64706f696e74730000000000000030905580548281101562000db95780600162000653920183556200127b565b62000da757620006686200036d8254620011f8565b7f7368617065466c69700000000000000000000000000000000000000000000012905580548281101562000db957806001620006a7920183556200127b565b94909462000da757620006c6620006bf8654620011f8565b866200124e565b60249485716772616469656e74547970654368616e676560701b01905581548381101562000d9557806001620006ff920184556200127b565b62000d8457620007146200036d8254620011f8565b7f6772616469656e74446972656374696f6e4368616e676500000000000000002e905581548381101562000d955780600162000753920184556200127b565b62000d8457620007686200036d8254620011f8565b7f6469766964657241646400000000000000000000000000000000000000000014905581548381101562000d9557806001620007a7920184556200127b565b62000d8457620007bc6200036d8254620011f8565b7f6469766964657252656d6f76650000000000000000000000000000000000001a905581548381101562000d9557806001620007fb920184556200127b565b62000d8457620008106200036d8254620011f8565b7f646976696465724d6f7665000000000000000000000000000000000000000016905581548381101562000d95578060016200084f920184556200127b565b62000d8457620008646200036d8254620011f8565b7f636972636c654164640000000000000000000000000000000000000000000012905581548381101562000d9557806001620008a3920184556200127b565b62000d8457620008b86200036d8254620011f8565b7f636972636c6552656d6f76650000000000000000000000000000000000000018905581548381101562000d9557806001620008f7920184556200127b565b62000d84576200090c6200036d8254620011f8565b7f636972636c654d6f766500000000000000000000000000000000000000000014905581548381101562000d95578060016200094b920184556200127b565b62000d8457620009606200036d8254620011f8565b7f636972636c65526573697a650000000000000000000000000000000000000018905581548381101562000d95578060016200099f920184556200127b565b62000d8457620009b46200036d8254620011f8565b81661b1a5b9950591960ca1b01905581548381101562000d9557806001620009df920184556200127b565b62000d8457620009f46200036d8254620011f8565b7f6c696e6552656d6f766500000000000000000000000000000000000000000014905581548381101562000d955780600162000a33920184556200127b565b62000d845762000a486200036d8254620011f8565b7f6c696e654d6f7665000000000000000000000000000000000000000000000010905581548381101562000d955780600162000a87920184556200127b565b62000d845762000a9c6200036d8254620011f8565b7f6c696e65526f7461746500000000000000000000000000000000000000000014905581548381101562000d955780600162000adb920184556200127b565b62000d845762000af06200036d8254620011f8565b7f617370656374526174696f4368616e6765000000000000000000000000000022905581548381101562000d955780600162000b2f920184556200127b565b62000d845762000b446200036d8254620011f8565b81666578706c6f646560c81b01905581548381101562000d955780600162000b6f920184556200127b565b91909162000d845762000b8e62000b878354620011f8565b836200124e565b66696d706c6f646560c81b01905580548281101562000d715780600162000bb8920183556200127b565b62000d5f5762000bcd6200036d8254620011f8565b6008636661646560e01b01905580548281101562000d715780600162000bf6920183556200127b565b62000d5f5762000c0b6200036d8254620011f8565b7f696e74656e736966790000000000000000000000000000000000000000000012905580548281101562000d715780600162000c4a920183556200127b565b62000d5f5762000c5f6200036d8254620011f8565b7f736372616d626c65000000000000000000000000000000000000000000000010905580548281101562000d715780600162000c9e920183556200127b565b62000d5f5762000cb36200036d8254620011f8565b7f756e646f4d75746174696f6e0000000000000000000000000000000000000018905580549182101562000d4d5760018201905562000cf2906200127b565b93909362000d3e5750505062000d0d6200036d8254620011f8565b7f72657475726e546f50726576696f757356657273696f6e00000000000000002e9055516138179081620012ae8239f35b634e487b7160e01b8252819052fd5b5050634e487b7160e01b815260418352fd5b5050634e487b7160e01b825250808352fd5b5050634e487b7160e01b82525060418352fd5b634e487b7160e01b85528487528585fd5b634e487b7160e01b8552604187528585fd5b634e487b7160e01b8452838652602484fd5b634e487b7160e01b845260418652602484fd5b82516001600160a01b03168183015560209092019160010162000308565b8686526020862062000e0191810190840162001235565b38620002fe565b634e487b7160e01b835260418552602483fd5b865162461bcd60e51b8152602081880152601e60248201527f4d7573742070726f766964652073746f726167652061646472657373657300006044820152606490fd5b805180519088821162000f815762000e778454620011f8565b601f811162000f43575b506020908a601f841160011462000ed15792806020936001969387969262000ec5575b5050600019600383901b1c191690841b1785555b01920192019190620002b7565b01519050388062000ea4565b85905260208b2091908b5b601f198516811062000f2a575083602093600196938796938794601f1981161062000f10575b505050811b01855562000eb8565b015160001960f88460031b161c1916905538808062000f02565b9192602060018192868501518155019401920162000edc565b62000f6f90858c5260208c20601f8501891c8101916020861062000f76575b601f01891c019062001235565b3862000e81565b909150819062000f62565b634e487b7160e01b8a5260418c5260248afd5b634e487b7160e01b885260418a52602488fd5b8751631e4fbdf760e01b8152808801869052602490fd5b01519050388062000170565b6001895260008051602062004ac58339815191529250601f198416895b8181106200102857509084600195949392106200100e575b505050811b0160015562000186565b015160001960f88460031b161c1916905538808062000fff565b9293602060018192878601518155019501930162000fe7565b600189526200107a9060008051602062004ac5833981519152601f8501871c8101916020861062001081575b601f01871c019062001235565b3862000158565b90915081906200106d565b634e487b7160e01b875260418952602487fd5b0151905038806200011f565b89805260208a209250601f1984168a5b818110620010fb5750908460019594939210620010e1575b505050811b01865562000134565b015160001960f88460031b161c19169055388080620010d3565b92936020600181928786015181550195019301620010bb565b62001140908a805260208b20601f8501881c8101916020861062001147575b601f01881c019062001235565b3862000107565b909150819062001133565b604189634e487b7160e01b6000525260246000fd5b602080916200117684620011e3565b8152019101906200008c565b600080fd5b634e487b7160e01b600052604160045260246000fd5b60408051919082016001600160401b038111838210176200118757604052565b6040519190601f01601f191682016001600160401b038111838210176200118757604052565b51906001600160a01b03821682036200118257565b90600182811c921680156200122a575b60208310146200121457565b634e487b7160e01b600052602260045260246000fd5b91607f169162001208565b81811062001241575050565b6000815560010162001235565b90601f81116200125c575050565b6200127991600052601f6020600020910160051c81019062001235565b565b6019548110156200129757601960005260206000200190600090565b634e487b7160e01b600052603260045260246000fdfe608060409080825260049081361015610023575b505050361561002157600080fd5b005b600090813560e01c9081629c4c7e146123625750806301ffc9a7146122f357806306fdde031461224b578063081812fc1461220e578063095ea7b31461213257806309aaa61e146121155780630df102d314611db95780630f2cdd6c14611d9d578063149e7b7714611d6657806318160ddd14611d2757806323b872dd14611d0f578063269557bb14611cf057806329777c3514611cd357806332cb6b0c14611cb65780633a602b4d14611c7e5780633ccfd60b14611bc457806342842e0e14611b955780634f64b2be14611b625780635ef46bc514611a795780636352211e14611a475780636aa71d1814611a0f5780636b04a1e2146118fe57806370a08231146118a857806370a6f23014611848578063715018a6146117eb578063817697b11461171e57806385c639fe146116f45780638da5cb5b146116cb578063954058251461168e57806395d89b41146115ab5780639a617d0c14611491578063a22cb465146113ea578063aaffbe38146113c1578063afb7bed914610fd8578063b3a41b2614610faf578063b6fd462214610d57578063b88d4fde14610ce8578063c83d07e314610c9f578063c87b56dd146107d1578063cbe60e9c1461077c578063ccad22de146103e4578063e985e9c514610396578063eb91d37e1461036f578063ed8ed92114610351578063ede6fade14610335578063f2fde38b146102a5578063f4dbc50f146102855763fb22e6510361001357346102825760203660031901126102825760ff9083906001600160a01b036102616123c6565b16815260136020522091600383015492015416825191825215156020820152f35b80fd5b5082346102a157816003193601126102a1576020905160c88152f35b5080fd5b50919034610331576020366003190112610331576102c16123c6565b906102ca612701565b6001600160a01b0391821692831561031b575050600654826001600160601b0360a01b821617600655167f8be0079c531659141344cd1fd0a4f28419497f9722a3daafe3b4186f6b6457e08380a380f35b51631e4fbdf760e01b8152908101849052602490fd5b8280fd5b5082346102a157816003193601126102a1576020905160198152f35b5082346102a157816003193601126102a15760209051620151808152f35b5082346102a157816003193601126102a15760209061038f601454612b10565b9051908152f35b5082346102a157806003193601126102a15760ff816020936103b66123c6565b6103be6123e1565b6001600160a01b0391821683526005875283832091168252855220549151911615158152f35b50913461033157806003193601126103315760249067ffffffffffffffff823581811161077857366023820112156107785761042890369085818801359101612693565b91610431612aa6565b84359361043d856128cc565b336001600160a01b03909116036107445784875260206011815260c883892054101561070a5761046c856133cc565b156106d15761047a86612f63565b1561069a5785885260118152828820548351828101918883523360601b8683015260548201526104d560b48289516104b9818c8960748601910161237e565b8101426074820152446094820152036094810184520182612589565b51902093868952601182528389208451916104ef83612535565b878352838301908782528684019242845280549068010000000000000000821015610688579061052491600182018155612611565b9490946106775751805191821161066557610549826105438754612433565b87612ecc565b85908d601f84116001146105fa5792600294928192601199989795926105ef575b50508160011b916000199060031b1c19161784555b5160018401555191015586895252818720546000198101969087116105de575050906105d37f4226f74e56624aaf998322a4bb5ebb847b5811ac4711df2f3d9b46d7a8f4a3e993925192839242918461262d565b0390a3600160075580f35b634e487b7160e01b88526011905286fd5b01519050388061056a565b868152878120929190601f198516905b81811061064e575092600192859260119a9998966002989610610635575b505050811b01845561057f565b015160001960f88460031b161c19169055388080610628565b92938960018192878601518155019501930161060a565b634e487b7160e01b8d5260418c52868dfd5b634e487b7160e01b8d528c8c52868dfd5b634e487b7160e01b8e5260418d52878efd5b8691601391606494519362461bcd60e51b85528401528201527243616e6e6f74206d757461746520746f64617960681b6044820152fd5b8691601591606494519362461bcd60e51b855284015282015274496e76616c6964206d75746174696f6e207479706560581b6044820152fd5b8691601691606494519362461bcd60e51b855284015282015275135d5d185d1a5bdb881b1a5b5a5d081c995858da195960521b6044820152fd5b600f86916020606494519362461bcd60e51b85528401528201526e2737ba103a37b5b2b71037bbb732b960891b6044820152fd5b8580fd5b5082346102a157366003190112610282576107956123c6565b61079d6123e1565b6107a5612701565b60018060a01b0390816001600160601b0360a01b931683601a541617601a551690601b541617601b5580f35b503461028257602091826003193601126102a157610ba0610bbb846109f3610c799588610c1996358083526002855261081660018060a01b0383852054161515612f20565b610a2260c6835161082681612503565b601881528781017f68747470733a2f2f6170692e73706174746572732e617274000000000000000081526108598561317b565b95896108648761317b565b9261086e8861317b565b946108788961317b565b93519b8c968488019b717b226e616d65223a2253706174746572202360701b8d526108ac815180928860328d01910161237e565b61088b60f21b6032918a019182018190527f226465736372697074696f6e223a2246756c6c79206f6e2d636861696e20676560348301527f6e657261746976652061727420776974682074696d652d6261736564206d7574605483015268185d1a5bdb9ccb888b60ba1b6074830152681134b6b0b3b2911d1160b91b607d830152845190989161094082608683018961237e565b01662f696d6167652f60c81b60868201526109648251809389608d8501910161237e565b01650b9c1b99c88b60d21b608d820152701130b734b6b0ba34b7b72fbab936111d1160791b609382015283519061099f8260a483018861237e565b016109c5662f746f6b656e2f60c81b968760a4840152835193849160ab8501910161237e565b01918660ab8401526f1132bc3a32b93730b62fbab936111d1160811b60ad84015251809360bd84019061237e565b019060bd820152610a0d825180938d60c48501910161237e565b019060c48201520360a6810187520185612589565b80835260128552610a358b842054612433565b151590835260118552610a4a8b84205461317b565b925015610c7d57610baf8a51610a5f81612503565b600381526259657360e81b86820152915b610b8f60ad8d518095898201976d2261747472696275746573223a5b60901b89527f7b2274726169745f74797065223a224d75746174696f6e73222c2276616c7565602e84015261111d60f11b604e840152610ad5815180928d60508701910161237e565b8201611f4b60f21b60508201527f7b2274726169745f74797065223a22437573746f6d2050616c65747465222c226052820152673b30b63ab2911d1160c11b6072820152610b2c825180938d607a8501910161237e565b0162089f4b60ea1b607a8201527f7b2274726169745f74797065223a2247656e65726174696f6e222c2276616c75607d8201526d65223a224f6e2d436861696e227d60901b609d820152615d7d60f01b60ab82015203608d810186520184612589565b8b519788955180928888019061237e565b8401915180938684019061237e565b01038084520182612589565b845190610bc782612535565b8582527f4142434445464748494a4b4c4d4e4f505152535455565758595a616263646566858301527f6768696a6b6c6d6e6f707172737475767778797a303132333435363738392b2f86830152613083565b92610c6a603d825180967f646174613a6170706c69636174696f6e2f6a736f6e3b6261736536342c00000087830152610c5a8151809289868601910161237e565b810103601d810187520185612589565b519282849384528301906123a1565b0390f35b610baf8a51610c8b81612503565b60028152614e6f60f01b8682015291610a70565b509190346103315760203660031901126103315735916019548310156102825750610cd5610ccf610c79936126ca565b906125ab565b90519182916020835260208301906123a1565b5090346102a15760803660031901126102a157610d036123c6565b610d0b6123e1565b6044359060643567ffffffffffffffff8111610778573660238201121561077857610d5494816024610d4293369301359101612693565b92610d4e83838361272d565b33612937565b80f35b5091346103315760209081600319360112610fab5782359260ff841680850361077857600390610d85612aa6565b1015610f745733855260138352818520936003850154948515610f3c578281019283549660ff8816610ef9576103848101809111610ee6574211610eb1576003831015610e9e57509060019101549460ff19161790554260165533845260188252428185205560178252808420610dfc8154612ba8565b90558360145492601a841480610e94575b610e8b575b610e1b84612ba8565b6014558251610e2981612503565b8581526001828201428152868552601084528585209251835551910155610e508433612c84565b825194855284015242908301527f35a71fd4ad36d3b5f42a9819d12284ac3592b91d09f274e2ff1639a4418c1a0260603393a3600160075580f35b42601555610e12565b5060155415610e0d565b634e487b7160e01b885260329052602487fd5b845162461bcd60e51b8152908101869052600f60248201526e14995c5d595cdd08195e1c1a5c9959608a1b6044820152606490fd5b634e487b7160e01b895260118252602489fd5b855162461bcd60e51b8152808301889052601960248201527f5265717565737420616c726561647920636f6d706c65746564000000000000006044820152606490fd5b835162461bcd60e51b81528084018690526012602482015271139bc81c195b991a5b99c81c995c5d595cdd60721b6044820152606490fd5b82606492519162461bcd60e51b83528201526013602482015272496e76616c696420736565642063686f69636560681b6044820152fd5b8380fd5b5082346102a157816003193601126102a157601a5490516001600160a01b039091168152602090f35b5082816003193601126102a15760608151610ff281612535565b369037610ffd612aa6565b60145491601983111561137e576103e783116113465733815260209360178552600a83832054101561130c5733825260188552828220546201518081018091116112bd5742106112d057601654610e1081018091116112bd5742106112815761106584612b10565b3410611247573382526013855282822060ff9081838201541690811561121a575b50156111de5783519461109886612535565b60603687373360601b6bffffffffffffffffffffffff1916845b60038482161061117457505050508251916110cc83612535565b84835285830142815284840191808352338152601388528581209451905b60038110611162576060886111608961111c8a8a8a8a51600384015551151591019060ff801983541691151516179055565b8051611128818561264f565b42858201527f51cdcdcbb7f694928152ee829b60265efadd636412fab2406331da3b448be4af60803392a2600160075551809261264f565bf35b815186820155908801906001016110ea565b839087518a81019084825242603482015244605482015285607482015260ff60f81b8360f81b166094820152607581526111ad81612551565b519020611fe08260051b168a0152168381146111cb576001016110b2565b634e487b7160e01b865260118552602486fd5b835162461bcd60e51b8152808301879052601660248201527550656e64696e6720726571756573742065786973747360501b6044820152606490fd5b600391500154610384810180911161123457421187611086565b634e487b7160e01b845260118352602484fd5b825162461bcd60e51b81529081018590526014602482015273125b9cdd59999a58da595b9d081c185e5b595b9d60621b6044820152606490fd5b825162461bcd60e51b81529081018590526016602482015275476c6f62616c20636f6f6c646f776e2061637469766560501b6044820152606490fd5b634e487b7160e01b835260118252602483fd5b825162461bcd60e51b8152908101859052601660248201527557616c6c657420636f6f6c646f776e2061637469766560501b6044820152606490fd5b825162461bcd60e51b8152908101859052601460248201527315d85b1b195d081b1a5b5a5d081c995858da195960621b6044820152606490fd5b815162461bcd60e51b8152602081860152601260248201527113585e081cdd5c1c1b1e481c995858da195960721b6044820152606490fd5b815162461bcd60e51b8152602081860152601860248201527f4f776e6572206d696e7420706572696f642061637469766500000000000000006044820152606490fd5b5082346102a157816003193601126102a157601b5490516001600160a01b039091168152602090f35b5091346103315780600319360112610331576114046123c6565b9060243580151592838203610778576001600160a01b031693841561147a575061144d9033865260056020528286208587526020528286209060ff801983541691151516179055565b519081527f17307eab39ab6107e8899845ad3d59bd9653f200f220920489ca2b5937696c3160203392a380f35b8251630b61174360e31b8152908101859052602490fd5b5090346102a1576020908160031936011261033157919091358152601182528281209081546114bf81613039565b906114cc86519283612589565b8082528482018094845285842084915b83831061155a57505050508451938085019181865251809252858501868360051b8701019493965b8388106115115786860387f35b90919293948380600192603f198a8203018652885190858061153b845160608086528501906123a1565b9385810151868501520151910152970193019701969093929193611504565b6003886001928b9a97989a5161156f81612535565b8c516115868161157f818a61246d565b0382612589565b8152848601548382015260028601548d820152815201920192019190969493966114dc565b5082346102a157816003193601126102a1578051908260018054916115cf83612433565b80865292828116908115611666575060011461160a575b5050506115f882610c79940383612589565b519182916020835260208301906123a1565b94508085527fb10e2d527612073b26eecdfd717e6a320cf44b4afac2b0732d9fcbe2b7fa0cf65b82861061164e575050506115f8826020610c7995820101946115e6565b80546020878701810191909152909501948101611631565b610c799750869350602092506115f894915060ff191682840152151560051b820101946115e6565b5090346102a15760203660031901126102a15735906006821015610282578251610c7990846115f8826116c4816008890161246d565b0383612589565b5082346102a157816003193601126102a15760065490516001600160a01b039091168152602090f35b50829034610282576020366003190112610282575061171560209235612f63565b90519015158152f35b5090346102a1576020806003193601126103315761173a6123c6565b8385805161174781612535565b815161175281612535565b6060368237815284810183905201526001600160a01b03168352601381528383208451929061178084612535565b8551948190865b600382106117d657505050948060ff6117c69360a0986117a689612535565b88885260038101549688019687520154169401931515845251809461264f565b5160608301525115156080820152f35b60018681928554815201930191019091611787565b5034610282578060031936011261028257611804612701565b600680546001600160a01b0319811690915581906001600160a01b03167f8be0079c531659141344cd1fd0a4f28419497f9722a3daafe3b4186f6b6457e08280a380f35b5082346102a157611858366123f7565b90835260116020528183208054821015610fab579061187691612611565b5090610c798151916118938361188c818761246d565b0384612589565b6002600185015494015490519384938461262d565b50829034610282576020366003190112610282576001600160a01b036118cc6123c6565b169283156118e95750806020938392526003845220549051908152f35b91516322718ad960e21b815291820152602490fd5b5090346102a1576020928360031936011261033157805160c0929067ffffffffffffffff90848101828111828210176119fc57845286865b8681106119ee57505050813585526012865282852091835194850191858310908311176119db575082528385845b600683106119b65750505050519183830184845260e084019291945b6006861061198e5784840385f35b90919281806119a9600193601f1989820301875287516123a1565b9501930195019490611980565b600191829186516119cb8161157f818a61246d565b8152019301910190918690611964565b634e487b7160e01b865260419052602485fd5b606081840152018790611936565b634e487b7160e01b875260418452602487fd5b5082346102a15760203660031901126102a15760209181906001600160a01b03611a376123c6565b1681526018845220549051908152f35b508290346102825760203660031901126102825750611a68602092356128cc565b90516001600160a01b039091168152f35b838234610282578060031936011261028257601954611a9781613039565b91611aa484519384612589565b8183526019815260209283810192827f944998273e477b495144fb8794c914197f3ccb46be2900f4698fd0ef743c9695855b838310611b3757505050508451938085019181865251809252858501958260051b8601019392955b828710611b0b5785850386f35b909192938280611b27600193603f198a820301865288516123a1565b9601920196019592919092611afe565b60018881928b9a97989a51611b508161157f818961246d565b81520192019201919096949396611ad6565b50919034610331576020366003190112610331579181923581526010602052206001815491015482519182526020820152f35b5082346102a157610d5490611ba9366125dc565b91925192611bb68461256d565b858452610d4e83838361272d565b509134610331578260031936011261033157611bde612701565b478015611c445760065484918291829182916001600160a01b03165af1611c03612907565b5015611c0d578280f35b906020606492519162461bcd60e51b8352820152601160248201527015da5d1a191c985dd85b0819985a5b1959607a1b6044820152fd5b815162461bcd60e51b815260208185015260146024820152734e6f2066756e647320746f20776974686472617760601b6044820152606490fd5b5082346102a15760203660031901126102a15760209181906001600160a01b03611ca66123c6565b1681526017845220549051908152f35b5082346102a157816003193601126102a157602090516103e78152f35b5082346102a157816003193601126102a157602090516103848152f35b5082346102a157816003193601126102a1576020906015549051908152f35b503461028257610d54611d21366125dc565b9161272d565b5082346102a157816003193601126102a157601454600019810192908311611d53576020838351908152f35b634e487b7160e01b815260118452602490fd5b5082346102a157611d76366123f7565b9290815260126020528181209060068410156102825750610ccf610c7993610cd59261240d565b5082346102a157816003193601126102a15760209051600a8152f35b509134610331578060031936011261033157611dd36123c6565b67ffffffffffffffff91602435838111610778573660c482011161077857611df9612701565b611e01612aa6565b60145493601985116120d25781860191823590602219813603018212156120ce570186810135908282116120ce5760248236039101136120ca5715159182612054575b835191602092838101906001600160601b03198860601b1682524260348201524460548201528860748201528a609482015260758152611e8381612551565b519020976001881461204b575b611e9988612ba8565b601455848651611ea881612503565b8a815260018c89888401914283528d815260108a52209251835551910155611f1f575b505050918391606093611eff877f35a71fd4ad36d3b5f42a9819d12284ac3592b91d09f274e2ff1639a4418c1a0297612c84565b825197885287015242908601526001600160a01b031693a3600160075580f35b895b60068110611f2f5750611ecb565b888b611f4f838a611f40828a612e89565b949095815260128b522061240d565b9290926120395785821161202657908291611f778f9594611f71849154612433565b85612ecc565b84601f8311600114611fb857611fa895909183611fad575b50508160011b916000199060031b1c1916179055612ba8565b611f21565b013590503880611f8f565b91929394848352898320925b8a601f1986168210612010575050918391600193611fa8979695601f19811610611ff6575b505050811b019055612ba8565b0135600019600384901b60f8161c19169055388080611fe9565b6001839582939486013581550194019101611fc4565b634e487b7160e01b8e526041855260248efd5b634e487b7160e01b8e528d855260248efd5b42601555611e90565b875b600681106120645750611e44565b61208061207b6120748385612e89565b3691612693565b6132be565b156120935761208e90612ba8565b612056565b845162461bcd60e51b81526020818a0152601160248201527024b73b30b634b2103432bc1031b7b637b960791b6044820152606490fd5b8780fd5b8880fd5b825162461bcd60e51b8152602081880152601760248201527f4f776e65722072657365727665206578686175737465640000000000000000006044820152606490fd5b5082346102a157816003193601126102a15760209051610e108152f35b50913461033157806003193601126103315761214c6123c6565b91602435612159816128cc565b331515806121fb575b806121d2575b6121bc576001600160a01b039485169482918691167f8c5be1e5ebec7d5bd14f71427d1e84f3dd0314c0f7b2291e5b200ac8c7c3b9258880a48452602052822080546001600160a01b031916909117905580f35b835163a9fbf51f60e01b81523381850152602490fd5b506001600160a01b03811686526005602090815284872033885290528386205460ff1615612168565b506001600160a01b038116331415612162565b5091903461033157602036600319011261033157918260209335612231816128cc565b50825283528190205490516001600160a01b039091168152f35b5082346102a157816003193601126102a15780519082805461226c81612433565b808552916001918083169081156116665750600114612297575050506115f882610c79940383612589565b80809650527f290decd9548b62a8d60345a988386fc84ba6bc95484008f6362f93160ef3e5635b8286106122db575050506115f8826020610c7995820101946115e6565b805460208787018101919091529095019481016122be565b5091903461033157602036600319011261033157359063ffffffff60e01b821680920361033157602092506380ac58cd60e01b8214918215612351575b8215612340575b50519015158152f35b6301ffc9a760e01b14915038612337565b635b5e139f60e01b81149250612330565b9050346102a157816003193601126102a1576020906016548152f35b60005b8381106123915750506000910152565b8181015183820152602001612381565b906020916123ba8151809281855285808601910161237e565b601f01601f1916010190565b600435906001600160a01b03821682036123dc57565b600080fd5b602435906001600160a01b03821682036123dc57565b60409060031901126123dc576004359060243590565b600682101561241d570190600090565b634e487b7160e01b600052603260045260246000fd5b90600182811c92168015612463575b602083101461244d57565b634e487b7160e01b600052602260045260246000fd5b91607f1691612442565b906000929180549161247e83612433565b9182825260019384811690816000146124e057506001146124a0575b50505050565b90919394506000526020928360002092846000945b8386106124cc57505050500101903880808061249a565b8054858701830152940193859082016124b5565b9294505050602093945060ff191683830152151560051b0101903880808061249a565b6040810190811067ffffffffffffffff82111761251f57604052565b634e487b7160e01b600052604160045260246000fd5b6060810190811067ffffffffffffffff82111761251f57604052565b60a0810190811067ffffffffffffffff82111761251f57604052565b6020810190811067ffffffffffffffff82111761251f57604052565b90601f8019910116810190811067ffffffffffffffff82111761251f57604052565b906125c6576125c361157f916040519283809261246d565b90565b634e487b7160e01b600052600060045260246000fd5b60609060031901126123dc576001600160a01b039060043582811681036123dc579160243590811681036123dc579060443590565b805482101561241d576000526003602060002091020190600090565b612645604092959493956060835260608301906123a1565b9460208201520152565b6000915b6003831061266057505050565b600190825181526020809101920192019190612653565b67ffffffffffffffff811161251f57601f01601f191660200190565b92919261269f82612677565b916126ad6040519384612589565b8294818452818301116123dc578281602093846000960137010152565b60195481101561241d5760196000527f944998273e477b495144fb8794c914197f3ccb46be2900f4698fd0ef743c96950190600090565b6006546001600160a01b0316330361271557565b60405163118cdaa760e01b8152336004820152602490fd5b6001600160a01b0391821692909183156128b35760009282845282602095600287526040968488882054169687913315158061281d575b509060027fddf252ad1be2c89b69c2b068fc378daa952ba7f163c4a11628f55a4df523b3ef92846127ea575b858352600381528b8320805460010190558683525289812080546001600160a01b0319168517905580a416928383036127c95750505050565b6064945051926364283d7b60e01b8452600484015260248301526044820152fd5b600087815260046020526040902080546001600160a01b0319169055848352600381528b83208054600019019055612790565b91939450915080612872575b1561283957859291879138612764565b878688612856576024915190637e27328960e01b82526004820152fd5b604491519063177e802f60e01b82523360048301526024820152fd5b503387148015612897575b806128295750858252600481523385898420541614612829565b5086825260058152878220338352815260ff888320541661287d565b604051633250574960e11b815260006004820152602490fd5b6000818152600260205260409020546001600160a01b03169081156128ef575090565b60249060405190637e27328960e01b82526004820152fd5b3d15612932573d9061291882612677565b916129266040519384612589565b82523d6000602084013e565b606090565b9293823b612947575b5050505050565b61298b9060018060a01b038094169560405194859481630a85bd0160e11b9889885216600487015216602485015260448401526080606484015260848301906123a1565b03906020816000938185885af190829082612a0b575b50506129d957826129b0612907565b80519190826129d257604051633250574960e11b815260048101839052602490fd5b6020915001fd5b6001600160e01b031916036129f357503880808080612940565b60249060405190633250574960e11b82526004820152fd5b909192506020813d8211612a4b575b81612a2760209383612589565b810103126102a15751906001600160e01b03198216820361028257509038806129a1565b3d9150612a1a565b91908201809211612a6057565b634e487b7160e01b600052601160045260246000fd5b90670de0b6b3a764000091828102928184041490151715612a6057565b81810292918115918404141715612a6057565b600260075414612ab7576002600755565b604051633ee5aeb560e01b8152600490fd5b91908203918211612a6057565b8015612af0576ec097ce7bc90715b34b9f10000000000490565b634e487b7160e01b600052601260045260246000fd5b8115612af0570490565b6019811115612b91576018198101908111612a60578015612b85576103ce80821015612b765767867d5927a64f800080830292830503612a6057612b549105612bb7565b6615f4ad60b640009080820291820403612a6057670de0b6b3a7640000900490565b505068056bc75e2d6310000090565b506615f4ad60b6400090565b50600090565b600160ff1b8114612a605760000390565b6000198114612a605760010190565b680755bf798b4a1bf1e5811215612c505760008112612c3657670de0b6b3a764000090600190825b6014831115612bef575b50505090565b612c0e612bff83612c1593612a93565b612c0885612a76565b90612b06565b8094612a53565b9160648410612c2e57612c2790612ba8565b9192612bdf565b829350612be9565b612c42612c4791612b97565b612bb7565b6125c390612ad6565b60405162461bcd60e51b815260206004820152600c60248201526b657870206f766572666c6f7760a01b6044820152606490fd5b6040805192612c928461256d565b60008085526001600160a01b0394848616948515612e715783835260209660028852858420541684878215159283612e3e575b81875260038b528887208054600101905582875260028b5288872080546001600160a01b031916831790557fddf252ad1be2c89b69c2b068fc378daa952ba7f163c4a11628f55a4df523b3ef8780a4612e26573b612d26575b505050505050565b85612d639185969798955180938192630a85bd0160e11b9788845233600485015287602485015260448401526080606484015260848301906123a1565b0381858a5af190829082612de2575b5050612daa57505050612d83612907565b8051939084612da4578251633250574960e11b815260048101859052602490fd5b84925001fd5b9194506001600160e01b031990911603612dcb575050388080808080612d1e565b602492505190633250574960e11b82526004820152fd5b909192508781813d8311612e1f575b612dfb8183612589565b810103126102a15751906001600160e01b0319821682036102825750903880612d72565b503d612df1565b84516339e3563760e11b815260048101849052602490fd5b600083815260046020526040902080546001600160a01b031916905580875260038b528887208054600019019055612cc5565b8451633250574960e11b815260048101849052602490fd5b90600681101561241d5760051b81013590601e19813603018212156123dc57019081359167ffffffffffffffff83116123dc5760200182360381136123dc579190565b90601f8111612eda57505050565b600091825260208220906020601f850160051c83019410612f16575b601f0160051c01915b828110612f0b57505050565b818155600101612eff565b9092508290612ef6565b15612f2757565b60405162461bcd60e51b8152602060048201526014602482015273151bdad95b88191bd95cc81b9bdd08195e1a5cdd60621b6044820152606490fd5b600081815260026020526040812054909190612f89906001600160a01b03161515612f20565b808252601060205260408220906020604051612fa481612503565b8354815260018094015491829101526201518090818042049104811461303157601554918215159283613025575b50505061301f57600c900681810180911161300b57612ff19042613428565b61300657612ffe426136fc565b613006575090565b905090565b634e487b7160e01b83526011600452602483fd5b50905090565b04149050388080612fd2565b505050905090565b67ffffffffffffffff811161251f5760051b60200190565b9061305b82612677565b6130686040519182612589565b8281528092613079601f1991612677565b0190602036910137565b805115613166578051600291828201809211612a60576003918290046001600160fe1b0381168103612a60576130bc908495941b613051565b936020850193829183518401906020820192835194600085525b838110613115575050505052510680600114613102576002146130f7575090565b603d90600019015390565b50603d9081600019820153600119015390565b87600491999293949901918251600190603f9082828260121c16880101518453828282600c1c16880101518385015382828260061c16880101518885015316850101518982015301979291906130d6565b50506040516131748161256d565b6000815290565b806000917a184f03e93ff9f4daa797ed6e38ed64bf6a1f010000000000000000808210156132b0575b506d04ee2d6d415b85acef8100000000808310156132a1575b50662386f26fc1000080831015613292575b506305f5e10080831015613283575b5061271080831015613274575b506064821015613264575b600a8092101561325a575b600190816021613212828701613051565b95860101905b613224575b5050505090565b600019019083906f181899199a1a9b1b9c1cb0b131b232b360811b8282061a83530491821561325557919082613218565b61321d565b9160010191613201565b91906064600291049101916131f6565b600491939204910191386131eb565b600891939204910191386131de565b601091939204910191386131cf565b602091939204910191386131bd565b6040935081049150386131a4565b8051906007918281036133c4571561241d576020818101516001600160f81b03199290831660dd60f81b016133bb5760015b848110613301575050505050600190565b81518110156133a6578383828401015116600360fc1b8110159081613397575b8115613373575b811561334d575b50156133435761333e90612ba8565b6132f0565b5050505050600090565b604160f81b811015915081613364575b503861332f565b602360f91b101590503861335d565b9050606160f81b81101580613389575b90613328565b50603360f91b811115613383565b603960f81b8111159150613321565b60246000634e487b7160e01b81526032600452fd5b50505050600090565b505050600090565b6019549060005b8281106133e257505050600090565b61157f6133fe6133f1836126ca565b506040519283809261246d565b805160208092012090835190840120146134205761341b90612ba8565b6133d3565b505050600190565b613431906134ff565b90602082015160038114806134f1575b806134dd575b6134205760068114806134cf575b806134c5575b6134205760098114806134b7575b806134ad575b61342057600c14918261349e575b5081613493575b5061348e57600090565b600190565b600491501438613484565b60400151601f1491503861347d565b506003821461346f565b50601e604084015114613469565b506002821461345b565b50601e604084015114613455565b506001821480613447575060058214613447565b50601f604084015114613441565b9062015180604092835161351281612535565b60009481868093528260208201520152046107b2905b613531826135f7565b156135ec5761ffff61016e5b169081811061355f576135599161355391612ac9565b91612ba8565b90613528565b9293919260019150829082905b600c841115613595575b5050506040519261358684612535565b83526020830152604082015290565b6135a28685939495613620565b908181106135bf576135b79161355391612ac9565b92919061356c565b93929194505082018092116135d8575090388080613576565b634e487b7160e01b81526011600452602490fd5b61ffff61016d61353d565b60038116612b91576064810661361a57610190900661361557600190565b600090565b50600190565b6001811480156136f2575b80156136e8575b80156136de575b80156136d4575b80156136ca575b80156136c0575b6136b9576004811480156136af575b80156136a5575b801561369b575b6136945760021461367c5750600090565b613685906135f7565b1561368f57601d90565b601c90565b5050601e90565b50600b811461366b565b5060098114613664565b506006811461365d565b5050601f90565b50600c811461364e565b50600a8114613647565b5060088114613640565b5060078114613639565b5060058114613632565b506003811461362b565b613705906134ff565b602081015160038114806137d2575b806137c3575b6137805760068114806137b4575b806137a5575b613780576009811480613796575b80613787575b61378057600c14908161376f575b8161375f575061348e57600090565b6016915060400151111538613484565b905060146040820151101590613750565b5050600190565b50601860408301511115613742565b5060166040830151101561373c565b5060166040830151111561372e565b50601460408301511015613728565b5060156040830151111561371a565b5060136040830151101561371456fea2646970667358221220bd2830c0190d6c3f7e10f2260467ae9d94d8464b8114bb4d41c5afc309ccb0da64736f6c63430008140033b10e2d527612073b26eecdfd717e6a320cf44b4afac2b0732d9fcbe2b7fa0cf6","opcodes":"PUSH1 0x40 PUSH1 0x80 DUP2 MSTORE CALLVALUE PUSH3 0x1182 JUMPI PUSH3 0x4AE5 DUP1 CODESIZE SUB DUP1 PUSH3 0x1E DUP2 PUSH3 0x11BD JUMP JUMPDEST SWAP3 DUP4 CODECOPY DUP2 ADD SWAP1 DUP3 DUP2 DUP4 SUB SLT PUSH3 0x1182 JUMPI DUP1 MLOAD PUSH1 0x1 PUSH1 0x1 PUSH1 0x40 SHL SUB SWAP2 SWAP1 DUP3 DUP2 GT PUSH3 0x1182 JUMPI DUP2 ADD SWAP2 DUP4 PUSH1 0x1F DUP5 ADD SLT ISZERO PUSH3 0x1182 JUMPI DUP3 MLOAD SWAP2 DUP2 DUP4 GT PUSH3 0x1187 JUMPI PUSH1 0x5 SWAP5 DUP4 DUP7 SHL SWAP5 PUSH1 0x20 PUSH3 0x72 DUP2 DUP9 ADD PUSH3 0x11BD JUMP JUMPDEST DUP1 SWAP7 DUP2 MSTORE ADD SWAP1 PUSH1 0x20 DUP3 SWAP8 DUP3 ADD ADD SWAP3 DUP4 GT PUSH3 0x1182 JUMPI PUSH1 0x20 ADD SWAP1 JUMPDEST DUP3 DUP3 LT PUSH3 0x1167 JUMPI POP POP POP PUSH1 0x20 PUSH3 0xA5 SWAP2 ADD PUSH3 0x11E3 JUMP JUMPDEST PUSH3 0xAF PUSH3 0x119D JUMP JUMPDEST SWAP3 PUSH1 0x8 DUP5 MSTORE PUSH8 0x5370617474657273 PUSH1 0xC0 SHL PUSH1 0x20 DUP6 ADD MSTORE PUSH3 0xCF PUSH3 0x119D JUMP JUMPDEST SWAP6 PUSH1 0x4 SWAP7 DUP8 DUP2 MSTORE PUSH4 0x14D41055 PUSH1 0xE2 SHL PUSH1 0x20 DUP3 ADD MSTORE DUP6 MLOAD DUP6 DUP2 GT PUSH3 0x1152 JUMPI DUP1 PUSH1 0x0 SWAP8 PUSH3 0xFD DUP10 SLOAD PUSH3 0x11F8 JUMP JUMPDEST PUSH1 0x1F DUP2 GT PUSH3 0x1114 JUMPI JUMPDEST POP PUSH1 0x20 SWAP1 PUSH1 0x1F DUP4 GT PUSH1 0x1 EQ PUSH3 0x10AB JUMPI DUP10 SWAP3 PUSH3 0x109F JUMPI JUMPDEST POP POP DUP2 PUSH1 0x1 SHL SWAP2 PUSH1 0x0 NOT SWAP1 PUSH1 0x3 SHL SHR NOT AND OR DUP7 SSTORE JUMPDEST DUP1 MLOAD SWAP1 DUP6 DUP3 GT PUSH3 0x108C JUMPI DUP2 SWAP1 PUSH3 0x14E PUSH1 0x1 SLOAD PUSH3 0x11F8 JUMP JUMPDEST PUSH1 0x1F DUP2 GT PUSH3 0x1041 JUMPI JUMPDEST POP PUSH1 0x20 SWAP1 PUSH1 0x1F DUP4 GT PUSH1 0x1 EQ PUSH3 0xFCA JUMPI DUP9 SWAP3 PUSH3 0xFBE JUMPI JUMPDEST POP POP DUP2 PUSH1 0x1 SHL SWAP2 PUSH1 0x0 NOT SWAP1 PUSH1 0x3 SHL SHR NOT AND OR PUSH1 0x1 SSTORE JUMPDEST CALLER ISZERO PUSH3 0xFA7 JUMPI PUSH1 0x6 DUP1 SLOAD CALLER PUSH1 0x1 PUSH1 0x1 PUSH1 0xA0 SHL SUB NOT DUP3 AND DUP2 OR SWAP1 SWAP3 SSTORE PUSH1 0x1 PUSH1 0x1 PUSH1 0xA0 SHL SUB AND PUSH32 0x8BE0079C531659141344CD1FD0A4F28419497F9722A3DAAFE3B4186F6B6457E0 DUP8 DUP1 LOG3 PUSH1 0x7 PUSH1 0x1 DUP2 SSTORE DUP9 MLOAD SWAP1 PUSH1 0xC0 DUP3 ADD DUP3 DUP2 LT DUP8 DUP3 GT OR PUSH3 0xF94 JUMPI DUP11 MSTORE PUSH3 0x1F4 PUSH3 0x119D JUMP JUMPDEST DUP2 DUP2 MSTORE PUSH7 0x23666331613461 PUSH1 0xC8 SHL PUSH1 0x20 DUP3 ADD MSTORE DUP3 MSTORE PUSH3 0x213 PUSH3 0x119D JUMP JUMPDEST DUP2 DUP2 MSTORE PUSH7 0x8CDCD590D0E4D PUSH1 0xCA SHL PUSH1 0x20 DUP3 ADD MSTORE PUSH1 0x20 DUP4 ADD MSTORE PUSH3 0x235 PUSH3 0x119D JUMP JUMPDEST DUP2 DUP2 MSTORE PUSH7 0x23323538376333 PUSH1 0xC8 SHL PUSH1 0x20 DUP3 ADD MSTORE DUP11 DUP4 ADD MSTORE PUSH3 0x256 PUSH3 0x119D JUMP JUMPDEST DUP2 DUP2 MSTORE PUSH7 0x23663263393435 PUSH1 0xC8 SHL PUSH1 0x20 DUP3 ADD MSTORE PUSH1 0x60 DUP4 ADD MSTORE PUSH3 0x278 PUSH3 0x119D JUMP JUMPDEST DUP2 DUP2 MSTORE PUSH7 0x2330303030303 PUSH1 0xCC SHL PUSH1 0x20 DUP3 ADD MSTORE PUSH1 0x80 DUP4 ADD MSTORE PUSH3 0x29A PUSH3 0x119D JUMP JUMPDEST SWAP1 DUP2 MSTORE PUSH7 0x11A32323232323 PUSH1 0xC9 SHL PUSH1 0x20 DUP3 ADD MSTORE PUSH1 0xA0 DUP3 ADD MSTORE PUSH1 0x8 DUP7 SWAP2 JUMPDEST PUSH1 0x6 DUP4 LT PUSH3 0xE5E JUMPI POP POP POP POP PUSH1 0x1 PUSH1 0x14 SSTORE DUP1 MLOAD ISZERO PUSH3 0xE1B JUMPI MLOAD SWAP2 DUP3 GT PUSH3 0xE08 JUMPI PUSH9 0x10000000000000000 SWAP2 DUP3 DUP2 GT PUSH3 0xDB9 JUMPI PUSH1 0xE SWAP5 DUP6 SLOAD DUP3 DUP8 SSTORE DUP1 DUP4 LT PUSH3 0xDEA JUMPI JUMPDEST POP DUP6 DUP6 MSTORE PUSH1 0x20 DUP6 KECCAK256 DUP6 JUMPDEST DUP4 DUP2 LT PUSH3 0xDCC JUMPI POP POP PUSH1 0xF DUP1 SLOAD PUSH1 0x1 PUSH1 0x1 PUSH1 0xA8 SHL SUB NOT AND PUSH1 0x1 PUSH1 0x1 PUSH1 0xA0 SHL SUB SWAP1 SWAP5 AND SWAP4 SWAP1 SWAP4 OR PUSH1 0x1 PUSH1 0xA0 SHL OR SWAP1 SWAP3 SSTORE POP POP PUSH1 0x19 DUP1 SLOAD DUP3 DUP2 LT ISZERO PUSH3 0xDB9 JUMPI DUP1 PUSH1 0x1 PUSH3 0x358 SWAP3 ADD DUP4 SSTORE PUSH3 0x127B JUMP JUMPDEST PUSH3 0xDA7 JUMPI PUSH3 0x374 PUSH3 0x36D DUP3 SLOAD PUSH3 0x11F8 JUMP JUMPDEST DUP3 PUSH3 0x124E JUMP JUMPDEST PUSH32 0x70616C657474654368616E6765416C6C00000000000000000000000000000020 SWAP1 SSTORE DUP1 SLOAD DUP3 DUP2 LT ISZERO PUSH3 0xDB9 JUMPI DUP1 PUSH1 0x1 PUSH3 0x3B3 SWAP3 ADD DUP4 SSTORE PUSH3 0x127B JUMP JUMPDEST PUSH3 0xDA7 JUMPI PUSH3 0x3C8 PUSH3 0x36D DUP3 SLOAD PUSH3 0x11F8 JUMP JUMPDEST PUSH32 0x70616C657474654368616E67654F6E6500000000000000000000000000000020 SWAP1 SSTORE DUP1 SLOAD DUP3 DUP2 LT ISZERO PUSH3 0xDB9 JUMPI DUP1 PUSH1 0x1 PUSH3 0x407 SWAP3 ADD DUP4 SSTORE PUSH3 0x127B JUMP JUMPDEST PUSH3 0xDA7 JUMPI PUSH3 0x41C PUSH3 0x36D DUP3 SLOAD PUSH3 0x11F8 JUMP JUMPDEST PUSH32 0x70616C65747465496E766572740000000000000000000000000000000000001A SWAP1 SSTORE DUP1 SLOAD DUP3 DUP2 LT ISZERO PUSH3 0xDB9 JUMPI DUP1 PUSH1 0x1 PUSH3 0x45B SWAP3 ADD DUP4 SSTORE PUSH3 0x127B JUMP JUMPDEST PUSH3 0xDA7 JUMPI PUSH3 0x470 PUSH3 0x36D DUP3 SLOAD PUSH3 0x11F8 JUMP JUMPDEST PUSH32 0x70616C6574746553776170000000000000000000000000000000000000000016 SWAP1 SSTORE DUP1 SLOAD DUP3 DUP2 LT ISZERO PUSH3 0xDB9 JUMPI DUP1 PUSH1 0x1 PUSH3 0x4AF SWAP3 ADD DUP4 SSTORE PUSH3 0x127B JUMP JUMPDEST PUSH3 0xDA7 JUMPI PUSH3 0x4C4 PUSH3 0x36D DUP3 SLOAD PUSH3 0x11F8 JUMP JUMPDEST PUSH32 0x7368617065457870616E64000000000000000000000000000000000000000016 SWAP1 SSTORE DUP1 SLOAD DUP3 DUP2 LT ISZERO PUSH3 0xDB9 JUMPI DUP1 PUSH1 0x1 PUSH3 0x503 SWAP3 ADD DUP4 SSTORE PUSH3 0x127B JUMP JUMPDEST PUSH3 0xDA7 JUMPI PUSH3 0x518 PUSH3 0x36D DUP3 SLOAD PUSH3 0x11F8 JUMP JUMPDEST PUSH32 0x7368617065436F6E74726163740000000000000000000000000000000000001A SWAP1 SSTORE DUP1 SLOAD DUP3 DUP2 LT ISZERO PUSH3 0xDB9 JUMPI DUP1 PUSH1 0x1 PUSH3 0x557 SWAP3 ADD DUP4 SSTORE PUSH3 0x127B JUMP JUMPDEST PUSH3 0xDA7 JUMPI PUSH3 0x56C PUSH3 0x36D DUP3 SLOAD PUSH3 0x11F8 JUMP JUMPDEST PUSH32 0x7368617065526F74617465000000000000000000000000000000000000000016 SWAP1 SSTORE DUP1 SLOAD DUP3 DUP2 LT ISZERO PUSH3 0xDB9 JUMPI DUP1 PUSH1 0x1 PUSH3 0x5AB SWAP3 ADD DUP4 SSTORE PUSH3 0x127B JUMP JUMPDEST PUSH3 0xDA7 JUMPI PUSH3 0x5C0 PUSH3 0x36D DUP3 SLOAD PUSH3 0x11F8 JUMP JUMPDEST PUSH32 0x73686170654368616E6765437572766543656E7465727300000000000000002E SWAP1 SSTORE DUP1 SLOAD DUP3 DUP2 LT ISZERO PUSH3 0xDB9 JUMPI DUP1 PUSH1 0x1 PUSH3 0x5FF SWAP3 ADD DUP4 SSTORE PUSH3 0x127B JUMP JUMPDEST PUSH3 0xDA7 JUMPI PUSH3 0x614 PUSH3 0x36D DUP3 SLOAD PUSH3 0x11F8 JUMP JUMPDEST PUSH32 0x73686170654368616E67654C696E65456E64706F696E74730000000000000030 SWAP1 SSTORE DUP1 SLOAD DUP3 DUP2 LT ISZERO PUSH3 0xDB9 JUMPI DUP1 PUSH1 0x1 PUSH3 0x653 SWAP3 ADD DUP4 SSTORE PUSH3 0x127B JUMP JUMPDEST PUSH3 0xDA7 JUMPI PUSH3 0x668 PUSH3 0x36D DUP3 SLOAD PUSH3 0x11F8 JUMP JUMPDEST PUSH32 0x7368617065466C69700000000000000000000000000000000000000000000012 SWAP1 SSTORE DUP1 SLOAD DUP3 DUP2 LT ISZERO PUSH3 0xDB9 JUMPI DUP1 PUSH1 0x1 PUSH3 0x6A7 SWAP3 ADD DUP4 SSTORE PUSH3 0x127B JUMP JUMPDEST SWAP5 SWAP1 SWAP5 PUSH3 0xDA7 JUMPI PUSH3 0x6C6 PUSH3 0x6BF DUP7 SLOAD PUSH3 0x11F8 JUMP JUMPDEST DUP7 PUSH3 0x124E JUMP JUMPDEST PUSH1 0x24 SWAP5 DUP6 PUSH18 0x6772616469656E74547970654368616E6765 PUSH1 0x70 SHL ADD SWAP1 SSTORE DUP2 SLOAD DUP4 DUP2 LT ISZERO PUSH3 0xD95 JUMPI DUP1 PUSH1 0x1 PUSH3 0x6FF SWAP3 ADD DUP5 SSTORE PUSH3 0x127B JUMP JUMPDEST PUSH3 0xD84 JUMPI PUSH3 0x714 PUSH3 0x36D DUP3 SLOAD PUSH3 0x11F8 JUMP JUMPDEST PUSH32 0x6772616469656E74446972656374696F6E4368616E676500000000000000002E SWAP1 SSTORE DUP2 SLOAD DUP4 DUP2 LT ISZERO PUSH3 0xD95 JUMPI DUP1 PUSH1 0x1 PUSH3 0x753 SWAP3 ADD DUP5 SSTORE PUSH3 0x127B JUMP JUMPDEST PUSH3 0xD84 JUMPI PUSH3 0x768 PUSH3 0x36D DUP3 SLOAD PUSH3 0x11F8 JUMP JUMPDEST PUSH32 0x6469766964657241646400000000000000000000000000000000000000000014 SWAP1 SSTORE DUP2 SLOAD DUP4 DUP2 LT ISZERO PUSH3 0xD95 JUMPI DUP1 PUSH1 0x1 PUSH3 0x7A7 SWAP3 ADD DUP5 SSTORE PUSH3 0x127B JUMP JUMPDEST PUSH3 0xD84 JUMPI PUSH3 0x7BC PUSH3 0x36D DUP3 SLOAD PUSH3 0x11F8 JUMP JUMPDEST PUSH32 0x6469766964657252656D6F76650000000000000000000000000000000000001A SWAP1 SSTORE DUP2 SLOAD DUP4 DUP2 LT ISZERO PUSH3 0xD95 JUMPI DUP1 PUSH1 0x1 PUSH3 0x7FB SWAP3 ADD DUP5 SSTORE PUSH3 0x127B JUMP JUMPDEST PUSH3 0xD84 JUMPI PUSH3 0x810 PUSH3 0x36D DUP3 SLOAD PUSH3 0x11F8 JUMP JUMPDEST PUSH32 0x646976696465724D6F7665000000000000000000000000000000000000000016 SWAP1 SSTORE DUP2 SLOAD DUP4 DUP2 LT ISZERO PUSH3 0xD95 JUMPI DUP1 PUSH1 0x1 PUSH3 0x84F SWAP3 ADD DUP5 SSTORE PUSH3 0x127B JUMP JUMPDEST PUSH3 0xD84 JUMPI PUSH3 0x864 PUSH3 0x36D DUP3 SLOAD PUSH3 0x11F8 JUMP JUMPDEST PUSH32 0x636972636C654164640000000000000000000000000000000000000000000012 SWAP1 SSTORE DUP2 SLOAD DUP4 DUP2 LT ISZERO PUSH3 0xD95 JUMPI DUP1 PUSH1 0x1 PUSH3 0x8A3 SWAP3 ADD DUP5 SSTORE PUSH3 0x127B JUMP JUMPDEST PUSH3 0xD84 JUMPI PUSH3 0x8B8 PUSH3 0x36D DUP3 SLOAD PUSH3 0x11F8 JUMP JUMPDEST PUSH32 0x636972636C6552656D6F76650000000000000000000000000000000000000018 SWAP1 SSTORE DUP2 SLOAD DUP4 DUP2 LT ISZERO PUSH3 0xD95 JUMPI DUP1 PUSH1 0x1 PUSH3 0x8F7 SWAP3 ADD DUP5 SSTORE PUSH3 0x127B JUMP JUMPDEST PUSH3 0xD84 JUMPI PUSH3 0x90C PUSH3 0x36D DUP3 SLOAD PUSH3 0x11F8 JUMP JUMPDEST PUSH32 0x636972636C654D6F766500000000000000000000000000000000000000000014 SWAP1 SSTORE DUP2 SLOAD DUP4 DUP2 LT ISZERO PUSH3 0xD95 JUMPI DUP1 PUSH1 0x1 PUSH3 0x94B SWAP3 ADD DUP5 SSTORE PUSH3 0x127B JUMP JUMPDEST PUSH3 0xD84 JUMPI PUSH3 0x960 PUSH3 0x36D DUP3 SLOAD PUSH3 0x11F8 JUMP JUMPDEST PUSH32 0x636972636C65526573697A650000000000000000000000000000000000000018 SWAP1 SSTORE DUP2 SLOAD DUP4 DUP2 LT ISZERO PUSH3 0xD95 JUMPI DUP1 PUSH1 0x1 PUSH3 0x99F SWAP3 ADD DUP5 SSTORE PUSH3 0x127B JUMP JUMPDEST PUSH3 0xD84 JUMPI PUSH3 0x9B4 PUSH3 0x36D DUP3 SLOAD PUSH3 0x11F8 JUMP JUMPDEST DUP2 PUSH7 0x1B1A5B99505919 PUSH1 0xCA SHL ADD SWAP1 SSTORE DUP2 SLOAD DUP4 DUP2 LT ISZERO PUSH3 0xD95 JUMPI DUP1 PUSH1 0x1 PUSH3 0x9DF SWAP3 ADD DUP5 SSTORE PUSH3 0x127B JUMP JUMPDEST PUSH3 0xD84 JUMPI PUSH3 0x9F4 PUSH3 0x36D DUP3 SLOAD PUSH3 0x11F8 JUMP JUMPDEST PUSH32 0x6C696E6552656D6F766500000000000000000000000000000000000000000014 SWAP1 SSTORE DUP2 SLOAD DUP4 DUP2 LT ISZERO PUSH3 0xD95 JUMPI DUP1 PUSH1 0x1 PUSH3 0xA33 SWAP3 ADD DUP5 SSTORE PUSH3 0x127B JUMP JUMPDEST PUSH3 0xD84 JUMPI PUSH3 0xA48 PUSH3 0x36D DUP3 SLOAD PUSH3 0x11F8 JUMP JUMPDEST PUSH32 0x6C696E654D6F7665000000000000000000000000000000000000000000000010 SWAP1 SSTORE DUP2 SLOAD DUP4 DUP2 LT ISZERO PUSH3 0xD95 JUMPI DUP1 PUSH1 0x1 PUSH3 0xA87 SWAP3 ADD DUP5 SSTORE PUSH3 0x127B JUMP JUMPDEST PUSH3 0xD84 JUMPI PUSH3 0xA9C PUSH3 0x36D DUP3 SLOAD PUSH3 0x11F8 JUMP JUMPDEST PUSH32 0x6C696E65526F7461746500000000000000000000000000000000000000000014 SWAP1 SSTORE DUP2 SLOAD DUP4 DUP2 LT ISZERO PUSH3 0xD95 JUMPI DUP1 PUSH1 0x1 PUSH3 0xADB SWAP3 ADD DUP5 SSTORE PUSH3 0x127B JUMP JUMPDEST PUSH3 0xD84 JUMPI PUSH3 0xAF0 PUSH3 0x36D DUP3 SLOAD PUSH3 0x11F8 JUMP JUMPDEST PUSH32 0x617370656374526174696F4368616E6765000000000000000000000000000022 SWAP1 SSTORE DUP2 SLOAD DUP4 DUP2 LT ISZERO PUSH3 0xD95 JUMPI DUP1 PUSH1 0x1 PUSH3 0xB2F SWAP3 ADD DUP5 SSTORE PUSH3 0x127B JUMP JUMPDEST PUSH3 0xD84 JUMPI PUSH3 0xB44 PUSH3 0x36D DUP3 SLOAD PUSH3 0x11F8 JUMP JUMPDEST DUP2 PUSH7 0x6578706C6F6465 PUSH1 0xC8 SHL ADD SWAP1 SSTORE DUP2 SLOAD DUP4 DUP2 LT ISZERO PUSH3 0xD95 JUMPI DUP1 PUSH1 0x1 PUSH3 0xB6F SWAP3 ADD DUP5 SSTORE PUSH3 0x127B JUMP JUMPDEST SWAP2 SWAP1 SWAP2 PUSH3 0xD84 JUMPI PUSH3 0xB8E PUSH3 0xB87 DUP4 SLOAD PUSH3 0x11F8 JUMP JUMPDEST DUP4 PUSH3 0x124E JUMP JUMPDEST PUSH7 0x696D706C6F6465 PUSH1 0xC8 SHL ADD SWAP1 SSTORE DUP1 SLOAD DUP3 DUP2 LT ISZERO PUSH3 0xD71 JUMPI DUP1 PUSH1 0x1 PUSH3 0xBB8 SWAP3 ADD DUP4 SSTORE PUSH3 0x127B JUMP JUMPDEST PUSH3 0xD5F JUMPI PUSH3 0xBCD PUSH3 0x36D DUP3 SLOAD PUSH3 0x11F8 JUMP JUMPDEST PUSH1 0x8 PUSH4 0x66616465 PUSH1 0xE0 SHL ADD SWAP1 SSTORE DUP1 SLOAD DUP3 DUP2 LT ISZERO PUSH3 0xD71 JUMPI DUP1 PUSH1 0x1 PUSH3 0xBF6 SWAP3 ADD DUP4 SSTORE PUSH3 0x127B JUMP JUMPDEST PUSH3 0xD5F JUMPI PUSH3 0xC0B PUSH3 0x36D DUP3 SLOAD PUSH3 0x11F8 JUMP JUMPDEST PUSH32 0x696E74656E736966790000000000000000000000000000000000000000000012 SWAP1 SSTORE DUP1 SLOAD DUP3 DUP2 LT ISZERO PUSH3 0xD71 JUMPI DUP1 PUSH1 0x1 PUSH3 0xC4A SWAP3 ADD DUP4 SSTORE PUSH3 0x127B JUMP JUMPDEST PUSH3 0xD5F JUMPI PUSH3 0xC5F PUSH3 0x36D DUP3 SLOAD PUSH3 0x11F8 JUMP JUMPDEST PUSH32 0x736372616D626C65000000000000000000000000000000000000000000000010 SWAP1 SSTORE DUP1 SLOAD DUP3 DUP2 LT ISZERO PUSH3 0xD71 JUMPI DUP1 PUSH1 0x1 PUSH3 0xC9E SWAP3 ADD DUP4 SSTORE PUSH3 0x127B JUMP JUMPDEST PUSH3 0xD5F JUMPI PUSH3 0xCB3 PUSH3 0x36D DUP3 SLOAD PUSH3 0x11F8 JUMP JUMPDEST PUSH32 0x756E646F4D75746174696F6E0000000000000000000000000000000000000018 SWAP1 SSTORE DUP1 SLOAD SWAP2 DUP3 LT ISZERO PUSH3 0xD4D JUMPI PUSH1 0x1 DUP3 ADD SWAP1 SSTORE PUSH3 0xCF2 SWAP1 PUSH3 0x127B JUMP JUMPDEST SWAP4 SWAP1 SWAP4 PUSH3 0xD3E JUMPI POP POP POP PUSH3 0xD0D PUSH3 0x36D DUP3 SLOAD PUSH3 0x11F8 JUMP JUMPDEST PUSH32 0x72657475726E546F50726576696F757356657273696F6E00000000000000002E SWAP1 SSTORE MLOAD PUSH2 0x3817 SWAP1 DUP2 PUSH3 0x12AE DUP3 CODECOPY RETURN JUMPDEST PUSH4 0x4E487B71 PUSH1 0xE0 SHL DUP3 MSTORE DUP2 SWAP1 MSTORE REVERT JUMPDEST POP POP PUSH4 0x4E487B71 PUSH1 0xE0 SHL DUP2 MSTORE PUSH1 0x41 DUP4 MSTORE REVERT JUMPDEST POP POP PUSH4 0x4E487B71 PUSH1 0xE0 SHL DUP3 MSTORE POP DUP1 DUP4 MSTORE REVERT JUMPDEST POP POP PUSH4 0x4E487B71 PUSH1 0xE0 SHL DUP3 MSTORE POP PUSH1 0x41 DUP4 MSTORE REVERT JUMPDEST PUSH4 0x4E487B71 PUSH1 0xE0 SHL DUP6 MSTORE DUP5 DUP8 MSTORE DUP6 DUP6 REVERT JUMPDEST PUSH4 0x4E487B71 PUSH1 0xE0 SHL DUP6 MSTORE PUSH1 0x41 DUP8 MSTORE DUP6 DUP6 REVERT JUMPDEST PUSH4 0x4E487B71 PUSH1 0xE0 SHL DUP5 MSTORE DUP4 DUP7 MSTORE PUSH1 0x24 DUP5 REVERT JUMPDEST PUSH4 0x4E487B71 PUSH1 0xE0 SHL DUP5 MSTORE PUSH1 0x41 DUP7 MSTORE PUSH1 0x24 DUP5 REVERT JUMPDEST DUP3 MLOAD PUSH1 0x1 PUSH1 0x1 PUSH1 0xA0 SHL SUB AND DUP2 DUP4 ADD SSTORE PUSH1 0x20 SWAP1 SWAP3 ADD SWAP2 PUSH1 0x1 ADD PUSH3 0x308 JUMP JUMPDEST DUP7 DUP7 MSTORE PUSH1 0x20 DUP7 KECCAK256 PUSH3 0xE01 SWAP2 DUP2 ADD SWAP1 DUP5 ADD PUSH3 0x1235 JUMP JUMPDEST CODESIZE PUSH3 0x2FE JUMP JUMPDEST PUSH4 0x4E487B71 PUSH1 0xE0 SHL DUP4 MSTORE PUSH1 0x41 DUP6 MSTORE PUSH1 0x24 DUP4 REVERT JUMPDEST DUP7 MLOAD PUSH3 0x461BCD PUSH1 0xE5 SHL DUP2 MSTORE PUSH1 0x20 DUP2 DUP9 ADD MSTORE PUSH1 0x1E PUSH1 0x24 DUP3 ADD MSTORE PUSH32 0x4D7573742070726F766964652073746F72616765206164647265737365730000 PUSH1 0x44 DUP3 ADD MSTORE PUSH1 0x64 SWAP1 REVERT JUMPDEST DUP1 MLOAD DUP1 MLOAD SWAP1 DUP9 DUP3 GT PUSH3 0xF81 JUMPI PUSH3 0xE77 DUP5 SLOAD PUSH3 0x11F8 JUMP JUMPDEST PUSH1 0x1F DUP2 GT PUSH3 0xF43 JUMPI JUMPDEST POP PUSH1 0x20 SWAP1 DUP11 PUSH1 0x1F DUP5 GT PUSH1 0x1 EQ PUSH3 0xED1 JUMPI SWAP3 DUP1 PUSH1 0x20 SWAP4 PUSH1 0x1 SWAP7 SWAP4 DUP8 SWAP7 SWAP3 PUSH3 0xEC5 JUMPI JUMPDEST POP POP PUSH1 0x0 NOT PUSH1 0x3 DUP4 SWAP1 SHL SHR NOT AND SWAP1 DUP5 SHL OR DUP6 SSTORE JUMPDEST ADD SWAP3 ADD SWAP3 ADD SWAP2 SWAP1 PUSH3 0x2B7 JUMP JUMPDEST ADD MLOAD SWAP1 POP CODESIZE DUP1 PUSH3 0xEA4 JUMP JUMPDEST DUP6 SWAP1 MSTORE PUSH1 0x20 DUP12 KECCAK256 SWAP2 SWAP1 DUP12 JUMPDEST PUSH1 0x1F NOT DUP6 AND DUP2 LT PUSH3 0xF2A JUMPI POP DUP4 PUSH1 0x20 SWAP4 PUSH1 0x1 SWAP7 SWAP4 DUP8 SWAP7 SWAP4 DUP8 SWAP5 PUSH1 0x1F NOT DUP2 AND LT PUSH3 0xF10 JUMPI JUMPDEST POP POP POP DUP2 SHL ADD DUP6 SSTORE PUSH3 0xEB8 JUMP JUMPDEST ADD MLOAD PUSH1 0x0 NOT PUSH1 0xF8 DUP5 PUSH1 0x3 SHL AND SHR NOT AND SWAP1 SSTORE CODESIZE DUP1 DUP1 PUSH3 0xF02 JUMP JUMPDEST SWAP2 SWAP3 PUSH1 0x20 PUSH1 0x1 DUP2 SWAP3 DUP7 DUP6 ADD MLOAD DUP2 SSTORE ADD SWAP5 ADD SWAP3 ADD PUSH3 0xEDC JUMP JUMPDEST PUSH3 0xF6F SWAP1 DUP6 DUP13 MSTORE PUSH1 0x20 DUP13 KECCAK256 PUSH1 0x1F DUP6 ADD DUP10 SHR DUP2 ADD SWAP2 PUSH1 0x20 DUP7 LT PUSH3 0xF76 JUMPI JUMPDEST PUSH1 0x1F ADD DUP10 SHR ADD SWAP1 PUSH3 0x1235 JUMP JUMPDEST CODESIZE PUSH3 0xE81 JUMP JUMPDEST SWAP1 SWAP2 POP DUP2 SWAP1 PUSH3 0xF62 JUMP JUMPDEST PUSH4 0x4E487B71 PUSH1 0xE0 SHL DUP11 MSTORE PUSH1 0x41 DUP13 MSTORE PUSH1 0x24 DUP11 REVERT JUMPDEST PUSH4 0x4E487B71 PUSH1 0xE0 SHL DUP9 MSTORE PUSH1 0x41 DUP11 MSTORE PUSH1 0x24 DUP9 REVERT JUMPDEST DUP8 MLOAD PUSH4 0x1E4FBDF7 PUSH1 0xE0 SHL DUP2 MSTORE DUP1 DUP9 ADD DUP7 SWAP1 MSTORE PUSH1 0x24 SWAP1 REVERT JUMPDEST ADD MLOAD SWAP1 POP CODESIZE DUP1 PUSH3 0x170 JUMP JUMPDEST PUSH1 0x1 DUP10 MSTORE PUSH1 0x0 DUP1 MLOAD PUSH1 0x20 PUSH3 0x4AC5 DUP4 CODECOPY DUP2 MLOAD SWAP2 MSTORE SWAP3 POP PUSH1 0x1F NOT DUP5 AND DUP10 JUMPDEST DUP2 DUP2 LT PUSH3 0x1028 JUMPI POP SWAP1 DUP5 PUSH1 0x1 SWAP6 SWAP5 SWAP4 SWAP3 LT PUSH3 0x100E JUMPI JUMPDEST POP POP POP DUP2 SHL ADD PUSH1 0x1 SSTORE PUSH3 0x186 JUMP JUMPDEST ADD MLOAD PUSH1 0x0 NOT PUSH1 0xF8 DUP5 PUSH1 0x3 SHL AND SHR NOT AND SWAP1 SSTORE CODESIZE DUP1 DUP1 PUSH3 0xFFF JUMP JUMPDEST SWAP3 SWAP4 PUSH1 0x20 PUSH1 0x1 DUP2 SWAP3 DUP8 DUP7 ADD MLOAD DUP2 SSTORE ADD SWAP6 ADD SWAP4 ADD PUSH3 0xFE7 JUMP JUMPDEST PUSH1 0x1 DUP10 MSTORE PUSH3 0x107A SWAP1 PUSH1 0x0 DUP1 MLOAD PUSH1 0x20 PUSH3 0x4AC5 DUP4 CODECOPY DUP2 MLOAD SWAP2 MSTORE PUSH1 0x1F DUP6 ADD DUP8 SHR DUP2 ADD SWAP2 PUSH1 0x20 DUP7 LT PUSH3 0x1081 JUMPI JUMPDEST PUSH1 0x1F ADD DUP8 SHR ADD SWAP1 PUSH3 0x1235 JUMP JUMPDEST CODESIZE PUSH3 0x158 JUMP JUMPDEST SWAP1 SWAP2 POP DUP2 SWAP1 PUSH3 0x106D JUMP JUMPDEST PUSH4 0x4E487B71 PUSH1 0xE0 SHL DUP8 MSTORE PUSH1 0x41 DUP10 MSTORE PUSH1 0x24 DUP8 REVERT JUMPDEST ADD MLOAD SWAP1 POP CODESIZE DUP1 PUSH3 0x11F JUMP JUMPDEST DUP10 DUP1 MSTORE PUSH1 0x20 DUP11 KECCAK256 SWAP3 POP PUSH1 0x1F NOT DUP5 AND DUP11 JUMPDEST DUP2 DUP2 LT PUSH3 0x10FB JUMPI POP SWAP1 DUP5 PUSH1 0x1 SWAP6 SWAP5 SWAP4 SWAP3 LT PUSH3 0x10E1 JUMPI JUMPDEST POP POP POP DUP2 SHL ADD DUP7 SSTORE PUSH3 0x134 JUMP JUMPDEST ADD MLOAD PUSH1 0x0 NOT PUSH1 0xF8 DUP5 PUSH1 0x3 SHL AND SHR NOT AND SWAP1 SSTORE CODESIZE DUP1 DUP1 PUSH3 0x10D3 JUMP JUMPDEST SWAP3 SWAP4 PUSH1 0x20 PUSH1 0x1 DUP2 SWAP3 DUP8 DUP7 ADD MLOAD DUP2 SSTORE ADD SWAP6 ADD SWAP4 ADD PUSH3 0x10BB JUMP JUMPDEST PUSH3 0x1140 SWAP1 DUP11 DUP1 MSTORE PUSH1 0x20 DUP12 KECCAK256 PUSH1 0x1F DUP6 ADD DUP9 SHR DUP2 ADD SWAP2 PUSH1 0x20 DUP7 LT PUSH3 0x1147 JUMPI JUMPDEST PUSH1 0x1F ADD DUP9 SHR ADD SWAP1 PUSH3 0x1235 JUMP JUMPDEST CODESIZE PUSH3 0x107 JUMP JUMPDEST SWAP1 SWAP2 POP DUP2 SWAP1 PUSH3 0x1133 JUMP JUMPDEST PUSH1 0x41 DUP10 PUSH4 0x4E487B71 PUSH1 0xE0 SHL PUSH1 0x0 MSTORE MSTORE PUSH1 0x24 PUSH1 0x0 REVERT JUMPDEST PUSH1 0x20 DUP1 SWAP2 PUSH3 0x1176 DUP5 PUSH3 0x11E3 JUMP JUMPDEST DUP2 MSTORE ADD SWAP2 ADD SWAP1 PUSH3 0x8C JUMP JUMPDEST PUSH1 0x0 DUP1 REVERT JUMPDEST PUSH4 0x4E487B71 PUSH1 0xE0 SHL PUSH1 0x0 MSTORE PUSH1 0x41 PUSH1 0x4 MSTORE PUSH1 0x24 PUSH1 0x0 REVERT JUMPDEST PUSH1 0x40 DUP1 MLOAD SWAP2 SWAP1 DUP3 ADD PUSH1 0x1 PUSH1 0x1 PUSH1 0x40 SHL SUB DUP2 GT DUP4 DUP3 LT OR PUSH3 0x1187 JUMPI PUSH1 0x40 MSTORE JUMP JUMPDEST PUSH1 0x40 MLOAD SWAP2 SWAP1 PUSH1 0x1F ADD PUSH1 0x1F NOT AND DUP3 ADD PUSH1 0x1 PUSH1 0x1 PUSH1 0x40 SHL SUB DUP2 GT DUP4 DUP3 LT OR PUSH3 0x1187 JUMPI PUSH1 0x40 MSTORE JUMP JUMPDEST MLOAD SWAP1 PUSH1 0x1 PUSH1 0x1 PUSH1 0xA0 SHL SUB DUP3 AND DUP3 SUB PUSH3 0x1182 JUMPI JUMP JUMPDEST SWAP1 PUSH1 0x1 DUP3 DUP2 SHR SWAP3 AND DUP1 ISZERO PUSH3 0x122A JUMPI JUMPDEST PUSH1 0x20 DUP4 LT EQ PUSH3 0x1214 JUMPI JUMP JUMPDEST PUSH4 0x4E487B71 PUSH1 0xE0 SHL PUSH1 0x0 MSTORE PUSH1 0x22 PUSH1 0x4 MSTORE PUSH1 0x24 PUSH1 0x0 REVERT JUMPDEST SWAP2 PUSH1 0x7F AND SWAP2 PUSH3 0x1208 JUMP JUMPDEST DUP2 DUP2 LT PUSH3 0x1241 JUMPI POP POP JUMP JUMPDEST PUSH1 0x0 DUP2 SSTORE PUSH1 0x1 ADD PUSH3 0x1235 JUMP JUMPDEST SWAP1 PUSH1 0x1F DUP2 GT PUSH3 0x125C JUMPI POP POP JUMP JUMPDEST PUSH3 0x1279 SWAP2 PUSH1 0x0 MSTORE PUSH1 0x1F PUSH1 0x20 PUSH1 0x0 KECCAK256 SWAP2 ADD PUSH1 0x5 SHR DUP2 ADD SWAP1 PUSH3 0x1235 JUMP JUMPDEST JUMP JUMPDEST PUSH1 0x19 SLOAD DUP2 LT ISZERO PUSH3 0x1297 JUMPI PUSH1 0x19 PUSH1 0x0 MSTORE PUSH1 0x20 PUSH1 0x0 KECCAK256 ADD SWAP1 PUSH1 0x0 SWAP1 JUMP JUMPDEST PUSH4 0x4E487B71 PUSH1 0xE0 SHL PUSH1 0x0 MSTORE PUSH1 0x32 PUSH1 0x4 MSTORE PUSH1 0x24 PUSH1 0x0 REVERT INVALID PUSH1 0x80 PUSH1 0x40 SWAP1 DUP1 DUP3 MSTORE PUSH1 0x4 SWAP1 DUP2 CALLDATASIZE LT ISZERO PUSH2 0x23 JUMPI JUMPDEST POP POP POP CALLDATASIZE ISZERO PUSH2 0x21 JUMPI PUSH1 0x0 DUP1 REVERT JUMPDEST STOP JUMPDEST PUSH1 0x0 SWAP1 DUP2 CALLDATALOAD PUSH1 0xE0 SHR SWAP1 DUP2 PUSH3 0x9C4C7E EQ PUSH2 0x2362 JUMPI POP DUP1 PUSH4 0x1FFC9A7 EQ PUSH2 0x22F3 JUMPI DUP1 PUSH4 0x6FDDE03 EQ PUSH2 0x224B JUMPI DUP1 PUSH4 0x81812FC EQ PUSH2 0x220E JUMPI DUP1 PUSH4 0x95EA7B3 EQ PUSH2 0x2132 JUMPI DUP1 PUSH4 0x9AAA61E EQ PUSH2 0x2115 JUMPI DUP1 PUSH4 0xDF102D3 EQ PUSH2 0x1DB9 JUMPI DUP1 PUSH4 0xF2CDD6C EQ PUSH2 0x1D9D JUMPI DUP1 PUSH4 0x149E7B77 EQ PUSH2 0x1D66 JUMPI DUP1 PUSH4 0x18160DDD EQ PUSH2 0x1D27 JUMPI DUP1 PUSH4 0x23B872DD EQ PUSH2 0x1D0F JUMPI DUP1 PUSH4 0x269557BB EQ PUSH2 0x1CF0 JUMPI DUP1 PUSH4 0x29777C35 EQ PUSH2 0x1CD3 JUMPI DUP1 PUSH4 0x32CB6B0C EQ PUSH2 0x1CB6 JUMPI DUP1 PUSH4 0x3A602B4D EQ PUSH2 0x1C7E JUMPI DUP1 PUSH4 0x3CCFD60B EQ PUSH2 0x1BC4 JUMPI DUP1 PUSH4 0x42842E0E EQ PUSH2 0x1B95 JUMPI DUP1 PUSH4 0x4F64B2BE EQ PUSH2 0x1B62 JUMPI DUP1 PUSH4 0x5EF46BC5 EQ PUSH2 0x1A79 JUMPI DUP1 PUSH4 0x6352211E EQ PUSH2 0x1A47 JUMPI DUP1 PUSH4 0x6AA71D18 EQ PUSH2 0x1A0F JUMPI DUP1 PUSH4 0x6B04A1E2 EQ PUSH2 0x18FE JUMPI DUP1 PUSH4 0x70A08231 EQ PUSH2 0x18A8 JUMPI DUP1 PUSH4 0x70A6F230 EQ PUSH2 0x1848 JUMPI DUP1 PUSH4 0x715018A6 EQ PUSH2 0x17EB JUMPI DUP1 PUSH4 0x817697B1 EQ PUSH2 0x171E JUMPI DUP1 PUSH4 0x85C639FE EQ PUSH2 0x16F4 JUMPI DUP1 PUSH4 0x8DA5CB5B EQ PUSH2 0x16CB JUMPI DUP1 PUSH4 0x95405825 EQ PUSH2 0x168E JUMPI DUP1 PUSH4 0x95D89B41 EQ PUSH2 0x15AB JUMPI DUP1 PUSH4 0x9A617D0C EQ PUSH2 0x1491 JUMPI DUP1 PUSH4 0xA22CB465 EQ PUSH2 0x13EA JUMPI DUP1 PUSH4 0xAAFFBE38 EQ PUSH2 0x13C1 JUMPI DUP1 PUSH4 0xAFB7BED9 EQ PUSH2 0xFD8 JUMPI DUP1 PUSH4 0xB3A41B26 EQ PUSH2 0xFAF JUMPI DUP1 PUSH4 0xB6FD4622 EQ PUSH2 0xD57 JUMPI DUP1 PUSH4 0xB88D4FDE EQ PUSH2 0xCE8 JUMPI DUP1 PUSH4 0xC83D07E3 EQ PUSH2 0xC9F JUMPI DUP1 PUSH4 0xC87B56DD EQ PUSH2 0x7D1 JUMPI DUP1 PUSH4 0xCBE60E9C EQ PUSH2 0x77C JUMPI DUP1 PUSH4 0xCCAD22DE EQ PUSH2 0x3E4 JUMPI DUP1 PUSH4 0xE985E9C5 EQ PUSH2 0x396 JUMPI DUP1 PUSH4 0xEB91D37E EQ PUSH2 0x36F JUMPI DUP1 PUSH4 0xED8ED921 EQ PUSH2 0x351 JUMPI DUP1 PUSH4 0xEDE6FADE EQ PUSH2 0x335 JUMPI DUP1 PUSH4 0xF2FDE38B EQ PUSH2 0x2A5 JUMPI DUP1 PUSH4 0xF4DBC50F EQ PUSH2 0x285 JUMPI PUSH4 0xFB22E651 SUB PUSH2 0x13 JUMPI CALLVALUE PUSH2 0x282 JUMPI PUSH1 0x20 CALLDATASIZE PUSH1 0x3 NOT ADD SLT PUSH2 0x282 JUMPI PUSH1 0xFF SWAP1 DUP4 SWAP1 PUSH1 0x1 PUSH1 0x1 PUSH1 0xA0 SHL SUB PUSH2 0x261 PUSH2 0x23C6 JUMP JUMPDEST AND DUP2 MSTORE PUSH1 0x13 PUSH1 0x20 MSTORE KECCAK256 SWAP2 PUSH1 0x3 DUP4 ADD SLOAD SWAP3 ADD SLOAD AND DUP3 MLOAD SWAP2 DUP3 MSTORE ISZERO ISZERO PUSH1 0x20 DUP3 ADD MSTORE RETURN JUMPDEST DUP1 REVERT JUMPDEST POP DUP3 CALLVALUE PUSH2 0x2A1 JUMPI DUP2 PUSH1 0x3 NOT CALLDATASIZE ADD SLT PUSH2 0x2A1 JUMPI PUSH1 0x20 SWAP1 MLOAD PUSH1 0xC8 DUP2 MSTORE RETURN JUMPDEST POP DUP1 REVERT JUMPDEST POP SWAP2 SWAP1 CALLVALUE PUSH2 0x331 JUMPI PUSH1 0x20 CALLDATASIZE PUSH1 0x3 NOT ADD SLT PUSH2 0x331 JUMPI PUSH2 0x2C1 PUSH2 0x23C6 JUMP JUMPDEST SWAP1 PUSH2 0x2CA PUSH2 0x2701 JUMP JUMPDEST PUSH1 0x1 PUSH1 0x1 PUSH1 0xA0 SHL SUB SWAP2 DUP3 AND SWAP3 DUP4 ISZERO PUSH2 0x31B JUMPI POP POP PUSH1 0x6 SLOAD DUP3 PUSH1 0x1 PUSH1 0x1 PUSH1 0x60 SHL SUB PUSH1 0xA0 SHL DUP3 AND OR PUSH1 0x6 SSTORE AND PUSH32 0x8BE0079C531659141344CD1FD0A4F28419497F9722A3DAAFE3B4186F6B6457E0 DUP4 DUP1 LOG3 DUP1 RETURN JUMPDEST MLOAD PUSH4 0x1E4FBDF7 PUSH1 0xE0 SHL DUP2 MSTORE SWAP1 DUP2 ADD DUP5 SWAP1 MSTORE PUSH1 0x24 SWAP1 REVERT JUMPDEST DUP3 DUP1 REVERT JUMPDEST POP DUP3 CALLVALUE PUSH2 0x2A1 JUMPI DUP2 PUSH1 0x3 NOT CALLDATASIZE ADD SLT PUSH2 0x2A1 JUMPI PUSH1 0x20 SWAP1 MLOAD PUSH1 0x19 DUP2 MSTORE RETURN JUMPDEST POP DUP3 CALLVALUE PUSH2 0x2A1 JUMPI DUP2 PUSH1 0x3 NOT CALLDATASIZE ADD SLT PUSH2 0x2A1 JUMPI PUSH1 0x20 SWAP1 MLOAD PUSH3 0x15180 DUP2 MSTORE RETURN JUMPDEST POP DUP3 CALLVALUE PUSH2 0x2A1 JUMPI DUP2 PUSH1 0x3 NOT CALLDATASIZE ADD SLT PUSH2 0x2A1 JUMPI PUSH1 0x20 SWAP1 PUSH2 0x38F PUSH1 0x14 SLOAD PUSH2 0x2B10 JUMP JUMPDEST SWAP1 MLOAD SWAP1 DUP2 MSTORE RETURN JUMPDEST POP DUP3 CALLVALUE PUSH2 0x2A1 JUMPI DUP1 PUSH1 0x3 NOT CALLDATASIZE ADD SLT PUSH2 0x2A1 JUMPI PUSH1 0xFF DUP2 PUSH1 0x20 SWAP4 PUSH2 0x3B6 PUSH2 0x23C6 JUMP JUMPDEST PUSH2 0x3BE PUSH2 0x23E1 JUMP JUMPDEST PUSH1 0x1 PUSH1 0x1 PUSH1 0xA0 SHL SUB SWAP2 DUP3 AND DUP4 MSTORE PUSH1 0x5 DUP8 MSTORE DUP4 DUP4 KECCAK256 SWAP2 AND DUP3 MSTORE DUP6 MSTORE KECCAK256 SLOAD SWAP2 MLOAD SWAP2 AND ISZERO ISZERO DUP2 MSTORE RETURN JUMPDEST POP SWAP2 CALLVALUE PUSH2 0x331 JUMPI DUP1 PUSH1 0x3 NOT CALLDATASIZE ADD SLT PUSH2 0x331 JUMPI PUSH1 0x24 SWAP1 PUSH8 0xFFFFFFFFFFFFFFFF DUP3 CALLDATALOAD DUP2 DUP2 GT PUSH2 0x778 JUMPI CALLDATASIZE PUSH1 0x23 DUP3 ADD SLT ISZERO PUSH2 0x778 JUMPI PUSH2 0x428 SWAP1 CALLDATASIZE SWAP1 DUP6 DUP2 DUP9 ADD CALLDATALOAD SWAP2 ADD PUSH2 0x2693 JUMP JUMPDEST SWAP2 PUSH2 0x431 PUSH2 0x2AA6 JUMP JUMPDEST DUP5 CALLDATALOAD SWAP4 PUSH2 0x43D DUP6 PUSH2 0x28CC JUMP JUMPDEST CALLER PUSH1 0x1 PUSH1 0x1 PUSH1 0xA0 SHL SUB SWAP1 SWAP2 AND SUB PUSH2 0x744 JUMPI DUP5 DUP8 MSTORE PUSH1 0x20 PUSH1 0x11 DUP2 MSTORE PUSH1 0xC8 DUP4 DUP10 KECCAK256 SLOAD LT ISZERO PUSH2 0x70A JUMPI PUSH2 0x46C DUP6 PUSH2 0x33CC JUMP JUMPDEST ISZERO PUSH2 0x6D1 JUMPI PUSH2 0x47A DUP7 PUSH2 0x2F63 JUMP JUMPDEST ISZERO PUSH2 0x69A JUMPI DUP6 DUP9 MSTORE PUSH1 0x11 DUP2 MSTORE DUP3 DUP9 KECCAK256 SLOAD DUP4 MLOAD DUP3 DUP2 ADD SWAP2 DUP9 DUP4 MSTORE CALLER PUSH1 0x60 SHL DUP7 DUP4 ADD MSTORE PUSH1 0x54 DUP3 ADD MSTORE PUSH2 0x4D5 PUSH1 0xB4 DUP3 DUP10 MLOAD PUSH2 0x4B9 DUP2 DUP13 DUP10 PUSH1 0x74 DUP7 ADD SWAP2 ADD PUSH2 0x237E JUMP JUMPDEST DUP2 ADD TIMESTAMP PUSH1 0x74 DUP3 ADD MSTORE PREVRANDAO PUSH1 0x94 DUP3 ADD MSTORE SUB PUSH1 0x94 DUP2 ADD DUP5 MSTORE ADD DUP3 PUSH2 0x2589 JUMP JUMPDEST MLOAD SWAP1 KECCAK256 SWAP4 DUP7 DUP10 MSTORE PUSH1 0x11 DUP3 MSTORE DUP4 DUP10 KECCAK256 DUP5 MLOAD SWAP2 PUSH2 0x4EF DUP4 PUSH2 0x2535 JUMP JUMPDEST DUP8 DUP4 MSTORE DUP4 DUP4 ADD SWAP1 DUP8 DUP3 MSTORE DUP7 DUP5 ADD SWAP3 TIMESTAMP DUP5 MSTORE DUP1 SLOAD SWAP1 PUSH9 0x10000000000000000 DUP3 LT ISZERO PUSH2 0x688 JUMPI SWAP1 PUSH2 0x524 SWAP2 PUSH1 0x1 DUP3 ADD DUP2 SSTORE PUSH2 0x2611 JUMP JUMPDEST SWAP5 SWAP1 SWAP5 PUSH2 0x677 JUMPI MLOAD DUP1 MLOAD SWAP2 DUP3 GT PUSH2 0x665 JUMPI PUSH2 0x549 DUP3 PUSH2 0x543 DUP8 SLOAD PUSH2 0x2433 JUMP JUMPDEST DUP8 PUSH2 0x2ECC JUMP JUMPDEST DUP6 SWAP1 DUP14 PUSH1 0x1F DUP5 GT PUSH1 0x1 EQ PUSH2 0x5FA JUMPI SWAP3 PUSH1 0x2 SWAP5 SWAP3 DUP2 SWAP3 PUSH1 0x11 SWAP10 SWAP9 SWAP8 SWAP6 SWAP3 PUSH2 0x5EF JUMPI JUMPDEST POP POP DUP2 PUSH1 0x1 SHL SWAP2 PUSH1 0x0 NOT SWAP1 PUSH1 0x3 SHL SHR NOT AND OR DUP5 SSTORE JUMPDEST MLOAD PUSH1 0x1 DUP5 ADD SSTORE MLOAD SWAP2 ADD SSTORE DUP7 DUP10 MSTORE MSTORE DUP2 DUP8 KECCAK256 SLOAD PUSH1 0x0 NOT DUP2 ADD SWAP7 SWAP1 DUP8 GT PUSH2 0x5DE JUMPI POP POP SWAP1 PUSH2 0x5D3 PUSH32 0x4226F74E56624AAF998322A4BB5EBB847B5811AC4711DF2F3D9B46D7A8F4A3E9 SWAP4 SWAP3 MLOAD SWAP3 DUP4 SWAP3 TIMESTAMP SWAP2 DUP5 PUSH2 0x262D JUMP JUMPDEST SUB SWAP1 LOG3 PUSH1 0x1 PUSH1 0x7 SSTORE DUP1 RETURN JUMPDEST PUSH4 0x4E487B71 PUSH1 0xE0 SHL DUP9 MSTORE PUSH1 0x11 SWAP1 MSTORE DUP7 REVERT JUMPDEST ADD MLOAD SWAP1 POP CODESIZE DUP1 PUSH2 0x56A JUMP JUMPDEST DUP7 DUP2 MSTORE DUP8 DUP2 KECCAK256 SWAP3 SWAP2 SWAP1 PUSH1 0x1F NOT DUP6 AND SWAP1 JUMPDEST DUP2 DUP2 LT PUSH2 0x64E JUMPI POP SWAP3 PUSH1 0x1 SWAP3 DUP6 SWAP3 PUSH1 0x11 SWAP11 SWAP10 SWAP9 SWAP7 PUSH1 0x2 SWAP9 SWAP7 LT PUSH2 0x635 JUMPI JUMPDEST POP POP POP DUP2 SHL ADD DUP5 SSTORE PUSH2 0x57F JUMP JUMPDEST ADD MLOAD PUSH1 0x0 NOT PUSH1 0xF8 DUP5 PUSH1 0x3 SHL AND SHR NOT AND SWAP1 SSTORE CODESIZE DUP1 DUP1 PUSH2 0x628 JUMP JUMPDEST SWAP3 SWAP4 DUP10 PUSH1 0x1 DUP2 SWAP3 DUP8 DUP7 ADD MLOAD DUP2 SSTORE ADD SWAP6 ADD SWAP4 ADD PUSH2 0x60A JUMP JUMPDEST PUSH4 0x4E487B71 PUSH1 0xE0 SHL DUP14 MSTORE PUSH1 0x41 DUP13 MSTORE DUP7 DUP14 REVERT JUMPDEST PUSH4 0x4E487B71 PUSH1 0xE0 SHL DUP14 MSTORE DUP13 DUP13 MSTORE DUP7 DUP14 REVERT JUMPDEST PUSH4 0x4E487B71 PUSH1 0xE0 SHL DUP15 MSTORE PUSH1 0x41 DUP14 MSTORE DUP8 DUP15 REVERT JUMPDEST DUP7 SWAP2 PUSH1 0x13 SWAP2 PUSH1 0x64 SWAP5 MLOAD SWAP4 PUSH3 0x461BCD PUSH1 0xE5 SHL DUP6 MSTORE DUP5 ADD MSTORE DUP3 ADD MSTORE PUSH19 0x43616E6E6F74206D757461746520746F646179 PUSH1 0x68 SHL PUSH1 0x44 DUP3 ADD MSTORE REVERT JUMPDEST DUP7 SWAP2 PUSH1 0x15 SWAP2 PUSH1 0x64 SWAP5 MLOAD SWAP4 PUSH3 0x461BCD PUSH1 0xE5 SHL DUP6 MSTORE DUP5 ADD MSTORE DUP3 ADD MSTORE PUSH21 0x496E76616C6964206D75746174696F6E2074797065 PUSH1 0x58 SHL PUSH1 0x44 DUP3 ADD MSTORE REVERT JUMPDEST DUP7 SWAP2 PUSH1 0x16 SWAP2 PUSH1 0x64 SWAP5 MLOAD SWAP4 PUSH3 0x461BCD PUSH1 0xE5 SHL DUP6 MSTORE DUP5 ADD MSTORE DUP3 ADD MSTORE PUSH22 0x135D5D185D1A5BDB881B1A5B5A5D081C995858DA1959 PUSH1 0x52 SHL PUSH1 0x44 DUP3 ADD MSTORE REVERT JUMPDEST PUSH1 0xF DUP7 SWAP2 PUSH1 0x20 PUSH1 0x64 SWAP5 MLOAD SWAP4 PUSH3 0x461BCD PUSH1 0xE5 SHL DUP6 MSTORE DUP5 ADD MSTORE DUP3 ADD MSTORE PUSH15 0x2737BA103A37B5B2B71037BBB732B9 PUSH1 0x89 SHL PUSH1 0x44 DUP3 ADD MSTORE REVERT JUMPDEST DUP6 DUP1 REVERT JUMPDEST POP DUP3 CALLVALUE PUSH2 0x2A1 JUMPI CALLDATASIZE PUSH1 0x3 NOT ADD SLT PUSH2 0x282 JUMPI PUSH2 0x795 PUSH2 0x23C6 JUMP JUMPDEST PUSH2 0x79D PUSH2 0x23E1 JUMP JUMPDEST PUSH2 0x7A5 PUSH2 0x2701 JUMP JUMPDEST PUSH1 0x1 DUP1 PUSH1 0xA0 SHL SUB SWAP1 DUP2 PUSH1 0x1 PUSH1 0x1 PUSH1 0x60 SHL SUB PUSH1 0xA0 SHL SWAP4 AND DUP4 PUSH1 0x1A SLOAD AND OR PUSH1 0x1A SSTORE AND SWAP1 PUSH1 0x1B SLOAD AND OR PUSH1 0x1B SSTORE DUP1 RETURN JUMPDEST POP CALLVALUE PUSH2 0x282 JUMPI PUSH1 0x20 SWAP2 DUP3 PUSH1 0x3 NOT CALLDATASIZE ADD SLT PUSH2 0x2A1 JUMPI PUSH2 0xBA0 PUSH2 0xBBB DUP5 PUSH2 0x9F3 PUSH2 0xC79 SWAP6 DUP9 PUSH2 0xC19 SWAP7 CALLDATALOAD DUP1 DUP4 MSTORE PUSH1 0x2 DUP6 MSTORE PUSH2 0x816 PUSH1 0x1 DUP1 PUSH1 0xA0 SHL SUB DUP4 DUP6 KECCAK256 SLOAD AND ISZERO ISZERO PUSH2 0x2F20 JUMP JUMPDEST PUSH2 0xA22 PUSH1 0xC6 DUP4 MLOAD PUSH2 0x826 DUP2 PUSH2 0x2503 JUMP JUMPDEST PUSH1 0x18 DUP2 MSTORE DUP8 DUP2 ADD PUSH32 0x68747470733A2F2F6170692E73706174746572732E6172740000000000000000 DUP2 MSTORE PUSH2 0x859 DUP6 PUSH2 0x317B JUMP JUMPDEST SWAP6 DUP10 PUSH2 0x864 DUP8 PUSH2 0x317B JUMP JUMPDEST SWAP3 PUSH2 0x86E DUP9 PUSH2 0x317B JUMP JUMPDEST SWAP5 PUSH2 0x878 DUP10 PUSH2 0x317B JUMP JUMPDEST SWAP4 MLOAD SWAP12 DUP13 SWAP7 DUP5 DUP9 ADD SWAP12 PUSH18 0x7B226E616D65223A22537061747465722023 PUSH1 0x70 SHL DUP14 MSTORE PUSH2 0x8AC DUP2 MLOAD DUP1 SWAP3 DUP9 PUSH1 0x32 DUP14 ADD SWAP2 ADD PUSH2 0x237E JUMP JUMPDEST PUSH2 0x88B PUSH1 0xF2 SHL PUSH1 0x32 SWAP2 DUP11 ADD SWAP2 DUP3 ADD DUP2 SWAP1 MSTORE PUSH32 0x226465736372697074696F6E223A2246756C6C79206F6E2D636861696E206765 PUSH1 0x34 DUP4 ADD MSTORE PUSH32 0x6E657261746976652061727420776974682074696D652D6261736564206D7574 PUSH1 0x54 DUP4 ADD MSTORE PUSH9 0x185D1A5BDB9CCB888B PUSH1 0xBA SHL PUSH1 0x74 DUP4 ADD MSTORE PUSH9 0x1134B6B0B3B2911D11 PUSH1 0xB9 SHL PUSH1 0x7D DUP4 ADD MSTORE DUP5 MLOAD SWAP1 SWAP9 SWAP2 PUSH2 0x940 DUP3 PUSH1 0x86 DUP4 ADD DUP10 PUSH2 0x237E JUMP JUMPDEST ADD PUSH7 0x2F696D6167652F PUSH1 0xC8 SHL PUSH1 0x86 DUP3 ADD MSTORE PUSH2 0x964 DUP3 MLOAD DUP1 SWAP4 DUP10 PUSH1 0x8D DUP6 ADD SWAP2 ADD PUSH2 0x237E JUMP JUMPDEST ADD PUSH6 0xB9C1B99C88B PUSH1 0xD2 SHL PUSH1 0x8D DUP3 ADD MSTORE PUSH17 0x1130B734B6B0BA34B7B72FBAB936111D11 PUSH1 0x79 SHL PUSH1 0x93 DUP3 ADD MSTORE DUP4 MLOAD SWAP1 PUSH2 0x99F DUP3 PUSH1 0xA4 DUP4 ADD DUP9 PUSH2 0x237E JUMP JUMPDEST ADD PUSH2 0x9C5 PUSH7 0x2F746F6B656E2F PUSH1 0xC8 SHL SWAP7 DUP8 PUSH1 0xA4 DUP5 ADD MSTORE DUP4 MLOAD SWAP4 DUP5 SWAP2 PUSH1 0xAB DUP6 ADD SWAP2 ADD PUSH2 0x237E JUMP JUMPDEST ADD SWAP2 DUP7 PUSH1 0xAB DUP5 ADD MSTORE PUSH16 0x1132BC3A32B93730B62FBAB936111D11 PUSH1 0x81 SHL PUSH1 0xAD DUP5 ADD MSTORE MLOAD DUP1 SWAP4 PUSH1 0xBD DUP5 ADD SWAP1 PUSH2 0x237E JUMP JUMPDEST ADD SWAP1 PUSH1 0xBD DUP3 ADD MSTORE PUSH2 0xA0D DUP3 MLOAD DUP1 SWAP4 DUP14 PUSH1 0xC4 DUP6 ADD SWAP2 ADD PUSH2 0x237E JUMP JUMPDEST ADD SWAP1 PUSH1 0xC4 DUP3 ADD MSTORE SUB PUSH1 0xA6 DUP2 ADD DUP8 MSTORE ADD DUP6 PUSH2 0x2589 JUMP JUMPDEST DUP1 DUP4 MSTORE PUSH1 0x12 DUP6 MSTORE PUSH2 0xA35 DUP12 DUP5 KECCAK256 SLOAD PUSH2 0x2433 JUMP JUMPDEST ISZERO ISZERO SWAP1 DUP4 MSTORE PUSH1 0x11 DUP6 MSTORE PUSH2 0xA4A DUP12 DUP5 KECCAK256 SLOAD PUSH2 0x317B JUMP JUMPDEST SWAP3 POP ISZERO PUSH2 0xC7D JUMPI PUSH2 0xBAF DUP11 MLOAD PUSH2 0xA5F DUP2 PUSH2 0x2503 JUMP JUMPDEST PUSH1 0x3 DUP2 MSTORE PUSH3 0x596573 PUSH1 0xE8 SHL DUP7 DUP3 ADD MSTORE SWAP2 JUMPDEST PUSH2 0xB8F PUSH1 0xAD DUP14 MLOAD DUP1 SWAP6 DUP10 DUP3 ADD SWAP8 PUSH14 0x2261747472696275746573223A5B PUSH1 0x90 SHL DUP10 MSTORE PUSH32 0x7B2274726169745F74797065223A224D75746174696F6E73222C2276616C7565 PUSH1 0x2E DUP5 ADD MSTORE PUSH2 0x111D PUSH1 0xF1 SHL PUSH1 0x4E DUP5 ADD MSTORE PUSH2 0xAD5 DUP2 MLOAD DUP1 SWAP3 DUP14 PUSH1 0x50 DUP8 ADD SWAP2 ADD PUSH2 0x237E JUMP JUMPDEST DUP3 ADD PUSH2 0x1F4B PUSH1 0xF2 SHL PUSH1 0x50 DUP3 ADD MSTORE PUSH32 0x7B2274726169745F74797065223A22437573746F6D2050616C65747465222C22 PUSH1 0x52 DUP3 ADD MSTORE PUSH8 0x3B30B63AB2911D11 PUSH1 0xC1 SHL PUSH1 0x72 DUP3 ADD MSTORE PUSH2 0xB2C DUP3 MLOAD DUP1 SWAP4 DUP14 PUSH1 0x7A DUP6 ADD SWAP2 ADD PUSH2 0x237E JUMP JUMPDEST ADD PUSH3 0x89F4B PUSH1 0xEA SHL PUSH1 0x7A DUP3 ADD MSTORE PUSH32 0x7B2274726169745F74797065223A2247656E65726174696F6E222C2276616C75 PUSH1 0x7D DUP3 ADD MSTORE PUSH14 0x65223A224F6E2D436861696E227D PUSH1 0x90 SHL PUSH1 0x9D DUP3 ADD MSTORE PUSH2 0x5D7D PUSH1 0xF0 SHL PUSH1 0xAB DUP3 ADD MSTORE SUB PUSH1 0x8D DUP2 ADD DUP7 MSTORE ADD DUP5 PUSH2 0x2589 JUMP JUMPDEST DUP12 MLOAD SWAP8 DUP9 SWAP6 MLOAD DUP1 SWAP3 DUP9 DUP9 ADD SWAP1 PUSH2 0x237E JUMP JUMPDEST DUP5 ADD SWAP2 MLOAD DUP1 SWAP4 DUP7 DUP5 ADD SWAP1 PUSH2 0x237E JUMP JUMPDEST ADD SUB DUP1 DUP5 MSTORE ADD DUP3 PUSH2 0x2589 JUMP JUMPDEST DUP5 MLOAD SWAP1 PUSH2 0xBC7 DUP3 PUSH2 0x2535 JUMP JUMPDEST DUP6 DUP3 MSTORE PUSH32 0x4142434445464748494A4B4C4D4E4F505152535455565758595A616263646566 DUP6 DUP4 ADD MSTORE PUSH32 0x6768696A6B6C6D6E6F707172737475767778797A303132333435363738392B2F DUP7 DUP4 ADD MSTORE PUSH2 0x3083 JUMP JUMPDEST SWAP3 PUSH2 0xC6A PUSH1 0x3D DUP3 MLOAD DUP1 SWAP7 PUSH32 0x646174613A6170706C69636174696F6E2F6A736F6E3B6261736536342C000000 DUP8 DUP4 ADD MSTORE PUSH2 0xC5A DUP2 MLOAD DUP1 SWAP3 DUP10 DUP7 DUP7 ADD SWAP2 ADD PUSH2 0x237E JUMP JUMPDEST DUP2 ADD SUB PUSH1 0x1D DUP2 ADD DUP8 MSTORE ADD DUP6 PUSH2 0x2589 JUMP JUMPDEST MLOAD SWAP3 DUP3 DUP5 SWAP4 DUP5 MSTORE DUP4 ADD SWAP1 PUSH2 0x23A1 JUMP JUMPDEST SUB SWAP1 RETURN JUMPDEST PUSH2 0xBAF DUP11 MLOAD PUSH2 0xC8B DUP2 PUSH2 0x2503 JUMP JUMPDEST PUSH1 0x2 DUP2 MSTORE PUSH2 0x4E6F PUSH1 0xF0 SHL DUP7 DUP3 ADD MSTORE SWAP2 PUSH2 0xA70 JUMP JUMPDEST POP SWAP2 SWAP1 CALLVALUE PUSH2 0x331 JUMPI PUSH1 0x20 CALLDATASIZE PUSH1 0x3 NOT ADD SLT PUSH2 0x331 JUMPI CALLDATALOAD SWAP2 PUSH1 0x19 SLOAD DUP4 LT ISZERO PUSH2 0x282 JUMPI POP PUSH2 0xCD5 PUSH2 0xCCF PUSH2 0xC79 SWAP4 PUSH2 0x26CA JUMP JUMPDEST SWAP1 PUSH2 0x25AB JUMP JUMPDEST SWAP1 MLOAD SWAP2 DUP3 SWAP2 PUSH1 0x20 DUP4 MSTORE PUSH1 0x20 DUP4 ADD SWAP1 PUSH2 0x23A1 JUMP JUMPDEST POP SWAP1 CALLVALUE PUSH2 0x2A1 JUMPI PUSH1 0x80 CALLDATASIZE PUSH1 0x3 NOT ADD SLT PUSH2 0x2A1 JUMPI PUSH2 0xD03 PUSH2 0x23C6 JUMP JUMPDEST PUSH2 0xD0B PUSH2 0x23E1 JUMP JUMPDEST PUSH1 0x44 CALLDATALOAD SWAP1 PUSH1 0x64 CALLDATALOAD PUSH8 0xFFFFFFFFFFFFFFFF DUP2 GT PUSH2 0x778 JUMPI CALLDATASIZE PUSH1 0x23 DUP3 ADD SLT ISZERO PUSH2 0x778 JUMPI PUSH2 0xD54 SWAP5 DUP2 PUSH1 0x24 PUSH2 0xD42 SWAP4 CALLDATASIZE SWAP4 ADD CALLDATALOAD SWAP2 ADD PUSH2 0x2693 JUMP JUMPDEST SWAP3 PUSH2 0xD4E DUP4 DUP4 DUP4 PUSH2 0x272D JUMP JUMPDEST CALLER PUSH2 0x2937 JUMP JUMPDEST DUP1 RETURN JUMPDEST POP SWAP2 CALLVALUE PUSH2 0x331 JUMPI PUSH1 0x20 SWAP1 DUP2 PUSH1 0x3 NOT CALLDATASIZE ADD SLT PUSH2 0xFAB JUMPI DUP3 CALLDATALOAD SWAP3 PUSH1 0xFF DUP5 AND DUP1 DUP6 SUB PUSH2 0x778 JUMPI PUSH1 0x3 SWAP1 PUSH2 0xD85 PUSH2 0x2AA6 JUMP JUMPDEST LT ISZERO PUSH2 0xF74 JUMPI CALLER DUP6 MSTORE PUSH1 0x13 DUP4 MSTORE DUP2 DUP6 KECCAK256 SWAP4 PUSH1 0x3 DUP6 ADD SLOAD SWAP5 DUP6 ISZERO PUSH2 0xF3C JUMPI DUP3 DUP2 ADD SWAP3 DUP4 SLOAD SWAP7 PUSH1 0xFF DUP9 AND PUSH2 0xEF9 JUMPI PUSH2 0x384 DUP2 ADD DUP1 SWAP2 GT PUSH2 0xEE6 JUMPI TIMESTAMP GT PUSH2 0xEB1 JUMPI PUSH1 0x3 DUP4 LT ISZERO PUSH2 0xE9E JUMPI POP SWAP1 PUSH1 0x1 SWAP2 ADD SLOAD SWAP5 PUSH1 0xFF NOT AND OR SWAP1 SSTORE TIMESTAMP PUSH1 0x16 SSTORE CALLER DUP5 MSTORE PUSH1 0x18 DUP3 MSTORE TIMESTAMP DUP2 DUP6 KECCAK256 SSTORE PUSH1 0x17 DUP3 MSTORE DUP1 DUP5 KECCAK256 PUSH2 0xDFC DUP2 SLOAD PUSH2 0x2BA8 JUMP JUMPDEST SWAP1 SSTORE DUP4 PUSH1 0x14 SLOAD SWAP3 PUSH1 0x1A DUP5 EQ DUP1 PUSH2 0xE94 JUMPI JUMPDEST PUSH2 0xE8B JUMPI JUMPDEST PUSH2 0xE1B DUP5 PUSH2 0x2BA8 JUMP JUMPDEST PUSH1 0x14 SSTORE DUP3 MLOAD PUSH2 0xE29 DUP2 PUSH2 0x2503 JUMP JUMPDEST DUP6 DUP2 MSTORE PUSH1 0x1 DUP3 DUP3 ADD TIMESTAMP DUP2 MSTORE DUP7 DUP6 MSTORE PUSH1 0x10 DUP5 MSTORE DUP6 DUP6 KECCAK256 SWAP3 MLOAD DUP4 SSTORE MLOAD SWAP2 ADD SSTORE PUSH2 0xE50 DUP5 CALLER PUSH2 0x2C84 JUMP JUMPDEST DUP3 MLOAD SWAP5 DUP6 MSTORE DUP5 ADD MSTORE TIMESTAMP SWAP1 DUP4 ADD MSTORE PUSH32 0x35A71FD4AD36D3B5F42A9819D12284AC3592B91D09F274E2FF1639A4418C1A02 PUSH1 0x60 CALLER SWAP4 LOG3 PUSH1 0x1 PUSH1 0x7 SSTORE DUP1 RETURN JUMPDEST TIMESTAMP PUSH1 0x15 SSTORE PUSH2 0xE12 JUMP JUMPDEST POP PUSH1 0x15 SLOAD ISZERO PUSH2 0xE0D JUMP JUMPDEST PUSH4 0x4E487B71 PUSH1 0xE0 SHL DUP9 MSTORE PUSH1 0x32 SWAP1 MSTORE PUSH1 0x24 DUP8 REVERT JUMPDEST DUP5 MLOAD PUSH3 0x461BCD PUSH1 0xE5 SHL DUP2 MSTORE SWAP1 DUP2 ADD DUP7 SWAP1 MSTORE PUSH1 0xF PUSH1 0x24 DUP3 ADD MSTORE PUSH15 0x14995C5D595CDD08195E1C1A5C9959 PUSH1 0x8A SHL PUSH1 0x44 DUP3 ADD MSTORE PUSH1 0x64 SWAP1 REVERT JUMPDEST PUSH4 0x4E487B71 PUSH1 0xE0 SHL DUP10 MSTORE PUSH1 0x11 DUP3 MSTORE PUSH1 0x24 DUP10 REVERT JUMPDEST DUP6 MLOAD PUSH3 0x461BCD PUSH1 0xE5 SHL DUP2 MSTORE DUP1 DUP4 ADD DUP9 SWAP1 MSTORE PUSH1 0x19 PUSH1 0x24 DUP3 ADD MSTORE PUSH32 0x5265717565737420616C726561647920636F6D706C6574656400000000000000 PUSH1 0x44 DUP3 ADD MSTORE PUSH1 0x64 SWAP1 REVERT JUMPDEST DUP4 MLOAD PUSH3 0x461BCD PUSH1 0xE5 SHL DUP2 MSTORE DUP1 DUP5 ADD DUP7 SWAP1 MSTORE PUSH1 0x12 PUSH1 0x24 DUP3 ADD MSTORE PUSH18 0x139BC81C195B991A5B99C81C995C5D595CDD PUSH1 0x72 SHL PUSH1 0x44 DUP3 ADD MSTORE PUSH1 0x64 SWAP1 REVERT JUMPDEST DUP3 PUSH1 0x64 SWAP3 MLOAD SWAP2 PUSH3 0x461BCD PUSH1 0xE5 SHL DUP4 MSTORE DUP3 ADD MSTORE PUSH1 0x13 PUSH1 0x24 DUP3 ADD MSTORE PUSH19 0x496E76616C696420736565642063686F696365 PUSH1 0x68 SHL PUSH1 0x44 DUP3 ADD MSTORE REVERT JUMPDEST DUP4 DUP1 REVERT JUMPDEST POP DUP3 CALLVALUE PUSH2 0x2A1 JUMPI DUP2 PUSH1 0x3 NOT CALLDATASIZE ADD SLT PUSH2 0x2A1 JUMPI PUSH1 0x1A SLOAD SWAP1 MLOAD PUSH1 0x1 PUSH1 0x1 PUSH1 0xA0 SHL SUB SWAP1 SWAP2 AND DUP2 MSTORE PUSH1 0x20 SWAP1 RETURN JUMPDEST POP DUP3 DUP2 PUSH1 0x3 NOT CALLDATASIZE ADD SLT PUSH2 0x2A1 JUMPI PUSH1 0x60 DUP2 MLOAD PUSH2 0xFF2 DUP2 PUSH2 0x2535 JUMP JUMPDEST CALLDATASIZE SWAP1 CALLDATACOPY PUSH2 0xFFD PUSH2 0x2AA6 JUMP JUMPDEST PUSH1 0x14 SLOAD SWAP2 PUSH1 0x19 DUP4 GT ISZERO PUSH2 0x137E JUMPI PUSH2 0x3E7 DUP4 GT PUSH2 0x1346 JUMPI CALLER DUP2 MSTORE PUSH1 0x20 SWAP4 PUSH1 0x17 DUP6 MSTORE PUSH1 0xA DUP4 DUP4 KECCAK256 SLOAD LT ISZERO PUSH2 0x130C JUMPI CALLER DUP3 MSTORE PUSH1 0x18 DUP6 MSTORE DUP3 DUP3 KECCAK256 SLOAD PUSH3 0x15180 DUP2 ADD DUP1 SWAP2 GT PUSH2 0x12BD JUMPI TIMESTAMP LT PUSH2 0x12D0 JUMPI PUSH1 0x16 SLOAD PUSH2 0xE10 DUP2 ADD DUP1 SWAP2 GT PUSH2 0x12BD JUMPI TIMESTAMP LT PUSH2 0x1281 JUMPI PUSH2 0x1065 DUP5 PUSH2 0x2B10 JUMP JUMPDEST CALLVALUE LT PUSH2 0x1247 JUMPI CALLER DUP3 MSTORE PUSH1 0x13 DUP6 MSTORE DUP3 DUP3 KECCAK256 PUSH1 0xFF SWAP1 DUP2 DUP4 DUP3 ADD SLOAD AND SWAP1 DUP2 ISZERO PUSH2 0x121A JUMPI JUMPDEST POP ISZERO PUSH2 0x11DE JUMPI DUP4 MLOAD SWAP5 PUSH2 0x1098 DUP7 PUSH2 0x2535 JUMP JUMPDEST PUSH1 0x60 CALLDATASIZE DUP8 CALLDATACOPY CALLER PUSH1 0x60 SHL PUSH12 0xFFFFFFFFFFFFFFFFFFFFFFFF NOT AND DUP5 JUMPDEST PUSH1 0x3 DUP5 DUP3 AND LT PUSH2 0x1174 JUMPI POP POP POP POP DUP3 MLOAD SWAP2 PUSH2 0x10CC DUP4 PUSH2 0x2535 JUMP JUMPDEST DUP5 DUP4 MSTORE DUP6 DUP4 ADD TIMESTAMP DUP2 MSTORE DUP5 DUP5 ADD SWAP2 DUP1 DUP4 MSTORE CALLER DUP2 MSTORE PUSH1 0x13 DUP9 MSTORE DUP6 DUP2 KECCAK256 SWAP5 MLOAD SWAP1 JUMPDEST PUSH1 0x3 DUP2 LT PUSH2 0x1162 JUMPI PUSH1 0x60 DUP9 PUSH2 0x1160 DUP10 PUSH2 0x111C DUP11 DUP11 DUP11 DUP11 MLOAD PUSH1 0x3 DUP5 ADD SSTORE MLOAD ISZERO ISZERO SWAP2 ADD SWAP1 PUSH1 0xFF DUP1 NOT DUP4 SLOAD AND SWAP2 ISZERO ISZERO AND OR SWAP1 SSTORE JUMP JUMPDEST DUP1 MLOAD PUSH2 0x1128 DUP2 DUP6 PUSH2 0x264F JUMP JUMPDEST TIMESTAMP DUP6 DUP3 ADD MSTORE PUSH32 0x51CDCDCBB7F694928152EE829B60265EFADD636412FAB2406331DA3B448BE4AF PUSH1 0x80 CALLER SWAP3 LOG2 PUSH1 0x1 PUSH1 0x7 SSTORE MLOAD DUP1 SWAP3 PUSH2 0x264F JUMP JUMPDEST RETURN JUMPDEST DUP2 MLOAD DUP7 DUP3 ADD SSTORE SWAP1 DUP9 ADD SWAP1 PUSH1 0x1 ADD PUSH2 0x10EA JUMP JUMPDEST DUP4 SWAP1 DUP8 MLOAD DUP11 DUP2 ADD SWAP1 DUP5 DUP3 MSTORE TIMESTAMP PUSH1 0x34 DUP3 ADD MSTORE PREVRANDAO PUSH1 0x54 DUP3 ADD MSTORE DUP6 PUSH1 0x74 DUP3 ADD MSTORE PUSH1 0xFF PUSH1 0xF8 SHL DUP4 PUSH1 0xF8 SHL AND PUSH1 0x94 DUP3 ADD MSTORE PUSH1 0x75 DUP2 MSTORE PUSH2 0x11AD DUP2 PUSH2 0x2551 JUMP JUMPDEST MLOAD SWAP1 KECCAK256 PUSH2 0x1FE0 DUP3 PUSH1 0x5 SHL AND DUP11 ADD MSTORE AND DUP4 DUP2 EQ PUSH2 0x11CB JUMPI PUSH1 0x1 ADD PUSH2 0x10B2 JUMP JUMPDEST PUSH4 0x4E487B71 PUSH1 0xE0 SHL DUP7 MSTORE PUSH1 0x11 DUP6 MSTORE PUSH1 0x24 DUP7 REVERT JUMPDEST DUP4 MLOAD PUSH3 0x461BCD PUSH1 0xE5 SHL DUP2 MSTORE DUP1 DUP4 ADD DUP8 SWAP1 MSTORE PUSH1 0x16 PUSH1 0x24 DUP3 ADD MSTORE PUSH22 0x50656E64696E67207265717565737420657869737473 PUSH1 0x50 SHL PUSH1 0x44 DUP3 ADD MSTORE PUSH1 0x64 SWAP1 REVERT JUMPDEST PUSH1 0x3 SWAP2 POP ADD SLOAD PUSH2 0x384 DUP2 ADD DUP1 SWAP2 GT PUSH2 0x1234 JUMPI TIMESTAMP GT DUP8 PUSH2 0x1086 JUMP JUMPDEST PUSH4 0x4E487B71 PUSH1 0xE0 SHL DUP5 MSTORE PUSH1 0x11 DUP4 MSTORE PUSH1 0x24 DUP5 REVERT JUMPDEST DUP3 MLOAD PUSH3 0x461BCD PUSH1 0xE5 SHL DUP2 MSTORE SWAP1 DUP2 ADD DUP6 SWAP1 MSTORE PUSH1 0x14 PUSH1 0x24 DUP3 ADD MSTORE PUSH20 0x125B9CDD59999A58DA595B9D081C185E5B595B9D PUSH1 0x62 SHL PUSH1 0x44 DUP3 ADD MSTORE PUSH1 0x64 SWAP1 REVERT JUMPDEST DUP3 MLOAD PUSH3 0x461BCD PUSH1 0xE5 SHL DUP2 MSTORE SWAP1 DUP2 ADD DUP6 SWAP1 MSTORE PUSH1 0x16 PUSH1 0x24 DUP3 ADD MSTORE PUSH22 0x476C6F62616C20636F6F6C646F776E20616374697665 PUSH1 0x50 SHL PUSH1 0x44 DUP3 ADD MSTORE PUSH1 0x64 SWAP1 REVERT JUMPDEST PUSH4 0x4E487B71 PUSH1 0xE0 SHL DUP4 MSTORE PUSH1 0x11 DUP3 MSTORE PUSH1 0x24 DUP4 REVERT JUMPDEST DUP3 MLOAD PUSH3 0x461BCD PUSH1 0xE5 SHL DUP2 MSTORE SWAP1 DUP2 ADD DUP6 SWAP1 MSTORE PUSH1 0x16 PUSH1 0x24 DUP3 ADD MSTORE PUSH22 0x57616C6C657420636F6F6C646F776E20616374697665 PUSH1 0x50 SHL PUSH1 0x44 DUP3 ADD MSTORE PUSH1 0x64 SWAP1 REVERT JUMPDEST DUP3 MLOAD PUSH3 0x461BCD PUSH1 0xE5 SHL DUP2 MSTORE SWAP1 DUP2 ADD DUP6 SWAP1 MSTORE PUSH1 0x14 PUSH1 0x24 DUP3 ADD MSTORE PUSH20 0x15D85B1B195D081B1A5B5A5D081C995858DA1959 PUSH1 0x62 SHL PUSH1 0x44 DUP3 ADD MSTORE PUSH1 0x64 SWAP1 REVERT JUMPDEST DUP2 MLOAD PUSH3 0x461BCD PUSH1 0xE5 SHL DUP2 MSTORE PUSH1 0x20 DUP2 DUP7 ADD MSTORE PUSH1 0x12 PUSH1 0x24 DUP3 ADD MSTORE PUSH18 0x13585E081CDD5C1C1B1E481C995858DA1959 PUSH1 0x72 SHL PUSH1 0x44 DUP3 ADD MSTORE PUSH1 0x64 SWAP1 REVERT JUMPDEST DUP2 MLOAD PUSH3 0x461BCD PUSH1 0xE5 SHL DUP2 MSTORE PUSH1 0x20 DUP2 DUP7 ADD MSTORE PUSH1 0x18 PUSH1 0x24 DUP3 ADD MSTORE PUSH32 0x4F776E6572206D696E7420706572696F64206163746976650000000000000000 PUSH1 0x44 DUP3 ADD MSTORE PUSH1 0x64 SWAP1 REVERT JUMPDEST POP DUP3 CALLVALUE PUSH2 0x2A1 JUMPI DUP2 PUSH1 0x3 NOT CALLDATASIZE ADD SLT PUSH2 0x2A1 JUMPI PUSH1 0x1B SLOAD SWAP1 MLOAD PUSH1 0x1 PUSH1 0x1 PUSH1 0xA0 SHL SUB SWAP1 SWAP2 AND DUP2 MSTORE PUSH1 0x20 SWAP1 RETURN JUMPDEST POP SWAP2 CALLVALUE PUSH2 0x331 JUMPI DUP1 PUSH1 0x3 NOT CALLDATASIZE ADD SLT PUSH2 0x331 JUMPI PUSH2 0x1404 PUSH2 0x23C6 JUMP JUMPDEST SWAP1 PUSH1 0x24 CALLDATALOAD DUP1 ISZERO ISZERO SWAP3 DUP4 DUP3 SUB PUSH2 0x778 JUMPI PUSH1 0x1 PUSH1 0x1 PUSH1 0xA0 SHL SUB AND SWAP4 DUP5 ISZERO PUSH2 0x147A JUMPI POP PUSH2 0x144D SWAP1 CALLER DUP7 MSTORE PUSH1 0x5 PUSH1 0x20 MSTORE DUP3 DUP7 KECCAK256 DUP6 DUP8 MSTORE PUSH1 0x20 MSTORE DUP3 DUP7 KECCAK256 SWAP1 PUSH1 0xFF DUP1 NOT DUP4 SLOAD AND SWAP2 ISZERO ISZERO AND OR SWAP1 SSTORE JUMP JUMPDEST MLOAD SWAP1 DUP2 MSTORE PUSH32 0x17307EAB39AB6107E8899845AD3D59BD9653F200F220920489CA2B5937696C31 PUSH1 0x20 CALLER SWAP3 LOG3 DUP1 RETURN JUMPDEST DUP3 MLOAD PUSH4 0xB611743 PUSH1 0xE3 SHL DUP2 MSTORE SWAP1 DUP2 ADD DUP6 SWAP1 MSTORE PUSH1 0x24 SWAP1 REVERT JUMPDEST POP SWAP1 CALLVALUE PUSH2 0x2A1 JUMPI PUSH1 0x20 SWAP1 DUP2 PUSH1 0x3 NOT CALLDATASIZE ADD SLT PUSH2 0x331 JUMPI SWAP2 SWAP1 SWAP2 CALLDATALOAD DUP2 MSTORE PUSH1 0x11 DUP3 MSTORE DUP3 DUP2 KECCAK256 SWAP1 DUP2 SLOAD PUSH2 0x14BF DUP2 PUSH2 0x3039 JUMP JUMPDEST SWAP1 PUSH2 0x14CC DUP7 MLOAD SWAP3 DUP4 PUSH2 0x2589 JUMP JUMPDEST DUP1 DUP3 MSTORE DUP5 DUP3 ADD DUP1 SWAP5 DUP5 MSTORE DUP6 DUP5 KECCAK256 DUP5 SWAP2 JUMPDEST DUP4 DUP4 LT PUSH2 0x155A JUMPI POP POP POP POP DUP5 MLOAD SWAP4 DUP1 DUP6 ADD SWAP2 DUP2 DUP7 MSTORE MLOAD DUP1 SWAP3 MSTORE DUP6 DUP6 ADD DUP7 DUP4 PUSH1 0x5 SHL DUP8 ADD ADD SWAP5 SWAP4 SWAP7 JUMPDEST DUP4 DUP9 LT PUSH2 0x1511 JUMPI DUP7 DUP7 SUB DUP8 RETURN JUMPDEST SWAP1 SWAP2 SWAP3 SWAP4 SWAP5 DUP4 DUP1 PUSH1 0x1 SWAP3 PUSH1 0x3F NOT DUP11 DUP3 SUB ADD DUP7 MSTORE DUP9 MLOAD SWAP1 DUP6 DUP1 PUSH2 0x153B DUP5 MLOAD PUSH1 0x60 DUP1 DUP7 MSTORE DUP6 ADD SWAP1 PUSH2 0x23A1 JUMP JUMPDEST SWAP4 DUP6 DUP2 ADD MLOAD DUP7 DUP6 ADD MSTORE ADD MLOAD SWAP2 ADD MSTORE SWAP8 ADD SWAP4 ADD SWAP8 ADD SWAP7 SWAP1 SWAP4 SWAP3 SWAP2 SWAP4 PUSH2 0x1504 JUMP JUMPDEST PUSH1 0x3 DUP9 PUSH1 0x1 SWAP3 DUP12 SWAP11 SWAP8 SWAP9 SWAP11 MLOAD PUSH2 0x156F DUP2 PUSH2 0x2535 JUMP JUMPDEST DUP13 MLOAD PUSH2 0x1586 DUP2 PUSH2 0x157F DUP2 DUP11 PUSH2 0x246D JUMP JUMPDEST SUB DUP3 PUSH2 0x2589 JUMP JUMPDEST DUP2 MSTORE DUP5 DUP7 ADD SLOAD DUP4 DUP3 ADD MSTORE PUSH1 0x2 DUP7 ADD SLOAD DUP14 DUP3 ADD MSTORE DUP2 MSTORE ADD SWAP3 ADD SWAP3 ADD SWAP2 SWAP1 SWAP7 SWAP5 SWAP4 SWAP7 PUSH2 0x14DC JUMP JUMPDEST POP DUP3 CALLVALUE PUSH2 0x2A1 JUMPI DUP2 PUSH1 0x3 NOT CALLDATASIZE ADD SLT PUSH2 0x2A1 JUMPI DUP1 MLOAD SWAP1 DUP3 PUSH1 0x1 DUP1 SLOAD SWAP2 PUSH2 0x15CF DUP4 PUSH2 0x2433 JUMP JUMPDEST DUP1 DUP7 MSTORE SWAP3 DUP3 DUP2 AND SWAP1 DUP2 ISZERO PUSH2 0x1666 JUMPI POP PUSH1 0x1 EQ PUSH2 0x160A JUMPI JUMPDEST POP POP POP PUSH2 0x15F8 DUP3 PUSH2 0xC79 SWAP5 SUB DUP4 PUSH2 0x2589 JUMP JUMPDEST MLOAD SWAP2 DUP3 SWAP2 PUSH1 0x20 DUP4 MSTORE PUSH1 0x20 DUP4 ADD SWAP1 PUSH2 0x23A1 JUMP JUMPDEST SWAP5 POP DUP1 DUP6 MSTORE PUSH32 0xB10E2D527612073B26EECDFD717E6A320CF44B4AFAC2B0732D9FCBE2B7FA0CF6 JUMPDEST DUP3 DUP7 LT PUSH2 0x164E JUMPI POP POP POP PUSH2 0x15F8 DUP3 PUSH1 0x20 PUSH2 0xC79 SWAP6 DUP3 ADD ADD SWAP5 PUSH2 0x15E6 JUMP JUMPDEST DUP1 SLOAD PUSH1 0x20 DUP8 DUP8 ADD DUP2 ADD SWAP2 SWAP1 SWAP2 MSTORE SWAP1 SWAP6 ADD SWAP5 DUP2 ADD PUSH2 0x1631 JUMP JUMPDEST PUSH2 0xC79 SWAP8 POP DUP7 SWAP4 POP PUSH1 0x20 SWAP3 POP PUSH2 0x15F8 SWAP5 SWAP2 POP PUSH1 0xFF NOT AND DUP3 DUP5 ADD MSTORE ISZERO ISZERO PUSH1 0x5 SHL DUP3 ADD ADD SWAP5 PUSH2 0x15E6 JUMP JUMPDEST POP SWAP1 CALLVALUE PUSH2 0x2A1 JUMPI PUSH1 0x20 CALLDATASIZE PUSH1 0x3 NOT ADD SLT PUSH2 0x2A1 JUMPI CALLDATALOAD SWAP1 PUSH1 0x6 DUP3 LT ISZERO PUSH2 0x282 JUMPI DUP3 MLOAD PUSH2 0xC79 SWAP1 DUP5 PUSH2 0x15F8 DUP3 PUSH2 0x16C4 DUP2 PUSH1 0x8 DUP10 ADD PUSH2 0x246D JUMP JUMPDEST SUB DUP4 PUSH2 0x2589 JUMP JUMPDEST POP DUP3 CALLVALUE PUSH2 0x2A1 JUMPI DUP2 PUSH1 0x3 NOT CALLDATASIZE ADD SLT PUSH2 0x2A1 JUMPI PUSH1 0x6 SLOAD SWAP1 MLOAD PUSH1 0x1 PUSH1 0x1 PUSH1 0xA0 SHL SUB SWAP1 SWAP2 AND DUP2 MSTORE PUSH1 0x20 SWAP1 RETURN JUMPDEST POP DUP3 SWAP1 CALLVALUE PUSH2 0x282 JUMPI PUSH1 0x20 CALLDATASIZE PUSH1 0x3 NOT ADD SLT PUSH2 0x282 JUMPI POP PUSH2 0x1715 PUSH1 0x20 SWAP3 CALLDATALOAD PUSH2 0x2F63 JUMP JUMPDEST SWAP1 MLOAD SWAP1 ISZERO ISZERO DUP2 MSTORE RETURN JUMPDEST POP SWAP1 CALLVALUE PUSH2 0x2A1 JUMPI PUSH1 0x20 DUP1 PUSH1 0x3 NOT CALLDATASIZE ADD SLT PUSH2 0x331 JUMPI PUSH2 0x173A PUSH2 0x23C6 JUMP JUMPDEST DUP4 DUP6 DUP1 MLOAD PUSH2 0x1747 DUP2 PUSH2 0x2535 JUMP JUMPDEST DUP2 MLOAD PUSH2 0x1752 DUP2 PUSH2 0x2535 JUMP JUMPDEST PUSH1 0x60 CALLDATASIZE DUP3 CALLDATACOPY DUP2 MSTORE DUP5 DUP2 ADD DUP4 SWAP1 MSTORE ADD MSTORE PUSH1 0x1 PUSH1 0x1 PUSH1 0xA0 SHL SUB AND DUP4 MSTORE PUSH1 0x13 DUP2 MSTORE DUP4 DUP4 KECCAK256 DUP5 MLOAD SWAP3 SWAP1 PUSH2 0x1780 DUP5 PUSH2 0x2535 JUMP JUMPDEST DUP6 MLOAD SWAP5 DUP2 SWAP1 DUP7 JUMPDEST PUSH1 0x3 DUP3 LT PUSH2 0x17D6 JUMPI POP POP POP SWAP5 DUP1 PUSH1 0xFF PUSH2 0x17C6 SWAP4 PUSH1 0xA0 SWAP9 PUSH2 0x17A6 DUP10 PUSH2 0x2535 JUMP JUMPDEST DUP9 DUP9 MSTORE PUSH1 0x3 DUP2 ADD SLOAD SWAP7 DUP9 ADD SWAP7 DUP8 MSTORE ADD SLOAD AND SWAP5 ADD SWAP4 ISZERO ISZERO DUP5 MSTORE MLOAD DUP1 SWAP5 PUSH2 0x264F JUMP JUMPDEST MLOAD PUSH1 0x60 DUP4 ADD MSTORE MLOAD ISZERO ISZERO PUSH1 0x80 DUP3 ADD MSTORE RETURN JUMPDEST PUSH1 0x1 DUP7 DUP2 SWAP3 DUP6 SLOAD DUP2 MSTORE ADD SWAP4 ADD SWAP2 ADD SWAP1 SWAP2 PUSH2 0x1787 JUMP JUMPDEST POP CALLVALUE PUSH2 0x282 JUMPI DUP1 PUSH1 0x3 NOT CALLDATASIZE ADD SLT PUSH2 0x282 JUMPI PUSH2 0x1804 PUSH2 0x2701 JUMP JUMPDEST PUSH1 0x6 DUP1 SLOAD PUSH1 0x1 PUSH1 0x1 PUSH1 0xA0 SHL SUB NOT DUP2 AND SWAP1 SWAP2 SSTORE DUP2 SWAP1 PUSH1 0x1 PUSH1 0x1 PUSH1 0xA0 SHL SUB AND PUSH32 0x8BE0079C531659141344CD1FD0A4F28419497F9722A3DAAFE3B4186F6B6457E0 DUP3 DUP1 LOG3 DUP1 RETURN JUMPDEST POP DUP3 CALLVALUE PUSH2 0x2A1 JUMPI PUSH2 0x1858 CALLDATASIZE PUSH2 0x23F7 JUMP JUMPDEST SWAP1 DUP4 MSTORE PUSH1 0x11 PUSH1 0x20 MSTORE DUP2 DUP4 KECCAK256 DUP1 SLOAD DUP3 LT ISZERO PUSH2 0xFAB JUMPI SWAP1 PUSH2 0x1876 SWAP2 PUSH2 0x2611 JUMP JUMPDEST POP SWAP1 PUSH2 0xC79 DUP2 MLOAD SWAP2 PUSH2 0x1893 DUP4 PUSH2 0x188C DUP2 DUP8 PUSH2 0x246D JUMP JUMPDEST SUB DUP5 PUSH2 0x2589 JUMP JUMPDEST PUSH1 0x2 PUSH1 0x1 DUP6 ADD SLOAD SWAP5 ADD SLOAD SWAP1 MLOAD SWAP4 DUP5 SWAP4 DUP5 PUSH2 0x262D JUMP JUMPDEST POP DUP3 SWAP1 CALLVALUE PUSH2 0x282 JUMPI PUSH1 0x20 CALLDATASIZE PUSH1 0x3 NOT ADD SLT PUSH2 0x282 JUMPI PUSH1 0x1 PUSH1 0x1 PUSH1 0xA0 SHL SUB PUSH2 0x18CC PUSH2 0x23C6 JUMP JUMPDEST AND SWAP3 DUP4 ISZERO PUSH2 0x18E9 JUMPI POP DUP1 PUSH1 0x20 SWAP4 DUP4 SWAP3 MSTORE PUSH1 0x3 DUP5 MSTORE KECCAK256 SLOAD SWAP1 MLOAD SWAP1 DUP2 MSTORE RETURN JUMPDEST SWAP2 MLOAD PUSH4 0x22718AD9 PUSH1 0xE2 SHL DUP2 MSTORE SWAP2 DUP3 ADD MSTORE PUSH1 0x24 SWAP1 REVERT JUMPDEST POP SWAP1 CALLVALUE PUSH2 0x2A1 JUMPI PUSH1 0x20 SWAP3 DUP4 PUSH1 0x3 NOT CALLDATASIZE ADD SLT PUSH2 0x331 JUMPI DUP1 MLOAD PUSH1 0xC0 SWAP3 SWAP1 PUSH8 0xFFFFFFFFFFFFFFFF SWAP1 DUP5 DUP2 ADD DUP3 DUP2 GT DUP3 DUP3 LT OR PUSH2 0x19FC JUMPI DUP5 MSTORE DUP7 DUP7 JUMPDEST DUP7 DUP2 LT PUSH2 0x19EE JUMPI POP POP POP DUP2 CALLDATALOAD DUP6 MSTORE PUSH1 0x12 DUP7 MSTORE DUP3 DUP6 KECCAK256 SWAP2 DUP4 MLOAD SWAP5 DUP6 ADD SWAP2 DUP6 DUP4 LT SWAP1 DUP4 GT OR PUSH2 0x19DB JUMPI POP DUP3 MSTORE DUP4 DUP6 DUP5 JUMPDEST PUSH1 0x6 DUP4 LT PUSH2 0x19B6 JUMPI POP POP POP POP MLOAD SWAP2 DUP4 DUP4 ADD DUP5 DUP5 MSTORE PUSH1 0xE0 DUP5 ADD SWAP3 SWAP2 SWAP5 JUMPDEST PUSH1 0x6 DUP7 LT PUSH2 0x198E JUMPI DUP5 DUP5 SUB DUP6 RETURN JUMPDEST SWAP1 SWAP2 SWAP3 DUP2 DUP1 PUSH2 0x19A9 PUSH1 0x1 SWAP4 PUSH1 0x1F NOT DUP10 DUP3 SUB ADD DUP8 MSTORE DUP8 MLOAD PUSH2 0x23A1 JUMP JUMPDEST SWAP6 ADD SWAP4 ADD SWAP6 ADD SWAP5 SWAP1 PUSH2 0x1980 JUMP JUMPDEST PUSH1 0x1 SWAP2 DUP3 SWAP2 DUP7 MLOAD PUSH2 0x19CB DUP2 PUSH2 0x157F DUP2 DUP11 PUSH2 0x246D JUMP JUMPDEST DUP2 MSTORE ADD SWAP4 ADD SWAP2 ADD SWAP1 SWAP2 DUP7 SWAP1 PUSH2 0x1964 JUMP JUMPDEST PUSH4 0x4E487B71 PUSH1 0xE0 SHL DUP7 MSTORE PUSH1 0x41 SWAP1 MSTORE PUSH1 0x24 DUP6 REVERT JUMPDEST PUSH1 0x60 DUP2 DUP5 ADD MSTORE ADD DUP8 SWAP1 PUSH2 0x1936 JUMP JUMPDEST PUSH4 0x4E487B71 PUSH1 0xE0 SHL DUP8 MSTORE PUSH1 0x41 DUP5 MSTORE PUSH1 0x24 DUP8 REVERT JUMPDEST POP DUP3 CALLVALUE PUSH2 0x2A1 JUMPI PUSH1 0x20 CALLDATASIZE PUSH1 0x3 NOT ADD SLT PUSH2 0x2A1 JUMPI PUSH1 0x20 SWAP2 DUP2 SWAP1 PUSH1 0x1 PUSH1 0x1 PUSH1 0xA0 SHL SUB PUSH2 0x1A37 PUSH2 0x23C6 JUMP JUMPDEST AND DUP2 MSTORE PUSH1 0x18 DUP5 MSTORE KECCAK256 SLOAD SWAP1 MLOAD SWAP1 DUP2 MSTORE RETURN JUMPDEST POP DUP3 SWAP1 CALLVALUE PUSH2 0x282 JUMPI PUSH1 0x20 CALLDATASIZE PUSH1 0x3 NOT ADD SLT PUSH2 0x282 JUMPI POP PUSH2 0x1A68 PUSH1 0x20 SWAP3 CALLDATALOAD PUSH2 0x28CC JUMP JUMPDEST SWAP1 MLOAD PUSH1 0x1 PUSH1 0x1 PUSH1 0xA0 SHL SUB SWAP1 SWAP2 AND DUP2 MSTORE RETURN JUMPDEST DUP4 DUP3 CALLVALUE PUSH2 0x282 JUMPI DUP1 PUSH1 0x3 NOT CALLDATASIZE ADD SLT PUSH2 0x282 JUMPI PUSH1 0x19 SLOAD PUSH2 0x1A97 DUP2 PUSH2 0x3039 JUMP JUMPDEST SWAP2 PUSH2 0x1AA4 DUP5 MLOAD SWAP4 DUP5 PUSH2 0x2589 JUMP JUMPDEST DUP2 DUP4 MSTORE PUSH1 0x19 DUP2 MSTORE PUSH1 0x20 SWAP3 DUP4 DUP2 ADD SWAP3 DUP3 PUSH32 0x944998273E477B495144FB8794C914197F3CCB46BE2900F4698FD0EF743C9695 DUP6 JUMPDEST DUP4 DUP4 LT PUSH2 0x1B37 JUMPI POP POP POP POP DUP5 MLOAD SWAP4 DUP1 DUP6 ADD SWAP2 DUP2 DUP7 MSTORE MLOAD DUP1 SWAP3 MSTORE DUP6 DUP6 ADD SWAP6 DUP3 PUSH1 0x5 SHL DUP7 ADD ADD SWAP4 SWAP3 SWAP6 JUMPDEST DUP3 DUP8 LT PUSH2 0x1B0B JUMPI DUP6 DUP6 SUB DUP7 RETURN JUMPDEST SWAP1 SWAP2 SWAP3 SWAP4 DUP3 DUP1 PUSH2 0x1B27 PUSH1 0x1 SWAP4 PUSH1 0x3F NOT DUP11 DUP3 SUB ADD DUP7 MSTORE DUP9 MLOAD PUSH2 0x23A1 JUMP JUMPDEST SWAP7 ADD SWAP3 ADD SWAP7 ADD SWAP6 SWAP3 SWAP2 SWAP1 SWAP3 PUSH2 0x1AFE JUMP JUMPDEST PUSH1 0x1 DUP9 DUP2 SWAP3 DUP12 SWAP11 SWAP8 SWAP9 SWAP11 MLOAD PUSH2 0x1B50 DUP2 PUSH2 0x157F DUP2 DUP10 PUSH2 0x246D JUMP JUMPDEST DUP2 MSTORE ADD SWAP3 ADD SWAP3 ADD SWAP2 SWAP1 SWAP7 SWAP5 SWAP4 SWAP7 PUSH2 0x1AD6 JUMP JUMPDEST POP SWAP2 SWAP1 CALLVALUE PUSH2 0x331 JUMPI PUSH1 0x20 CALLDATASIZE PUSH1 0x3 NOT ADD SLT PUSH2 0x331 JUMPI SWAP2 DUP2 SWAP3 CALLDATALOAD DUP2 MSTORE PUSH1 0x10 PUSH1 0x20 MSTORE KECCAK256 PUSH1 0x1 DUP2 SLOAD SWAP2 ADD SLOAD DUP3 MLOAD SWAP2 DUP3 MSTORE PUSH1 0x20 DUP3 ADD MSTORE RETURN JUMPDEST POP DUP3 CALLVALUE PUSH2 0x2A1 JUMPI PUSH2 0xD54 SWAP1 PUSH2 0x1BA9 CALLDATASIZE PUSH2 0x25DC JUMP JUMPDEST SWAP2 SWAP3 MLOAD SWAP3 PUSH2 0x1BB6 DUP5 PUSH2 0x256D JUMP JUMPDEST DUP6 DUP5 MSTORE PUSH2 0xD4E DUP4 DUP4 DUP4 PUSH2 0x272D JUMP JUMPDEST POP SWAP2 CALLVALUE PUSH2 0x331 JUMPI DUP3 PUSH1 0x3 NOT CALLDATASIZE ADD SLT PUSH2 0x331 JUMPI PUSH2 0x1BDE PUSH2 0x2701 JUMP JUMPDEST SELFBALANCE DUP1 ISZERO PUSH2 0x1C44 JUMPI PUSH1 0x6 SLOAD DUP5 SWAP2 DUP3 SWAP2 DUP3 SWAP2 DUP3 SWAP2 PUSH1 0x1 PUSH1 0x1 PUSH1 0xA0 SHL SUB AND GAS CALL PUSH2 0x1C03 PUSH2 0x2907 JUMP JUMPDEST POP ISZERO PUSH2 0x1C0D JUMPI DUP3 DUP1 RETURN JUMPDEST SWAP1 PUSH1 0x20 PUSH1 0x64 SWAP3 MLOAD SWAP2 PUSH3 0x461BCD PUSH1 0xE5 SHL DUP4 MSTORE DUP3 ADD MSTORE PUSH1 0x11 PUSH1 0x24 DUP3 ADD MSTORE PUSH17 0x15DA5D1A191C985DD85B0819985A5B1959 PUSH1 0x7A SHL PUSH1 0x44 DUP3 ADD MSTORE REVERT JUMPDEST DUP2 MLOAD PUSH3 0x461BCD PUSH1 0xE5 SHL DUP2 MSTORE PUSH1 0x20 DUP2 DUP6 ADD MSTORE PUSH1 0x14 PUSH1 0x24 DUP3 ADD MSTORE PUSH20 0x4E6F2066756E647320746F207769746864726177 PUSH1 0x60 SHL PUSH1 0x44 DUP3 ADD MSTORE PUSH1 0x64 SWAP1 REVERT JUMPDEST POP DUP3 CALLVALUE PUSH2 0x2A1 JUMPI PUSH1 0x20 CALLDATASIZE PUSH1 0x3 NOT ADD SLT PUSH2 0x2A1 JUMPI PUSH1 0x20 SWAP2 DUP2 SWAP1 PUSH1 0x1 PUSH1 0x1 PUSH1 0xA0 SHL SUB PUSH2 0x1CA6 PUSH2 0x23C6 JUMP JUMPDEST AND DUP2 MSTORE PUSH1 0x17 DUP5 MSTORE KECCAK256 SLOAD SWAP1 MLOAD SWAP1 DUP2 MSTORE RETURN JUMPDEST POP DUP3 CALLVALUE PUSH2 0x2A1 JUMPI DUP2 PUSH1 0x3 NOT CALLDATASIZE ADD SLT PUSH2 0x2A1 JUMPI PUSH1 0x20 SWAP1 MLOAD PUSH2 0x3E7 DUP2 MSTORE RETURN JUMPDEST POP DUP3 CALLVALUE PUSH2 0x2A1 JUMPI DUP2 PUSH1 0x3 NOT CALLDATASIZE ADD SLT PUSH2 0x2A1 JUMPI PUSH1 0x20 SWAP1 MLOAD PUSH2 0x384 DUP2 MSTORE RETURN JUMPDEST POP DUP3 CALLVALUE PUSH2 0x2A1 JUMPI DUP2 PUSH1 0x3 NOT CALLDATASIZE ADD SLT PUSH2 0x2A1 JUMPI PUSH1 0x20 SWAP1 PUSH1 0x15 SLOAD SWAP1 MLOAD SWAP1 DUP2 MSTORE RETURN JUMPDEST POP CALLVALUE PUSH2 0x282 JUMPI PUSH2 0xD54 PUSH2 0x1D21 CALLDATASIZE PUSH2 0x25DC JUMP JUMPDEST SWAP2 PUSH2 0x272D JUMP JUMPDEST POP DUP3 CALLVALUE PUSH2 0x2A1 JUMPI DUP2 PUSH1 0x3 NOT CALLDATASIZE ADD SLT PUSH2 0x2A1 JUMPI PUSH1 0x14 SLOAD PUSH1 0x0 NOT DUP2 ADD SWAP3 SWAP1 DUP4 GT PUSH2 0x1D53 JUMPI PUSH1 0x20 DUP4 DUP4 MLOAD SWAP1 DUP2 MSTORE RETURN JUMPDEST PUSH4 0x4E487B71 PUSH1 0xE0 SHL DUP2 MSTORE PUSH1 0x11 DUP5 MSTORE PUSH1 0x24 SWAP1 REVERT JUMPDEST POP DUP3 CALLVALUE PUSH2 0x2A1 JUMPI PUSH2 0x1D76 CALLDATASIZE PUSH2 0x23F7 JUMP JUMPDEST SWAP3 SWAP1 DUP2 MSTORE PUSH1 0x12 PUSH1 0x20 MSTORE DUP2 DUP2 KECCAK256 SWAP1 PUSH1 0x6 DUP5 LT ISZERO PUSH2 0x282 JUMPI POP PUSH2 0xCCF PUSH2 0xC79 SWAP4 PUSH2 0xCD5 SWAP3 PUSH2 0x240D JUMP JUMPDEST POP DUP3 CALLVALUE PUSH2 0x2A1 JUMPI DUP2 PUSH1 0x3 NOT CALLDATASIZE ADD SLT PUSH2 0x2A1 JUMPI PUSH1 0x20 SWAP1 MLOAD PUSH1 0xA DUP2 MSTORE RETURN JUMPDEST POP SWAP2 CALLVALUE PUSH2 0x331 JUMPI DUP1 PUSH1 0x3 NOT CALLDATASIZE ADD SLT PUSH2 0x331 JUMPI PUSH2 0x1DD3 PUSH2 0x23C6 JUMP JUMPDEST PUSH8 0xFFFFFFFFFFFFFFFF SWAP2 PUSH1 0x24 CALLDATALOAD DUP4 DUP2 GT PUSH2 0x778 JUMPI CALLDATASIZE PUSH1 0xC4 DUP3 ADD GT PUSH2 0x778 JUMPI PUSH2 0x1DF9 PUSH2 0x2701 JUMP JUMPDEST PUSH2 0x1E01 PUSH2 0x2AA6 JUMP JUMPDEST PUSH1 0x14 SLOAD SWAP4 PUSH1 0x19 DUP6 GT PUSH2 0x20D2 JUMPI DUP2 DUP7 ADD SWAP2 DUP3 CALLDATALOAD SWAP1 PUSH1 0x22 NOT DUP2 CALLDATASIZE SUB ADD DUP3 SLT ISZERO PUSH2 0x20CE JUMPI ADD DUP7 DUP2 ADD CALLDATALOAD SWAP1 DUP3 DUP3 GT PUSH2 0x20CE JUMPI PUSH1 0x24 DUP3 CALLDATASIZE SUB SWAP2 ADD SGT PUSH2 0x20CA JUMPI ISZERO ISZERO SWAP2 DUP3 PUSH2 0x2054 JUMPI JUMPDEST DUP4 MLOAD SWAP2 PUSH1 0x20 SWAP3 DUP4 DUP2 ADD SWAP1 PUSH1 0x1 PUSH1 0x1 PUSH1 0x60 SHL SUB NOT DUP9 PUSH1 0x60 SHL AND DUP3 MSTORE TIMESTAMP PUSH1 0x34 DUP3 ADD MSTORE PREVRANDAO PUSH1 0x54 DUP3 ADD MSTORE DUP9 PUSH1 0x74 DUP3 ADD MSTORE DUP11 PUSH1 0x94 DUP3 ADD MSTORE PUSH1 0x75 DUP2 MSTORE PUSH2 0x1E83 DUP2 PUSH2 0x2551 JUMP JUMPDEST MLOAD SWAP1 KECCAK256 SWAP8 PUSH1 0x1 DUP9 EQ PUSH2 0x204B JUMPI JUMPDEST PUSH2 0x1E99 DUP9 PUSH2 0x2BA8 JUMP JUMPDEST PUSH1 0x14 SSTORE DUP5 DUP7 MLOAD PUSH2 0x1EA8 DUP2 PUSH2 0x2503 JUMP JUMPDEST DUP11 DUP2 MSTORE PUSH1 0x1 DUP13 DUP10 DUP9 DUP5 ADD SWAP2 TIMESTAMP DUP4 MSTORE DUP14 DUP2 MSTORE PUSH1 0x10 DUP11 MSTORE KECCAK256 SWAP3 MLOAD DUP4 SSTORE MLOAD SWAP2 ADD SSTORE PUSH2 0x1F1F JUMPI JUMPDEST POP POP POP SWAP2 DUP4 SWAP2 PUSH1 0x60 SWAP4 PUSH2 0x1EFF DUP8 PUSH32 0x35A71FD4AD36D3B5F42A9819D12284AC3592B91D09F274E2FF1639A4418C1A02 SWAP8 PUSH2 0x2C84 JUMP JUMPDEST DUP3 MLOAD SWAP8 DUP9 MSTORE DUP8 ADD MSTORE TIMESTAMP SWAP1 DUP7 ADD MSTORE PUSH1 0x1 PUSH1 0x1 PUSH1 0xA0 SHL SUB AND SWAP4 LOG3 PUSH1 0x1 PUSH1 0x7 SSTORE DUP1 RETURN JUMPDEST DUP10 JUMPDEST PUSH1 0x6 DUP2 LT PUSH2 0x1F2F JUMPI POP PUSH2 0x1ECB JUMP JUMPDEST DUP9 DUP12 PUSH2 0x1F4F DUP4 DUP11 PUSH2 0x1F40 DUP3 DUP11 PUSH2 0x2E89 JUMP JUMPDEST SWAP5 SWAP1 SWAP6 DUP2 MSTORE PUSH1 0x12 DUP12 MSTORE KECCAK256 PUSH2 0x240D JUMP JUMPDEST SWAP3 SWAP1 SWAP3 PUSH2 0x2039 JUMPI DUP6 DUP3 GT PUSH2 0x2026 JUMPI SWAP1 DUP3 SWAP2 PUSH2 0x1F77 DUP16 SWAP6 SWAP5 PUSH2 0x1F71 DUP5 SWAP2 SLOAD PUSH2 0x2433 JUMP JUMPDEST DUP6 PUSH2 0x2ECC JUMP JUMPDEST DUP5 PUSH1 0x1F DUP4 GT PUSH1 0x1 EQ PUSH2 0x1FB8 JUMPI PUSH2 0x1FA8 SWAP6 SWAP1 SWAP2 DUP4 PUSH2 0x1FAD JUMPI JUMPDEST POP POP DUP2 PUSH1 0x1 SHL SWAP2 PUSH1 0x0 NOT SWAP1 PUSH1 0x3 SHL SHR NOT AND OR SWAP1 SSTORE PUSH2 0x2BA8 JUMP JUMPDEST PUSH2 0x1F21 JUMP JUMPDEST ADD CALLDATALOAD SWAP1 POP CODESIZE DUP1 PUSH2 0x1F8F JUMP JUMPDEST SWAP2 SWAP3 SWAP4 SWAP5 DUP5 DUP4 MSTORE DUP10 DUP4 KECCAK256 SWAP3 JUMPDEST DUP11 PUSH1 0x1F NOT DUP7 AND DUP3 LT PUSH2 0x2010 JUMPI POP POP SWAP2 DUP4 SWAP2 PUSH1 0x1 SWAP4 PUSH2 0x1FA8 SWAP8 SWAP7 SWAP6 PUSH1 0x1F NOT DUP2 AND LT PUSH2 0x1FF6 JUMPI JUMPDEST POP POP POP DUP2 SHL ADD SWAP1 SSTORE PUSH2 0x2BA8 JUMP JUMPDEST ADD CALLDATALOAD PUSH1 0x0 NOT PUSH1 0x3 DUP5 SWAP1 SHL PUSH1 0xF8 AND SHR NOT AND SWAP1 SSTORE CODESIZE DUP1 DUP1 PUSH2 0x1FE9 JUMP JUMPDEST PUSH1 0x1 DUP4 SWAP6 DUP3 SWAP4 SWAP5 DUP7 ADD CALLDATALOAD DUP2 SSTORE ADD SWAP5 ADD SWAP2 ADD PUSH2 0x1FC4 JUMP JUMPDEST PUSH4 0x4E487B71 PUSH1 0xE0 SHL DUP15 MSTORE PUSH1 0x41 DUP6 MSTORE PUSH1 0x24 DUP15 REVERT JUMPDEST PUSH4 0x4E487B71 PUSH1 0xE0 SHL DUP15 MSTORE DUP14 DUP6 MSTORE PUSH1 0x24 DUP15 REVERT JUMPDEST TIMESTAMP PUSH1 0x15 SSTORE PUSH2 0x1E90 JUMP JUMPDEST DUP8 JUMPDEST PUSH1 0x6 DUP2 LT PUSH2 0x2064 JUMPI POP PUSH2 0x1E44 JUMP JUMPDEST PUSH2 0x2080 PUSH2 0x207B PUSH2 0x2074 DUP4 DUP6 PUSH2 0x2E89 JUMP JUMPDEST CALLDATASIZE SWAP2 PUSH2 0x2693 JUMP JUMPDEST PUSH2 0x32BE JUMP JUMPDEST ISZERO PUSH2 0x2093 JUMPI PUSH2 0x208E SWAP1 PUSH2 0x2BA8 JUMP JUMPDEST PUSH2 0x2056 JUMP JUMPDEST DUP5 MLOAD PUSH3 0x461BCD PUSH1 0xE5 SHL DUP2 MSTORE PUSH1 0x20 DUP2 DUP11 ADD MSTORE PUSH1 0x11 PUSH1 0x24 DUP3 ADD MSTORE PUSH17 0x24B73B30B634B2103432BC1031B7B637B9 PUSH1 0x79 SHL PUSH1 0x44 DUP3 ADD MSTORE PUSH1 0x64 SWAP1 REVERT JUMPDEST DUP8 DUP1 REVERT JUMPDEST DUP9 DUP1 REVERT JUMPDEST DUP3 MLOAD PUSH3 0x461BCD PUSH1 0xE5 SHL DUP2 MSTORE PUSH1 0x20 DUP2 DUP9 ADD MSTORE PUSH1 0x17 PUSH1 0x24 DUP3 ADD MSTORE PUSH32 0x4F776E6572207265736572766520657868617573746564000000000000000000 PUSH1 0x44 DUP3 ADD MSTORE PUSH1 0x64 SWAP1 REVERT JUMPDEST POP DUP3 CALLVALUE PUSH2 0x2A1 JUMPI DUP2 PUSH1 0x3 NOT CALLDATASIZE ADD SLT PUSH2 0x2A1 JUMPI PUSH1 0x20 SWAP1 MLOAD PUSH2 0xE10 DUP2 MSTORE RETURN JUMPDEST POP SWAP2 CALLVALUE PUSH2 0x331 JUMPI DUP1 PUSH1 0x3 NOT CALLDATASIZE ADD SLT PUSH2 0x331 JUMPI PUSH2 0x214C PUSH2 0x23C6 JUMP JUMPDEST SWAP2 PUSH1 0x24 CALLDATALOAD PUSH2 0x2159 DUP2 PUSH2 0x28CC JUMP JUMPDEST CALLER ISZERO ISZERO DUP1 PUSH2 0x21FB JUMPI JUMPDEST DUP1 PUSH2 0x21D2 JUMPI JUMPDEST PUSH2 0x21BC JUMPI PUSH1 0x1 PUSH1 0x1 PUSH1 0xA0 SHL SUB SWAP5 DUP6 AND SWAP5 DUP3 SWAP2 DUP7 SWAP2 AND PUSH32 0x8C5BE1E5EBEC7D5BD14F71427D1E84F3DD0314C0F7B2291E5B200AC8C7C3B925 DUP9 DUP1 LOG4 DUP5 MSTORE PUSH1 0x20 MSTORE DUP3 KECCAK256 DUP1 SLOAD PUSH1 0x1 PUSH1 0x1 PUSH1 0xA0 SHL SUB NOT AND SWAP1 SWAP2 OR SWAP1 SSTORE DUP1 RETURN JUMPDEST DUP4 MLOAD PUSH4 0xA9FBF51F PUSH1 0xE0 SHL DUP2 MSTORE CALLER DUP2 DUP6 ADD MSTORE PUSH1 0x24 SWAP1 REVERT JUMPDEST POP PUSH1 0x1 PUSH1 0x1 PUSH1 0xA0 SHL SUB DUP2 AND DUP7 MSTORE PUSH1 0x5 PUSH1 0x20 SWAP1 DUP2 MSTORE DUP5 DUP8 KECCAK256 CALLER DUP9 MSTORE SWAP1 MSTORE DUP4 DUP7 KECCAK256 SLOAD PUSH1 0xFF AND ISZERO PUSH2 0x2168 JUMP JUMPDEST POP PUSH1 0x1 PUSH1 0x1 PUSH1 0xA0 SHL SUB DUP2 AND CALLER EQ ISZERO PUSH2 0x2162 JUMP JUMPDEST POP SWAP2 SWAP1 CALLVALUE PUSH2 0x331 JUMPI PUSH1 0x20 CALLDATASIZE PUSH1 0x3 NOT ADD SLT PUSH2 0x331 JUMPI SWAP2 DUP3 PUSH1 0x20 SWAP4 CALLDATALOAD PUSH2 0x2231 DUP2 PUSH2 0x28CC JUMP JUMPDEST POP DUP3 MSTORE DUP4 MSTORE DUP2 SWAP1 KECCAK256 SLOAD SWAP1 MLOAD PUSH1 0x1 PUSH1 0x1 PUSH1 0xA0 SHL SUB SWAP1 SWAP2 AND DUP2 MSTORE RETURN JUMPDEST POP DUP3 CALLVALUE PUSH2 0x2A1 JUMPI DUP2 PUSH1 0x3 NOT CALLDATASIZE ADD SLT PUSH2 0x2A1 JUMPI DUP1 MLOAD SWAP1 DUP3 DUP1 SLOAD PUSH2 0x226C DUP2 PUSH2 0x2433 JUMP JUMPDEST DUP1 DUP6 MSTORE SWAP2 PUSH1 0x1 SWAP2 DUP1 DUP4 AND SWAP1 DUP2 ISZERO PUSH2 0x1666 JUMPI POP PUSH1 0x1 EQ PUSH2 0x2297 JUMPI POP POP POP PUSH2 0x15F8 DUP3 PUSH2 0xC79 SWAP5 SUB DUP4 PUSH2 0x2589 JUMP JUMPDEST DUP1 DUP1 SWAP7 POP MSTORE PUSH32 0x290DECD9548B62A8D60345A988386FC84BA6BC95484008F6362F93160EF3E563 JUMPDEST DUP3 DUP7 LT PUSH2 0x22DB JUMPI POP POP POP PUSH2 0x15F8 DUP3 PUSH1 0x20 PUSH2 0xC79 SWAP6 DUP3 ADD ADD SWAP5 PUSH2 0x15E6 JUMP JUMPDEST DUP1 SLOAD PUSH1 0x20 DUP8 DUP8 ADD DUP2 ADD SWAP2 SWAP1 SWAP2 MSTORE SWAP1 SWAP6 ADD SWAP5 DUP2 ADD PUSH2 0x22BE JUMP JUMPDEST POP SWAP2 SWAP1 CALLVALUE PUSH2 0x331 JUMPI PUSH1 0x20 CALLDATASIZE PUSH1 0x3 NOT ADD SLT PUSH2 0x331 JUMPI CALLDATALOAD SWAP1 PUSH4 0xFFFFFFFF PUSH1 0xE0 SHL DUP3 AND DUP1 SWAP3 SUB PUSH2 0x331 JUMPI PUSH1 0x20 SWAP3 POP PUSH4 0x80AC58CD PUSH1 0xE0 SHL DUP3 EQ SWAP2 DUP3 ISZERO PUSH2 0x2351 JUMPI JUMPDEST DUP3 ISZERO PUSH2 0x2340 JUMPI JUMPDEST POP MLOAD SWAP1 ISZERO ISZERO DUP2 MSTORE RETURN JUMPDEST PUSH4 0x1FFC9A7 PUSH1 0xE0 SHL EQ SWAP2 POP CODESIZE PUSH2 0x2337 JUMP JUMPDEST PUSH4 0x5B5E139F PUSH1 0xE0 SHL DUP2 EQ SWAP3 POP PUSH2 0x2330 JUMP JUMPDEST SWAP1 POP CALLVALUE PUSH2 0x2A1 JUMPI DUP2 PUSH1 0x3 NOT CALLDATASIZE ADD SLT PUSH2 0x2A1 JUMPI PUSH1 0x20 SWAP1 PUSH1 0x16 SLOAD DUP2 MSTORE RETURN JUMPDEST PUSH1 0x0 JUMPDEST DUP4 DUP2 LT PUSH2 0x2391 JUMPI POP POP PUSH1 0x0 SWAP2 ADD MSTORE JUMP JUMPDEST DUP2 DUP2 ADD MLOAD DUP4 DUP3 ADD MSTORE PUSH1 0x20 ADD PUSH2 0x2381 JUMP JUMPDEST SWAP1 PUSH1 0x20 SWAP2 PUSH2 0x23BA DUP2 MLOAD DUP1 SWAP3 DUP2 DUP6 MSTORE DUP6 DUP1 DUP7 ADD SWAP2 ADD PUSH2 0x237E JUMP JUMPDEST PUSH1 0x1F ADD PUSH1 0x1F NOT AND ADD ADD SWAP1 JUMP JUMPDEST PUSH1 0x4 CALLDATALOAD SWAP1 PUSH1 0x1 PUSH1 0x1 PUSH1 0xA0 SHL SUB DUP3 AND DUP3 SUB PUSH2 0x23DC JUMPI JUMP JUMPDEST PUSH1 0x0 DUP1 REVERT JUMPDEST PUSH1 0x24 CALLDATALOAD SWAP1 PUSH1 0x1 PUSH1 0x1 PUSH1 0xA0 SHL SUB DUP3 AND DUP3 SUB PUSH2 0x23DC JUMPI JUMP JUMPDEST PUSH1 0x40 SWAP1 PUSH1 0x3 NOT ADD SLT PUSH2 0x23DC JUMPI PUSH1 0x4 CALLDATALOAD SWAP1 PUSH1 0x24 CALLDATALOAD SWAP1 JUMP JUMPDEST PUSH1 0x6 DUP3 LT ISZERO PUSH2 0x241D JUMPI ADD SWAP1 PUSH1 0x0 SWAP1 JUMP JUMPDEST PUSH4 0x4E487B71 PUSH1 0xE0 SHL PUSH1 0x0 MSTORE PUSH1 0x32 PUSH1 0x4 MSTORE PUSH1 0x24 PUSH1 0x0 REVERT JUMPDEST SWAP1 PUSH1 0x1 DUP3 DUP2 SHR SWAP3 AND DUP1 ISZERO PUSH2 0x2463 JUMPI JUMPDEST PUSH1 0x20 DUP4 LT EQ PUSH2 0x244D JUMPI JUMP JUMPDEST PUSH4 0x4E487B71 PUSH1 0xE0 SHL PUSH1 0x0 MSTORE PUSH1 0x22 PUSH1 0x4 MSTORE PUSH1 0x24 PUSH1 0x0 REVERT JUMPDEST SWAP2 PUSH1 0x7F AND SWAP2 PUSH2 0x2442 JUMP JUMPDEST SWAP1 PUSH1 0x0 SWAP3 SWAP2 DUP1 SLOAD SWAP2 PUSH2 0x247E DUP4 PUSH2 0x2433 JUMP JUMPDEST SWAP2 DUP3 DUP3 MSTORE PUSH1 0x1 SWAP4 DUP5 DUP2 AND SWAP1 DUP2 PUSH1 0x0 EQ PUSH2 0x24E0 JUMPI POP PUSH1 0x1 EQ PUSH2 0x24A0 JUMPI JUMPDEST POP POP POP POP JUMP JUMPDEST SWAP1 SWAP2 SWAP4 SWAP5 POP PUSH1 0x0 MSTORE PUSH1 0x20 SWAP3 DUP4 PUSH1 0x0 KECCAK256 SWAP3 DUP5 PUSH1 0x0 SWAP5 JUMPDEST DUP4 DUP7 LT PUSH2 0x24CC JUMPI POP POP POP POP ADD ADD SWAP1 CODESIZE DUP1 DUP1 DUP1 PUSH2 0x249A JUMP JUMPDEST DUP1 SLOAD DUP6 DUP8 ADD DUP4 ADD MSTORE SWAP5 ADD SWAP4 DUP6 SWAP1 DUP3 ADD PUSH2 0x24B5 JUMP JUMPDEST SWAP3 SWAP5 POP POP POP PUSH1 0x20 SWAP4 SWAP5 POP PUSH1 0xFF NOT AND DUP4 DUP4 ADD MSTORE ISZERO ISZERO PUSH1 0x5 SHL ADD ADD SWAP1 CODESIZE DUP1 DUP1 DUP1 PUSH2 0x249A JUMP JUMPDEST PUSH1 0x40 DUP2 ADD SWAP1 DUP2 LT PUSH8 0xFFFFFFFFFFFFFFFF DUP3 GT OR PUSH2 0x251F JUMPI PUSH1 0x40 MSTORE JUMP JUMPDEST PUSH4 0x4E487B71 PUSH1 0xE0 SHL PUSH1 0x0 MSTORE PUSH1 0x41 PUSH1 0x4 MSTORE PUSH1 0x24 PUSH1 0x0 REVERT JUMPDEST PUSH1 0x60 DUP2 ADD SWAP1 DUP2 LT PUSH8 0xFFFFFFFFFFFFFFFF DUP3 GT OR PUSH2 0x251F JUMPI PUSH1 0x40 MSTORE JUMP JUMPDEST PUSH1 0xA0 DUP2 ADD SWAP1 DUP2 LT PUSH8 0xFFFFFFFFFFFFFFFF DUP3 GT OR PUSH2 0x251F JUMPI PUSH1 0x40 MSTORE JUMP JUMPDEST PUSH1 0x20 DUP2 ADD SWAP1 DUP2 LT PUSH8 0xFFFFFFFFFFFFFFFF DUP3 GT OR PUSH2 0x251F JUMPI PUSH1 0x40 MSTORE JUMP JUMPDEST SWAP1 PUSH1 0x1F DUP1 NOT SWAP2 ADD AND DUP2 ADD SWAP1 DUP2 LT PUSH8 0xFFFFFFFFFFFFFFFF DUP3 GT OR PUSH2 0x251F JUMPI PUSH1 0x40 MSTORE JUMP JUMPDEST SWAP1 PUSH2 0x25C6 JUMPI PUSH2 0x25C3 PUSH2 0x157F SWAP2 PUSH1 0x40 MLOAD SWAP3 DUP4 DUP1 SWAP3 PUSH2 0x246D JUMP JUMPDEST SWAP1 JUMP JUMPDEST PUSH4 0x4E487B71 PUSH1 0xE0 SHL PUSH1 0x0 MSTORE PUSH1 0x0 PUSH1 0x4 MSTORE PUSH1 0x24 PUSH1 0x0 REVERT JUMPDEST PUSH1 0x60 SWAP1 PUSH1 0x3 NOT ADD SLT PUSH2 0x23DC JUMPI PUSH1 0x1 PUSH1 0x1 PUSH1 0xA0 SHL SUB SWAP1 PUSH1 0x4 CALLDATALOAD DUP3 DUP2 AND DUP2 SUB PUSH2 0x23DC JUMPI SWAP2 PUSH1 0x24 CALLDATALOAD SWAP1 DUP2 AND DUP2 SUB PUSH2 0x23DC JUMPI SWAP1 PUSH1 0x44 CALLDATALOAD SWAP1 JUMP JUMPDEST DUP1 SLOAD DUP3 LT ISZERO PUSH2 0x241D JUMPI PUSH1 0x0 MSTORE PUSH1 0x3 PUSH1 0x20 PUSH1 0x0 KECCAK256 SWAP2 MUL ADD SWAP1 PUSH1 0x0 SWAP1 JUMP JUMPDEST PUSH2 0x2645 PUSH1 0x40 SWAP3 SWAP6 SWAP5 SWAP4 SWAP6 PUSH1 0x60 DUP4 MSTORE PUSH1 0x60 DUP4 ADD SWAP1 PUSH2 0x23A1 JUMP JUMPDEST SWAP5 PUSH1 0x20 DUP3 ADD MSTORE ADD MSTORE JUMP JUMPDEST PUSH1 0x0 SWAP2 JUMPDEST PUSH1 0x3 DUP4 LT PUSH2 0x2660 JUMPI POP POP POP JUMP JUMPDEST PUSH1 0x1 SWAP1 DUP3 MLOAD DUP2 MSTORE PUSH1 0x20 DUP1 SWAP2 ADD SWAP3 ADD SWAP3 ADD SWAP2 SWAP1 PUSH2 0x2653 JUMP JUMPDEST PUSH8 0xFFFFFFFFFFFFFFFF DUP2 GT PUSH2 0x251F JUMPI PUSH1 0x1F ADD PUSH1 0x1F NOT AND PUSH1 0x20 ADD SWAP1 JUMP JUMPDEST SWAP3 SWAP2 SWAP3 PUSH2 0x269F DUP3 PUSH2 0x2677 JUMP JUMPDEST SWAP2 PUSH2 0x26AD PUSH1 0x40 MLOAD SWAP4 DUP5 PUSH2 0x2589 JUMP JUMPDEST DUP3 SWAP5 DUP2 DUP5 MSTORE DUP2 DUP4 ADD GT PUSH2 0x23DC JUMPI DUP3 DUP2 PUSH1 0x20 SWAP4 DUP5 PUSH1 0x0 SWAP7 ADD CALLDATACOPY ADD ADD MSTORE JUMP JUMPDEST PUSH1 0x19 SLOAD DUP2 LT ISZERO PUSH2 0x241D JUMPI PUSH1 0x19 PUSH1 0x0 MSTORE PUSH32 0x944998273E477B495144FB8794C914197F3CCB46BE2900F4698FD0EF743C9695 ADD SWAP1 PUSH1 0x0 SWAP1 JUMP JUMPDEST PUSH1 0x6 SLOAD PUSH1 0x1 PUSH1 0x1 PUSH1 0xA0 SHL SUB AND CALLER SUB PUSH2 0x2715 JUMPI JUMP JUMPDEST PUSH1 0x40 MLOAD PUSH4 0x118CDAA7 PUSH1 0xE0 SHL DUP2 MSTORE CALLER PUSH1 0x4 DUP3 ADD MSTORE PUSH1 0x24 SWAP1 REVERT JUMPDEST PUSH1 0x1 PUSH1 0x1 PUSH1 0xA0 SHL SUB SWAP2 DUP3 AND SWAP3 SWAP1 SWAP2 DUP4 ISZERO PUSH2 0x28B3 JUMPI PUSH1 0x0 SWAP3 DUP3 DUP5 MSTORE DUP3 PUSH1 0x20 SWAP6 PUSH1 0x2 DUP8 MSTORE PUSH1 0x40 SWAP7 DUP5 DUP9 DUP9 KECCAK256 SLOAD AND SWAP7 DUP8 SWAP2 CALLER ISZERO ISZERO DUP1 PUSH2 0x281D JUMPI JUMPDEST POP SWAP1 PUSH1 0x2 PUSH32 0xDDF252AD1BE2C89B69C2B068FC378DAA952BA7F163C4A11628F55A4DF523B3EF SWAP3 DUP5 PUSH2 0x27EA JUMPI JUMPDEST DUP6 DUP4 MSTORE PUSH1 0x3 DUP2 MSTORE DUP12 DUP4 KECCAK256 DUP1 SLOAD PUSH1 0x1 ADD SWAP1 SSTORE DUP7 DUP4 MSTORE MSTORE DUP10 DUP2 KECCAK256 DUP1 SLOAD PUSH1 0x1 PUSH1 0x1 PUSH1 0xA0 SHL SUB NOT AND DUP6 OR SWAP1 SSTORE DUP1 LOG4 AND SWAP3 DUP4 DUP4 SUB PUSH2 0x27C9 JUMPI POP POP POP POP JUMP JUMPDEST PUSH1 0x64 SWAP5 POP MLOAD SWAP3 PUSH4 0x64283D7B PUSH1 0xE0 SHL DUP5 MSTORE PUSH1 0x4 DUP5 ADD MSTORE PUSH1 0x24 DUP4 ADD MSTORE PUSH1 0x44 DUP3 ADD MSTORE REVERT JUMPDEST PUSH1 0x0 DUP8 DUP2 MSTORE PUSH1 0x4 PUSH1 0x20 MSTORE PUSH1 0x40 SWAP1 KECCAK256 DUP1 SLOAD PUSH1 0x1 PUSH1 0x1 PUSH1 0xA0 SHL SUB NOT AND SWAP1 SSTORE DUP5 DUP4 MSTORE PUSH1 0x3 DUP2 MSTORE DUP12 DUP4 KECCAK256 DUP1 SLOAD PUSH1 0x0 NOT ADD SWAP1 SSTORE PUSH2 0x2790 JUMP JUMPDEST SWAP2 SWAP4 SWAP5 POP SWAP2 POP DUP1 PUSH2 0x2872 JUMPI JUMPDEST ISZERO PUSH2 0x2839 JUMPI DUP6 SWAP3 SWAP2 DUP8 SWAP2 CODESIZE PUSH2 0x2764 JUMP JUMPDEST DUP8 DUP7 DUP9 PUSH2 0x2856 JUMPI PUSH1 0x24 SWAP2 MLOAD SWAP1 PUSH4 0x7E273289 PUSH1 0xE0 SHL DUP3 MSTORE PUSH1 0x4 DUP3 ADD MSTORE REVERT JUMPDEST PUSH1 0x44 SWAP2 MLOAD SWAP1 PUSH4 0x177E802F PUSH1 0xE0 SHL DUP3 MSTORE CALLER PUSH1 0x4 DUP4 ADD MSTORE PUSH1 0x24 DUP3 ADD MSTORE REVERT JUMPDEST POP CALLER DUP8 EQ DUP1 ISZERO PUSH2 0x2897 JUMPI JUMPDEST DUP1 PUSH2 0x2829 JUMPI POP DUP6 DUP3 MSTORE PUSH1 0x4 DUP2 MSTORE CALLER DUP6 DUP10 DUP5 KECCAK256 SLOAD AND EQ PUSH2 0x2829 JUMP JUMPDEST POP DUP7 DUP3 MSTORE PUSH1 0x5 DUP2 MSTORE DUP8 DUP3 KECCAK256 CALLER DUP4 MSTORE DUP2 MSTORE PUSH1 0xFF DUP9 DUP4 KECCAK256 SLOAD AND PUSH2 0x287D JUMP JUMPDEST PUSH1 0x40 MLOAD PUSH4 0x32505749 PUSH1 0xE1 SHL DUP2 MSTORE PUSH1 0x0 PUSH1 0x4 DUP3 ADD MSTORE PUSH1 0x24 SWAP1 REVERT JUMPDEST PUSH1 0x0 DUP2 DUP2 MSTORE PUSH1 0x2 PUSH1 0x20 MSTORE PUSH1 0x40 SWAP1 KECCAK256 SLOAD PUSH1 0x1 PUSH1 0x1 PUSH1 0xA0 SHL SUB AND SWAP1 DUP2 ISZERO PUSH2 0x28EF JUMPI POP SWAP1 JUMP JUMPDEST PUSH1 0x24 SWAP1 PUSH1 0x40 MLOAD SWAP1 PUSH4 0x7E273289 PUSH1 0xE0 SHL DUP3 MSTORE PUSH1 0x4 DUP3 ADD MSTORE REVERT JUMPDEST RETURNDATASIZE ISZERO PUSH2 0x2932 JUMPI RETURNDATASIZE SWAP1 PUSH2 0x2918 DUP3 PUSH2 0x2677 JUMP JUMPDEST SWAP2 PUSH2 0x2926 PUSH1 0x40 MLOAD SWAP4 DUP5 PUSH2 0x2589 JUMP JUMPDEST DUP3 MSTORE RETURNDATASIZE PUSH1 0x0 PUSH1 0x20 DUP5 ADD RETURNDATACOPY JUMP JUMPDEST PUSH1 0x60 SWAP1 JUMP JUMPDEST SWAP3 SWAP4 DUP3 EXTCODESIZE PUSH2 0x2947 JUMPI JUMPDEST POP POP POP POP POP JUMP JUMPDEST PUSH2 0x298B SWAP1 PUSH1 0x1 DUP1 PUSH1 0xA0 SHL SUB DUP1 SWAP5 AND SWAP6 PUSH1 0x40 MLOAD SWAP5 DUP6 SWAP5 DUP2 PUSH4 0xA85BD01 PUSH1 0xE1 SHL SWAP9 DUP10 DUP9 MSTORE AND PUSH1 0x4 DUP8 ADD MSTORE AND PUSH1 0x24 DUP6 ADD MSTORE PUSH1 0x44 DUP5 ADD MSTORE PUSH1 0x80 PUSH1 0x64 DUP5 ADD MSTORE PUSH1 0x84 DUP4 ADD SWAP1 PUSH2 0x23A1 JUMP JUMPDEST SUB SWAP1 PUSH1 0x20 DUP2 PUSH1 0x0 SWAP4 DUP2 DUP6 DUP9 GAS CALL SWAP1 DUP3 SWAP1 DUP3 PUSH2 0x2A0B JUMPI JUMPDEST POP POP PUSH2 0x29D9 JUMPI DUP3 PUSH2 0x29B0 PUSH2 0x2907 JUMP JUMPDEST DUP1 MLOAD SWAP2 SWAP1 DUP3 PUSH2 0x29D2 JUMPI PUSH1 0x40 MLOAD PUSH4 0x32505749 PUSH1 0xE1 SHL DUP2 MSTORE PUSH1 0x4 DUP2 ADD DUP4 SWAP1 MSTORE PUSH1 0x24 SWAP1 REVERT JUMPDEST PUSH1 0x20 SWAP2 POP ADD REVERT JUMPDEST PUSH1 0x1 PUSH1 0x1 PUSH1 0xE0 SHL SUB NOT AND SUB PUSH2 0x29F3 JUMPI POP CODESIZE DUP1 DUP1 DUP1 DUP1 PUSH2 0x2940 JUMP JUMPDEST PUSH1 0x24 SWAP1 PUSH1 0x40 MLOAD SWAP1 PUSH4 0x32505749 PUSH1 0xE1 SHL DUP3 MSTORE PUSH1 0x4 DUP3 ADD MSTORE REVERT JUMPDEST SWAP1 SWAP2 SWAP3 POP PUSH1 0x20 DUP2 RETURNDATASIZE DUP3 GT PUSH2 0x2A4B JUMPI JUMPDEST DUP2 PUSH2 0x2A27 PUSH1 0x20 SWAP4 DUP4 PUSH2 0x2589 JUMP JUMPDEST DUP2 ADD SUB SLT PUSH2 0x2A1 JUMPI MLOAD SWAP1 PUSH1 0x1 PUSH1 0x1 PUSH1 0xE0 SHL SUB NOT DUP3 AND DUP3 SUB PUSH2 0x282 JUMPI POP SWAP1 CODESIZE DUP1 PUSH2 0x29A1 JUMP JUMPDEST RETURNDATASIZE SWAP2 POP PUSH2 0x2A1A JUMP JUMPDEST SWAP2 SWAP1 DUP3 ADD DUP1 SWAP3 GT PUSH2 0x2A60 JUMPI JUMP JUMPDEST PUSH4 0x4E487B71 PUSH1 0xE0 SHL PUSH1 0x0 MSTORE PUSH1 0x11 PUSH1 0x4 MSTORE PUSH1 0x24 PUSH1 0x0 REVERT JUMPDEST SWAP1 PUSH8 0xDE0B6B3A7640000 SWAP2 DUP3 DUP2 MUL SWAP3 DUP2 DUP5 DIV EQ SWAP1 ISZERO OR ISZERO PUSH2 0x2A60 JUMPI JUMP JUMPDEST DUP2 DUP2 MUL SWAP3 SWAP2 DUP2 ISZERO SWAP2 DUP5 DIV EQ OR ISZERO PUSH2 0x2A60 JUMPI JUMP JUMPDEST PUSH1 0x2 PUSH1 0x7 SLOAD EQ PUSH2 0x2AB7 JUMPI PUSH1 0x2 PUSH1 0x7 SSTORE JUMP JUMPDEST PUSH1 0x40 MLOAD PUSH4 0x3EE5AEB5 PUSH1 0xE0 SHL DUP2 MSTORE PUSH1 0x4 SWAP1 REVERT JUMPDEST SWAP2 SWAP1 DUP3 SUB SWAP2 DUP3 GT PUSH2 0x2A60 JUMPI JUMP JUMPDEST DUP1 ISZERO PUSH2 0x2AF0 JUMPI PUSH15 0xC097CE7BC90715B34B9F1000000000 DIV SWAP1 JUMP JUMPDEST PUSH4 0x4E487B71 PUSH1 0xE0 SHL PUSH1 0x0 MSTORE PUSH1 0x12 PUSH1 0x4 MSTORE PUSH1 0x24 PUSH1 0x0 REVERT JUMPDEST DUP2 ISZERO PUSH2 0x2AF0 JUMPI DIV SWAP1 JUMP JUMPDEST PUSH1 0x19 DUP2 GT ISZERO PUSH2 0x2B91 JUMPI PUSH1 0x18 NOT DUP2 ADD SWAP1 DUP2 GT PUSH2 0x2A60 JUMPI DUP1 ISZERO PUSH2 0x2B85 JUMPI PUSH2 0x3CE DUP1 DUP3 LT ISZERO PUSH2 0x2B76 JUMPI PUSH8 0x867D5927A64F8000 DUP1 DUP4 MUL SWAP3 DUP4 SDIV SUB PUSH2 0x2A60 JUMPI PUSH2 0x2B54 SWAP2 SDIV PUSH2 0x2BB7 JUMP JUMPDEST PUSH7 0x15F4AD60B64000 SWAP1 DUP1 DUP3 MUL SWAP2 DUP3 DIV SUB PUSH2 0x2A60 JUMPI PUSH8 0xDE0B6B3A7640000 SWAP1 DIV SWAP1 JUMP JUMPDEST POP POP PUSH9 0x56BC75E2D63100000 SWAP1 JUMP JUMPDEST POP PUSH7 0x15F4AD60B64000 SWAP1 JUMP JUMPDEST POP PUSH1 0x0 SWAP1 JUMP JUMPDEST PUSH1 0x1 PUSH1 0xFF SHL DUP2 EQ PUSH2 0x2A60 JUMPI PUSH1 0x0 SUB SWAP1 JUMP JUMPDEST PUSH1 0x0 NOT DUP2 EQ PUSH2 0x2A60 JUMPI PUSH1 0x1 ADD SWAP1 JUMP JUMPDEST PUSH9 0x755BF798B4A1BF1E5 DUP2 SLT ISZERO PUSH2 0x2C50 JUMPI PUSH1 0x0 DUP2 SLT PUSH2 0x2C36 JUMPI PUSH8 0xDE0B6B3A7640000 SWAP1 PUSH1 0x1 SWAP1 DUP3 JUMPDEST PUSH1 0x14 DUP4 GT ISZERO PUSH2 0x2BEF JUMPI JUMPDEST POP POP POP SWAP1 JUMP JUMPDEST PUSH2 0x2C0E PUSH2 0x2BFF DUP4 PUSH2 0x2C15 SWAP4 PUSH2 0x2A93 JUMP JUMPDEST PUSH2 0x2C08 DUP6 PUSH2 0x2A76 JUMP JUMPDEST SWAP1 PUSH2 0x2B06 JUMP JUMPDEST DUP1 SWAP5 PUSH2 0x2A53 JUMP JUMPDEST SWAP2 PUSH1 0x64 DUP5 LT PUSH2 0x2C2E JUMPI PUSH2 0x2C27 SWAP1 PUSH2 0x2BA8 JUMP JUMPDEST SWAP2 SWAP3 PUSH2 0x2BDF JUMP JUMPDEST DUP3 SWAP4 POP PUSH2 0x2BE9 JUMP JUMPDEST PUSH2 0x2C42 PUSH2 0x2C47 SWAP2 PUSH2 0x2B97 JUMP JUMPDEST PUSH2 0x2BB7 JUMP JUMPDEST PUSH2 0x25C3 SWAP1 PUSH2 0x2AD6 JUMP JUMPDEST PUSH1 0x40 MLOAD PUSH3 0x461BCD PUSH1 0xE5 SHL DUP2 MSTORE PUSH1 0x20 PUSH1 0x4 DUP3 ADD MSTORE PUSH1 0xC PUSH1 0x24 DUP3 ADD MSTORE PUSH12 0x657870206F766572666C6F77 PUSH1 0xA0 SHL PUSH1 0x44 DUP3 ADD MSTORE PUSH1 0x64 SWAP1 REVERT JUMPDEST PUSH1 0x40 DUP1 MLOAD SWAP3 PUSH2 0x2C92 DUP5 PUSH2 0x256D JUMP JUMPDEST PUSH1 0x0 DUP1 DUP6 MSTORE PUSH1 0x1 PUSH1 0x1 PUSH1 0xA0 SHL SUB SWAP5 DUP5 DUP7 AND SWAP5 DUP6 ISZERO PUSH2 0x2E71 JUMPI DUP4 DUP4 MSTORE PUSH1 0x20 SWAP7 PUSH1 0x2 DUP9 MSTORE DUP6 DUP5 KECCAK256 SLOAD AND DUP5 DUP8 DUP3 ISZERO ISZERO SWAP3 DUP4 PUSH2 0x2E3E JUMPI JUMPDEST DUP2 DUP8 MSTORE PUSH1 0x3 DUP12 MSTORE DUP9 DUP8 KECCAK256 DUP1 SLOAD PUSH1 0x1 ADD SWAP1 SSTORE DUP3 DUP8 MSTORE PUSH1 0x2 DUP12 MSTORE DUP9 DUP8 KECCAK256 DUP1 SLOAD PUSH1 0x1 PUSH1 0x1 PUSH1 0xA0 SHL SUB NOT AND DUP4 OR SWAP1 SSTORE PUSH32 0xDDF252AD1BE2C89B69C2B068FC378DAA952BA7F163C4A11628F55A4DF523B3EF DUP8 DUP1 LOG4 PUSH2 0x2E26 JUMPI EXTCODESIZE PUSH2 0x2D26 JUMPI JUMPDEST POP POP POP POP POP POP JUMP JUMPDEST DUP6 PUSH2 0x2D63 SWAP2 DUP6 SWAP7 SWAP8 SWAP9 SWAP6 MLOAD DUP1 SWAP4 DUP2 SWAP3 PUSH4 0xA85BD01 PUSH1 0xE1 SHL SWAP8 DUP9 DUP5 MSTORE CALLER PUSH1 0x4 DUP6 ADD MSTORE DUP8 PUSH1 0x24 DUP6 ADD MSTORE PUSH1 0x44 DUP5 ADD MSTORE PUSH1 0x80 PUSH1 0x64 DUP5 ADD MSTORE PUSH1 0x84 DUP4 ADD SWAP1 PUSH2 0x23A1 JUMP JUMPDEST SUB DUP2 DUP6 DUP11 GAS CALL SWAP1 DUP3 SWAP1 DUP3 PUSH2 0x2DE2 JUMPI JUMPDEST POP POP PUSH2 0x2DAA JUMPI POP POP POP PUSH2 0x2D83 PUSH2 0x2907 JUMP JUMPDEST DUP1 MLOAD SWAP4 SWAP1 DUP5 PUSH2 0x2DA4 JUMPI DUP3 MLOAD PUSH4 0x32505749 PUSH1 0xE1 SHL DUP2 MSTORE PUSH1 0x4 DUP2 ADD DUP6 SWAP1 MSTORE PUSH1 0x24 SWAP1 REVERT JUMPDEST DUP5 SWAP3 POP ADD REVERT JUMPDEST SWAP2 SWAP5 POP PUSH1 0x1 PUSH1 0x1 PUSH1 0xE0 SHL SUB NOT SWAP1 SWAP2 AND SUB PUSH2 0x2DCB JUMPI POP POP CODESIZE DUP1 DUP1 DUP1 DUP1 DUP1 PUSH2 0x2D1E JUMP JUMPDEST PUSH1 0x24 SWAP3 POP MLOAD SWAP1 PUSH4 0x32505749 PUSH1 0xE1 SHL DUP3 MSTORE PUSH1 0x4 DUP3 ADD MSTORE REVERT JUMPDEST SWAP1 SWAP2 SWAP3 POP DUP8 DUP2 DUP2 RETURNDATASIZE DUP4 GT PUSH2 0x2E1F JUMPI JUMPDEST PUSH2 0x2DFB DUP2 DUP4 PUSH2 0x2589 JUMP JUMPDEST DUP2 ADD SUB SLT PUSH2 0x2A1 JUMPI MLOAD SWAP1 PUSH1 0x1 PUSH1 0x1 PUSH1 0xE0 SHL SUB NOT DUP3 AND DUP3 SUB PUSH2 0x282 JUMPI POP SWAP1 CODESIZE DUP1 PUSH2 0x2D72 JUMP JUMPDEST POP RETURNDATASIZE PUSH2 0x2DF1 JUMP JUMPDEST DUP5 MLOAD PUSH4 0x39E35637 PUSH1 0xE1 SHL DUP2 MSTORE PUSH1 0x4 DUP2 ADD DUP5 SWAP1 MSTORE PUSH1 0x24 SWAP1 REVERT JUMPDEST PUSH1 0x0 DUP4 DUP2 MSTORE PUSH1 0x4 PUSH1 0x20 MSTORE PUSH1 0x40 SWAP1 KECCAK256 DUP1 SLOAD PUSH1 0x1 PUSH1 0x1 PUSH1 0xA0 SHL SUB NOT AND SWAP1 SSTORE DUP1 DUP8 MSTORE PUSH1 0x3 DUP12 MSTORE DUP9 DUP8 KECCAK256 DUP1 SLOAD PUSH1 0x0 NOT ADD SWAP1 SSTORE PUSH2 0x2CC5 JUMP JUMPDEST DUP5 MLOAD PUSH4 0x32505749 PUSH1 0xE1 SHL DUP2 MSTORE PUSH1 0x4 DUP2 ADD DUP5 SWAP1 MSTORE PUSH1 0x24 SWAP1 REVERT JUMPDEST SWAP1 PUSH1 0x6 DUP2 LT ISZERO PUSH2 0x241D JUMPI PUSH1 0x5 SHL DUP2 ADD CALLDATALOAD SWAP1 PUSH1 0x1E NOT DUP2 CALLDATASIZE SUB ADD DUP3 SLT ISZERO PUSH2 0x23DC JUMPI ADD SWAP1 DUP2 CALLDATALOAD SWAP2 PUSH8 0xFFFFFFFFFFFFFFFF DUP4 GT PUSH2 0x23DC JUMPI PUSH1 0x20 ADD DUP3 CALLDATASIZE SUB DUP2 SGT PUSH2 0x23DC JUMPI SWAP2 SWAP1 JUMP JUMPDEST SWAP1 PUSH1 0x1F DUP2 GT PUSH2 0x2EDA JUMPI POP POP POP JUMP JUMPDEST PUSH1 0x0 SWAP2 DUP3 MSTORE PUSH1 0x20 DUP3 KECCAK256 SWAP1 PUSH1 0x20 PUSH1 0x1F DUP6 ADD PUSH1 0x5 SHR DUP4 ADD SWAP5 LT PUSH2 0x2F16 JUMPI JUMPDEST PUSH1 0x1F ADD PUSH1 0x5 SHR ADD SWAP2 JUMPDEST DUP3 DUP2 LT PUSH2 0x2F0B JUMPI POP POP POP JUMP JUMPDEST DUP2 DUP2 SSTORE PUSH1 0x1 ADD PUSH2 0x2EFF JUMP JUMPDEST SWAP1 SWAP3 POP DUP3 SWAP1 PUSH2 0x2EF6 JUMP JUMPDEST ISZERO PUSH2 0x2F27 JUMPI JUMP JUMPDEST PUSH1 0x40 MLOAD PUSH3 0x461BCD PUSH1 0xE5 SHL DUP2 MSTORE PUSH1 0x20 PUSH1 0x4 DUP3 ADD MSTORE PUSH1 0x14 PUSH1 0x24 DUP3 ADD MSTORE PUSH20 0x151BDAD95B88191BD95CC81B9BDD08195E1A5CDD PUSH1 0x62 SHL PUSH1 0x44 DUP3 ADD MSTORE PUSH1 0x64 SWAP1 REVERT JUMPDEST PUSH1 0x0 DUP2 DUP2 MSTORE PUSH1 0x2 PUSH1 0x20 MSTORE PUSH1 0x40 DUP2 KECCAK256 SLOAD SWAP1 SWAP2 SWAP1 PUSH2 0x2F89 SWAP1 PUSH1 0x1 PUSH1 0x1 PUSH1 0xA0 SHL SUB AND ISZERO ISZERO PUSH2 0x2F20 JUMP JUMPDEST DUP1 DUP3 MSTORE PUSH1 0x10 PUSH1 0x20 MSTORE PUSH1 0x40 DUP3 KECCAK256 SWAP1 PUSH1 0x20 PUSH1 0x40 MLOAD PUSH2 0x2FA4 DUP2 PUSH2 0x2503 JUMP JUMPDEST DUP4 SLOAD DUP2 MSTORE PUSH1 0x1 DUP1 SWAP5 ADD SLOAD SWAP2 DUP3 SWAP2 ADD MSTORE PUSH3 0x15180 SWAP1 DUP2 DUP1 TIMESTAMP DIV SWAP2 DIV DUP2 EQ PUSH2 0x3031 JUMPI PUSH1 0x15 SLOAD SWAP2 DUP3 ISZERO ISZERO SWAP3 DUP4 PUSH2 0x3025 JUMPI JUMPDEST POP POP POP PUSH2 0x301F JUMPI PUSH1 0xC SWAP1 MOD DUP2 DUP2 ADD DUP1 SWAP2 GT PUSH2 0x300B JUMPI PUSH2 0x2FF1 SWAP1 TIMESTAMP PUSH2 0x3428 JUMP JUMPDEST PUSH2 0x3006 JUMPI PUSH2 0x2FFE TIMESTAMP PUSH2 0x36FC JUMP JUMPDEST PUSH2 0x3006 JUMPI POP SWAP1 JUMP JUMPDEST SWAP1 POP SWAP1 JUMP JUMPDEST PUSH4 0x4E487B71 PUSH1 0xE0 SHL DUP4 MSTORE PUSH1 0x11 PUSH1 0x4 MSTORE PUSH1 0x24 DUP4 REVERT JUMPDEST POP SWAP1 POP SWAP1 JUMP JUMPDEST DIV EQ SWAP1 POP CODESIZE DUP1 DUP1 PUSH2 0x2FD2 JUMP JUMPDEST POP POP POP SWAP1 POP SWAP1 JUMP JUMPDEST PUSH8 0xFFFFFFFFFFFFFFFF DUP2 GT PUSH2 0x251F JUMPI PUSH1 0x5 SHL PUSH1 0x20 ADD SWAP1 JUMP JUMPDEST SWAP1 PUSH2 0x305B DUP3 PUSH2 0x2677 JUMP JUMPDEST PUSH2 0x3068 PUSH1 0x40 MLOAD SWAP2 DUP3 PUSH2 0x2589 JUMP JUMPDEST DUP3 DUP2 MSTORE DUP1 SWAP3 PUSH2 0x3079 PUSH1 0x1F NOT SWAP2 PUSH2 0x2677 JUMP JUMPDEST ADD SWAP1 PUSH1 0x20 CALLDATASIZE SWAP2 ADD CALLDATACOPY JUMP JUMPDEST DUP1 MLOAD ISZERO PUSH2 0x3166 JUMPI DUP1 MLOAD PUSH1 0x2 SWAP2 DUP3 DUP3 ADD DUP1 SWAP3 GT PUSH2 0x2A60 JUMPI PUSH1 0x3 SWAP2 DUP3 SWAP1 DIV PUSH1 0x1 PUSH1 0x1 PUSH1 0xFE SHL SUB DUP2 AND DUP2 SUB PUSH2 0x2A60 JUMPI PUSH2 0x30BC SWAP1 DUP5 SWAP6 SWAP5 SHL PUSH2 0x3051 JUMP JUMPDEST SWAP4 PUSH1 0x20 DUP6 ADD SWAP4 DUP3 SWAP2 DUP4 MLOAD DUP5 ADD SWAP1 PUSH1 0x20 DUP3 ADD SWAP3 DUP4 MLOAD SWAP5 PUSH1 0x0 DUP6 MSTORE JUMPDEST DUP4 DUP2 LT PUSH2 0x3115 JUMPI POP POP POP POP MSTORE MLOAD MOD DUP1 PUSH1 0x1 EQ PUSH2 0x3102 JUMPI PUSH1 0x2 EQ PUSH2 0x30F7 JUMPI POP SWAP1 JUMP JUMPDEST PUSH1 0x3D SWAP1 PUSH1 0x0 NOT ADD MSTORE8 SWAP1 JUMP JUMPDEST POP PUSH1 0x3D SWAP1 DUP2 PUSH1 0x0 NOT DUP3 ADD MSTORE8 PUSH1 0x1 NOT ADD MSTORE8 SWAP1 JUMP JUMPDEST DUP8 PUSH1 0x4 SWAP2 SWAP10 SWAP3 SWAP4 SWAP5 SWAP10 ADD SWAP2 DUP3 MLOAD PUSH1 0x1 SWAP1 PUSH1 0x3F SWAP1 DUP3 DUP3 DUP3 PUSH1 0x12 SHR AND DUP9 ADD ADD MLOAD DUP5 MSTORE8 DUP3 DUP3 DUP3 PUSH1 0xC SHR AND DUP9 ADD ADD MLOAD DUP4 DUP6 ADD MSTORE8 DUP3 DUP3 DUP3 PUSH1 0x6 SHR AND DUP9 ADD ADD MLOAD DUP9 DUP6 ADD MSTORE8 AND DUP6 ADD ADD MLOAD DUP10 DUP3 ADD MSTORE8 ADD SWAP8 SWAP3 SWAP2 SWAP1 PUSH2 0x30D6 JUMP JUMPDEST POP POP PUSH1 0x40 MLOAD PUSH2 0x3174 DUP2 PUSH2 0x256D JUMP JUMPDEST PUSH1 0x0 DUP2 MSTORE SWAP1 JUMP JUMPDEST DUP1 PUSH1 0x0 SWAP2 PUSH27 0x184F03E93FF9F4DAA797ED6E38ED64BF6A1F010000000000000000 DUP1 DUP3 LT ISZERO PUSH2 0x32B0 JUMPI JUMPDEST POP PUSH14 0x4EE2D6D415B85ACEF8100000000 DUP1 DUP4 LT ISZERO PUSH2 0x32A1 JUMPI JUMPDEST POP PUSH7 0x2386F26FC10000 DUP1 DUP4 LT ISZERO PUSH2 0x3292 JUMPI JUMPDEST POP PUSH4 0x5F5E100 DUP1 DUP4 LT ISZERO PUSH2 0x3283 JUMPI JUMPDEST POP PUSH2 0x2710 DUP1 DUP4 LT ISZERO PUSH2 0x3274 JUMPI JUMPDEST POP PUSH1 0x64 DUP3 LT ISZERO PUSH2 0x3264 JUMPI JUMPDEST PUSH1 0xA DUP1 SWAP3 LT ISZERO PUSH2 0x325A JUMPI JUMPDEST PUSH1 0x1 SWAP1 DUP2 PUSH1 0x21 PUSH2 0x3212 DUP3 DUP8 ADD PUSH2 0x3051 JUMP JUMPDEST SWAP6 DUP7 ADD ADD SWAP1 JUMPDEST PUSH2 0x3224 JUMPI JUMPDEST POP POP POP POP SWAP1 JUMP JUMPDEST PUSH1 0x0 NOT ADD SWAP1 DUP4 SWAP1 PUSH16 0x181899199A1A9B1B9C1CB0B131B232B3 PUSH1 0x81 SHL DUP3 DUP3 MOD BYTE DUP4 MSTORE8 DIV SWAP2 DUP3 ISZERO PUSH2 0x3255 JUMPI SWAP2 SWAP1 DUP3 PUSH2 0x3218 JUMP JUMPDEST PUSH2 0x321D JUMP JUMPDEST SWAP2 PUSH1 0x1 ADD SWAP2 PUSH2 0x3201 JUMP JUMPDEST SWAP2 SWAP1 PUSH1 0x64 PUSH1 0x2 SWAP2 DIV SWAP2 ADD SWAP2 PUSH2 0x31F6 JUMP JUMPDEST PUSH1 0x4 SWAP2 SWAP4 SWAP3 DIV SWAP2 ADD SWAP2 CODESIZE PUSH2 0x31EB JUMP JUMPDEST PUSH1 0x8 SWAP2 SWAP4 SWAP3 DIV SWAP2 ADD SWAP2 CODESIZE PUSH2 0x31DE JUMP JUMPDEST PUSH1 0x10 SWAP2 SWAP4 SWAP3 DIV SWAP2 ADD SWAP2 CODESIZE PUSH2 0x31CF JUMP JUMPDEST PUSH1 0x20 SWAP2 SWAP4 SWAP3 DIV SWAP2 ADD SWAP2 CODESIZE PUSH2 0x31BD JUMP JUMPDEST PUSH1 0x40 SWAP4 POP DUP2 DIV SWAP2 POP CODESIZE PUSH2 0x31A4 JUMP JUMPDEST DUP1 MLOAD SWAP1 PUSH1 0x7 SWAP2 DUP3 DUP2 SUB PUSH2 0x33C4 JUMPI ISZERO PUSH2 0x241D JUMPI PUSH1 0x20 DUP2 DUP2 ADD MLOAD PUSH1 0x1 PUSH1 0x1 PUSH1 0xF8 SHL SUB NOT SWAP3 SWAP1 DUP4 AND PUSH1 0xDD PUSH1 0xF8 SHL ADD PUSH2 0x33BB JUMPI PUSH1 0x1 JUMPDEST DUP5 DUP2 LT PUSH2 0x3301 JUMPI POP POP POP POP POP PUSH1 0x1 SWAP1 JUMP JUMPDEST DUP2 MLOAD DUP2 LT ISZERO PUSH2 0x33A6 JUMPI DUP4 DUP4 DUP3 DUP5 ADD ADD MLOAD AND PUSH1 0x3 PUSH1 0xFC SHL DUP2 LT ISZERO SWAP1 DUP2 PUSH2 0x3397 JUMPI JUMPDEST DUP2 ISZERO PUSH2 0x3373 JUMPI JUMPDEST DUP2 ISZERO PUSH2 0x334D JUMPI JUMPDEST POP ISZERO PUSH2 0x3343 JUMPI PUSH2 0x333E SWAP1 PUSH2 0x2BA8 JUMP JUMPDEST PUSH2 0x32F0 JUMP JUMPDEST POP POP POP POP POP PUSH1 0x0 SWAP1 JUMP JUMPDEST PUSH1 0x41 PUSH1 0xF8 SHL DUP2 LT ISZERO SWAP2 POP DUP2 PUSH2 0x3364 JUMPI JUMPDEST POP CODESIZE PUSH2 0x332F JUMP JUMPDEST PUSH1 0x23 PUSH1 0xF9 SHL LT ISZERO SWAP1 POP CODESIZE PUSH2 0x335D JUMP JUMPDEST SWAP1 POP PUSH1 0x61 PUSH1 0xF8 SHL DUP2 LT ISZERO DUP1 PUSH2 0x3389 JUMPI JUMPDEST SWAP1 PUSH2 0x3328 JUMP JUMPDEST POP PUSH1 0x33 PUSH1 0xF9 SHL DUP2 GT ISZERO PUSH2 0x3383 JUMP JUMPDEST PUSH1 0x39 PUSH1 0xF8 SHL DUP2 GT ISZERO SWAP2 POP PUSH2 0x3321 JUMP JUMPDEST PUSH1 0x24 PUSH1 0x0 PUSH4 0x4E487B71 PUSH1 0xE0 SHL DUP2 MSTORE PUSH1 0x32 PUSH1 0x4 MSTORE REVERT JUMPDEST POP POP POP POP PUSH1 0x0 SWAP1 JUMP JUMPDEST POP POP POP PUSH1 0x0 SWAP1 JUMP JUMPDEST PUSH1 0x19 SLOAD SWAP1 PUSH1 0x0 JUMPDEST DUP3 DUP2 LT PUSH2 0x33E2 JUMPI POP POP POP PUSH1 0x0 SWAP1 JUMP JUMPDEST PUSH2 0x157F PUSH2 0x33FE PUSH2 0x33F1 DUP4 PUSH2 0x26CA JUMP JUMPDEST POP PUSH1 0x40 MLOAD SWAP3 DUP4 DUP1 SWAP3 PUSH2 0x246D JUMP JUMPDEST DUP1 MLOAD PUSH1 0x20 DUP1 SWAP3 ADD KECCAK256 SWAP1 DUP4 MLOAD SWAP1 DUP5 ADD KECCAK256 EQ PUSH2 0x3420 JUMPI PUSH2 0x341B SWAP1 PUSH2 0x2BA8 JUMP JUMPDEST PUSH2 0x33D3 JUMP JUMPDEST POP POP POP PUSH1 0x1 SWAP1 JUMP JUMPDEST PUSH2 0x3431 SWAP1 PUSH2 0x34FF JUMP JUMPDEST SWAP1 PUSH1 0x20 DUP3 ADD MLOAD PUSH1 0x3 DUP2 EQ DUP1 PUSH2 0x34F1 JUMPI JUMPDEST DUP1 PUSH2 0x34DD JUMPI JUMPDEST PUSH2 0x3420 JUMPI PUSH1 0x6 DUP2 EQ DUP1 PUSH2 0x34CF JUMPI JUMPDEST DUP1 PUSH2 0x34C5 JUMPI JUMPDEST PUSH2 0x3420 JUMPI PUSH1 0x9 DUP2 EQ DUP1 PUSH2 0x34B7 JUMPI JUMPDEST DUP1 PUSH2 0x34AD JUMPI JUMPDEST PUSH2 0x3420 JUMPI PUSH1 0xC EQ SWAP2 DUP3 PUSH2 0x349E JUMPI JUMPDEST POP DUP2 PUSH2 0x3493 JUMPI JUMPDEST POP PUSH2 0x348E JUMPI PUSH1 0x0 SWAP1 JUMP JUMPDEST PUSH1 0x1 SWAP1 JUMP JUMPDEST PUSH1 0x4 SWAP2 POP EQ CODESIZE PUSH2 0x3484 JUMP JUMPDEST PUSH1 0x40 ADD MLOAD PUSH1 0x1F EQ SWAP2 POP CODESIZE PUSH2 0x347D JUMP JUMPDEST POP PUSH1 0x3 DUP3 EQ PUSH2 0x346F JUMP JUMPDEST POP PUSH1 0x1E PUSH1 0x40 DUP5 ADD MLOAD EQ PUSH2 0x3469 JUMP JUMPDEST POP PUSH1 0x2 DUP3 EQ PUSH2 0x345B JUMP JUMPDEST POP PUSH1 0x1E PUSH1 0x40 DUP5 ADD MLOAD EQ PUSH2 0x3455 JUMP JUMPDEST POP PUSH1 0x1 DUP3 EQ DUP1 PUSH2 0x3447 JUMPI POP PUSH1 0x5 DUP3 EQ PUSH2 0x3447 JUMP JUMPDEST POP PUSH1 0x1F PUSH1 0x40 DUP5 ADD MLOAD EQ PUSH2 0x3441 JUMP JUMPDEST SWAP1 PUSH3 0x15180 PUSH1 0x40 SWAP3 DUP4 MLOAD PUSH2 0x3512 DUP2 PUSH2 0x2535 JUMP JUMPDEST PUSH1 0x0 SWAP5 DUP2 DUP7 DUP1 SWAP4 MSTORE DUP3 PUSH1 0x20 DUP3 ADD MSTORE ADD MSTORE DIV PUSH2 0x7B2 SWAP1 JUMPDEST PUSH2 0x3531 DUP3 PUSH2 0x35F7 JUMP JUMPDEST ISZERO PUSH2 0x35EC JUMPI PUSH2 0xFFFF PUSH2 0x16E JUMPDEST AND SWAP1 DUP2 DUP2 LT PUSH2 0x355F JUMPI PUSH2 0x3559 SWAP2 PUSH2 0x3553 SWAP2 PUSH2 0x2AC9 JUMP JUMPDEST SWAP2 PUSH2 0x2BA8 JUMP JUMPDEST SWAP1 PUSH2 0x3528 JUMP JUMPDEST SWAP3 SWAP4 SWAP2 SWAP3 PUSH1 0x1 SWAP2 POP DUP3 SWAP1 DUP3 SWAP1 JUMPDEST PUSH1 0xC DUP5 GT ISZERO PUSH2 0x3595 JUMPI JUMPDEST POP POP POP PUSH1 0x40 MLOAD SWAP3 PUSH2 0x3586 DUP5 PUSH2 0x2535 JUMP JUMPDEST DUP4 MSTORE PUSH1 0x20 DUP4 ADD MSTORE PUSH1 0x40 DUP3 ADD MSTORE SWAP1 JUMP JUMPDEST PUSH2 0x35A2 DUP7 DUP6 SWAP4 SWAP5 SWAP6 PUSH2 0x3620 JUMP JUMPDEST SWAP1 DUP2 DUP2 LT PUSH2 0x35BF JUMPI PUSH2 0x35B7 SWAP2 PUSH2 0x3553 SWAP2 PUSH2 0x2AC9 JUMP JUMPDEST SWAP3 SWAP2 SWAP1 PUSH2 0x356C JUMP JUMPDEST SWAP4 SWAP3 SWAP2 SWAP5 POP POP DUP3 ADD DUP1 SWAP3 GT PUSH2 0x35D8 JUMPI POP SWAP1 CODESIZE DUP1 DUP1 PUSH2 0x3576 JUMP JUMPDEST PUSH4 0x4E487B71 PUSH1 0xE0 SHL DUP2 MSTORE PUSH1 0x11 PUSH1 0x4 MSTORE PUSH1 0x24 SWAP1 REVERT JUMPDEST PUSH2 0xFFFF PUSH2 0x16D PUSH2 0x353D JUMP JUMPDEST PUSH1 0x3 DUP2 AND PUSH2 0x2B91 JUMPI PUSH1 0x64 DUP2 MOD PUSH2 0x361A JUMPI PUSH2 0x190 SWAP1 MOD PUSH2 0x3615 JUMPI PUSH1 0x1 SWAP1 JUMP JUMPDEST PUSH1 0x0 SWAP1 JUMP JUMPDEST POP PUSH1 0x1 SWAP1 JUMP JUMPDEST PUSH1 0x1 DUP2 EQ DUP1 ISZERO PUSH2 0x36F2 JUMPI JUMPDEST DUP1 ISZERO PUSH2 0x36E8 JUMPI JUMPDEST DUP1 ISZERO PUSH2 0x36DE JUMPI JUMPDEST DUP1 ISZERO PUSH2 0x36D4 JUMPI JUMPDEST DUP1 ISZERO PUSH2 0x36CA JUMPI JUMPDEST DUP1 ISZERO PUSH2 0x36C0 JUMPI JUMPDEST PUSH2 0x36B9 JUMPI PUSH1 0x4 DUP2 EQ DUP1 ISZERO PUSH2 0x36AF JUMPI JUMPDEST DUP1 ISZERO PUSH2 0x36A5 JUMPI JUMPDEST DUP1 ISZERO PUSH2 0x369B JUMPI JUMPDEST PUSH2 0x3694 JUMPI PUSH1 0x2 EQ PUSH2 0x367C JUMPI POP PUSH1 0x0 SWAP1 JUMP JUMPDEST PUSH2 0x3685 SWAP1 PUSH2 0x35F7 JUMP JUMPDEST ISZERO PUSH2 0x368F JUMPI PUSH1 0x1D SWAP1 JUMP JUMPDEST PUSH1 0x1C SWAP1 JUMP JUMPDEST POP POP PUSH1 0x1E SWAP1 JUMP JUMPDEST POP PUSH1 0xB DUP2 EQ PUSH2 0x366B JUMP JUMPDEST POP PUSH1 0x9 DUP2 EQ PUSH2 0x3664 JUMP JUMPDEST POP PUSH1 0x6 DUP2 EQ PUSH2 0x365D JUMP JUMPDEST POP POP PUSH1 0x1F SWAP1 JUMP JUMPDEST POP PUSH1 0xC DUP2 EQ PUSH2 0x364E JUMP JUMPDEST POP PUSH1 0xA DUP2 EQ PUSH2 0x3647 JUMP JUMPDEST POP PUSH1 0x8 DUP2 EQ PUSH2 0x3640 JUMP JUMPDEST POP PUSH1 0x7 DUP2 EQ PUSH2 0x3639 JUMP JUMPDEST POP PUSH1 0x5 DUP2 EQ PUSH2 0x3632 JUMP JUMPDEST POP PUSH1 0x3 DUP2 EQ PUSH2 0x362B JUMP JUMPDEST PUSH2 0x3705 SWAP1 PUSH2 0x34FF JUMP JUMPDEST PUSH1 0x20 DUP2 ADD MLOAD PUSH1 0x3 DUP2 EQ DUP1 PUSH2 0x37D2 JUMPI JUMPDEST DUP1 PUSH2 0x37C3 JUMPI JUMPDEST PUSH2 0x3780 JUMPI PUSH1 0x6 DUP2 EQ DUP1 PUSH2 0x37B4 JUMPI JUMPDEST DUP1 PUSH2 0x37A5 JUMPI JUMPDEST PUSH2 0x3780 JUMPI PUSH1 0x9 DUP2 EQ DUP1 PUSH2 0x3796 JUMPI JUMPDEST DUP1 PUSH2 0x3787 JUMPI JUMPDEST PUSH2 0x3780 JUMPI PUSH1 0xC EQ SWAP1 DUP2 PUSH2 0x376F JUMPI JUMPDEST DUP2 PUSH2 0x375F JUMPI POP PUSH2 0x348E JUMPI PUSH1 0x0 SWAP1 JUMP JUMPDEST PUSH1 0x16 SWAP2 POP PUSH1 0x40 ADD MLOAD GT ISZERO CODESIZE PUSH2 0x3484 JUMP JUMPDEST SWAP1 POP PUSH1 0x14 PUSH1 0x40 DUP3 ADD MLOAD LT ISZERO SWAP1 PUSH2 0x3750 JUMP JUMPDEST POP POP PUSH1 0x1 SWAP1 JUMP JUMPDEST POP PUSH1 0x18 PUSH1 0x40 DUP4 ADD MLOAD GT ISZERO PUSH2 0x3742 JUMP JUMPDEST POP PUSH1 0x16 PUSH1 0x40 DUP4 ADD MLOAD LT ISZERO PUSH2 0x373C JUMP JUMPDEST POP PUSH1 0x16 PUSH1 0x40 DUP4 ADD MLOAD GT ISZERO PUSH2 0x372E JUMP JUMPDEST POP PUSH1 0x14 PUSH1 0x40 DUP4 ADD MLOAD LT ISZERO PUSH2 0x3728 JUMP JUMPDEST POP PUSH1 0x15 PUSH1 0x40 DUP4 ADD MLOAD GT ISZERO PUSH2 0x371A JUMP JUMPDEST POP PUSH1 0x13 PUSH1 0x40 DUP4 ADD MLOAD LT ISZERO PUSH2 0x3714 JUMP INVALID LOG2 PUSH5 0x6970667358 0x22 SLT KECCAK256 0xBD 0x28 ADDRESS 0xC0 NOT 0xD PUSH13 0x3F7E10F2260467AE9D94D8464B DUP2 EQ 0xBB 0x4D COINBASE 0xC5 0xAF 0xC3 MULMOD 0xCC 0xB0 0xDA PUSH5 0x736F6C6343 STOP ADDMOD EQ STOP CALLER 0xB1 0xE 0x2D MSTORE PUSH23 0x12073B26EECDFD717E6A320CF44B4AFAC2B0732D9FCBE2 0xB7 STATICCALL 0xC 0xF6 "},"methodIdentifiers":{"DEFAULT_PALETTE(uint256)":"95405825","GLOBAL_COOLDOWN()":"09aaa61e","MAX_MUTATIONS()":"f4dbc50f","MAX_PER_WALLET()":"0f2cdd6c","MAX_SUPPLY()":"32cb6b0c","OWNER_RESERVE()":"ede6fade","REQUEST_EXPIRATION()":"29777c35","WALLET_COOLDOWN()":"ed8ed921","allowedMutations(uint256)":"c83d07e3","approve(address,uint256)":"095ea7b3","balanceOf(address)":"70a08231","canMutate(uint256)":"85c639fe","collectionLaunchDate()":"269557bb","completeMint(uint8)":"b6fd4622","customPalettes(uint256,uint256)":"149e7b77","getAllowedMutations()":"5ef46bc5","getApproved(uint256)":"081812fc","getCurrentPrice()":"eb91d37e","getCustomPalette(uint256)":"6b04a1e2","getPendingRequest(address)":"817697b1","getTokenMutations(uint256)":"9a617d0c","isApprovedForAll(address,address)":"e985e9c5","lastGlobalMintTime()":"009c4c7e","lastMintTime(address)":"6aa71d18","mintedPerWallet(address)":"3a602b4d","mutate(uint256,string)":"ccad22de","name()":"06fdde03","owner()":"8da5cb5b","ownerMint(address,string[6])":"0df102d3","ownerOf(uint256)":"6352211e","p5jsScriptAddress()":"b3a41b26","pendingRequests(address)":"fb22e651","renounceOwnership()":"715018a6","requestMint()":"afb7bed9","safeTransferFrom(address,address,uint256)":"42842e0e","safeTransferFrom(address,address,uint256,bytes)":"b88d4fde","setApprovalForAll(address,bool)":"a22cb465","setScriptAddresses(address,address)":"cbe60e9c","spattersScriptAddress()":"aaffbe38","supportsInterface(bytes4)":"01ffc9a7","symbol()":"95d89b41","tokenMutations(uint256,uint256)":"70a6f230","tokenURI(uint256)":"c87b56dd","tokens(uint256)":"4f64b2be","totalSupply()":"18160ddd","transferFrom(address,address,uint256)":"23b872dd","transferOwnership(address)":"f2fde38b","withdraw()":"3ccfd60b"}}}}}