{"contracts/SpattersGenerator.sol":{"SpattersGenerator":{"abi":[{"inputs":[{"internalType":"address","name":"_spattersContract","type":"address"},{"internalType":"address[9]","name":"_storageAddresses","type":"address[9]"}],"stateMutability":"nonpayable","type":"constructor"},{"inputs":[],"name":"P5JS_CDN","outputs":[{"internalType":"string","name":"","type":"string"}],"stateMutability":"view","type":"function"},{"inputs":[],"name":"SPATTERS_CONTRACT","outputs":[{"internalType":"address","name":"","type":"address"}],"stateMutability":"view","type":"function"},{"inputs":[{"internalType":"uint256","name":"","type":"uint256"}],"name":"STORAGE_ADDRESSES","outputs":[{"internalType":"address","name":"","type":"address"}],"stateMutability":"view","type":"function"},{"inputs":[],"name":"getSpattersScript","outputs":[{"internalType":"string","name":"","type":"string"}],"stateMutability":"view","type":"function"},{"inputs":[{"internalType":"uint256","name":"tokenId","type":"uint256"}],"name":"getTokenHtml","outputs":[{"internalType":"string","name":"","type":"string"}],"stateMutability":"view","type":"function"},{"inputs":[{"internalType":"uint256","name":"tokenId","type":"uint256"}],"name":"getTokenHtmlDataUri","outputs":[{"internalType":"string","name":"","type":"string"}],"stateMutability":"view","type":"function"}],"evm":{"bytecode":{"linkReferences":{},"object":"60a034620001d757601f6200141a38819003918201601f19168301926001600160401b0392909183851183861017620001dc57819060409586528339810191610140928383820312620001d7576200005783620001f2565b9381603f85011215620001d757855192610120840190811184821017620001dc57865282908401918211620001d757602080809501915b838310620001bc57506001600160a01b03959250505080841615620001785760005b60098110620000fc57506080529060005b60098110620000e9578451611212908162000208823960805181818161035001526105290152f35b82518416815591810191600101620000c1565b848160051b8401511615620001345760001981146200011e57600101620000b0565b634e487b7160e01b600052601160045260246000fd5b855162461bcd60e51b815260048101859052601760248201527f496e76616c69642073746f7261676520616464726573730000000000000000006044820152606490fd5b845162461bcd60e51b815260048101849052601960248201527f496e76616c696420737061747465727320636f6e7472616374000000000000006044820152606490fd5b8190620001c984620001f2565b81520191019084906200008e565b600080fd5b634e487b7160e01b600052604160045260246000fd5b51906001600160a01b0382168203620001d75756fe6080604052600436101561001257600080fd5b6000803560e01c9081630ec328bf1461007a5750806349e0a49314610075578063779ad13314610070578063a7b3ed6c1461006b578063ae397c90146100665763c3d6e8a91461006157600080fd5b61056e565b610513565b6104f7565b610323565b610235565b346100a557806003193601126100a5576100a1610095610179565b604051918291826101f2565b0390f35b80fd5b634e487b7160e01b600052604160045260246000fd5b6060810190811067ffffffffffffffff8211176100da57604052565b6100a8565b60c0810190811067ffffffffffffffff8211176100da57604052565b6040810190811067ffffffffffffffff8211176100da57604052565b90601f8019910116810190811067ffffffffffffffff8211176100da57604052565b67ffffffffffffffff81116100da57601f01601f191660200190565b604051906020820182811067ffffffffffffffff8211176100da5760405260008252565b60405190610186826100be565b6034825273312e31312e322f6c69622f70352e6d696e2e6a7360601b6040837f68747470733a2f2f63646e2e6a7364656c6976722e6e65742f6e706d2f70354060208201520152565b60005b8381106101e25750506000910152565b81810151838201526020016101d2565b6040916020825261021281518092816020860152602086860191016101cf565b601f01601f1916010190565b60209060031901126102305760043590565b600080fd5b34610230576102433661021e565b6040519063779ad13360e01b825260048201526000908181602481305afa91821561031e5780926102c8575b6100a16102ba61009561028a866102846107d0565b906108d4565b6040517519185d184e9d195e1d0bda1d1b5b0ed8985cd94d8d0b60521b6020820152928391603683015b906107b9565b03601f198101835282610117565b9091503d8082843e6102da8184610117565b82019160208184031261031a5780519167ffffffffffffffff83116100a5575061028a6103126100a1946102ba94610095940161061f565b93505061026f565b5080fd5b6105ba565b34610230576103313661021e565b604080516331a9108f60e11b8152600481018390526001600160a01b037f00000000000000000000000000000000000000000000000000000000000000008116939190602082602481885afa801561031e57610398926000916104c9575b501615156105c6565b81516327b2595f60e11b815260048101829052908282602481875afa91821561031e57600092610499575b5082516326985f4360e21b81526004810182905293600085602481845afa94851561031e5760009561046b575b50835163358250f160e11b8152600481019290925290919060009083908180602481015b03915afa801561031e576100a19461043d93600092610448575b506104376109c4565b92610a4f565b9051918291826101f2565b61046491923d8091833e61045c8183610117565b81019061073a565b903861042e565b9161048f6104149493600093973d8091833e6104878183610117565b810190610664565b95915091926103f0565b6104ba919250833d85116104c2575b6104b28183610117565b810190610609565b5090386103c3565b503d6104a8565b6104ea915060203d81116104f0575b6104e28183610117565b81019061059b565b3861038f565b503d6104d8565b34610230576000366003190112610230576100a16100956109c4565b34610230576000366003190112610230576040517f00000000000000000000000000000000000000000000000000000000000000006001600160a01b03168152602090f35b634e487b7160e01b600052603260045260246000fd5b346102305761057c3661021e565b600981101561023057546040516001600160a01b039091168152602090f35b9081602091031261023057516001600160a01b03811681036102305790565b6040513d6000823e3d90fd5b156105cd57565b60405162461bcd60e51b8152602060048201526014602482015273151bdad95b88191bd95cc81b9bdd08195e1a5cdd60621b6044820152606490fd5b9190826040910312610230576020825192015190565b81601f8201121561023057805161063581610139565b926106436040519485610117565b818452602082840101116102305761066191602080850191016101cf565b90565b90602090818382031261023057825167ffffffffffffffff9384821161023057019080601f83011215610230578151938085116100da578460051b9060408051966106b187850189610117565b875285808801938601019484861161023057868101935b8685106106da57505050505050505090565b84518481116102305782019060609081601f19848a030112610230578451610701816100be565b8a84015192878411610230578461071f8b8e8098978198010161061f565b835287810151858401520151868201528152019401936106c8565b90602090818382031261023057825167ffffffffffffffff9384821161023057019281601f850112156102305760405193610774856100df565b849060c08101938085116102305781925b858410610796575050505050505090565b83518581116102305787916107ae848493870161061f565b815201930192610785565b906107cc602092828151948592016101cf565b0190565b604051906107dd826100be565b604082527f6768696a6b6c6d6e6f707172737475767778797a303132333435363738392b2f6040837f4142434445464748494a4b4c4d4e4f505152535455565758595a61626364656660208201520152565b634e487b7160e01b600052601160045260246000fd5b600281901b91906001600160fe1b0381160361085d57565b61082f565b908160011b918083046002149015171561085d57565b906002820180921161085d57565b600201908160021161085d57565b600301908160031161085d57565b906108ac82610139565b6108b96040519182610117565b82815280926108ca601f1991610139565b0190602036910137565b908151156109ab576109006108fb6108f66108ef8551610878565b6003900490565b610845565b6108a2565b91602083019181825183016020810191825193600084525b82821061095957505050525160039006600181146109465760021461093b575090565b603d90600019015390565b50603d9081600019820153600119015390565b9091956004906003809401938451600190603f9082828260121c16880101518553828282600c1c16880101518386015382828260061c1688010151600286015316850101519082015301959190610918565b5050610661610155565b600019811461085d5760010190565b606060005b600981106109d5575090565b90610a38610a44610a4a9260018060a01b0385541690813b91604092835190601f19603f820116820185526000190193848252602094600186840180953c519583610a2988955180928880890191016101cf565b840191518093868401906101cf565b01038084520182610117565b916109b5565b6109c9565b90610c106102b4946102b4610bff61066196610bae95610a6d610179565b6040516e1e10a227a1aa2ca82290343a36b61f60891b60208201527f3c68746d6c3e3c686561643e3c6d65746120636861727365743d225554462d38602f82015261111f60f11b604f8201527f3c7374796c653e68746d6c7b6865696768743a313030257d626f64797b6d696e60518201527f2d6865696768743a313030253b6d617267696e3a303b70616464696e673a307d60718201527f63616e7661737b70616464696e673a303b6d617267696e3a6175746f3b64697360918201527f706c61793a626c6f636b3b706f736974696f6e3a6162736f6c7574653b746f7060b18201527f3a303b626f74746f6d3a303b6c6566743a303b72696768743a307d3c2f73747960d18201526236329f60e91b60f18201526c1e39b1b934b83a1039b9319e9160991b60f4820152978891610be691610bc59161010185016102b4565b6a111f1e17b9b1b934b83a1f60a91b8152600b0190565b741e17b432b0b21f1e3137b23c9f1e39b1b934b83a1f60591b815260150190565b0397610bfa601f19998a81018a5289610117565b610c1c565b9160405197889560208701906107b9565b03908101835282610117565b91610c9b91610cd5610cc8610c3e610c388551511515976110fe565b93610fa6565b6102b4610caa6040519788966102b4610c7260208a01601190701e17b9b1b934b83a1f1e39b1b934b83a1f60791b81520190565b7f636f6e7374206d696e74696e6753656564203d20686578546f536565642822008152601f0190565b6222293b60e81b815260030190565b71031b7b739ba1036baba30ba34b7b739901e960751b815260120190565b603b60f81b815260010190565b0392610ce9601f1994858101855284610117565b15610e18579161066191610c10610def610da0610d43610cc8610d0e610d2199610e82565b6102b46040519a8b9860208a01906107b9565b75031b7b739ba1031bab9ba37b6a830b632ba3a32901e960551b815260160190565b7f66756e6374696f6e2073657475702829207b2067656e6572617465286d696e7481527f696e67536565642c206d75746174696f6e732c20637573746f6d50616c65747460208201526465293b207d60d81b604082015260450190565b7f66756e6374696f6e20686578546f53656564286829207b2072657475726e207081527f61727365496e7428682e736c69636528302c3138292c3136293b207d000000006020820152603c0190565b7f3c2f7363726970743e3c2f626f64793e3c2f68746d6c3e000000000000000000815260170190565b50610e3a9161066191610c10610def610da060405196879460208601906107b9565b7f66756e6374696f6e2073657475702829207b2067656e6572617465286d696e74815275696e67536565642c206d75746174696f6e73293b207d60501b602082015260360190565b8051602082015191604081015190606081015160808201519160a0015192604051958695612d9160f11b602088015280519081602289019160200191610ec7926101cf565b86016211161160e91b6022820152602501610ee1916107b9565b6211161160e91b8152600301610ef6916107b9565b6211161160e91b8152600301610f0b916107b9565b6211161160e91b8152600301610f20916107b9565b6211161160e91b8152600301610f35916107b9565b61225d60f01b815260020103601f19810182526106619082610117565b60405190610f5f826100fb565b60028252615b5d60f01b6020830152565b60405190610f7d826100fb565b60018252605b60f81b6020830152565b8051821015610fa15760209160051b010190565b610558565b80511561109b57610fb5610f70565b6000905b82518210156110715761103f9082611045575b610a4460206102ba611031610fed83610fe5898b610f8d565b5101516110fe565b6102b4611022610ffd8a8c610f8d565b5151926102b46110146040519a8b998a01906107b9565b612d9160f11b815260020190565b6211161160e91b815260030190565b61225d60f01b815260020190565b90610fb9565b61106c61105f916102ba60405193849260208401906107b9565b600b60fa1b815260010190565b610fcc565b61108e925061066191506102ba60405193849260208401906107b9565b605d60f81b815260010190565b50610661610f52565b805115610fa15760200190565b805160011015610fa15760210190565b908151811015610fa1570160200190565b604051906110df826100fb565b601082526f181899199a1a9b1b9c1cb0b131b232b360811b6020830152565b906040516080810181811067ffffffffffffffff8211176100da57604052604281526020606036828401376030611134836110a4565b536078611140836110b1565b536111496110d2565b93600090815b83811061115f5750929450505050565b6111d7906111b361117f600f85841a61118d83600483901c84168e6110c1565b516001600160f81b03191690565b6111ab6111a161119c88610862565b610886565b918a1a918c6110c1565b53168a6110c1565b6111d16111c76111c284610862565b610894565b91861a91886110c1565b536109b5565b61114f56fea2646970667358221220f3077d0e13368dcc63792f6c784d5b252f52861a724a29b9d4a3db8b91ee1a7264736f6c63430008140033","opcodes":"PUSH1 0xA0 CALLVALUE PUSH3 0x1D7 JUMPI PUSH1 0x1F PUSH3 0x141A CODESIZE DUP2 SWAP1 SUB SWAP2 DUP3 ADD PUSH1 0x1F NOT AND DUP4 ADD SWAP3 PUSH1 0x1 PUSH1 0x1 PUSH1 0x40 SHL SUB SWAP3 SWAP1 SWAP2 DUP4 DUP6 GT DUP4 DUP7 LT OR PUSH3 0x1DC JUMPI DUP2 SWAP1 PUSH1 0x40 SWAP6 DUP7 MSTORE DUP4 CODECOPY DUP2 ADD SWAP2 PUSH2 0x140 SWAP3 DUP4 DUP4 DUP3 SUB SLT PUSH3 0x1D7 JUMPI PUSH3 0x57 DUP4 PUSH3 0x1F2 JUMP JUMPDEST SWAP4 DUP2 PUSH1 0x3F DUP6 ADD SLT ISZERO PUSH3 0x1D7 JUMPI DUP6 MLOAD SWAP3 PUSH2 0x120 DUP5 ADD SWAP1 DUP2 GT DUP5 DUP3 LT OR PUSH3 0x1DC JUMPI DUP7 MSTORE DUP3 SWAP1 DUP5 ADD SWAP2 DUP3 GT PUSH3 0x1D7 JUMPI PUSH1 0x20 DUP1 DUP1 SWAP6 ADD SWAP2 JUMPDEST DUP4 DUP4 LT PUSH3 0x1BC JUMPI POP PUSH1 0x1 PUSH1 0x1 PUSH1 0xA0 SHL SUB SWAP6 SWAP3 POP POP POP DUP1 DUP5 AND ISZERO PUSH3 0x178 JUMPI PUSH1 0x0 JUMPDEST PUSH1 0x9 DUP2 LT PUSH3 0xFC JUMPI POP PUSH1 0x80 MSTORE SWAP1 PUSH1 0x0 JUMPDEST PUSH1 0x9 DUP2 LT PUSH3 0xE9 JUMPI DUP5 MLOAD PUSH2 0x1212 SWAP1 DUP2 PUSH3 0x208 DUP3 CODECOPY PUSH1 0x80 MLOAD DUP2 DUP2 DUP2 PUSH2 0x350 ADD MSTORE PUSH2 0x529 ADD MSTORE RETURN JUMPDEST DUP3 MLOAD DUP5 AND DUP2 SSTORE SWAP2 DUP2 ADD SWAP2 PUSH1 0x1 ADD PUSH3 0xC1 JUMP JUMPDEST DUP5 DUP2 PUSH1 0x5 SHL DUP5 ADD MLOAD AND ISZERO PUSH3 0x134 JUMPI PUSH1 0x0 NOT DUP2 EQ PUSH3 0x11E JUMPI PUSH1 0x1 ADD PUSH3 0xB0 JUMP JUMPDEST PUSH4 0x4E487B71 PUSH1 0xE0 SHL PUSH1 0x0 MSTORE PUSH1 0x11 PUSH1 0x4 MSTORE PUSH1 0x24 PUSH1 0x0 REVERT JUMPDEST DUP6 MLOAD PUSH3 0x461BCD PUSH1 0xE5 SHL DUP2 MSTORE PUSH1 0x4 DUP2 ADD DUP6 SWAP1 MSTORE PUSH1 0x17 PUSH1 0x24 DUP3 ADD MSTORE PUSH32 0x496E76616C69642073746F726167652061646472657373000000000000000000 PUSH1 0x44 DUP3 ADD MSTORE PUSH1 0x64 SWAP1 REVERT JUMPDEST DUP5 MLOAD PUSH3 0x461BCD PUSH1 0xE5 SHL DUP2 MSTORE PUSH1 0x4 DUP2 ADD DUP5 SWAP1 MSTORE PUSH1 0x19 PUSH1 0x24 DUP3 ADD MSTORE PUSH32 0x496E76616C696420737061747465727320636F6E747261637400000000000000 PUSH1 0x44 DUP3 ADD MSTORE PUSH1 0x64 SWAP1 REVERT JUMPDEST DUP2 SWAP1 PUSH3 0x1C9 DUP5 PUSH3 0x1F2 JUMP JUMPDEST DUP2 MSTORE ADD SWAP2 ADD SWAP1 DUP5 SWAP1 PUSH3 0x8E JUMP JUMPDEST PUSH1 0x0 DUP1 REVERT JUMPDEST PUSH4 0x4E487B71 PUSH1 0xE0 SHL PUSH1 0x0 MSTORE PUSH1 0x41 PUSH1 0x4 MSTORE PUSH1 0x24 PUSH1 0x0 REVERT JUMPDEST MLOAD SWAP1 PUSH1 0x1 PUSH1 0x1 PUSH1 0xA0 SHL SUB DUP3 AND DUP3 SUB PUSH3 0x1D7 JUMPI JUMP INVALID PUSH1 0x80 PUSH1 0x40 MSTORE PUSH1 0x4 CALLDATASIZE LT ISZERO PUSH2 0x12 JUMPI PUSH1 0x0 DUP1 REVERT JUMPDEST PUSH1 0x0 DUP1 CALLDATALOAD PUSH1 0xE0 SHR SWAP1 DUP2 PUSH4 0xEC328BF EQ PUSH2 0x7A JUMPI POP DUP1 PUSH4 0x49E0A493 EQ PUSH2 0x75 JUMPI DUP1 PUSH4 0x779AD133 EQ PUSH2 0x70 JUMPI DUP1 PUSH4 0xA7B3ED6C EQ PUSH2 0x6B JUMPI DUP1 PUSH4 0xAE397C90 EQ PUSH2 0x66 JUMPI PUSH4 0xC3D6E8A9 EQ PUSH2 0x61 JUMPI PUSH1 0x0 DUP1 REVERT JUMPDEST PUSH2 0x56E JUMP JUMPDEST PUSH2 0x513 JUMP JUMPDEST PUSH2 0x4F7 JUMP JUMPDEST PUSH2 0x323 JUMP JUMPDEST PUSH2 0x235 JUMP JUMPDEST CALLVALUE PUSH2 0xA5 JUMPI DUP1 PUSH1 0x3 NOT CALLDATASIZE ADD SLT PUSH2 0xA5 JUMPI PUSH2 0xA1 PUSH2 0x95 PUSH2 0x179 JUMP JUMPDEST PUSH1 0x40 MLOAD SWAP2 DUP3 SWAP2 DUP3 PUSH2 0x1F2 JUMP JUMPDEST SUB SWAP1 RETURN JUMPDEST DUP1 REVERT JUMPDEST PUSH4 0x4E487B71 PUSH1 0xE0 SHL PUSH1 0x0 MSTORE PUSH1 0x41 PUSH1 0x4 MSTORE PUSH1 0x24 PUSH1 0x0 REVERT JUMPDEST PUSH1 0x60 DUP2 ADD SWAP1 DUP2 LT PUSH8 0xFFFFFFFFFFFFFFFF DUP3 GT OR PUSH2 0xDA JUMPI PUSH1 0x40 MSTORE JUMP JUMPDEST PUSH2 0xA8 JUMP JUMPDEST PUSH1 0xC0 DUP2 ADD SWAP1 DUP2 LT PUSH8 0xFFFFFFFFFFFFFFFF DUP3 GT OR PUSH2 0xDA JUMPI PUSH1 0x40 MSTORE JUMP JUMPDEST PUSH1 0x40 DUP2 ADD SWAP1 DUP2 LT PUSH8 0xFFFFFFFFFFFFFFFF DUP3 GT OR PUSH2 0xDA JUMPI PUSH1 0x40 MSTORE JUMP JUMPDEST SWAP1 PUSH1 0x1F DUP1 NOT SWAP2 ADD AND DUP2 ADD SWAP1 DUP2 LT PUSH8 0xFFFFFFFFFFFFFFFF DUP3 GT OR PUSH2 0xDA JUMPI PUSH1 0x40 MSTORE JUMP JUMPDEST PUSH8 0xFFFFFFFFFFFFFFFF DUP2 GT PUSH2 0xDA JUMPI PUSH1 0x1F ADD PUSH1 0x1F NOT AND PUSH1 0x20 ADD SWAP1 JUMP JUMPDEST PUSH1 0x40 MLOAD SWAP1 PUSH1 0x20 DUP3 ADD DUP3 DUP2 LT PUSH8 0xFFFFFFFFFFFFFFFF DUP3 GT OR PUSH2 0xDA JUMPI PUSH1 0x40 MSTORE PUSH1 0x0 DUP3 MSTORE JUMP JUMPDEST PUSH1 0x40 MLOAD SWAP1 PUSH2 0x186 DUP3 PUSH2 0xBE JUMP JUMPDEST PUSH1 0x34 DUP3 MSTORE PUSH20 0x312E31312E322F6C69622F70352E6D696E2E6A73 PUSH1 0x60 SHL PUSH1 0x40 DUP4 PUSH32 0x68747470733A2F2F63646E2E6A7364656C6976722E6E65742F6E706D2F703540 PUSH1 0x20 DUP3 ADD MSTORE ADD MSTORE JUMP JUMPDEST PUSH1 0x0 JUMPDEST DUP4 DUP2 LT PUSH2 0x1E2 JUMPI POP POP PUSH1 0x0 SWAP2 ADD MSTORE JUMP JUMPDEST DUP2 DUP2 ADD MLOAD DUP4 DUP3 ADD MSTORE PUSH1 0x20 ADD PUSH2 0x1D2 JUMP JUMPDEST PUSH1 0x40 SWAP2 PUSH1 0x20 DUP3 MSTORE PUSH2 0x212 DUP2 MLOAD DUP1 SWAP3 DUP2 PUSH1 0x20 DUP7 ADD MSTORE PUSH1 0x20 DUP7 DUP7 ADD SWAP2 ADD PUSH2 0x1CF JUMP JUMPDEST PUSH1 0x1F ADD PUSH1 0x1F NOT AND ADD ADD SWAP1 JUMP JUMPDEST PUSH1 0x20 SWAP1 PUSH1 0x3 NOT ADD SLT PUSH2 0x230 JUMPI PUSH1 0x4 CALLDATALOAD SWAP1 JUMP JUMPDEST PUSH1 0x0 DUP1 REVERT JUMPDEST CALLVALUE PUSH2 0x230 JUMPI PUSH2 0x243 CALLDATASIZE PUSH2 0x21E JUMP JUMPDEST PUSH1 0x40 MLOAD SWAP1 PUSH4 0x779AD133 PUSH1 0xE0 SHL DUP3 MSTORE PUSH1 0x4 DUP3 ADD MSTORE PUSH1 0x0 SWAP1 DUP2 DUP2 PUSH1 0x24 DUP2 ADDRESS GAS STATICCALL SWAP2 DUP3 ISZERO PUSH2 0x31E JUMPI DUP1 SWAP3 PUSH2 0x2C8 JUMPI JUMPDEST PUSH2 0xA1 PUSH2 0x2BA PUSH2 0x95 PUSH2 0x28A DUP7 PUSH2 0x284 PUSH2 0x7D0 JUMP JUMPDEST SWAP1 PUSH2 0x8D4 JUMP JUMPDEST PUSH1 0x40 MLOAD PUSH22 0x19185D184E9D195E1D0BDA1D1B5B0ED8985CD94D8D0B PUSH1 0x52 SHL PUSH1 0x20 DUP3 ADD MSTORE SWAP3 DUP4 SWAP2 PUSH1 0x36 DUP4 ADD JUMPDEST SWAP1 PUSH2 0x7B9 JUMP JUMPDEST SUB PUSH1 0x1F NOT DUP2 ADD DUP4 MSTORE DUP3 PUSH2 0x117 JUMP JUMPDEST SWAP1 SWAP2 POP RETURNDATASIZE DUP1 DUP3 DUP5 RETURNDATACOPY PUSH2 0x2DA DUP2 DUP5 PUSH2 0x117 JUMP JUMPDEST DUP3 ADD SWAP2 PUSH1 0x20 DUP2 DUP5 SUB SLT PUSH2 0x31A JUMPI DUP1 MLOAD SWAP2 PUSH8 0xFFFFFFFFFFFFFFFF DUP4 GT PUSH2 0xA5 JUMPI POP PUSH2 0x28A PUSH2 0x312 PUSH2 0xA1 SWAP5 PUSH2 0x2BA SWAP5 PUSH2 0x95 SWAP5 ADD PUSH2 0x61F JUMP JUMPDEST SWAP4 POP POP PUSH2 0x26F JUMP JUMPDEST POP DUP1 REVERT JUMPDEST PUSH2 0x5BA JUMP JUMPDEST CALLVALUE PUSH2 0x230 JUMPI PUSH2 0x331 CALLDATASIZE PUSH2 0x21E JUMP JUMPDEST PUSH1 0x40 DUP1 MLOAD PUSH4 0x31A9108F PUSH1 0xE1 SHL DUP2 MSTORE PUSH1 0x4 DUP2 ADD DUP4 SWAP1 MSTORE PUSH1 0x1 PUSH1 0x1 PUSH1 0xA0 SHL SUB PUSH32 0x0 DUP2 AND SWAP4 SWAP2 SWAP1 PUSH1 0x20 DUP3 PUSH1 0x24 DUP2 DUP9 GAS STATICCALL DUP1 ISZERO PUSH2 0x31E JUMPI PUSH2 0x398 SWAP3 PUSH1 0x0 SWAP2 PUSH2 0x4C9 JUMPI JUMPDEST POP AND ISZERO ISZERO PUSH2 0x5C6 JUMP JUMPDEST DUP2 MLOAD PUSH4 0x27B2595F PUSH1 0xE1 SHL DUP2 MSTORE PUSH1 0x4 DUP2 ADD DUP3 SWAP1 MSTORE SWAP1 DUP3 DUP3 PUSH1 0x24 DUP2 DUP8 GAS STATICCALL SWAP2 DUP3 ISZERO PUSH2 0x31E JUMPI PUSH1 0x0 SWAP3 PUSH2 0x499 JUMPI JUMPDEST POP DUP3 MLOAD PUSH4 0x26985F43 PUSH1 0xE2 SHL DUP2 MSTORE PUSH1 0x4 DUP2 ADD DUP3 SWAP1 MSTORE SWAP4 PUSH1 0x0 DUP6 PUSH1 0x24 DUP2 DUP5 GAS STATICCALL SWAP5 DUP6 ISZERO PUSH2 0x31E JUMPI PUSH1 0x0 SWAP6 PUSH2 0x46B JUMPI JUMPDEST POP DUP4 MLOAD PUSH4 0x358250F1 PUSH1 0xE1 SHL DUP2 MSTORE PUSH1 0x4 DUP2 ADD SWAP3 SWAP1 SWAP3 MSTORE SWAP1 SWAP2 SWAP1 PUSH1 0x0 SWAP1 DUP4 SWAP1 DUP2 DUP1 PUSH1 0x24 DUP2 ADD JUMPDEST SUB SWAP2 GAS STATICCALL DUP1 ISZERO PUSH2 0x31E JUMPI PUSH2 0xA1 SWAP5 PUSH2 0x43D SWAP4 PUSH1 0x0 SWAP3 PUSH2 0x448 JUMPI JUMPDEST POP PUSH2 0x437 PUSH2 0x9C4 JUMP JUMPDEST SWAP3 PUSH2 0xA4F JUMP JUMPDEST SWAP1 MLOAD SWAP2 DUP3 SWAP2 DUP3 PUSH2 0x1F2 JUMP JUMPDEST PUSH2 0x464 SWAP2 SWAP3 RETURNDATASIZE DUP1 SWAP2 DUP4 RETURNDATACOPY PUSH2 0x45C DUP2 DUP4 PUSH2 0x117 JUMP JUMPDEST DUP2 ADD SWAP1 PUSH2 0x73A JUMP JUMPDEST SWAP1 CODESIZE PUSH2 0x42E JUMP JUMPDEST SWAP2 PUSH2 0x48F PUSH2 0x414 SWAP5 SWAP4 PUSH1 0x0 SWAP4 SWAP8 RETURNDATASIZE DUP1 SWAP2 DUP4 RETURNDATACOPY PUSH2 0x487 DUP2 DUP4 PUSH2 0x117 JUMP JUMPDEST DUP2 ADD SWAP1 PUSH2 0x664 JUMP JUMPDEST SWAP6 SWAP2 POP SWAP2 SWAP3 PUSH2 0x3F0 JUMP JUMPDEST PUSH2 0x4BA SWAP2 SWAP3 POP DUP4 RETURNDATASIZE DUP6 GT PUSH2 0x4C2 JUMPI JUMPDEST PUSH2 0x4B2 DUP2 DUP4 PUSH2 0x117 JUMP JUMPDEST DUP2 ADD SWAP1 PUSH2 0x609 JUMP JUMPDEST POP SWAP1 CODESIZE PUSH2 0x3C3 JUMP JUMPDEST POP RETURNDATASIZE PUSH2 0x4A8 JUMP JUMPDEST PUSH2 0x4EA SWAP2 POP PUSH1 0x20 RETURNDATASIZE DUP2 GT PUSH2 0x4F0 JUMPI JUMPDEST PUSH2 0x4E2 DUP2 DUP4 PUSH2 0x117 JUMP JUMPDEST DUP2 ADD SWAP1 PUSH2 0x59B JUMP JUMPDEST CODESIZE PUSH2 0x38F JUMP JUMPDEST POP RETURNDATASIZE PUSH2 0x4D8 JUMP JUMPDEST CALLVALUE PUSH2 0x230 JUMPI PUSH1 0x0 CALLDATASIZE PUSH1 0x3 NOT ADD SLT PUSH2 0x230 JUMPI PUSH2 0xA1 PUSH2 0x95 PUSH2 0x9C4 JUMP JUMPDEST CALLVALUE PUSH2 0x230 JUMPI PUSH1 0x0 CALLDATASIZE PUSH1 0x3 NOT ADD SLT PUSH2 0x230 JUMPI PUSH1 0x40 MLOAD PUSH32 0x0 PUSH1 0x1 PUSH1 0x1 PUSH1 0xA0 SHL SUB AND DUP2 MSTORE PUSH1 0x20 SWAP1 RETURN JUMPDEST PUSH4 0x4E487B71 PUSH1 0xE0 SHL PUSH1 0x0 MSTORE PUSH1 0x32 PUSH1 0x4 MSTORE PUSH1 0x24 PUSH1 0x0 REVERT JUMPDEST CALLVALUE PUSH2 0x230 JUMPI PUSH2 0x57C CALLDATASIZE PUSH2 0x21E JUMP JUMPDEST PUSH1 0x9 DUP2 LT ISZERO PUSH2 0x230 JUMPI SLOAD PUSH1 0x40 MLOAD PUSH1 0x1 PUSH1 0x1 PUSH1 0xA0 SHL SUB SWAP1 SWAP2 AND DUP2 MSTORE PUSH1 0x20 SWAP1 RETURN JUMPDEST SWAP1 DUP2 PUSH1 0x20 SWAP2 SUB SLT PUSH2 0x230 JUMPI MLOAD PUSH1 0x1 PUSH1 0x1 PUSH1 0xA0 SHL SUB DUP2 AND DUP2 SUB PUSH2 0x230 JUMPI SWAP1 JUMP JUMPDEST PUSH1 0x40 MLOAD RETURNDATASIZE PUSH1 0x0 DUP3 RETURNDATACOPY RETURNDATASIZE SWAP1 REVERT JUMPDEST ISZERO PUSH2 0x5CD JUMPI JUMP JUMPDEST PUSH1 0x40 MLOAD PUSH3 0x461BCD PUSH1 0xE5 SHL DUP2 MSTORE PUSH1 0x20 PUSH1 0x4 DUP3 ADD MSTORE PUSH1 0x14 PUSH1 0x24 DUP3 ADD MSTORE PUSH20 0x151BDAD95B88191BD95CC81B9BDD08195E1A5CDD PUSH1 0x62 SHL PUSH1 0x44 DUP3 ADD MSTORE PUSH1 0x64 SWAP1 REVERT JUMPDEST SWAP2 SWAP1 DUP3 PUSH1 0x40 SWAP2 SUB SLT PUSH2 0x230 JUMPI PUSH1 0x20 DUP3 MLOAD SWAP3 ADD MLOAD SWAP1 JUMP JUMPDEST DUP2 PUSH1 0x1F DUP3 ADD SLT ISZERO PUSH2 0x230 JUMPI DUP1 MLOAD PUSH2 0x635 DUP2 PUSH2 0x139 JUMP JUMPDEST SWAP3 PUSH2 0x643 PUSH1 0x40 MLOAD SWAP5 DUP6 PUSH2 0x117 JUMP JUMPDEST DUP2 DUP5 MSTORE PUSH1 0x20 DUP3 DUP5 ADD ADD GT PUSH2 0x230 JUMPI PUSH2 0x661 SWAP2 PUSH1 0x20 DUP1 DUP6 ADD SWAP2 ADD PUSH2 0x1CF JUMP JUMPDEST SWAP1 JUMP JUMPDEST SWAP1 PUSH1 0x20 SWAP1 DUP2 DUP4 DUP3 SUB SLT PUSH2 0x230 JUMPI DUP3 MLOAD PUSH8 0xFFFFFFFFFFFFFFFF SWAP4 DUP5 DUP3 GT PUSH2 0x230 JUMPI ADD SWAP1 DUP1 PUSH1 0x1F DUP4 ADD SLT ISZERO PUSH2 0x230 JUMPI DUP2 MLOAD SWAP4 DUP1 DUP6 GT PUSH2 0xDA JUMPI DUP5 PUSH1 0x5 SHL SWAP1 PUSH1 0x40 DUP1 MLOAD SWAP7 PUSH2 0x6B1 DUP8 DUP6 ADD DUP10 PUSH2 0x117 JUMP JUMPDEST DUP8 MSTORE DUP6 DUP1 DUP9 ADD SWAP4 DUP7 ADD ADD SWAP5 DUP5 DUP7 GT PUSH2 0x230 JUMPI DUP7 DUP2 ADD SWAP4 JUMPDEST DUP7 DUP6 LT PUSH2 0x6DA JUMPI POP POP POP POP POP POP POP POP SWAP1 JUMP JUMPDEST DUP5 MLOAD DUP5 DUP2 GT PUSH2 0x230 JUMPI DUP3 ADD SWAP1 PUSH1 0x60 SWAP1 DUP2 PUSH1 0x1F NOT DUP5 DUP11 SUB ADD SLT PUSH2 0x230 JUMPI DUP5 MLOAD PUSH2 0x701 DUP2 PUSH2 0xBE JUMP JUMPDEST DUP11 DUP5 ADD MLOAD SWAP3 DUP8 DUP5 GT PUSH2 0x230 JUMPI DUP5 PUSH2 0x71F DUP12 DUP15 DUP1 SWAP9 SWAP8 DUP2 SWAP9 ADD ADD PUSH2 0x61F JUMP JUMPDEST DUP4 MSTORE DUP8 DUP2 ADD MLOAD DUP6 DUP5 ADD MSTORE ADD MLOAD DUP7 DUP3 ADD MSTORE DUP2 MSTORE ADD SWAP5 ADD SWAP4 PUSH2 0x6C8 JUMP JUMPDEST SWAP1 PUSH1 0x20 SWAP1 DUP2 DUP4 DUP3 SUB SLT PUSH2 0x230 JUMPI DUP3 MLOAD PUSH8 0xFFFFFFFFFFFFFFFF SWAP4 DUP5 DUP3 GT PUSH2 0x230 JUMPI ADD SWAP3 DUP2 PUSH1 0x1F DUP6 ADD SLT ISZERO PUSH2 0x230 JUMPI PUSH1 0x40 MLOAD SWAP4 PUSH2 0x774 DUP6 PUSH2 0xDF JUMP JUMPDEST DUP5 SWAP1 PUSH1 0xC0 DUP2 ADD SWAP4 DUP1 DUP6 GT PUSH2 0x230 JUMPI DUP2 SWAP3 JUMPDEST DUP6 DUP5 LT PUSH2 0x796 JUMPI POP POP POP POP POP POP POP SWAP1 JUMP JUMPDEST DUP4 MLOAD DUP6 DUP2 GT PUSH2 0x230 JUMPI DUP8 SWAP2 PUSH2 0x7AE DUP5 DUP5 SWAP4 DUP8 ADD PUSH2 0x61F JUMP JUMPDEST DUP2 MSTORE ADD SWAP4 ADD SWAP3 PUSH2 0x785 JUMP JUMPDEST SWAP1 PUSH2 0x7CC PUSH1 0x20 SWAP3 DUP3 DUP2 MLOAD SWAP5 DUP6 SWAP3 ADD PUSH2 0x1CF JUMP JUMPDEST ADD SWAP1 JUMP JUMPDEST PUSH1 0x40 MLOAD SWAP1 PUSH2 0x7DD DUP3 PUSH2 0xBE JUMP JUMPDEST PUSH1 0x40 DUP3 MSTORE PUSH32 0x6768696A6B6C6D6E6F707172737475767778797A303132333435363738392B2F PUSH1 0x40 DUP4 PUSH32 0x4142434445464748494A4B4C4D4E4F505152535455565758595A616263646566 PUSH1 0x20 DUP3 ADD MSTORE ADD MSTORE JUMP JUMPDEST PUSH4 0x4E487B71 PUSH1 0xE0 SHL PUSH1 0x0 MSTORE PUSH1 0x11 PUSH1 0x4 MSTORE PUSH1 0x24 PUSH1 0x0 REVERT JUMPDEST PUSH1 0x2 DUP2 SWAP1 SHL SWAP2 SWAP1 PUSH1 0x1 PUSH1 0x1 PUSH1 0xFE SHL SUB DUP2 AND SUB PUSH2 0x85D JUMPI JUMP JUMPDEST PUSH2 0x82F JUMP JUMPDEST SWAP1 DUP2 PUSH1 0x1 SHL SWAP2 DUP1 DUP4 DIV PUSH1 0x2 EQ SWAP1 ISZERO OR ISZERO PUSH2 0x85D JUMPI JUMP JUMPDEST SWAP1 PUSH1 0x2 DUP3 ADD DUP1 SWAP3 GT PUSH2 0x85D JUMPI JUMP JUMPDEST PUSH1 0x2 ADD SWAP1 DUP2 PUSH1 0x2 GT PUSH2 0x85D JUMPI JUMP JUMPDEST PUSH1 0x3 ADD SWAP1 DUP2 PUSH1 0x3 GT PUSH2 0x85D JUMPI JUMP JUMPDEST SWAP1 PUSH2 0x8AC DUP3 PUSH2 0x139 JUMP JUMPDEST PUSH2 0x8B9 PUSH1 0x40 MLOAD SWAP2 DUP3 PUSH2 0x117 JUMP JUMPDEST DUP3 DUP2 MSTORE DUP1 SWAP3 PUSH2 0x8CA PUSH1 0x1F NOT SWAP2 PUSH2 0x139 JUMP JUMPDEST ADD SWAP1 PUSH1 0x20 CALLDATASIZE SWAP2 ADD CALLDATACOPY JUMP JUMPDEST SWAP1 DUP2 MLOAD ISZERO PUSH2 0x9AB JUMPI PUSH2 0x900 PUSH2 0x8FB PUSH2 0x8F6 PUSH2 0x8EF DUP6 MLOAD PUSH2 0x878 JUMP JUMPDEST PUSH1 0x3 SWAP1 DIV SWAP1 JUMP JUMPDEST PUSH2 0x845 JUMP JUMPDEST PUSH2 0x8A2 JUMP JUMPDEST SWAP2 PUSH1 0x20 DUP4 ADD SWAP2 DUP2 DUP3 MLOAD DUP4 ADD PUSH1 0x20 DUP2 ADD SWAP2 DUP3 MLOAD SWAP4 PUSH1 0x0 DUP5 MSTORE JUMPDEST DUP3 DUP3 LT PUSH2 0x959 JUMPI POP POP POP MSTORE MLOAD PUSH1 0x3 SWAP1 MOD PUSH1 0x1 DUP2 EQ PUSH2 0x946 JUMPI PUSH1 0x2 EQ PUSH2 0x93B JUMPI POP SWAP1 JUMP JUMPDEST PUSH1 0x3D SWAP1 PUSH1 0x0 NOT ADD MSTORE8 SWAP1 JUMP JUMPDEST POP PUSH1 0x3D SWAP1 DUP2 PUSH1 0x0 NOT DUP3 ADD MSTORE8 PUSH1 0x1 NOT ADD MSTORE8 SWAP1 JUMP JUMPDEST SWAP1 SWAP2 SWAP6 PUSH1 0x4 SWAP1 PUSH1 0x3 DUP1 SWAP5 ADD SWAP4 DUP5 MLOAD PUSH1 0x1 SWAP1 PUSH1 0x3F SWAP1 DUP3 DUP3 DUP3 PUSH1 0x12 SHR AND DUP9 ADD ADD MLOAD DUP6 MSTORE8 DUP3 DUP3 DUP3 PUSH1 0xC SHR AND DUP9 ADD ADD MLOAD DUP4 DUP7 ADD MSTORE8 DUP3 DUP3 DUP3 PUSH1 0x6 SHR AND DUP9 ADD ADD MLOAD PUSH1 0x2 DUP7 ADD MSTORE8 AND DUP6 ADD ADD MLOAD SWAP1 DUP3 ADD MSTORE8 ADD SWAP6 SWAP2 SWAP1 PUSH2 0x918 JUMP JUMPDEST POP POP PUSH2 0x661 PUSH2 0x155 JUMP JUMPDEST PUSH1 0x0 NOT DUP2 EQ PUSH2 0x85D JUMPI PUSH1 0x1 ADD SWAP1 JUMP JUMPDEST PUSH1 0x60 PUSH1 0x0 JUMPDEST PUSH1 0x9 DUP2 LT PUSH2 0x9D5 JUMPI POP SWAP1 JUMP JUMPDEST SWAP1 PUSH2 0xA38 PUSH2 0xA44 PUSH2 0xA4A SWAP3 PUSH1 0x1 DUP1 PUSH1 0xA0 SHL SUB DUP6 SLOAD AND SWAP1 DUP2 EXTCODESIZE SWAP2 PUSH1 0x40 SWAP3 DUP4 MLOAD SWAP1 PUSH1 0x1F NOT PUSH1 0x3F DUP3 ADD AND DUP3 ADD DUP6 MSTORE PUSH1 0x0 NOT ADD SWAP4 DUP5 DUP3 MSTORE PUSH1 0x20 SWAP5 PUSH1 0x1 DUP7 DUP5 ADD DUP1 SWAP6 EXTCODECOPY MLOAD SWAP6 DUP4 PUSH2 0xA29 DUP9 SWAP6 MLOAD DUP1 SWAP3 DUP9 DUP1 DUP10 ADD SWAP2 ADD PUSH2 0x1CF JUMP JUMPDEST DUP5 ADD SWAP2 MLOAD DUP1 SWAP4 DUP7 DUP5 ADD SWAP1 PUSH2 0x1CF JUMP JUMPDEST ADD SUB DUP1 DUP5 MSTORE ADD DUP3 PUSH2 0x117 JUMP JUMPDEST SWAP2 PUSH2 0x9B5 JUMP JUMPDEST PUSH2 0x9C9 JUMP JUMPDEST SWAP1 PUSH2 0xC10 PUSH2 0x2B4 SWAP5 PUSH2 0x2B4 PUSH2 0xBFF PUSH2 0x661 SWAP7 PUSH2 0xBAE SWAP6 PUSH2 0xA6D PUSH2 0x179 JUMP JUMPDEST PUSH1 0x40 MLOAD PUSH15 0x1E10A227A1AA2CA82290343A36B61F PUSH1 0x89 SHL PUSH1 0x20 DUP3 ADD MSTORE PUSH32 0x3C68746D6C3E3C686561643E3C6D65746120636861727365743D225554462D38 PUSH1 0x2F DUP3 ADD MSTORE PUSH2 0x111F PUSH1 0xF1 SHL PUSH1 0x4F DUP3 ADD MSTORE PUSH32 0x3C7374796C653E68746D6C7B6865696768743A313030257D626F64797B6D696E PUSH1 0x51 DUP3 ADD MSTORE PUSH32 0x2D6865696768743A313030253B6D617267696E3A303B70616464696E673A307D PUSH1 0x71 DUP3 ADD MSTORE PUSH32 0x63616E7661737B70616464696E673A303B6D617267696E3A6175746F3B646973 PUSH1 0x91 DUP3 ADD MSTORE PUSH32 0x706C61793A626C6F636B3B706F736974696F6E3A6162736F6C7574653B746F70 PUSH1 0xB1 DUP3 ADD MSTORE PUSH32 0x3A303B626F74746F6D3A303B6C6566743A303B72696768743A307D3C2F737479 PUSH1 0xD1 DUP3 ADD MSTORE PUSH3 0x36329F PUSH1 0xE9 SHL PUSH1 0xF1 DUP3 ADD MSTORE PUSH13 0x1E39B1B934B83A1039B9319E91 PUSH1 0x99 SHL PUSH1 0xF4 DUP3 ADD MSTORE SWAP8 DUP9 SWAP2 PUSH2 0xBE6 SWAP2 PUSH2 0xBC5 SWAP2 PUSH2 0x101 DUP6 ADD PUSH2 0x2B4 JUMP JUMPDEST PUSH11 0x111F1E17B9B1B934B83A1F PUSH1 0xA9 SHL DUP2 MSTORE PUSH1 0xB ADD SWAP1 JUMP JUMPDEST PUSH21 0x1E17B432B0B21F1E3137B23C9F1E39B1B934B83A1F PUSH1 0x59 SHL DUP2 MSTORE PUSH1 0x15 ADD SWAP1 JUMP JUMPDEST SUB SWAP8 PUSH2 0xBFA PUSH1 0x1F NOT SWAP10 DUP11 DUP2 ADD DUP11 MSTORE DUP10 PUSH2 0x117 JUMP JUMPDEST PUSH2 0xC1C JUMP JUMPDEST SWAP2 PUSH1 0x40 MLOAD SWAP8 DUP9 SWAP6 PUSH1 0x20 DUP8 ADD SWAP1 PUSH2 0x7B9 JUMP JUMPDEST SUB SWAP1 DUP2 ADD DUP4 MSTORE DUP3 PUSH2 0x117 JUMP JUMPDEST SWAP2 PUSH2 0xC9B SWAP2 PUSH2 0xCD5 PUSH2 0xCC8 PUSH2 0xC3E PUSH2 0xC38 DUP6 MLOAD MLOAD ISZERO ISZERO SWAP8 PUSH2 0x10FE JUMP JUMPDEST SWAP4 PUSH2 0xFA6 JUMP JUMPDEST PUSH2 0x2B4 PUSH2 0xCAA PUSH1 0x40 MLOAD SWAP8 DUP9 SWAP7 PUSH2 0x2B4 PUSH2 0xC72 PUSH1 0x20 DUP11 ADD PUSH1 0x11 SWAP1 PUSH17 0x1E17B9B1B934B83A1F1E39B1B934B83A1F PUSH1 0x79 SHL DUP2 MSTORE ADD SWAP1 JUMP JUMPDEST PUSH32 0x636F6E7374206D696E74696E6753656564203D20686578546F53656564282200 DUP2 MSTORE PUSH1 0x1F ADD SWAP1 JUMP JUMPDEST PUSH3 0x22293B PUSH1 0xE8 SHL DUP2 MSTORE PUSH1 0x3 ADD SWAP1 JUMP JUMPDEST PUSH18 0x31B7B739BA1036BABA30BA34B7B739901E9 PUSH1 0x75 SHL DUP2 MSTORE PUSH1 0x12 ADD SWAP1 JUMP JUMPDEST PUSH1 0x3B PUSH1 0xF8 SHL DUP2 MSTORE PUSH1 0x1 ADD SWAP1 JUMP JUMPDEST SUB SWAP3 PUSH2 0xCE9 PUSH1 0x1F NOT SWAP5 DUP6 DUP2 ADD DUP6 MSTORE DUP5 PUSH2 0x117 JUMP JUMPDEST ISZERO PUSH2 0xE18 JUMPI SWAP2 PUSH2 0x661 SWAP2 PUSH2 0xC10 PUSH2 0xDEF PUSH2 0xDA0 PUSH2 0xD43 PUSH2 0xCC8 PUSH2 0xD0E PUSH2 0xD21 SWAP10 PUSH2 0xE82 JUMP JUMPDEST PUSH2 0x2B4 PUSH1 0x40 MLOAD SWAP11 DUP12 SWAP9 PUSH1 0x20 DUP11 ADD SWAP1 PUSH2 0x7B9 JUMP JUMPDEST PUSH22 0x31B7B739BA1031BAB9BA37B6A830B632BA3A32901E9 PUSH1 0x55 SHL DUP2 MSTORE PUSH1 0x16 ADD SWAP1 JUMP JUMPDEST PUSH32 0x66756E6374696F6E2073657475702829207B2067656E6572617465286D696E74 DUP2 MSTORE PUSH32 0x696E67536565642C206D75746174696F6E732C20637573746F6D50616C657474 PUSH1 0x20 DUP3 ADD MSTORE PUSH5 0x65293B207D PUSH1 0xD8 SHL PUSH1 0x40 DUP3 ADD MSTORE PUSH1 0x45 ADD SWAP1 JUMP JUMPDEST PUSH32 0x66756E6374696F6E20686578546F53656564286829207B2072657475726E2070 DUP2 MSTORE PUSH32 0x61727365496E7428682E736C69636528302C3138292C3136293B207D00000000 PUSH1 0x20 DUP3 ADD MSTORE PUSH1 0x3C ADD SWAP1 JUMP JUMPDEST PUSH32 0x3C2F7363726970743E3C2F626F64793E3C2F68746D6C3E000000000000000000 DUP2 MSTORE PUSH1 0x17 ADD SWAP1 JUMP JUMPDEST POP PUSH2 0xE3A SWAP2 PUSH2 0x661 SWAP2 PUSH2 0xC10 PUSH2 0xDEF PUSH2 0xDA0 PUSH1 0x40 MLOAD SWAP7 DUP8 SWAP5 PUSH1 0x20 DUP7 ADD SWAP1 PUSH2 0x7B9 JUMP JUMPDEST PUSH32 0x66756E6374696F6E2073657475702829207B2067656E6572617465286D696E74 DUP2 MSTORE PUSH22 0x696E67536565642C206D75746174696F6E73293B207D PUSH1 0x50 SHL PUSH1 0x20 DUP3 ADD MSTORE PUSH1 0x36 ADD SWAP1 JUMP JUMPDEST DUP1 MLOAD PUSH1 0x20 DUP3 ADD MLOAD SWAP2 PUSH1 0x40 DUP2 ADD MLOAD SWAP1 PUSH1 0x60 DUP2 ADD MLOAD PUSH1 0x80 DUP3 ADD MLOAD SWAP2 PUSH1 0xA0 ADD MLOAD SWAP3 PUSH1 0x40 MLOAD SWAP6 DUP7 SWAP6 PUSH2 0x2D91 PUSH1 0xF1 SHL PUSH1 0x20 DUP9 ADD MSTORE DUP1 MLOAD SWAP1 DUP2 PUSH1 0x22 DUP10 ADD SWAP2 PUSH1 0x20 ADD SWAP2 PUSH2 0xEC7 SWAP3 PUSH2 0x1CF JUMP JUMPDEST DUP7 ADD PUSH3 0x111611 PUSH1 0xE9 SHL PUSH1 0x22 DUP3 ADD MSTORE PUSH1 0x25 ADD PUSH2 0xEE1 SWAP2 PUSH2 0x7B9 JUMP JUMPDEST PUSH3 0x111611 PUSH1 0xE9 SHL DUP2 MSTORE PUSH1 0x3 ADD PUSH2 0xEF6 SWAP2 PUSH2 0x7B9 JUMP JUMPDEST PUSH3 0x111611 PUSH1 0xE9 SHL DUP2 MSTORE PUSH1 0x3 ADD PUSH2 0xF0B SWAP2 PUSH2 0x7B9 JUMP JUMPDEST PUSH3 0x111611 PUSH1 0xE9 SHL DUP2 MSTORE PUSH1 0x3 ADD PUSH2 0xF20 SWAP2 PUSH2 0x7B9 JUMP JUMPDEST PUSH3 0x111611 PUSH1 0xE9 SHL DUP2 MSTORE PUSH1 0x3 ADD PUSH2 0xF35 SWAP2 PUSH2 0x7B9 JUMP JUMPDEST PUSH2 0x225D PUSH1 0xF0 SHL DUP2 MSTORE PUSH1 0x2 ADD SUB PUSH1 0x1F NOT DUP2 ADD DUP3 MSTORE PUSH2 0x661 SWAP1 DUP3 PUSH2 0x117 JUMP JUMPDEST PUSH1 0x40 MLOAD SWAP1 PUSH2 0xF5F DUP3 PUSH2 0xFB JUMP JUMPDEST PUSH1 0x2 DUP3 MSTORE PUSH2 0x5B5D PUSH1 0xF0 SHL PUSH1 0x20 DUP4 ADD MSTORE JUMP JUMPDEST PUSH1 0x40 MLOAD SWAP1 PUSH2 0xF7D DUP3 PUSH2 0xFB JUMP JUMPDEST PUSH1 0x1 DUP3 MSTORE PUSH1 0x5B PUSH1 0xF8 SHL PUSH1 0x20 DUP4 ADD MSTORE JUMP JUMPDEST DUP1 MLOAD DUP3 LT ISZERO PUSH2 0xFA1 JUMPI PUSH1 0x20 SWAP2 PUSH1 0x5 SHL ADD ADD SWAP1 JUMP JUMPDEST PUSH2 0x558 JUMP JUMPDEST DUP1 MLOAD ISZERO PUSH2 0x109B JUMPI PUSH2 0xFB5 PUSH2 0xF70 JUMP JUMPDEST PUSH1 0x0 SWAP1 JUMPDEST DUP3 MLOAD DUP3 LT ISZERO PUSH2 0x1071 JUMPI PUSH2 0x103F SWAP1 DUP3 PUSH2 0x1045 JUMPI JUMPDEST PUSH2 0xA44 PUSH1 0x20 PUSH2 0x2BA PUSH2 0x1031 PUSH2 0xFED DUP4 PUSH2 0xFE5 DUP10 DUP12 PUSH2 0xF8D JUMP JUMPDEST MLOAD ADD MLOAD PUSH2 0x10FE JUMP JUMPDEST PUSH2 0x2B4 PUSH2 0x1022 PUSH2 0xFFD DUP11 DUP13 PUSH2 0xF8D JUMP JUMPDEST MLOAD MLOAD SWAP3 PUSH2 0x2B4 PUSH2 0x1014 PUSH1 0x40 MLOAD SWAP11 DUP12 SWAP10 DUP11 ADD SWAP1 PUSH2 0x7B9 JUMP JUMPDEST PUSH2 0x2D91 PUSH1 0xF1 SHL DUP2 MSTORE PUSH1 0x2 ADD SWAP1 JUMP JUMPDEST PUSH3 0x111611 PUSH1 0xE9 SHL DUP2 MSTORE PUSH1 0x3 ADD SWAP1 JUMP JUMPDEST PUSH2 0x225D PUSH1 0xF0 SHL DUP2 MSTORE PUSH1 0x2 ADD SWAP1 JUMP JUMPDEST SWAP1 PUSH2 0xFB9 JUMP JUMPDEST PUSH2 0x106C PUSH2 0x105F SWAP2 PUSH2 0x2BA PUSH1 0x40 MLOAD SWAP4 DUP5 SWAP3 PUSH1 0x20 DUP5 ADD SWAP1 PUSH2 0x7B9 JUMP JUMPDEST PUSH1 0xB PUSH1 0xFA SHL DUP2 MSTORE PUSH1 0x1 ADD SWAP1 JUMP JUMPDEST PUSH2 0xFCC JUMP JUMPDEST PUSH2 0x108E SWAP3 POP PUSH2 0x661 SWAP2 POP PUSH2 0x2BA PUSH1 0x40 MLOAD SWAP4 DUP5 SWAP3 PUSH1 0x20 DUP5 ADD SWAP1 PUSH2 0x7B9 JUMP JUMPDEST PUSH1 0x5D PUSH1 0xF8 SHL DUP2 MSTORE PUSH1 0x1 ADD SWAP1 JUMP JUMPDEST POP PUSH2 0x661 PUSH2 0xF52 JUMP JUMPDEST DUP1 MLOAD ISZERO PUSH2 0xFA1 JUMPI PUSH1 0x20 ADD SWAP1 JUMP JUMPDEST DUP1 MLOAD PUSH1 0x1 LT ISZERO PUSH2 0xFA1 JUMPI PUSH1 0x21 ADD SWAP1 JUMP JUMPDEST SWAP1 DUP2 MLOAD DUP2 LT ISZERO PUSH2 0xFA1 JUMPI ADD PUSH1 0x20 ADD SWAP1 JUMP JUMPDEST PUSH1 0x40 MLOAD SWAP1 PUSH2 0x10DF DUP3 PUSH2 0xFB JUMP JUMPDEST PUSH1 0x10 DUP3 MSTORE PUSH16 0x181899199A1A9B1B9C1CB0B131B232B3 PUSH1 0x81 SHL PUSH1 0x20 DUP4 ADD MSTORE JUMP JUMPDEST SWAP1 PUSH1 0x40 MLOAD PUSH1 0x80 DUP2 ADD DUP2 DUP2 LT PUSH8 0xFFFFFFFFFFFFFFFF DUP3 GT OR PUSH2 0xDA JUMPI PUSH1 0x40 MSTORE PUSH1 0x42 DUP2 MSTORE PUSH1 0x20 PUSH1 0x60 CALLDATASIZE DUP3 DUP5 ADD CALLDATACOPY PUSH1 0x30 PUSH2 0x1134 DUP4 PUSH2 0x10A4 JUMP JUMPDEST MSTORE8 PUSH1 0x78 PUSH2 0x1140 DUP4 PUSH2 0x10B1 JUMP JUMPDEST MSTORE8 PUSH2 0x1149 PUSH2 0x10D2 JUMP JUMPDEST SWAP4 PUSH1 0x0 SWAP1 DUP2 JUMPDEST DUP4 DUP2 LT PUSH2 0x115F JUMPI POP SWAP3 SWAP5 POP POP POP POP JUMP JUMPDEST PUSH2 0x11D7 SWAP1 PUSH2 0x11B3 PUSH2 0x117F PUSH1 0xF DUP6 DUP5 BYTE PUSH2 0x118D DUP4 PUSH1 0x4 DUP4 SWAP1 SHR DUP5 AND DUP15 PUSH2 0x10C1 JUMP JUMPDEST MLOAD PUSH1 0x1 PUSH1 0x1 PUSH1 0xF8 SHL SUB NOT AND SWAP1 JUMP JUMPDEST PUSH2 0x11AB PUSH2 0x11A1 PUSH2 0x119C DUP9 PUSH2 0x862 JUMP JUMPDEST PUSH2 0x886 JUMP JUMPDEST SWAP2 DUP11 BYTE SWAP2 DUP13 PUSH2 0x10C1 JUMP JUMPDEST MSTORE8 AND DUP11 PUSH2 0x10C1 JUMP JUMPDEST PUSH2 0x11D1 PUSH2 0x11C7 PUSH2 0x11C2 DUP5 PUSH2 0x862 JUMP JUMPDEST PUSH2 0x894 JUMP JUMPDEST SWAP2 DUP7 BYTE SWAP2 DUP9 PUSH2 0x10C1 JUMP JUMPDEST MSTORE8 PUSH2 0x9B5 JUMP JUMPDEST PUSH2 0x114F JUMP INVALID LOG2 PUSH5 0x6970667358 0x22 SLT KECCAK256 RETURN SMOD PUSH30 0xE13368DCC63792F6C784D5B252F52861A724A29B9D4A3DB8B91EE1A7264 PUSH20 0x6F6C634300081400330000000000000000000000 "},"methodIdentifiers":{"P5JS_CDN()":"0ec328bf","SPATTERS_CONTRACT()":"ae397c90","STORAGE_ADDRESSES(uint256)":"c3d6e8a9","getSpattersScript()":"a7b3ed6c","getTokenHtml(uint256)":"779ad133","getTokenHtmlDataUri(uint256)":"49e0a493"}}}}}