{"contracts/Spatters.sol":{"Spatters":{"abi":[{"inputs":[],"stateMutability":"nonpayable","type":"constructor"},{"inputs":[],"name":"ERC721EnumerableForbiddenBatchMint","type":"error"},{"inputs":[{"internalType":"address","name":"sender","type":"address"},{"internalType":"uint256","name":"tokenId","type":"uint256"},{"internalType":"address","name":"owner","type":"address"}],"name":"ERC721IncorrectOwner","type":"error"},{"inputs":[{"internalType":"address","name":"operator","type":"address"},{"internalType":"uint256","name":"tokenId","type":"uint256"}],"name":"ERC721InsufficientApproval","type":"error"},{"inputs":[{"internalType":"address","name":"approver","type":"address"}],"name":"ERC721InvalidApprover","type":"error"},{"inputs":[{"internalType":"address","name":"operator","type":"address"}],"name":"ERC721InvalidOperator","type":"error"},{"inputs":[{"internalType":"address","name":"owner","type":"address"}],"name":"ERC721InvalidOwner","type":"error"},{"inputs":[{"internalType":"address","name":"receiver","type":"address"}],"name":"ERC721InvalidReceiver","type":"error"},{"inputs":[{"internalType":"address","name":"sender","type":"address"}],"name":"ERC721InvalidSender","type":"error"},{"inputs":[{"internalType":"uint256","name":"tokenId","type":"uint256"}],"name":"ERC721NonexistentToken","type":"error"},{"inputs":[{"internalType":"address","name":"owner","type":"address"},{"internalType":"uint256","name":"index","type":"uint256"}],"name":"ERC721OutOfBoundsIndex","type":"error"},{"inputs":[{"internalType":"address","name":"owner","type":"address"}],"name":"OwnableInvalidOwner","type":"error"},{"inputs":[{"internalType":"address","name":"account","type":"address"}],"name":"OwnableUnauthorizedAccount","type":"error"},{"inputs":[],"name":"ReentrancyGuardReentrantCall","type":"error"},{"anonymous":false,"inputs":[{"indexed":false,"internalType":"uint256","name":"tokenCount","type":"uint256"}],"name":"AllProposalBansCleared","type":"event"},{"anonymous":false,"inputs":[{"indexed":true,"internalType":"address","name":"owner","type":"address"},{"indexed":true,"internalType":"address","name":"approved","type":"address"},{"indexed":true,"internalType":"uint256","name":"tokenId","type":"uint256"}],"name":"Approval","type":"event"},{"anonymous":false,"inputs":[{"indexed":true,"internalType":"address","name":"owner","type":"address"},{"indexed":true,"internalType":"address","name":"operator","type":"address"},{"indexed":false,"internalType":"bool","name":"approved","type":"bool"}],"name":"ApprovalForAll","type":"event"},{"anonymous":false,"inputs":[{"indexed":false,"internalType":"string","name":"newURI","type":"string"}],"name":"BaseURIUpdatedByCommunity","type":"event"},{"anonymous":false,"inputs":[{"indexed":false,"internalType":"string","name":"newURI","type":"string"}],"name":"BaseURIUpdatedByOwner","type":"event"},{"anonymous":false,"inputs":[{"indexed":true,"internalType":"address","name":"oldGenerator","type":"address"},{"indexed":true,"internalType":"address","name":"newGenerator","type":"address"}],"name":"GeneratorContractUpdated","type":"event"},{"anonymous":false,"inputs":[{"indexed":true,"internalType":"address","name":"lockedGenerator","type":"address"}],"name":"GeneratorPermanentlyLocked","type":"event"},{"anonymous":false,"inputs":[{"indexed":true,"internalType":"address","name":"requester","type":"address"},{"indexed":false,"internalType":"bytes32[3]","name":"seeds","type":"bytes32[3]"},{"indexed":false,"internalType":"uint256","name":"timestamp","type":"uint256"},{"indexed":false,"internalType":"bool","name":"isOwnerMint","type":"bool"}],"name":"MintRequested","type":"event"},{"anonymous":false,"inputs":[{"indexed":true,"internalType":"uint256","name":"tokenId","type":"uint256"},{"indexed":true,"internalType":"address","name":"minter","type":"address"},{"indexed":false,"internalType":"bytes32","name":"seed","type":"bytes32"},{"indexed":false,"internalType":"bool","name":"hasCustomPalette","type":"bool"},{"indexed":false,"internalType":"uint256","name":"timestamp","type":"uint256"}],"name":"Minted","type":"event"},{"anonymous":false,"inputs":[{"indexed":true,"internalType":"uint256","name":"tokenId","type":"uint256"},{"indexed":true,"internalType":"uint256","name":"mutationIndex","type":"uint256"},{"indexed":false,"internalType":"string","name":"mutationType","type":"string"},{"indexed":false,"internalType":"bytes32","name":"seed","type":"bytes32"},{"indexed":false,"internalType":"uint256","name":"timestamp","type":"uint256"}],"name":"Mutated","type":"event"},{"anonymous":false,"inputs":[{"indexed":true,"internalType":"address","name":"recipient","type":"address"},{"indexed":false,"internalType":"bytes32[3]","name":"seeds","type":"bytes32[3]"},{"indexed":false,"internalType":"uint256","name":"timestamp","type":"uint256"}],"name":"OwnerMintRequested","type":"event"},{"anonymous":false,"inputs":[{"indexed":true,"internalType":"address","name":"previousOwner","type":"address"},{"indexed":true,"internalType":"address","name":"newOwner","type":"address"}],"name":"OwnershipTransferred","type":"event"},{"anonymous":false,"inputs":[{"indexed":true,"internalType":"address","name":"proposer","type":"address"},{"indexed":false,"internalType":"string","name":"proposedURI","type":"string"},{"indexed":false,"internalType":"uint256","name":"timestamp","type":"uint256"},{"indexed":false,"internalType":"uint256","name":"proposerTokenId","type":"uint256"}],"name":"ProposalCreated","type":"event"},{"anonymous":false,"inputs":[{"indexed":false,"internalType":"string","name":"proposedURI","type":"string"},{"indexed":false,"internalType":"uint256","name":"proposerTokenId","type":"uint256"}],"name":"ProposalExpired","type":"event"},{"anonymous":false,"inputs":[{"indexed":false,"internalType":"string","name":"lockedURI","type":"string"}],"name":"ProposalLocked","type":"event"},{"anonymous":false,"inputs":[{"indexed":false,"internalType":"string","name":"proposedURI","type":"string"},{"indexed":false,"internalType":"uint256","name":"timestamp","type":"uint256"}],"name":"ProposalThresholdReached","type":"event"},{"anonymous":false,"inputs":[{"indexed":true,"internalType":"address","name":"newReceiver","type":"address"}],"name":"RoyaltyReceiverUpdated","type":"event"},{"anonymous":false,"inputs":[{"indexed":true,"internalType":"uint256","name":"tokenId","type":"uint256"}],"name":"TokenBannedFromProposing","type":"event"},{"anonymous":false,"inputs":[{"indexed":true,"internalType":"address","name":"from","type":"address"},{"indexed":true,"internalType":"address","name":"to","type":"address"},{"indexed":true,"internalType":"uint256","name":"tokenId","type":"uint256"}],"name":"Transfer","type":"event"},{"anonymous":false,"inputs":[{"indexed":true,"internalType":"address","name":"voter","type":"address"},{"indexed":false,"internalType":"uint256","name":"tokenCount","type":"uint256"}],"name":"VoteCast","type":"event"},{"inputs":[],"name":"CONFIRMATION_WINDOW","outputs":[{"internalType":"uint256","name":"","type":"uint256"}],"stateMutability":"view","type":"function"},{"inputs":[],"name":"GLOBAL_COOLDOWN","outputs":[{"internalType":"uint256","name":"","type":"uint256"}],"stateMutability":"view","type":"function"},{"inputs":[],"name":"GOVERNANCE_DELAY","outputs":[{"internalType":"uint256","name":"","type":"uint256"}],"stateMutability":"view","type":"function"},{"inputs":[],"name":"MAX_SUPPLY","outputs":[{"internalType":"uint256","name":"","type":"uint256"}],"stateMutability":"view","type":"function"},{"inputs":[],"name":"MILESTONE_100","outputs":[{"internalType":"uint256","name":"","type":"uint256"}],"stateMutability":"view","type":"function"},{"inputs":[],"name":"MILESTONE_500","outputs":[{"internalType":"uint256","name":"","type":"uint256"}],"stateMutability":"view","type":"function"},{"inputs":[],"name":"MILESTONE_750","outputs":[{"internalType":"uint256","name":"","type":"uint256"}],"stateMutability":"view","type":"function"},{"inputs":[],"name":"MILESTONE_999","outputs":[{"internalType":"uint256","name":"","type":"uint256"}],"stateMutability":"view","type":"function"},{"inputs":[],"name":"OWNER_RESERVE","outputs":[{"internalType":"uint256","name":"","type":"uint256"}],"stateMutability":"view","type":"function"},{"inputs":[],"name":"PROPOSAL_COOLDOWN","outputs":[{"internalType":"uint256","name":"","type":"uint256"}],"stateMutability":"view","type":"function"},{"inputs":[],"name":"REQUEST_EXPIRATION","outputs":[{"internalType":"uint256","name":"","type":"uint256"}],"stateMutability":"view","type":"function"},{"inputs":[],"name":"ROYALTY_BPS","outputs":[{"internalType":"uint96","name":"","type":"uint96"}],"stateMutability":"view","type":"function"},{"inputs":[],"name":"VOTING_PERIOD","outputs":[{"internalType":"uint256","name":"","type":"uint256"}],"stateMutability":"view","type":"function"},{"inputs":[],"name":"activeMintRequestTime","outputs":[{"internalType":"uint256","name":"","type":"uint256"}],"stateMutability":"view","type":"function"},{"inputs":[],"name":"activeMintRequester","outputs":[{"internalType":"address","name":"","type":"address"}],"stateMutability":"view","type":"function"},{"inputs":[{"internalType":"uint256","name":"","type":"uint256"}],"name":"allowedMutations","outputs":[{"internalType":"string","name":"","type":"string"}],"stateMutability":"view","type":"function"},{"inputs":[{"internalType":"address","name":"to","type":"address"},{"internalType":"uint256","name":"tokenId","type":"uint256"}],"name":"approve","outputs":[],"stateMutability":"nonpayable","type":"function"},{"inputs":[],"name":"approveProposal","outputs":[],"stateMutability":"nonpayable","type":"function"},{"inputs":[{"internalType":"address","name":"owner","type":"address"}],"name":"balanceOf","outputs":[{"internalType":"uint256","name":"","type":"uint256"}],"stateMutability":"view","type":"function"},{"inputs":[{"internalType":"uint256","name":"","type":"uint256"}],"name":"bannedTokenIds","outputs":[{"internalType":"uint256","name":"","type":"uint256"}],"stateMutability":"view","type":"function"},{"inputs":[],"name":"baseURI","outputs":[{"internalType":"string","name":"","type":"string"}],"stateMutability":"view","type":"function"},{"inputs":[{"internalType":"uint256","name":"tokenId","type":"uint256"}],"name":"canMutate","outputs":[{"internalType":"bool","name":"","type":"bool"}],"stateMutability":"view","type":"function"},{"inputs":[{"internalType":"uint8","name":"seedChoice","type":"uint8"}],"name":"completeMint","outputs":[],"stateMutability":"nonpayable","type":"function"},{"inputs":[{"internalType":"uint8","name":"seedChoice","type":"uint8"}],"name":"completeOwnerMint","outputs":[],"stateMutability":"nonpayable","type":"function"},{"inputs":[],"name":"confirmProposal","outputs":[],"stateMutability":"nonpayable","type":"function"},{"inputs":[],"name":"currentProposal","outputs":[{"internalType":"address","name":"proposer","type":"address"},{"internalType":"string","name":"proposedBaseURI","type":"string"},{"internalType":"uint256","name":"proposalTime","type":"uint256"},{"internalType":"uint256","name":"totalVotesWeight","type":"uint256"},{"internalType":"bool","name":"locked","type":"bool"},{"internalType":"bool","name":"thresholdReached","type":"bool"},{"internalType":"uint256","name":"thresholdReachedTime","type":"uint256"},{"internalType":"bool","name":"executed","type":"bool"},{"internalType":"uint256","name":"proposerTokenId","type":"uint256"}],"stateMutability":"view","type":"function"},{"inputs":[{"internalType":"uint256","name":"","type":"uint256"},{"internalType":"uint256","name":"","type":"uint256"}],"name":"customPalettes","outputs":[{"internalType":"string","name":"","type":"string"}],"stateMutability":"view","type":"function"},{"inputs":[],"name":"deploymentTime","outputs":[{"internalType":"uint256","name":"","type":"uint256"}],"stateMutability":"view","type":"function"},{"inputs":[],"name":"generatorContract","outputs":[{"internalType":"address","name":"","type":"address"}],"stateMutability":"view","type":"function"},{"inputs":[],"name":"generatorLocked","outputs":[{"internalType":"bool","name":"","type":"bool"}],"stateMutability":"view","type":"function"},{"inputs":[],"name":"getAllowedMutations","outputs":[{"internalType":"string[]","name":"","type":"string[]"}],"stateMutability":"view","type":"function"},{"inputs":[{"internalType":"uint256","name":"tokenId","type":"uint256"}],"name":"getApproved","outputs":[{"internalType":"address","name":"","type":"address"}],"stateMutability":"view","type":"function"},{"inputs":[],"name":"getBannedTokenCount","outputs":[{"internalType":"uint256","name":"","type":"uint256"}],"stateMutability":"view","type":"function"},{"inputs":[],"name":"getCurrentPrice","outputs":[{"internalType":"uint256","name":"","type":"uint256"}],"stateMutability":"view","type":"function"},{"inputs":[],"name":"getCurrentProposal","outputs":[{"internalType":"address","name":"proposer","type":"address"},{"internalType":"string","name":"proposedURI","type":"string"},{"internalType":"uint256","name":"proposalTime","type":"uint256"},{"internalType":"uint256","name":"totalVotes","type":"uint256"},{"internalType":"bool","name":"locked","type":"bool"},{"internalType":"bool","name":"thresholdReached","type":"bool"},{"internalType":"uint256","name":"thresholdTime","type":"uint256"},{"internalType":"bool","name":"executed","type":"bool"},{"internalType":"uint256","name":"proposerTokenId","type":"uint256"}],"stateMutability":"view","type":"function"},{"inputs":[{"internalType":"uint256","name":"tokenId","type":"uint256"}],"name":"getCustomPalette","outputs":[{"internalType":"string[6]","name":"","type":"string[6]"}],"stateMutability":"view","type":"function"},{"inputs":[],"name":"getPendingRequest","outputs":[{"components":[{"internalType":"bytes32[3]","name":"seeds","type":"bytes32[3]"},{"internalType":"uint256","name":"timestamp","type":"uint256"},{"internalType":"bool","name":"completed","type":"bool"},{"internalType":"address","name":"recipient","type":"address"},{"internalType":"bool","name":"isOwnerMint","type":"bool"},{"internalType":"bool","name":"hasCustomPalette","type":"bool"}],"internalType":"struct Spatters.MintRequest","name":"","type":"tuple"}],"stateMutability":"view","type":"function"},{"inputs":[{"internalType":"uint256","name":"tokenId","type":"uint256"}],"name":"getTokenMutations","outputs":[{"components":[{"internalType":"string","name":"mutationType","type":"string"},{"internalType":"bytes32","name":"seed","type":"bytes32"},{"internalType":"uint256","name":"timestamp","type":"uint256"}],"internalType":"struct Spatters.MutationRecord[]","name":"","type":"tuple[]"}],"stateMutability":"view","type":"function"},{"inputs":[{"internalType":"uint256","name":"tokenId","type":"uint256"}],"name":"hasTokenVoted","outputs":[{"internalType":"bool","name":"","type":"bool"}],"stateMutability":"view","type":"function"},{"inputs":[{"internalType":"address","name":"owner","type":"address"},{"internalType":"address","name":"operator","type":"address"}],"name":"isApprovedForAll","outputs":[{"internalType":"bool","name":"","type":"bool"}],"stateMutability":"view","type":"function"},{"inputs":[],"name":"isMintSelectionInProgress","outputs":[{"internalType":"bool","name":"active","type":"bool"},{"internalType":"address","name":"requester","type":"address"},{"internalType":"uint256","name":"expiresAt","type":"uint256"}],"stateMutability":"view","type":"function"},{"inputs":[{"internalType":"uint256","name":"tokenId","type":"uint256"}],"name":"isTokenBanned","outputs":[{"internalType":"bool","name":"","type":"bool"}],"stateMutability":"view","type":"function"},{"inputs":[],"name":"lastGlobalMintTime","outputs":[{"internalType":"uint256","name":"","type":"uint256"}],"stateMutability":"view","type":"function"},{"inputs":[{"internalType":"uint256","name":"","type":"uint256"}],"name":"lastMutationDay","outputs":[{"internalType":"uint256","name":"","type":"uint256"}],"stateMutability":"view","type":"function"},{"inputs":[],"name":"lastProposalTime","outputs":[{"internalType":"uint256","name":"","type":"uint256"}],"stateMutability":"view","type":"function"},{"inputs":[],"name":"lockGenerator","outputs":[],"stateMutability":"nonpayable","type":"function"},{"inputs":[{"internalType":"uint256","name":"tokenId","type":"uint256"},{"internalType":"string","name":"mutationType","type":"string"}],"name":"mutate","outputs":[],"stateMutability":"nonpayable","type":"function"},{"inputs":[],"name":"name","outputs":[{"internalType":"string","name":"","type":"string"}],"stateMutability":"view","type":"function"},{"inputs":[],"name":"owner","outputs":[{"internalType":"address","name":"","type":"address"}],"stateMutability":"view","type":"function"},{"inputs":[{"internalType":"address","name":"to","type":"address"},{"internalType":"string[6]","name":"customPalette","type":"string[6]"},{"internalType":"bytes32","name":"customSeed","type":"bytes32"}],"name":"ownerMint","outputs":[],"stateMutability":"nonpayable","type":"function"},{"inputs":[{"internalType":"uint256","name":"tokenId","type":"uint256"},{"internalType":"string","name":"mutationType","type":"string"}],"name":"ownerMutate","outputs":[],"stateMutability":"nonpayable","type":"function"},{"inputs":[{"internalType":"uint256","name":"tokenId","type":"uint256"}],"name":"ownerOf","outputs":[{"internalType":"address","name":"","type":"address"}],"stateMutability":"view","type":"function"},{"inputs":[{"internalType":"uint256","name":"","type":"uint256"}],"name":"pendingPalette","outputs":[{"internalType":"string","name":"","type":"string"}],"stateMutability":"view","type":"function"},{"inputs":[],"name":"pendingRequest","outputs":[{"internalType":"uint256","name":"timestamp","type":"uint256"},{"internalType":"bool","name":"completed","type":"bool"},{"internalType":"address","name":"recipient","type":"address"},{"internalType":"bool","name":"isOwnerMint","type":"bool"},{"internalType":"bool","name":"hasCustomPalette","type":"bool"}],"stateMutability":"view","type":"function"},{"inputs":[],"name":"proposalGeneration","outputs":[{"internalType":"uint256","name":"","type":"uint256"}],"stateMutability":"view","type":"function"},{"inputs":[{"internalType":"string","name":"newURI","type":"string"}],"name":"proposeBaseURI","outputs":[],"stateMutability":"nonpayable","type":"function"},{"inputs":[],"name":"renounceOwnership","outputs":[],"stateMutability":"nonpayable","type":"function"},{"inputs":[],"name":"requestMint","outputs":[{"internalType":"bytes32[3]","name":"","type":"bytes32[3]"}],"stateMutability":"payable","type":"function"},{"inputs":[{"internalType":"address","name":"to","type":"address"},{"internalType":"string[6]","name":"customPalette","type":"string[6]"}],"name":"requestOwnerMint","outputs":[{"internalType":"bytes32[3]","name":"","type":"bytes32[3]"}],"stateMutability":"nonpayable","type":"function"},{"inputs":[{"internalType":"uint256","name":"tokenId","type":"uint256"},{"internalType":"uint256","name":"salePrice","type":"uint256"}],"name":"royaltyInfo","outputs":[{"internalType":"address","name":"receiver","type":"address"},{"internalType":"uint256","name":"royaltyAmount","type":"uint256"}],"stateMutability":"view","type":"function"},{"inputs":[],"name":"royaltyReceiver","outputs":[{"internalType":"address","name":"","type":"address"}],"stateMutability":"view","type":"function"},{"inputs":[{"internalType":"address","name":"from","type":"address"},{"internalType":"address","name":"to","type":"address"},{"internalType":"uint256","name":"tokenId","type":"uint256"}],"name":"safeTransferFrom","outputs":[],"stateMutability":"nonpayable","type":"function"},{"inputs":[{"internalType":"address","name":"from","type":"address"},{"internalType":"address","name":"to","type":"address"},{"internalType":"uint256","name":"tokenId","type":"uint256"},{"internalType":"bytes","name":"data","type":"bytes"}],"name":"safeTransferFrom","outputs":[],"stateMutability":"nonpayable","type":"function"},{"inputs":[{"internalType":"address","name":"operator","type":"address"},{"internalType":"bool","name":"approved","type":"bool"}],"name":"setApprovalForAll","outputs":[],"stateMutability":"nonpayable","type":"function"},{"inputs":[{"internalType":"string","name":"newURI","type":"string"}],"name":"setBaseURI","outputs":[],"stateMutability":"nonpayable","type":"function"},{"inputs":[{"internalType":"address","name":"_generator","type":"address"}],"name":"setGeneratorContract","outputs":[],"stateMutability":"nonpayable","type":"function"},{"inputs":[{"internalType":"address","name":"newReceiver","type":"address"}],"name":"setRoyaltyReceiver","outputs":[],"stateMutability":"nonpayable","type":"function"},{"inputs":[{"internalType":"bytes4","name":"interfaceId","type":"bytes4"}],"name":"supportsInterface","outputs":[{"internalType":"bool","name":"","type":"bool"}],"stateMutability":"view","type":"function"},{"inputs":[],"name":"symbol","outputs":[{"internalType":"string","name":"","type":"string"}],"stateMutability":"view","type":"function"},{"inputs":[{"internalType":"uint256","name":"","type":"uint256"}],"name":"tokenBannedFromProposing","outputs":[{"internalType":"bool","name":"","type":"bool"}],"stateMutability":"view","type":"function"},{"inputs":[{"internalType":"uint256","name":"index","type":"uint256"}],"name":"tokenByIndex","outputs":[{"internalType":"uint256","name":"","type":"uint256"}],"stateMutability":"view","type":"function"},{"inputs":[{"internalType":"uint256","name":"","type":"uint256"},{"internalType":"uint256","name":"","type":"uint256"}],"name":"tokenMutations","outputs":[{"internalType":"string","name":"mutationType","type":"string"},{"internalType":"bytes32","name":"seed","type":"bytes32"},{"internalType":"uint256","name":"timestamp","type":"uint256"}],"stateMutability":"view","type":"function"},{"inputs":[{"internalType":"address","name":"owner","type":"address"},{"internalType":"uint256","name":"index","type":"uint256"}],"name":"tokenOfOwnerByIndex","outputs":[{"internalType":"uint256","name":"","type":"uint256"}],"stateMutability":"view","type":"function"},{"inputs":[{"internalType":"uint256","name":"tokenId","type":"uint256"}],"name":"tokenURI","outputs":[{"internalType":"string","name":"","type":"string"}],"stateMutability":"view","type":"function"},{"inputs":[{"internalType":"uint256","name":"","type":"uint256"}],"name":"tokenVoteGeneration","outputs":[{"internalType":"uint256","name":"","type":"uint256"}],"stateMutability":"view","type":"function"},{"inputs":[{"internalType":"uint256","name":"","type":"uint256"}],"name":"tokens","outputs":[{"internalType":"bytes32","name":"mintSeed","type":"bytes32"},{"internalType":"uint256","name":"mintTimestamp","type":"uint256"}],"stateMutability":"view","type":"function"},{"inputs":[],"name":"totalSupply","outputs":[{"internalType":"uint256","name":"","type":"uint256"}],"stateMutability":"view","type":"function"},{"inputs":[{"internalType":"address","name":"from","type":"address"},{"internalType":"address","name":"to","type":"address"},{"internalType":"uint256","name":"tokenId","type":"uint256"}],"name":"transferFrom","outputs":[],"stateMutability":"nonpayable","type":"function"},{"inputs":[{"internalType":"address","name":"newOwner","type":"address"}],"name":"transferOwnership","outputs":[],"stateMutability":"nonpayable","type":"function"},{"inputs":[],"name":"withdraw","outputs":[],"stateMutability":"nonpayable","type":"function"}],"evm":{"bytecode":{"linkReferences":{},"object":"60a0346200166e576001600160401b0390604090808201838111828210176200165a5782526008815260209067537061747465727360c01b82820152825193838501858110828211176200165a5784526004918286526314d4105560e21b8487015280518281116200147a575f54906001928383811c931680156200164f575b878410146200155b578190601f93848111620015fc575b50879084831160011462001598575f926200158c575b50505f19600383901b1c191690831b175f555b865190838211620015795782548381811c911680156200156e575b878210146200155b5781811162001513575b5085908211600114620014af57819293949596975f92620014a3575b50505f19600383901b1c191690821b1781555b33156200148d57600a80546001600160a01b0319808216339081179093559291906001600160a01b03167f8be0079c531659141344cd1fd0a4f28419497f9722a3daafe3b4186f6b6457e05f80a36029553390600b541617600b5542608052620001a76200018862001672565b70617370656374526174696f4368616e676560781b858201526200198a565b620001d5620001b562001696565b7162617365526164697573496e63726561736560701b858201526200198a565b62000203620001e362001696565b7162617365526164697573446563726561736560701b858201526200198a565b620002316200021162001696565b716772616469656e74547970654368616e676560701b858201526200198a565b6200025f6200023f62001696565b7164697669646572436f756e744368616e676560701b858201526200198a565b6200028c6200026d62001672565b70636972636c65436f756e744368616e676560781b858201526200198a565b620002b76200029a620016ba565b6e6c696e65436f756e744368616e676560881b858201526200198a565b620002e5620002c562001696565b71636972636c6553697a65496e63726561736560701b858201526200198a565b62000313620002f362001696565b71636972636c6553697a65446563726561736560701b858201526200198a565b6200034c62000321620016de565b7f636972636c65506f736974696f6e4368616e6765000000000000000000000000858201526200198a565b620003766200035a62001702565b6d18da5c98db19535bdd995319599d60921b858201526200198a565b620003a162000384620016ba565b6e18da5c98db19535bdd99549a59da1d608a1b858201526200198a565b620003c9620003af62001726565b6b0636972636c654d6f766555760a41b858201526200198a565b620003f3620003d762001702565b6d31b4b931b632a6b7bb32a237bbb760911b858201526200198a565b620004206200040162001672565b706c696e655769647468496e63726561736560781b858201526200198a565b6200044d6200042e62001672565b706c696e655769647468446563726561736560781b858201526200198a565b620004786200045b620016ba565b6e6c696e65416e676c654368616e676560881b858201526200198a565b620004a66200048662001696565b716c696e654c656e677468496e63726561736560701b858201526200198a565b620004d4620004b462001696565b716c696e654c656e677468446563726561736560701b858201526200198a565b62000502620004e262001696565b716c696e65506f736974696f6e4368616e676560701b858201526200198a565b6200052a6200051062001726565b6b1b1a5b99535bdd995319599d60a21b858201526200198a565b62000553620005386200174a565b6c1b1a5b99535bdd99549a59da1d609a1b858201526200198a565b8351848101818110838211176200147a578552600a81526906c696e654d6f766555760b41b8482015262000587906200198a565b620005af6200059562001726565b6b3634b732a6b7bb32a237bbb760a11b858201526200198a565b620005db620005bd6200176e565b6f70616c657474654368616e67654f6e6560801b858201526200198a565b62000607620005e96200176e565b6f1c185b195d1d1950da185b99d9505b1b60821b858201526200198a565b620006346200061562001672565b7070616c65747465436f6d62696e654f6e6560781b858201526200198a565b620006616200064262001672565b701c185b195d1d1950dbdb589a5b99505b1b607a1b858201526200198a565b6200068c6200066f620016ba565b6e70616c6574746552657365744f6e6560881b858201526200198a565b620006b76200069a620016ba565b6e1c185b195d1d1954995cd95d105b1b608a1b858201526200198a565b620006e1620006c562001702565b6d70616c6574746553687566666c6560901b858201526200198a565b62000708620006ef62001792565b6a646976696465724d6f766560a81b858201526200198a565b62000731620007166200174a565b6c64697669646572526f7461746560981b858201526200198a565b8351848101818110838211176200147a5785526006815265726f7461746560d01b8482015262000761906200198a565b6200079a6200076f620017b6565b7f73656564506f696e74436f756e74496e63726561736500000000000000000000858201526200198a565b620007d3620007a8620017b6565b7f73656564506f696e74436f756e74446563726561736500000000000000000000858201526200198a565b62000801620007e162001696565b711cd959591c1bda5b9d135bdd99549a59da1d60721b858201526200198a565b6200082e6200080f62001672565b701cd959591c1bda5b9d135bdd995319599d607a1b858201526200198a565b620008596200083c620016ba565b6e073656564706f696e744d6f7665557608c1b858201526200198a565b620008866200086762001672565b7039b2b2b23837b4b73a26b7bb32a237bbb760791b858201526200198a565b620008bf62000894620017da565b7f73656564706f696e744368616e6765437572766543656e746572000000000000858201526200198a565b620008f8620008cd620017da565b7f73656564706f696e74496e637265617365436f6e636176697479000000000000858201526200198a565b6200093162000906620017da565b7f73656564706f696e744465637265617365436f6e636176697479000000000000858201526200198a565b6200096a6200093f620017fe565b7f73656564706f696e74496e637265617365526164697573000000000000000000858201526200198a565b620009a362000978620017fe565b7f73656564706f696e744465637265617365526164697573000000000000000000858201526200198a565b620009ca620009b162001792565b6a1cda185c19515e1c185b9960aa1b858201526200198a565b620009f1620009d862001792565b6a7368617065536872696e6b60a81b858201526200198a565b62000a1b620009ff62001702565b6d39b430b832a6b0b5b2abb4b232b960911b858201526200198a565b62000a4862000a2962001672565b7039b430b832a6b0b5b2a730b93937bbb2b960791b858201526200198a565b62000a7362000a56620016ba565b6e39b430b832a6b0b5b2a434b3b432b960891b858201526200198a565b62000a9f62000a816200176e565b6f39b430b832a6b0b5b2a9b437b93a32b960811b858201526200198a565b62000ad862000aad620017fe565b7f73686170654368616e6765437572766543656e74657273000000000000000000858201526200198a565b62000b1162000ae6620017b6565b7f7368617065496e637265617365436f6e63617669747900000000000000000000858201526200198a565b62000b4a62000b1f620016de565b7f7368617065526564756365436f6e636176697479000000000000000000000000858201526200198a565b62000b8362000b5862001822565b7f73686170654368616e6765526164697573657300000000000000000000000000858201526200198a565b8351848101818110838211176200147a578552600981526873686170654d6f766560b81b8482015262000bb6906200198a565b62000bde62000bc462001726565b6b3ab73237a6baba30ba34b7b760a11b858201526200198a565b62000c1762000bec620017fe565b7f72657475726e546f50726576696f757356657273696f6e000000000000000000858201526200198a565b62000c5062000c25620017b6565b7f73656564706f696e744d6f766552696768742d746f7000000000000000000000858201526200198a565b62000c8962000c5e62001846565b7f73656564706f696e744d6f76654c6566742d746f700000000000000000000000858201526200198a565b62000cc262000c9762001822565b7f73656564706f696e744d6f766555702d746f7000000000000000000000000000858201526200198a565b62000cfb62000cd062001846565b7f73656564706f696e744d6f7665446f776e2d746f700000000000000000000000858201526200198a565b62000d3462000d096200186a565b7f73656564706f696e744368616e6765437572766543656e7465722d746f700000858201526200198a565b62000d6d62000d426200186a565b7f73656564706f696e74496e637265617365436f6e6361766974792d746f700000858201526200198a565b62000da662000d7b6200186a565b7f73656564706f696e744465637265617365436f6e6361766974792d746f700000858201526200198a565b62000ddf62000db46200188e565b7f73656564706f696e74496e6372656173655261646975732d746f700000000000858201526200198a565b62000e1862000ded6200188e565b7f73656564706f696e7444656372656173655261646975732d746f700000000000858201526200198a565b8351918285019182118383101762001467575062001442929162000e67918552601981527f73656564706f696e744d6f766552696768742d626f74746f6d00000000000000838201526200198a565b62000ea062000e75620018b2565b7f73656564706f696e744d6f76654c6566742d626f74746f6d0000000000000000838201526200198a565b62000ed962000eae620017b6565b7f73656564706f696e744d6f766555702d626f74746f6d00000000000000000000838201526200198a565b62000f1262000ee7620018b2565b7f73656564706f696e744d6f7665446f776e2d626f74746f6d0000000000000000838201526200198a565b62000fd262000f20620018d6565b7f73656564706f696e744368616e6765437572766543656e7465722d626f74746f8382015262000f5a606d60f81b9182878201526200198a565b62000f9862000f68620018d6565b7f73656564706f696e74496e637265617365436f6e6361766974792d626f74746f8582015282878201526200198a565b62000fa2620018d6565b907f73656564706f696e744465637265617365436f6e6361766974792d626f74746f84830152858201526200198a565b6200100b62000fe06200186a565b7f73656564706f696e74496e6372656173655261646975732d626f74746f6d0000838201526200198a565b62001044620010196200186a565b7f73656564706f696e7444656372656173655261646975732d626f74746f6d0000838201526200198a565b6200107d62001052620017fe565b7f73656564706f696e744d6f766552696768742d6c656674000000000000000000838201526200198a565b620010b66200108b620017b6565b7f73656564706f696e744d6f76654c6566742d6c65667400000000000000000000838201526200198a565b620010ef620010c4620016de565b7f73656564706f696e744d6f766555702d6c656674000000000000000000000000838201526200198a565b62001128620010fd620017b6565b7f73656564706f696e744d6f7665446f776e2d6c65667400000000000000000000838201526200198a565b6200116162001136620018fa565b7f73656564706f696e744368616e6765437572766543656e7465722d6c65667400838201526200198a565b6200119a6200116f620018fa565b7f73656564706f696e74496e637265617365436f6e6361766974792d6c65667400838201526200198a565b620011d3620011a8620018fa565b7f73656564706f696e744465637265617365436f6e6361766974792d6c65667400838201526200198a565b6200120c620011e16200191e565b7f73656564706f696e74496e6372656173655261646975732d6c65667400000000838201526200198a565b620012456200121a6200191e565b7f73656564706f696e7444656372656173655261646975732d6c65667400000000838201526200198a565b6200127e62001253620018b2565b7f73656564706f696e744d6f766552696768742d72696768740000000000000000838201526200198a565b620012b76200128c620017fe565b7f73656564706f696e744d6f76654c6566742d7269676874000000000000000000838201526200198a565b620012f0620012c562001846565b7f73656564706f696e744d6f766555702d72696768740000000000000000000000838201526200198a565b62001329620012fe620017fe565b7f73656564706f696e744d6f7665446f776e2d7269676874000000000000000000838201526200198a565b620013626200133762001942565b7f73656564706f696e744368616e6765437572766543656e7465722d7269676874838201526200198a565b6200139b6200137062001942565b7f73656564706f696e74496e637265617365436f6e6361766974792d7269676874838201526200198a565b620013d4620013a962001942565b7f73656564706f696e744465637265617365436f6e6361766974792d7269676874838201526200198a565b6200140d620013e262001966565b7f73656564706f696e74496e6372656173655261646975732d7269676874000000838201526200198a565b7f73656564706f696e7444656372656173655261646975732d72696768740000006200143862001966565b918201526200198a565b51615561908162001b48823960805181818161065201528181611b6001526129da0152f35b604190634e487b7160e01b5f525260245ffd5b604184634e487b7160e01b5f525260245ffd5b8451631e4fbdf760e01b81525f81850152602490fd5b015190505f8062000108565b601f19821690835f52865f20915f5b818110620014fd5750988385969798999a10620014e4575b505050811b0181556200011b565b01515f1960f88460031b161c191690555f8080620014d6565b8a830151845592850192918801918801620014be565b835f52865f208280850160051c82019289861062001551575b0160051c019084905b82811062001545575050620000ec565b5f815501849062001535565b925081926200152c565b602286634e487b7160e01b5f525260245ffd5b90607f1690620000da565b604185634e487b7160e01b5f525260245ffd5b015190505f80620000ac565b90859350601f198316915f8052895f20925f5b8b828210620015e55750508411620015cc575b505050811b015f55620000bf565b01515f1960f88460031b161c191690555f8080620015be565b8385015186558997909501949384019301620015ab565b9091505f8052875f208480850160051c8201928a861062001645575b918791869594930160051c01915b8281106200163657505062000096565b5f815585945087910162001626565b9250819262001618565b92607f16926200007f565b634e487b7160e01b5f52604160045260245ffd5b5f80fd5b60408051919082016001600160401b038111838210176200165a5760405260118252565b60408051919082016001600160401b038111838210176200165a5760405260128252565b60408051919082016001600160401b038111838210176200165a57604052600f8252565b60408051919082016001600160401b038111838210176200165a5760405260148252565b60408051919082016001600160401b038111838210176200165a57604052600e8252565b60408051919082016001600160401b038111838210176200165a57604052600c8252565b60408051919082016001600160401b038111838210176200165a57604052600d8252565b60408051919082016001600160401b038111838210176200165a5760405260108252565b60408051919082016001600160401b038111838210176200165a57604052600b8252565b60408051919082016001600160401b038111838210176200165a5760405260168252565b60408051919082016001600160401b038111838210176200165a57604052601a8252565b60408051919082016001600160401b038111838210176200165a5760405260178252565b60408051919082016001600160401b038111838210176200165a5760405260138252565b60408051919082016001600160401b038111838210176200165a5760405260158252565b60408051919082016001600160401b038111838210176200165a57604052601e8252565b60408051919082016001600160401b038111838210176200165a57604052601b8252565b60408051919082016001600160401b038111838210176200165a5760405260188252565b60405190606082016001600160401b038111838210176200165a5760405260218252565b60408051919082016001600160401b038111838210176200165a57604052601f8252565b60408051919082016001600160401b038111838210176200165a57604052601c8252565b60408051919082016001600160401b038111838210176200165a5760405260208252565b60408051919082016001600160401b038111838210176200165a57604052601d8252565b90602d54680100000000000000008110156200165a5760019081810180602d5581101562001b3357602d5f528351936020917f4a2cc91ee622da3bc833a54c37ffcb6f3ec23b7793efc5eaf5e71b7b406c5c06016001600160401b0386116200165a5780548481811c9116801562001b28575b8482101462001b1457601f811162001ac9575b5082601f871160011462001a64579580602e9596975f9162001a58575b505f19600383901b1c191690861b1790555b8181519101205f525260405f209060ff19825416179055565b90508301515f62001a2d565b601f19871690825f52845f20915f5b81811062001ab35750918891879899602e98941062001a9a575b5050811b01905562001a3f565b8501515f1960f88460031b161c191690555f8062001a8d565b8583015184559287019291860191860162001a73565b815f52835f20601f880160051c81019185891062001b09575b601f0160051c019085905b82811062001afd57505062001a10565b5f815501859062001aed565b909150819062001ae2565b634e487b7160e01b5f52602260045260245ffd5b90607f1690620019fd565b634e487b7160e01b5f52603260045260245ffdfe6080604090808252600480361015610015575f80fd5b5f3560e01c9182629c4c7e146139c15750816301ffc9a71461391e57816306fdde03146138715781630739ac061461385557816307488ccd14613565578163081812fc1461352d578163095ea7b31461345257816309aaa61e146134355781630ac6fc58146133bd5781630d3fd16114613392578163131f3a1e14612891578163149e7b7714613336578163161860d61461330f5781631630881214612f9857816318160ddd14612f7c57816323b872dd14612f6557816327189ca0146129a357816329777c35146129875781632a55205a146129205781632b49d425146128be5781632f745c591461289657816332cb6b0c146128915781633ccfd60b146127da57816341ec68701461277457816342842e0e14612746578163467f67f91461272957816349c657db1461270d5781634e474dd9146126e55781634f64b2be146126b45781634f6ccce71461266857816354f484191461264a57816355f804b3146124b65781635ef46bc5146123cf5781635fa951a7146121645781636352211e146121355781636b04a1e2146120675781636c0360eb14611fcb57816370a0823114611fa657816370a6f23014611f47578163715018a614611eec57816371f951d814611ec05781637af2a93314611ec05781637e056b9114611b4c57816385c639fe14611b2557816386e2d5df14611b085781638da5cb5b14611ae05781638dc251e314611a3157816390f4fe721461192057816395d89b411461184c5781639a617d0c146117345781639fbc87131461170c578163a22cb46514611671578163a7fa70ce1461164a578163afb7bed91461134e578163afe21c2914610fa5578163b0b5489514610f87578163b1610d7e14610f6a578163b6fd462214610daa578163b88d4fde14610d3f578163ba09768614610d09578163c06e887e14610ceb578163c83d07e314610c78578163c87b56dd146109ad578163ccad22de14610814578163cdc3cc41146107ec578163d088650a146107ce578163d40d9d8b14610796578163d9759f9a1461077b578163e2b0a15d14610725578163e985e9c5146106d7578163e9b353611461069b578163eb91d37e14610675578163ecda10f51461063b578163ede6fade14610620578163f2fde38b14610596578163fa90eabf146104ad578163fc2deeed14610487578163fe660dc614610469578163fefafa08146103ae575063ff9830bd1461038f575f80fd5b346103aa575f3660031901126103aa57602090516101f48152f35b5f80fd5b9050346103aa5760203660031901126103aa576103c9613a21565b906103d2614971565b600f549260ff8460a01c166104265750506001600160a01b039081166001600160a01b031983168117600f5591167f4629afddec912ec503dd73bdff4ed7d1ddff82665cc12234d2050e12f518e5ed5f80a3005b906020606492519162461bcd60e51b8352820152601f60248201527f47656e657261746f72206973207065726d616e656e746c79206c6f636b6564006044820152fd5b82346103aa575f3660031901126103aa57602090602c549051908152f35b82346103aa575f3660031901126103aa5760209060ff600f5460a01c1690519015158152f35b9050346103aa575f3660031901126103aa576104c7614971565b600f549060ff8260a01c16610562576001600160a01b03821692831561051f57505060ff60a01b1916600160a01b17600f557f8dc9002242fe1d7789084ad61acb9adee344fd3e9d6c7bd89d94da389ea999145f80a2005b906020606492519162461bcd60e51b8352820152601c60248201527f5365742067656e657261746f72206265666f7265206c6f636b696e67000000006044820152fd5b606490602084519162461bcd60e51b8352820152600e60248201526d105b1c9958591e481b1bd8dad95960921b6044820152fd5b9050346103aa5760203660031901126103aa576105b1613a21565b906105ba614971565b6001600160a01b0391821692831561060a575050600a54826001600160601b0360a01b821617600a55167f8be0079c531659141344cd1fd0a4f28419497f9722a3daafe3b4186f6b6457e05f80a3005b905f6024925191631e4fbdf760e01b8352820152fd5b82346103aa575f3660031901126103aa5760209051601e8152f35b82346103aa575f3660031901126103aa57602090517f00000000000000000000000000000000000000000000000000000000000000008152f35b82346103aa575f3660031901126103aa5760209061069460295461504c565b9051908152f35b82346103aa575f3660031901126103aa576060906106b761491f565b835192151583526001600160a01b03909116602083015291810191909152f35b82346103aa57806003193601126103aa576020906106f3613a21565b6106fb613a37565b9060018060a01b038091165f5260058452825f2091165f52825260ff815f20541690519015158152f35b82346103aa575f3660031901126103aa5760a09060ff6021549160225490805193845282821615156020850152600180861b038260081c1690840152818160a81c161515606084015260b01c1615156080820152f35b82346103aa575f3660031901126103aa576020905160648152f35b9050346103aa5760203660031901126103aa573590601a548210156103aa576107c0602092613e6a565b91905490519160031b1c8152f35b82346103aa575f3660031901126103aa57602090600c549051908152f35b82346103aa575f3660031901126103aa57602b5490516001600160a01b039091168152602090f35b82346103aa5761082336613b5d565b909161082d61499d565b61083683614d7c565b336001600160a01b03909116036109795761086c61086783602081519101205f52602e60205260ff60405f20541690565b6140a4565b6108758361489e565b1561094157825f52602f602052620151804204815f2055601c60205261089f82825f205485614db6565b90835f52601c6020526108cd815f208251906108ba82613a7c565b85825284602083015242848301526140e8565b835f52601c602052805f2054945f19860195861161092e5750906109197f4226f74e56624aaf998322a4bb5ebb847b5811ac4711df2f3d9b46d7a8f4a3e9939251928392429184613e13565b0390a35f5f8051602061550c8339815191525d005b601190634e487b7160e01b5f525260245ffd5b5162461bcd60e51b8152602081850152601360248201527243616e6e6f74206d757461746520746f64617960681b6044820152606490fd5b5162461bcd60e51b8152602081850152600f60248201526e2737ba103a37b5b2b71037bbb732b960891b6044820152606490fd5b82346103aa57602090816003193601126103aa5782355f81815260028452829020546109e3906001600160a01b03161515614061565b600e546109ef81613be1565b15610c20578180955f917a184f03e93ff9f4daa797ed6e38ed64bf6a1f0100000000000000009081811015610c13575b50506d04ee2d6d415b85acef810000000080881015610c05575b50662386f26fc1000080881015610bf6575b506305f5e10080881015610be7575b5061271080881015610bdb575b50506064861015610bcd575b600a80961015610bc5575b6001906001810196610aa7610a9289613aee565b98610a9f88519a8b613acd565b808a52613aee565b94836021898b0194601f198099013687378b0101905b610b97575b50505084519687935f93610ad582613be1565b91896001821691825f14610b75575050600114610b28575b50509180610b08610b159593610b24989795519384916139db565b0103908101865285613acd565b519282849384528301906139fc565b0390f35b8892939450600e5f525f805160206154cc833981519152905f915b838310610b5b57505050840101919080610b08610aed565b80549783018501979097528a968a94909201918101610b43565b60ff19168189015283151590930287019092019450829150610b089050610aed565b5f19019082906f181899199a1a9b1b9c1cb0b131b232b360811b8282061a835304908482610abd5750610ac2565b600101610a7e565b946064600291049501610a73565b90960495018680610a67565b60089192970496019087610a5a565b60109192970496019087610a4b565b869192970496019087610a39565b0496508491508780610a1f565b825162461bcd60e51b8152808601859052602c60248201527f62617365555249206e6f7420736574202d206f776e6572206d7573742063616c60448201526b6c207365744261736555524960a01b6064820152608490fd5b9050346103aa5760203660031901126103aa5735602d548110156103aa57610b2491610cd9610cd292602d5f528251938480927f4a2cc91ee622da3bc833a54c37ffcb6f3ec23b7793efc5eaf5e71b7b406c5c0601613cb7565b0383613acd565b519182916020835260208301906139fc565b82346103aa575f3660031901126103aa57602090601a549051908152f35b9050346103aa5760203660031901126103aa573560068110156103aa5781610cd9610cd292610b24945193848092602301613cb7565b346103aa5760803660031901126103aa57610d58613a21565b610d60613a37565b604435906064356001600160401b0381116103aa57366023820112156103aa57610da894816024610d9693369301359101613b09565b92610da2838383614269565b336150cd565b005b82346103aa5760203660031901126103aa57813560ff81168082036103aa576003610ddd91610dd761499d565b10614632565b602b5490610df56001600160a01b0383163314614674565b60215493610e048515156146c0565b60225494610e1560ff871615614701565b60ff8660a81c16610f1957610ce48101809111610f0657610e389042111561474d565b6003821015610ef35750601e015460ff199093166001176022556001600160a01b031916602b555f602c5542602a5560295490610e7482614003565b6029558051610e8281613a4d565b838152600160208201428152845f52601b602052835f209251835551910155610eab8233614aba565b80519283525f602084015242908301527f35a71fd4ad36d3b5f42a9819d12284ac3592b91d09f274e2ff1639a4418c1a0260603393a35f5f8051602061550c8339815191525d005b603290634e487b7160e01b5f525260245ffd5b601182634e487b7160e01b5f525260245ffd5b845162461bcd60e51b8152602081840152602560248201527f55736520636f6d706c6574654f776e65724d696e7420666f72206f776e6572206044820152646d696e747360d81b6064820152608490fd5b82346103aa575f3660031901126103aa57602090516220f5808152f35b82346103aa575f3660031901126103aa57602090516312cc03008152f35b9050346103aa575f3660031901126103aa576010546001600160a01b0316330361130c5760ff60145460081c16156112d25760ff6016541661129d576015546202a3008101809111610f0657421161125b57611002601154613be1565b906001600160401b038211611248575061101d600e54613be1565b601f8111611202575b505f601f821160011461117b579080611053925f9161116f575b508160011b915f199060031b1c19161790565b600e555b60019060ff196001816016541617601655601a5490835f5b83811061114757505050601a545f601a5580611106575b507fa621c5ad256761fd9191d8547f07ec26026684c11c01ce72024c5e8ca59252419250806110d6575b506110bc600d54614003565b600d555160208152806110d160208201613c19565b0390a1005b60207f861427b54efccb3916ffce06e33cfdc507ebe9587bd407e90a0af1dbc6fe7e4d918351908152a15f6110b0565b601a5f527f057c384a7d1c54f3a1b2e5e67b2617b8224fdfd1ea7234eea573a6ff665ff63e908101905b81811061113d5750611086565b5f81558401611130565b61115081613e6a565b90549060031b1c5f526019602052845f2083815416905501849061106f565b9050601101545f611040565b601f19821690600e5f525f805160206154cc833981519152915f5b8181106111dd575090836001949392106111b8575b5050811b01600e55611057565b5f805160206154ec83398151915201545f1960f88460031b161c191690555f806111ab565b5f805160206154ec833981519152830154845560019384019390920191602001611196565b61123890600e5f525f805160206154cc833981519152601f840160051c8101916020851061123e575b601f0160051c0190614011565b5f611026565b909150819061122b565b604190634e487b7160e01b5f525260245ffd5b6020606492519162461bcd60e51b8352820152602060248201527f50726f706f73616c2065787069726564202d2077696e646f7720636c6f7365646044820152fd5b6020606492519162461bcd60e51b8352820152601060248201526f105b1c9958591e48195e1958dd5d195960821b6044820152fd5b6020606492519162461bcd60e51b83528201526015602482015274151a1c995cda1bdb19081b9bdd081c995858da1959605a1b6044820152fd5b6020606492519162461bcd60e51b8352820152601960248201527f4f6e6c792070726f706f7365722063616e20636f6e6669726d000000000000006044820152fd5b90505f3660031901126103aa576060825161136881613a7c565b36903761137361499d565b602954601e90601e811115611607576113906103e7821115613e9f565b602b546001600160a01b03161580156115f0575b6113ad90613f01565b602a546201518081018091116115dd5742106115a1576113cc9061504c565b34106115675760ff9160ff602254168015611550575b15611514575082516113f381613a7c565b60603682375f5b8381166003811015611428578160019161142061141988954233614e0f565b9186614217565b5201166113fa565b505083805161143681613a97565b8281525f60a06020924260208201528285820152336060820152826080820152015282935f5b60038110611502576060856115008642602155602254610100600160a81b033360081b169068ffffffffffffffffff60b81b1617602255336001600160601b0360a01b602b541617602b5542602c5580516114b78185613d48565b42858201525f60808201527fc904c26edfa19014321dad8ce50a657782d9f55cd41af2afd9737e4f2ec7630760a03392a25f5f8051602061550c8339815191525d518092613d48565bf35b8551828201559482019460010161145c565b606490602085519162461bcd60e51b8352820152601660248201527550656e64696e6720726571756573742065786973747360501b6044820152fd5b50602154610ce48101809111610f065742116113e2565b506020606492519162461bcd60e51b83528201526014602482015273125b9cdd59999a58da595b9d081c185e5b595b9d60621b6044820152fd5b835162461bcd60e51b81526020818501526016602482015275476c6f62616c20636f6f6c646f776e2061637469766560501b6044820152606490fd5b601184634e487b7160e01b5f525260245ffd5b50602c54610ce481018091116115dd5742116113a4565b835162461bcd60e51b8152602081850152601860248201527f4f776e6572206d696e7420706572696f642061637469766500000000000000006044820152606490fd5b82346103aa5760203660031901126103aa57602091355f5260188252805f20549051908152f35b82346103aa57806003193601126103aa5761168a613a21565b90602435918215158093036103aa576001600160a01b03169283156116f75750335f526005602052805f20835f52602052805f2060ff1981541660ff8416179055519081527f17307eab39ab6107e8899845ad3d59bd9653f200f220920489ca2b5937696c3160203392a3005b836024925191630b61174360e31b8352820152fd5b82346103aa575f3660031901126103aa57600b5490516001600160a01b039091168152602090f35b9050346103aa57602090816003193601126103aa57355f52601c8152815f2080549161175f8361461b565b9261176c85519485613acd565b80845281840180935f52825f205f915b8383106117fd5750505050835192818401908285525180915284840191858260051b86010193925f965b8388106117b35786860387f35b90919293948380600192603f198a820301865288519085806117de60608551908086528501906139fc565b93858101518685015201519101529701930197019690939291936117a6565b6003856001928a9997995161181181613a7c565b8b5161182881611821818a613cb7565b0382613acd565b8152848601548382015260028601548c82015281520192019201919095939561177c565b82346103aa575f3660031901126103aa578051905f90826001926001549361187385613be1565b90818452602095866001821691825f146118fe5750506001146118a3575b5050610b249291610b15910385613acd565b9085925060015f527fb10e2d527612073b26eecdfd717e6a320cf44b4afac2b0732d9fcbe2b7fa0cf6915f925b8284106118e65750505082010181610b15611891565b8054848a0186015288955087949093019281016118d0565b60ff19168682015292151560051b85019092019250839150610b159050611891565b82346103aa575f3660031901126103aa5780519061193d82613a97565b805161194881613a7c565b606036823782525f60a06020938260208201528284820152826060820152826080820152015280519061197a82613a97565b8051918293601e945f905b60038210611a1c5761010086868661199c83613a7c565b828152602154602082019081526022549280830160ff85161515815260018060a01b03926119f56060860193858860081c16855260ff60a06080890198828b60a81c1615158a52019860b01c1615158852518098613d48565b5160608701525115156080860152511660a084015251151560c083015251151560e0820152f35b60018381928954815201970191019095611985565b9050346103aa5760203660031901126103aa57611a4c613a21565b611a54614971565b6001600160a01b0316918215611a9d57600b80546001600160a01b03191684179055827fc3696c23bd17454d95c44cb489c7a0db717d6d809e238813932720cc785ad5355f80a2005b906020606492519162461bcd60e51b8352820152601860248201527f496e76616c6964207265636569766572206164647265737300000000000000006044820152fd5b82346103aa575f3660031901126103aa57600a5490516001600160a01b039091168152602090f35b82346103aa575f3660031901126103aa57602090516202a3008152f35b82346103aa5760203660031901126103aa57611b436020923561489e565b90519015158152f35b9050346103aa575f3660031901126103aa577f00000000000000000000000000000000000000000000000000000000000000006312cc03008101809111610f0657611b99904210156144cb565b6012548015611e885760ff60165416611e45576220f5808101809111610f06574211611e0b576014549060ff8260081c16158015611df2575b15611daf57611be033614868565b91611bec831515614517565b60ff811615611d67575b505f915f5b818110611d255750508115611ce257611c1682601354613ee0565b918260135583519081527fa36cc2bebb74db33e9f88110a07ef56e1b31b24b4c4f51b54b1664266e29f45b60203392a26029545f1981019190821161092e5760438202918083046043149015171561092e57506014549160ff8360081c16159182611cd3575b5050611c8457005b61ff001916610100176014554260155580518181527fab69f06083afef0927640d007ea64293cf51d456c47ce52131e28ec5dd1366cf918190611cc8908201613c19565b4260208301520390a1005b60649192500411155f80611c7c565b606490602084519162461bcd60e51b8352820152601d60248201527f416c6c20796f757220746f6b656e7320616c726561647920766f7465640000006044820152fd5b611d2f8133614590565b5f526018602052845f20805490600d54809203611d51575b5050600101611bfb565b5592600190611d5f90614003565b93905f611d47565b60019060ff1916176014557f8e409ff344f734c68d4e8a0f3acc9412ba807ede50cd1ea7263c6902f826819d83516020815280611da660208201613c19565b0390a15f611bf6565b606490602084519162461bcd60e51b8352820152601b60248201527f436f6e6669726d6174696f6e2077696e646f77206578706972656400000000006044820152fd5b506015546202a3008101809111610f0657421115611bd2565b6020606492519162461bcd60e51b83528201526015602482015274159bdd1a5b99c81c195c9a5bd908195e1c1a5c9959605a1b6044820152fd5b506020606492519162461bcd60e51b8352820152601960248201527f50726f706f73616c20616c7265616479206578656375746564000000000000006044820152fd5b506020606492519162461bcd60e51b83528201526012602482015271139bc81858dd1a5d99481c1c9bdc1bdcd85b60721b6044820152fd5b82346103aa5760203660031901126103aa57602091355f526019825260ff815f20541690519015158152f35b346103aa575f3660031901126103aa57611f04614971565b600a80546001600160a01b031981169091555f906001600160a01b03167f8be0079c531659141344cd1fd0a4f28419497f9722a3daafe3b4186f6b6457e08280a3005b82346103aa57611f5636613ba8565b905f52601c602052815f209081548110156103aa57611f7491613dfa565b5090610b24815191611f9183611f8a8187613cb7565b0384613acd565b60026001850154940154905193849384613e13565b82346103aa5760203660031901126103aa57602090610694611fc6613a21565b614868565b82346103aa575f3660031901126103aa578051600e549091825f611fee84613be1565b808352602094600190866001821691825f146118fe57505060011461201f575050610b249291610b15910385613acd565b90859250600e5f525f805160206154cc833981519152915f925b82841061204f5750505082010181610b15611891565b8054848a018601528895508794909301928101612039565b82346103aa57602091826003193601126103aa57815161208681613a97565b835f5b60c0811061212757505050355f52601d8252805f20908051916120ab83613a97565b5f84845b600683106121025750505050519082820183835260e0830191905f945b600686106120da5784840385f35b90919281806120f5600193601f1989820301875287516139fc565b95019301950194906120cc565b6001918291865161211781611821818a613cb7565b81520193019101909185906120af565b606081840152018490612089565b82346103aa5760203660031901126103aa5761215360209235614d7c565b90516001600160a01b039091168152f35b9050346103aa57602091826003193601126103aa5781359060ff82168083036103aa57600361219d91612195614971565b610dd761499d565b602b546001600160a01b03929091906121b98484163314614674565b602154906121c88215156146c0565b602254916121d960ff841615614701565b60ff8360a81c161561238c57610ce48101809111612379576121fd9042111561474d565b600381101561236657601e0154938160081c169560ff8260b01c16936001809360ff1916176022556001600160601b0360a01b16602b555f602c5542602a556029549561224987614003565b60295584845161225881613a4d565b87815260018482014281528a5f52601b8652875f209251835551910155612317575b505f5b600681106122d457505050906109197f35a71fd4ad36d3b5f42a9819d12284ac3592b91d09f274e2ff1639a4418c1a0293926122b98688614aba565b51928352901515602083015242604083015281906060820190565b805f84926023016122e58154613be1565b601f908181116122f9575b5050550161227d565b61231091838552878520910160051c810190614011565b5f806122f0565b5f5b60068110612327575061227a565b875f52601d835261233a81865f20613bbe565b612354579061234e8592826023019061478b565b01612319565b5f83634e487b7160e01b82525260245ffd5b603286634e487b7160e01b5f525260245ffd5b601187634e487b7160e01b5f525260245ffd5b835162461bcd60e51b8152808801899052601960248201527f4e6f7420616e206f776e6572206d696e742072657175657374000000000000006044820152606490fd5b82346103aa575f3660031901126103aa57602d546123ec8161461b565b906123f983519283613acd565b80825260208083019182602d5f527f4a2cc91ee622da3bc833a54c37ffcb6f3ec23b7793efc5eaf5e71b7b406c5c065f915b83831061248d57505050508351928184019082855251809152848401948160051b85010192915f955b8287106124615785850386f35b90919293828061247d600193603f198a820301865288516139fc565b9601920196019592919092612454565b60018581928a999799516124a5816118218189613cb7565b81520192019201919095939561242b565b9050346103aa576020806003193601126103aa576001600160401b039282358481116103aa576124e99036908501613b3f565b926124f2614971565b83519485116112485750612507600e54613be1565b601f8111612610575b508193601f811160011461257f5790612562826110d1937feec356c13f485b7acbb74166d776fb50be80220a12df460b84716109009f9994975f9161257457508160011b915f199060031b1c19161790565b600e55519282849384528301906139fc565b90508601515f611040565b601f19811694600e5f525f805160206154cc833981519152955f5b8181106125f95750917feec356c13f485b7acbb74166d776fb50be80220a12df460b84716109009f999496600192826110d19695106125e1575b5050811b01600e55610b15565b8701515f1960f88460031b161c191690555f806125d4565b86830151885560019097019691850191850161259a565b61264490600e5f525f805160206154cc833981519152601f870160051c81019185881061123e57601f0160051c0190614011565b5f612510565b82346103aa575f3660031901126103aa57602090600d549051908152f35b9050346103aa5760203660031901126103aa57803590612686614258565b821015612699576020836107c084613e35565b905f604493519263295f44f760e21b84528301526024820152fd5b9050346103aa5760203660031901126103aa57355f52601b602052805f206001815491015482519182526020820152f35b82346103aa575f3660031901126103aa57600f5490516001600160a01b039091168152602090f35b82346103aa575f3660031901126103aa57602090516101f48152f35b82346103aa575f3660031901126103aa576020905162278d008152f35b82346103aa57610da89061275936613d6f565b9192519261276684613ab2565b5f8452610da2838383614269565b82346103aa575f3660031901126103aa5760018060a01b036010541690610b2460125492601354906014546015549060ff6016541692601754948751976127c5896127be81613c19565b038a613acd565b5198899860ff808660081c169516938a613da4565b9050346103aa575f3660031901126103aa576127f4614971565b47801561285757600a545f918291829182916001600160a01b03165af16128196145ec565b501561282157005b6020606492519162461bcd60e51b8352820152601160248201527015da5d1a191c985dd85b0819985a5b1959607a1b6044820152fd5b506020606492519162461bcd60e51b835282015260146024820152734e6f2066756e647320746f20776974686472617760601b6044820152fd5b613b8c565b82346103aa57806003193601126103aa576020906106946128b5613a21565b60243590614590565b82346103aa575f3660031901126103aa5760105481516001600160a01b0390911691610b24906128f183611f8a81613c19565b60125493601354906014546015549160ff6016541693601754955198899860ff808660081c169516938a613da4565b9050346103aa5761293036613ba8565b91905f52600260205260018060a01b039061295182855f2054161515614061565b6101f49283810293818504149015171561092e5750600b54925192166001600160a01b0316825261271090046020820152604090f35b82346103aa575f3660031901126103aa5760209051610ce48152f35b9050346103aa57602091826003193601126103aa576001600160401b039180358381116103aa576129d79036908301613b3f565b917f00000000000000000000000000000000000000000000000000000000000000006312cc03008101809111612f5257612a13904210156144cb565b612a26612a1f33614868565b1515614517565b825115612f1a5760145460ff8116809181612f00575b60081c60ff1680612ed5575b8215612ecd575b50158015612ec6575b15612e8357600c5462278d0081018091116115dd574210612e405780612e35575b612d1d575b612a8733614e90565b918215612cca57612a99600d54614003565b600d558151610120810181811087821117612cb75783523381528487820152828101428152606082015f8152608083015f815260a08401915f835260c08501935f855261010060e08701965f88520196898852336001600160601b0360a01b60105416176010558a519b8c116112485750612b15601154613be1565b8b8d601f8311612c7c575b5050508b8c601f8d11600114612beb57508b7fe7890a17099f7377119f9bcc610136034f38d99a26a59ec393bd3f871d244c1f9c612b71925f91612be057508160011b915f199060031b1c19161790565b6011555b51601255516013555115159060ff61ff006014549251151560081b1692169061ffff191617176014555160155551151560ff8019601654169116176016555160175542600c55612bcf8151936060855260608501906139fc565b9442908401528201528033930390a2005b90508c01515f611040565b90601f198d1660115f525f805160206154ec833981519152925f905b828210612c63575050918d917fe7890a17099f7377119f9bcc610136034f38d99a26a59ec393bd3f871d244c1f9e60019410612c4b575b5050811b01601155612b75565b8d01515f1960f88460031b161c191690555f80612c3e565b808f859682949660019201518155019501930190612c07565b612caf9260115f525f805160206154ec83398151915291601f840160051c8301931061123e57601f0160051c0190614011565b5f8b8d612b20565b604183634e487b7160e01b5f525260245ffd5b85608492519162461bcd60e51b8352820152602960248201527f416c6c20796f757220746f6b656e73206172652062616e6e65642066726f6d2060448201526870726f706f73696e6760b81b6064820152fd5b60175480151580612e20575b612d6f575b7ff3a4daeb2d0c46baa4922d40b36bc79601cd7a23c37a5b3cf658bb36101b3bfa9082518091848252612d62858301613c19565b90898301520390a1612a7e565b805f5260198652815f20600160ff19825416179055601a54600160401b811015612e0d579080612ddf612dc98460017ff3a4daeb2d0c46baa4922d40b36bc79601cd7a23c37a5b3cf658bb36101b3bfa9601601a55613e6a565b819391549060031b91821b915f19901b19161790565b9055807f8fcebe7b587cb6a82a1b6b75d67f45402181b45ab78f2355219e4bccaf5079375f80a29050612d2e565b604184634e487b7160e01b5f525260245ffd5b50805f526019865260ff825f20541615612d29565b506017541515612a79565b815162461bcd60e51b8152808401879052601860248201527f50726f706f73616c20636f6f6c646f776e2061637469766500000000000000006044820152606490fd5b815162461bcd60e51b8152808401879052601b60248201527f4163746976652070726f706f73616c20696e2070726f677265737300000000006044820152606490fd5b5080612a58565b91505f612a4f565b506015546202a3008101809111612eed574211612a48565b601185634e487b7160e01b5f525260245ffd5b91506012546220f5808101809111612eed57421191612a3c565b5162461bcd60e51b815290810184905260136024820152725552492063616e6e6f7420626520656d70747960681b6044820152606490fd5b601183634e487b7160e01b5f525260245ffd5b346103aa57610da8612f7636613d6f565b91614269565b82346103aa575f3660031901126103aa57602090610694614258565b82346103aa57806003193601126103aa57612fb1613a21565b9160248035936001600160401b03938486116103aa578584019560c4369101116103aa57805190612fe182613a7c565b60608092369037612ff0614971565b612ff861499d565b6130086103e76029541115613e9f565b602b546001600160a01b039081161580156132f8575b61302790613f01565b61303088613f4d565b9050151590816132b8575b82519661304788613a7c565b843689375f5b60ff8116600381101561307d578160019161307561306e60ff95428d614e0f565b918d614217565b52011661304d565b505091939790929586519461309186613a97565b8886526020944260208801525f89880152871696878b8801528160a0600198896080820152015289875f5b600381106132a55750504260215550602280546001600160b81b03191660089290921b610100600160a81b03169190911760b083901b60ff60b01b1617600160a81b1790556131b0575b8888611500898989336001600160601b0360a01b602b541617602b5542602c558251906131338287613d48565b428783015260808201527fc904c26edfa19014321dad8ce50a657782d9f55cd41af2afd9737e4f2ec7630760a03392a27f436cc48c6334b1dbe3160d3c717634aef61ee2db2f2065919b65b47d8d43d033608083516131928188613d48565b4288820152a25f5f8051602061550c8339815191525d518092613d48565b5f5b600681106131c05750613106565b6131ca818c613f81565b8260230191858211613293579082916131ef826131e98c979654613be1565b85614027565b5f90601f83116001146132315761321d92915f9183613226575b50508160011b915f199060031b1c19161790565b90555b016131b2565b013590505f80613209565b601f19831691845f528a5f20925f5b8c82821061327d5750509084889594939210613264575b505050811b019055613220565b01355f19600384901b60f8161c191690558f8080613257565b8385013586558e99909501949283019201613240565b84604188634e487b7160e01b5f52525ffd5b88835193019281601e01550188906130bc565b885f5b600681106132ca57505061303b565b6132f06132eb6132e66132df84600196613f81565b3691613b09565b6149c9565b613fc3565b0189906132bb565b50602c54610ce4810180911161237957421161301e565b82346103aa5760203660031901126103aa57602091355f52602f8252805f20549051908152f35b9050346103aa5761334636613ba8565b905f52601d602052825f209060068110156103aa5761336491613bbe565b919091613380578251610b249084610cd982610cd28188613cb7565b5f90634e487b7160e01b82525260245ffd5b82346103aa5760203660031901126103aa57602091355f5260188252805f2054600d54149051908152f35b82346103aa576133cc36613b5d565b90916133d6614971565b6133de61499d565b5f8381526002602052819020546133ff906001600160a01b03161515614061565b61341f61086783602081519101205f52602e60205260ff60405f20541690565b825f52601c60205261089f82825f205485614db6565b82346103aa575f3660031901126103aa5760209051620151808152f35b82346103aa57806003193601126103aa5761346b613a21565b9160243561347881614d7c565b3315158061351a575b806134f3575b6134dd576001600160a01b039485169482918691167f8c5be1e5ebec7d5bd14f71427d1e84f3dd0314c0f7b2291e5b200ac8c7c3b9255f80a45f526020525f20906001600160601b0360a01b8254161790555f80f35b835163a9fbf51f60e01b81523381850152602490fd5b5060018060a01b0381165f526005602052835f20335f5260205260ff845f20541615613487565b506001600160a01b038116331415613481565b82346103aa5760203660031901126103aa57816020923561354d81614d7c565b505f52825260018060a01b03815f2054169051908152f35b9050346103aa5760603660031901126103aa57613580613a21565b90602491602435916001600160401b03948584116103aa578382019360c4369101116103aa57604435916135b2614971565b6135ba61499d565b602954956135cc6103e7881115613e9f565b83156137ec57602b546001600160a01b03969087161580156137d5575b6135f290613f01565b6135fb81613f4d565b9050151598896137a9575b42602a5561361389614003565b60295584519261362284613a4d565b8684526020948b868601954287528c5f52601b8852885f2090518155600180975191015561369e575b8b8b7f35a71fd4ad36d3b5f42a9819d12284ac3592b91d09f274e2ff1639a4418c1a028c8c6109198d8d61367f8785614aba565b5190815295151560208701524260408701529116939081906060820190565b5f5b600681106136ae575061364b565b6136b88186613f81565b8d5f52601d89526136cb838b5f20613bbe565b92909261379857868211613786579082916136ec826131e98c979654613be1565b5f90601f83116001146137225761371992915f91836132265750508160011b915f199060031b1c19161790565b90555b016136a0565b5f8481528c81209290601f198516908e5b82821061376f5750509084889594939210613756575b505050811b01905561371c565b01355f19600384901b60f8161c191690555f8080613749565b8385013586558e999095019492830192018e613733565b85604186634e487b7160e01b5f52525ffd5b855f86634e487b7160e01b8252525ffd5b5f5b600681106137b95750613606565b806137cf6132eb6132e66132df60019588613f81565b016137ab565b50602c54610ce481018091116115dd5742116135e9565b506020608492519162461bcd60e51b8352820152603d60248201527f437573746f6d2073656564207265717569726564202d2075736520726571756560448201527f73744f776e65724d696e7420666f7220332d6f7074696f6e20666c6f770000006064820152fd5b82346103aa575f3660031901126103aa57602090516102ee8152f35b82346103aa575f3660031901126103aa578051905f90825f549261389484613be1565b808352602094600190866001821691825f146118fe5750506001146138c5575050610b249291610b15910385613acd565b5f80805286935091907f290decd9548b62a8d60345a988386fc84ba6bc95484008f6362f93160ef3e5635b8284106139065750505082010181610b15611891565b8054848a0186015288955087949093019281016138f0565b9050346103aa5760203660031901126103aa573563ffffffff60e01b81168091036103aa5760209163152a902d60e11b8214918215613961575b50519015158152f35b90915063780e9d6360e01b811490811561397e575b50905f613958565b6380ac58cd60e01b8114915081156139b0575b811561399f575b505f613976565b6301ffc9a760e01b1490505f613998565b635b5e139f60e01b81149150613991565b346103aa575f3660031901126103aa57602090602a548152f35b5f5b8381106139ec5750505f910152565b81810151838201526020016139dd565b90602091613a15815180928185528580860191016139db565b601f01601f1916010190565b600435906001600160a01b03821682036103aa57565b602435906001600160a01b03821682036103aa57565b604081019081106001600160401b03821117613a6857604052565b634e487b7160e01b5f52604160045260245ffd5b606081019081106001600160401b03821117613a6857604052565b60c081019081106001600160401b03821117613a6857604052565b602081019081106001600160401b03821117613a6857604052565b90601f801991011681019081106001600160401b03821117613a6857604052565b6001600160401b038111613a6857601f01601f191660200190565b929192613b1582613aee565b91613b236040519384613acd565b8294818452818301116103aa578281602093845f960137010152565b9080601f830112156103aa57816020613b5a93359101613b09565b90565b9060406003198301126103aa5760043591602435906001600160401b0382116103aa57613b5a91600401613b3f565b346103aa575f3660031901126103aa5760206040516103e78152f35b60409060031901126103aa576004359060243590565b6006821015613bcd5701905f90565b634e487b7160e01b5f52603260045260245ffd5b90600182811c92168015613c0f575b6020831014613bfb57565b634e487b7160e01b5f52602260045260245ffd5b91607f1691613bf0565b6011545f9291613c2882613be1565b80825291602090600190818116908115613c925750600114613c4b575b50505050565b9293945060115f525f805160206154ec833981519152925f935b858510613c7f57505050602092500101905f808080613c45565b8054858501840152938201938101613c65565b92505050602093945060ff929192191683830152151560051b0101905f808080613c45565b80545f9392613cc582613be1565b918282526020936001916001811690815f14613d295750600114613ceb575b5050505050565b90939495505f92919252835f2092845f945b838610613d1557505050500101905f80808080613ce4565b805485870183015294019385908201613cfd565b60ff19168685015250505090151560051b010191505f80808080613ce4565b5f915b60038310613d5857505050565b600190825181526020809101920192019190613d4b565b60609060031901126103aa576001600160a01b039060043582811681036103aa579160243590811681036103aa579060443590565b95929998979491613dd1906101009895926101209060018060a01b031689528060208a01528801906139fc565b996040870152606086015215156080850152151560a084015260c0830152151560e08201520152565b8054821015613bcd575f52600360205f20910201905f90565b613e2b604092959493956060835260608301906139fc565b9460208201520152565b600854811015613bcd5760085f527ff3f7a9fe364faab93b216da50a3214154f22a0a2b415b23a84c8169e8b636ee301905f90565b601a54811015613bcd57601a5f527f057c384a7d1c54f3a1b2e5e67b2617b8224fdfd1ea7234eea573a6ff665ff63e01905f90565b15613ea657565b60405162461bcd60e51b815260206004820152601260248201527113585e081cdd5c1c1b1e481c995858da195960721b6044820152606490fd5b91908201809211613eed57565b634e487b7160e01b5f52601160045260245ffd5b15613f0857565b60405162461bcd60e51b815260206004820152601a60248201527f4d696e742073656c656374696f6e20696e2070726f67726573730000000000006044820152606490fd5b803590601e19813603018212156103aa5701908135916001600160401b0383116103aa5760200182360381136103aa579190565b906006811015613bcd5760051b81013590601e19813603018212156103aa5701908135916001600160401b0383116103aa5760200182360381136103aa579190565b15613fca57565b60405162461bcd60e51b815260206004820152601160248201527024b73b30b634b2103432bc1031b7b637b960791b6044820152606490fd5b5f198114613eed5760010190565b81811061401c575050565b5f8155600101614011565b9190601f811161403657505050565b61405f925f5260205f20906020601f840160051c8301931061123e57601f0160051c0190614011565b565b1561406857565b60405162461bcd60e51b8152602060048201526014602482015273151bdad95b88191bd95cc81b9bdd08195e1a5cdd60621b6044820152606490fd5b156140ab57565b60405162461bcd60e51b8152602060048201526015602482015274496e76616c6964206d75746174696f6e207479706560581b6044820152606490fd5b908154600160401b811015613a685761410990600193600182018155613dfa565b9290926141f7578151908151916001600160401b038311613a6857614138836141328754613be1565b87614027565b602091601f841160011461418c5750826040936002959361416d935f926141815750508160011b915f199060031b1c19161790565b84555b602081015160018501550151910155565b015190505f80613209565b9190601f198416865f52825f20935f905b8282106141de57505092600192859260409660029896106141c6575b505050811b018455614170565b01515f1960f88460031b161c191690555f80806141b9565b909394602082819288870151815501960194019061419d565b634e487b7160e01b5f525f60045260245ffd5b91908203918211613eed57565b906003811015613bcd5760051b0190565b90670de0b6b3a764000091828102928184041490151715613eed57565b81810292918115918404141715613eed57565b6029545f198101908111613eed5790565b6001600160a01b03828116939184156144b357825f5260206002815260409583875f2054169533151580614425575b50861580156143f4575b825f5260038452885f2060018154019055865f5260028452885f20836001600160601b0360a01b8254161790558683897fddf252ad1be2c89b69c2b068fc378daa952ba7f163c4a11628f55a4df523b3ef5f80a41561438857600854865f5260098452885f205561431286614e6e565b81870361434d575b505050169283830361432c5750505050565b6064945051926364283d7b60e01b8452600484015260248301526044820152fd5b61435690614868565b5f19810192908311613eed576007915f5260068152875f20835f52815285885f2055855f5252855f20555f808061431a565b8682146143125761439887614868565b865f5260078452885f205490885f5260068552895f20918181036143d2575b50875f52600785525f8a8120555f5283525f88812055614312565b815f528286528a5f2054815f52808c5f20555f52600786528a5f20555f6143b7565b5f87815260046020526040812080546001600160a01b03191690558881526003855289902080545f190190556142a2565b80614472575b15614436575f614298565b878688614453576024915190637e27328960e01b82526004820152fd5b905163177e802f60e01b81523360048201526024810191909152604490fd5b503387148015614497575b8061442b5750855f52600483523385895f2054161461442b565b50865f5260058352875f20335f52835260ff885f20541661447d565b604051633250574960e11b81525f6004820152602490fd5b156144d257565b60405162461bcd60e51b815260206004820152601960248201527f476f7665726e616e6365206e6f742061637469766520796574000000000000006044820152606490fd5b1561451e57565b60405162461bcd60e51b815260206004820152601260248201527126bab9ba1037bbb710309029b830ba3a32b960711b6044820152606490fd5b8015614572576ec097ce7bc90715b34b9f10000000000490565b634e487b7160e01b5f52601260045260245ffd5b8115614572570490565b61459981614868565b8210156145c15760018060a01b03165f52600660205260405f20905f5260205260405f205490565b60405163295f44f760e21b81526001600160a01b039190911660048201526024810191909152604490fd5b3d15614616573d906145fd82613aee565b9161460b6040519384613acd565b82523d5f602084013e565b606090565b6001600160401b038111613a685760051b60200190565b1561463957565b60405162461bcd60e51b8152602060048201526013602482015272496e76616c696420736565642063686f69636560681b6044820152606490fd5b1561467b57565b60405162461bcd60e51b815260206004820152601860248201527f4e6f7420796f75722070656e64696e67207265717565737400000000000000006044820152606490fd5b156146c757565b60405162461bcd60e51b8152602060048201526012602482015271139bc81c195b991a5b99c81c995c5d595cdd60721b6044820152606490fd5b1561470857565b60405162461bcd60e51b815260206004820152601960248201527f5265717565737420616c726561647920636f6d706c65746564000000000000006044820152606490fd5b1561475457565b60405162461bcd60e51b815260206004820152600f60248201526e14995c5d595cdd08195e1c1a5c9959608a1b6044820152606490fd5b908082146148645761479d8154613be1565b906001600160401b038211613a68576147ba826131e98554613be1565b5f90601f83116001146147f6576147e792915f91836147eb5750508160011b915f199060031b1c19161790565b9055565b015490505f80613209565b90601f198316915f5260209160205f2090855f5260205f20935f905b82821061484b575050908460019594939210614833575b505050811b019055565b01545f1960f88460031b161c191690555f8080614829565b8495819295850154815560018091019601940190614812565b5050565b6001600160a01b03168015614886575f52600360205260405f205490565b6040516322718ad960e21b81525f6004820152602490fd5b5f818152600260205260409020546148c0906001600160a01b03161515614061565b805f52601b602052602060405f206001604051916148dd83613a4d565b8054835201549182910152620151808042049104811461491957815f52602f60205260405f20541461491457613b5a904290614ed9565b505f90565b50505f90565b602b546001600160a01b031680151580614959575b61494157505f905f905f90565b90602c5490610ce48201809211613eed576001929190565b50602c54610ce48101809111613eed57421115614934565b600a546001600160a01b0316330361498557565b60405163118cdaa760e01b8152336004820152602490fd5b5f8051602061550c833981519152805c6149b7576001905d565b604051633ee5aeb560e01b8152600490fd5b80519060079160078103614ab35715613bcd576020818101516001600160f81b03199290831660dd60f81b01614aab5760015b848110614a0d575050505050600190565b8151811015613bcd578383828401015116600360fc1b8110159081614a9c575b8115614a78575b8115614a52575b5015614a49576001016149fc565b50505050505f90565b604160f81b811015915081614a69575b505f614a3b565b602360f91b101590505f614a62565b9050606160f81b81101580614a8e575b90614a34565b50603360f91b811115614a88565b603960f81b8111159150614a2d565b505050505f90565b5050505f90565b6040805192614ac884613ab2565b5f84526001600160a01b0393838516938415614d6557825f5260209560028752845f2054168581159182159283614d34575b825f5260038a52875f2060018154019055865f5260028a52875f20836001600160601b0360a01b8254161790558683837fddf252ad1be2c89b69c2b068fc378daa952ba7f163c4a11628f55a4df523b3ef5f80a415614cc857600854865f5260098a52875f2055614b6a86614e6e565b03614c90575b614c79573b614b80575050505050565b84614bbd9184959697945180938192630a85bd0160e11b968784523360048501525f602485015260448401526080606484015260848301906139fc565b03815f895af15f9181614c39575b50614c0257505050614bdb6145ec565b8051939084614bfc578251633250574960e11b815260048101859052602490fd5b84925001fd5b9194506001600160e01b031990911603614c225750505f80808080613ce4565b602492505190633250574960e11b82526004820152fd5b9091508681813d8311614c72575b614c518183613acd565b810103126103aa57516001600160e01b0319811681036103aa57905f614bcb565b503d614c47565b83516339e3563760e11b81525f6004820152602490fd5b614c9982614868565b5f198101908111613eed57865f5260068852855f20815f52885284865f2055845f5260078852855f2055614b70565b808214614b6a57614cd881614868565b865f5260078a52875f205490825f5260068b52885f2091818103614d12575b50875f5260078b525f898120555f5289525f87812055614b6a565b815f52828c52895f2054815f52808b5f20555f5260078c52895f20555f614cf7565b5f87815260046020526040812080546001600160a01b031916905582815260038b5288902080545f19019055614afa565b8351633250574960e11b81525f6004820152602490fd5b5f818152600260205260409020546001600160a01b0316908115614d9e575090565b60249060405190637e27328960e01b82526004820152fd5b919060b4614e0991604051938491602083019687523360601b60408401526054830152614ded8151809260206074860191016139db565b8101426074820152446094820152036094810184520182613acd565b51902090565b916029546040519260208401946001600160601b03199060601b1685526034840152446054840152607483015260ff60f81b9060f81b1660948201526075815260a081018181106001600160401b03821117613a685760405251902090565b600854600160401b811015613a6857612dc98160016147e79301600855613e35565b614e9981614868565b905f5b828110614eaa575050505f90565b614eb48183614590565b805f52601960205260ff60405f20541615614ed25750600101614e9c565b9250505090565b5f52601b6020818152604092835f2093805193614ef585613a4d565b8554855283600180970154950194855260295494868611615013575b614f1c9051846151e6565b614fc05760648511614feb575b6101f4808611614fc8575b506102ee808611614f8c575b506103e7809511614f56575b5050505050505f90565b614f7e945f52835284815f20915191614f6e83613a4d565b80548352015492839101526151e6565b613b5a578080808080614f4c565b5f52808452614fb684835f2088855191614fa583613a4d565b8054835201549182910152846151e6565b614fc0575f614f40565b505050505090565b5f52808452614fe184835f2088855191614fa583613a4d565b614fc0575f614f34565b60645f5280845261500684835f2088855191614fa583613a4d565b15614f2957505050505090565b865f5281855261503e85845f208986519161502d83613a4d565b8054835201549182910152856151e6565b15614f115750505050505090565b601e811115614914576018198101908111613eed5780156150c1576103ce808210156150b25767867d5927a64f800080830292830503613eed57615090910561522d565b6615f4ad60b640009080820291820403613eed57670de0b6b3a7640000900490565b505068056bc75e2d6310000090565b506615f4ad60b6400090565b9291803b6150dc575050505050565b604051630a85bd0160e11b8082526001600160a01b0395861660048301529285166024820152604481019390935260806064840152909216926020908290819061512a9060848301906139fc565b03815f875af15f91816151a1575b5061516f57826151466145ec565b805191908261516857604051633250574960e11b815260048101839052602490fd5b6020915001fd5b6001600160e01b0319160361518957505f80808080613ce4565b60249060405190633250574960e11b82526004820152fd5b9091506020813d6020116151de575b816151bd60209383613acd565b810103126103aa57516001600160e01b0319811681036103aa57905f615138565b3d91506151b0565b6151f26151f8916152f9565b916152f9565b6020820151602082015114918261520e57505090565b60409192508101519101511490565b600160ff1b8114613eed575f0390565b680755bf798b4a1bf1e58112156152c5575f81126152ab57670de0b6b3a764000090600190825b6014831115615264575b50505090565b6152836152748361528a93614245565b61527d85614228565b90614586565b8094613ee0565b91606484106152a35761529c90614003565b9192615254565b82935061525e565b6152b76152bc9161521d565b61522d565b613b5a90614558565b60405162461bcd60e51b815260206004820152600c60248201526b657870206f766572666c6f7760a01b6044820152606490fd5b62015180905f6040805161530c81613a7c565b8281528260208201520152046107b2905b615326826153c8565b156153bd5761ffff61016e5b16808210615353576153479061534d9261420a565b91614003565b9061531d565b505f906001905b600c821115615381575b506040519261537284613a7c565b83526020830152604082015290565b61538b84836153f0565b908181106153a6576153a0916153479161420a565b9061535a565b809293506001915001809111613eed57905f615364565b61ffff61016d615332565b6003811661491457606481066153ea5761019090066153e657600190565b5f90565b50600190565b6001811480156154c1575b80156154b7575b80156154ad575b80156154a3575b8015615499575b801561548f575b6154885760048114801561547e575b8015615474575b801561546a575b6154635760021461544b57505f90565b615454906153c8565b1561545e57601d90565b601c90565b5050601e90565b50600b811461543b565b5060098114615434565b506006811461542d565b5050601f90565b50600c811461541e565b50600a8114615417565b5060088114615410565b5060078114615409565b5060058114615402565b50600381146153fb56febb7b4a454dc3493923482f07822329ed19e8244eff582cc204f8554c3620c3fd31ecc21a745e3968a04e9570e4425bc18fa8019c68028196b546d1669c200c689b779b17422d0df92223018b32b4d1fa46e071723d6817e2486d003becc55f00a26469706673582212201fe27cbd495a31b8cb05f26a4835a9dcdc64a5a6e28463f2a25abc9e71b25baf64736f6c63430008180033","opcodes":"PUSH1 0xA0 CALLVALUE PUSH3 0x166E JUMPI PUSH1 0x1 PUSH1 0x1 PUSH1 0x40 SHL SUB SWAP1 PUSH1 0x40 SWAP1 DUP1 DUP3 ADD DUP4 DUP2 GT DUP3 DUP3 LT OR PUSH3 0x165A JUMPI DUP3 MSTORE PUSH1 0x8 DUP2 MSTORE PUSH1 0x20 SWAP1 PUSH8 0x5370617474657273 PUSH1 0xC0 SHL DUP3 DUP3 ADD MSTORE DUP3 MLOAD SWAP4 DUP4 DUP6 ADD DUP6 DUP2 LT DUP3 DUP3 GT OR PUSH3 0x165A JUMPI DUP5 MSTORE PUSH1 0x4 SWAP2 DUP3 DUP7 MSTORE PUSH4 0x14D41055 PUSH1 0xE2 SHL DUP5 DUP8 ADD MSTORE DUP1 MLOAD DUP3 DUP2 GT PUSH3 0x147A JUMPI PUSH0 SLOAD SWAP1 PUSH1 0x1 SWAP3 DUP4 DUP4 DUP2 SHR SWAP4 AND DUP1 ISZERO PUSH3 0x164F JUMPI JUMPDEST DUP8 DUP5 LT EQ PUSH3 0x155B JUMPI DUP2 SWAP1 PUSH1 0x1F SWAP4 DUP5 DUP2 GT PUSH3 0x15FC JUMPI JUMPDEST POP DUP8 SWAP1 DUP5 DUP4 GT PUSH1 0x1 EQ PUSH3 0x1598 JUMPI PUSH0 SWAP3 PUSH3 0x158C JUMPI JUMPDEST POP POP PUSH0 NOT PUSH1 0x3 DUP4 SWAP1 SHL SHR NOT AND SWAP1 DUP4 SHL OR PUSH0 SSTORE JUMPDEST DUP7 MLOAD SWAP1 DUP4 DUP3 GT PUSH3 0x1579 JUMPI DUP3 SLOAD DUP4 DUP2 DUP2 SHR SWAP2 AND DUP1 ISZERO PUSH3 0x156E JUMPI JUMPDEST DUP8 DUP3 LT EQ PUSH3 0x155B JUMPI DUP2 DUP2 GT PUSH3 0x1513 JUMPI JUMPDEST POP DUP6 SWAP1 DUP3 GT PUSH1 0x1 EQ PUSH3 0x14AF JUMPI DUP2 SWAP3 SWAP4 SWAP5 SWAP6 SWAP7 SWAP8 PUSH0 SWAP3 PUSH3 0x14A3 JUMPI JUMPDEST POP POP PUSH0 NOT PUSH1 0x3 DUP4 SWAP1 SHL SHR NOT AND SWAP1 DUP3 SHL OR DUP2 SSTORE JUMPDEST CALLER ISZERO PUSH3 0x148D JUMPI PUSH1 0xA DUP1 SLOAD PUSH1 0x1 PUSH1 0x1 PUSH1 0xA0 SHL SUB NOT DUP1 DUP3 AND CALLER SWAP1 DUP2 OR SWAP1 SWAP4 SSTORE SWAP3 SWAP2 SWAP1 PUSH1 0x1 PUSH1 0x1 PUSH1 0xA0 SHL SUB AND PUSH32 0x8BE0079C531659141344CD1FD0A4F28419497F9722A3DAAFE3B4186F6B6457E0 PUSH0 DUP1 LOG3 PUSH1 0x29 SSTORE CALLER SWAP1 PUSH1 0xB SLOAD AND OR PUSH1 0xB SSTORE TIMESTAMP PUSH1 0x80 MSTORE PUSH3 0x1A7 PUSH3 0x188 PUSH3 0x1672 JUMP JUMPDEST PUSH17 0x617370656374526174696F4368616E6765 PUSH1 0x78 SHL DUP6 DUP3 ADD MSTORE PUSH3 0x198A JUMP JUMPDEST PUSH3 0x1D5 PUSH3 0x1B5 PUSH3 0x1696 JUMP JUMPDEST PUSH18 0x62617365526164697573496E637265617365 PUSH1 0x70 SHL DUP6 DUP3 ADD MSTORE PUSH3 0x198A JUMP JUMPDEST PUSH3 0x203 PUSH3 0x1E3 PUSH3 0x1696 JUMP JUMPDEST PUSH18 0x626173655261646975734465637265617365 PUSH1 0x70 SHL DUP6 DUP3 ADD MSTORE PUSH3 0x198A JUMP JUMPDEST PUSH3 0x231 PUSH3 0x211 PUSH3 0x1696 JUMP JUMPDEST PUSH18 0x6772616469656E74547970654368616E6765 PUSH1 0x70 SHL DUP6 DUP3 ADD MSTORE PUSH3 0x198A JUMP JUMPDEST PUSH3 0x25F PUSH3 0x23F PUSH3 0x1696 JUMP JUMPDEST PUSH18 0x64697669646572436F756E744368616E6765 PUSH1 0x70 SHL DUP6 DUP3 ADD MSTORE PUSH3 0x198A JUMP JUMPDEST PUSH3 0x28C PUSH3 0x26D PUSH3 0x1672 JUMP JUMPDEST PUSH17 0x636972636C65436F756E744368616E6765 PUSH1 0x78 SHL DUP6 DUP3 ADD MSTORE PUSH3 0x198A JUMP JUMPDEST PUSH3 0x2B7 PUSH3 0x29A PUSH3 0x16BA JUMP JUMPDEST PUSH15 0x6C696E65436F756E744368616E6765 PUSH1 0x88 SHL DUP6 DUP3 ADD MSTORE PUSH3 0x198A JUMP JUMPDEST PUSH3 0x2E5 PUSH3 0x2C5 PUSH3 0x1696 JUMP JUMPDEST PUSH18 0x636972636C6553697A65496E637265617365 PUSH1 0x70 SHL DUP6 DUP3 ADD MSTORE PUSH3 0x198A JUMP JUMPDEST PUSH3 0x313 PUSH3 0x2F3 PUSH3 0x1696 JUMP JUMPDEST PUSH18 0x636972636C6553697A654465637265617365 PUSH1 0x70 SHL DUP6 DUP3 ADD MSTORE PUSH3 0x198A JUMP JUMPDEST PUSH3 0x34C PUSH3 0x321 PUSH3 0x16DE JUMP JUMPDEST PUSH32 0x636972636C65506F736974696F6E4368616E6765000000000000000000000000 DUP6 DUP3 ADD MSTORE PUSH3 0x198A JUMP JUMPDEST PUSH3 0x376 PUSH3 0x35A PUSH3 0x1702 JUMP JUMPDEST PUSH14 0x18DA5C98DB19535BDD995319599D PUSH1 0x92 SHL DUP6 DUP3 ADD MSTORE PUSH3 0x198A JUMP JUMPDEST PUSH3 0x3A1 PUSH3 0x384 PUSH3 0x16BA JUMP JUMPDEST PUSH15 0x18DA5C98DB19535BDD99549A59DA1D PUSH1 0x8A SHL DUP6 DUP3 ADD MSTORE PUSH3 0x198A JUMP JUMPDEST PUSH3 0x3C9 PUSH3 0x3AF PUSH3 0x1726 JUMP JUMPDEST PUSH12 0x636972636C654D6F7665557 PUSH1 0xA4 SHL DUP6 DUP3 ADD MSTORE PUSH3 0x198A JUMP JUMPDEST PUSH3 0x3F3 PUSH3 0x3D7 PUSH3 0x1702 JUMP JUMPDEST PUSH14 0x31B4B931B632A6B7BB32A237BBB7 PUSH1 0x91 SHL DUP6 DUP3 ADD MSTORE PUSH3 0x198A JUMP JUMPDEST PUSH3 0x420 PUSH3 0x401 PUSH3 0x1672 JUMP JUMPDEST PUSH17 0x6C696E655769647468496E637265617365 PUSH1 0x78 SHL DUP6 DUP3 ADD MSTORE PUSH3 0x198A JUMP JUMPDEST PUSH3 0x44D PUSH3 0x42E PUSH3 0x1672 JUMP JUMPDEST PUSH17 0x6C696E6557696474684465637265617365 PUSH1 0x78 SHL DUP6 DUP3 ADD MSTORE PUSH3 0x198A JUMP JUMPDEST PUSH3 0x478 PUSH3 0x45B PUSH3 0x16BA JUMP JUMPDEST PUSH15 0x6C696E65416E676C654368616E6765 PUSH1 0x88 SHL DUP6 DUP3 ADD MSTORE PUSH3 0x198A JUMP JUMPDEST PUSH3 0x4A6 PUSH3 0x486 PUSH3 0x1696 JUMP JUMPDEST PUSH18 0x6C696E654C656E677468496E637265617365 PUSH1 0x70 SHL DUP6 DUP3 ADD MSTORE PUSH3 0x198A JUMP JUMPDEST PUSH3 0x4D4 PUSH3 0x4B4 PUSH3 0x1696 JUMP JUMPDEST PUSH18 0x6C696E654C656E6774684465637265617365 PUSH1 0x70 SHL DUP6 DUP3 ADD MSTORE PUSH3 0x198A JUMP JUMPDEST PUSH3 0x502 PUSH3 0x4E2 PUSH3 0x1696 JUMP JUMPDEST PUSH18 0x6C696E65506F736974696F6E4368616E6765 PUSH1 0x70 SHL DUP6 DUP3 ADD MSTORE PUSH3 0x198A JUMP JUMPDEST PUSH3 0x52A PUSH3 0x510 PUSH3 0x1726 JUMP JUMPDEST PUSH12 0x1B1A5B99535BDD995319599D PUSH1 0xA2 SHL DUP6 DUP3 ADD MSTORE PUSH3 0x198A JUMP JUMPDEST PUSH3 0x553 PUSH3 0x538 PUSH3 0x174A JUMP JUMPDEST PUSH13 0x1B1A5B99535BDD99549A59DA1D PUSH1 0x9A SHL DUP6 DUP3 ADD MSTORE PUSH3 0x198A JUMP JUMPDEST DUP4 MLOAD DUP5 DUP2 ADD DUP2 DUP2 LT DUP4 DUP3 GT OR PUSH3 0x147A JUMPI DUP6 MSTORE PUSH1 0xA DUP2 MSTORE PUSH10 0x6C696E654D6F7665557 PUSH1 0xB4 SHL DUP5 DUP3 ADD MSTORE PUSH3 0x587 SWAP1 PUSH3 0x198A JUMP JUMPDEST PUSH3 0x5AF PUSH3 0x595 PUSH3 0x1726 JUMP JUMPDEST PUSH12 0x3634B732A6B7BB32A237BBB7 PUSH1 0xA1 SHL DUP6 DUP3 ADD MSTORE PUSH3 0x198A JUMP JUMPDEST PUSH3 0x5DB PUSH3 0x5BD PUSH3 0x176E JUMP JUMPDEST PUSH16 0x70616C657474654368616E67654F6E65 PUSH1 0x80 SHL DUP6 DUP3 ADD MSTORE PUSH3 0x198A JUMP JUMPDEST PUSH3 0x607 PUSH3 0x5E9 PUSH3 0x176E JUMP JUMPDEST PUSH16 0x1C185B195D1D1950DA185B99D9505B1B PUSH1 0x82 SHL DUP6 DUP3 ADD MSTORE PUSH3 0x198A JUMP JUMPDEST PUSH3 0x634 PUSH3 0x615 PUSH3 0x1672 JUMP JUMPDEST PUSH17 0x70616C65747465436F6D62696E654F6E65 PUSH1 0x78 SHL DUP6 DUP3 ADD MSTORE PUSH3 0x198A JUMP JUMPDEST PUSH3 0x661 PUSH3 0x642 PUSH3 0x1672 JUMP JUMPDEST PUSH17 0x1C185B195D1D1950DBDB589A5B99505B1B PUSH1 0x7A SHL DUP6 DUP3 ADD MSTORE PUSH3 0x198A JUMP JUMPDEST PUSH3 0x68C PUSH3 0x66F PUSH3 0x16BA JUMP JUMPDEST PUSH15 0x70616C6574746552657365744F6E65 PUSH1 0x88 SHL DUP6 DUP3 ADD MSTORE PUSH3 0x198A JUMP JUMPDEST PUSH3 0x6B7 PUSH3 0x69A PUSH3 0x16BA JUMP JUMPDEST PUSH15 0x1C185B195D1D1954995CD95D105B1B PUSH1 0x8A SHL DUP6 DUP3 ADD MSTORE PUSH3 0x198A JUMP JUMPDEST PUSH3 0x6E1 PUSH3 0x6C5 PUSH3 0x1702 JUMP JUMPDEST PUSH14 0x70616C6574746553687566666C65 PUSH1 0x90 SHL DUP6 DUP3 ADD MSTORE PUSH3 0x198A JUMP JUMPDEST PUSH3 0x708 PUSH3 0x6EF PUSH3 0x1792 JUMP JUMPDEST PUSH11 0x646976696465724D6F7665 PUSH1 0xA8 SHL DUP6 DUP3 ADD MSTORE PUSH3 0x198A JUMP JUMPDEST PUSH3 0x731 PUSH3 0x716 PUSH3 0x174A JUMP JUMPDEST PUSH13 0x64697669646572526F74617465 PUSH1 0x98 SHL DUP6 DUP3 ADD MSTORE PUSH3 0x198A JUMP JUMPDEST DUP4 MLOAD DUP5 DUP2 ADD DUP2 DUP2 LT DUP4 DUP3 GT OR PUSH3 0x147A JUMPI DUP6 MSTORE PUSH1 0x6 DUP2 MSTORE PUSH6 0x726F74617465 PUSH1 0xD0 SHL DUP5 DUP3 ADD MSTORE PUSH3 0x761 SWAP1 PUSH3 0x198A JUMP JUMPDEST PUSH3 0x79A PUSH3 0x76F PUSH3 0x17B6 JUMP JUMPDEST PUSH32 0x73656564506F696E74436F756E74496E63726561736500000000000000000000 DUP6 DUP3 ADD MSTORE PUSH3 0x198A JUMP JUMPDEST PUSH3 0x7D3 PUSH3 0x7A8 PUSH3 0x17B6 JUMP JUMPDEST PUSH32 0x73656564506F696E74436F756E74446563726561736500000000000000000000 DUP6 DUP3 ADD MSTORE PUSH3 0x198A JUMP JUMPDEST PUSH3 0x801 PUSH3 0x7E1 PUSH3 0x1696 JUMP JUMPDEST PUSH18 0x1CD959591C1BDA5B9D135BDD99549A59DA1D PUSH1 0x72 SHL DUP6 DUP3 ADD MSTORE PUSH3 0x198A JUMP JUMPDEST PUSH3 0x82E PUSH3 0x80F PUSH3 0x1672 JUMP JUMPDEST PUSH17 0x1CD959591C1BDA5B9D135BDD995319599D PUSH1 0x7A SHL DUP6 DUP3 ADD MSTORE PUSH3 0x198A JUMP JUMPDEST PUSH3 0x859 PUSH3 0x83C PUSH3 0x16BA JUMP JUMPDEST PUSH15 0x73656564706F696E744D6F7665557 PUSH1 0x8C SHL DUP6 DUP3 ADD MSTORE PUSH3 0x198A JUMP JUMPDEST PUSH3 0x886 PUSH3 0x867 PUSH3 0x1672 JUMP JUMPDEST PUSH17 0x39B2B2B23837B4B73A26B7BB32A237BBB7 PUSH1 0x79 SHL DUP6 DUP3 ADD MSTORE PUSH3 0x198A JUMP JUMPDEST PUSH3 0x8BF PUSH3 0x894 PUSH3 0x17DA JUMP JUMPDEST PUSH32 0x73656564706F696E744368616E6765437572766543656E746572000000000000 DUP6 DUP3 ADD MSTORE PUSH3 0x198A JUMP JUMPDEST PUSH3 0x8F8 PUSH3 0x8CD PUSH3 0x17DA JUMP JUMPDEST PUSH32 0x73656564706F696E74496E637265617365436F6E636176697479000000000000 DUP6 DUP3 ADD MSTORE PUSH3 0x198A JUMP JUMPDEST PUSH3 0x931 PUSH3 0x906 PUSH3 0x17DA JUMP JUMPDEST PUSH32 0x73656564706F696E744465637265617365436F6E636176697479000000000000 DUP6 DUP3 ADD MSTORE PUSH3 0x198A JUMP JUMPDEST PUSH3 0x96A PUSH3 0x93F PUSH3 0x17FE JUMP JUMPDEST PUSH32 0x73656564706F696E74496E637265617365526164697573000000000000000000 DUP6 DUP3 ADD MSTORE PUSH3 0x198A JUMP JUMPDEST PUSH3 0x9A3 PUSH3 0x978 PUSH3 0x17FE JUMP JUMPDEST PUSH32 0x73656564706F696E744465637265617365526164697573000000000000000000 DUP6 DUP3 ADD MSTORE PUSH3 0x198A JUMP JUMPDEST PUSH3 0x9CA PUSH3 0x9B1 PUSH3 0x1792 JUMP JUMPDEST PUSH11 0x1CDA185C19515E1C185B99 PUSH1 0xAA SHL DUP6 DUP3 ADD MSTORE PUSH3 0x198A JUMP JUMPDEST PUSH3 0x9F1 PUSH3 0x9D8 PUSH3 0x1792 JUMP JUMPDEST PUSH11 0x7368617065536872696E6B PUSH1 0xA8 SHL DUP6 DUP3 ADD MSTORE PUSH3 0x198A JUMP JUMPDEST PUSH3 0xA1B PUSH3 0x9FF PUSH3 0x1702 JUMP JUMPDEST PUSH14 0x39B430B832A6B0B5B2ABB4B232B9 PUSH1 0x91 SHL DUP6 DUP3 ADD MSTORE PUSH3 0x198A JUMP JUMPDEST PUSH3 0xA48 PUSH3 0xA29 PUSH3 0x1672 JUMP JUMPDEST PUSH17 0x39B430B832A6B0B5B2A730B93937BBB2B9 PUSH1 0x79 SHL DUP6 DUP3 ADD MSTORE PUSH3 0x198A JUMP JUMPDEST PUSH3 0xA73 PUSH3 0xA56 PUSH3 0x16BA JUMP JUMPDEST PUSH15 0x39B430B832A6B0B5B2A434B3B432B9 PUSH1 0x89 SHL DUP6 DUP3 ADD MSTORE PUSH3 0x198A JUMP JUMPDEST PUSH3 0xA9F PUSH3 0xA81 PUSH3 0x176E JUMP JUMPDEST PUSH16 0x39B430B832A6B0B5B2A9B437B93A32B9 PUSH1 0x81 SHL DUP6 DUP3 ADD MSTORE PUSH3 0x198A JUMP JUMPDEST PUSH3 0xAD8 PUSH3 0xAAD PUSH3 0x17FE JUMP JUMPDEST PUSH32 0x73686170654368616E6765437572766543656E74657273000000000000000000 DUP6 DUP3 ADD MSTORE PUSH3 0x198A JUMP JUMPDEST PUSH3 0xB11 PUSH3 0xAE6 PUSH3 0x17B6 JUMP JUMPDEST PUSH32 0x7368617065496E637265617365436F6E63617669747900000000000000000000 DUP6 DUP3 ADD MSTORE PUSH3 0x198A JUMP JUMPDEST PUSH3 0xB4A PUSH3 0xB1F PUSH3 0x16DE JUMP JUMPDEST PUSH32 0x7368617065526564756365436F6E636176697479000000000000000000000000 DUP6 DUP3 ADD MSTORE PUSH3 0x198A JUMP JUMPDEST PUSH3 0xB83 PUSH3 0xB58 PUSH3 0x1822 JUMP JUMPDEST PUSH32 0x73686170654368616E6765526164697573657300000000000000000000000000 DUP6 DUP3 ADD MSTORE PUSH3 0x198A JUMP JUMPDEST DUP4 MLOAD DUP5 DUP2 ADD DUP2 DUP2 LT DUP4 DUP3 GT OR PUSH3 0x147A JUMPI DUP6 MSTORE PUSH1 0x9 DUP2 MSTORE PUSH9 0x73686170654D6F7665 PUSH1 0xB8 SHL DUP5 DUP3 ADD MSTORE PUSH3 0xBB6 SWAP1 PUSH3 0x198A JUMP JUMPDEST PUSH3 0xBDE PUSH3 0xBC4 PUSH3 0x1726 JUMP JUMPDEST PUSH12 0x3AB73237A6BABA30BA34B7B7 PUSH1 0xA1 SHL DUP6 DUP3 ADD MSTORE PUSH3 0x198A JUMP JUMPDEST PUSH3 0xC17 PUSH3 0xBEC PUSH3 0x17FE JUMP JUMPDEST PUSH32 0x72657475726E546F50726576696F757356657273696F6E000000000000000000 DUP6 DUP3 ADD MSTORE PUSH3 0x198A JUMP JUMPDEST PUSH3 0xC50 PUSH3 0xC25 PUSH3 0x17B6 JUMP JUMPDEST PUSH32 0x73656564706F696E744D6F766552696768742D746F7000000000000000000000 DUP6 DUP3 ADD MSTORE PUSH3 0x198A JUMP JUMPDEST PUSH3 0xC89 PUSH3 0xC5E PUSH3 0x1846 JUMP JUMPDEST PUSH32 0x73656564706F696E744D6F76654C6566742D746F700000000000000000000000 DUP6 DUP3 ADD MSTORE PUSH3 0x198A JUMP JUMPDEST PUSH3 0xCC2 PUSH3 0xC97 PUSH3 0x1822 JUMP JUMPDEST PUSH32 0x73656564706F696E744D6F766555702D746F7000000000000000000000000000 DUP6 DUP3 ADD MSTORE PUSH3 0x198A JUMP JUMPDEST PUSH3 0xCFB PUSH3 0xCD0 PUSH3 0x1846 JUMP JUMPDEST PUSH32 0x73656564706F696E744D6F7665446F776E2D746F700000000000000000000000 DUP6 DUP3 ADD MSTORE PUSH3 0x198A JUMP JUMPDEST PUSH3 0xD34 PUSH3 0xD09 PUSH3 0x186A JUMP JUMPDEST PUSH32 0x73656564706F696E744368616E6765437572766543656E7465722D746F700000 DUP6 DUP3 ADD MSTORE PUSH3 0x198A JUMP JUMPDEST PUSH3 0xD6D PUSH3 0xD42 PUSH3 0x186A JUMP JUMPDEST PUSH32 0x73656564706F696E74496E637265617365436F6E6361766974792D746F700000 DUP6 DUP3 ADD MSTORE PUSH3 0x198A JUMP JUMPDEST PUSH3 0xDA6 PUSH3 0xD7B PUSH3 0x186A JUMP JUMPDEST PUSH32 0x73656564706F696E744465637265617365436F6E6361766974792D746F700000 DUP6 DUP3 ADD MSTORE PUSH3 0x198A JUMP JUMPDEST PUSH3 0xDDF PUSH3 0xDB4 PUSH3 0x188E JUMP JUMPDEST PUSH32 0x73656564706F696E74496E6372656173655261646975732D746F700000000000 DUP6 DUP3 ADD MSTORE PUSH3 0x198A JUMP JUMPDEST PUSH3 0xE18 PUSH3 0xDED PUSH3 0x188E JUMP JUMPDEST PUSH32 0x73656564706F696E7444656372656173655261646975732D746F700000000000 DUP6 DUP3 ADD MSTORE PUSH3 0x198A JUMP JUMPDEST DUP4 MLOAD SWAP2 DUP3 DUP6 ADD SWAP2 DUP3 GT DUP4 DUP4 LT OR PUSH3 0x1467 JUMPI POP PUSH3 0x1442 SWAP3 SWAP2 PUSH3 0xE67 SWAP2 DUP6 MSTORE PUSH1 0x19 DUP2 MSTORE PUSH32 0x73656564706F696E744D6F766552696768742D626F74746F6D00000000000000 DUP4 DUP3 ADD MSTORE PUSH3 0x198A JUMP JUMPDEST PUSH3 0xEA0 PUSH3 0xE75 PUSH3 0x18B2 JUMP JUMPDEST PUSH32 0x73656564706F696E744D6F76654C6566742D626F74746F6D0000000000000000 DUP4 DUP3 ADD MSTORE PUSH3 0x198A JUMP JUMPDEST PUSH3 0xED9 PUSH3 0xEAE PUSH3 0x17B6 JUMP JUMPDEST PUSH32 0x73656564706F696E744D6F766555702D626F74746F6D00000000000000000000 DUP4 DUP3 ADD MSTORE PUSH3 0x198A JUMP JUMPDEST PUSH3 0xF12 PUSH3 0xEE7 PUSH3 0x18B2 JUMP JUMPDEST PUSH32 0x73656564706F696E744D6F7665446F776E2D626F74746F6D0000000000000000 DUP4 DUP3 ADD MSTORE PUSH3 0x198A JUMP JUMPDEST PUSH3 0xFD2 PUSH3 0xF20 PUSH3 0x18D6 JUMP JUMPDEST PUSH32 0x73656564706F696E744368616E6765437572766543656E7465722D626F74746F DUP4 DUP3 ADD MSTORE PUSH3 0xF5A PUSH1 0x6D PUSH1 0xF8 SHL SWAP2 DUP3 DUP8 DUP3 ADD MSTORE PUSH3 0x198A JUMP JUMPDEST PUSH3 0xF98 PUSH3 0xF68 PUSH3 0x18D6 JUMP JUMPDEST PUSH32 0x73656564706F696E74496E637265617365436F6E6361766974792D626F74746F DUP6 DUP3 ADD MSTORE DUP3 DUP8 DUP3 ADD MSTORE PUSH3 0x198A JUMP JUMPDEST PUSH3 0xFA2 PUSH3 0x18D6 JUMP JUMPDEST SWAP1 PUSH32 0x73656564706F696E744465637265617365436F6E6361766974792D626F74746F DUP5 DUP4 ADD MSTORE DUP6 DUP3 ADD MSTORE PUSH3 0x198A JUMP JUMPDEST PUSH3 0x100B PUSH3 0xFE0 PUSH3 0x186A JUMP JUMPDEST PUSH32 0x73656564706F696E74496E6372656173655261646975732D626F74746F6D0000 DUP4 DUP3 ADD MSTORE PUSH3 0x198A JUMP JUMPDEST PUSH3 0x1044 PUSH3 0x1019 PUSH3 0x186A JUMP JUMPDEST PUSH32 0x73656564706F696E7444656372656173655261646975732D626F74746F6D0000 DUP4 DUP3 ADD MSTORE PUSH3 0x198A JUMP JUMPDEST PUSH3 0x107D PUSH3 0x1052 PUSH3 0x17FE JUMP JUMPDEST PUSH32 0x73656564706F696E744D6F766552696768742D6C656674000000000000000000 DUP4 DUP3 ADD MSTORE PUSH3 0x198A JUMP JUMPDEST PUSH3 0x10B6 PUSH3 0x108B PUSH3 0x17B6 JUMP JUMPDEST PUSH32 0x73656564706F696E744D6F76654C6566742D6C65667400000000000000000000 DUP4 DUP3 ADD MSTORE PUSH3 0x198A JUMP JUMPDEST PUSH3 0x10EF PUSH3 0x10C4 PUSH3 0x16DE JUMP JUMPDEST PUSH32 0x73656564706F696E744D6F766555702D6C656674000000000000000000000000 DUP4 DUP3 ADD MSTORE PUSH3 0x198A JUMP JUMPDEST PUSH3 0x1128 PUSH3 0x10FD PUSH3 0x17B6 JUMP JUMPDEST PUSH32 0x73656564706F696E744D6F7665446F776E2D6C65667400000000000000000000 DUP4 DUP3 ADD MSTORE PUSH3 0x198A JUMP JUMPDEST PUSH3 0x1161 PUSH3 0x1136 PUSH3 0x18FA JUMP JUMPDEST PUSH32 0x73656564706F696E744368616E6765437572766543656E7465722D6C65667400 DUP4 DUP3 ADD MSTORE PUSH3 0x198A JUMP JUMPDEST PUSH3 0x119A PUSH3 0x116F PUSH3 0x18FA JUMP JUMPDEST PUSH32 0x73656564706F696E74496E637265617365436F6E6361766974792D6C65667400 DUP4 DUP3 ADD MSTORE PUSH3 0x198A JUMP JUMPDEST PUSH3 0x11D3 PUSH3 0x11A8 PUSH3 0x18FA JUMP JUMPDEST PUSH32 0x73656564706F696E744465637265617365436F6E6361766974792D6C65667400 DUP4 DUP3 ADD MSTORE PUSH3 0x198A JUMP JUMPDEST PUSH3 0x120C PUSH3 0x11E1 PUSH3 0x191E JUMP JUMPDEST PUSH32 0x73656564706F696E74496E6372656173655261646975732D6C65667400000000 DUP4 DUP3 ADD MSTORE PUSH3 0x198A JUMP JUMPDEST PUSH3 0x1245 PUSH3 0x121A PUSH3 0x191E JUMP JUMPDEST PUSH32 0x73656564706F696E7444656372656173655261646975732D6C65667400000000 DUP4 DUP3 ADD MSTORE PUSH3 0x198A JUMP JUMPDEST PUSH3 0x127E PUSH3 0x1253 PUSH3 0x18B2 JUMP JUMPDEST PUSH32 0x73656564706F696E744D6F766552696768742D72696768740000000000000000 DUP4 DUP3 ADD MSTORE PUSH3 0x198A JUMP JUMPDEST PUSH3 0x12B7 PUSH3 0x128C PUSH3 0x17FE JUMP JUMPDEST PUSH32 0x73656564706F696E744D6F76654C6566742D7269676874000000000000000000 DUP4 DUP3 ADD MSTORE PUSH3 0x198A JUMP JUMPDEST PUSH3 0x12F0 PUSH3 0x12C5 PUSH3 0x1846 JUMP JUMPDEST PUSH32 0x73656564706F696E744D6F766555702D72696768740000000000000000000000 DUP4 DUP3 ADD MSTORE PUSH3 0x198A JUMP JUMPDEST PUSH3 0x1329 PUSH3 0x12FE PUSH3 0x17FE JUMP JUMPDEST PUSH32 0x73656564706F696E744D6F7665446F776E2D7269676874000000000000000000 DUP4 DUP3 ADD MSTORE PUSH3 0x198A JUMP JUMPDEST PUSH3 0x1362 PUSH3 0x1337 PUSH3 0x1942 JUMP JUMPDEST PUSH32 0x73656564706F696E744368616E6765437572766543656E7465722D7269676874 DUP4 DUP3 ADD MSTORE PUSH3 0x198A JUMP JUMPDEST PUSH3 0x139B PUSH3 0x1370 PUSH3 0x1942 JUMP JUMPDEST PUSH32 0x73656564706F696E74496E637265617365436F6E6361766974792D7269676874 DUP4 DUP3 ADD MSTORE PUSH3 0x198A JUMP JUMPDEST PUSH3 0x13D4 PUSH3 0x13A9 PUSH3 0x1942 JUMP JUMPDEST PUSH32 0x73656564706F696E744465637265617365436F6E6361766974792D7269676874 DUP4 DUP3 ADD MSTORE PUSH3 0x198A JUMP JUMPDEST PUSH3 0x140D PUSH3 0x13E2 PUSH3 0x1966 JUMP JUMPDEST PUSH32 0x73656564706F696E74496E6372656173655261646975732D7269676874000000 DUP4 DUP3 ADD MSTORE PUSH3 0x198A JUMP JUMPDEST PUSH32 0x73656564706F696E7444656372656173655261646975732D7269676874000000 PUSH3 0x1438 PUSH3 0x1966 JUMP JUMPDEST SWAP2 DUP3 ADD MSTORE PUSH3 0x198A JUMP JUMPDEST MLOAD PUSH2 0x5561 SWAP1 DUP2 PUSH3 0x1B48 DUP3 CODECOPY PUSH1 0x80 MLOAD DUP2 DUP2 DUP2 PUSH2 0x652 ADD MSTORE DUP2 DUP2 PUSH2 0x1B60 ADD MSTORE PUSH2 0x29DA ADD MSTORE RETURN JUMPDEST PUSH1 0x41 SWAP1 PUSH4 0x4E487B71 PUSH1 0xE0 SHL PUSH0 MSTORE MSTORE PUSH1 0x24 PUSH0 REVERT JUMPDEST PUSH1 0x41 DUP5 PUSH4 0x4E487B71 PUSH1 0xE0 SHL PUSH0 MSTORE MSTORE PUSH1 0x24 PUSH0 REVERT JUMPDEST DUP5 MLOAD PUSH4 0x1E4FBDF7 PUSH1 0xE0 SHL DUP2 MSTORE PUSH0 DUP2 DUP6 ADD MSTORE PUSH1 0x24 SWAP1 REVERT JUMPDEST ADD MLOAD SWAP1 POP PUSH0 DUP1 PUSH3 0x108 JUMP JUMPDEST PUSH1 0x1F NOT DUP3 AND SWAP1 DUP4 PUSH0 MSTORE DUP7 PUSH0 KECCAK256 SWAP2 PUSH0 JUMPDEST DUP2 DUP2 LT PUSH3 0x14FD JUMPI POP SWAP9 DUP4 DUP6 SWAP7 SWAP8 SWAP9 SWAP10 SWAP11 LT PUSH3 0x14E4 JUMPI JUMPDEST POP POP POP DUP2 SHL ADD DUP2 SSTORE PUSH3 0x11B JUMP JUMPDEST ADD MLOAD PUSH0 NOT PUSH1 0xF8 DUP5 PUSH1 0x3 SHL AND SHR NOT AND SWAP1 SSTORE PUSH0 DUP1 DUP1 PUSH3 0x14D6 JUMP JUMPDEST DUP11 DUP4 ADD MLOAD DUP5 SSTORE SWAP3 DUP6 ADD SWAP3 SWAP2 DUP9 ADD SWAP2 DUP9 ADD PUSH3 0x14BE JUMP JUMPDEST DUP4 PUSH0 MSTORE DUP7 PUSH0 KECCAK256 DUP3 DUP1 DUP6 ADD PUSH1 0x5 SHR DUP3 ADD SWAP3 DUP10 DUP7 LT PUSH3 0x1551 JUMPI JUMPDEST ADD PUSH1 0x5 SHR ADD SWAP1 DUP5 SWAP1 JUMPDEST DUP3 DUP2 LT PUSH3 0x1545 JUMPI POP POP PUSH3 0xEC JUMP JUMPDEST PUSH0 DUP2 SSTORE ADD DUP5 SWAP1 PUSH3 0x1535 JUMP JUMPDEST SWAP3 POP DUP2 SWAP3 PUSH3 0x152C JUMP JUMPDEST PUSH1 0x22 DUP7 PUSH4 0x4E487B71 PUSH1 0xE0 SHL PUSH0 MSTORE MSTORE PUSH1 0x24 PUSH0 REVERT JUMPDEST SWAP1 PUSH1 0x7F AND SWAP1 PUSH3 0xDA JUMP JUMPDEST PUSH1 0x41 DUP6 PUSH4 0x4E487B71 PUSH1 0xE0 SHL PUSH0 MSTORE MSTORE PUSH1 0x24 PUSH0 REVERT JUMPDEST ADD MLOAD SWAP1 POP PUSH0 DUP1 PUSH3 0xAC JUMP JUMPDEST SWAP1 DUP6 SWAP4 POP PUSH1 0x1F NOT DUP4 AND SWAP2 PUSH0 DUP1 MSTORE DUP10 PUSH0 KECCAK256 SWAP3 PUSH0 JUMPDEST DUP12 DUP3 DUP3 LT PUSH3 0x15E5 JUMPI POP POP DUP5 GT PUSH3 0x15CC JUMPI JUMPDEST POP POP POP DUP2 SHL ADD PUSH0 SSTORE PUSH3 0xBF JUMP JUMPDEST ADD MLOAD PUSH0 NOT PUSH1 0xF8 DUP5 PUSH1 0x3 SHL AND SHR NOT AND SWAP1 SSTORE PUSH0 DUP1 DUP1 PUSH3 0x15BE JUMP JUMPDEST DUP4 DUP6 ADD MLOAD DUP7 SSTORE DUP10 SWAP8 SWAP1 SWAP6 ADD SWAP5 SWAP4 DUP5 ADD SWAP4 ADD PUSH3 0x15AB JUMP JUMPDEST SWAP1 SWAP2 POP PUSH0 DUP1 MSTORE DUP8 PUSH0 KECCAK256 DUP5 DUP1 DUP6 ADD PUSH1 0x5 SHR DUP3 ADD SWAP3 DUP11 DUP7 LT PUSH3 0x1645 JUMPI JUMPDEST SWAP2 DUP8 SWAP2 DUP7 SWAP6 SWAP5 SWAP4 ADD PUSH1 0x5 SHR ADD SWAP2 JUMPDEST DUP3 DUP2 LT PUSH3 0x1636 JUMPI POP POP PUSH3 0x96 JUMP JUMPDEST PUSH0 DUP2 SSTORE DUP6 SWAP5 POP DUP8 SWAP2 ADD PUSH3 0x1626 JUMP JUMPDEST SWAP3 POP DUP2 SWAP3 PUSH3 0x1618 JUMP JUMPDEST SWAP3 PUSH1 0x7F AND SWAP3 PUSH3 0x7F JUMP JUMPDEST PUSH4 0x4E487B71 PUSH1 0xE0 SHL PUSH0 MSTORE PUSH1 0x41 PUSH1 0x4 MSTORE PUSH1 0x24 PUSH0 REVERT JUMPDEST PUSH0 DUP1 REVERT JUMPDEST PUSH1 0x40 DUP1 MLOAD SWAP2 SWAP1 DUP3 ADD PUSH1 0x1 PUSH1 0x1 PUSH1 0x40 SHL SUB DUP2 GT DUP4 DUP3 LT OR PUSH3 0x165A JUMPI PUSH1 0x40 MSTORE PUSH1 0x11 DUP3 MSTORE JUMP JUMPDEST PUSH1 0x40 DUP1 MLOAD SWAP2 SWAP1 DUP3 ADD PUSH1 0x1 PUSH1 0x1 PUSH1 0x40 SHL SUB DUP2 GT DUP4 DUP3 LT OR PUSH3 0x165A JUMPI PUSH1 0x40 MSTORE PUSH1 0x12 DUP3 MSTORE JUMP JUMPDEST PUSH1 0x40 DUP1 MLOAD SWAP2 SWAP1 DUP3 ADD PUSH1 0x1 PUSH1 0x1 PUSH1 0x40 SHL SUB DUP2 GT DUP4 DUP3 LT OR PUSH3 0x165A JUMPI PUSH1 0x40 MSTORE PUSH1 0xF DUP3 MSTORE JUMP JUMPDEST PUSH1 0x40 DUP1 MLOAD SWAP2 SWAP1 DUP3 ADD PUSH1 0x1 PUSH1 0x1 PUSH1 0x40 SHL SUB DUP2 GT DUP4 DUP3 LT OR PUSH3 0x165A JUMPI PUSH1 0x40 MSTORE PUSH1 0x14 DUP3 MSTORE JUMP JUMPDEST PUSH1 0x40 DUP1 MLOAD SWAP2 SWAP1 DUP3 ADD PUSH1 0x1 PUSH1 0x1 PUSH1 0x40 SHL SUB DUP2 GT DUP4 DUP3 LT OR PUSH3 0x165A JUMPI PUSH1 0x40 MSTORE PUSH1 0xE DUP3 MSTORE JUMP JUMPDEST PUSH1 0x40 DUP1 MLOAD SWAP2 SWAP1 DUP3 ADD PUSH1 0x1 PUSH1 0x1 PUSH1 0x40 SHL SUB DUP2 GT DUP4 DUP3 LT OR PUSH3 0x165A JUMPI PUSH1 0x40 MSTORE PUSH1 0xC DUP3 MSTORE JUMP JUMPDEST PUSH1 0x40 DUP1 MLOAD SWAP2 SWAP1 DUP3 ADD PUSH1 0x1 PUSH1 0x1 PUSH1 0x40 SHL SUB DUP2 GT DUP4 DUP3 LT OR PUSH3 0x165A JUMPI PUSH1 0x40 MSTORE PUSH1 0xD DUP3 MSTORE JUMP JUMPDEST PUSH1 0x40 DUP1 MLOAD SWAP2 SWAP1 DUP3 ADD PUSH1 0x1 PUSH1 0x1 PUSH1 0x40 SHL SUB DUP2 GT DUP4 DUP3 LT OR PUSH3 0x165A JUMPI PUSH1 0x40 MSTORE PUSH1 0x10 DUP3 MSTORE JUMP JUMPDEST PUSH1 0x40 DUP1 MLOAD SWAP2 SWAP1 DUP3 ADD PUSH1 0x1 PUSH1 0x1 PUSH1 0x40 SHL SUB DUP2 GT DUP4 DUP3 LT OR PUSH3 0x165A JUMPI PUSH1 0x40 MSTORE PUSH1 0xB DUP3 MSTORE JUMP JUMPDEST PUSH1 0x40 DUP1 MLOAD SWAP2 SWAP1 DUP3 ADD PUSH1 0x1 PUSH1 0x1 PUSH1 0x40 SHL SUB DUP2 GT DUP4 DUP3 LT OR PUSH3 0x165A JUMPI PUSH1 0x40 MSTORE PUSH1 0x16 DUP3 MSTORE JUMP JUMPDEST PUSH1 0x40 DUP1 MLOAD SWAP2 SWAP1 DUP3 ADD PUSH1 0x1 PUSH1 0x1 PUSH1 0x40 SHL SUB DUP2 GT DUP4 DUP3 LT OR PUSH3 0x165A JUMPI PUSH1 0x40 MSTORE PUSH1 0x1A DUP3 MSTORE JUMP JUMPDEST PUSH1 0x40 DUP1 MLOAD SWAP2 SWAP1 DUP3 ADD PUSH1 0x1 PUSH1 0x1 PUSH1 0x40 SHL SUB DUP2 GT DUP4 DUP3 LT OR PUSH3 0x165A JUMPI PUSH1 0x40 MSTORE PUSH1 0x17 DUP3 MSTORE JUMP JUMPDEST PUSH1 0x40 DUP1 MLOAD SWAP2 SWAP1 DUP3 ADD PUSH1 0x1 PUSH1 0x1 PUSH1 0x40 SHL SUB DUP2 GT DUP4 DUP3 LT OR PUSH3 0x165A JUMPI PUSH1 0x40 MSTORE PUSH1 0x13 DUP3 MSTORE JUMP JUMPDEST PUSH1 0x40 DUP1 MLOAD SWAP2 SWAP1 DUP3 ADD PUSH1 0x1 PUSH1 0x1 PUSH1 0x40 SHL SUB DUP2 GT DUP4 DUP3 LT OR PUSH3 0x165A JUMPI PUSH1 0x40 MSTORE PUSH1 0x15 DUP3 MSTORE JUMP JUMPDEST PUSH1 0x40 DUP1 MLOAD SWAP2 SWAP1 DUP3 ADD PUSH1 0x1 PUSH1 0x1 PUSH1 0x40 SHL SUB DUP2 GT DUP4 DUP3 LT OR PUSH3 0x165A JUMPI PUSH1 0x40 MSTORE PUSH1 0x1E DUP3 MSTORE JUMP JUMPDEST PUSH1 0x40 DUP1 MLOAD SWAP2 SWAP1 DUP3 ADD PUSH1 0x1 PUSH1 0x1 PUSH1 0x40 SHL SUB DUP2 GT DUP4 DUP3 LT OR PUSH3 0x165A JUMPI PUSH1 0x40 MSTORE PUSH1 0x1B DUP3 MSTORE JUMP JUMPDEST PUSH1 0x40 DUP1 MLOAD SWAP2 SWAP1 DUP3 ADD PUSH1 0x1 PUSH1 0x1 PUSH1 0x40 SHL SUB DUP2 GT DUP4 DUP3 LT OR PUSH3 0x165A JUMPI PUSH1 0x40 MSTORE PUSH1 0x18 DUP3 MSTORE JUMP JUMPDEST PUSH1 0x40 MLOAD SWAP1 PUSH1 0x60 DUP3 ADD PUSH1 0x1 PUSH1 0x1 PUSH1 0x40 SHL SUB DUP2 GT DUP4 DUP3 LT OR PUSH3 0x165A JUMPI PUSH1 0x40 MSTORE PUSH1 0x21 DUP3 MSTORE JUMP JUMPDEST PUSH1 0x40 DUP1 MLOAD SWAP2 SWAP1 DUP3 ADD PUSH1 0x1 PUSH1 0x1 PUSH1 0x40 SHL SUB DUP2 GT DUP4 DUP3 LT OR PUSH3 0x165A JUMPI PUSH1 0x40 MSTORE PUSH1 0x1F DUP3 MSTORE JUMP JUMPDEST PUSH1 0x40 DUP1 MLOAD SWAP2 SWAP1 DUP3 ADD PUSH1 0x1 PUSH1 0x1 PUSH1 0x40 SHL SUB DUP2 GT DUP4 DUP3 LT OR PUSH3 0x165A JUMPI PUSH1 0x40 MSTORE PUSH1 0x1C DUP3 MSTORE JUMP JUMPDEST PUSH1 0x40 DUP1 MLOAD SWAP2 SWAP1 DUP3 ADD PUSH1 0x1 PUSH1 0x1 PUSH1 0x40 SHL SUB DUP2 GT DUP4 DUP3 LT OR PUSH3 0x165A JUMPI PUSH1 0x40 MSTORE PUSH1 0x20 DUP3 MSTORE JUMP JUMPDEST PUSH1 0x40 DUP1 MLOAD SWAP2 SWAP1 DUP3 ADD PUSH1 0x1 PUSH1 0x1 PUSH1 0x40 SHL SUB DUP2 GT DUP4 DUP3 LT OR PUSH3 0x165A JUMPI PUSH1 0x40 MSTORE PUSH1 0x1D DUP3 MSTORE JUMP JUMPDEST SWAP1 PUSH1 0x2D SLOAD PUSH9 0x10000000000000000 DUP2 LT ISZERO PUSH3 0x165A JUMPI PUSH1 0x1 SWAP1 DUP2 DUP2 ADD DUP1 PUSH1 0x2D SSTORE DUP2 LT ISZERO PUSH3 0x1B33 JUMPI PUSH1 0x2D PUSH0 MSTORE DUP4 MLOAD SWAP4 PUSH1 0x20 SWAP2 PUSH32 0x4A2CC91EE622DA3BC833A54C37FFCB6F3EC23B7793EFC5EAF5E71B7B406C5C06 ADD PUSH1 0x1 PUSH1 0x1 PUSH1 0x40 SHL SUB DUP7 GT PUSH3 0x165A JUMPI DUP1 SLOAD DUP5 DUP2 DUP2 SHR SWAP2 AND DUP1 ISZERO PUSH3 0x1B28 JUMPI JUMPDEST DUP5 DUP3 LT EQ PUSH3 0x1B14 JUMPI PUSH1 0x1F DUP2 GT PUSH3 0x1AC9 JUMPI JUMPDEST POP DUP3 PUSH1 0x1F DUP8 GT PUSH1 0x1 EQ PUSH3 0x1A64 JUMPI SWAP6 DUP1 PUSH1 0x2E SWAP6 SWAP7 SWAP8 PUSH0 SWAP2 PUSH3 0x1A58 JUMPI JUMPDEST POP PUSH0 NOT PUSH1 0x3 DUP4 SWAP1 SHL SHR NOT AND SWAP1 DUP7 SHL OR SWAP1 SSTORE JUMPDEST DUP2 DUP2 MLOAD SWAP2 ADD KECCAK256 PUSH0 MSTORE MSTORE PUSH1 0x40 PUSH0 KECCAK256 SWAP1 PUSH1 0xFF NOT DUP3 SLOAD AND OR SWAP1 SSTORE JUMP JUMPDEST SWAP1 POP DUP4 ADD MLOAD PUSH0 PUSH3 0x1A2D JUMP JUMPDEST PUSH1 0x1F NOT DUP8 AND SWAP1 DUP3 PUSH0 MSTORE DUP5 PUSH0 KECCAK256 SWAP2 PUSH0 JUMPDEST DUP2 DUP2 LT PUSH3 0x1AB3 JUMPI POP SWAP2 DUP9 SWAP2 DUP8 SWAP9 SWAP10 PUSH1 0x2E SWAP9 SWAP5 LT PUSH3 0x1A9A JUMPI JUMPDEST POP POP DUP2 SHL ADD SWAP1 SSTORE PUSH3 0x1A3F JUMP JUMPDEST DUP6 ADD MLOAD PUSH0 NOT PUSH1 0xF8 DUP5 PUSH1 0x3 SHL AND SHR NOT AND SWAP1 SSTORE PUSH0 DUP1 PUSH3 0x1A8D JUMP JUMPDEST DUP6 DUP4 ADD MLOAD DUP5 SSTORE SWAP3 DUP8 ADD SWAP3 SWAP2 DUP7 ADD SWAP2 DUP7 ADD PUSH3 0x1A73 JUMP JUMPDEST DUP2 PUSH0 MSTORE DUP4 PUSH0 KECCAK256 PUSH1 0x1F DUP9 ADD PUSH1 0x5 SHR DUP2 ADD SWAP2 DUP6 DUP10 LT PUSH3 0x1B09 JUMPI JUMPDEST PUSH1 0x1F ADD PUSH1 0x5 SHR ADD SWAP1 DUP6 SWAP1 JUMPDEST DUP3 DUP2 LT PUSH3 0x1AFD JUMPI POP POP PUSH3 0x1A10 JUMP JUMPDEST PUSH0 DUP2 SSTORE ADD DUP6 SWAP1 PUSH3 0x1AED JUMP JUMPDEST SWAP1 SWAP2 POP DUP2 SWAP1 PUSH3 0x1AE2 JUMP JUMPDEST PUSH4 0x4E487B71 PUSH1 0xE0 SHL PUSH0 MSTORE PUSH1 0x22 PUSH1 0x4 MSTORE PUSH1 0x24 PUSH0 REVERT JUMPDEST SWAP1 PUSH1 0x7F AND SWAP1 PUSH3 0x19FD JUMP JUMPDEST PUSH4 0x4E487B71 PUSH1 0xE0 SHL PUSH0 MSTORE PUSH1 0x32 PUSH1 0x4 MSTORE PUSH1 0x24 PUSH0 REVERT INVALID PUSH1 0x80 PUSH1 0x40 SWAP1 DUP1 DUP3 MSTORE PUSH1 0x4 DUP1 CALLDATASIZE LT ISZERO PUSH2 0x15 JUMPI PUSH0 DUP1 REVERT JUMPDEST PUSH0 CALLDATALOAD PUSH1 0xE0 SHR SWAP2 DUP3 PUSH3 0x9C4C7E EQ PUSH2 0x39C1 JUMPI POP DUP2 PUSH4 0x1FFC9A7 EQ PUSH2 0x391E JUMPI DUP2 PUSH4 0x6FDDE03 EQ PUSH2 0x3871 JUMPI DUP2 PUSH4 0x739AC06 EQ PUSH2 0x3855 JUMPI DUP2 PUSH4 0x7488CCD EQ PUSH2 0x3565 JUMPI DUP2 PUSH4 0x81812FC EQ PUSH2 0x352D JUMPI DUP2 PUSH4 0x95EA7B3 EQ PUSH2 0x3452 JUMPI DUP2 PUSH4 0x9AAA61E EQ PUSH2 0x3435 JUMPI DUP2 PUSH4 0xAC6FC58 EQ PUSH2 0x33BD JUMPI DUP2 PUSH4 0xD3FD161 EQ PUSH2 0x3392 JUMPI DUP2 PUSH4 0x131F3A1E EQ PUSH2 0x2891 JUMPI DUP2 PUSH4 0x149E7B77 EQ PUSH2 0x3336 JUMPI DUP2 PUSH4 0x161860D6 EQ PUSH2 0x330F JUMPI DUP2 PUSH4 0x16308812 EQ PUSH2 0x2F98 JUMPI DUP2 PUSH4 0x18160DDD EQ PUSH2 0x2F7C JUMPI DUP2 PUSH4 0x23B872DD EQ PUSH2 0x2F65 JUMPI DUP2 PUSH4 0x27189CA0 EQ PUSH2 0x29A3 JUMPI DUP2 PUSH4 0x29777C35 EQ PUSH2 0x2987 JUMPI DUP2 PUSH4 0x2A55205A EQ PUSH2 0x2920 JUMPI DUP2 PUSH4 0x2B49D425 EQ PUSH2 0x28BE JUMPI DUP2 PUSH4 0x2F745C59 EQ PUSH2 0x2896 JUMPI DUP2 PUSH4 0x32CB6B0C EQ PUSH2 0x2891 JUMPI DUP2 PUSH4 0x3CCFD60B EQ PUSH2 0x27DA JUMPI DUP2 PUSH4 0x41EC6870 EQ PUSH2 0x2774 JUMPI DUP2 PUSH4 0x42842E0E EQ PUSH2 0x2746 JUMPI DUP2 PUSH4 0x467F67F9 EQ PUSH2 0x2729 JUMPI DUP2 PUSH4 0x49C657DB EQ PUSH2 0x270D JUMPI DUP2 PUSH4 0x4E474DD9 EQ PUSH2 0x26E5 JUMPI DUP2 PUSH4 0x4F64B2BE EQ PUSH2 0x26B4 JUMPI DUP2 PUSH4 0x4F6CCCE7 EQ PUSH2 0x2668 JUMPI DUP2 PUSH4 0x54F48419 EQ PUSH2 0x264A JUMPI DUP2 PUSH4 0x55F804B3 EQ PUSH2 0x24B6 JUMPI DUP2 PUSH4 0x5EF46BC5 EQ PUSH2 0x23CF JUMPI DUP2 PUSH4 0x5FA951A7 EQ PUSH2 0x2164 JUMPI DUP2 PUSH4 0x6352211E EQ PUSH2 0x2135 JUMPI DUP2 PUSH4 0x6B04A1E2 EQ PUSH2 0x2067 JUMPI DUP2 PUSH4 0x6C0360EB EQ PUSH2 0x1FCB JUMPI DUP2 PUSH4 0x70A08231 EQ PUSH2 0x1FA6 JUMPI DUP2 PUSH4 0x70A6F230 EQ PUSH2 0x1F47 JUMPI DUP2 PUSH4 0x715018A6 EQ PUSH2 0x1EEC JUMPI DUP2 PUSH4 0x71F951D8 EQ PUSH2 0x1EC0 JUMPI DUP2 PUSH4 0x7AF2A933 EQ PUSH2 0x1EC0 JUMPI DUP2 PUSH4 0x7E056B91 EQ PUSH2 0x1B4C JUMPI DUP2 PUSH4 0x85C639FE EQ PUSH2 0x1B25 JUMPI DUP2 PUSH4 0x86E2D5DF EQ PUSH2 0x1B08 JUMPI DUP2 PUSH4 0x8DA5CB5B EQ PUSH2 0x1AE0 JUMPI DUP2 PUSH4 0x8DC251E3 EQ PUSH2 0x1A31 JUMPI DUP2 PUSH4 0x90F4FE72 EQ PUSH2 0x1920 JUMPI DUP2 PUSH4 0x95D89B41 EQ PUSH2 0x184C JUMPI DUP2 PUSH4 0x9A617D0C EQ PUSH2 0x1734 JUMPI DUP2 PUSH4 0x9FBC8713 EQ PUSH2 0x170C JUMPI DUP2 PUSH4 0xA22CB465 EQ PUSH2 0x1671 JUMPI DUP2 PUSH4 0xA7FA70CE EQ PUSH2 0x164A JUMPI DUP2 PUSH4 0xAFB7BED9 EQ PUSH2 0x134E JUMPI DUP2 PUSH4 0xAFE21C29 EQ PUSH2 0xFA5 JUMPI DUP2 PUSH4 0xB0B54895 EQ PUSH2 0xF87 JUMPI DUP2 PUSH4 0xB1610D7E EQ PUSH2 0xF6A JUMPI DUP2 PUSH4 0xB6FD4622 EQ PUSH2 0xDAA JUMPI DUP2 PUSH4 0xB88D4FDE EQ PUSH2 0xD3F JUMPI DUP2 PUSH4 0xBA097686 EQ PUSH2 0xD09 JUMPI DUP2 PUSH4 0xC06E887E EQ PUSH2 0xCEB JUMPI DUP2 PUSH4 0xC83D07E3 EQ PUSH2 0xC78 JUMPI DUP2 PUSH4 0xC87B56DD EQ PUSH2 0x9AD JUMPI DUP2 PUSH4 0xCCAD22DE EQ PUSH2 0x814 JUMPI DUP2 PUSH4 0xCDC3CC41 EQ PUSH2 0x7EC JUMPI DUP2 PUSH4 0xD088650A EQ PUSH2 0x7CE JUMPI DUP2 PUSH4 0xD40D9D8B EQ PUSH2 0x796 JUMPI DUP2 PUSH4 0xD9759F9A EQ PUSH2 0x77B JUMPI DUP2 PUSH4 0xE2B0A15D EQ PUSH2 0x725 JUMPI DUP2 PUSH4 0xE985E9C5 EQ PUSH2 0x6D7 JUMPI DUP2 PUSH4 0xE9B35361 EQ PUSH2 0x69B JUMPI DUP2 PUSH4 0xEB91D37E EQ PUSH2 0x675 JUMPI DUP2 PUSH4 0xECDA10F5 EQ PUSH2 0x63B JUMPI DUP2 PUSH4 0xEDE6FADE EQ PUSH2 0x620 JUMPI DUP2 PUSH4 0xF2FDE38B EQ PUSH2 0x596 JUMPI DUP2 PUSH4 0xFA90EABF EQ PUSH2 0x4AD JUMPI DUP2 PUSH4 0xFC2DEEED EQ PUSH2 0x487 JUMPI DUP2 PUSH4 0xFE660DC6 EQ PUSH2 0x469 JUMPI DUP2 PUSH4 0xFEFAFA08 EQ PUSH2 0x3AE JUMPI POP PUSH4 0xFF9830BD EQ PUSH2 0x38F JUMPI PUSH0 DUP1 REVERT JUMPDEST CALLVALUE PUSH2 0x3AA JUMPI PUSH0 CALLDATASIZE PUSH1 0x3 NOT ADD SLT PUSH2 0x3AA JUMPI PUSH1 0x20 SWAP1 MLOAD PUSH2 0x1F4 DUP2 MSTORE RETURN JUMPDEST PUSH0 DUP1 REVERT JUMPDEST SWAP1 POP CALLVALUE PUSH2 0x3AA JUMPI PUSH1 0x20 CALLDATASIZE PUSH1 0x3 NOT ADD SLT PUSH2 0x3AA JUMPI PUSH2 0x3C9 PUSH2 0x3A21 JUMP JUMPDEST SWAP1 PUSH2 0x3D2 PUSH2 0x4971 JUMP JUMPDEST PUSH1 0xF SLOAD SWAP3 PUSH1 0xFF DUP5 PUSH1 0xA0 SHR AND PUSH2 0x426 JUMPI POP POP PUSH1 0x1 PUSH1 0x1 PUSH1 0xA0 SHL SUB SWAP1 DUP2 AND PUSH1 0x1 PUSH1 0x1 PUSH1 0xA0 SHL SUB NOT DUP4 AND DUP2 OR PUSH1 0xF SSTORE SWAP2 AND PUSH32 0x4629AFDDEC912EC503DD73BDFF4ED7D1DDFF82665CC12234D2050E12F518E5ED PUSH0 DUP1 LOG3 STOP JUMPDEST SWAP1 PUSH1 0x20 PUSH1 0x64 SWAP3 MLOAD SWAP2 PUSH3 0x461BCD PUSH1 0xE5 SHL DUP4 MSTORE DUP3 ADD MSTORE PUSH1 0x1F PUSH1 0x24 DUP3 ADD MSTORE PUSH32 0x47656E657261746F72206973207065726D616E656E746C79206C6F636B656400 PUSH1 0x44 DUP3 ADD MSTORE REVERT JUMPDEST DUP3 CALLVALUE PUSH2 0x3AA JUMPI PUSH0 CALLDATASIZE PUSH1 0x3 NOT ADD SLT PUSH2 0x3AA JUMPI PUSH1 0x20 SWAP1 PUSH1 0x2C SLOAD SWAP1 MLOAD SWAP1 DUP2 MSTORE RETURN JUMPDEST DUP3 CALLVALUE PUSH2 0x3AA JUMPI PUSH0 CALLDATASIZE PUSH1 0x3 NOT ADD SLT PUSH2 0x3AA JUMPI PUSH1 0x20 SWAP1 PUSH1 0xFF PUSH1 0xF SLOAD PUSH1 0xA0 SHR AND SWAP1 MLOAD SWAP1 ISZERO ISZERO DUP2 MSTORE RETURN JUMPDEST SWAP1 POP CALLVALUE PUSH2 0x3AA JUMPI PUSH0 CALLDATASIZE PUSH1 0x3 NOT ADD SLT PUSH2 0x3AA JUMPI PUSH2 0x4C7 PUSH2 0x4971 JUMP JUMPDEST PUSH1 0xF SLOAD SWAP1 PUSH1 0xFF DUP3 PUSH1 0xA0 SHR AND PUSH2 0x562 JUMPI PUSH1 0x1 PUSH1 0x1 PUSH1 0xA0 SHL SUB DUP3 AND SWAP3 DUP4 ISZERO PUSH2 0x51F JUMPI POP POP PUSH1 0xFF PUSH1 0xA0 SHL NOT AND PUSH1 0x1 PUSH1 0xA0 SHL OR PUSH1 0xF SSTORE PUSH32 0x8DC9002242FE1D7789084AD61ACB9ADEE344FD3E9D6C7BD89D94DA389EA99914 PUSH0 DUP1 LOG2 STOP JUMPDEST SWAP1 PUSH1 0x20 PUSH1 0x64 SWAP3 MLOAD SWAP2 PUSH3 0x461BCD PUSH1 0xE5 SHL DUP4 MSTORE DUP3 ADD MSTORE PUSH1 0x1C PUSH1 0x24 DUP3 ADD MSTORE PUSH32 0x5365742067656E657261746F72206265666F7265206C6F636B696E6700000000 PUSH1 0x44 DUP3 ADD MSTORE REVERT JUMPDEST PUSH1 0x64 SWAP1 PUSH1 0x20 DUP5 MLOAD SWAP2 PUSH3 0x461BCD PUSH1 0xE5 SHL DUP4 MSTORE DUP3 ADD MSTORE PUSH1 0xE PUSH1 0x24 DUP3 ADD MSTORE PUSH14 0x105B1C9958591E481B1BD8DAD959 PUSH1 0x92 SHL PUSH1 0x44 DUP3 ADD MSTORE REVERT JUMPDEST SWAP1 POP CALLVALUE PUSH2 0x3AA JUMPI PUSH1 0x20 CALLDATASIZE PUSH1 0x3 NOT ADD SLT PUSH2 0x3AA JUMPI PUSH2 0x5B1 PUSH2 0x3A21 JUMP JUMPDEST SWAP1 PUSH2 0x5BA PUSH2 0x4971 JUMP JUMPDEST PUSH1 0x1 PUSH1 0x1 PUSH1 0xA0 SHL SUB SWAP2 DUP3 AND SWAP3 DUP4 ISZERO PUSH2 0x60A JUMPI POP POP PUSH1 0xA SLOAD DUP3 PUSH1 0x1 PUSH1 0x1 PUSH1 0x60 SHL SUB PUSH1 0xA0 SHL DUP3 AND OR PUSH1 0xA SSTORE AND PUSH32 0x8BE0079C531659141344CD1FD0A4F28419497F9722A3DAAFE3B4186F6B6457E0 PUSH0 DUP1 LOG3 STOP JUMPDEST SWAP1 PUSH0 PUSH1 0x24 SWAP3 MLOAD SWAP2 PUSH4 0x1E4FBDF7 PUSH1 0xE0 SHL DUP4 MSTORE DUP3 ADD MSTORE REVERT JUMPDEST DUP3 CALLVALUE PUSH2 0x3AA JUMPI PUSH0 CALLDATASIZE PUSH1 0x3 NOT ADD SLT PUSH2 0x3AA JUMPI PUSH1 0x20 SWAP1 MLOAD PUSH1 0x1E DUP2 MSTORE RETURN JUMPDEST DUP3 CALLVALUE PUSH2 0x3AA JUMPI PUSH0 CALLDATASIZE PUSH1 0x3 NOT ADD SLT PUSH2 0x3AA JUMPI PUSH1 0x20 SWAP1 MLOAD PUSH32 0x0 DUP2 MSTORE RETURN JUMPDEST DUP3 CALLVALUE PUSH2 0x3AA JUMPI PUSH0 CALLDATASIZE PUSH1 0x3 NOT ADD SLT PUSH2 0x3AA JUMPI PUSH1 0x20 SWAP1 PUSH2 0x694 PUSH1 0x29 SLOAD PUSH2 0x504C JUMP JUMPDEST SWAP1 MLOAD SWAP1 DUP2 MSTORE RETURN JUMPDEST DUP3 CALLVALUE PUSH2 0x3AA JUMPI PUSH0 CALLDATASIZE PUSH1 0x3 NOT ADD SLT PUSH2 0x3AA JUMPI PUSH1 0x60 SWAP1 PUSH2 0x6B7 PUSH2 0x491F JUMP JUMPDEST DUP4 MLOAD SWAP3 ISZERO ISZERO DUP4 MSTORE PUSH1 0x1 PUSH1 0x1 PUSH1 0xA0 SHL SUB SWAP1 SWAP2 AND PUSH1 0x20 DUP4 ADD MSTORE SWAP2 DUP2 ADD SWAP2 SWAP1 SWAP2 MSTORE RETURN JUMPDEST DUP3 CALLVALUE PUSH2 0x3AA JUMPI DUP1 PUSH1 0x3 NOT CALLDATASIZE ADD SLT PUSH2 0x3AA JUMPI PUSH1 0x20 SWAP1 PUSH2 0x6F3 PUSH2 0x3A21 JUMP JUMPDEST PUSH2 0x6FB PUSH2 0x3A37 JUMP JUMPDEST SWAP1 PUSH1 0x1 DUP1 PUSH1 0xA0 SHL SUB DUP1 SWAP2 AND PUSH0 MSTORE PUSH1 0x5 DUP5 MSTORE DUP3 PUSH0 KECCAK256 SWAP2 AND PUSH0 MSTORE DUP3 MSTORE PUSH1 0xFF DUP2 PUSH0 KECCAK256 SLOAD AND SWAP1 MLOAD SWAP1 ISZERO ISZERO DUP2 MSTORE RETURN JUMPDEST DUP3 CALLVALUE PUSH2 0x3AA JUMPI PUSH0 CALLDATASIZE PUSH1 0x3 NOT ADD SLT PUSH2 0x3AA JUMPI PUSH1 0xA0 SWAP1 PUSH1 0xFF PUSH1 0x21 SLOAD SWAP2 PUSH1 0x22 SLOAD SWAP1 DUP1 MLOAD SWAP4 DUP5 MSTORE DUP3 DUP3 AND ISZERO ISZERO PUSH1 0x20 DUP6 ADD MSTORE PUSH1 0x1 DUP1 DUP7 SHL SUB DUP3 PUSH1 0x8 SHR AND SWAP1 DUP5 ADD MSTORE DUP2 DUP2 PUSH1 0xA8 SHR AND ISZERO ISZERO PUSH1 0x60 DUP5 ADD MSTORE PUSH1 0xB0 SHR AND ISZERO ISZERO PUSH1 0x80 DUP3 ADD MSTORE RETURN JUMPDEST DUP3 CALLVALUE PUSH2 0x3AA JUMPI PUSH0 CALLDATASIZE PUSH1 0x3 NOT ADD SLT PUSH2 0x3AA JUMPI PUSH1 0x20 SWAP1 MLOAD PUSH1 0x64 DUP2 MSTORE RETURN JUMPDEST SWAP1 POP CALLVALUE PUSH2 0x3AA JUMPI PUSH1 0x20 CALLDATASIZE PUSH1 0x3 NOT ADD SLT PUSH2 0x3AA JUMPI CALLDATALOAD SWAP1 PUSH1 0x1A SLOAD DUP3 LT ISZERO PUSH2 0x3AA JUMPI PUSH2 0x7C0 PUSH1 0x20 SWAP3 PUSH2 0x3E6A JUMP JUMPDEST SWAP2 SWAP1 SLOAD SWAP1 MLOAD SWAP2 PUSH1 0x3 SHL SHR DUP2 MSTORE RETURN JUMPDEST DUP3 CALLVALUE PUSH2 0x3AA JUMPI PUSH0 CALLDATASIZE PUSH1 0x3 NOT ADD SLT PUSH2 0x3AA JUMPI PUSH1 0x20 SWAP1 PUSH1 0xC SLOAD SWAP1 MLOAD SWAP1 DUP2 MSTORE RETURN JUMPDEST DUP3 CALLVALUE PUSH2 0x3AA JUMPI PUSH0 CALLDATASIZE PUSH1 0x3 NOT ADD SLT PUSH2 0x3AA JUMPI PUSH1 0x2B SLOAD SWAP1 MLOAD PUSH1 0x1 PUSH1 0x1 PUSH1 0xA0 SHL SUB SWAP1 SWAP2 AND DUP2 MSTORE PUSH1 0x20 SWAP1 RETURN JUMPDEST DUP3 CALLVALUE PUSH2 0x3AA JUMPI PUSH2 0x823 CALLDATASIZE PUSH2 0x3B5D JUMP JUMPDEST SWAP1 SWAP2 PUSH2 0x82D PUSH2 0x499D JUMP JUMPDEST PUSH2 0x836 DUP4 PUSH2 0x4D7C JUMP JUMPDEST CALLER PUSH1 0x1 PUSH1 0x1 PUSH1 0xA0 SHL SUB SWAP1 SWAP2 AND SUB PUSH2 0x979 JUMPI PUSH2 0x86C PUSH2 0x867 DUP4 PUSH1 0x20 DUP2 MLOAD SWAP2 ADD KECCAK256 PUSH0 MSTORE PUSH1 0x2E PUSH1 0x20 MSTORE PUSH1 0xFF PUSH1 0x40 PUSH0 KECCAK256 SLOAD AND SWAP1 JUMP JUMPDEST PUSH2 0x40A4 JUMP JUMPDEST PUSH2 0x875 DUP4 PUSH2 0x489E JUMP JUMPDEST ISZERO PUSH2 0x941 JUMPI DUP3 PUSH0 MSTORE PUSH1 0x2F PUSH1 0x20 MSTORE PUSH3 0x15180 TIMESTAMP DIV DUP2 PUSH0 KECCAK256 SSTORE PUSH1 0x1C PUSH1 0x20 MSTORE PUSH2 0x89F DUP3 DUP3 PUSH0 KECCAK256 SLOAD DUP6 PUSH2 0x4DB6 JUMP JUMPDEST SWAP1 DUP4 PUSH0 MSTORE PUSH1 0x1C PUSH1 0x20 MSTORE PUSH2 0x8CD DUP2 PUSH0 KECCAK256 DUP3 MLOAD SWAP1 PUSH2 0x8BA DUP3 PUSH2 0x3A7C JUMP JUMPDEST DUP6 DUP3 MSTORE DUP5 PUSH1 0x20 DUP4 ADD MSTORE TIMESTAMP DUP5 DUP4 ADD MSTORE PUSH2 0x40E8 JUMP JUMPDEST DUP4 PUSH0 MSTORE PUSH1 0x1C PUSH1 0x20 MSTORE DUP1 PUSH0 KECCAK256 SLOAD SWAP5 PUSH0 NOT DUP7 ADD SWAP6 DUP7 GT PUSH2 0x92E JUMPI POP SWAP1 PUSH2 0x919 PUSH32 0x4226F74E56624AAF998322A4BB5EBB847B5811AC4711DF2F3D9B46D7A8F4A3E9 SWAP4 SWAP3 MLOAD SWAP3 DUP4 SWAP3 TIMESTAMP SWAP2 DUP5 PUSH2 0x3E13 JUMP JUMPDEST SUB SWAP1 LOG3 PUSH0 PUSH0 DUP1 MLOAD PUSH1 0x20 PUSH2 0x550C DUP4 CODECOPY DUP2 MLOAD SWAP2 MSTORE TSTORE STOP JUMPDEST PUSH1 0x11 SWAP1 PUSH4 0x4E487B71 PUSH1 0xE0 SHL PUSH0 MSTORE MSTORE PUSH1 0x24 PUSH0 REVERT JUMPDEST MLOAD PUSH3 0x461BCD PUSH1 0xE5 SHL DUP2 MSTORE PUSH1 0x20 DUP2 DUP6 ADD MSTORE PUSH1 0x13 PUSH1 0x24 DUP3 ADD MSTORE PUSH19 0x43616E6E6F74206D757461746520746F646179 PUSH1 0x68 SHL PUSH1 0x44 DUP3 ADD MSTORE PUSH1 0x64 SWAP1 REVERT JUMPDEST MLOAD PUSH3 0x461BCD PUSH1 0xE5 SHL DUP2 MSTORE PUSH1 0x20 DUP2 DUP6 ADD MSTORE PUSH1 0xF PUSH1 0x24 DUP3 ADD MSTORE PUSH15 0x2737BA103A37B5B2B71037BBB732B9 PUSH1 0x89 SHL PUSH1 0x44 DUP3 ADD MSTORE PUSH1 0x64 SWAP1 REVERT JUMPDEST DUP3 CALLVALUE PUSH2 0x3AA JUMPI PUSH1 0x20 SWAP1 DUP2 PUSH1 0x3 NOT CALLDATASIZE ADD SLT PUSH2 0x3AA JUMPI DUP3 CALLDATALOAD PUSH0 DUP2 DUP2 MSTORE PUSH1 0x2 DUP5 MSTORE DUP3 SWAP1 KECCAK256 SLOAD PUSH2 0x9E3 SWAP1 PUSH1 0x1 PUSH1 0x1 PUSH1 0xA0 SHL SUB AND ISZERO ISZERO PUSH2 0x4061 JUMP JUMPDEST PUSH1 0xE SLOAD PUSH2 0x9EF DUP2 PUSH2 0x3BE1 JUMP JUMPDEST ISZERO PUSH2 0xC20 JUMPI DUP2 DUP1 SWAP6 PUSH0 SWAP2 PUSH27 0x184F03E93FF9F4DAA797ED6E38ED64BF6A1F010000000000000000 SWAP1 DUP2 DUP2 LT ISZERO PUSH2 0xC13 JUMPI JUMPDEST POP POP PUSH14 0x4EE2D6D415B85ACEF8100000000 DUP1 DUP9 LT ISZERO PUSH2 0xC05 JUMPI JUMPDEST POP PUSH7 0x2386F26FC10000 DUP1 DUP9 LT ISZERO PUSH2 0xBF6 JUMPI JUMPDEST POP PUSH4 0x5F5E100 DUP1 DUP9 LT ISZERO PUSH2 0xBE7 JUMPI JUMPDEST POP PUSH2 0x2710 DUP1 DUP9 LT ISZERO PUSH2 0xBDB JUMPI JUMPDEST POP POP PUSH1 0x64 DUP7 LT ISZERO PUSH2 0xBCD JUMPI JUMPDEST PUSH1 0xA DUP1 SWAP7 LT ISZERO PUSH2 0xBC5 JUMPI JUMPDEST PUSH1 0x1 SWAP1 PUSH1 0x1 DUP2 ADD SWAP7 PUSH2 0xAA7 PUSH2 0xA92 DUP10 PUSH2 0x3AEE JUMP JUMPDEST SWAP9 PUSH2 0xA9F DUP9 MLOAD SWAP11 DUP12 PUSH2 0x3ACD JUMP JUMPDEST DUP1 DUP11 MSTORE PUSH2 0x3AEE JUMP JUMPDEST SWAP5 DUP4 PUSH1 0x21 DUP10 DUP12 ADD SWAP5 PUSH1 0x1F NOT DUP1 SWAP10 ADD CALLDATASIZE DUP8 CALLDATACOPY DUP12 ADD ADD SWAP1 JUMPDEST PUSH2 0xB97 JUMPI JUMPDEST POP POP POP DUP5 MLOAD SWAP7 DUP8 SWAP4 PUSH0 SWAP4 PUSH2 0xAD5 DUP3 PUSH2 0x3BE1 JUMP JUMPDEST SWAP2 DUP10 PUSH1 0x1 DUP3 AND SWAP2 DUP3 PUSH0 EQ PUSH2 0xB75 JUMPI POP POP PUSH1 0x1 EQ PUSH2 0xB28 JUMPI JUMPDEST POP POP SWAP2 DUP1 PUSH2 0xB08 PUSH2 0xB15 SWAP6 SWAP4 PUSH2 0xB24 SWAP9 SWAP8 SWAP6 MLOAD SWAP4 DUP5 SWAP2 PUSH2 0x39DB JUMP JUMPDEST ADD SUB SWAP1 DUP2 ADD DUP7 MSTORE DUP6 PUSH2 0x3ACD JUMP JUMPDEST MLOAD SWAP3 DUP3 DUP5 SWAP4 DUP5 MSTORE DUP4 ADD SWAP1 PUSH2 0x39FC JUMP JUMPDEST SUB SWAP1 RETURN JUMPDEST DUP9 SWAP3 SWAP4 SWAP5 POP PUSH1 0xE PUSH0 MSTORE PUSH0 DUP1 MLOAD PUSH1 0x20 PUSH2 0x54CC DUP4 CODECOPY DUP2 MLOAD SWAP2 MSTORE SWAP1 PUSH0 SWAP2 JUMPDEST DUP4 DUP4 LT PUSH2 0xB5B JUMPI POP POP POP DUP5 ADD ADD SWAP2 SWAP1 DUP1 PUSH2 0xB08 PUSH2 0xAED JUMP JUMPDEST DUP1 SLOAD SWAP8 DUP4 ADD DUP6 ADD SWAP8 SWAP1 SWAP8 MSTORE DUP11 SWAP7 DUP11 SWAP5 SWAP1 SWAP3 ADD SWAP2 DUP2 ADD PUSH2 0xB43 JUMP JUMPDEST PUSH1 0xFF NOT AND DUP2 DUP10 ADD MSTORE DUP4 ISZERO ISZERO SWAP1 SWAP4 MUL DUP8 ADD SWAP1 SWAP3 ADD SWAP5 POP DUP3 SWAP2 POP PUSH2 0xB08 SWAP1 POP PUSH2 0xAED JUMP JUMPDEST PUSH0 NOT ADD SWAP1 DUP3 SWAP1 PUSH16 0x181899199A1A9B1B9C1CB0B131B232B3 PUSH1 0x81 SHL DUP3 DUP3 MOD BYTE DUP4 MSTORE8 DIV SWAP1 DUP5 DUP3 PUSH2 0xABD JUMPI POP PUSH2 0xAC2 JUMP JUMPDEST PUSH1 0x1 ADD PUSH2 0xA7E JUMP JUMPDEST SWAP5 PUSH1 0x64 PUSH1 0x2 SWAP2 DIV SWAP6 ADD PUSH2 0xA73 JUMP JUMPDEST SWAP1 SWAP7 DIV SWAP6 ADD DUP7 DUP1 PUSH2 0xA67 JUMP JUMPDEST PUSH1 0x8 SWAP2 SWAP3 SWAP8 DIV SWAP7 ADD SWAP1 DUP8 PUSH2 0xA5A JUMP JUMPDEST PUSH1 0x10 SWAP2 SWAP3 SWAP8 DIV SWAP7 ADD SWAP1 DUP8 PUSH2 0xA4B JUMP JUMPDEST DUP7 SWAP2 SWAP3 SWAP8 DIV SWAP7 ADD SWAP1 DUP8 PUSH2 0xA39 JUMP JUMPDEST DIV SWAP7 POP DUP5 SWAP2 POP DUP8 DUP1 PUSH2 0xA1F JUMP JUMPDEST DUP3 MLOAD PUSH3 0x461BCD PUSH1 0xE5 SHL DUP2 MSTORE DUP1 DUP7 ADD DUP6 SWAP1 MSTORE PUSH1 0x2C PUSH1 0x24 DUP3 ADD MSTORE PUSH32 0x62617365555249206E6F7420736574202D206F776E6572206D7573742063616C PUSH1 0x44 DUP3 ADD MSTORE PUSH12 0x6C2073657442617365555249 PUSH1 0xA0 SHL PUSH1 0x64 DUP3 ADD MSTORE PUSH1 0x84 SWAP1 REVERT JUMPDEST SWAP1 POP CALLVALUE PUSH2 0x3AA JUMPI PUSH1 0x20 CALLDATASIZE PUSH1 0x3 NOT ADD SLT PUSH2 0x3AA JUMPI CALLDATALOAD PUSH1 0x2D SLOAD DUP2 LT ISZERO PUSH2 0x3AA JUMPI PUSH2 0xB24 SWAP2 PUSH2 0xCD9 PUSH2 0xCD2 SWAP3 PUSH1 0x2D PUSH0 MSTORE DUP3 MLOAD SWAP4 DUP5 DUP1 SWAP3 PUSH32 0x4A2CC91EE622DA3BC833A54C37FFCB6F3EC23B7793EFC5EAF5E71B7B406C5C06 ADD PUSH2 0x3CB7 JUMP JUMPDEST SUB DUP4 PUSH2 0x3ACD JUMP JUMPDEST MLOAD SWAP2 DUP3 SWAP2 PUSH1 0x20 DUP4 MSTORE PUSH1 0x20 DUP4 ADD SWAP1 PUSH2 0x39FC JUMP JUMPDEST DUP3 CALLVALUE PUSH2 0x3AA JUMPI PUSH0 CALLDATASIZE PUSH1 0x3 NOT ADD SLT PUSH2 0x3AA JUMPI PUSH1 0x20 SWAP1 PUSH1 0x1A SLOAD SWAP1 MLOAD SWAP1 DUP2 MSTORE RETURN JUMPDEST SWAP1 POP CALLVALUE PUSH2 0x3AA JUMPI PUSH1 0x20 CALLDATASIZE PUSH1 0x3 NOT ADD SLT PUSH2 0x3AA JUMPI CALLDATALOAD PUSH1 0x6 DUP2 LT ISZERO PUSH2 0x3AA JUMPI DUP2 PUSH2 0xCD9 PUSH2 0xCD2 SWAP3 PUSH2 0xB24 SWAP5 MLOAD SWAP4 DUP5 DUP1 SWAP3 PUSH1 0x23 ADD PUSH2 0x3CB7 JUMP JUMPDEST CALLVALUE PUSH2 0x3AA JUMPI PUSH1 0x80 CALLDATASIZE PUSH1 0x3 NOT ADD SLT PUSH2 0x3AA JUMPI PUSH2 0xD58 PUSH2 0x3A21 JUMP JUMPDEST PUSH2 0xD60 PUSH2 0x3A37 JUMP JUMPDEST PUSH1 0x44 CALLDATALOAD SWAP1 PUSH1 0x64 CALLDATALOAD PUSH1 0x1 PUSH1 0x1 PUSH1 0x40 SHL SUB DUP2 GT PUSH2 0x3AA JUMPI CALLDATASIZE PUSH1 0x23 DUP3 ADD SLT ISZERO PUSH2 0x3AA JUMPI PUSH2 0xDA8 SWAP5 DUP2 PUSH1 0x24 PUSH2 0xD96 SWAP4 CALLDATASIZE SWAP4 ADD CALLDATALOAD SWAP2 ADD PUSH2 0x3B09 JUMP JUMPDEST SWAP3 PUSH2 0xDA2 DUP4 DUP4 DUP4 PUSH2 0x4269 JUMP JUMPDEST CALLER PUSH2 0x50CD JUMP JUMPDEST STOP JUMPDEST DUP3 CALLVALUE PUSH2 0x3AA JUMPI PUSH1 0x20 CALLDATASIZE PUSH1 0x3 NOT ADD SLT PUSH2 0x3AA JUMPI DUP2 CALLDATALOAD PUSH1 0xFF DUP2 AND DUP1 DUP3 SUB PUSH2 0x3AA JUMPI PUSH1 0x3 PUSH2 0xDDD SWAP2 PUSH2 0xDD7 PUSH2 0x499D JUMP JUMPDEST LT PUSH2 0x4632 JUMP JUMPDEST PUSH1 0x2B SLOAD SWAP1 PUSH2 0xDF5 PUSH1 0x1 PUSH1 0x1 PUSH1 0xA0 SHL SUB DUP4 AND CALLER EQ PUSH2 0x4674 JUMP JUMPDEST PUSH1 0x21 SLOAD SWAP4 PUSH2 0xE04 DUP6 ISZERO ISZERO PUSH2 0x46C0 JUMP JUMPDEST PUSH1 0x22 SLOAD SWAP5 PUSH2 0xE15 PUSH1 0xFF DUP8 AND ISZERO PUSH2 0x4701 JUMP JUMPDEST PUSH1 0xFF DUP7 PUSH1 0xA8 SHR AND PUSH2 0xF19 JUMPI PUSH2 0xCE4 DUP2 ADD DUP1 SWAP2 GT PUSH2 0xF06 JUMPI PUSH2 0xE38 SWAP1 TIMESTAMP GT ISZERO PUSH2 0x474D JUMP JUMPDEST PUSH1 0x3 DUP3 LT ISZERO PUSH2 0xEF3 JUMPI POP PUSH1 0x1E ADD SLOAD PUSH1 0xFF NOT SWAP1 SWAP4 AND PUSH1 0x1 OR PUSH1 0x22 SSTORE PUSH1 0x1 PUSH1 0x1 PUSH1 0xA0 SHL SUB NOT AND PUSH1 0x2B SSTORE PUSH0 PUSH1 0x2C SSTORE TIMESTAMP PUSH1 0x2A SSTORE PUSH1 0x29 SLOAD SWAP1 PUSH2 0xE74 DUP3 PUSH2 0x4003 JUMP JUMPDEST PUSH1 0x29 SSTORE DUP1 MLOAD PUSH2 0xE82 DUP2 PUSH2 0x3A4D JUMP JUMPDEST DUP4 DUP2 MSTORE PUSH1 0x1 PUSH1 0x20 DUP3 ADD TIMESTAMP DUP2 MSTORE DUP5 PUSH0 MSTORE PUSH1 0x1B PUSH1 0x20 MSTORE DUP4 PUSH0 KECCAK256 SWAP3 MLOAD DUP4 SSTORE MLOAD SWAP2 ADD SSTORE PUSH2 0xEAB DUP3 CALLER PUSH2 0x4ABA JUMP JUMPDEST DUP1 MLOAD SWAP3 DUP4 MSTORE PUSH0 PUSH1 0x20 DUP5 ADD MSTORE TIMESTAMP SWAP1 DUP4 ADD MSTORE PUSH32 0x35A71FD4AD36D3B5F42A9819D12284AC3592B91D09F274E2FF1639A4418C1A02 PUSH1 0x60 CALLER SWAP4 LOG3 PUSH0 PUSH0 DUP1 MLOAD PUSH1 0x20 PUSH2 0x550C DUP4 CODECOPY DUP2 MLOAD SWAP2 MSTORE TSTORE STOP JUMPDEST PUSH1 0x32 SWAP1 PUSH4 0x4E487B71 PUSH1 0xE0 SHL PUSH0 MSTORE MSTORE PUSH1 0x24 PUSH0 REVERT JUMPDEST PUSH1 0x11 DUP3 PUSH4 0x4E487B71 PUSH1 0xE0 SHL PUSH0 MSTORE MSTORE PUSH1 0x24 PUSH0 REVERT JUMPDEST DUP5 MLOAD PUSH3 0x461BCD PUSH1 0xE5 SHL DUP2 MSTORE PUSH1 0x20 DUP2 DUP5 ADD MSTORE PUSH1 0x25 PUSH1 0x24 DUP3 ADD MSTORE PUSH32 0x55736520636F6D706C6574654F776E65724D696E7420666F72206F776E657220 PUSH1 0x44 DUP3 ADD MSTORE PUSH5 0x6D696E7473 PUSH1 0xD8 SHL PUSH1 0x64 DUP3 ADD MSTORE PUSH1 0x84 SWAP1 REVERT JUMPDEST DUP3 CALLVALUE PUSH2 0x3AA JUMPI PUSH0 CALLDATASIZE PUSH1 0x3 NOT ADD SLT PUSH2 0x3AA JUMPI PUSH1 0x20 SWAP1 MLOAD PUSH3 0x20F580 DUP2 MSTORE RETURN JUMPDEST DUP3 CALLVALUE PUSH2 0x3AA JUMPI PUSH0 CALLDATASIZE PUSH1 0x3 NOT ADD SLT PUSH2 0x3AA JUMPI PUSH1 0x20 SWAP1 MLOAD PUSH4 0x12CC0300 DUP2 MSTORE RETURN JUMPDEST SWAP1 POP CALLVALUE PUSH2 0x3AA JUMPI PUSH0 CALLDATASIZE PUSH1 0x3 NOT ADD SLT PUSH2 0x3AA JUMPI PUSH1 0x10 SLOAD PUSH1 0x1 PUSH1 0x1 PUSH1 0xA0 SHL SUB AND CALLER SUB PUSH2 0x130C JUMPI PUSH1 0xFF PUSH1 0x14 SLOAD PUSH1 0x8 SHR AND ISZERO PUSH2 0x12D2 JUMPI PUSH1 0xFF PUSH1 0x16 SLOAD AND PUSH2 0x129D JUMPI PUSH1 0x15 SLOAD PUSH3 0x2A300 DUP2 ADD DUP1 SWAP2 GT PUSH2 0xF06 JUMPI TIMESTAMP GT PUSH2 0x125B JUMPI PUSH2 0x1002 PUSH1 0x11 SLOAD PUSH2 0x3BE1 JUMP JUMPDEST SWAP1 PUSH1 0x1 PUSH1 0x1 PUSH1 0x40 SHL SUB DUP3 GT PUSH2 0x1248 JUMPI POP PUSH2 0x101D PUSH1 0xE SLOAD PUSH2 0x3BE1 JUMP JUMPDEST PUSH1 0x1F DUP2 GT PUSH2 0x1202 JUMPI JUMPDEST POP PUSH0 PUSH1 0x1F DUP3 GT PUSH1 0x1 EQ PUSH2 0x117B JUMPI SWAP1 DUP1 PUSH2 0x1053 SWAP3 PUSH0 SWAP2 PUSH2 0x116F JUMPI JUMPDEST POP DUP2 PUSH1 0x1 SHL SWAP2 PUSH0 NOT SWAP1 PUSH1 0x3 SHL SHR NOT AND OR SWAP1 JUMP JUMPDEST PUSH1 0xE SSTORE JUMPDEST PUSH1 0x1 SWAP1 PUSH1 0xFF NOT PUSH1 0x1 DUP2 PUSH1 0x16 SLOAD AND OR PUSH1 0x16 SSTORE PUSH1 0x1A SLOAD SWAP1 DUP4 PUSH0 JUMPDEST DUP4 DUP2 LT PUSH2 0x1147 JUMPI POP POP POP PUSH1 0x1A SLOAD PUSH0 PUSH1 0x1A SSTORE DUP1 PUSH2 0x1106 JUMPI JUMPDEST POP PUSH32 0xA621C5AD256761FD9191D8547F07EC26026684C11C01CE72024C5E8CA5925241 SWAP3 POP DUP1 PUSH2 0x10D6 JUMPI JUMPDEST POP PUSH2 0x10BC PUSH1 0xD SLOAD PUSH2 0x4003 JUMP JUMPDEST PUSH1 0xD SSTORE MLOAD PUSH1 0x20 DUP2 MSTORE DUP1 PUSH2 0x10D1 PUSH1 0x20 DUP3 ADD PUSH2 0x3C19 JUMP JUMPDEST SUB SWAP1 LOG1 STOP JUMPDEST PUSH1 0x20 PUSH32 0x861427B54EFCCB3916FFCE06E33CFDC507EBE9587BD407E90A0AF1DBC6FE7E4D SWAP2 DUP4 MLOAD SWAP1 DUP2 MSTORE LOG1 PUSH0 PUSH2 0x10B0 JUMP JUMPDEST PUSH1 0x1A PUSH0 MSTORE PUSH32 0x57C384A7D1C54F3A1B2E5E67B2617B8224FDFD1EA7234EEA573A6FF665FF63E SWAP1 DUP2 ADD SWAP1 JUMPDEST DUP2 DUP2 LT PUSH2 0x113D JUMPI POP PUSH2 0x1086 JUMP JUMPDEST PUSH0 DUP2 SSTORE DUP5 ADD PUSH2 0x1130 JUMP JUMPDEST PUSH2 0x1150 DUP2 PUSH2 0x3E6A JUMP JUMPDEST SWAP1 SLOAD SWAP1 PUSH1 0x3 SHL SHR PUSH0 MSTORE PUSH1 0x19 PUSH1 0x20 MSTORE DUP5 PUSH0 KECCAK256 DUP4 DUP2 SLOAD AND SWAP1 SSTORE ADD DUP5 SWAP1 PUSH2 0x106F JUMP JUMPDEST SWAP1 POP PUSH1 0x11 ADD SLOAD PUSH0 PUSH2 0x1040 JUMP JUMPDEST PUSH1 0x1F NOT DUP3 AND SWAP1 PUSH1 0xE PUSH0 MSTORE PUSH0 DUP1 MLOAD PUSH1 0x20 PUSH2 0x54CC DUP4 CODECOPY DUP2 MLOAD SWAP2 MSTORE SWAP2 PUSH0 JUMPDEST DUP2 DUP2 LT PUSH2 0x11DD JUMPI POP SWAP1 DUP4 PUSH1 0x1 SWAP5 SWAP4 SWAP3 LT PUSH2 0x11B8 JUMPI JUMPDEST POP POP DUP2 SHL ADD PUSH1 0xE SSTORE PUSH2 0x1057 JUMP JUMPDEST PUSH0 DUP1 MLOAD PUSH1 0x20 PUSH2 0x54EC DUP4 CODECOPY DUP2 MLOAD SWAP2 MSTORE ADD SLOAD PUSH0 NOT PUSH1 0xF8 DUP5 PUSH1 0x3 SHL AND SHR NOT AND SWAP1 SSTORE PUSH0 DUP1 PUSH2 0x11AB JUMP JUMPDEST PUSH0 DUP1 MLOAD PUSH1 0x20 PUSH2 0x54EC DUP4 CODECOPY DUP2 MLOAD SWAP2 MSTORE DUP4 ADD SLOAD DUP5 SSTORE PUSH1 0x1 SWAP4 DUP5 ADD SWAP4 SWAP1 SWAP3 ADD SWAP2 PUSH1 0x20 ADD PUSH2 0x1196 JUMP JUMPDEST PUSH2 0x1238 SWAP1 PUSH1 0xE PUSH0 MSTORE PUSH0 DUP1 MLOAD PUSH1 0x20 PUSH2 0x54CC DUP4 CODECOPY DUP2 MLOAD SWAP2 MSTORE PUSH1 0x1F DUP5 ADD PUSH1 0x5 SHR DUP2 ADD SWAP2 PUSH1 0x20 DUP6 LT PUSH2 0x123E JUMPI JUMPDEST PUSH1 0x1F ADD PUSH1 0x5 SHR ADD SWAP1 PUSH2 0x4011 JUMP JUMPDEST PUSH0 PUSH2 0x1026 JUMP JUMPDEST SWAP1 SWAP2 POP DUP2 SWAP1 PUSH2 0x122B JUMP JUMPDEST PUSH1 0x41 SWAP1 PUSH4 0x4E487B71 PUSH1 0xE0 SHL PUSH0 MSTORE MSTORE PUSH1 0x24 PUSH0 REVERT JUMPDEST PUSH1 0x20 PUSH1 0x64 SWAP3 MLOAD SWAP2 PUSH3 0x461BCD PUSH1 0xE5 SHL DUP4 MSTORE DUP3 ADD MSTORE PUSH1 0x20 PUSH1 0x24 DUP3 ADD MSTORE PUSH32 0x50726F706F73616C2065787069726564202D2077696E646F7720636C6F736564 PUSH1 0x44 DUP3 ADD MSTORE REVERT JUMPDEST PUSH1 0x20 PUSH1 0x64 SWAP3 MLOAD SWAP2 PUSH3 0x461BCD PUSH1 0xE5 SHL DUP4 MSTORE DUP3 ADD MSTORE PUSH1 0x10 PUSH1 0x24 DUP3 ADD MSTORE PUSH16 0x105B1C9958591E48195E1958DD5D1959 PUSH1 0x82 SHL PUSH1 0x44 DUP3 ADD MSTORE REVERT JUMPDEST PUSH1 0x20 PUSH1 0x64 SWAP3 MLOAD SWAP2 PUSH3 0x461BCD PUSH1 0xE5 SHL DUP4 MSTORE DUP3 ADD MSTORE PUSH1 0x15 PUSH1 0x24 DUP3 ADD MSTORE PUSH21 0x151A1C995CDA1BDB19081B9BDD081C995858DA1959 PUSH1 0x5A SHL PUSH1 0x44 DUP3 ADD MSTORE REVERT JUMPDEST PUSH1 0x20 PUSH1 0x64 SWAP3 MLOAD SWAP2 PUSH3 0x461BCD PUSH1 0xE5 SHL DUP4 MSTORE DUP3 ADD MSTORE PUSH1 0x19 PUSH1 0x24 DUP3 ADD MSTORE PUSH32 0x4F6E6C792070726F706F7365722063616E20636F6E6669726D00000000000000 PUSH1 0x44 DUP3 ADD MSTORE REVERT JUMPDEST SWAP1 POP PUSH0 CALLDATASIZE PUSH1 0x3 NOT ADD SLT PUSH2 0x3AA JUMPI PUSH1 0x60 DUP3 MLOAD PUSH2 0x1368 DUP2 PUSH2 0x3A7C JUMP JUMPDEST CALLDATASIZE SWAP1 CALLDATACOPY PUSH2 0x1373 PUSH2 0x499D JUMP JUMPDEST PUSH1 0x29 SLOAD PUSH1 0x1E SWAP1 PUSH1 0x1E DUP2 GT ISZERO PUSH2 0x1607 JUMPI PUSH2 0x1390 PUSH2 0x3E7 DUP3 GT ISZERO PUSH2 0x3E9F JUMP JUMPDEST PUSH1 0x2B SLOAD PUSH1 0x1 PUSH1 0x1 PUSH1 0xA0 SHL SUB AND ISZERO DUP1 ISZERO PUSH2 0x15F0 JUMPI JUMPDEST PUSH2 0x13AD SWAP1 PUSH2 0x3F01 JUMP JUMPDEST PUSH1 0x2A SLOAD PUSH3 0x15180 DUP2 ADD DUP1 SWAP2 GT PUSH2 0x15DD JUMPI TIMESTAMP LT PUSH2 0x15A1 JUMPI PUSH2 0x13CC SWAP1 PUSH2 0x504C JUMP JUMPDEST CALLVALUE LT PUSH2 0x1567 JUMPI PUSH1 0xFF SWAP2 PUSH1 0xFF PUSH1 0x22 SLOAD AND DUP1 ISZERO PUSH2 0x1550 JUMPI JUMPDEST ISZERO PUSH2 0x1514 JUMPI POP DUP3 MLOAD PUSH2 0x13F3 DUP2 PUSH2 0x3A7C JUMP JUMPDEST PUSH1 0x60 CALLDATASIZE DUP3 CALLDATACOPY PUSH0 JUMPDEST DUP4 DUP2 AND PUSH1 0x3 DUP2 LT ISZERO PUSH2 0x1428 JUMPI DUP2 PUSH1 0x1 SWAP2 PUSH2 0x1420 PUSH2 0x1419 DUP9 SWAP6 TIMESTAMP CALLER PUSH2 0x4E0F JUMP JUMPDEST SWAP2 DUP7 PUSH2 0x4217 JUMP JUMPDEST MSTORE ADD AND PUSH2 0x13FA JUMP JUMPDEST POP POP DUP4 DUP1 MLOAD PUSH2 0x1436 DUP2 PUSH2 0x3A97 JUMP JUMPDEST DUP3 DUP2 MSTORE PUSH0 PUSH1 0xA0 PUSH1 0x20 SWAP3 TIMESTAMP PUSH1 0x20 DUP3 ADD MSTORE DUP3 DUP6 DUP3 ADD MSTORE CALLER PUSH1 0x60 DUP3 ADD MSTORE DUP3 PUSH1 0x80 DUP3 ADD MSTORE ADD MSTORE DUP3 SWAP4 PUSH0 JUMPDEST PUSH1 0x3 DUP2 LT PUSH2 0x1502 JUMPI PUSH1 0x60 DUP6 PUSH2 0x1500 DUP7 TIMESTAMP PUSH1 0x21 SSTORE PUSH1 0x22 SLOAD PUSH2 0x100 PUSH1 0x1 PUSH1 0xA8 SHL SUB CALLER PUSH1 0x8 SHL AND SWAP1 PUSH9 0xFFFFFFFFFFFFFFFFFF PUSH1 0xB8 SHL AND OR PUSH1 0x22 SSTORE CALLER PUSH1 0x1 PUSH1 0x1 PUSH1 0x60 SHL SUB PUSH1 0xA0 SHL PUSH1 0x2B SLOAD AND OR PUSH1 0x2B SSTORE TIMESTAMP PUSH1 0x2C SSTORE DUP1 MLOAD PUSH2 0x14B7 DUP2 DUP6 PUSH2 0x3D48 JUMP JUMPDEST TIMESTAMP DUP6 DUP3 ADD MSTORE PUSH0 PUSH1 0x80 DUP3 ADD MSTORE PUSH32 0xC904C26EDFA19014321DAD8CE50A657782D9F55CD41AF2AFD9737E4F2EC76307 PUSH1 0xA0 CALLER SWAP3 LOG2 PUSH0 PUSH0 DUP1 MLOAD PUSH1 0x20 PUSH2 0x550C DUP4 CODECOPY DUP2 MLOAD SWAP2 MSTORE TSTORE MLOAD DUP1 SWAP3 PUSH2 0x3D48 JUMP JUMPDEST RETURN JUMPDEST DUP6 MLOAD DUP3 DUP3 ADD SSTORE SWAP5 DUP3 ADD SWAP5 PUSH1 0x1 ADD PUSH2 0x145C JUMP JUMPDEST PUSH1 0x64 SWAP1 PUSH1 0x20 DUP6 MLOAD SWAP2 PUSH3 0x461BCD PUSH1 0xE5 SHL DUP4 MSTORE DUP3 ADD MSTORE PUSH1 0x16 PUSH1 0x24 DUP3 ADD MSTORE PUSH22 0x50656E64696E67207265717565737420657869737473 PUSH1 0x50 SHL PUSH1 0x44 DUP3 ADD MSTORE REVERT JUMPDEST POP PUSH1 0x21 SLOAD PUSH2 0xCE4 DUP2 ADD DUP1 SWAP2 GT PUSH2 0xF06 JUMPI TIMESTAMP GT PUSH2 0x13E2 JUMP JUMPDEST POP PUSH1 0x20 PUSH1 0x64 SWAP3 MLOAD SWAP2 PUSH3 0x461BCD PUSH1 0xE5 SHL DUP4 MSTORE DUP3 ADD MSTORE PUSH1 0x14 PUSH1 0x24 DUP3 ADD MSTORE PUSH20 0x125B9CDD59999A58DA595B9D081C185E5B595B9D PUSH1 0x62 SHL PUSH1 0x44 DUP3 ADD MSTORE REVERT JUMPDEST DUP4 MLOAD PUSH3 0x461BCD PUSH1 0xE5 SHL DUP2 MSTORE PUSH1 0x20 DUP2 DUP6 ADD MSTORE PUSH1 0x16 PUSH1 0x24 DUP3 ADD MSTORE PUSH22 0x476C6F62616C20636F6F6C646F776E20616374697665 PUSH1 0x50 SHL PUSH1 0x44 DUP3 ADD MSTORE PUSH1 0x64 SWAP1 REVERT JUMPDEST PUSH1 0x11 DUP5 PUSH4 0x4E487B71 PUSH1 0xE0 SHL PUSH0 MSTORE MSTORE PUSH1 0x24 PUSH0 REVERT JUMPDEST POP PUSH1 0x2C SLOAD PUSH2 0xCE4 DUP2 ADD DUP1 SWAP2 GT PUSH2 0x15DD JUMPI TIMESTAMP GT PUSH2 0x13A4 JUMP JUMPDEST DUP4 MLOAD PUSH3 0x461BCD PUSH1 0xE5 SHL DUP2 MSTORE PUSH1 0x20 DUP2 DUP6 ADD MSTORE PUSH1 0x18 PUSH1 0x24 DUP3 ADD MSTORE PUSH32 0x4F776E6572206D696E7420706572696F64206163746976650000000000000000 PUSH1 0x44 DUP3 ADD MSTORE PUSH1 0x64 SWAP1 REVERT JUMPDEST DUP3 CALLVALUE PUSH2 0x3AA JUMPI PUSH1 0x20 CALLDATASIZE PUSH1 0x3 NOT ADD SLT PUSH2 0x3AA JUMPI PUSH1 0x20 SWAP2 CALLDATALOAD PUSH0 MSTORE PUSH1 0x18 DUP3 MSTORE DUP1 PUSH0 KECCAK256 SLOAD SWAP1 MLOAD SWAP1 DUP2 MSTORE RETURN JUMPDEST DUP3 CALLVALUE PUSH2 0x3AA JUMPI DUP1 PUSH1 0x3 NOT CALLDATASIZE ADD SLT PUSH2 0x3AA JUMPI PUSH2 0x168A PUSH2 0x3A21 JUMP JUMPDEST SWAP1 PUSH1 0x24 CALLDATALOAD SWAP2 DUP3 ISZERO ISZERO DUP1 SWAP4 SUB PUSH2 0x3AA JUMPI PUSH1 0x1 PUSH1 0x1 PUSH1 0xA0 SHL SUB AND SWAP3 DUP4 ISZERO PUSH2 0x16F7 JUMPI POP CALLER PUSH0 MSTORE PUSH1 0x5 PUSH1 0x20 MSTORE DUP1 PUSH0 KECCAK256 DUP4 PUSH0 MSTORE PUSH1 0x20 MSTORE DUP1 PUSH0 KECCAK256 PUSH1 0xFF NOT DUP2 SLOAD AND PUSH1 0xFF DUP5 AND OR SWAP1 SSTORE MLOAD SWAP1 DUP2 MSTORE PUSH32 0x17307EAB39AB6107E8899845AD3D59BD9653F200F220920489CA2B5937696C31 PUSH1 0x20 CALLER SWAP3 LOG3 STOP JUMPDEST DUP4 PUSH1 0x24 SWAP3 MLOAD SWAP2 PUSH4 0xB611743 PUSH1 0xE3 SHL DUP4 MSTORE DUP3 ADD MSTORE REVERT JUMPDEST DUP3 CALLVALUE PUSH2 0x3AA JUMPI PUSH0 CALLDATASIZE PUSH1 0x3 NOT ADD SLT PUSH2 0x3AA JUMPI PUSH1 0xB SLOAD SWAP1 MLOAD PUSH1 0x1 PUSH1 0x1 PUSH1 0xA0 SHL SUB SWAP1 SWAP2 AND DUP2 MSTORE PUSH1 0x20 SWAP1 RETURN JUMPDEST SWAP1 POP CALLVALUE PUSH2 0x3AA JUMPI PUSH1 0x20 SWAP1 DUP2 PUSH1 0x3 NOT CALLDATASIZE ADD SLT PUSH2 0x3AA JUMPI CALLDATALOAD PUSH0 MSTORE PUSH1 0x1C DUP2 MSTORE DUP2 PUSH0 KECCAK256 DUP1 SLOAD SWAP2 PUSH2 0x175F DUP4 PUSH2 0x461B JUMP JUMPDEST SWAP3 PUSH2 0x176C DUP6 MLOAD SWAP5 DUP6 PUSH2 0x3ACD JUMP JUMPDEST DUP1 DUP5 MSTORE DUP2 DUP5 ADD DUP1 SWAP4 PUSH0 MSTORE DUP3 PUSH0 KECCAK256 PUSH0 SWAP2 JUMPDEST DUP4 DUP4 LT PUSH2 0x17FD JUMPI POP POP POP POP DUP4 MLOAD SWAP3 DUP2 DUP5 ADD SWAP1 DUP3 DUP6 MSTORE MLOAD DUP1 SWAP2 MSTORE DUP5 DUP5 ADD SWAP2 DUP6 DUP3 PUSH1 0x5 SHL DUP7 ADD ADD SWAP4 SWAP3 PUSH0 SWAP7 JUMPDEST DUP4 DUP9 LT PUSH2 0x17B3 JUMPI DUP7 DUP7 SUB DUP8 RETURN JUMPDEST SWAP1 SWAP2 SWAP3 SWAP4 SWAP5 DUP4 DUP1 PUSH1 0x1 SWAP3 PUSH1 0x3F NOT DUP11 DUP3 SUB ADD DUP7 MSTORE DUP9 MLOAD SWAP1 DUP6 DUP1 PUSH2 0x17DE PUSH1 0x60 DUP6 MLOAD SWAP1 DUP1 DUP7 MSTORE DUP6 ADD SWAP1 PUSH2 0x39FC JUMP JUMPDEST SWAP4 DUP6 DUP2 ADD MLOAD DUP7 DUP6 ADD MSTORE ADD MLOAD SWAP2 ADD MSTORE SWAP8 ADD SWAP4 ADD SWAP8 ADD SWAP7 SWAP1 SWAP4 SWAP3 SWAP2 SWAP4 PUSH2 0x17A6 JUMP JUMPDEST PUSH1 0x3 DUP6 PUSH1 0x1 SWAP3 DUP11 SWAP10 SWAP8 SWAP10 MLOAD PUSH2 0x1811 DUP2 PUSH2 0x3A7C JUMP JUMPDEST DUP12 MLOAD PUSH2 0x1828 DUP2 PUSH2 0x1821 DUP2 DUP11 PUSH2 0x3CB7 JUMP JUMPDEST SUB DUP3 PUSH2 0x3ACD JUMP JUMPDEST DUP2 MSTORE DUP5 DUP7 ADD SLOAD DUP4 DUP3 ADD MSTORE PUSH1 0x2 DUP7 ADD SLOAD DUP13 DUP3 ADD MSTORE DUP2 MSTORE ADD SWAP3 ADD SWAP3 ADD SWAP2 SWAP1 SWAP6 SWAP4 SWAP6 PUSH2 0x177C JUMP JUMPDEST DUP3 CALLVALUE PUSH2 0x3AA JUMPI PUSH0 CALLDATASIZE PUSH1 0x3 NOT ADD SLT PUSH2 0x3AA JUMPI DUP1 MLOAD SWAP1 PUSH0 SWAP1 DUP3 PUSH1 0x1 SWAP3 PUSH1 0x1 SLOAD SWAP4 PUSH2 0x1873 DUP6 PUSH2 0x3BE1 JUMP JUMPDEST SWAP1 DUP2 DUP5 MSTORE PUSH1 0x20 SWAP6 DUP7 PUSH1 0x1 DUP3 AND SWAP2 DUP3 PUSH0 EQ PUSH2 0x18FE JUMPI POP POP PUSH1 0x1 EQ PUSH2 0x18A3 JUMPI JUMPDEST POP POP PUSH2 0xB24 SWAP3 SWAP2 PUSH2 0xB15 SWAP2 SUB DUP6 PUSH2 0x3ACD JUMP JUMPDEST SWAP1 DUP6 SWAP3 POP PUSH1 0x1 PUSH0 MSTORE PUSH32 0xB10E2D527612073B26EECDFD717E6A320CF44B4AFAC2B0732D9FCBE2B7FA0CF6 SWAP2 PUSH0 SWAP3 JUMPDEST DUP3 DUP5 LT PUSH2 0x18E6 JUMPI POP POP POP DUP3 ADD ADD DUP2 PUSH2 0xB15 PUSH2 0x1891 JUMP JUMPDEST DUP1 SLOAD DUP5 DUP11 ADD DUP7 ADD MSTORE DUP9 SWAP6 POP DUP8 SWAP5 SWAP1 SWAP4 ADD SWAP3 DUP2 ADD PUSH2 0x18D0 JUMP JUMPDEST PUSH1 0xFF NOT AND DUP7 DUP3 ADD MSTORE SWAP3 ISZERO ISZERO PUSH1 0x5 SHL DUP6 ADD SWAP1 SWAP3 ADD SWAP3 POP DUP4 SWAP2 POP PUSH2 0xB15 SWAP1 POP PUSH2 0x1891 JUMP JUMPDEST DUP3 CALLVALUE PUSH2 0x3AA JUMPI PUSH0 CALLDATASIZE PUSH1 0x3 NOT ADD SLT PUSH2 0x3AA JUMPI DUP1 MLOAD SWAP1 PUSH2 0x193D DUP3 PUSH2 0x3A97 JUMP JUMPDEST DUP1 MLOAD PUSH2 0x1948 DUP2 PUSH2 0x3A7C JUMP JUMPDEST PUSH1 0x60 CALLDATASIZE DUP3 CALLDATACOPY DUP3 MSTORE PUSH0 PUSH1 0xA0 PUSH1 0x20 SWAP4 DUP3 PUSH1 0x20 DUP3 ADD MSTORE DUP3 DUP5 DUP3 ADD MSTORE DUP3 PUSH1 0x60 DUP3 ADD MSTORE DUP3 PUSH1 0x80 DUP3 ADD MSTORE ADD MSTORE DUP1 MLOAD SWAP1 PUSH2 0x197A DUP3 PUSH2 0x3A97 JUMP JUMPDEST DUP1 MLOAD SWAP2 DUP3 SWAP4 PUSH1 0x1E SWAP5 PUSH0 SWAP1 JUMPDEST PUSH1 0x3 DUP3 LT PUSH2 0x1A1C JUMPI PUSH2 0x100 DUP7 DUP7 DUP7 PUSH2 0x199C DUP4 PUSH2 0x3A7C JUMP JUMPDEST DUP3 DUP2 MSTORE PUSH1 0x21 SLOAD PUSH1 0x20 DUP3 ADD SWAP1 DUP2 MSTORE PUSH1 0x22 SLOAD SWAP3 DUP1 DUP4 ADD PUSH1 0xFF DUP6 AND ISZERO ISZERO DUP2 MSTORE PUSH1 0x1 DUP1 PUSH1 0xA0 SHL SUB SWAP3 PUSH2 0x19F5 PUSH1 0x60 DUP7 ADD SWAP4 DUP6 DUP9 PUSH1 0x8 SHR AND DUP6 MSTORE PUSH1 0xFF PUSH1 0xA0 PUSH1 0x80 DUP10 ADD SWAP9 DUP3 DUP12 PUSH1 0xA8 SHR AND ISZERO ISZERO DUP11 MSTORE ADD SWAP9 PUSH1 0xB0 SHR AND ISZERO ISZERO DUP9 MSTORE MLOAD DUP1 SWAP9 PUSH2 0x3D48 JUMP JUMPDEST MLOAD PUSH1 0x60 DUP8 ADD MSTORE MLOAD ISZERO ISZERO PUSH1 0x80 DUP7 ADD MSTORE MLOAD AND PUSH1 0xA0 DUP5 ADD MSTORE MLOAD ISZERO ISZERO PUSH1 0xC0 DUP4 ADD MSTORE MLOAD ISZERO ISZERO PUSH1 0xE0 DUP3 ADD MSTORE RETURN JUMPDEST PUSH1 0x1 DUP4 DUP2 SWAP3 DUP10 SLOAD DUP2 MSTORE ADD SWAP8 ADD SWAP2 ADD SWAP1 SWAP6 PUSH2 0x1985 JUMP JUMPDEST SWAP1 POP CALLVALUE PUSH2 0x3AA JUMPI PUSH1 0x20 CALLDATASIZE PUSH1 0x3 NOT ADD SLT PUSH2 0x3AA JUMPI PUSH2 0x1A4C PUSH2 0x3A21 JUMP JUMPDEST PUSH2 0x1A54 PUSH2 0x4971 JUMP JUMPDEST PUSH1 0x1 PUSH1 0x1 PUSH1 0xA0 SHL SUB AND SWAP2 DUP3 ISZERO PUSH2 0x1A9D JUMPI PUSH1 0xB DUP1 SLOAD PUSH1 0x1 PUSH1 0x1 PUSH1 0xA0 SHL SUB NOT AND DUP5 OR SWAP1 SSTORE DUP3 PUSH32 0xC3696C23BD17454D95C44CB489C7A0DB717D6D809E238813932720CC785AD535 PUSH0 DUP1 LOG2 STOP JUMPDEST SWAP1 PUSH1 0x20 PUSH1 0x64 SWAP3 MLOAD SWAP2 PUSH3 0x461BCD PUSH1 0xE5 SHL DUP4 MSTORE DUP3 ADD MSTORE PUSH1 0x18 PUSH1 0x24 DUP3 ADD MSTORE PUSH32 0x496E76616C696420726563656976657220616464726573730000000000000000 PUSH1 0x44 DUP3 ADD MSTORE REVERT JUMPDEST DUP3 CALLVALUE PUSH2 0x3AA JUMPI PUSH0 CALLDATASIZE PUSH1 0x3 NOT ADD SLT PUSH2 0x3AA JUMPI PUSH1 0xA SLOAD SWAP1 MLOAD PUSH1 0x1 PUSH1 0x1 PUSH1 0xA0 SHL SUB SWAP1 SWAP2 AND DUP2 MSTORE PUSH1 0x20 SWAP1 RETURN JUMPDEST DUP3 CALLVALUE PUSH2 0x3AA JUMPI PUSH0 CALLDATASIZE PUSH1 0x3 NOT ADD SLT PUSH2 0x3AA JUMPI PUSH1 0x20 SWAP1 MLOAD PUSH3 0x2A300 DUP2 MSTORE RETURN JUMPDEST DUP3 CALLVALUE PUSH2 0x3AA JUMPI PUSH1 0x20 CALLDATASIZE PUSH1 0x3 NOT ADD SLT PUSH2 0x3AA JUMPI PUSH2 0x1B43 PUSH1 0x20 SWAP3 CALLDATALOAD PUSH2 0x489E JUMP JUMPDEST SWAP1 MLOAD SWAP1 ISZERO ISZERO DUP2 MSTORE RETURN JUMPDEST SWAP1 POP CALLVALUE PUSH2 0x3AA JUMPI PUSH0 CALLDATASIZE PUSH1 0x3 NOT ADD SLT PUSH2 0x3AA JUMPI PUSH32 0x0 PUSH4 0x12CC0300 DUP2 ADD DUP1 SWAP2 GT PUSH2 0xF06 JUMPI PUSH2 0x1B99 SWAP1 TIMESTAMP LT ISZERO PUSH2 0x44CB JUMP JUMPDEST PUSH1 0x12 SLOAD DUP1 ISZERO PUSH2 0x1E88 JUMPI PUSH1 0xFF PUSH1 0x16 SLOAD AND PUSH2 0x1E45 JUMPI PUSH3 0x20F580 DUP2 ADD DUP1 SWAP2 GT PUSH2 0xF06 JUMPI TIMESTAMP GT PUSH2 0x1E0B JUMPI PUSH1 0x14 SLOAD SWAP1 PUSH1 0xFF DUP3 PUSH1 0x8 SHR AND ISZERO DUP1 ISZERO PUSH2 0x1DF2 JUMPI JUMPDEST ISZERO PUSH2 0x1DAF JUMPI PUSH2 0x1BE0 CALLER PUSH2 0x4868 JUMP JUMPDEST SWAP2 PUSH2 0x1BEC DUP4 ISZERO ISZERO PUSH2 0x4517 JUMP JUMPDEST PUSH1 0xFF DUP2 AND ISZERO PUSH2 0x1D67 JUMPI JUMPDEST POP PUSH0 SWAP2 PUSH0 JUMPDEST DUP2 DUP2 LT PUSH2 0x1D25 JUMPI POP POP DUP2 ISZERO PUSH2 0x1CE2 JUMPI PUSH2 0x1C16 DUP3 PUSH1 0x13 SLOAD PUSH2 0x3EE0 JUMP JUMPDEST SWAP2 DUP3 PUSH1 0x13 SSTORE DUP4 MLOAD SWAP1 DUP2 MSTORE PUSH32 0xA36CC2BEBB74DB33E9F88110A07EF56E1B31B24B4C4F51B54B1664266E29F45B PUSH1 0x20 CALLER SWAP3 LOG2 PUSH1 0x29 SLOAD PUSH0 NOT DUP2 ADD SWAP2 SWAP1 DUP3 GT PUSH2 0x92E JUMPI PUSH1 0x43 DUP3 MUL SWAP2 DUP1 DUP4 DIV PUSH1 0x43 EQ SWAP1 ISZERO OR ISZERO PUSH2 0x92E JUMPI POP PUSH1 0x14 SLOAD SWAP2 PUSH1 0xFF DUP4 PUSH1 0x8 SHR AND ISZERO SWAP2 DUP3 PUSH2 0x1CD3 JUMPI JUMPDEST POP POP PUSH2 0x1C84 JUMPI STOP JUMPDEST PUSH2 0xFF00 NOT AND PUSH2 0x100 OR PUSH1 0x14 SSTORE TIMESTAMP PUSH1 0x15 SSTORE DUP1 MLOAD DUP2 DUP2 MSTORE PUSH32 0xAB69F06083AFEF0927640D007EA64293CF51D456C47CE52131E28EC5DD1366CF SWAP2 DUP2 SWAP1 PUSH2 0x1CC8 SWAP1 DUP3 ADD PUSH2 0x3C19 JUMP JUMPDEST TIMESTAMP PUSH1 0x20 DUP4 ADD MSTORE SUB SWAP1 LOG1 STOP JUMPDEST PUSH1 0x64 SWAP2 SWAP3 POP DIV GT ISZERO PUSH0 DUP1 PUSH2 0x1C7C JUMP JUMPDEST PUSH1 0x64 SWAP1 PUSH1 0x20 DUP5 MLOAD SWAP2 PUSH3 0x461BCD PUSH1 0xE5 SHL DUP4 MSTORE DUP3 ADD MSTORE PUSH1 0x1D PUSH1 0x24 DUP3 ADD MSTORE PUSH32 0x416C6C20796F757220746F6B656E7320616C726561647920766F746564000000 PUSH1 0x44 DUP3 ADD MSTORE REVERT JUMPDEST PUSH2 0x1D2F DUP2 CALLER PUSH2 0x4590 JUMP JUMPDEST PUSH0 MSTORE PUSH1 0x18 PUSH1 0x20 MSTORE DUP5 PUSH0 KECCAK256 DUP1 SLOAD SWAP1 PUSH1 0xD SLOAD DUP1 SWAP3 SUB PUSH2 0x1D51 JUMPI JUMPDEST POP POP PUSH1 0x1 ADD PUSH2 0x1BFB JUMP JUMPDEST SSTORE SWAP3 PUSH1 0x1 SWAP1 PUSH2 0x1D5F SWAP1 PUSH2 0x4003 JUMP JUMPDEST SWAP4 SWAP1 PUSH0 PUSH2 0x1D47 JUMP JUMPDEST PUSH1 0x1 SWAP1 PUSH1 0xFF NOT AND OR PUSH1 0x14 SSTORE PUSH32 0x8E409FF344F734C68D4E8A0F3ACC9412BA807EDE50CD1EA7263C6902F826819D DUP4 MLOAD PUSH1 0x20 DUP2 MSTORE DUP1 PUSH2 0x1DA6 PUSH1 0x20 DUP3 ADD PUSH2 0x3C19 JUMP JUMPDEST SUB SWAP1 LOG1 PUSH0 PUSH2 0x1BF6 JUMP JUMPDEST PUSH1 0x64 SWAP1 PUSH1 0x20 DUP5 MLOAD SWAP2 PUSH3 0x461BCD PUSH1 0xE5 SHL DUP4 MSTORE DUP3 ADD MSTORE PUSH1 0x1B PUSH1 0x24 DUP3 ADD MSTORE PUSH32 0x436F6E6669726D6174696F6E2077696E646F7720657870697265640000000000 PUSH1 0x44 DUP3 ADD MSTORE REVERT JUMPDEST POP PUSH1 0x15 SLOAD PUSH3 0x2A300 DUP2 ADD DUP1 SWAP2 GT PUSH2 0xF06 JUMPI TIMESTAMP GT ISZERO PUSH2 0x1BD2 JUMP JUMPDEST PUSH1 0x20 PUSH1 0x64 SWAP3 MLOAD SWAP2 PUSH3 0x461BCD PUSH1 0xE5 SHL DUP4 MSTORE DUP3 ADD MSTORE PUSH1 0x15 PUSH1 0x24 DUP3 ADD MSTORE PUSH21 0x159BDD1A5B99C81C195C9A5BD908195E1C1A5C9959 PUSH1 0x5A SHL PUSH1 0x44 DUP3 ADD MSTORE REVERT JUMPDEST POP PUSH1 0x20 PUSH1 0x64 SWAP3 MLOAD SWAP2 PUSH3 0x461BCD PUSH1 0xE5 SHL DUP4 MSTORE DUP3 ADD MSTORE PUSH1 0x19 PUSH1 0x24 DUP3 ADD MSTORE PUSH32 0x50726F706F73616C20616C726561647920657865637574656400000000000000 PUSH1 0x44 DUP3 ADD MSTORE REVERT JUMPDEST POP PUSH1 0x20 PUSH1 0x64 SWAP3 MLOAD SWAP2 PUSH3 0x461BCD PUSH1 0xE5 SHL DUP4 MSTORE DUP3 ADD MSTORE PUSH1 0x12 PUSH1 0x24 DUP3 ADD MSTORE PUSH18 0x139BC81858DD1A5D99481C1C9BDC1BDCD85B PUSH1 0x72 SHL PUSH1 0x44 DUP3 ADD MSTORE REVERT JUMPDEST DUP3 CALLVALUE PUSH2 0x3AA JUMPI PUSH1 0x20 CALLDATASIZE PUSH1 0x3 NOT ADD SLT PUSH2 0x3AA JUMPI PUSH1 0x20 SWAP2 CALLDATALOAD PUSH0 MSTORE PUSH1 0x19 DUP3 MSTORE PUSH1 0xFF DUP2 PUSH0 KECCAK256 SLOAD AND SWAP1 MLOAD SWAP1 ISZERO ISZERO DUP2 MSTORE RETURN JUMPDEST CALLVALUE PUSH2 0x3AA JUMPI PUSH0 CALLDATASIZE PUSH1 0x3 NOT ADD SLT PUSH2 0x3AA JUMPI PUSH2 0x1F04 PUSH2 0x4971 JUMP JUMPDEST PUSH1 0xA DUP1 SLOAD PUSH1 0x1 PUSH1 0x1 PUSH1 0xA0 SHL SUB NOT DUP2 AND SWAP1 SWAP2 SSTORE PUSH0 SWAP1 PUSH1 0x1 PUSH1 0x1 PUSH1 0xA0 SHL SUB AND PUSH32 0x8BE0079C531659141344CD1FD0A4F28419497F9722A3DAAFE3B4186F6B6457E0 DUP3 DUP1 LOG3 STOP JUMPDEST DUP3 CALLVALUE PUSH2 0x3AA JUMPI PUSH2 0x1F56 CALLDATASIZE PUSH2 0x3BA8 JUMP JUMPDEST SWAP1 PUSH0 MSTORE PUSH1 0x1C PUSH1 0x20 MSTORE DUP2 PUSH0 KECCAK256 SWAP1 DUP2 SLOAD DUP2 LT ISZERO PUSH2 0x3AA JUMPI PUSH2 0x1F74 SWAP2 PUSH2 0x3DFA JUMP JUMPDEST POP SWAP1 PUSH2 0xB24 DUP2 MLOAD SWAP2 PUSH2 0x1F91 DUP4 PUSH2 0x1F8A DUP2 DUP8 PUSH2 0x3CB7 JUMP JUMPDEST SUB DUP5 PUSH2 0x3ACD JUMP JUMPDEST PUSH1 0x2 PUSH1 0x1 DUP6 ADD SLOAD SWAP5 ADD SLOAD SWAP1 MLOAD SWAP4 DUP5 SWAP4 DUP5 PUSH2 0x3E13 JUMP JUMPDEST DUP3 CALLVALUE PUSH2 0x3AA JUMPI PUSH1 0x20 CALLDATASIZE PUSH1 0x3 NOT ADD SLT PUSH2 0x3AA JUMPI PUSH1 0x20 SWAP1 PUSH2 0x694 PUSH2 0x1FC6 PUSH2 0x3A21 JUMP JUMPDEST PUSH2 0x4868 JUMP JUMPDEST DUP3 CALLVALUE PUSH2 0x3AA JUMPI PUSH0 CALLDATASIZE PUSH1 0x3 NOT ADD SLT PUSH2 0x3AA JUMPI DUP1 MLOAD PUSH1 0xE SLOAD SWAP1 SWAP2 DUP3 PUSH0 PUSH2 0x1FEE DUP5 PUSH2 0x3BE1 JUMP JUMPDEST DUP1 DUP4 MSTORE PUSH1 0x20 SWAP5 PUSH1 0x1 SWAP1 DUP7 PUSH1 0x1 DUP3 AND SWAP2 DUP3 PUSH0 EQ PUSH2 0x18FE JUMPI POP POP PUSH1 0x1 EQ PUSH2 0x201F JUMPI POP POP PUSH2 0xB24 SWAP3 SWAP2 PUSH2 0xB15 SWAP2 SUB DUP6 PUSH2 0x3ACD JUMP JUMPDEST SWAP1 DUP6 SWAP3 POP PUSH1 0xE PUSH0 MSTORE PUSH0 DUP1 MLOAD PUSH1 0x20 PUSH2 0x54CC DUP4 CODECOPY DUP2 MLOAD SWAP2 MSTORE SWAP2 PUSH0 SWAP3 JUMPDEST DUP3 DUP5 LT PUSH2 0x204F JUMPI POP POP POP DUP3 ADD ADD DUP2 PUSH2 0xB15 PUSH2 0x1891 JUMP JUMPDEST DUP1 SLOAD DUP5 DUP11 ADD DUP7 ADD MSTORE DUP9 SWAP6 POP DUP8 SWAP5 SWAP1 SWAP4 ADD SWAP3 DUP2 ADD PUSH2 0x2039 JUMP JUMPDEST DUP3 CALLVALUE PUSH2 0x3AA JUMPI PUSH1 0x20 SWAP2 DUP3 PUSH1 0x3 NOT CALLDATASIZE ADD SLT PUSH2 0x3AA JUMPI DUP2 MLOAD PUSH2 0x2086 DUP2 PUSH2 0x3A97 JUMP JUMPDEST DUP4 PUSH0 JUMPDEST PUSH1 0xC0 DUP2 LT PUSH2 0x2127 JUMPI POP POP POP CALLDATALOAD PUSH0 MSTORE PUSH1 0x1D DUP3 MSTORE DUP1 PUSH0 KECCAK256 SWAP1 DUP1 MLOAD SWAP2 PUSH2 0x20AB DUP4 PUSH2 0x3A97 JUMP JUMPDEST PUSH0 DUP5 DUP5 JUMPDEST PUSH1 0x6 DUP4 LT PUSH2 0x2102 JUMPI POP POP POP POP MLOAD SWAP1 DUP3 DUP3 ADD DUP4 DUP4 MSTORE PUSH1 0xE0 DUP4 ADD SWAP2 SWAP1 PUSH0 SWAP5 JUMPDEST PUSH1 0x6 DUP7 LT PUSH2 0x20DA JUMPI DUP5 DUP5 SUB DUP6 RETURN JUMPDEST SWAP1 SWAP2 SWAP3 DUP2 DUP1 PUSH2 0x20F5 PUSH1 0x1 SWAP4 PUSH1 0x1F NOT DUP10 DUP3 SUB ADD DUP8 MSTORE DUP8 MLOAD PUSH2 0x39FC JUMP JUMPDEST SWAP6 ADD SWAP4 ADD SWAP6 ADD SWAP5 SWAP1 PUSH2 0x20CC JUMP JUMPDEST PUSH1 0x1 SWAP2 DUP3 SWAP2 DUP7 MLOAD PUSH2 0x2117 DUP2 PUSH2 0x1821 DUP2 DUP11 PUSH2 0x3CB7 JUMP JUMPDEST DUP2 MSTORE ADD SWAP4 ADD SWAP2 ADD SWAP1 SWAP2 DUP6 SWAP1 PUSH2 0x20AF JUMP JUMPDEST PUSH1 0x60 DUP2 DUP5 ADD MSTORE ADD DUP5 SWAP1 PUSH2 0x2089 JUMP JUMPDEST DUP3 CALLVALUE PUSH2 0x3AA JUMPI PUSH1 0x20 CALLDATASIZE PUSH1 0x3 NOT ADD SLT PUSH2 0x3AA JUMPI PUSH2 0x2153 PUSH1 0x20 SWAP3 CALLDATALOAD PUSH2 0x4D7C JUMP JUMPDEST SWAP1 MLOAD PUSH1 0x1 PUSH1 0x1 PUSH1 0xA0 SHL SUB SWAP1 SWAP2 AND DUP2 MSTORE RETURN JUMPDEST SWAP1 POP CALLVALUE PUSH2 0x3AA JUMPI PUSH1 0x20 SWAP2 DUP3 PUSH1 0x3 NOT CALLDATASIZE ADD SLT PUSH2 0x3AA JUMPI DUP2 CALLDATALOAD SWAP1 PUSH1 0xFF DUP3 AND DUP1 DUP4 SUB PUSH2 0x3AA JUMPI PUSH1 0x3 PUSH2 0x219D SWAP2 PUSH2 0x2195 PUSH2 0x4971 JUMP JUMPDEST PUSH2 0xDD7 PUSH2 0x499D JUMP JUMPDEST PUSH1 0x2B SLOAD PUSH1 0x1 PUSH1 0x1 PUSH1 0xA0 SHL SUB SWAP3 SWAP1 SWAP2 SWAP1 PUSH2 0x21B9 DUP5 DUP5 AND CALLER EQ PUSH2 0x4674 JUMP JUMPDEST PUSH1 0x21 SLOAD SWAP1 PUSH2 0x21C8 DUP3 ISZERO ISZERO PUSH2 0x46C0 JUMP JUMPDEST PUSH1 0x22 SLOAD SWAP2 PUSH2 0x21D9 PUSH1 0xFF DUP5 AND ISZERO PUSH2 0x4701 JUMP JUMPDEST PUSH1 0xFF DUP4 PUSH1 0xA8 SHR AND ISZERO PUSH2 0x238C JUMPI PUSH2 0xCE4 DUP2 ADD DUP1 SWAP2 GT PUSH2 0x2379 JUMPI PUSH2 0x21FD SWAP1 TIMESTAMP GT ISZERO PUSH2 0x474D JUMP JUMPDEST PUSH1 0x3 DUP2 LT ISZERO PUSH2 0x2366 JUMPI PUSH1 0x1E ADD SLOAD SWAP4 DUP2 PUSH1 0x8 SHR AND SWAP6 PUSH1 0xFF DUP3 PUSH1 0xB0 SHR AND SWAP4 PUSH1 0x1 DUP1 SWAP4 PUSH1 0xFF NOT AND OR PUSH1 0x22 SSTORE PUSH1 0x1 PUSH1 0x1 PUSH1 0x60 SHL SUB PUSH1 0xA0 SHL AND PUSH1 0x2B SSTORE PUSH0 PUSH1 0x2C SSTORE TIMESTAMP PUSH1 0x2A SSTORE PUSH1 0x29 SLOAD SWAP6 PUSH2 0x2249 DUP8 PUSH2 0x4003 JUMP JUMPDEST PUSH1 0x29 SSTORE DUP5 DUP5 MLOAD PUSH2 0x2258 DUP2 PUSH2 0x3A4D JUMP JUMPDEST DUP8 DUP2 MSTORE PUSH1 0x1 DUP5 DUP3 ADD TIMESTAMP DUP2 MSTORE DUP11 PUSH0 MSTORE PUSH1 0x1B DUP7 MSTORE DUP8 PUSH0 KECCAK256 SWAP3 MLOAD DUP4 SSTORE MLOAD SWAP2 ADD SSTORE PUSH2 0x2317 JUMPI JUMPDEST POP PUSH0 JUMPDEST PUSH1 0x6 DUP2 LT PUSH2 0x22D4 JUMPI POP POP POP SWAP1 PUSH2 0x919 PUSH32 0x35A71FD4AD36D3B5F42A9819D12284AC3592B91D09F274E2FF1639A4418C1A02 SWAP4 SWAP3 PUSH2 0x22B9 DUP7 DUP9 PUSH2 0x4ABA JUMP JUMPDEST MLOAD SWAP3 DUP4 MSTORE SWAP1 ISZERO ISZERO PUSH1 0x20 DUP4 ADD MSTORE TIMESTAMP PUSH1 0x40 DUP4 ADD MSTORE DUP2 SWAP1 PUSH1 0x60 DUP3 ADD SWAP1 JUMP JUMPDEST DUP1 PUSH0 DUP5 SWAP3 PUSH1 0x23 ADD PUSH2 0x22E5 DUP2 SLOAD PUSH2 0x3BE1 JUMP JUMPDEST PUSH1 0x1F SWAP1 DUP2 DUP2 GT PUSH2 0x22F9 JUMPI JUMPDEST POP POP SSTORE ADD PUSH2 0x227D JUMP JUMPDEST PUSH2 0x2310 SWAP2 DUP4 DUP6 MSTORE DUP8 DUP6 KECCAK256 SWAP2 ADD PUSH1 0x5 SHR DUP2 ADD SWAP1 PUSH2 0x4011 JUMP JUMPDEST PUSH0 DUP1 PUSH2 0x22F0 JUMP JUMPDEST PUSH0 JUMPDEST PUSH1 0x6 DUP2 LT PUSH2 0x2327 JUMPI POP PUSH2 0x227A JUMP JUMPDEST DUP8 PUSH0 MSTORE PUSH1 0x1D DUP4 MSTORE PUSH2 0x233A DUP2 DUP7 PUSH0 KECCAK256 PUSH2 0x3BBE JUMP JUMPDEST PUSH2 0x2354 JUMPI SWAP1 PUSH2 0x234E DUP6 SWAP3 DUP3 PUSH1 0x23 ADD SWAP1 PUSH2 0x478B JUMP JUMPDEST ADD PUSH2 0x2319 JUMP JUMPDEST PUSH0 DUP4 PUSH4 0x4E487B71 PUSH1 0xE0 SHL DUP3 MSTORE MSTORE PUSH1 0x24 PUSH0 REVERT JUMPDEST PUSH1 0x32 DUP7 PUSH4 0x4E487B71 PUSH1 0xE0 SHL PUSH0 MSTORE MSTORE PUSH1 0x24 PUSH0 REVERT JUMPDEST PUSH1 0x11 DUP8 PUSH4 0x4E487B71 PUSH1 0xE0 SHL PUSH0 MSTORE MSTORE PUSH1 0x24 PUSH0 REVERT JUMPDEST DUP4 MLOAD PUSH3 0x461BCD PUSH1 0xE5 SHL DUP2 MSTORE DUP1 DUP9 ADD DUP10 SWAP1 MSTORE PUSH1 0x19 PUSH1 0x24 DUP3 ADD MSTORE PUSH32 0x4E6F7420616E206F776E6572206D696E74207265717565737400000000000000 PUSH1 0x44 DUP3 ADD MSTORE PUSH1 0x64 SWAP1 REVERT JUMPDEST DUP3 CALLVALUE PUSH2 0x3AA JUMPI PUSH0 CALLDATASIZE PUSH1 0x3 NOT ADD SLT PUSH2 0x3AA JUMPI PUSH1 0x2D SLOAD PUSH2 0x23EC DUP2 PUSH2 0x461B JUMP JUMPDEST SWAP1 PUSH2 0x23F9 DUP4 MLOAD SWAP3 DUP4 PUSH2 0x3ACD JUMP JUMPDEST DUP1 DUP3 MSTORE PUSH1 0x20 DUP1 DUP4 ADD SWAP2 DUP3 PUSH1 0x2D PUSH0 MSTORE PUSH32 0x4A2CC91EE622DA3BC833A54C37FFCB6F3EC23B7793EFC5EAF5E71B7B406C5C06 PUSH0 SWAP2 JUMPDEST DUP4 DUP4 LT PUSH2 0x248D JUMPI POP POP POP POP DUP4 MLOAD SWAP3 DUP2 DUP5 ADD SWAP1 DUP3 DUP6 MSTORE MLOAD DUP1 SWAP2 MSTORE DUP5 DUP5 ADD SWAP5 DUP2 PUSH1 0x5 SHL DUP6 ADD ADD SWAP3 SWAP2 PUSH0 SWAP6 JUMPDEST DUP3 DUP8 LT PUSH2 0x2461 JUMPI DUP6 DUP6 SUB DUP7 RETURN JUMPDEST SWAP1 SWAP2 SWAP3 SWAP4 DUP3 DUP1 PUSH2 0x247D PUSH1 0x1 SWAP4 PUSH1 0x3F NOT DUP11 DUP3 SUB ADD DUP7 MSTORE DUP9 MLOAD PUSH2 0x39FC JUMP JUMPDEST SWAP7 ADD SWAP3 ADD SWAP7 ADD SWAP6 SWAP3 SWAP2 SWAP1 SWAP3 PUSH2 0x2454 JUMP JUMPDEST PUSH1 0x1 DUP6 DUP2 SWAP3 DUP11 SWAP10 SWAP8 SWAP10 MLOAD PUSH2 0x24A5 DUP2 PUSH2 0x1821 DUP2 DUP10 PUSH2 0x3CB7 JUMP JUMPDEST DUP2 MSTORE ADD SWAP3 ADD SWAP3 ADD SWAP2 SWAP1 SWAP6 SWAP4 SWAP6 PUSH2 0x242B JUMP JUMPDEST SWAP1 POP CALLVALUE PUSH2 0x3AA JUMPI PUSH1 0x20 DUP1 PUSH1 0x3 NOT CALLDATASIZE ADD SLT PUSH2 0x3AA JUMPI PUSH1 0x1 PUSH1 0x1 PUSH1 0x40 SHL SUB SWAP3 DUP3 CALLDATALOAD DUP5 DUP2 GT PUSH2 0x3AA JUMPI PUSH2 0x24E9 SWAP1 CALLDATASIZE SWAP1 DUP6 ADD PUSH2 0x3B3F JUMP JUMPDEST SWAP3 PUSH2 0x24F2 PUSH2 0x4971 JUMP JUMPDEST DUP4 MLOAD SWAP5 DUP6 GT PUSH2 0x1248 JUMPI POP PUSH2 0x2507 PUSH1 0xE SLOAD PUSH2 0x3BE1 JUMP JUMPDEST PUSH1 0x1F DUP2 GT PUSH2 0x2610 JUMPI JUMPDEST POP DUP2 SWAP4 PUSH1 0x1F DUP2 GT PUSH1 0x1 EQ PUSH2 0x257F JUMPI SWAP1 PUSH2 0x2562 DUP3 PUSH2 0x10D1 SWAP4 PUSH32 0xEEC356C13F485B7ACBB74166D776FB50BE80220A12DF460B84716109009F9994 SWAP8 PUSH0 SWAP2 PUSH2 0x2574 JUMPI POP DUP2 PUSH1 0x1 SHL SWAP2 PUSH0 NOT SWAP1 PUSH1 0x3 SHL SHR NOT AND OR SWAP1 JUMP JUMPDEST PUSH1 0xE SSTORE MLOAD SWAP3 DUP3 DUP5 SWAP4 DUP5 MSTORE DUP4 ADD SWAP1 PUSH2 0x39FC JUMP JUMPDEST SWAP1 POP DUP7 ADD MLOAD PUSH0 PUSH2 0x1040 JUMP JUMPDEST PUSH1 0x1F NOT DUP2 AND SWAP5 PUSH1 0xE PUSH0 MSTORE PUSH0 DUP1 MLOAD PUSH1 0x20 PUSH2 0x54CC DUP4 CODECOPY DUP2 MLOAD SWAP2 MSTORE SWAP6 PUSH0 JUMPDEST DUP2 DUP2 LT PUSH2 0x25F9 JUMPI POP SWAP2 PUSH32 0xEEC356C13F485B7ACBB74166D776FB50BE80220A12DF460B84716109009F9994 SWAP7 PUSH1 0x1 SWAP3 DUP3 PUSH2 0x10D1 SWAP7 SWAP6 LT PUSH2 0x25E1 JUMPI JUMPDEST POP POP DUP2 SHL ADD PUSH1 0xE SSTORE PUSH2 0xB15 JUMP JUMPDEST DUP8 ADD MLOAD PUSH0 NOT PUSH1 0xF8 DUP5 PUSH1 0x3 SHL AND SHR NOT AND SWAP1 SSTORE PUSH0 DUP1 PUSH2 0x25D4 JUMP JUMPDEST DUP7 DUP4 ADD MLOAD DUP9 SSTORE PUSH1 0x1 SWAP1 SWAP8 ADD SWAP7 SWAP2 DUP6 ADD SWAP2 DUP6 ADD PUSH2 0x259A JUMP JUMPDEST PUSH2 0x2644 SWAP1 PUSH1 0xE PUSH0 MSTORE PUSH0 DUP1 MLOAD PUSH1 0x20 PUSH2 0x54CC DUP4 CODECOPY DUP2 MLOAD SWAP2 MSTORE PUSH1 0x1F DUP8 ADD PUSH1 0x5 SHR DUP2 ADD SWAP2 DUP6 DUP9 LT PUSH2 0x123E JUMPI PUSH1 0x1F ADD PUSH1 0x5 SHR ADD SWAP1 PUSH2 0x4011 JUMP JUMPDEST PUSH0 PUSH2 0x2510 JUMP JUMPDEST DUP3 CALLVALUE PUSH2 0x3AA JUMPI PUSH0 CALLDATASIZE PUSH1 0x3 NOT ADD SLT PUSH2 0x3AA JUMPI PUSH1 0x20 SWAP1 PUSH1 0xD SLOAD SWAP1 MLOAD SWAP1 DUP2 MSTORE RETURN JUMPDEST SWAP1 POP CALLVALUE PUSH2 0x3AA JUMPI PUSH1 0x20 CALLDATASIZE PUSH1 0x3 NOT ADD SLT PUSH2 0x3AA JUMPI DUP1 CALLDATALOAD SWAP1 PUSH2 0x2686 PUSH2 0x4258 JUMP JUMPDEST DUP3 LT ISZERO PUSH2 0x2699 JUMPI PUSH1 0x20 DUP4 PUSH2 0x7C0 DUP5 PUSH2 0x3E35 JUMP JUMPDEST SWAP1 PUSH0 PUSH1 0x44 SWAP4 MLOAD SWAP3 PUSH4 0x295F44F7 PUSH1 0xE2 SHL DUP5 MSTORE DUP4 ADD MSTORE PUSH1 0x24 DUP3 ADD MSTORE REVERT JUMPDEST SWAP1 POP CALLVALUE PUSH2 0x3AA JUMPI PUSH1 0x20 CALLDATASIZE PUSH1 0x3 NOT ADD SLT PUSH2 0x3AA JUMPI CALLDATALOAD PUSH0 MSTORE PUSH1 0x1B PUSH1 0x20 MSTORE DUP1 PUSH0 KECCAK256 PUSH1 0x1 DUP2 SLOAD SWAP2 ADD SLOAD DUP3 MLOAD SWAP2 DUP3 MSTORE PUSH1 0x20 DUP3 ADD MSTORE RETURN JUMPDEST DUP3 CALLVALUE PUSH2 0x3AA JUMPI PUSH0 CALLDATASIZE PUSH1 0x3 NOT ADD SLT PUSH2 0x3AA JUMPI PUSH1 0xF SLOAD SWAP1 MLOAD PUSH1 0x1 PUSH1 0x1 PUSH1 0xA0 SHL SUB SWAP1 SWAP2 AND DUP2 MSTORE PUSH1 0x20 SWAP1 RETURN JUMPDEST DUP3 CALLVALUE PUSH2 0x3AA JUMPI PUSH0 CALLDATASIZE PUSH1 0x3 NOT ADD SLT PUSH2 0x3AA JUMPI PUSH1 0x20 SWAP1 MLOAD PUSH2 0x1F4 DUP2 MSTORE RETURN JUMPDEST DUP3 CALLVALUE PUSH2 0x3AA JUMPI PUSH0 CALLDATASIZE PUSH1 0x3 NOT ADD SLT PUSH2 0x3AA JUMPI PUSH1 0x20 SWAP1 MLOAD PUSH3 0x278D00 DUP2 MSTORE RETURN JUMPDEST DUP3 CALLVALUE PUSH2 0x3AA JUMPI PUSH2 0xDA8 SWAP1 PUSH2 0x2759 CALLDATASIZE PUSH2 0x3D6F JUMP JUMPDEST SWAP2 SWAP3 MLOAD SWAP3 PUSH2 0x2766 DUP5 PUSH2 0x3AB2 JUMP JUMPDEST PUSH0 DUP5 MSTORE PUSH2 0xDA2 DUP4 DUP4 DUP4 PUSH2 0x4269 JUMP JUMPDEST DUP3 CALLVALUE PUSH2 0x3AA JUMPI PUSH0 CALLDATASIZE PUSH1 0x3 NOT ADD SLT PUSH2 0x3AA JUMPI PUSH1 0x1 DUP1 PUSH1 0xA0 SHL SUB PUSH1 0x10 SLOAD AND SWAP1 PUSH2 0xB24 PUSH1 0x12 SLOAD SWAP3 PUSH1 0x13 SLOAD SWAP1 PUSH1 0x14 SLOAD PUSH1 0x15 SLOAD SWAP1 PUSH1 0xFF PUSH1 0x16 SLOAD AND SWAP3 PUSH1 0x17 SLOAD SWAP5 DUP8 MLOAD SWAP8 PUSH2 0x27C5 DUP10 PUSH2 0x27BE DUP2 PUSH2 0x3C19 JUMP JUMPDEST SUB DUP11 PUSH2 0x3ACD JUMP JUMPDEST MLOAD SWAP9 DUP10 SWAP9 PUSH1 0xFF DUP1 DUP7 PUSH1 0x8 SHR AND SWAP6 AND SWAP4 DUP11 PUSH2 0x3DA4 JUMP JUMPDEST SWAP1 POP CALLVALUE PUSH2 0x3AA JUMPI PUSH0 CALLDATASIZE PUSH1 0x3 NOT ADD SLT PUSH2 0x3AA JUMPI PUSH2 0x27F4 PUSH2 0x4971 JUMP JUMPDEST SELFBALANCE DUP1 ISZERO PUSH2 0x2857 JUMPI PUSH1 0xA SLOAD PUSH0 SWAP2 DUP3 SWAP2 DUP3 SWAP2 DUP3 SWAP2 PUSH1 0x1 PUSH1 0x1 PUSH1 0xA0 SHL SUB AND GAS CALL PUSH2 0x2819 PUSH2 0x45EC JUMP JUMPDEST POP ISZERO PUSH2 0x2821 JUMPI STOP JUMPDEST PUSH1 0x20 PUSH1 0x64 SWAP3 MLOAD SWAP2 PUSH3 0x461BCD PUSH1 0xE5 SHL DUP4 MSTORE DUP3 ADD MSTORE PUSH1 0x11 PUSH1 0x24 DUP3 ADD MSTORE PUSH17 0x15DA5D1A191C985DD85B0819985A5B1959 PUSH1 0x7A SHL PUSH1 0x44 DUP3 ADD MSTORE REVERT JUMPDEST POP PUSH1 0x20 PUSH1 0x64 SWAP3 MLOAD SWAP2 PUSH3 0x461BCD PUSH1 0xE5 SHL DUP4 MSTORE DUP3 ADD MSTORE PUSH1 0x14 PUSH1 0x24 DUP3 ADD MSTORE PUSH20 0x4E6F2066756E647320746F207769746864726177 PUSH1 0x60 SHL PUSH1 0x44 DUP3 ADD MSTORE REVERT JUMPDEST PUSH2 0x3B8C JUMP JUMPDEST DUP3 CALLVALUE PUSH2 0x3AA JUMPI DUP1 PUSH1 0x3 NOT CALLDATASIZE ADD SLT PUSH2 0x3AA JUMPI PUSH1 0x20 SWAP1 PUSH2 0x694 PUSH2 0x28B5 PUSH2 0x3A21 JUMP JUMPDEST PUSH1 0x24 CALLDATALOAD SWAP1 PUSH2 0x4590 JUMP JUMPDEST DUP3 CALLVALUE PUSH2 0x3AA JUMPI PUSH0 CALLDATASIZE PUSH1 0x3 NOT ADD SLT PUSH2 0x3AA JUMPI PUSH1 0x10 SLOAD DUP2 MLOAD PUSH1 0x1 PUSH1 0x1 PUSH1 0xA0 SHL SUB SWAP1 SWAP2 AND SWAP2 PUSH2 0xB24 SWAP1 PUSH2 0x28F1 DUP4 PUSH2 0x1F8A DUP2 PUSH2 0x3C19 JUMP JUMPDEST PUSH1 0x12 SLOAD SWAP4 PUSH1 0x13 SLOAD SWAP1 PUSH1 0x14 SLOAD PUSH1 0x15 SLOAD SWAP2 PUSH1 0xFF PUSH1 0x16 SLOAD AND SWAP4 PUSH1 0x17 SLOAD SWAP6 MLOAD SWAP9 DUP10 SWAP9 PUSH1 0xFF DUP1 DUP7 PUSH1 0x8 SHR AND SWAP6 AND SWAP4 DUP11 PUSH2 0x3DA4 JUMP JUMPDEST SWAP1 POP CALLVALUE PUSH2 0x3AA JUMPI PUSH2 0x2930 CALLDATASIZE PUSH2 0x3BA8 JUMP JUMPDEST SWAP2 SWAP1 PUSH0 MSTORE PUSH1 0x2 PUSH1 0x20 MSTORE PUSH1 0x1 DUP1 PUSH1 0xA0 SHL SUB SWAP1 PUSH2 0x2951 DUP3 DUP6 PUSH0 KECCAK256 SLOAD AND ISZERO ISZERO PUSH2 0x4061 JUMP JUMPDEST PUSH2 0x1F4 SWAP3 DUP4 DUP2 MUL SWAP4 DUP2 DUP6 DIV EQ SWAP1 ISZERO OR ISZERO PUSH2 0x92E JUMPI POP PUSH1 0xB SLOAD SWAP3 MLOAD SWAP3 AND PUSH1 0x1 PUSH1 0x1 PUSH1 0xA0 SHL SUB AND DUP3 MSTORE PUSH2 0x2710 SWAP1 DIV PUSH1 0x20 DUP3 ADD MSTORE PUSH1 0x40 SWAP1 RETURN JUMPDEST DUP3 CALLVALUE PUSH2 0x3AA JUMPI PUSH0 CALLDATASIZE PUSH1 0x3 NOT ADD SLT PUSH2 0x3AA JUMPI PUSH1 0x20 SWAP1 MLOAD PUSH2 0xCE4 DUP2 MSTORE RETURN JUMPDEST SWAP1 POP CALLVALUE PUSH2 0x3AA JUMPI PUSH1 0x20 SWAP2 DUP3 PUSH1 0x3 NOT CALLDATASIZE ADD SLT PUSH2 0x3AA JUMPI PUSH1 0x1 PUSH1 0x1 PUSH1 0x40 SHL SUB SWAP2 DUP1 CALLDATALOAD DUP4 DUP2 GT PUSH2 0x3AA JUMPI PUSH2 0x29D7 SWAP1 CALLDATASIZE SWAP1 DUP4 ADD PUSH2 0x3B3F JUMP JUMPDEST SWAP2 PUSH32 0x0 PUSH4 0x12CC0300 DUP2 ADD DUP1 SWAP2 GT PUSH2 0x2F52 JUMPI PUSH2 0x2A13 SWAP1 TIMESTAMP LT ISZERO PUSH2 0x44CB JUMP JUMPDEST PUSH2 0x2A26 PUSH2 0x2A1F CALLER PUSH2 0x4868 JUMP JUMPDEST ISZERO ISZERO PUSH2 0x4517 JUMP JUMPDEST DUP3 MLOAD ISZERO PUSH2 0x2F1A JUMPI PUSH1 0x14 SLOAD PUSH1 0xFF DUP2 AND DUP1 SWAP2 DUP2 PUSH2 0x2F00 JUMPI JUMPDEST PUSH1 0x8 SHR PUSH1 0xFF AND DUP1 PUSH2 0x2ED5 JUMPI JUMPDEST DUP3 ISZERO PUSH2 0x2ECD JUMPI JUMPDEST POP ISZERO DUP1 ISZERO PUSH2 0x2EC6 JUMPI JUMPDEST ISZERO PUSH2 0x2E83 JUMPI PUSH1 0xC SLOAD PUSH3 0x278D00 DUP2 ADD DUP1 SWAP2 GT PUSH2 0x15DD JUMPI TIMESTAMP LT PUSH2 0x2E40 JUMPI DUP1 PUSH2 0x2E35 JUMPI JUMPDEST PUSH2 0x2D1D JUMPI JUMPDEST PUSH2 0x2A87 CALLER PUSH2 0x4E90 JUMP JUMPDEST SWAP2 DUP3 ISZERO PUSH2 0x2CCA JUMPI PUSH2 0x2A99 PUSH1 0xD SLOAD PUSH2 0x4003 JUMP JUMPDEST PUSH1 0xD SSTORE DUP2 MLOAD PUSH2 0x120 DUP2 ADD DUP2 DUP2 LT DUP8 DUP3 GT OR PUSH2 0x2CB7 JUMPI DUP4 MSTORE CALLER DUP2 MSTORE DUP5 DUP8 DUP3 ADD MSTORE DUP3 DUP2 ADD TIMESTAMP DUP2 MSTORE PUSH1 0x60 DUP3 ADD PUSH0 DUP2 MSTORE PUSH1 0x80 DUP4 ADD PUSH0 DUP2 MSTORE PUSH1 0xA0 DUP5 ADD SWAP2 PUSH0 DUP4 MSTORE PUSH1 0xC0 DUP6 ADD SWAP4 PUSH0 DUP6 MSTORE PUSH2 0x100 PUSH1 0xE0 DUP8 ADD SWAP7 PUSH0 DUP9 MSTORE ADD SWAP7 DUP10 DUP9 MSTORE CALLER PUSH1 0x1 PUSH1 0x1 PUSH1 0x60 SHL SUB PUSH1 0xA0 SHL PUSH1 0x10 SLOAD AND OR PUSH1 0x10 SSTORE DUP11 MLOAD SWAP12 DUP13 GT PUSH2 0x1248 JUMPI POP PUSH2 0x2B15 PUSH1 0x11 SLOAD PUSH2 0x3BE1 JUMP JUMPDEST DUP12 DUP14 PUSH1 0x1F DUP4 GT PUSH2 0x2C7C JUMPI JUMPDEST POP POP POP DUP12 DUP13 PUSH1 0x1F DUP14 GT PUSH1 0x1 EQ PUSH2 0x2BEB JUMPI POP DUP12 PUSH32 0xE7890A17099F7377119F9BCC610136034F38D99A26A59EC393BD3F871D244C1F SWAP13 PUSH2 0x2B71 SWAP3 PUSH0 SWAP2 PUSH2 0x2BE0 JUMPI POP DUP2 PUSH1 0x1 SHL SWAP2 PUSH0 NOT SWAP1 PUSH1 0x3 SHL SHR NOT AND OR SWAP1 JUMP JUMPDEST PUSH1 0x11 SSTORE JUMPDEST MLOAD PUSH1 0x12 SSTORE MLOAD PUSH1 0x13 SSTORE MLOAD ISZERO ISZERO SWAP1 PUSH1 0xFF PUSH2 0xFF00 PUSH1 0x14 SLOAD SWAP3 MLOAD ISZERO ISZERO PUSH1 0x8 SHL AND SWAP3 AND SWAP1 PUSH2 0xFFFF NOT AND OR OR PUSH1 0x14 SSTORE MLOAD PUSH1 0x15 SSTORE MLOAD ISZERO ISZERO PUSH1 0xFF DUP1 NOT PUSH1 0x16 SLOAD AND SWAP2 AND OR PUSH1 0x16 SSTORE MLOAD PUSH1 0x17 SSTORE TIMESTAMP PUSH1 0xC SSTORE PUSH2 0x2BCF DUP2 MLOAD SWAP4 PUSH1 0x60 DUP6 MSTORE PUSH1 0x60 DUP6 ADD SWAP1 PUSH2 0x39FC JUMP JUMPDEST SWAP5 TIMESTAMP SWAP1 DUP5 ADD MSTORE DUP3 ADD MSTORE DUP1 CALLER SWAP4 SUB SWAP1 LOG2 STOP JUMPDEST SWAP1 POP DUP13 ADD MLOAD PUSH0 PUSH2 0x1040 JUMP JUMPDEST SWAP1 PUSH1 0x1F NOT DUP14 AND PUSH1 0x11 PUSH0 MSTORE PUSH0 DUP1 MLOAD PUSH1 0x20 PUSH2 0x54EC DUP4 CODECOPY DUP2 MLOAD SWAP2 MSTORE SWAP3 PUSH0 SWAP1 JUMPDEST DUP3 DUP3 LT PUSH2 0x2C63 JUMPI POP POP SWAP2 DUP14 SWAP2 PUSH32 0xE7890A17099F7377119F9BCC610136034F38D99A26A59EC393BD3F871D244C1F SWAP15 PUSH1 0x1 SWAP5 LT PUSH2 0x2C4B JUMPI JUMPDEST POP POP DUP2 SHL ADD PUSH1 0x11 SSTORE PUSH2 0x2B75 JUMP JUMPDEST DUP14 ADD MLOAD PUSH0 NOT PUSH1 0xF8 DUP5 PUSH1 0x3 SHL AND SHR NOT AND SWAP1 SSTORE PUSH0 DUP1 PUSH2 0x2C3E JUMP JUMPDEST DUP1 DUP16 DUP6 SWAP7 DUP3 SWAP5 SWAP7 PUSH1 0x1 SWAP3 ADD MLOAD DUP2 SSTORE ADD SWAP6 ADD SWAP4 ADD SWAP1 PUSH2 0x2C07 JUMP JUMPDEST PUSH2 0x2CAF SWAP3 PUSH1 0x11 PUSH0 MSTORE PUSH0 DUP1 MLOAD PUSH1 0x20 PUSH2 0x54EC DUP4 CODECOPY DUP2 MLOAD SWAP2 MSTORE SWAP2 PUSH1 0x1F DUP5 ADD PUSH1 0x5 SHR DUP4 ADD SWAP4 LT PUSH2 0x123E JUMPI PUSH1 0x1F ADD PUSH1 0x5 SHR ADD SWAP1 PUSH2 0x4011 JUMP JUMPDEST PUSH0 DUP12 DUP14 PUSH2 0x2B20 JUMP JUMPDEST PUSH1 0x41 DUP4 PUSH4 0x4E487B71 PUSH1 0xE0 SHL PUSH0 MSTORE MSTORE PUSH1 0x24 PUSH0 REVERT JUMPDEST DUP6 PUSH1 0x84 SWAP3 MLOAD SWAP2 PUSH3 0x461BCD PUSH1 0xE5 SHL DUP4 MSTORE DUP3 ADD MSTORE PUSH1 0x29 PUSH1 0x24 DUP3 ADD MSTORE PUSH32 0x416C6C20796F757220746F6B656E73206172652062616E6E65642066726F6D20 PUSH1 0x44 DUP3 ADD MSTORE PUSH9 0x70726F706F73696E67 PUSH1 0xB8 SHL PUSH1 0x64 DUP3 ADD MSTORE REVERT JUMPDEST PUSH1 0x17 SLOAD DUP1 ISZERO ISZERO DUP1 PUSH2 0x2E20 JUMPI JUMPDEST PUSH2 0x2D6F JUMPI JUMPDEST PUSH32 0xF3A4DAEB2D0C46BAA4922D40B36BC79601CD7A23C37A5B3CF658BB36101B3BFA SWAP1 DUP3 MLOAD DUP1 SWAP2 DUP5 DUP3 MSTORE PUSH2 0x2D62 DUP6 DUP4 ADD PUSH2 0x3C19 JUMP JUMPDEST SWAP1 DUP10 DUP4 ADD MSTORE SUB SWAP1 LOG1 PUSH2 0x2A7E JUMP JUMPDEST DUP1 PUSH0 MSTORE PUSH1 0x19 DUP7 MSTORE DUP2 PUSH0 KECCAK256 PUSH1 0x1 PUSH1 0xFF NOT DUP3 SLOAD AND OR SWAP1 SSTORE PUSH1 0x1A SLOAD PUSH1 0x1 PUSH1 0x40 SHL DUP2 LT ISZERO PUSH2 0x2E0D JUMPI SWAP1 DUP1 PUSH2 0x2DDF PUSH2 0x2DC9 DUP5 PUSH1 0x1 PUSH32 0xF3A4DAEB2D0C46BAA4922D40B36BC79601CD7A23C37A5B3CF658BB36101B3BFA SWAP7 ADD PUSH1 0x1A SSTORE PUSH2 0x3E6A JUMP JUMPDEST DUP2 SWAP4 SWAP2 SLOAD SWAP1 PUSH1 0x3 SHL SWAP2 DUP3 SHL SWAP2 PUSH0 NOT SWAP1 SHL NOT AND OR SWAP1 JUMP JUMPDEST SWAP1 SSTORE DUP1 PUSH32 0x8FCEBE7B587CB6A82A1B6B75D67F45402181B45AB78F2355219E4BCCAF507937 PUSH0 DUP1 LOG2 SWAP1 POP PUSH2 0x2D2E JUMP JUMPDEST PUSH1 0x41 DUP5 PUSH4 0x4E487B71 PUSH1 0xE0 SHL PUSH0 MSTORE MSTORE PUSH1 0x24 PUSH0 REVERT JUMPDEST POP DUP1 PUSH0 MSTORE PUSH1 0x19 DUP7 MSTORE PUSH1 0xFF DUP3 PUSH0 KECCAK256 SLOAD AND ISZERO PUSH2 0x2D29 JUMP JUMPDEST POP PUSH1 0x17 SLOAD ISZERO ISZERO PUSH2 0x2A79 JUMP JUMPDEST DUP2 MLOAD PUSH3 0x461BCD PUSH1 0xE5 SHL DUP2 MSTORE DUP1 DUP5 ADD DUP8 SWAP1 MSTORE PUSH1 0x18 PUSH1 0x24 DUP3 ADD MSTORE PUSH32 0x50726F706F73616C20636F6F6C646F776E206163746976650000000000000000 PUSH1 0x44 DUP3 ADD MSTORE PUSH1 0x64 SWAP1 REVERT JUMPDEST DUP2 MLOAD PUSH3 0x461BCD PUSH1 0xE5 SHL DUP2 MSTORE DUP1 DUP5 ADD DUP8 SWAP1 MSTORE PUSH1 0x1B PUSH1 0x24 DUP3 ADD MSTORE PUSH32 0x4163746976652070726F706F73616C20696E2070726F67726573730000000000 PUSH1 0x44 DUP3 ADD MSTORE PUSH1 0x64 SWAP1 REVERT JUMPDEST POP DUP1 PUSH2 0x2A58 JUMP JUMPDEST SWAP2 POP PUSH0 PUSH2 0x2A4F JUMP JUMPDEST POP PUSH1 0x15 SLOAD PUSH3 0x2A300 DUP2 ADD DUP1 SWAP2 GT PUSH2 0x2EED JUMPI TIMESTAMP GT PUSH2 0x2A48 JUMP JUMPDEST PUSH1 0x11 DUP6 PUSH4 0x4E487B71 PUSH1 0xE0 SHL PUSH0 MSTORE MSTORE PUSH1 0x24 PUSH0 REVERT JUMPDEST SWAP2 POP PUSH1 0x12 SLOAD PUSH3 0x20F580 DUP2 ADD DUP1 SWAP2 GT PUSH2 0x2EED JUMPI TIMESTAMP GT SWAP2 PUSH2 0x2A3C JUMP JUMPDEST MLOAD PUSH3 0x461BCD PUSH1 0xE5 SHL DUP2 MSTORE SWAP1 DUP2 ADD DUP5 SWAP1 MSTORE PUSH1 0x13 PUSH1 0x24 DUP3 ADD MSTORE PUSH19 0x5552492063616E6E6F7420626520656D707479 PUSH1 0x68 SHL PUSH1 0x44 DUP3 ADD MSTORE PUSH1 0x64 SWAP1 REVERT JUMPDEST PUSH1 0x11 DUP4 PUSH4 0x4E487B71 PUSH1 0xE0 SHL PUSH0 MSTORE MSTORE PUSH1 0x24 PUSH0 REVERT JUMPDEST CALLVALUE PUSH2 0x3AA JUMPI PUSH2 0xDA8 PUSH2 0x2F76 CALLDATASIZE PUSH2 0x3D6F JUMP JUMPDEST SWAP2 PUSH2 0x4269 JUMP JUMPDEST DUP3 CALLVALUE PUSH2 0x3AA JUMPI PUSH0 CALLDATASIZE PUSH1 0x3 NOT ADD SLT PUSH2 0x3AA JUMPI PUSH1 0x20 SWAP1 PUSH2 0x694 PUSH2 0x4258 JUMP JUMPDEST DUP3 CALLVALUE PUSH2 0x3AA JUMPI DUP1 PUSH1 0x3 NOT CALLDATASIZE ADD SLT PUSH2 0x3AA JUMPI PUSH2 0x2FB1 PUSH2 0x3A21 JUMP JUMPDEST SWAP2 PUSH1 0x24 DUP1 CALLDATALOAD SWAP4 PUSH1 0x1 PUSH1 0x1 PUSH1 0x40 SHL SUB SWAP4 DUP5 DUP7 GT PUSH2 0x3AA JUMPI DUP6 DUP5 ADD SWAP6 PUSH1 0xC4 CALLDATASIZE SWAP2 ADD GT PUSH2 0x3AA JUMPI DUP1 MLOAD SWAP1 PUSH2 0x2FE1 DUP3 PUSH2 0x3A7C JUMP JUMPDEST PUSH1 0x60 DUP1 SWAP3 CALLDATASIZE SWAP1 CALLDATACOPY PUSH2 0x2FF0 PUSH2 0x4971 JUMP JUMPDEST PUSH2 0x2FF8 PUSH2 0x499D JUMP JUMPDEST PUSH2 0x3008 PUSH2 0x3E7 PUSH1 0x29 SLOAD GT ISZERO PUSH2 0x3E9F JUMP JUMPDEST PUSH1 0x2B SLOAD PUSH1 0x1 PUSH1 0x1 PUSH1 0xA0 SHL SUB SWAP1 DUP2 AND ISZERO DUP1 ISZERO PUSH2 0x32F8 JUMPI JUMPDEST PUSH2 0x3027 SWAP1 PUSH2 0x3F01 JUMP JUMPDEST PUSH2 0x3030 DUP9 PUSH2 0x3F4D JUMP JUMPDEST SWAP1 POP ISZERO ISZERO SWAP1 DUP2 PUSH2 0x32B8 JUMPI JUMPDEST DUP3 MLOAD SWAP7 PUSH2 0x3047 DUP9 PUSH2 0x3A7C JUMP JUMPDEST DUP5 CALLDATASIZE DUP10 CALLDATACOPY PUSH0 JUMPDEST PUSH1 0xFF DUP2 AND PUSH1 0x3 DUP2 LT ISZERO PUSH2 0x307D JUMPI DUP2 PUSH1 0x1 SWAP2 PUSH2 0x3075 PUSH2 0x306E PUSH1 0xFF SWAP6 TIMESTAMP DUP14 PUSH2 0x4E0F JUMP JUMPDEST SWAP2 DUP14 PUSH2 0x4217 JUMP JUMPDEST MSTORE ADD AND PUSH2 0x304D JUMP JUMPDEST POP POP SWAP2 SWAP4 SWAP8 SWAP1 SWAP3 SWAP6 DUP7 MLOAD SWAP5 PUSH2 0x3091 DUP7 PUSH2 0x3A97 JUMP JUMPDEST DUP9 DUP7 MSTORE PUSH1 0x20 SWAP5 TIMESTAMP PUSH1 0x20 DUP9 ADD MSTORE PUSH0 DUP10 DUP9 ADD MSTORE DUP8 AND SWAP7 DUP8 DUP12 DUP9 ADD MSTORE DUP2 PUSH1 0xA0 PUSH1 0x1 SWAP9 DUP10 PUSH1 0x80 DUP3 ADD MSTORE ADD MSTORE DUP10 DUP8 PUSH0 JUMPDEST PUSH1 0x3 DUP2 LT PUSH2 0x32A5 JUMPI POP POP TIMESTAMP PUSH1 0x21 SSTORE POP PUSH1 0x22 DUP1 SLOAD PUSH1 0x1 PUSH1 0x1 PUSH1 0xB8 SHL SUB NOT AND PUSH1 0x8 SWAP3 SWAP1 SWAP3 SHL PUSH2 0x100 PUSH1 0x1 PUSH1 0xA8 SHL SUB AND SWAP2 SWAP1 SWAP2 OR PUSH1 0xB0 DUP4 SWAP1 SHL PUSH1 0xFF PUSH1 0xB0 SHL AND OR PUSH1 0x1 PUSH1 0xA8 SHL OR SWAP1 SSTORE PUSH2 0x31B0 JUMPI JUMPDEST DUP9 DUP9 PUSH2 0x1500 DUP10 DUP10 DUP10 CALLER PUSH1 0x1 PUSH1 0x1 PUSH1 0x60 SHL SUB PUSH1 0xA0 SHL PUSH1 0x2B SLOAD AND OR PUSH1 0x2B SSTORE TIMESTAMP PUSH1 0x2C SSTORE DUP3 MLOAD SWAP1 PUSH2 0x3133 DUP3 DUP8 PUSH2 0x3D48 JUMP JUMPDEST TIMESTAMP DUP8 DUP4 ADD MSTORE PUSH1 0x80 DUP3 ADD MSTORE PUSH32 0xC904C26EDFA19014321DAD8CE50A657782D9F55CD41AF2AFD9737E4F2EC76307 PUSH1 0xA0 CALLER SWAP3 LOG2 PUSH32 0x436CC48C6334B1DBE3160D3C717634AEF61EE2DB2F2065919B65B47D8D43D033 PUSH1 0x80 DUP4 MLOAD PUSH2 0x3192 DUP2 DUP9 PUSH2 0x3D48 JUMP JUMPDEST TIMESTAMP DUP9 DUP3 ADD MSTORE LOG2 PUSH0 PUSH0 DUP1 MLOAD PUSH1 0x20 PUSH2 0x550C DUP4 CODECOPY DUP2 MLOAD SWAP2 MSTORE TSTORE MLOAD DUP1 SWAP3 PUSH2 0x3D48 JUMP JUMPDEST PUSH0 JUMPDEST PUSH1 0x6 DUP2 LT PUSH2 0x31C0 JUMPI POP PUSH2 0x3106 JUMP JUMPDEST PUSH2 0x31CA DUP2 DUP13 PUSH2 0x3F81 JUMP JUMPDEST DUP3 PUSH1 0x23 ADD SWAP2 DUP6 DUP3 GT PUSH2 0x3293 JUMPI SWAP1 DUP3 SWAP2 PUSH2 0x31EF DUP3 PUSH2 0x31E9 DUP13 SWAP8 SWAP7 SLOAD PUSH2 0x3BE1 JUMP JUMPDEST DUP6 PUSH2 0x4027 JUMP JUMPDEST PUSH0 SWAP1 PUSH1 0x1F DUP4 GT PUSH1 0x1 EQ PUSH2 0x3231 JUMPI PUSH2 0x321D SWAP3 SWAP2 PUSH0 SWAP2 DUP4 PUSH2 0x3226 JUMPI JUMPDEST POP POP DUP2 PUSH1 0x1 SHL SWAP2 PUSH0 NOT SWAP1 PUSH1 0x3 SHL SHR NOT AND OR SWAP1 JUMP JUMPDEST SWAP1 SSTORE JUMPDEST ADD PUSH2 0x31B2 JUMP JUMPDEST ADD CALLDATALOAD SWAP1 POP PUSH0 DUP1 PUSH2 0x3209 JUMP JUMPDEST PUSH1 0x1F NOT DUP4 AND SWAP2 DUP5 PUSH0 MSTORE DUP11 PUSH0 KECCAK256 SWAP3 PUSH0 JUMPDEST DUP13 DUP3 DUP3 LT PUSH2 0x327D JUMPI POP POP SWAP1 DUP5 DUP9 SWAP6 SWAP5 SWAP4 SWAP3 LT PUSH2 0x3264 JUMPI JUMPDEST POP POP POP DUP2 SHL ADD SWAP1 SSTORE PUSH2 0x3220 JUMP JUMPDEST ADD CALLDATALOAD PUSH0 NOT PUSH1 0x3 DUP5 SWAP1 SHL PUSH1 0xF8 AND SHR NOT AND SWAP1 SSTORE DUP16 DUP1 DUP1 PUSH2 0x3257 JUMP JUMPDEST DUP4 DUP6 ADD CALLDATALOAD DUP7 SSTORE DUP15 SWAP10 SWAP1 SWAP6 ADD SWAP5 SWAP3 DUP4 ADD SWAP3 ADD PUSH2 0x3240 JUMP JUMPDEST DUP5 PUSH1 0x41 DUP9 PUSH4 0x4E487B71 PUSH1 0xE0 SHL PUSH0 MSTORE MSTORE PUSH0 REVERT JUMPDEST DUP9 DUP4 MLOAD SWAP4 ADD SWAP3 DUP2 PUSH1 0x1E ADD SSTORE ADD DUP9 SWAP1 PUSH2 0x30BC JUMP JUMPDEST DUP9 PUSH0 JUMPDEST PUSH1 0x6 DUP2 LT PUSH2 0x32CA JUMPI POP POP PUSH2 0x303B JUMP JUMPDEST PUSH2 0x32F0 PUSH2 0x32EB PUSH2 0x32E6 PUSH2 0x32DF DUP5 PUSH1 0x1 SWAP7 PUSH2 0x3F81 JUMP JUMPDEST CALLDATASIZE SWAP2 PUSH2 0x3B09 JUMP JUMPDEST PUSH2 0x49C9 JUMP JUMPDEST PUSH2 0x3FC3 JUMP JUMPDEST ADD DUP10 SWAP1 PUSH2 0x32BB JUMP JUMPDEST POP PUSH1 0x2C SLOAD PUSH2 0xCE4 DUP2 ADD DUP1 SWAP2 GT PUSH2 0x2379 JUMPI TIMESTAMP GT PUSH2 0x301E JUMP JUMPDEST DUP3 CALLVALUE PUSH2 0x3AA JUMPI PUSH1 0x20 CALLDATASIZE PUSH1 0x3 NOT ADD SLT PUSH2 0x3AA JUMPI PUSH1 0x20 SWAP2 CALLDATALOAD PUSH0 MSTORE PUSH1 0x2F DUP3 MSTORE DUP1 PUSH0 KECCAK256 SLOAD SWAP1 MLOAD SWAP1 DUP2 MSTORE RETURN JUMPDEST SWAP1 POP CALLVALUE PUSH2 0x3AA JUMPI PUSH2 0x3346 CALLDATASIZE PUSH2 0x3BA8 JUMP JUMPDEST SWAP1 PUSH0 MSTORE PUSH1 0x1D PUSH1 0x20 MSTORE DUP3 PUSH0 KECCAK256 SWAP1 PUSH1 0x6 DUP2 LT ISZERO PUSH2 0x3AA JUMPI PUSH2 0x3364 SWAP2 PUSH2 0x3BBE JUMP JUMPDEST SWAP2 SWAP1 SWAP2 PUSH2 0x3380 JUMPI DUP3 MLOAD PUSH2 0xB24 SWAP1 DUP5 PUSH2 0xCD9 DUP3 PUSH2 0xCD2 DUP2 DUP9 PUSH2 0x3CB7 JUMP JUMPDEST PUSH0 SWAP1 PUSH4 0x4E487B71 PUSH1 0xE0 SHL DUP3 MSTORE MSTORE PUSH1 0x24 PUSH0 REVERT JUMPDEST DUP3 CALLVALUE PUSH2 0x3AA JUMPI PUSH1 0x20 CALLDATASIZE PUSH1 0x3 NOT ADD SLT PUSH2 0x3AA JUMPI PUSH1 0x20 SWAP2 CALLDATALOAD PUSH0 MSTORE PUSH1 0x18 DUP3 MSTORE DUP1 PUSH0 KECCAK256 SLOAD PUSH1 0xD SLOAD EQ SWAP1 MLOAD SWAP1 DUP2 MSTORE RETURN JUMPDEST DUP3 CALLVALUE PUSH2 0x3AA JUMPI PUSH2 0x33CC CALLDATASIZE PUSH2 0x3B5D JUMP JUMPDEST SWAP1 SWAP2 PUSH2 0x33D6 PUSH2 0x4971 JUMP JUMPDEST PUSH2 0x33DE PUSH2 0x499D JUMP JUMPDEST PUSH0 DUP4 DUP2 MSTORE PUSH1 0x2 PUSH1 0x20 MSTORE DUP2 SWAP1 KECCAK256 SLOAD PUSH2 0x33FF SWAP1 PUSH1 0x1 PUSH1 0x1 PUSH1 0xA0 SHL SUB AND ISZERO ISZERO PUSH2 0x4061 JUMP JUMPDEST PUSH2 0x341F PUSH2 0x867 DUP4 PUSH1 0x20 DUP2 MLOAD SWAP2 ADD KECCAK256 PUSH0 MSTORE PUSH1 0x2E PUSH1 0x20 MSTORE PUSH1 0xFF PUSH1 0x40 PUSH0 KECCAK256 SLOAD AND SWAP1 JUMP JUMPDEST DUP3 PUSH0 MSTORE PUSH1 0x1C PUSH1 0x20 MSTORE PUSH2 0x89F DUP3 DUP3 PUSH0 KECCAK256 SLOAD DUP6 PUSH2 0x4DB6 JUMP JUMPDEST DUP3 CALLVALUE PUSH2 0x3AA JUMPI PUSH0 CALLDATASIZE PUSH1 0x3 NOT ADD SLT PUSH2 0x3AA JUMPI PUSH1 0x20 SWAP1 MLOAD PUSH3 0x15180 DUP2 MSTORE RETURN JUMPDEST DUP3 CALLVALUE PUSH2 0x3AA JUMPI DUP1 PUSH1 0x3 NOT CALLDATASIZE ADD SLT PUSH2 0x3AA JUMPI PUSH2 0x346B PUSH2 0x3A21 JUMP JUMPDEST SWAP2 PUSH1 0x24 CALLDATALOAD PUSH2 0x3478 DUP2 PUSH2 0x4D7C JUMP JUMPDEST CALLER ISZERO ISZERO DUP1 PUSH2 0x351A JUMPI JUMPDEST DUP1 PUSH2 0x34F3 JUMPI JUMPDEST PUSH2 0x34DD JUMPI PUSH1 0x1 PUSH1 0x1 PUSH1 0xA0 SHL SUB SWAP5 DUP6 AND SWAP5 DUP3 SWAP2 DUP7 SWAP2 AND PUSH32 0x8C5BE1E5EBEC7D5BD14F71427D1E84F3DD0314C0F7B2291E5B200AC8C7C3B925 PUSH0 DUP1 LOG4 PUSH0 MSTORE PUSH1 0x20 MSTORE PUSH0 KECCAK256 SWAP1 PUSH1 0x1 PUSH1 0x1 PUSH1 0x60 SHL SUB PUSH1 0xA0 SHL DUP3 SLOAD AND OR SWAP1 SSTORE PUSH0 DUP1 RETURN JUMPDEST DUP4 MLOAD PUSH4 0xA9FBF51F PUSH1 0xE0 SHL DUP2 MSTORE CALLER DUP2 DUP6 ADD MSTORE PUSH1 0x24 SWAP1 REVERT JUMPDEST POP PUSH1 0x1 DUP1 PUSH1 0xA0 SHL SUB DUP2 AND PUSH0 MSTORE PUSH1 0x5 PUSH1 0x20 MSTORE DUP4 PUSH0 KECCAK256 CALLER PUSH0 MSTORE PUSH1 0x20 MSTORE PUSH1 0xFF DUP5 PUSH0 KECCAK256 SLOAD AND ISZERO PUSH2 0x3487 JUMP JUMPDEST POP PUSH1 0x1 PUSH1 0x1 PUSH1 0xA0 SHL SUB DUP2 AND CALLER EQ ISZERO PUSH2 0x3481 JUMP JUMPDEST DUP3 CALLVALUE PUSH2 0x3AA JUMPI PUSH1 0x20 CALLDATASIZE PUSH1 0x3 NOT ADD SLT PUSH2 0x3AA JUMPI DUP2 PUSH1 0x20 SWAP3 CALLDATALOAD PUSH2 0x354D DUP2 PUSH2 0x4D7C JUMP JUMPDEST POP PUSH0 MSTORE DUP3 MSTORE PUSH1 0x1 DUP1 PUSH1 0xA0 SHL SUB DUP2 PUSH0 KECCAK256 SLOAD AND SWAP1 MLOAD SWAP1 DUP2 MSTORE RETURN JUMPDEST SWAP1 POP CALLVALUE PUSH2 0x3AA JUMPI PUSH1 0x60 CALLDATASIZE PUSH1 0x3 NOT ADD SLT PUSH2 0x3AA JUMPI PUSH2 0x3580 PUSH2 0x3A21 JUMP JUMPDEST SWAP1 PUSH1 0x24 SWAP2 PUSH1 0x24 CALLDATALOAD SWAP2 PUSH1 0x1 PUSH1 0x1 PUSH1 0x40 SHL SUB SWAP5 DUP6 DUP5 GT PUSH2 0x3AA JUMPI DUP4 DUP3 ADD SWAP4 PUSH1 0xC4 CALLDATASIZE SWAP2 ADD GT PUSH2 0x3AA JUMPI PUSH1 0x44 CALLDATALOAD SWAP2 PUSH2 0x35B2 PUSH2 0x4971 JUMP JUMPDEST PUSH2 0x35BA PUSH2 0x499D JUMP JUMPDEST PUSH1 0x29 SLOAD SWAP6 PUSH2 0x35CC PUSH2 0x3E7 DUP9 GT ISZERO PUSH2 0x3E9F JUMP JUMPDEST DUP4 ISZERO PUSH2 0x37EC JUMPI PUSH1 0x2B SLOAD PUSH1 0x1 PUSH1 0x1 PUSH1 0xA0 SHL SUB SWAP7 SWAP1 DUP8 AND ISZERO DUP1 ISZERO PUSH2 0x37D5 JUMPI JUMPDEST PUSH2 0x35F2 SWAP1 PUSH2 0x3F01 JUMP JUMPDEST PUSH2 0x35FB DUP2 PUSH2 0x3F4D JUMP JUMPDEST SWAP1 POP ISZERO ISZERO SWAP9 DUP10 PUSH2 0x37A9 JUMPI JUMPDEST TIMESTAMP PUSH1 0x2A SSTORE PUSH2 0x3613 DUP10 PUSH2 0x4003 JUMP JUMPDEST PUSH1 0x29 SSTORE DUP5 MLOAD SWAP3 PUSH2 0x3622 DUP5 PUSH2 0x3A4D JUMP JUMPDEST DUP7 DUP5 MSTORE PUSH1 0x20 SWAP5 DUP12 DUP7 DUP7 ADD SWAP6 TIMESTAMP DUP8 MSTORE DUP13 PUSH0 MSTORE PUSH1 0x1B DUP9 MSTORE DUP9 PUSH0 KECCAK256 SWAP1 MLOAD DUP2 SSTORE PUSH1 0x1 DUP1 SWAP8 MLOAD SWAP2 ADD SSTORE PUSH2 0x369E JUMPI JUMPDEST DUP12 DUP12 PUSH32 0x35A71FD4AD36D3B5F42A9819D12284AC3592B91D09F274E2FF1639A4418C1A02 DUP13 DUP13 PUSH2 0x919 DUP14 DUP14 PUSH2 0x367F DUP8 DUP6 PUSH2 0x4ABA JUMP JUMPDEST MLOAD SWAP1 DUP2 MSTORE SWAP6 ISZERO ISZERO PUSH1 0x20 DUP8 ADD MSTORE TIMESTAMP PUSH1 0x40 DUP8 ADD MSTORE SWAP2 AND SWAP4 SWAP1 DUP2 SWAP1 PUSH1 0x60 DUP3 ADD SWAP1 JUMP JUMPDEST PUSH0 JUMPDEST PUSH1 0x6 DUP2 LT PUSH2 0x36AE JUMPI POP PUSH2 0x364B JUMP JUMPDEST PUSH2 0x36B8 DUP2 DUP7 PUSH2 0x3F81 JUMP JUMPDEST DUP14 PUSH0 MSTORE PUSH1 0x1D DUP10 MSTORE PUSH2 0x36CB DUP4 DUP12 PUSH0 KECCAK256 PUSH2 0x3BBE JUMP JUMPDEST SWAP3 SWAP1 SWAP3 PUSH2 0x3798 JUMPI DUP7 DUP3 GT PUSH2 0x3786 JUMPI SWAP1 DUP3 SWAP2 PUSH2 0x36EC DUP3 PUSH2 0x31E9 DUP13 SWAP8 SWAP7 SLOAD PUSH2 0x3BE1 JUMP JUMPDEST PUSH0 SWAP1 PUSH1 0x1F DUP4 GT PUSH1 0x1 EQ PUSH2 0x3722 JUMPI PUSH2 0x3719 SWAP3 SWAP2 PUSH0 SWAP2 DUP4 PUSH2 0x3226 JUMPI POP POP DUP2 PUSH1 0x1 SHL SWAP2 PUSH0 NOT SWAP1 PUSH1 0x3 SHL SHR NOT AND OR SWAP1 JUMP JUMPDEST SWAP1 SSTORE JUMPDEST ADD PUSH2 0x36A0 JUMP JUMPDEST PUSH0 DUP5 DUP2 MSTORE DUP13 DUP2 KECCAK256 SWAP3 SWAP1 PUSH1 0x1F NOT DUP6 AND SWAP1 DUP15 JUMPDEST DUP3 DUP3 LT PUSH2 0x376F JUMPI POP POP SWAP1 DUP5 DUP9 SWAP6 SWAP5 SWAP4 SWAP3 LT PUSH2 0x3756 JUMPI JUMPDEST POP POP POP DUP2 SHL ADD SWAP1 SSTORE PUSH2 0x371C JUMP JUMPDEST ADD CALLDATALOAD PUSH0 NOT PUSH1 0x3 DUP5 SWAP1 SHL PUSH1 0xF8 AND SHR NOT AND SWAP1 SSTORE PUSH0 DUP1 DUP1 PUSH2 0x3749 JUMP JUMPDEST DUP4 DUP6 ADD CALLDATALOAD DUP7 SSTORE DUP15 SWAP10 SWAP1 SWAP6 ADD SWAP5 SWAP3 DUP4 ADD SWAP3 ADD DUP15 PUSH2 0x3733 JUMP JUMPDEST DUP6 PUSH1 0x41 DUP7 PUSH4 0x4E487B71 PUSH1 0xE0 SHL PUSH0 MSTORE MSTORE PUSH0 REVERT JUMPDEST DUP6 PUSH0 DUP7 PUSH4 0x4E487B71 PUSH1 0xE0 SHL DUP3 MSTORE MSTORE PUSH0 REVERT JUMPDEST PUSH0 JUMPDEST PUSH1 0x6 DUP2 LT PUSH2 0x37B9 JUMPI POP PUSH2 0x3606 JUMP JUMPDEST DUP1 PUSH2 0x37CF PUSH2 0x32EB PUSH2 0x32E6 PUSH2 0x32DF PUSH1 0x1 SWAP6 DUP9 PUSH2 0x3F81 JUMP JUMPDEST ADD PUSH2 0x37AB JUMP JUMPDEST POP PUSH1 0x2C SLOAD PUSH2 0xCE4 DUP2 ADD DUP1 SWAP2 GT PUSH2 0x15DD JUMPI TIMESTAMP GT PUSH2 0x35E9 JUMP JUMPDEST POP PUSH1 0x20 PUSH1 0x84 SWAP3 MLOAD SWAP2 PUSH3 0x461BCD PUSH1 0xE5 SHL DUP4 MSTORE DUP3 ADD MSTORE PUSH1 0x3D PUSH1 0x24 DUP3 ADD MSTORE PUSH32 0x437573746F6D2073656564207265717569726564202D20757365207265717565 PUSH1 0x44 DUP3 ADD MSTORE PUSH32 0x73744F776E65724D696E7420666F7220332D6F7074696F6E20666C6F77000000 PUSH1 0x64 DUP3 ADD MSTORE REVERT JUMPDEST DUP3 CALLVALUE PUSH2 0x3AA JUMPI PUSH0 CALLDATASIZE PUSH1 0x3 NOT ADD SLT PUSH2 0x3AA JUMPI PUSH1 0x20 SWAP1 MLOAD PUSH2 0x2EE DUP2 MSTORE RETURN JUMPDEST DUP3 CALLVALUE PUSH2 0x3AA JUMPI PUSH0 CALLDATASIZE PUSH1 0x3 NOT ADD SLT PUSH2 0x3AA JUMPI DUP1 MLOAD SWAP1 PUSH0 SWAP1 DUP3 PUSH0 SLOAD SWAP3 PUSH2 0x3894 DUP5 PUSH2 0x3BE1 JUMP JUMPDEST DUP1 DUP4 MSTORE PUSH1 0x20 SWAP5 PUSH1 0x1 SWAP1 DUP7 PUSH1 0x1 DUP3 AND SWAP2 DUP3 PUSH0 EQ PUSH2 0x18FE JUMPI POP POP PUSH1 0x1 EQ PUSH2 0x38C5 JUMPI POP POP PUSH2 0xB24 SWAP3 SWAP2 PUSH2 0xB15 SWAP2 SUB DUP6 PUSH2 0x3ACD JUMP JUMPDEST PUSH0 DUP1 DUP1 MSTORE DUP7 SWAP4 POP SWAP2 SWAP1 PUSH32 0x290DECD9548B62A8D60345A988386FC84BA6BC95484008F6362F93160EF3E563 JUMPDEST DUP3 DUP5 LT PUSH2 0x3906 JUMPI POP POP POP DUP3 ADD ADD DUP2 PUSH2 0xB15 PUSH2 0x1891 JUMP JUMPDEST DUP1 SLOAD DUP5 DUP11 ADD DUP7 ADD MSTORE DUP9 SWAP6 POP DUP8 SWAP5 SWAP1 SWAP4 ADD SWAP3 DUP2 ADD PUSH2 0x38F0 JUMP JUMPDEST SWAP1 POP CALLVALUE PUSH2 0x3AA JUMPI PUSH1 0x20 CALLDATASIZE PUSH1 0x3 NOT ADD SLT PUSH2 0x3AA JUMPI CALLDATALOAD PUSH4 0xFFFFFFFF PUSH1 0xE0 SHL DUP2 AND DUP1 SWAP2 SUB PUSH2 0x3AA JUMPI PUSH1 0x20 SWAP2 PUSH4 0x152A902D PUSH1 0xE1 SHL DUP3 EQ SWAP2 DUP3 ISZERO PUSH2 0x3961 JUMPI JUMPDEST POP MLOAD SWAP1 ISZERO ISZERO DUP2 MSTORE RETURN JUMPDEST SWAP1 SWAP2 POP PUSH4 0x780E9D63 PUSH1 0xE0 SHL DUP2 EQ SWAP1 DUP2 ISZERO PUSH2 0x397E JUMPI JUMPDEST POP SWAP1 PUSH0 PUSH2 0x3958 JUMP JUMPDEST PUSH4 0x80AC58CD PUSH1 0xE0 SHL DUP2 EQ SWAP2 POP DUP2 ISZERO PUSH2 0x39B0 JUMPI JUMPDEST DUP2 ISZERO PUSH2 0x399F JUMPI JUMPDEST POP PUSH0 PUSH2 0x3976 JUMP JUMPDEST PUSH4 0x1FFC9A7 PUSH1 0xE0 SHL EQ SWAP1 POP PUSH0 PUSH2 0x3998 JUMP JUMPDEST PUSH4 0x5B5E139F PUSH1 0xE0 SHL DUP2 EQ SWAP2 POP PUSH2 0x3991 JUMP JUMPDEST CALLVALUE PUSH2 0x3AA JUMPI PUSH0 CALLDATASIZE PUSH1 0x3 NOT ADD SLT PUSH2 0x3AA JUMPI PUSH1 0x20 SWAP1 PUSH1 0x2A SLOAD DUP2 MSTORE RETURN JUMPDEST PUSH0 JUMPDEST DUP4 DUP2 LT PUSH2 0x39EC JUMPI POP POP PUSH0 SWAP2 ADD MSTORE JUMP JUMPDEST DUP2 DUP2 ADD MLOAD DUP4 DUP3 ADD MSTORE PUSH1 0x20 ADD PUSH2 0x39DD JUMP JUMPDEST SWAP1 PUSH1 0x20 SWAP2 PUSH2 0x3A15 DUP2 MLOAD DUP1 SWAP3 DUP2 DUP6 MSTORE DUP6 DUP1 DUP7 ADD SWAP2 ADD PUSH2 0x39DB JUMP JUMPDEST PUSH1 0x1F ADD PUSH1 0x1F NOT AND ADD ADD SWAP1 JUMP JUMPDEST PUSH1 0x4 CALLDATALOAD SWAP1 PUSH1 0x1 PUSH1 0x1 PUSH1 0xA0 SHL SUB DUP3 AND DUP3 SUB PUSH2 0x3AA JUMPI JUMP JUMPDEST PUSH1 0x24 CALLDATALOAD SWAP1 PUSH1 0x1 PUSH1 0x1 PUSH1 0xA0 SHL SUB DUP3 AND DUP3 SUB PUSH2 0x3AA JUMPI JUMP JUMPDEST PUSH1 0x40 DUP2 ADD SWAP1 DUP2 LT PUSH1 0x1 PUSH1 0x1 PUSH1 0x40 SHL SUB DUP3 GT OR PUSH2 0x3A68 JUMPI PUSH1 0x40 MSTORE JUMP JUMPDEST PUSH4 0x4E487B71 PUSH1 0xE0 SHL PUSH0 MSTORE PUSH1 0x41 PUSH1 0x4 MSTORE PUSH1 0x24 PUSH0 REVERT JUMPDEST PUSH1 0x60 DUP2 ADD SWAP1 DUP2 LT PUSH1 0x1 PUSH1 0x1 PUSH1 0x40 SHL SUB DUP3 GT OR PUSH2 0x3A68 JUMPI PUSH1 0x40 MSTORE JUMP JUMPDEST PUSH1 0xC0 DUP2 ADD SWAP1 DUP2 LT PUSH1 0x1 PUSH1 0x1 PUSH1 0x40 SHL SUB DUP3 GT OR PUSH2 0x3A68 JUMPI PUSH1 0x40 MSTORE JUMP JUMPDEST PUSH1 0x20 DUP2 ADD SWAP1 DUP2 LT PUSH1 0x1 PUSH1 0x1 PUSH1 0x40 SHL SUB DUP3 GT OR PUSH2 0x3A68 JUMPI PUSH1 0x40 MSTORE JUMP JUMPDEST SWAP1 PUSH1 0x1F DUP1 NOT SWAP2 ADD AND DUP2 ADD SWAP1 DUP2 LT PUSH1 0x1 PUSH1 0x1 PUSH1 0x40 SHL SUB DUP3 GT OR PUSH2 0x3A68 JUMPI PUSH1 0x40 MSTORE JUMP JUMPDEST PUSH1 0x1 PUSH1 0x1 PUSH1 0x40 SHL SUB DUP2 GT PUSH2 0x3A68 JUMPI PUSH1 0x1F ADD PUSH1 0x1F NOT AND PUSH1 0x20 ADD SWAP1 JUMP JUMPDEST SWAP3 SWAP2 SWAP3 PUSH2 0x3B15 DUP3 PUSH2 0x3AEE JUMP JUMPDEST SWAP2 PUSH2 0x3B23 PUSH1 0x40 MLOAD SWAP4 DUP5 PUSH2 0x3ACD JUMP JUMPDEST DUP3 SWAP5 DUP2 DUP5 MSTORE DUP2 DUP4 ADD GT PUSH2 0x3AA JUMPI DUP3 DUP2 PUSH1 0x20 SWAP4 DUP5 PUSH0 SWAP7 ADD CALLDATACOPY ADD ADD MSTORE JUMP JUMPDEST SWAP1 DUP1 PUSH1 0x1F DUP4 ADD SLT ISZERO PUSH2 0x3AA JUMPI DUP2 PUSH1 0x20 PUSH2 0x3B5A SWAP4 CALLDATALOAD SWAP2 ADD PUSH2 0x3B09 JUMP JUMPDEST SWAP1 JUMP JUMPDEST SWAP1 PUSH1 0x40 PUSH1 0x3 NOT DUP4 ADD SLT PUSH2 0x3AA JUMPI PUSH1 0x4 CALLDATALOAD SWAP2 PUSH1 0x24 CALLDATALOAD SWAP1 PUSH1 0x1 PUSH1 0x1 PUSH1 0x40 SHL SUB DUP3 GT PUSH2 0x3AA JUMPI PUSH2 0x3B5A SWAP2 PUSH1 0x4 ADD PUSH2 0x3B3F JUMP JUMPDEST CALLVALUE PUSH2 0x3AA JUMPI PUSH0 CALLDATASIZE PUSH1 0x3 NOT ADD SLT PUSH2 0x3AA JUMPI PUSH1 0x20 PUSH1 0x40 MLOAD PUSH2 0x3E7 DUP2 MSTORE RETURN JUMPDEST PUSH1 0x40 SWAP1 PUSH1 0x3 NOT ADD SLT PUSH2 0x3AA JUMPI PUSH1 0x4 CALLDATALOAD SWAP1 PUSH1 0x24 CALLDATALOAD SWAP1 JUMP JUMPDEST PUSH1 0x6 DUP3 LT ISZERO PUSH2 0x3BCD JUMPI ADD SWAP1 PUSH0 SWAP1 JUMP JUMPDEST PUSH4 0x4E487B71 PUSH1 0xE0 SHL PUSH0 MSTORE PUSH1 0x32 PUSH1 0x4 MSTORE PUSH1 0x24 PUSH0 REVERT JUMPDEST SWAP1 PUSH1 0x1 DUP3 DUP2 SHR SWAP3 AND DUP1 ISZERO PUSH2 0x3C0F JUMPI JUMPDEST PUSH1 0x20 DUP4 LT EQ PUSH2 0x3BFB JUMPI JUMP JUMPDEST PUSH4 0x4E487B71 PUSH1 0xE0 SHL PUSH0 MSTORE PUSH1 0x22 PUSH1 0x4 MSTORE PUSH1 0x24 PUSH0 REVERT JUMPDEST SWAP2 PUSH1 0x7F AND SWAP2 PUSH2 0x3BF0 JUMP JUMPDEST PUSH1 0x11 SLOAD PUSH0 SWAP3 SWAP2 PUSH2 0x3C28 DUP3 PUSH2 0x3BE1 JUMP JUMPDEST DUP1 DUP3 MSTORE SWAP2 PUSH1 0x20 SWAP1 PUSH1 0x1 SWAP1 DUP2 DUP2 AND SWAP1 DUP2 ISZERO PUSH2 0x3C92 JUMPI POP PUSH1 0x1 EQ PUSH2 0x3C4B JUMPI JUMPDEST POP POP POP POP JUMP JUMPDEST SWAP3 SWAP4 SWAP5 POP PUSH1 0x11 PUSH0 MSTORE PUSH0 DUP1 MLOAD PUSH1 0x20 PUSH2 0x54EC DUP4 CODECOPY DUP2 MLOAD SWAP2 MSTORE SWAP3 PUSH0 SWAP4 JUMPDEST DUP6 DUP6 LT PUSH2 0x3C7F JUMPI POP POP POP PUSH1 0x20 SWAP3 POP ADD ADD SWAP1 PUSH0 DUP1 DUP1 DUP1 PUSH2 0x3C45 JUMP JUMPDEST DUP1 SLOAD DUP6 DUP6 ADD DUP5 ADD MSTORE SWAP4 DUP3 ADD SWAP4 DUP2 ADD PUSH2 0x3C65 JUMP JUMPDEST SWAP3 POP POP POP PUSH1 0x20 SWAP4 SWAP5 POP PUSH1 0xFF SWAP3 SWAP2 SWAP3 NOT AND DUP4 DUP4 ADD MSTORE ISZERO ISZERO PUSH1 0x5 SHL ADD ADD SWAP1 PUSH0 DUP1 DUP1 DUP1 PUSH2 0x3C45 JUMP JUMPDEST DUP1 SLOAD PUSH0 SWAP4 SWAP3 PUSH2 0x3CC5 DUP3 PUSH2 0x3BE1 JUMP JUMPDEST SWAP2 DUP3 DUP3 MSTORE PUSH1 0x20 SWAP4 PUSH1 0x1 SWAP2 PUSH1 0x1 DUP2 AND SWAP1 DUP2 PUSH0 EQ PUSH2 0x3D29 JUMPI POP PUSH1 0x1 EQ PUSH2 0x3CEB JUMPI JUMPDEST POP POP POP POP POP JUMP JUMPDEST SWAP1 SWAP4 SWAP5 SWAP6 POP PUSH0 SWAP3 SWAP2 SWAP3 MSTORE DUP4 PUSH0 KECCAK256 SWAP3 DUP5 PUSH0 SWAP5 JUMPDEST DUP4 DUP7 LT PUSH2 0x3D15 JUMPI POP POP POP POP ADD ADD SWAP1 PUSH0 DUP1 DUP1 DUP1 DUP1 PUSH2 0x3CE4 JUMP JUMPDEST DUP1 SLOAD DUP6 DUP8 ADD DUP4 ADD MSTORE SWAP5 ADD SWAP4 DUP6 SWAP1 DUP3 ADD PUSH2 0x3CFD JUMP JUMPDEST PUSH1 0xFF NOT AND DUP7 DUP6 ADD MSTORE POP POP POP SWAP1 ISZERO ISZERO PUSH1 0x5 SHL ADD ADD SWAP2 POP PUSH0 DUP1 DUP1 DUP1 DUP1 PUSH2 0x3CE4 JUMP JUMPDEST PUSH0 SWAP2 JUMPDEST PUSH1 0x3 DUP4 LT PUSH2 0x3D58 JUMPI POP POP POP JUMP JUMPDEST PUSH1 0x1 SWAP1 DUP3 MLOAD DUP2 MSTORE PUSH1 0x20 DUP1 SWAP2 ADD SWAP3 ADD SWAP3 ADD SWAP2 SWAP1 PUSH2 0x3D4B JUMP JUMPDEST PUSH1 0x60 SWAP1 PUSH1 0x3 NOT ADD SLT PUSH2 0x3AA JUMPI PUSH1 0x1 PUSH1 0x1 PUSH1 0xA0 SHL SUB SWAP1 PUSH1 0x4 CALLDATALOAD DUP3 DUP2 AND DUP2 SUB PUSH2 0x3AA JUMPI SWAP2 PUSH1 0x24 CALLDATALOAD SWAP1 DUP2 AND DUP2 SUB PUSH2 0x3AA JUMPI SWAP1 PUSH1 0x44 CALLDATALOAD SWAP1 JUMP JUMPDEST SWAP6 SWAP3 SWAP10 SWAP9 SWAP8 SWAP5 SWAP2 PUSH2 0x3DD1 SWAP1 PUSH2 0x100 SWAP9 SWAP6 SWAP3 PUSH2 0x120 SWAP1 PUSH1 0x1 DUP1 PUSH1 0xA0 SHL SUB AND DUP10 MSTORE DUP1 PUSH1 0x20 DUP11 ADD MSTORE DUP9 ADD SWAP1 PUSH2 0x39FC JUMP JUMPDEST SWAP10 PUSH1 0x40 DUP8 ADD MSTORE PUSH1 0x60 DUP7 ADD MSTORE ISZERO ISZERO PUSH1 0x80 DUP6 ADD MSTORE ISZERO ISZERO PUSH1 0xA0 DUP5 ADD MSTORE PUSH1 0xC0 DUP4 ADD MSTORE ISZERO ISZERO PUSH1 0xE0 DUP3 ADD MSTORE ADD MSTORE JUMP JUMPDEST DUP1 SLOAD DUP3 LT ISZERO PUSH2 0x3BCD JUMPI PUSH0 MSTORE PUSH1 0x3 PUSH1 0x20 PUSH0 KECCAK256 SWAP2 MUL ADD SWAP1 PUSH0 SWAP1 JUMP JUMPDEST PUSH2 0x3E2B PUSH1 0x40 SWAP3 SWAP6 SWAP5 SWAP4 SWAP6 PUSH1 0x60 DUP4 MSTORE PUSH1 0x60 DUP4 ADD SWAP1 PUSH2 0x39FC JUMP JUMPDEST SWAP5 PUSH1 0x20 DUP3 ADD MSTORE ADD MSTORE JUMP JUMPDEST PUSH1 0x8 SLOAD DUP2 LT ISZERO PUSH2 0x3BCD JUMPI PUSH1 0x8 PUSH0 MSTORE PUSH32 0xF3F7A9FE364FAAB93B216DA50A3214154F22A0A2B415B23A84C8169E8B636EE3 ADD SWAP1 PUSH0 SWAP1 JUMP JUMPDEST PUSH1 0x1A SLOAD DUP2 LT ISZERO PUSH2 0x3BCD JUMPI PUSH1 0x1A PUSH0 MSTORE PUSH32 0x57C384A7D1C54F3A1B2E5E67B2617B8224FDFD1EA7234EEA573A6FF665FF63E ADD SWAP1 PUSH0 SWAP1 JUMP JUMPDEST ISZERO PUSH2 0x3EA6 JUMPI JUMP JUMPDEST PUSH1 0x40 MLOAD PUSH3 0x461BCD PUSH1 0xE5 SHL DUP2 MSTORE PUSH1 0x20 PUSH1 0x4 DUP3 ADD MSTORE PUSH1 0x12 PUSH1 0x24 DUP3 ADD MSTORE PUSH18 0x13585E081CDD5C1C1B1E481C995858DA1959 PUSH1 0x72 SHL PUSH1 0x44 DUP3 ADD MSTORE PUSH1 0x64 SWAP1 REVERT JUMPDEST SWAP2 SWAP1 DUP3 ADD DUP1 SWAP3 GT PUSH2 0x3EED JUMPI JUMP JUMPDEST PUSH4 0x4E487B71 PUSH1 0xE0 SHL PUSH0 MSTORE PUSH1 0x11 PUSH1 0x4 MSTORE PUSH1 0x24 PUSH0 REVERT JUMPDEST ISZERO PUSH2 0x3F08 JUMPI JUMP JUMPDEST PUSH1 0x40 MLOAD PUSH3 0x461BCD PUSH1 0xE5 SHL DUP2 MSTORE PUSH1 0x20 PUSH1 0x4 DUP3 ADD MSTORE PUSH1 0x1A PUSH1 0x24 DUP3 ADD MSTORE PUSH32 0x4D696E742073656C656374696F6E20696E2070726F6772657373000000000000 PUSH1 0x44 DUP3 ADD MSTORE PUSH1 0x64 SWAP1 REVERT JUMPDEST DUP1 CALLDATALOAD SWAP1 PUSH1 0x1E NOT DUP2 CALLDATASIZE SUB ADD DUP3 SLT ISZERO PUSH2 0x3AA JUMPI ADD SWAP1 DUP2 CALLDATALOAD SWAP2 PUSH1 0x1 PUSH1 0x1 PUSH1 0x40 SHL SUB DUP4 GT PUSH2 0x3AA JUMPI PUSH1 0x20 ADD DUP3 CALLDATASIZE SUB DUP2 SGT PUSH2 0x3AA JUMPI SWAP2 SWAP1 JUMP JUMPDEST SWAP1 PUSH1 0x6 DUP2 LT ISZERO PUSH2 0x3BCD JUMPI PUSH1 0x5 SHL DUP2 ADD CALLDATALOAD SWAP1 PUSH1 0x1E NOT DUP2 CALLDATASIZE SUB ADD DUP3 SLT ISZERO PUSH2 0x3AA JUMPI ADD SWAP1 DUP2 CALLDATALOAD SWAP2 PUSH1 0x1 PUSH1 0x1 PUSH1 0x40 SHL SUB DUP4 GT PUSH2 0x3AA JUMPI PUSH1 0x20 ADD DUP3 CALLDATASIZE SUB DUP2 SGT PUSH2 0x3AA JUMPI SWAP2 SWAP1 JUMP JUMPDEST ISZERO PUSH2 0x3FCA JUMPI JUMP JUMPDEST PUSH1 0x40 MLOAD PUSH3 0x461BCD PUSH1 0xE5 SHL DUP2 MSTORE PUSH1 0x20 PUSH1 0x4 DUP3 ADD MSTORE PUSH1 0x11 PUSH1 0x24 DUP3 ADD MSTORE PUSH17 0x24B73B30B634B2103432BC1031B7B637B9 PUSH1 0x79 SHL PUSH1 0x44 DUP3 ADD MSTORE PUSH1 0x64 SWAP1 REVERT JUMPDEST PUSH0 NOT DUP2 EQ PUSH2 0x3EED JUMPI PUSH1 0x1 ADD SWAP1 JUMP JUMPDEST DUP2 DUP2 LT PUSH2 0x401C JUMPI POP POP JUMP JUMPDEST PUSH0 DUP2 SSTORE PUSH1 0x1 ADD PUSH2 0x4011 JUMP JUMPDEST SWAP2 SWAP1 PUSH1 0x1F DUP2 GT PUSH2 0x4036 JUMPI POP POP POP JUMP JUMPDEST PUSH2 0x405F SWAP3 PUSH0 MSTORE PUSH1 0x20 PUSH0 KECCAK256 SWAP1 PUSH1 0x20 PUSH1 0x1F DUP5 ADD PUSH1 0x5 SHR DUP4 ADD SWAP4 LT PUSH2 0x123E JUMPI PUSH1 0x1F ADD PUSH1 0x5 SHR ADD SWAP1 PUSH2 0x4011 JUMP JUMPDEST JUMP JUMPDEST ISZERO PUSH2 0x4068 JUMPI JUMP JUMPDEST PUSH1 0x40 MLOAD PUSH3 0x461BCD PUSH1 0xE5 SHL DUP2 MSTORE PUSH1 0x20 PUSH1 0x4 DUP3 ADD MSTORE PUSH1 0x14 PUSH1 0x24 DUP3 ADD MSTORE PUSH20 0x151BDAD95B88191BD95CC81B9BDD08195E1A5CDD PUSH1 0x62 SHL PUSH1 0x44 DUP3 ADD MSTORE PUSH1 0x64 SWAP1 REVERT JUMPDEST ISZERO PUSH2 0x40AB JUMPI JUMP JUMPDEST PUSH1 0x40 MLOAD PUSH3 0x461BCD PUSH1 0xE5 SHL DUP2 MSTORE PUSH1 0x20 PUSH1 0x4 DUP3 ADD MSTORE PUSH1 0x15 PUSH1 0x24 DUP3 ADD MSTORE PUSH21 0x496E76616C6964206D75746174696F6E2074797065 PUSH1 0x58 SHL PUSH1 0x44 DUP3 ADD MSTORE PUSH1 0x64 SWAP1 REVERT JUMPDEST SWAP1 DUP2 SLOAD PUSH1 0x1 PUSH1 0x40 SHL DUP2 LT ISZERO PUSH2 0x3A68 JUMPI PUSH2 0x4109 SWAP1 PUSH1 0x1 SWAP4 PUSH1 0x1 DUP3 ADD DUP2 SSTORE PUSH2 0x3DFA JUMP JUMPDEST SWAP3 SWAP1 SWAP3 PUSH2 0x41F7 JUMPI DUP2 MLOAD SWAP1 DUP2 MLOAD SWAP2 PUSH1 0x1 PUSH1 0x1 PUSH1 0x40 SHL SUB DUP4 GT PUSH2 0x3A68 JUMPI PUSH2 0x4138 DUP4 PUSH2 0x4132 DUP8 SLOAD PUSH2 0x3BE1 JUMP JUMPDEST DUP8 PUSH2 0x4027 JUMP JUMPDEST PUSH1 0x20 SWAP2 PUSH1 0x1F DUP5 GT PUSH1 0x1 EQ PUSH2 0x418C JUMPI POP DUP3 PUSH1 0x40 SWAP4 PUSH1 0x2 SWAP6 SWAP4 PUSH2 0x416D SWAP4 PUSH0 SWAP3 PUSH2 0x4181 JUMPI POP POP DUP2 PUSH1 0x1 SHL SWAP2 PUSH0 NOT SWAP1 PUSH1 0x3 SHL SHR NOT AND OR SWAP1 JUMP JUMPDEST DUP5 SSTORE JUMPDEST PUSH1 0x20 DUP2 ADD MLOAD PUSH1 0x1 DUP6 ADD SSTORE ADD MLOAD SWAP2 ADD SSTORE JUMP JUMPDEST ADD MLOAD SWAP1 POP PUSH0 DUP1 PUSH2 0x3209 JUMP JUMPDEST SWAP2 SWAP1 PUSH1 0x1F NOT DUP5 AND DUP7 PUSH0 MSTORE DUP3 PUSH0 KECCAK256 SWAP4 PUSH0 SWAP1 JUMPDEST DUP3 DUP3 LT PUSH2 0x41DE JUMPI POP POP SWAP3 PUSH1 0x1 SWAP3 DUP6 SWAP3 PUSH1 0x40 SWAP7 PUSH1 0x2 SWAP9 SWAP7 LT PUSH2 0x41C6 JUMPI JUMPDEST POP POP POP DUP2 SHL ADD DUP5 SSTORE PUSH2 0x4170 JUMP JUMPDEST ADD MLOAD PUSH0 NOT PUSH1 0xF8 DUP5 PUSH1 0x3 SHL AND SHR NOT AND SWAP1 SSTORE PUSH0 DUP1 DUP1 PUSH2 0x41B9 JUMP JUMPDEST SWAP1 SWAP4 SWAP5 PUSH1 0x20 DUP3 DUP2 SWAP3 DUP9 DUP8 ADD MLOAD DUP2 SSTORE ADD SWAP7 ADD SWAP5 ADD SWAP1 PUSH2 0x419D JUMP JUMPDEST PUSH4 0x4E487B71 PUSH1 0xE0 SHL PUSH0 MSTORE PUSH0 PUSH1 0x4 MSTORE PUSH1 0x24 PUSH0 REVERT JUMPDEST SWAP2 SWAP1 DUP3 SUB SWAP2 DUP3 GT PUSH2 0x3EED JUMPI JUMP JUMPDEST SWAP1 PUSH1 0x3 DUP2 LT ISZERO PUSH2 0x3BCD JUMPI PUSH1 0x5 SHL ADD SWAP1 JUMP JUMPDEST SWAP1 PUSH8 0xDE0B6B3A7640000 SWAP2 DUP3 DUP2 MUL SWAP3 DUP2 DUP5 DIV EQ SWAP1 ISZERO OR ISZERO PUSH2 0x3EED JUMPI JUMP JUMPDEST DUP2 DUP2 MUL SWAP3 SWAP2 DUP2 ISZERO SWAP2 DUP5 DIV EQ OR ISZERO PUSH2 0x3EED JUMPI JUMP JUMPDEST PUSH1 0x29 SLOAD PUSH0 NOT DUP2 ADD SWAP1 DUP2 GT PUSH2 0x3EED JUMPI SWAP1 JUMP JUMPDEST PUSH1 0x1 PUSH1 0x1 PUSH1 0xA0 SHL SUB DUP3 DUP2 AND SWAP4 SWAP2 DUP5 ISZERO PUSH2 0x44B3 JUMPI DUP3 PUSH0 MSTORE PUSH1 0x20 PUSH1 0x2 DUP2 MSTORE PUSH1 0x40 SWAP6 DUP4 DUP8 PUSH0 KECCAK256 SLOAD AND SWAP6 CALLER ISZERO ISZERO DUP1 PUSH2 0x4425 JUMPI JUMPDEST POP DUP7 ISZERO DUP1 ISZERO PUSH2 0x43F4 JUMPI JUMPDEST DUP3 PUSH0 MSTORE PUSH1 0x3 DUP5 MSTORE DUP9 PUSH0 KECCAK256 PUSH1 0x1 DUP2 SLOAD ADD SWAP1 SSTORE DUP7 PUSH0 MSTORE PUSH1 0x2 DUP5 MSTORE DUP9 PUSH0 KECCAK256 DUP4 PUSH1 0x1 PUSH1 0x1 PUSH1 0x60 SHL SUB PUSH1 0xA0 SHL DUP3 SLOAD AND OR SWAP1 SSTORE DUP7 DUP4 DUP10 PUSH32 0xDDF252AD1BE2C89B69C2B068FC378DAA952BA7F163C4A11628F55A4DF523B3EF PUSH0 DUP1 LOG4 ISZERO PUSH2 0x4388 JUMPI PUSH1 0x8 SLOAD DUP7 PUSH0 MSTORE PUSH1 0x9 DUP5 MSTORE DUP9 PUSH0 KECCAK256 SSTORE PUSH2 0x4312 DUP7 PUSH2 0x4E6E JUMP JUMPDEST DUP2 DUP8 SUB PUSH2 0x434D JUMPI JUMPDEST POP POP POP AND SWAP3 DUP4 DUP4 SUB PUSH2 0x432C JUMPI POP POP POP POP JUMP JUMPDEST PUSH1 0x64 SWAP5 POP MLOAD SWAP3 PUSH4 0x64283D7B PUSH1 0xE0 SHL DUP5 MSTORE PUSH1 0x4 DUP5 ADD MSTORE PUSH1 0x24 DUP4 ADD MSTORE PUSH1 0x44 DUP3 ADD MSTORE REVERT JUMPDEST PUSH2 0x4356 SWAP1 PUSH2 0x4868 JUMP JUMPDEST PUSH0 NOT DUP2 ADD SWAP3 SWAP1 DUP4 GT PUSH2 0x3EED JUMPI PUSH1 0x7 SWAP2 PUSH0 MSTORE PUSH1 0x6 DUP2 MSTORE DUP8 PUSH0 KECCAK256 DUP4 PUSH0 MSTORE DUP2 MSTORE DUP6 DUP9 PUSH0 KECCAK256 SSTORE DUP6 PUSH0 MSTORE MSTORE DUP6 PUSH0 KECCAK256 SSTORE PUSH0 DUP1 DUP1 PUSH2 0x431A JUMP JUMPDEST DUP7 DUP3 EQ PUSH2 0x4312 JUMPI PUSH2 0x4398 DUP8 PUSH2 0x4868 JUMP JUMPDEST DUP7 PUSH0 MSTORE PUSH1 0x7 DUP5 MSTORE DUP9 PUSH0 KECCAK256 SLOAD SWAP1 DUP9 PUSH0 MSTORE PUSH1 0x6 DUP6 MSTORE DUP10 PUSH0 KECCAK256 SWAP2 DUP2 DUP2 SUB PUSH2 0x43D2 JUMPI JUMPDEST POP DUP8 PUSH0 MSTORE PUSH1 0x7 DUP6 MSTORE PUSH0 DUP11 DUP2 KECCAK256 SSTORE PUSH0 MSTORE DUP4 MSTORE PUSH0 DUP9 DUP2 KECCAK256 SSTORE PUSH2 0x4312 JUMP JUMPDEST DUP2 PUSH0 MSTORE DUP3 DUP7 MSTORE DUP11 PUSH0 KECCAK256 SLOAD DUP2 PUSH0 MSTORE DUP1 DUP13 PUSH0 KECCAK256 SSTORE PUSH0 MSTORE PUSH1 0x7 DUP7 MSTORE DUP11 PUSH0 KECCAK256 SSTORE PUSH0 PUSH2 0x43B7 JUMP JUMPDEST PUSH0 DUP8 DUP2 MSTORE PUSH1 0x4 PUSH1 0x20 MSTORE PUSH1 0x40 DUP2 KECCAK256 DUP1 SLOAD PUSH1 0x1 PUSH1 0x1 PUSH1 0xA0 SHL SUB NOT AND SWAP1 SSTORE DUP9 DUP2 MSTORE PUSH1 0x3 DUP6 MSTORE DUP10 SWAP1 KECCAK256 DUP1 SLOAD PUSH0 NOT ADD SWAP1 SSTORE PUSH2 0x42A2 JUMP JUMPDEST DUP1 PUSH2 0x4472 JUMPI JUMPDEST ISZERO PUSH2 0x4436 JUMPI PUSH0 PUSH2 0x4298 JUMP JUMPDEST DUP8 DUP7 DUP9 PUSH2 0x4453 JUMPI PUSH1 0x24 SWAP2 MLOAD SWAP1 PUSH4 0x7E273289 PUSH1 0xE0 SHL DUP3 MSTORE PUSH1 0x4 DUP3 ADD MSTORE REVERT JUMPDEST SWAP1 MLOAD PUSH4 0x177E802F PUSH1 0xE0 SHL DUP2 MSTORE CALLER PUSH1 0x4 DUP3 ADD MSTORE PUSH1 0x24 DUP2 ADD SWAP2 SWAP1 SWAP2 MSTORE PUSH1 0x44 SWAP1 REVERT JUMPDEST POP CALLER DUP8 EQ DUP1 ISZERO PUSH2 0x4497 JUMPI JUMPDEST DUP1 PUSH2 0x442B JUMPI POP DUP6 PUSH0 MSTORE PUSH1 0x4 DUP4 MSTORE CALLER DUP6 DUP10 PUSH0 KECCAK256 SLOAD AND EQ PUSH2 0x442B JUMP JUMPDEST POP DUP7 PUSH0 MSTORE PUSH1 0x5 DUP4 MSTORE DUP8 PUSH0 KECCAK256 CALLER PUSH0 MSTORE DUP4 MSTORE PUSH1 0xFF DUP9 PUSH0 KECCAK256 SLOAD AND PUSH2 0x447D JUMP JUMPDEST PUSH1 0x40 MLOAD PUSH4 0x32505749 PUSH1 0xE1 SHL DUP2 MSTORE PUSH0 PUSH1 0x4 DUP3 ADD MSTORE PUSH1 0x24 SWAP1 REVERT JUMPDEST ISZERO PUSH2 0x44D2 JUMPI JUMP JUMPDEST PUSH1 0x40 MLOAD PUSH3 0x461BCD PUSH1 0xE5 SHL DUP2 MSTORE PUSH1 0x20 PUSH1 0x4 DUP3 ADD MSTORE PUSH1 0x19 PUSH1 0x24 DUP3 ADD MSTORE PUSH32 0x476F7665726E616E6365206E6F74206163746976652079657400000000000000 PUSH1 0x44 DUP3 ADD MSTORE PUSH1 0x64 SWAP1 REVERT JUMPDEST ISZERO PUSH2 0x451E JUMPI JUMP JUMPDEST PUSH1 0x40 MLOAD PUSH3 0x461BCD PUSH1 0xE5 SHL DUP2 MSTORE PUSH1 0x20 PUSH1 0x4 DUP3 ADD MSTORE PUSH1 0x12 PUSH1 0x24 DUP3 ADD MSTORE PUSH18 0x26BAB9BA1037BBB710309029B830BA3A32B9 PUSH1 0x71 SHL PUSH1 0x44 DUP3 ADD MSTORE PUSH1 0x64 SWAP1 REVERT JUMPDEST DUP1 ISZERO PUSH2 0x4572 JUMPI PUSH15 0xC097CE7BC90715B34B9F1000000000 DIV SWAP1 JUMP JUMPDEST PUSH4 0x4E487B71 PUSH1 0xE0 SHL PUSH0 MSTORE PUSH1 0x12 PUSH1 0x4 MSTORE PUSH1 0x24 PUSH0 REVERT JUMPDEST DUP2 ISZERO PUSH2 0x4572 JUMPI DIV SWAP1 JUMP JUMPDEST PUSH2 0x4599 DUP2 PUSH2 0x4868 JUMP JUMPDEST DUP3 LT ISZERO PUSH2 0x45C1 JUMPI PUSH1 0x1 DUP1 PUSH1 0xA0 SHL SUB AND PUSH0 MSTORE PUSH1 0x6 PUSH1 0x20 MSTORE PUSH1 0x40 PUSH0 KECCAK256 SWAP1 PUSH0 MSTORE PUSH1 0x20 MSTORE PUSH1 0x40 PUSH0 KECCAK256 SLOAD SWAP1 JUMP JUMPDEST PUSH1 0x40 MLOAD PUSH4 0x295F44F7 PUSH1 0xE2 SHL DUP2 MSTORE PUSH1 0x1 PUSH1 0x1 PUSH1 0xA0 SHL SUB SWAP2 SWAP1 SWAP2 AND PUSH1 0x4 DUP3 ADD MSTORE PUSH1 0x24 DUP2 ADD SWAP2 SWAP1 SWAP2 MSTORE PUSH1 0x44 SWAP1 REVERT JUMPDEST RETURNDATASIZE ISZERO PUSH2 0x4616 JUMPI RETURNDATASIZE SWAP1 PUSH2 0x45FD DUP3 PUSH2 0x3AEE JUMP JUMPDEST SWAP2 PUSH2 0x460B PUSH1 0x40 MLOAD SWAP4 DUP5 PUSH2 0x3ACD JUMP JUMPDEST DUP3 MSTORE RETURNDATASIZE PUSH0 PUSH1 0x20 DUP5 ADD RETURNDATACOPY JUMP JUMPDEST PUSH1 0x60 SWAP1 JUMP JUMPDEST PUSH1 0x1 PUSH1 0x1 PUSH1 0x40 SHL SUB DUP2 GT PUSH2 0x3A68 JUMPI PUSH1 0x5 SHL PUSH1 0x20 ADD SWAP1 JUMP JUMPDEST ISZERO PUSH2 0x4639 JUMPI JUMP JUMPDEST PUSH1 0x40 MLOAD PUSH3 0x461BCD PUSH1 0xE5 SHL DUP2 MSTORE PUSH1 0x20 PUSH1 0x4 DUP3 ADD MSTORE PUSH1 0x13 PUSH1 0x24 DUP3 ADD MSTORE PUSH19 0x496E76616C696420736565642063686F696365 PUSH1 0x68 SHL PUSH1 0x44 DUP3 ADD MSTORE PUSH1 0x64 SWAP1 REVERT JUMPDEST ISZERO PUSH2 0x467B JUMPI JUMP JUMPDEST PUSH1 0x40 MLOAD PUSH3 0x461BCD PUSH1 0xE5 SHL DUP2 MSTORE PUSH1 0x20 PUSH1 0x4 DUP3 ADD MSTORE PUSH1 0x18 PUSH1 0x24 DUP3 ADD MSTORE PUSH32 0x4E6F7420796F75722070656E64696E6720726571756573740000000000000000 PUSH1 0x44 DUP3 ADD MSTORE PUSH1 0x64 SWAP1 REVERT JUMPDEST ISZERO PUSH2 0x46C7 JUMPI JUMP JUMPDEST PUSH1 0x40 MLOAD PUSH3 0x461BCD PUSH1 0xE5 SHL DUP2 MSTORE PUSH1 0x20 PUSH1 0x4 DUP3 ADD MSTORE PUSH1 0x12 PUSH1 0x24 DUP3 ADD MSTORE PUSH18 0x139BC81C195B991A5B99C81C995C5D595CDD PUSH1 0x72 SHL PUSH1 0x44 DUP3 ADD MSTORE PUSH1 0x64 SWAP1 REVERT JUMPDEST ISZERO PUSH2 0x4708 JUMPI JUMP JUMPDEST PUSH1 0x40 MLOAD PUSH3 0x461BCD PUSH1 0xE5 SHL DUP2 MSTORE PUSH1 0x20 PUSH1 0x4 DUP3 ADD MSTORE PUSH1 0x19 PUSH1 0x24 DUP3 ADD MSTORE PUSH32 0x5265717565737420616C726561647920636F6D706C6574656400000000000000 PUSH1 0x44 DUP3 ADD MSTORE PUSH1 0x64 SWAP1 REVERT JUMPDEST ISZERO PUSH2 0x4754 JUMPI JUMP JUMPDEST PUSH1 0x40 MLOAD PUSH3 0x461BCD PUSH1 0xE5 SHL DUP2 MSTORE PUSH1 0x20 PUSH1 0x4 DUP3 ADD MSTORE PUSH1 0xF PUSH1 0x24 DUP3 ADD MSTORE PUSH15 0x14995C5D595CDD08195E1C1A5C9959 PUSH1 0x8A SHL PUSH1 0x44 DUP3 ADD MSTORE PUSH1 0x64 SWAP1 REVERT JUMPDEST SWAP1 DUP1 DUP3 EQ PUSH2 0x4864 JUMPI PUSH2 0x479D DUP2 SLOAD PUSH2 0x3BE1 JUMP JUMPDEST SWAP1 PUSH1 0x1 PUSH1 0x1 PUSH1 0x40 SHL SUB DUP3 GT PUSH2 0x3A68 JUMPI PUSH2 0x47BA DUP3 PUSH2 0x31E9 DUP6 SLOAD PUSH2 0x3BE1 JUMP JUMPDEST PUSH0 SWAP1 PUSH1 0x1F DUP4 GT PUSH1 0x1 EQ PUSH2 0x47F6 JUMPI PUSH2 0x47E7 SWAP3 SWAP2 PUSH0 SWAP2 DUP4 PUSH2 0x47EB JUMPI POP POP DUP2 PUSH1 0x1 SHL SWAP2 PUSH0 NOT SWAP1 PUSH1 0x3 SHL SHR NOT AND OR SWAP1 JUMP JUMPDEST SWAP1 SSTORE JUMP JUMPDEST ADD SLOAD SWAP1 POP PUSH0 DUP1 PUSH2 0x3209 JUMP JUMPDEST SWAP1 PUSH1 0x1F NOT DUP4 AND SWAP2 PUSH0 MSTORE PUSH1 0x20 SWAP2 PUSH1 0x20 PUSH0 KECCAK256 SWAP1 DUP6 PUSH0 MSTORE PUSH1 0x20 PUSH0 KECCAK256 SWAP4 PUSH0 SWAP1 JUMPDEST DUP3 DUP3 LT PUSH2 0x484B JUMPI POP POP SWAP1 DUP5 PUSH1 0x1 SWAP6 SWAP5 SWAP4 SWAP3 LT PUSH2 0x4833 JUMPI JUMPDEST POP POP POP DUP2 SHL ADD SWAP1 SSTORE JUMP JUMPDEST ADD SLOAD PUSH0 NOT PUSH1 0xF8 DUP5 PUSH1 0x3 SHL AND SHR NOT AND SWAP1 SSTORE PUSH0 DUP1 DUP1 PUSH2 0x4829 JUMP JUMPDEST DUP5 SWAP6 DUP2 SWAP3 SWAP6 DUP6 ADD SLOAD DUP2 SSTORE PUSH1 0x1 DUP1 SWAP2 ADD SWAP7 ADD SWAP5 ADD SWAP1 PUSH2 0x4812 JUMP JUMPDEST POP POP JUMP JUMPDEST PUSH1 0x1 PUSH1 0x1 PUSH1 0xA0 SHL SUB AND DUP1 ISZERO PUSH2 0x4886 JUMPI PUSH0 MSTORE PUSH1 0x3 PUSH1 0x20 MSTORE PUSH1 0x40 PUSH0 KECCAK256 SLOAD SWAP1 JUMP JUMPDEST PUSH1 0x40 MLOAD PUSH4 0x22718AD9 PUSH1 0xE2 SHL DUP2 MSTORE PUSH0 PUSH1 0x4 DUP3 ADD MSTORE PUSH1 0x24 SWAP1 REVERT JUMPDEST PUSH0 DUP2 DUP2 MSTORE PUSH1 0x2 PUSH1 0x20 MSTORE PUSH1 0x40 SWAP1 KECCAK256 SLOAD PUSH2 0x48C0 SWAP1 PUSH1 0x1 PUSH1 0x1 PUSH1 0xA0 SHL SUB AND ISZERO ISZERO PUSH2 0x4061 JUMP JUMPDEST DUP1 PUSH0 MSTORE PUSH1 0x1B PUSH1 0x20 MSTORE PUSH1 0x20 PUSH1 0x40 PUSH0 KECCAK256 PUSH1 0x1 PUSH1 0x40 MLOAD SWAP2 PUSH2 0x48DD DUP4 PUSH2 0x3A4D JUMP JUMPDEST DUP1 SLOAD DUP4 MSTORE ADD SLOAD SWAP2 DUP3 SWAP2 ADD MSTORE PUSH3 0x15180 DUP1 TIMESTAMP DIV SWAP2 DIV DUP2 EQ PUSH2 0x4919 JUMPI DUP2 PUSH0 MSTORE PUSH1 0x2F PUSH1 0x20 MSTORE PUSH1 0x40 PUSH0 KECCAK256 SLOAD EQ PUSH2 0x4914 JUMPI PUSH2 0x3B5A SWAP1 TIMESTAMP SWAP1 PUSH2 0x4ED9 JUMP JUMPDEST POP PUSH0 SWAP1 JUMP JUMPDEST POP POP PUSH0 SWAP1 JUMP JUMPDEST PUSH1 0x2B SLOAD PUSH1 0x1 PUSH1 0x1 PUSH1 0xA0 SHL SUB AND DUP1 ISZERO ISZERO DUP1 PUSH2 0x4959 JUMPI JUMPDEST PUSH2 0x4941 JUMPI POP PUSH0 SWAP1 PUSH0 SWAP1 PUSH0 SWAP1 JUMP JUMPDEST SWAP1 PUSH1 0x2C SLOAD SWAP1 PUSH2 0xCE4 DUP3 ADD DUP1 SWAP3 GT PUSH2 0x3EED JUMPI PUSH1 0x1 SWAP3 SWAP2 SWAP1 JUMP JUMPDEST POP PUSH1 0x2C SLOAD PUSH2 0xCE4 DUP2 ADD DUP1 SWAP2 GT PUSH2 0x3EED JUMPI TIMESTAMP GT ISZERO PUSH2 0x4934 JUMP JUMPDEST PUSH1 0xA SLOAD PUSH1 0x1 PUSH1 0x1 PUSH1 0xA0 SHL SUB AND CALLER SUB PUSH2 0x4985 JUMPI JUMP JUMPDEST PUSH1 0x40 MLOAD PUSH4 0x118CDAA7 PUSH1 0xE0 SHL DUP2 MSTORE CALLER PUSH1 0x4 DUP3 ADD MSTORE PUSH1 0x24 SWAP1 REVERT JUMPDEST PUSH0 DUP1 MLOAD PUSH1 0x20 PUSH2 0x550C DUP4 CODECOPY DUP2 MLOAD SWAP2 MSTORE DUP1 TLOAD PUSH2 0x49B7 JUMPI PUSH1 0x1 SWAP1 TSTORE JUMP JUMPDEST PUSH1 0x40 MLOAD PUSH4 0x3EE5AEB5 PUSH1 0xE0 SHL DUP2 MSTORE PUSH1 0x4 SWAP1 REVERT JUMPDEST DUP1 MLOAD SWAP1 PUSH1 0x7 SWAP2 PUSH1 0x7 DUP2 SUB PUSH2 0x4AB3 JUMPI ISZERO PUSH2 0x3BCD JUMPI PUSH1 0x20 DUP2 DUP2 ADD MLOAD PUSH1 0x1 PUSH1 0x1 PUSH1 0xF8 SHL SUB NOT SWAP3 SWAP1 DUP4 AND PUSH1 0xDD PUSH1 0xF8 SHL ADD PUSH2 0x4AAB JUMPI PUSH1 0x1 JUMPDEST DUP5 DUP2 LT PUSH2 0x4A0D JUMPI POP POP POP POP POP PUSH1 0x1 SWAP1 JUMP JUMPDEST DUP2 MLOAD DUP2 LT ISZERO PUSH2 0x3BCD JUMPI DUP4 DUP4 DUP3 DUP5 ADD ADD MLOAD AND PUSH1 0x3 PUSH1 0xFC SHL DUP2 LT ISZERO SWAP1 DUP2 PUSH2 0x4A9C JUMPI JUMPDEST DUP2 ISZERO PUSH2 0x4A78 JUMPI JUMPDEST DUP2 ISZERO PUSH2 0x4A52 JUMPI JUMPDEST POP ISZERO PUSH2 0x4A49 JUMPI PUSH1 0x1 ADD PUSH2 0x49FC JUMP JUMPDEST POP POP POP POP POP PUSH0 SWAP1 JUMP JUMPDEST PUSH1 0x41 PUSH1 0xF8 SHL DUP2 LT ISZERO SWAP2 POP DUP2 PUSH2 0x4A69 JUMPI JUMPDEST POP PUSH0 PUSH2 0x4A3B JUMP JUMPDEST PUSH1 0x23 PUSH1 0xF9 SHL LT ISZERO SWAP1 POP PUSH0 PUSH2 0x4A62 JUMP JUMPDEST SWAP1 POP PUSH1 0x61 PUSH1 0xF8 SHL DUP2 LT ISZERO DUP1 PUSH2 0x4A8E JUMPI JUMPDEST SWAP1 PUSH2 0x4A34 JUMP JUMPDEST POP PUSH1 0x33 PUSH1 0xF9 SHL DUP2 GT ISZERO PUSH2 0x4A88 JUMP JUMPDEST PUSH1 0x39 PUSH1 0xF8 SHL DUP2 GT ISZERO SWAP2 POP PUSH2 0x4A2D JUMP JUMPDEST POP POP POP POP PUSH0 SWAP1 JUMP JUMPDEST POP POP POP PUSH0 SWAP1 JUMP JUMPDEST PUSH1 0x40 DUP1 MLOAD SWAP3 PUSH2 0x4AC8 DUP5 PUSH2 0x3AB2 JUMP JUMPDEST PUSH0 DUP5 MSTORE PUSH1 0x1 PUSH1 0x1 PUSH1 0xA0 SHL SUB SWAP4 DUP4 DUP6 AND SWAP4 DUP5 ISZERO PUSH2 0x4D65 JUMPI DUP3 PUSH0 MSTORE PUSH1 0x20 SWAP6 PUSH1 0x2 DUP8 MSTORE DUP5 PUSH0 KECCAK256 SLOAD AND DUP6 DUP2 ISZERO SWAP2 DUP3 ISZERO SWAP3 DUP4 PUSH2 0x4D34 JUMPI JUMPDEST DUP3 PUSH0 MSTORE PUSH1 0x3 DUP11 MSTORE DUP8 PUSH0 KECCAK256 PUSH1 0x1 DUP2 SLOAD ADD SWAP1 SSTORE DUP7 PUSH0 MSTORE PUSH1 0x2 DUP11 MSTORE DUP8 PUSH0 KECCAK256 DUP4 PUSH1 0x1 PUSH1 0x1 PUSH1 0x60 SHL SUB PUSH1 0xA0 SHL DUP3 SLOAD AND OR SWAP1 SSTORE DUP7 DUP4 DUP4 PUSH32 0xDDF252AD1BE2C89B69C2B068FC378DAA952BA7F163C4A11628F55A4DF523B3EF PUSH0 DUP1 LOG4 ISZERO PUSH2 0x4CC8 JUMPI PUSH1 0x8 SLOAD DUP7 PUSH0 MSTORE PUSH1 0x9 DUP11 MSTORE DUP8 PUSH0 KECCAK256 SSTORE PUSH2 0x4B6A DUP7 PUSH2 0x4E6E JUMP JUMPDEST SUB PUSH2 0x4C90 JUMPI JUMPDEST PUSH2 0x4C79 JUMPI EXTCODESIZE PUSH2 0x4B80 JUMPI POP POP POP POP POP JUMP JUMPDEST DUP5 PUSH2 0x4BBD SWAP2 DUP5 SWAP6 SWAP7 SWAP8 SWAP5 MLOAD DUP1 SWAP4 DUP2 SWAP3 PUSH4 0xA85BD01 PUSH1 0xE1 SHL SWAP7 DUP8 DUP5 MSTORE CALLER PUSH1 0x4 DUP6 ADD MSTORE PUSH0 PUSH1 0x24 DUP6 ADD MSTORE PUSH1 0x44 DUP5 ADD MSTORE PUSH1 0x80 PUSH1 0x64 DUP5 ADD MSTORE PUSH1 0x84 DUP4 ADD SWAP1 PUSH2 0x39FC JUMP JUMPDEST SUB DUP2 PUSH0 DUP10 GAS CALL PUSH0 SWAP2 DUP2 PUSH2 0x4C39 JUMPI JUMPDEST POP PUSH2 0x4C02 JUMPI POP POP POP PUSH2 0x4BDB PUSH2 0x45EC JUMP JUMPDEST DUP1 MLOAD SWAP4 SWAP1 DUP5 PUSH2 0x4BFC JUMPI DUP3 MLOAD PUSH4 0x32505749 PUSH1 0xE1 SHL DUP2 MSTORE PUSH1 0x4 DUP2 ADD DUP6 SWAP1 MSTORE PUSH1 0x24 SWAP1 REVERT JUMPDEST DUP5 SWAP3 POP ADD REVERT JUMPDEST SWAP2 SWAP5 POP PUSH1 0x1 PUSH1 0x1 PUSH1 0xE0 SHL SUB NOT SWAP1 SWAP2 AND SUB PUSH2 0x4C22 JUMPI POP POP PUSH0 DUP1 DUP1 DUP1 DUP1 PUSH2 0x3CE4 JUMP JUMPDEST PUSH1 0x24 SWAP3 POP MLOAD SWAP1 PUSH4 0x32505749 PUSH1 0xE1 SHL DUP3 MSTORE PUSH1 0x4 DUP3 ADD MSTORE REVERT JUMPDEST SWAP1 SWAP2 POP DUP7 DUP2 DUP2 RETURNDATASIZE DUP4 GT PUSH2 0x4C72 JUMPI JUMPDEST PUSH2 0x4C51 DUP2 DUP4 PUSH2 0x3ACD JUMP JUMPDEST DUP2 ADD SUB SLT PUSH2 0x3AA JUMPI MLOAD PUSH1 0x1 PUSH1 0x1 PUSH1 0xE0 SHL SUB NOT DUP2 AND DUP2 SUB PUSH2 0x3AA JUMPI SWAP1 PUSH0 PUSH2 0x4BCB JUMP JUMPDEST POP RETURNDATASIZE PUSH2 0x4C47 JUMP JUMPDEST DUP4 MLOAD PUSH4 0x39E35637 PUSH1 0xE1 SHL DUP2 MSTORE PUSH0 PUSH1 0x4 DUP3 ADD MSTORE PUSH1 0x24 SWAP1 REVERT JUMPDEST PUSH2 0x4C99 DUP3 PUSH2 0x4868 JUMP JUMPDEST PUSH0 NOT DUP2 ADD SWAP1 DUP2 GT PUSH2 0x3EED JUMPI DUP7 PUSH0 MSTORE PUSH1 0x6 DUP9 MSTORE DUP6 PUSH0 KECCAK256 DUP2 PUSH0 MSTORE DUP9 MSTORE DUP5 DUP7 PUSH0 KECCAK256 SSTORE DUP5 PUSH0 MSTORE PUSH1 0x7 DUP9 MSTORE DUP6 PUSH0 KECCAK256 SSTORE PUSH2 0x4B70 JUMP JUMPDEST DUP1 DUP3 EQ PUSH2 0x4B6A JUMPI PUSH2 0x4CD8 DUP2 PUSH2 0x4868 JUMP JUMPDEST DUP7 PUSH0 MSTORE PUSH1 0x7 DUP11 MSTORE DUP8 PUSH0 KECCAK256 SLOAD SWAP1 DUP3 PUSH0 MSTORE PUSH1 0x6 DUP12 MSTORE DUP9 PUSH0 KECCAK256 SWAP2 DUP2 DUP2 SUB PUSH2 0x4D12 JUMPI JUMPDEST POP DUP8 PUSH0 MSTORE PUSH1 0x7 DUP12 MSTORE PUSH0 DUP10 DUP2 KECCAK256 SSTORE PUSH0 MSTORE DUP10 MSTORE PUSH0 DUP8 DUP2 KECCAK256 SSTORE PUSH2 0x4B6A JUMP JUMPDEST DUP2 PUSH0 MSTORE DUP3 DUP13 MSTORE DUP10 PUSH0 KECCAK256 SLOAD DUP2 PUSH0 MSTORE DUP1 DUP12 PUSH0 KECCAK256 SSTORE PUSH0 MSTORE PUSH1 0x7 DUP13 MSTORE DUP10 PUSH0 KECCAK256 SSTORE PUSH0 PUSH2 0x4CF7 JUMP JUMPDEST PUSH0 DUP8 DUP2 MSTORE PUSH1 0x4 PUSH1 0x20 MSTORE PUSH1 0x40 DUP2 KECCAK256 DUP1 SLOAD PUSH1 0x1 PUSH1 0x1 PUSH1 0xA0 SHL SUB NOT AND SWAP1 SSTORE DUP3 DUP2 MSTORE PUSH1 0x3 DUP12 MSTORE DUP9 SWAP1 KECCAK256 DUP1 SLOAD PUSH0 NOT ADD SWAP1 SSTORE PUSH2 0x4AFA JUMP JUMPDEST DUP4 MLOAD PUSH4 0x32505749 PUSH1 0xE1 SHL DUP2 MSTORE PUSH0 PUSH1 0x4 DUP3 ADD MSTORE PUSH1 0x24 SWAP1 REVERT JUMPDEST PUSH0 DUP2 DUP2 MSTORE PUSH1 0x2 PUSH1 0x20 MSTORE PUSH1 0x40 SWAP1 KECCAK256 SLOAD PUSH1 0x1 PUSH1 0x1 PUSH1 0xA0 SHL SUB AND SWAP1 DUP2 ISZERO PUSH2 0x4D9E JUMPI POP SWAP1 JUMP JUMPDEST PUSH1 0x24 SWAP1 PUSH1 0x40 MLOAD SWAP1 PUSH4 0x7E273289 PUSH1 0xE0 SHL DUP3 MSTORE PUSH1 0x4 DUP3 ADD MSTORE REVERT JUMPDEST SWAP2 SWAP1 PUSH1 0xB4 PUSH2 0x4E09 SWAP2 PUSH1 0x40 MLOAD SWAP4 DUP5 SWAP2 PUSH1 0x20 DUP4 ADD SWAP7 DUP8 MSTORE CALLER PUSH1 0x60 SHL PUSH1 0x40 DUP5 ADD MSTORE PUSH1 0x54 DUP4 ADD MSTORE PUSH2 0x4DED DUP2 MLOAD DUP1 SWAP3 PUSH1 0x20 PUSH1 0x74 DUP7 ADD SWAP2 ADD PUSH2 0x39DB JUMP JUMPDEST DUP2 ADD TIMESTAMP PUSH1 0x74 DUP3 ADD MSTORE PREVRANDAO PUSH1 0x94 DUP3 ADD MSTORE SUB PUSH1 0x94 DUP2 ADD DUP5 MSTORE ADD DUP3 PUSH2 0x3ACD JUMP JUMPDEST MLOAD SWAP1 KECCAK256 SWAP1 JUMP JUMPDEST SWAP2 PUSH1 0x29 SLOAD PUSH1 0x40 MLOAD SWAP3 PUSH1 0x20 DUP5 ADD SWAP5 PUSH1 0x1 PUSH1 0x1 PUSH1 0x60 SHL SUB NOT SWAP1 PUSH1 0x60 SHL AND DUP6 MSTORE PUSH1 0x34 DUP5 ADD MSTORE PREVRANDAO PUSH1 0x54 DUP5 ADD MSTORE PUSH1 0x74 DUP4 ADD MSTORE PUSH1 0xFF PUSH1 0xF8 SHL SWAP1 PUSH1 0xF8 SHL AND PUSH1 0x94 DUP3 ADD MSTORE PUSH1 0x75 DUP2 MSTORE PUSH1 0xA0 DUP2 ADD DUP2 DUP2 LT PUSH1 0x1 PUSH1 0x1 PUSH1 0x40 SHL SUB DUP3 GT OR PUSH2 0x3A68 JUMPI PUSH1 0x40 MSTORE MLOAD SWAP1 KECCAK256 SWAP1 JUMP JUMPDEST PUSH1 0x8 SLOAD PUSH1 0x1 PUSH1 0x40 SHL DUP2 LT ISZERO PUSH2 0x3A68 JUMPI PUSH2 0x2DC9 DUP2 PUSH1 0x1 PUSH2 0x47E7 SWAP4 ADD PUSH1 0x8 SSTORE PUSH2 0x3E35 JUMP JUMPDEST PUSH2 0x4E99 DUP2 PUSH2 0x4868 JUMP JUMPDEST SWAP1 PUSH0 JUMPDEST DUP3 DUP2 LT PUSH2 0x4EAA JUMPI POP POP POP PUSH0 SWAP1 JUMP JUMPDEST PUSH2 0x4EB4 DUP2 DUP4 PUSH2 0x4590 JUMP JUMPDEST DUP1 PUSH0 MSTORE PUSH1 0x19 PUSH1 0x20 MSTORE PUSH1 0xFF PUSH1 0x40 PUSH0 KECCAK256 SLOAD AND ISZERO PUSH2 0x4ED2 JUMPI POP PUSH1 0x1 ADD PUSH2 0x4E9C JUMP JUMPDEST SWAP3 POP POP POP SWAP1 JUMP JUMPDEST PUSH0 MSTORE PUSH1 0x1B PUSH1 0x20 DUP2 DUP2 MSTORE PUSH1 0x40 SWAP3 DUP4 PUSH0 KECCAK256 SWAP4 DUP1 MLOAD SWAP4 PUSH2 0x4EF5 DUP6 PUSH2 0x3A4D JUMP JUMPDEST DUP6 SLOAD DUP6 MSTORE DUP4 PUSH1 0x1 DUP1 SWAP8 ADD SLOAD SWAP6 ADD SWAP5 DUP6 MSTORE PUSH1 0x29 SLOAD SWAP5 DUP7 DUP7 GT PUSH2 0x5013 JUMPI JUMPDEST PUSH2 0x4F1C SWAP1 MLOAD DUP5 PUSH2 0x51E6 JUMP JUMPDEST PUSH2 0x4FC0 JUMPI PUSH1 0x64 DUP6 GT PUSH2 0x4FEB JUMPI JUMPDEST PUSH2 0x1F4 DUP1 DUP7 GT PUSH2 0x4FC8 JUMPI JUMPDEST POP PUSH2 0x2EE DUP1 DUP7 GT PUSH2 0x4F8C JUMPI JUMPDEST POP PUSH2 0x3E7 DUP1 SWAP6 GT PUSH2 0x4F56 JUMPI JUMPDEST POP POP POP POP POP POP PUSH0 SWAP1 JUMP JUMPDEST PUSH2 0x4F7E SWAP5 PUSH0 MSTORE DUP4 MSTORE DUP5 DUP2 PUSH0 KECCAK256 SWAP2 MLOAD SWAP2 PUSH2 0x4F6E DUP4 PUSH2 0x3A4D JUMP JUMPDEST DUP1 SLOAD DUP4 MSTORE ADD SLOAD SWAP3 DUP4 SWAP2 ADD MSTORE PUSH2 0x51E6 JUMP JUMPDEST PUSH2 0x3B5A JUMPI DUP1 DUP1 DUP1 DUP1 DUP1 PUSH2 0x4F4C JUMP JUMPDEST PUSH0 MSTORE DUP1 DUP5 MSTORE PUSH2 0x4FB6 DUP5 DUP4 PUSH0 KECCAK256 DUP9 DUP6 MLOAD SWAP2 PUSH2 0x4FA5 DUP4 PUSH2 0x3A4D JUMP JUMPDEST DUP1 SLOAD DUP4 MSTORE ADD SLOAD SWAP2 DUP3 SWAP2 ADD MSTORE DUP5 PUSH2 0x51E6 JUMP JUMPDEST PUSH2 0x4FC0 JUMPI PUSH0 PUSH2 0x4F40 JUMP JUMPDEST POP POP POP POP POP SWAP1 JUMP JUMPDEST PUSH0 MSTORE DUP1 DUP5 MSTORE PUSH2 0x4FE1 DUP5 DUP4 PUSH0 KECCAK256 DUP9 DUP6 MLOAD SWAP2 PUSH2 0x4FA5 DUP4 PUSH2 0x3A4D JUMP JUMPDEST PUSH2 0x4FC0 JUMPI PUSH0 PUSH2 0x4F34 JUMP JUMPDEST PUSH1 0x64 PUSH0 MSTORE DUP1 DUP5 MSTORE PUSH2 0x5006 DUP5 DUP4 PUSH0 KECCAK256 DUP9 DUP6 MLOAD SWAP2 PUSH2 0x4FA5 DUP4 PUSH2 0x3A4D JUMP JUMPDEST ISZERO PUSH2 0x4F29 JUMPI POP POP POP POP POP SWAP1 JUMP JUMPDEST DUP7 PUSH0 MSTORE DUP2 DUP6 MSTORE PUSH2 0x503E DUP6 DUP5 PUSH0 KECCAK256 DUP10 DUP7 MLOAD SWAP2 PUSH2 0x502D DUP4 PUSH2 0x3A4D JUMP JUMPDEST DUP1 SLOAD DUP4 MSTORE ADD SLOAD SWAP2 DUP3 SWAP2 ADD MSTORE DUP6 PUSH2 0x51E6 JUMP JUMPDEST ISZERO PUSH2 0x4F11 JUMPI POP POP POP POP POP POP SWAP1 JUMP JUMPDEST PUSH1 0x1E DUP2 GT ISZERO PUSH2 0x4914 JUMPI PUSH1 0x18 NOT DUP2 ADD SWAP1 DUP2 GT PUSH2 0x3EED JUMPI DUP1 ISZERO PUSH2 0x50C1 JUMPI PUSH2 0x3CE DUP1 DUP3 LT ISZERO PUSH2 0x50B2 JUMPI PUSH8 0x867D5927A64F8000 DUP1 DUP4 MUL SWAP3 DUP4 SDIV SUB PUSH2 0x3EED JUMPI PUSH2 0x5090 SWAP2 SDIV PUSH2 0x522D JUMP JUMPDEST PUSH7 0x15F4AD60B64000 SWAP1 DUP1 DUP3 MUL SWAP2 DUP3 DIV SUB PUSH2 0x3EED JUMPI PUSH8 0xDE0B6B3A7640000 SWAP1 DIV SWAP1 JUMP JUMPDEST POP POP PUSH9 0x56BC75E2D63100000 SWAP1 JUMP JUMPDEST POP PUSH7 0x15F4AD60B64000 SWAP1 JUMP JUMPDEST SWAP3 SWAP2 DUP1 EXTCODESIZE PUSH2 0x50DC JUMPI POP POP POP POP POP JUMP JUMPDEST PUSH1 0x40 MLOAD PUSH4 0xA85BD01 PUSH1 0xE1 SHL DUP1 DUP3 MSTORE PUSH1 0x1 PUSH1 0x1 PUSH1 0xA0 SHL SUB SWAP6 DUP7 AND PUSH1 0x4 DUP4 ADD MSTORE SWAP3 DUP6 AND PUSH1 0x24 DUP3 ADD MSTORE PUSH1 0x44 DUP2 ADD SWAP4 SWAP1 SWAP4 MSTORE PUSH1 0x80 PUSH1 0x64 DUP5 ADD MSTORE SWAP1 SWAP3 AND SWAP3 PUSH1 0x20 SWAP1 DUP3 SWAP1 DUP2 SWAP1 PUSH2 0x512A SWAP1 PUSH1 0x84 DUP4 ADD SWAP1 PUSH2 0x39FC JUMP JUMPDEST SUB DUP2 PUSH0 DUP8 GAS CALL PUSH0 SWAP2 DUP2 PUSH2 0x51A1 JUMPI JUMPDEST POP PUSH2 0x516F JUMPI DUP3 PUSH2 0x5146 PUSH2 0x45EC JUMP JUMPDEST DUP1 MLOAD SWAP2 SWAP1 DUP3 PUSH2 0x5168 JUMPI PUSH1 0x40 MLOAD PUSH4 0x32505749 PUSH1 0xE1 SHL DUP2 MSTORE PUSH1 0x4 DUP2 ADD DUP4 SWAP1 MSTORE PUSH1 0x24 SWAP1 REVERT JUMPDEST PUSH1 0x20 SWAP2 POP ADD REVERT JUMPDEST PUSH1 0x1 PUSH1 0x1 PUSH1 0xE0 SHL SUB NOT AND SUB PUSH2 0x5189 JUMPI POP PUSH0 DUP1 DUP1 DUP1 DUP1 PUSH2 0x3CE4 JUMP JUMPDEST PUSH1 0x24 SWAP1 PUSH1 0x40 MLOAD SWAP1 PUSH4 0x32505749 PUSH1 0xE1 SHL DUP3 MSTORE PUSH1 0x4 DUP3 ADD MSTORE REVERT JUMPDEST SWAP1 SWAP2 POP PUSH1 0x20 DUP2 RETURNDATASIZE PUSH1 0x20 GT PUSH2 0x51DE JUMPI JUMPDEST DUP2 PUSH2 0x51BD PUSH1 0x20 SWAP4 DUP4 PUSH2 0x3ACD JUMP JUMPDEST DUP2 ADD SUB SLT PUSH2 0x3AA JUMPI MLOAD PUSH1 0x1 PUSH1 0x1 PUSH1 0xE0 SHL SUB NOT DUP2 AND DUP2 SUB PUSH2 0x3AA JUMPI SWAP1 PUSH0 PUSH2 0x5138 JUMP JUMPDEST RETURNDATASIZE SWAP2 POP PUSH2 0x51B0 JUMP JUMPDEST PUSH2 0x51F2 PUSH2 0x51F8 SWAP2 PUSH2 0x52F9 JUMP JUMPDEST SWAP2 PUSH2 0x52F9 JUMP JUMPDEST PUSH1 0x20 DUP3 ADD MLOAD PUSH1 0x20 DUP3 ADD MLOAD EQ SWAP2 DUP3 PUSH2 0x520E JUMPI POP POP SWAP1 JUMP JUMPDEST PUSH1 0x40 SWAP2 SWAP3 POP DUP2 ADD MLOAD SWAP2 ADD MLOAD EQ SWAP1 JUMP JUMPDEST PUSH1 0x1 PUSH1 0xFF SHL DUP2 EQ PUSH2 0x3EED JUMPI PUSH0 SUB SWAP1 JUMP JUMPDEST PUSH9 0x755BF798B4A1BF1E5 DUP2 SLT ISZERO PUSH2 0x52C5 JUMPI PUSH0 DUP2 SLT PUSH2 0x52AB JUMPI PUSH8 0xDE0B6B3A7640000 SWAP1 PUSH1 0x1 SWAP1 DUP3 JUMPDEST PUSH1 0x14 DUP4 GT ISZERO PUSH2 0x5264 JUMPI JUMPDEST POP POP POP SWAP1 JUMP JUMPDEST PUSH2 0x5283 PUSH2 0x5274 DUP4 PUSH2 0x528A SWAP4 PUSH2 0x4245 JUMP JUMPDEST PUSH2 0x527D DUP6 PUSH2 0x4228 JUMP JUMPDEST SWAP1 PUSH2 0x4586 JUMP JUMPDEST DUP1 SWAP5 PUSH2 0x3EE0 JUMP JUMPDEST SWAP2 PUSH1 0x64 DUP5 LT PUSH2 0x52A3 JUMPI PUSH2 0x529C SWAP1 PUSH2 0x4003 JUMP JUMPDEST SWAP2 SWAP3 PUSH2 0x5254 JUMP JUMPDEST DUP3 SWAP4 POP PUSH2 0x525E JUMP JUMPDEST PUSH2 0x52B7 PUSH2 0x52BC SWAP2 PUSH2 0x521D JUMP JUMPDEST PUSH2 0x522D JUMP JUMPDEST PUSH2 0x3B5A SWAP1 PUSH2 0x4558 JUMP JUMPDEST PUSH1 0x40 MLOAD PUSH3 0x461BCD PUSH1 0xE5 SHL DUP2 MSTORE PUSH1 0x20 PUSH1 0x4 DUP3 ADD MSTORE PUSH1 0xC PUSH1 0x24 DUP3 ADD MSTORE PUSH12 0x657870206F766572666C6F77 PUSH1 0xA0 SHL PUSH1 0x44 DUP3 ADD MSTORE PUSH1 0x64 SWAP1 REVERT JUMPDEST PUSH3 0x15180 SWAP1 PUSH0 PUSH1 0x40 DUP1 MLOAD PUSH2 0x530C DUP2 PUSH2 0x3A7C JUMP JUMPDEST DUP3 DUP2 MSTORE DUP3 PUSH1 0x20 DUP3 ADD MSTORE ADD MSTORE DIV PUSH2 0x7B2 SWAP1 JUMPDEST PUSH2 0x5326 DUP3 PUSH2 0x53C8 JUMP JUMPDEST ISZERO PUSH2 0x53BD JUMPI PUSH2 0xFFFF PUSH2 0x16E JUMPDEST AND DUP1 DUP3 LT PUSH2 0x5353 JUMPI PUSH2 0x5347 SWAP1 PUSH2 0x534D SWAP3 PUSH2 0x420A JUMP JUMPDEST SWAP2 PUSH2 0x4003 JUMP JUMPDEST SWAP1 PUSH2 0x531D JUMP JUMPDEST POP PUSH0 SWAP1 PUSH1 0x1 SWAP1 JUMPDEST PUSH1 0xC DUP3 GT ISZERO PUSH2 0x5381 JUMPI JUMPDEST POP PUSH1 0x40 MLOAD SWAP3 PUSH2 0x5372 DUP5 PUSH2 0x3A7C JUMP JUMPDEST DUP4 MSTORE PUSH1 0x20 DUP4 ADD MSTORE PUSH1 0x40 DUP3 ADD MSTORE SWAP1 JUMP JUMPDEST PUSH2 0x538B DUP5 DUP4 PUSH2 0x53F0 JUMP JUMPDEST SWAP1 DUP2 DUP2 LT PUSH2 0x53A6 JUMPI PUSH2 0x53A0 SWAP2 PUSH2 0x5347 SWAP2 PUSH2 0x420A JUMP JUMPDEST SWAP1 PUSH2 0x535A JUMP JUMPDEST DUP1 SWAP3 SWAP4 POP PUSH1 0x1 SWAP2 POP ADD DUP1 SWAP2 GT PUSH2 0x3EED JUMPI SWAP1 PUSH0 PUSH2 0x5364 JUMP JUMPDEST PUSH2 0xFFFF PUSH2 0x16D PUSH2 0x5332 JUMP JUMPDEST PUSH1 0x3 DUP2 AND PUSH2 0x4914 JUMPI PUSH1 0x64 DUP2 MOD PUSH2 0x53EA JUMPI PUSH2 0x190 SWAP1 MOD PUSH2 0x53E6 JUMPI PUSH1 0x1 SWAP1 JUMP JUMPDEST PUSH0 SWAP1 JUMP JUMPDEST POP PUSH1 0x1 SWAP1 JUMP JUMPDEST PUSH1 0x1 DUP2 EQ DUP1 ISZERO PUSH2 0x54C1 JUMPI JUMPDEST DUP1 ISZERO PUSH2 0x54B7 JUMPI JUMPDEST DUP1 ISZERO PUSH2 0x54AD JUMPI JUMPDEST DUP1 ISZERO PUSH2 0x54A3 JUMPI JUMPDEST DUP1 ISZERO PUSH2 0x5499 JUMPI JUMPDEST DUP1 ISZERO PUSH2 0x548F JUMPI JUMPDEST PUSH2 0x5488 JUMPI PUSH1 0x4 DUP2 EQ DUP1 ISZERO PUSH2 0x547E JUMPI JUMPDEST DUP1 ISZERO PUSH2 0x5474 JUMPI JUMPDEST DUP1 ISZERO PUSH2 0x546A JUMPI JUMPDEST PUSH2 0x5463 JUMPI PUSH1 0x2 EQ PUSH2 0x544B JUMPI POP PUSH0 SWAP1 JUMP JUMPDEST PUSH2 0x5454 SWAP1 PUSH2 0x53C8 JUMP JUMPDEST ISZERO PUSH2 0x545E JUMPI PUSH1 0x1D SWAP1 JUMP JUMPDEST PUSH1 0x1C SWAP1 JUMP JUMPDEST POP POP PUSH1 0x1E SWAP1 JUMP JUMPDEST POP PUSH1 0xB DUP2 EQ PUSH2 0x543B JUMP JUMPDEST POP PUSH1 0x9 DUP2 EQ PUSH2 0x5434 JUMP JUMPDEST POP PUSH1 0x6 DUP2 EQ PUSH2 0x542D JUMP JUMPDEST POP POP PUSH1 0x1F SWAP1 JUMP JUMPDEST POP PUSH1 0xC DUP2 EQ PUSH2 0x541E JUMP JUMPDEST POP PUSH1 0xA DUP2 EQ PUSH2 0x5417 JUMP JUMPDEST POP PUSH1 0x8 DUP2 EQ PUSH2 0x5410 JUMP JUMPDEST POP PUSH1 0x7 DUP2 EQ PUSH2 0x5409 JUMP JUMPDEST POP PUSH1 0x5 DUP2 EQ PUSH2 0x5402 JUMP JUMPDEST POP PUSH1 0x3 DUP2 EQ PUSH2 0x53FB JUMP INVALID 0xBB PUSH28 0x4A454DC3493923482F07822329ED19E8244EFF582CC204F8554C3620 0xC3 REVERT BALANCE 0xEC 0xC2 BYTE PUSH21 0x5E3968A04E9570E4425BC18FA8019C68028196B546 0xD1 PUSH7 0x9C200C689B779B OR TIMESTAMP 0x2D 0xD 0xF9 0x22 0x23 ADD DUP12 ORIGIN 0xB4 0xD1 STATICCALL CHAINID 0xE0 PUSH18 0x723D6817E2486D003BECC55F00A264697066 PUSH20 0x582212201FE27CBD495A31B8CB05F26A4835A9DC 0xDC PUSH5 0xA5A6E28463 CALLCODE LOG2 GAS 0xBC SWAP15 PUSH18 0xB25BAF64736F6C6343000818003300000000 "},"methodIdentifiers":{"CONFIRMATION_WINDOW()":"86e2d5df","GLOBAL_COOLDOWN()":"09aaa61e","GOVERNANCE_DELAY()":"b0b54895","MAX_SUPPLY()":"32cb6b0c","MILESTONE_100()":"d9759f9a","MILESTONE_500()":"ff9830bd","MILESTONE_750()":"0739ac06","MILESTONE_999()":"131f3a1e","OWNER_RESERVE()":"ede6fade","PROPOSAL_COOLDOWN()":"467f67f9","REQUEST_EXPIRATION()":"29777c35","ROYALTY_BPS()":"49c657db","VOTING_PERIOD()":"b1610d7e","activeMintRequestTime()":"fe660dc6","activeMintRequester()":"cdc3cc41","allowedMutations(uint256)":"c83d07e3","approve(address,uint256)":"095ea7b3","approveProposal()":"7e056b91","balanceOf(address)":"70a08231","bannedTokenIds(uint256)":"d40d9d8b","baseURI()":"6c0360eb","canMutate(uint256)":"85c639fe","completeMint(uint8)":"b6fd4622","completeOwnerMint(uint8)":"5fa951a7","confirmProposal()":"afe21c29","currentProposal()":"2b49d425","customPalettes(uint256,uint256)":"149e7b77","deploymentTime()":"ecda10f5","generatorContract()":"4e474dd9","generatorLocked()":"fc2deeed","getAllowedMutations()":"5ef46bc5","getApproved(uint256)":"081812fc","getBannedTokenCount()":"c06e887e","getCurrentPrice()":"eb91d37e","getCurrentProposal()":"41ec6870","getCustomPalette(uint256)":"6b04a1e2","getPendingRequest()":"90f4fe72","getTokenMutations(uint256)":"9a617d0c","hasTokenVoted(uint256)":"0d3fd161","isApprovedForAll(address,address)":"e985e9c5","isMintSelectionInProgress()":"e9b35361","isTokenBanned(uint256)":"71f951d8","lastGlobalMintTime()":"009c4c7e","lastMutationDay(uint256)":"161860d6","lastProposalTime()":"d088650a","lockGenerator()":"fa90eabf","mutate(uint256,string)":"ccad22de","name()":"06fdde03","owner()":"8da5cb5b","ownerMint(address,string[6],bytes32)":"07488ccd","ownerMutate(uint256,string)":"0ac6fc58","ownerOf(uint256)":"6352211e","pendingPalette(uint256)":"ba097686","pendingRequest()":"e2b0a15d","proposalGeneration()":"54f48419","proposeBaseURI(string)":"27189ca0","renounceOwnership()":"715018a6","requestMint()":"afb7bed9","requestOwnerMint(address,string[6])":"16308812","royaltyInfo(uint256,uint256)":"2a55205a","royaltyReceiver()":"9fbc8713","safeTransferFrom(address,address,uint256)":"42842e0e","safeTransferFrom(address,address,uint256,bytes)":"b88d4fde","setApprovalForAll(address,bool)":"a22cb465","setBaseURI(string)":"55f804b3","setGeneratorContract(address)":"fefafa08","setRoyaltyReceiver(address)":"8dc251e3","supportsInterface(bytes4)":"01ffc9a7","symbol()":"95d89b41","tokenBannedFromProposing(uint256)":"7af2a933","tokenByIndex(uint256)":"4f6ccce7","tokenMutations(uint256,uint256)":"70a6f230","tokenOfOwnerByIndex(address,uint256)":"2f745c59","tokenURI(uint256)":"c87b56dd","tokenVoteGeneration(uint256)":"a7fa70ce","tokens(uint256)":"4f64b2be","totalSupply()":"18160ddd","transferFrom(address,address,uint256)":"23b872dd","transferOwnership(address)":"f2fde38b","withdraw()":"3ccfd60b"}}}}}