{"contracts/SpattersGenerator.sol":{"SpattersGenerator":{"abi":[{"inputs":[{"internalType":"address","name":"_spattersContract","type":"address"},{"internalType":"address[]","name":"_storageAddresses","type":"address[]"},{"internalType":"address[]","name":"_htmlTemplateAddresses","type":"address[]"}],"stateMutability":"nonpayable","type":"constructor"},{"inputs":[{"internalType":"uint256","name":"","type":"uint256"}],"name":"HTML_TEMPLATE_ADDRESSES","outputs":[{"internalType":"address","name":"","type":"address"}],"stateMutability":"view","type":"function"},{"inputs":[],"name":"SPATTERS_CONTRACT","outputs":[{"internalType":"address","name":"","type":"address"}],"stateMutability":"view","type":"function"},{"inputs":[{"internalType":"uint256","name":"","type":"uint256"}],"name":"STORAGE_ADDRESSES","outputs":[{"internalType":"address","name":"","type":"address"}],"stateMutability":"view","type":"function"},{"inputs":[],"name":"getHtmlTemplate","outputs":[{"internalType":"string","name":"","type":"string"}],"stateMutability":"view","type":"function"},{"inputs":[],"name":"getHtmlTemplateAddresses","outputs":[{"internalType":"address[]","name":"","type":"address[]"}],"stateMutability":"view","type":"function"},{"inputs":[],"name":"getHtmlTemplateCount","outputs":[{"internalType":"uint256","name":"","type":"uint256"}],"stateMutability":"view","type":"function"},{"inputs":[{"internalType":"uint256","name":"index","type":"uint256"}],"name":"getStorageAddress","outputs":[{"internalType":"address","name":"","type":"address"}],"stateMutability":"view","type":"function"},{"inputs":[],"name":"getStorageAddresses","outputs":[{"internalType":"address[]","name":"","type":"address[]"}],"stateMutability":"view","type":"function"},{"inputs":[],"name":"getStorageCount","outputs":[{"internalType":"uint256","name":"","type":"uint256"}],"stateMutability":"view","type":"function"},{"inputs":[],"name":"getTemplateConfig","outputs":[{"internalType":"address","name":"spattersContract","type":"address"},{"internalType":"address","name":"generatorContract","type":"address"},{"internalType":"address[]","name":"storageAddresses","type":"address[]"},{"internalType":"address[]","name":"templateAddresses","type":"address[]"}],"stateMutability":"view","type":"function"},{"inputs":[{"internalType":"uint256","name":"tokenId","type":"uint256"}],"name":"getTokenData","outputs":[{"internalType":"bytes32","name":"seed","type":"bytes32"},{"internalType":"bytes32[]","name":"mutationSeeds","type":"bytes32[]"},{"internalType":"string[]","name":"mutationTypes","type":"string[]"},{"internalType":"string[6]","name":"customPalette","type":"string[6]"}],"stateMutability":"view","type":"function"},{"inputs":[{"internalType":"address","name":"storageAddress","type":"address"}],"name":"readStorageChunk","outputs":[{"internalType":"bytes","name":"","type":"bytes"}],"stateMutability":"view","type":"function"}],"evm":{"bytecode":{"linkReferences":{},"object":"604060a08152346200038b576200123690813803806200001f816200038f565b9384398201906060838303126200038b576200003b83620003b5565b6020848101516001600160401b0395919491908681116200038b578262000064918301620003ca565b91848201518781116200038b576200007d9201620003ca565b6001600160a01b0392908382161562000347578251156200030357805115620002bf575f5b83518110156200010e5784620000b982866200043d565b511615620000ca57600101620000a2565b855162461bcd60e51b815260048101889052601760248201527f496e76616c69642073746f7261676520616464726573730000000000000000006044820152606490fd5b50919590955f5b83518110156200018157846200012c82866200043d565b5116156200013d5760010162000115565b855162461bcd60e51b815260048101889052601860248201527f496e76616c69642074656d706c617465206164647265737300000000000000006044820152606490fd5b50849386918860805280518481116200026b5768010000000000000000918282116200026b5784905f54835f5580841062000294575b50015f8052845f205f5b8381106200027f575050505084519384116200026b5783116200026b578160019485548587558086106200023e575b500191845f52805f20915f5b8581106200022a578751610dcf90816200046782396080518181816102c90152818161032501526104790152f35b8451821684820155938201938601620001fc565b865f528686845f2092830192015b8281106200025c575050620001f0565b5f81558694508891016200024c565b634e487b7160e01b5f52604160045260245ffd5b825186168282015591860191600101620001c1565b5f805283835f2091820191015b818110620002b05750620001b7565b5f8155879350600101620002a1565b845162461bcd60e51b815260048101879052601f60248201527f4d7573742070726f766964652074656d706c61746520616464726573736573006044820152606490fd5b845162461bcd60e51b815260048101879052601e60248201527f4d7573742070726f766964652073746f726167652061646472657373657300006044820152606490fd5b845162461bcd60e51b815260048101879052601960248201527f496e76616c696420737061747465727320636f6e7472616374000000000000006044820152606490fd5b5f80fd5b6040519190601f01601f191682016001600160401b038111838210176200026b57604052565b51906001600160a01b03821682036200038b57565b81601f820112156200038b578051916020916001600160401b0384116200026b578360051b908380620003ff8185016200038f565b8097815201928201019283116200038b578301905b82821062000423575050505090565b8380916200043184620003b5565b81520191019062000414565b8051821015620004525760209160051b010190565b634e487b7160e01b5f52603260045260245ffdfe60806040526004361015610011575f80fd5b5f3560e01c80635057fecb146100d45780635b872111146100cf57806370059d5f146100ca57806374004ffd146100c55780637773736a146100c0578063ae397c90146100bb578063b09afec1146100b6578063c3383541146100b1578063c3d6e8a9146100ac578063e5380755146100a7578063ed1bebb3146100a25763f4fc0c651461009d575f80fd5b610795565b610708565b6106d9565b610687565b61066a565b610441565b610310565b610294565b61023d565b610221565b6101e1565b610149565b60209060031901126100eb5760043590565b5f80fd5b634e487b7160e01b5f52603260045260245ffd5b600154156101225760015f525f80516020610d7a833981519152905f90565b6100ef565b6001548110156101225760015f525f80516020610d7a83398151915201905f90565b346100eb57610157366100d9565b6001548110156100eb5760015f525f80516020610d7a83398151915201546040516001600160a01b039091168152602090f35b6001600160a01b038116036100eb57565b5f5b8381106101ac5750505f910152565b818101518382015260200161019d565b906020916101d58151809281855285808601910161019b565b601f01601f1916010190565b346100eb5760203660031901126100eb5761021d6102096004356102048161018a565b610d52565b6040519182916020835260208301906101bc565b0390f35b346100eb575f3660031901126100eb5760205f54604051908152f35b346100eb575f3660031901126100eb5761021d6102096108a3565b9081518082526020808093019301915f5b828110610277575050505090565b83516001600160a01b031685529381019392810192600101610269565b346100eb575f3660031901126100eb576103026102af6109a2565b61021d6102ba610a17565b60405193849360018060a01b037f0000000000000000000000000000000000000000000000000000000000000000168552306020860152608060408601526080850190610258565b908382036060850152610258565b346100eb575f3660031901126100eb576040517f00000000000000000000000000000000000000000000000000000000000000006001600160a01b03168152602090f35b60c0820191805f5b6006811061036b575050505090565b90919293610381818560019303855286516101bc565b946020908101949301910161035c565b90949391946080820190825260209060808284015286518091528160a084019701905f5b81811061042d5750505081860360408301528351808752600581901b87018201948201915f8189015b8382106104005750505050506103fd9394506060818403910152610354565b90565b9091929396838061041e6001938d601f199082030186528b516101bc565b990192019201909392916103de565b8251895297830197918301916001016103b5565b346100eb5761044f366100d9565b610457610a7b565b50604080516331a9108f60e11b81526004810183905290916001600160a01b037f00000000000000000000000000000000000000000000000000000000000000008116926020918282602481885afa80156105e2576104c0925f9161063b575b50161515610ac5565b83516327b2595f60e11b815260048101839052908482602481875afa9182156105e2575f9261060b575b5084516326985f4360e21b815260048101849052915f83602481885afa9283156105e2575f936105e7575b506105208351610c4d565b9561052b8451610c75565b945f5b855181101561057b57808561054560019389610cbe565b510151610552828c610cbe565b5261055d8188610cbe565b5151610569828a610cbe565b526105748189610cbe565b500161052e565b825163358250f160e11b81526004810183905289908590858a5f838e81806024810103915afa9182156105e25761021d935f936105be575b505194859485610391565b6105db9193503d805f833e6105d38183610822565b810190610cd2565b91866105b3565b610aba565b6106049193503d805f833e6105fc8183610822565b810190610b78565b915f610515565b61062c919250853d8711610634575b6106248183610822565b810190610b08565b50905f6104ea565b503d61061a565b61065d915060203d602011610663575b6106558183610822565b810190610aa5565b5f6104b7565b503d61064b565b346100eb575f3660031901126100eb576020600154604051908152f35b346100eb57610695366100d9565b5f548110156100eb575f80527f290decd9548b62a8d60345a988386fc84ba6bc95484008f6362f93160ef3e56301546040516001600160a01b039091168152602090f35b346100eb575f3660031901126100eb5761021d6106f46109a2565b604051918291602083526020830190610258565b346100eb57610716366100d9565b5f5481101561075a575f80527f290decd9548b62a8d60345a988386fc84ba6bc95484008f6362f93160ef3e56301546040516001600160a01b039091168152602090f35b60405162461bcd60e51b8152602060048201526013602482015272496e646578206f7574206f6620626f756e647360681b6044820152606490fd5b346100eb575f3660031901126100eb5761021d6106f4610a17565b919082018092116107bd57565b634e487b7160e01b5f52601160045260245ffd5b634e487b7160e01b5f52604160045260245ffd5b6060810190811067ffffffffffffffff82111761080157604052565b6107d1565b60c0810190811067ffffffffffffffff82111761080157604052565b90601f8019910116810190811067ffffffffffffffff82111761080157604052565b67ffffffffffffffff811161080157601f01601f191660200190565b9061086a82610844565b6108776040519182610822565b8281528092610888601f1991610844565b0190602036910137565b908151811015610122570160200190565b6001805490808214610992575f805b8284831061096f57506108c59150610860565b915f805b8282106108d7575050505090565b8380916108fe6102046108e986610127565b905460039190911b1c6001600160a01b031690565b5f935b61091b575b61091392935051906107b0565b9101906108c9565b91909282518110156109665780610944610936849386610892565b516001600160f81b03191690565b61095b61095183886107b0565b915f1a918b610892565b530192909182610901565b50908290610906565b9061098a906109836102046108e986610127565b51906107b0565b9101906108b2565b50506103fd6102046108e9610103565b604051905f548083528260209160208201905f80527f290decd9548b62a8d60345a988386fc84ba6bc95484008f6362f93160ef3e563935f905b8282106109f4575050506109f292500383610822565b565b85546001600160a01b0316845260019586019588955093810193909101906109dc565b60405190816001805490818352602090602084019260015f525f80516020610d7a833981519152925f905b828210610a5a575050505050906109f2910383610822565b84546001600160a01b03168652889650948501949383019390830190610a42565b60405190610a8882610806565b815f5b60c08110610a97575050565b606082820152602001610a8b565b908160209103126100eb57516103fd8161018a565b6040513d5f823e3d90fd5b15610acc57565b60405162461bcd60e51b8152602060048201526014602482015273151bdad95b88191bd95cc81b9bdd08195e1a5cdd60621b6044820152606490fd5b91908260409103126100eb576020825192015190565b67ffffffffffffffff81116108015760051b60200190565b81601f820112156100eb578051610b4c81610844565b92610b5a6040519485610822565b818452602082840101116100eb576103fd916020808501910161019b565b9060209081838203126100eb57825167ffffffffffffffff938482116100eb57019080601f830112156100eb578151610bb081610b1e565b946040610bc06040519788610822565b828752858088019360051b860101948486116100eb57868101935b868510610bed57505050505050505090565b84518481116100eb5782019060609081601f19848a0301126100eb578451610c14816107e5565b8a840151928784116100eb5784610c328b8e80989781980101610b36565b83528781015185840152015186820152815201940193610bdb565b90610c5782610b1e565b610c646040519182610822565b8281528092610888601f1991610b1e565b90610c7f82610b1e565b610c8c6040519182610822565b8281528092610c9d601f1991610b1e565b01905f5b828110610cad57505050565b806060602080938501015201610ca1565b80518210156101225760209160051b010190565b906020906020838203126100eb57825167ffffffffffffffff938482116100eb57019281601f850112156100eb5760405193610d0d85610806565b849060c08101938085116100eb5781925b858410610d2f575050505050505090565b83518581116100eb578791610d478484938701610b36565b815201930192610d1e565b803b9060015f1983019160405193603e601f19910116840160405282845260208401903c9056feb10e2d527612073b26eecdfd717e6a320cf44b4afac2b0732d9fcbe2b7fa0cf6a264697066735822122075f741805a0dbd95552303b88daa8956e879f8ffbf5c5ecb5205bf8396d6932564736f6c63430008180033","opcodes":"PUSH1 0x40 PUSH1 0xA0 DUP2 MSTORE CALLVALUE PUSH3 0x38B JUMPI PUSH3 0x1236 SWAP1 DUP2 CODESIZE SUB DUP1 PUSH3 0x1F DUP2 PUSH3 0x38F JUMP JUMPDEST SWAP4 DUP5 CODECOPY DUP3 ADD SWAP1 PUSH1 0x60 DUP4 DUP4 SUB SLT PUSH3 0x38B JUMPI PUSH3 0x3B DUP4 PUSH3 0x3B5 JUMP JUMPDEST PUSH1 0x20 DUP5 DUP2 ADD MLOAD PUSH1 0x1 PUSH1 0x1 PUSH1 0x40 SHL SUB SWAP6 SWAP2 SWAP5 SWAP2 SWAP1 DUP7 DUP2 GT PUSH3 0x38B JUMPI DUP3 PUSH3 0x64 SWAP2 DUP4 ADD PUSH3 0x3CA JUMP JUMPDEST SWAP2 DUP5 DUP3 ADD MLOAD DUP8 DUP2 GT PUSH3 0x38B JUMPI PUSH3 0x7D SWAP3 ADD PUSH3 0x3CA JUMP JUMPDEST PUSH1 0x1 PUSH1 0x1 PUSH1 0xA0 SHL SUB SWAP3 SWAP1 DUP4 DUP3 AND ISZERO PUSH3 0x347 JUMPI DUP3 MLOAD ISZERO PUSH3 0x303 JUMPI DUP1 MLOAD ISZERO PUSH3 0x2BF JUMPI PUSH0 JUMPDEST DUP4 MLOAD DUP2 LT ISZERO PUSH3 0x10E JUMPI DUP5 PUSH3 0xB9 DUP3 DUP7 PUSH3 0x43D JUMP JUMPDEST MLOAD AND ISZERO PUSH3 0xCA JUMPI PUSH1 0x1 ADD PUSH3 0xA2 JUMP JUMPDEST DUP6 MLOAD PUSH3 0x461BCD PUSH1 0xE5 SHL DUP2 MSTORE PUSH1 0x4 DUP2 ADD DUP9 SWAP1 MSTORE PUSH1 0x17 PUSH1 0x24 DUP3 ADD MSTORE PUSH32 0x496E76616C69642073746F726167652061646472657373000000000000000000 PUSH1 0x44 DUP3 ADD MSTORE PUSH1 0x64 SWAP1 REVERT JUMPDEST POP SWAP2 SWAP6 SWAP1 SWAP6 PUSH0 JUMPDEST DUP4 MLOAD DUP2 LT ISZERO PUSH3 0x181 JUMPI DUP5 PUSH3 0x12C DUP3 DUP7 PUSH3 0x43D JUMP JUMPDEST MLOAD AND ISZERO PUSH3 0x13D JUMPI PUSH1 0x1 ADD PUSH3 0x115 JUMP JUMPDEST DUP6 MLOAD PUSH3 0x461BCD PUSH1 0xE5 SHL DUP2 MSTORE PUSH1 0x4 DUP2 ADD DUP9 SWAP1 MSTORE PUSH1 0x18 PUSH1 0x24 DUP3 ADD MSTORE PUSH32 0x496E76616C69642074656D706C61746520616464726573730000000000000000 PUSH1 0x44 DUP3 ADD MSTORE PUSH1 0x64 SWAP1 REVERT JUMPDEST POP DUP5 SWAP4 DUP7 SWAP2 DUP9 PUSH1 0x80 MSTORE DUP1 MLOAD DUP5 DUP2 GT PUSH3 0x26B JUMPI PUSH9 0x10000000000000000 SWAP2 DUP3 DUP3 GT PUSH3 0x26B JUMPI DUP5 SWAP1 PUSH0 SLOAD DUP4 PUSH0 SSTORE DUP1 DUP5 LT PUSH3 0x294 JUMPI JUMPDEST POP ADD PUSH0 DUP1 MSTORE DUP5 PUSH0 KECCAK256 PUSH0 JUMPDEST DUP4 DUP2 LT PUSH3 0x27F JUMPI POP POP POP POP DUP5 MLOAD SWAP4 DUP5 GT PUSH3 0x26B JUMPI DUP4 GT PUSH3 0x26B JUMPI DUP2 PUSH1 0x1 SWAP5 DUP6 SLOAD DUP6 DUP8 SSTORE DUP1 DUP7 LT PUSH3 0x23E JUMPI JUMPDEST POP ADD SWAP2 DUP5 PUSH0 MSTORE DUP1 PUSH0 KECCAK256 SWAP2 PUSH0 JUMPDEST DUP6 DUP2 LT PUSH3 0x22A JUMPI DUP8 MLOAD PUSH2 0xDCF SWAP1 DUP2 PUSH3 0x467 DUP3 CODECOPY PUSH1 0x80 MLOAD DUP2 DUP2 DUP2 PUSH2 0x2C9 ADD MSTORE DUP2 DUP2 PUSH2 0x325 ADD MSTORE PUSH2 0x479 ADD MSTORE RETURN JUMPDEST DUP5 MLOAD DUP3 AND DUP5 DUP3 ADD SSTORE SWAP4 DUP3 ADD SWAP4 DUP7 ADD PUSH3 0x1FC JUMP JUMPDEST DUP7 PUSH0 MSTORE DUP7 DUP7 DUP5 PUSH0 KECCAK256 SWAP3 DUP4 ADD SWAP3 ADD JUMPDEST DUP3 DUP2 LT PUSH3 0x25C JUMPI POP POP PUSH3 0x1F0 JUMP JUMPDEST PUSH0 DUP2 SSTORE DUP7 SWAP5 POP DUP9 SWAP2 ADD PUSH3 0x24C JUMP JUMPDEST PUSH4 0x4E487B71 PUSH1 0xE0 SHL PUSH0 MSTORE PUSH1 0x41 PUSH1 0x4 MSTORE PUSH1 0x24 PUSH0 REVERT JUMPDEST DUP3 MLOAD DUP7 AND DUP3 DUP3 ADD SSTORE SWAP2 DUP7 ADD SWAP2 PUSH1 0x1 ADD PUSH3 0x1C1 JUMP JUMPDEST PUSH0 DUP1 MSTORE DUP4 DUP4 PUSH0 KECCAK256 SWAP2 DUP3 ADD SWAP2 ADD JUMPDEST DUP2 DUP2 LT PUSH3 0x2B0 JUMPI POP PUSH3 0x1B7 JUMP JUMPDEST PUSH0 DUP2 SSTORE DUP8 SWAP4 POP PUSH1 0x1 ADD PUSH3 0x2A1 JUMP JUMPDEST DUP5 MLOAD PUSH3 0x461BCD PUSH1 0xE5 SHL DUP2 MSTORE PUSH1 0x4 DUP2 ADD DUP8 SWAP1 MSTORE PUSH1 0x1F PUSH1 0x24 DUP3 ADD MSTORE PUSH32 0x4D7573742070726F766964652074656D706C6174652061646472657373657300 PUSH1 0x44 DUP3 ADD MSTORE PUSH1 0x64 SWAP1 REVERT JUMPDEST DUP5 MLOAD PUSH3 0x461BCD PUSH1 0xE5 SHL DUP2 MSTORE PUSH1 0x4 DUP2 ADD DUP8 SWAP1 MSTORE PUSH1 0x1E PUSH1 0x24 DUP3 ADD MSTORE PUSH32 0x4D7573742070726F766964652073746F72616765206164647265737365730000 PUSH1 0x44 DUP3 ADD MSTORE PUSH1 0x64 SWAP1 REVERT JUMPDEST DUP5 MLOAD PUSH3 0x461BCD PUSH1 0xE5 SHL DUP2 MSTORE PUSH1 0x4 DUP2 ADD DUP8 SWAP1 MSTORE PUSH1 0x19 PUSH1 0x24 DUP3 ADD MSTORE PUSH32 0x496E76616C696420737061747465727320636F6E747261637400000000000000 PUSH1 0x44 DUP3 ADD MSTORE PUSH1 0x64 SWAP1 REVERT JUMPDEST PUSH0 DUP1 REVERT JUMPDEST PUSH1 0x40 MLOAD SWAP2 SWAP1 PUSH1 0x1F ADD PUSH1 0x1F NOT AND DUP3 ADD PUSH1 0x1 PUSH1 0x1 PUSH1 0x40 SHL SUB DUP2 GT DUP4 DUP3 LT OR PUSH3 0x26B JUMPI PUSH1 0x40 MSTORE JUMP JUMPDEST MLOAD SWAP1 PUSH1 0x1 PUSH1 0x1 PUSH1 0xA0 SHL SUB DUP3 AND DUP3 SUB PUSH3 0x38B JUMPI JUMP JUMPDEST DUP2 PUSH1 0x1F DUP3 ADD SLT ISZERO PUSH3 0x38B JUMPI DUP1 MLOAD SWAP2 PUSH1 0x20 SWAP2 PUSH1 0x1 PUSH1 0x1 PUSH1 0x40 SHL SUB DUP5 GT PUSH3 0x26B JUMPI DUP4 PUSH1 0x5 SHL SWAP1 DUP4 DUP1 PUSH3 0x3FF DUP2 DUP6 ADD PUSH3 0x38F JUMP JUMPDEST DUP1 SWAP8 DUP2 MSTORE ADD SWAP3 DUP3 ADD ADD SWAP3 DUP4 GT PUSH3 0x38B JUMPI DUP4 ADD SWAP1 JUMPDEST DUP3 DUP3 LT PUSH3 0x423 JUMPI POP POP POP POP SWAP1 JUMP JUMPDEST DUP4 DUP1 SWAP2 PUSH3 0x431 DUP5 PUSH3 0x3B5 JUMP JUMPDEST DUP2 MSTORE ADD SWAP2 ADD SWAP1 PUSH3 0x414 JUMP JUMPDEST DUP1 MLOAD DUP3 LT ISZERO PUSH3 0x452 JUMPI PUSH1 0x20 SWAP2 PUSH1 0x5 SHL ADD ADD SWAP1 JUMP JUMPDEST PUSH4 0x4E487B71 PUSH1 0xE0 SHL PUSH0 MSTORE PUSH1 0x32 PUSH1 0x4 MSTORE PUSH1 0x24 PUSH0 REVERT INVALID PUSH1 0x80 PUSH1 0x40 MSTORE PUSH1 0x4 CALLDATASIZE LT ISZERO PUSH2 0x11 JUMPI PUSH0 DUP1 REVERT JUMPDEST PUSH0 CALLDATALOAD PUSH1 0xE0 SHR DUP1 PUSH4 0x5057FECB EQ PUSH2 0xD4 JUMPI DUP1 PUSH4 0x5B872111 EQ PUSH2 0xCF JUMPI DUP1 PUSH4 0x70059D5F EQ PUSH2 0xCA JUMPI DUP1 PUSH4 0x74004FFD EQ PUSH2 0xC5 JUMPI DUP1 PUSH4 0x7773736A EQ PUSH2 0xC0 JUMPI DUP1 PUSH4 0xAE397C90 EQ PUSH2 0xBB JUMPI DUP1 PUSH4 0xB09AFEC1 EQ PUSH2 0xB6 JUMPI DUP1 PUSH4 0xC3383541 EQ PUSH2 0xB1 JUMPI DUP1 PUSH4 0xC3D6E8A9 EQ PUSH2 0xAC JUMPI DUP1 PUSH4 0xE5380755 EQ PUSH2 0xA7 JUMPI DUP1 PUSH4 0xED1BEBB3 EQ PUSH2 0xA2 JUMPI PUSH4 0xF4FC0C65 EQ PUSH2 0x9D JUMPI PUSH0 DUP1 REVERT JUMPDEST PUSH2 0x795 JUMP JUMPDEST PUSH2 0x708 JUMP JUMPDEST PUSH2 0x6D9 JUMP JUMPDEST PUSH2 0x687 JUMP JUMPDEST PUSH2 0x66A JUMP JUMPDEST PUSH2 0x441 JUMP JUMPDEST PUSH2 0x310 JUMP JUMPDEST PUSH2 0x294 JUMP JUMPDEST PUSH2 0x23D JUMP JUMPDEST PUSH2 0x221 JUMP JUMPDEST PUSH2 0x1E1 JUMP JUMPDEST PUSH2 0x149 JUMP JUMPDEST PUSH1 0x20 SWAP1 PUSH1 0x3 NOT ADD SLT PUSH2 0xEB JUMPI PUSH1 0x4 CALLDATALOAD SWAP1 JUMP JUMPDEST PUSH0 DUP1 REVERT JUMPDEST PUSH4 0x4E487B71 PUSH1 0xE0 SHL PUSH0 MSTORE PUSH1 0x32 PUSH1 0x4 MSTORE PUSH1 0x24 PUSH0 REVERT JUMPDEST PUSH1 0x1 SLOAD ISZERO PUSH2 0x122 JUMPI PUSH1 0x1 PUSH0 MSTORE PUSH0 DUP1 MLOAD PUSH1 0x20 PUSH2 0xD7A DUP4 CODECOPY DUP2 MLOAD SWAP2 MSTORE SWAP1 PUSH0 SWAP1 JUMP JUMPDEST PUSH2 0xEF JUMP JUMPDEST PUSH1 0x1 SLOAD DUP2 LT ISZERO PUSH2 0x122 JUMPI PUSH1 0x1 PUSH0 MSTORE PUSH0 DUP1 MLOAD PUSH1 0x20 PUSH2 0xD7A DUP4 CODECOPY DUP2 MLOAD SWAP2 MSTORE ADD SWAP1 PUSH0 SWAP1 JUMP JUMPDEST CALLVALUE PUSH2 0xEB JUMPI PUSH2 0x157 CALLDATASIZE PUSH2 0xD9 JUMP JUMPDEST PUSH1 0x1 SLOAD DUP2 LT ISZERO PUSH2 0xEB JUMPI PUSH1 0x1 PUSH0 MSTORE PUSH0 DUP1 MLOAD PUSH1 0x20 PUSH2 0xD7A DUP4 CODECOPY DUP2 MLOAD SWAP2 MSTORE ADD SLOAD PUSH1 0x40 MLOAD PUSH1 0x1 PUSH1 0x1 PUSH1 0xA0 SHL SUB SWAP1 SWAP2 AND DUP2 MSTORE PUSH1 0x20 SWAP1 RETURN JUMPDEST PUSH1 0x1 PUSH1 0x1 PUSH1 0xA0 SHL SUB DUP2 AND SUB PUSH2 0xEB JUMPI JUMP JUMPDEST PUSH0 JUMPDEST DUP4 DUP2 LT PUSH2 0x1AC JUMPI POP POP PUSH0 SWAP2 ADD MSTORE JUMP JUMPDEST DUP2 DUP2 ADD MLOAD DUP4 DUP3 ADD MSTORE PUSH1 0x20 ADD PUSH2 0x19D JUMP JUMPDEST SWAP1 PUSH1 0x20 SWAP2 PUSH2 0x1D5 DUP2 MLOAD DUP1 SWAP3 DUP2 DUP6 MSTORE DUP6 DUP1 DUP7 ADD SWAP2 ADD PUSH2 0x19B JUMP JUMPDEST PUSH1 0x1F ADD PUSH1 0x1F NOT AND ADD ADD SWAP1 JUMP JUMPDEST CALLVALUE PUSH2 0xEB JUMPI PUSH1 0x20 CALLDATASIZE PUSH1 0x3 NOT ADD SLT PUSH2 0xEB JUMPI PUSH2 0x21D PUSH2 0x209 PUSH1 0x4 CALLDATALOAD PUSH2 0x204 DUP2 PUSH2 0x18A JUMP JUMPDEST PUSH2 0xD52 JUMP JUMPDEST PUSH1 0x40 MLOAD SWAP2 DUP3 SWAP2 PUSH1 0x20 DUP4 MSTORE PUSH1 0x20 DUP4 ADD SWAP1 PUSH2 0x1BC JUMP JUMPDEST SUB SWAP1 RETURN JUMPDEST CALLVALUE PUSH2 0xEB JUMPI PUSH0 CALLDATASIZE PUSH1 0x3 NOT ADD SLT PUSH2 0xEB JUMPI PUSH1 0x20 PUSH0 SLOAD PUSH1 0x40 MLOAD SWAP1 DUP2 MSTORE RETURN JUMPDEST CALLVALUE PUSH2 0xEB JUMPI PUSH0 CALLDATASIZE PUSH1 0x3 NOT ADD SLT PUSH2 0xEB JUMPI PUSH2 0x21D PUSH2 0x209 PUSH2 0x8A3 JUMP JUMPDEST SWAP1 DUP2 MLOAD DUP1 DUP3 MSTORE PUSH1 0x20 DUP1 DUP1 SWAP4 ADD SWAP4 ADD SWAP2 PUSH0 JUMPDEST DUP3 DUP2 LT PUSH2 0x277 JUMPI POP POP POP POP SWAP1 JUMP JUMPDEST DUP4 MLOAD PUSH1 0x1 PUSH1 0x1 PUSH1 0xA0 SHL SUB AND DUP6 MSTORE SWAP4 DUP2 ADD SWAP4 SWAP3 DUP2 ADD SWAP3 PUSH1 0x1 ADD PUSH2 0x269 JUMP JUMPDEST CALLVALUE PUSH2 0xEB JUMPI PUSH0 CALLDATASIZE PUSH1 0x3 NOT ADD SLT PUSH2 0xEB JUMPI PUSH2 0x302 PUSH2 0x2AF PUSH2 0x9A2 JUMP JUMPDEST PUSH2 0x21D PUSH2 0x2BA PUSH2 0xA17 JUMP JUMPDEST PUSH1 0x40 MLOAD SWAP4 DUP5 SWAP4 PUSH1 0x1 DUP1 PUSH1 0xA0 SHL SUB PUSH32 0x0 AND DUP6 MSTORE ADDRESS PUSH1 0x20 DUP7 ADD MSTORE PUSH1 0x80 PUSH1 0x40 DUP7 ADD MSTORE PUSH1 0x80 DUP6 ADD SWAP1 PUSH2 0x258 JUMP JUMPDEST SWAP1 DUP4 DUP3 SUB PUSH1 0x60 DUP6 ADD MSTORE PUSH2 0x258 JUMP JUMPDEST CALLVALUE PUSH2 0xEB JUMPI PUSH0 CALLDATASIZE PUSH1 0x3 NOT ADD SLT PUSH2 0xEB JUMPI PUSH1 0x40 MLOAD PUSH32 0x0 PUSH1 0x1 PUSH1 0x1 PUSH1 0xA0 SHL SUB AND DUP2 MSTORE PUSH1 0x20 SWAP1 RETURN JUMPDEST PUSH1 0xC0 DUP3 ADD SWAP2 DUP1 PUSH0 JUMPDEST PUSH1 0x6 DUP2 LT PUSH2 0x36B JUMPI POP POP POP POP SWAP1 JUMP JUMPDEST SWAP1 SWAP2 SWAP3 SWAP4 PUSH2 0x381 DUP2 DUP6 PUSH1 0x1 SWAP4 SUB DUP6 MSTORE DUP7 MLOAD PUSH2 0x1BC JUMP JUMPDEST SWAP5 PUSH1 0x20 SWAP1 DUP2 ADD SWAP5 SWAP4 ADD SWAP2 ADD PUSH2 0x35C JUMP JUMPDEST SWAP1 SWAP5 SWAP4 SWAP2 SWAP5 PUSH1 0x80 DUP3 ADD SWAP1 DUP3 MSTORE PUSH1 0x20 SWAP1 PUSH1 0x80 DUP3 DUP5 ADD MSTORE DUP7 MLOAD DUP1 SWAP2 MSTORE DUP2 PUSH1 0xA0 DUP5 ADD SWAP8 ADD SWAP1 PUSH0 JUMPDEST DUP2 DUP2 LT PUSH2 0x42D JUMPI POP POP POP DUP2 DUP7 SUB PUSH1 0x40 DUP4 ADD MSTORE DUP4 MLOAD DUP1 DUP8 MSTORE PUSH1 0x5 DUP2 SWAP1 SHL DUP8 ADD DUP3 ADD SWAP5 DUP3 ADD SWAP2 PUSH0 DUP2 DUP10 ADD JUMPDEST DUP4 DUP3 LT PUSH2 0x400 JUMPI POP POP POP POP POP PUSH2 0x3FD SWAP4 SWAP5 POP PUSH1 0x60 DUP2 DUP5 SUB SWAP2 ADD MSTORE PUSH2 0x354 JUMP JUMPDEST SWAP1 JUMP JUMPDEST SWAP1 SWAP2 SWAP3 SWAP4 SWAP7 DUP4 DUP1 PUSH2 0x41E PUSH1 0x1 SWAP4 DUP14 PUSH1 0x1F NOT SWAP1 DUP3 SUB ADD DUP7 MSTORE DUP12 MLOAD PUSH2 0x1BC JUMP JUMPDEST SWAP10 ADD SWAP3 ADD SWAP3 ADD SWAP1 SWAP4 SWAP3 SWAP2 PUSH2 0x3DE JUMP JUMPDEST DUP3 MLOAD DUP10 MSTORE SWAP8 DUP4 ADD SWAP8 SWAP2 DUP4 ADD SWAP2 PUSH1 0x1 ADD PUSH2 0x3B5 JUMP JUMPDEST CALLVALUE PUSH2 0xEB JUMPI PUSH2 0x44F CALLDATASIZE PUSH2 0xD9 JUMP JUMPDEST PUSH2 0x457 PUSH2 0xA7B JUMP JUMPDEST POP PUSH1 0x40 DUP1 MLOAD PUSH4 0x31A9108F PUSH1 0xE1 SHL DUP2 MSTORE PUSH1 0x4 DUP2 ADD DUP4 SWAP1 MSTORE SWAP1 SWAP2 PUSH1 0x1 PUSH1 0x1 PUSH1 0xA0 SHL SUB PUSH32 0x0 DUP2 AND SWAP3 PUSH1 0x20 SWAP2 DUP3 DUP3 PUSH1 0x24 DUP2 DUP9 GAS STATICCALL DUP1 ISZERO PUSH2 0x5E2 JUMPI PUSH2 0x4C0 SWAP3 PUSH0 SWAP2 PUSH2 0x63B JUMPI JUMPDEST POP AND ISZERO ISZERO PUSH2 0xAC5 JUMP JUMPDEST DUP4 MLOAD PUSH4 0x27B2595F PUSH1 0xE1 SHL DUP2 MSTORE PUSH1 0x4 DUP2 ADD DUP4 SWAP1 MSTORE SWAP1 DUP5 DUP3 PUSH1 0x24 DUP2 DUP8 GAS STATICCALL SWAP2 DUP3 ISZERO PUSH2 0x5E2 JUMPI PUSH0 SWAP3 PUSH2 0x60B JUMPI JUMPDEST POP DUP5 MLOAD PUSH4 0x26985F43 PUSH1 0xE2 SHL DUP2 MSTORE PUSH1 0x4 DUP2 ADD DUP5 SWAP1 MSTORE SWAP2 PUSH0 DUP4 PUSH1 0x24 DUP2 DUP9 GAS STATICCALL SWAP3 DUP4 ISZERO PUSH2 0x5E2 JUMPI PUSH0 SWAP4 PUSH2 0x5E7 JUMPI JUMPDEST POP PUSH2 0x520 DUP4 MLOAD PUSH2 0xC4D JUMP JUMPDEST SWAP6 PUSH2 0x52B DUP5 MLOAD PUSH2 0xC75 JUMP JUMPDEST SWAP5 PUSH0 JUMPDEST DUP6 MLOAD DUP2 LT ISZERO PUSH2 0x57B JUMPI DUP1 DUP6 PUSH2 0x545 PUSH1 0x1 SWAP4 DUP10 PUSH2 0xCBE JUMP JUMPDEST MLOAD ADD MLOAD PUSH2 0x552 DUP3 DUP13 PUSH2 0xCBE JUMP JUMPDEST MSTORE PUSH2 0x55D DUP2 DUP9 PUSH2 0xCBE JUMP JUMPDEST MLOAD MLOAD PUSH2 0x569 DUP3 DUP11 PUSH2 0xCBE JUMP JUMPDEST MSTORE PUSH2 0x574 DUP2 DUP10 PUSH2 0xCBE JUMP JUMPDEST POP ADD PUSH2 0x52E JUMP JUMPDEST DUP3 MLOAD PUSH4 0x358250F1 PUSH1 0xE1 SHL DUP2 MSTORE PUSH1 0x4 DUP2 ADD DUP4 SWAP1 MSTORE DUP10 SWAP1 DUP6 SWAP1 DUP6 DUP11 PUSH0 DUP4 DUP15 DUP2 DUP1 PUSH1 0x24 DUP2 ADD SUB SWAP2 GAS STATICCALL SWAP2 DUP3 ISZERO PUSH2 0x5E2 JUMPI PUSH2 0x21D SWAP4 PUSH0 SWAP4 PUSH2 0x5BE JUMPI JUMPDEST POP MLOAD SWAP5 DUP6 SWAP5 DUP6 PUSH2 0x391 JUMP JUMPDEST PUSH2 0x5DB SWAP2 SWAP4 POP RETURNDATASIZE DUP1 PUSH0 DUP4 RETURNDATACOPY PUSH2 0x5D3 DUP2 DUP4 PUSH2 0x822 JUMP JUMPDEST DUP2 ADD SWAP1 PUSH2 0xCD2 JUMP JUMPDEST SWAP2 DUP7 PUSH2 0x5B3 JUMP JUMPDEST PUSH2 0xABA JUMP JUMPDEST PUSH2 0x604 SWAP2 SWAP4 POP RETURNDATASIZE DUP1 PUSH0 DUP4 RETURNDATACOPY PUSH2 0x5FC DUP2 DUP4 PUSH2 0x822 JUMP JUMPDEST DUP2 ADD SWAP1 PUSH2 0xB78 JUMP JUMPDEST SWAP2 PUSH0 PUSH2 0x515 JUMP JUMPDEST PUSH2 0x62C SWAP2 SWAP3 POP DUP6 RETURNDATASIZE DUP8 GT PUSH2 0x634 JUMPI JUMPDEST PUSH2 0x624 DUP2 DUP4 PUSH2 0x822 JUMP JUMPDEST DUP2 ADD SWAP1 PUSH2 0xB08 JUMP JUMPDEST POP SWAP1 PUSH0 PUSH2 0x4EA JUMP JUMPDEST POP RETURNDATASIZE PUSH2 0x61A JUMP JUMPDEST PUSH2 0x65D SWAP2 POP PUSH1 0x20 RETURNDATASIZE PUSH1 0x20 GT PUSH2 0x663 JUMPI JUMPDEST PUSH2 0x655 DUP2 DUP4 PUSH2 0x822 JUMP JUMPDEST DUP2 ADD SWAP1 PUSH2 0xAA5 JUMP JUMPDEST PUSH0 PUSH2 0x4B7 JUMP JUMPDEST POP RETURNDATASIZE PUSH2 0x64B JUMP JUMPDEST CALLVALUE PUSH2 0xEB JUMPI PUSH0 CALLDATASIZE PUSH1 0x3 NOT ADD SLT PUSH2 0xEB JUMPI PUSH1 0x20 PUSH1 0x1 SLOAD PUSH1 0x40 MLOAD SWAP1 DUP2 MSTORE RETURN JUMPDEST CALLVALUE PUSH2 0xEB JUMPI PUSH2 0x695 CALLDATASIZE PUSH2 0xD9 JUMP JUMPDEST PUSH0 SLOAD DUP2 LT ISZERO PUSH2 0xEB JUMPI PUSH0 DUP1 MSTORE PUSH32 0x290DECD9548B62A8D60345A988386FC84BA6BC95484008F6362F93160EF3E563 ADD SLOAD PUSH1 0x40 MLOAD PUSH1 0x1 PUSH1 0x1 PUSH1 0xA0 SHL SUB SWAP1 SWAP2 AND DUP2 MSTORE PUSH1 0x20 SWAP1 RETURN JUMPDEST CALLVALUE PUSH2 0xEB JUMPI PUSH0 CALLDATASIZE PUSH1 0x3 NOT ADD SLT PUSH2 0xEB JUMPI PUSH2 0x21D PUSH2 0x6F4 PUSH2 0x9A2 JUMP JUMPDEST PUSH1 0x40 MLOAD SWAP2 DUP3 SWAP2 PUSH1 0x20 DUP4 MSTORE PUSH1 0x20 DUP4 ADD SWAP1 PUSH2 0x258 JUMP JUMPDEST CALLVALUE PUSH2 0xEB JUMPI PUSH2 0x716 CALLDATASIZE PUSH2 0xD9 JUMP JUMPDEST PUSH0 SLOAD DUP2 LT ISZERO PUSH2 0x75A JUMPI PUSH0 DUP1 MSTORE PUSH32 0x290DECD9548B62A8D60345A988386FC84BA6BC95484008F6362F93160EF3E563 ADD SLOAD PUSH1 0x40 MLOAD PUSH1 0x1 PUSH1 0x1 PUSH1 0xA0 SHL SUB SWAP1 SWAP2 AND DUP2 MSTORE PUSH1 0x20 SWAP1 RETURN JUMPDEST PUSH1 0x40 MLOAD PUSH3 0x461BCD PUSH1 0xE5 SHL DUP2 MSTORE PUSH1 0x20 PUSH1 0x4 DUP3 ADD MSTORE PUSH1 0x13 PUSH1 0x24 DUP3 ADD MSTORE PUSH19 0x496E646578206F7574206F6620626F756E6473 PUSH1 0x68 SHL PUSH1 0x44 DUP3 ADD MSTORE PUSH1 0x64 SWAP1 REVERT JUMPDEST CALLVALUE PUSH2 0xEB JUMPI PUSH0 CALLDATASIZE PUSH1 0x3 NOT ADD SLT PUSH2 0xEB JUMPI PUSH2 0x21D PUSH2 0x6F4 PUSH2 0xA17 JUMP JUMPDEST SWAP2 SWAP1 DUP3 ADD DUP1 SWAP3 GT PUSH2 0x7BD JUMPI JUMP JUMPDEST PUSH4 0x4E487B71 PUSH1 0xE0 SHL PUSH0 MSTORE PUSH1 0x11 PUSH1 0x4 MSTORE PUSH1 0x24 PUSH0 REVERT JUMPDEST PUSH4 0x4E487B71 PUSH1 0xE0 SHL PUSH0 MSTORE PUSH1 0x41 PUSH1 0x4 MSTORE PUSH1 0x24 PUSH0 REVERT JUMPDEST PUSH1 0x60 DUP2 ADD SWAP1 DUP2 LT PUSH8 0xFFFFFFFFFFFFFFFF DUP3 GT OR PUSH2 0x801 JUMPI PUSH1 0x40 MSTORE JUMP JUMPDEST PUSH2 0x7D1 JUMP JUMPDEST PUSH1 0xC0 DUP2 ADD SWAP1 DUP2 LT PUSH8 0xFFFFFFFFFFFFFFFF DUP3 GT OR PUSH2 0x801 JUMPI PUSH1 0x40 MSTORE JUMP JUMPDEST SWAP1 PUSH1 0x1F DUP1 NOT SWAP2 ADD AND DUP2 ADD SWAP1 DUP2 LT PUSH8 0xFFFFFFFFFFFFFFFF DUP3 GT OR PUSH2 0x801 JUMPI PUSH1 0x40 MSTORE JUMP JUMPDEST PUSH8 0xFFFFFFFFFFFFFFFF DUP2 GT PUSH2 0x801 JUMPI PUSH1 0x1F ADD PUSH1 0x1F NOT AND PUSH1 0x20 ADD SWAP1 JUMP JUMPDEST SWAP1 PUSH2 0x86A DUP3 PUSH2 0x844 JUMP JUMPDEST PUSH2 0x877 PUSH1 0x40 MLOAD SWAP2 DUP3 PUSH2 0x822 JUMP JUMPDEST DUP3 DUP2 MSTORE DUP1 SWAP3 PUSH2 0x888 PUSH1 0x1F NOT SWAP2 PUSH2 0x844 JUMP JUMPDEST ADD SWAP1 PUSH1 0x20 CALLDATASIZE SWAP2 ADD CALLDATACOPY JUMP JUMPDEST SWAP1 DUP2 MLOAD DUP2 LT ISZERO PUSH2 0x122 JUMPI ADD PUSH1 0x20 ADD SWAP1 JUMP JUMPDEST PUSH1 0x1 DUP1 SLOAD SWAP1 DUP1 DUP3 EQ PUSH2 0x992 JUMPI PUSH0 DUP1 JUMPDEST DUP3 DUP5 DUP4 LT PUSH2 0x96F JUMPI POP PUSH2 0x8C5 SWAP2 POP PUSH2 0x860 JUMP JUMPDEST SWAP2 PUSH0 DUP1 JUMPDEST DUP3 DUP3 LT PUSH2 0x8D7 JUMPI POP POP POP POP SWAP1 JUMP JUMPDEST DUP4 DUP1 SWAP2 PUSH2 0x8FE PUSH2 0x204 PUSH2 0x8E9 DUP7 PUSH2 0x127 JUMP JUMPDEST SWAP1 SLOAD PUSH1 0x3 SWAP2 SWAP1 SWAP2 SHL SHR PUSH1 0x1 PUSH1 0x1 PUSH1 0xA0 SHL SUB AND SWAP1 JUMP JUMPDEST PUSH0 SWAP4 JUMPDEST PUSH2 0x91B JUMPI JUMPDEST PUSH2 0x913 SWAP3 SWAP4 POP MLOAD SWAP1 PUSH2 0x7B0 JUMP JUMPDEST SWAP2 ADD SWAP1 PUSH2 0x8C9 JUMP JUMPDEST SWAP2 SWAP1 SWAP3 DUP3 MLOAD DUP2 LT ISZERO PUSH2 0x966 JUMPI DUP1 PUSH2 0x944 PUSH2 0x936 DUP5 SWAP4 DUP7 PUSH2 0x892 JUMP JUMPDEST MLOAD PUSH1 0x1 PUSH1 0x1 PUSH1 0xF8 SHL SUB NOT AND SWAP1 JUMP JUMPDEST PUSH2 0x95B PUSH2 0x951 DUP4 DUP9 PUSH2 0x7B0 JUMP JUMPDEST SWAP2 PUSH0 BYTE SWAP2 DUP12 PUSH2 0x892 JUMP JUMPDEST MSTORE8 ADD SWAP3 SWAP1 SWAP2 DUP3 PUSH2 0x901 JUMP JUMPDEST POP SWAP1 DUP3 SWAP1 PUSH2 0x906 JUMP JUMPDEST SWAP1 PUSH2 0x98A SWAP1 PUSH2 0x983 PUSH2 0x204 PUSH2 0x8E9 DUP7 PUSH2 0x127 JUMP JUMPDEST MLOAD SWAP1 PUSH2 0x7B0 JUMP JUMPDEST SWAP2 ADD SWAP1 PUSH2 0x8B2 JUMP JUMPDEST POP POP PUSH2 0x3FD PUSH2 0x204 PUSH2 0x8E9 PUSH2 0x103 JUMP JUMPDEST PUSH1 0x40 MLOAD SWAP1 PUSH0 SLOAD DUP1 DUP4 MSTORE DUP3 PUSH1 0x20 SWAP2 PUSH1 0x20 DUP3 ADD SWAP1 PUSH0 DUP1 MSTORE PUSH32 0x290DECD9548B62A8D60345A988386FC84BA6BC95484008F6362F93160EF3E563 SWAP4 PUSH0 SWAP1 JUMPDEST DUP3 DUP3 LT PUSH2 0x9F4 JUMPI POP POP POP PUSH2 0x9F2 SWAP3 POP SUB DUP4 PUSH2 0x822 JUMP JUMPDEST JUMP JUMPDEST DUP6 SLOAD PUSH1 0x1 PUSH1 0x1 PUSH1 0xA0 SHL SUB AND DUP5 MSTORE PUSH1 0x1 SWAP6 DUP7 ADD SWAP6 DUP9 SWAP6 POP SWAP4 DUP2 ADD SWAP4 SWAP1 SWAP2 ADD SWAP1 PUSH2 0x9DC JUMP JUMPDEST PUSH1 0x40 MLOAD SWAP1 DUP2 PUSH1 0x1 DUP1 SLOAD SWAP1 DUP2 DUP4 MSTORE PUSH1 0x20 SWAP1 PUSH1 0x20 DUP5 ADD SWAP3 PUSH1 0x1 PUSH0 MSTORE PUSH0 DUP1 MLOAD PUSH1 0x20 PUSH2 0xD7A DUP4 CODECOPY DUP2 MLOAD SWAP2 MSTORE SWAP3 PUSH0 SWAP1 JUMPDEST DUP3 DUP3 LT PUSH2 0xA5A JUMPI POP POP POP POP POP SWAP1 PUSH2 0x9F2 SWAP2 SUB DUP4 PUSH2 0x822 JUMP JUMPDEST DUP5 SLOAD PUSH1 0x1 PUSH1 0x1 PUSH1 0xA0 SHL SUB AND DUP7 MSTORE DUP9 SWAP7 POP SWAP5 DUP6 ADD SWAP5 SWAP4 DUP4 ADD SWAP4 SWAP1 DUP4 ADD SWAP1 PUSH2 0xA42 JUMP JUMPDEST PUSH1 0x40 MLOAD SWAP1 PUSH2 0xA88 DUP3 PUSH2 0x806 JUMP JUMPDEST DUP2 PUSH0 JUMPDEST PUSH1 0xC0 DUP2 LT PUSH2 0xA97 JUMPI POP POP JUMP JUMPDEST PUSH1 0x60 DUP3 DUP3 ADD MSTORE PUSH1 0x20 ADD PUSH2 0xA8B JUMP JUMPDEST SWAP1 DUP2 PUSH1 0x20 SWAP2 SUB SLT PUSH2 0xEB JUMPI MLOAD PUSH2 0x3FD DUP2 PUSH2 0x18A JUMP JUMPDEST PUSH1 0x40 MLOAD RETURNDATASIZE PUSH0 DUP3 RETURNDATACOPY RETURNDATASIZE SWAP1 REVERT JUMPDEST ISZERO PUSH2 0xACC JUMPI JUMP JUMPDEST PUSH1 0x40 MLOAD PUSH3 0x461BCD PUSH1 0xE5 SHL DUP2 MSTORE PUSH1 0x20 PUSH1 0x4 DUP3 ADD MSTORE PUSH1 0x14 PUSH1 0x24 DUP3 ADD MSTORE PUSH20 0x151BDAD95B88191BD95CC81B9BDD08195E1A5CDD PUSH1 0x62 SHL PUSH1 0x44 DUP3 ADD MSTORE PUSH1 0x64 SWAP1 REVERT JUMPDEST SWAP2 SWAP1 DUP3 PUSH1 0x40 SWAP2 SUB SLT PUSH2 0xEB JUMPI PUSH1 0x20 DUP3 MLOAD SWAP3 ADD MLOAD SWAP1 JUMP JUMPDEST PUSH8 0xFFFFFFFFFFFFFFFF DUP2 GT PUSH2 0x801 JUMPI PUSH1 0x5 SHL PUSH1 0x20 ADD SWAP1 JUMP JUMPDEST DUP2 PUSH1 0x1F DUP3 ADD SLT ISZERO PUSH2 0xEB JUMPI DUP1 MLOAD PUSH2 0xB4C DUP2 PUSH2 0x844 JUMP JUMPDEST SWAP3 PUSH2 0xB5A PUSH1 0x40 MLOAD SWAP5 DUP6 PUSH2 0x822 JUMP JUMPDEST DUP2 DUP5 MSTORE PUSH1 0x20 DUP3 DUP5 ADD ADD GT PUSH2 0xEB JUMPI PUSH2 0x3FD SWAP2 PUSH1 0x20 DUP1 DUP6 ADD SWAP2 ADD PUSH2 0x19B JUMP JUMPDEST SWAP1 PUSH1 0x20 SWAP1 DUP2 DUP4 DUP3 SUB SLT PUSH2 0xEB JUMPI DUP3 MLOAD PUSH8 0xFFFFFFFFFFFFFFFF SWAP4 DUP5 DUP3 GT PUSH2 0xEB JUMPI ADD SWAP1 DUP1 PUSH1 0x1F DUP4 ADD SLT ISZERO PUSH2 0xEB JUMPI DUP2 MLOAD PUSH2 0xBB0 DUP2 PUSH2 0xB1E JUMP JUMPDEST SWAP5 PUSH1 0x40 PUSH2 0xBC0 PUSH1 0x40 MLOAD SWAP8 DUP9 PUSH2 0x822 JUMP JUMPDEST DUP3 DUP8 MSTORE DUP6 DUP1 DUP9 ADD SWAP4 PUSH1 0x5 SHL DUP7 ADD ADD SWAP5 DUP5 DUP7 GT PUSH2 0xEB JUMPI DUP7 DUP2 ADD SWAP4 JUMPDEST DUP7 DUP6 LT PUSH2 0xBED JUMPI POP POP POP POP POP POP POP POP SWAP1 JUMP JUMPDEST DUP5 MLOAD DUP5 DUP2 GT PUSH2 0xEB JUMPI DUP3 ADD SWAP1 PUSH1 0x60 SWAP1 DUP2 PUSH1 0x1F NOT DUP5 DUP11 SUB ADD SLT PUSH2 0xEB JUMPI DUP5 MLOAD PUSH2 0xC14 DUP2 PUSH2 0x7E5 JUMP JUMPDEST DUP11 DUP5 ADD MLOAD SWAP3 DUP8 DUP5 GT PUSH2 0xEB JUMPI DUP5 PUSH2 0xC32 DUP12 DUP15 DUP1 SWAP9 SWAP8 DUP2 SWAP9 ADD ADD PUSH2 0xB36 JUMP JUMPDEST DUP4 MSTORE DUP8 DUP2 ADD MLOAD DUP6 DUP5 ADD MSTORE ADD MLOAD DUP7 DUP3 ADD MSTORE DUP2 MSTORE ADD SWAP5 ADD SWAP4 PUSH2 0xBDB JUMP JUMPDEST SWAP1 PUSH2 0xC57 DUP3 PUSH2 0xB1E JUMP JUMPDEST PUSH2 0xC64 PUSH1 0x40 MLOAD SWAP2 DUP3 PUSH2 0x822 JUMP JUMPDEST DUP3 DUP2 MSTORE DUP1 SWAP3 PUSH2 0x888 PUSH1 0x1F NOT SWAP2 PUSH2 0xB1E JUMP JUMPDEST SWAP1 PUSH2 0xC7F DUP3 PUSH2 0xB1E JUMP JUMPDEST PUSH2 0xC8C PUSH1 0x40 MLOAD SWAP2 DUP3 PUSH2 0x822 JUMP JUMPDEST DUP3 DUP2 MSTORE DUP1 SWAP3 PUSH2 0xC9D PUSH1 0x1F NOT SWAP2 PUSH2 0xB1E JUMP JUMPDEST ADD SWAP1 PUSH0 JUMPDEST DUP3 DUP2 LT PUSH2 0xCAD JUMPI POP POP POP JUMP JUMPDEST DUP1 PUSH1 0x60 PUSH1 0x20 DUP1 SWAP4 DUP6 ADD ADD MSTORE ADD PUSH2 0xCA1 JUMP JUMPDEST DUP1 MLOAD DUP3 LT ISZERO PUSH2 0x122 JUMPI PUSH1 0x20 SWAP2 PUSH1 0x5 SHL ADD ADD SWAP1 JUMP JUMPDEST SWAP1 PUSH1 0x20 SWAP1 PUSH1 0x20 DUP4 DUP3 SUB SLT PUSH2 0xEB JUMPI DUP3 MLOAD PUSH8 0xFFFFFFFFFFFFFFFF SWAP4 DUP5 DUP3 GT PUSH2 0xEB JUMPI ADD SWAP3 DUP2 PUSH1 0x1F DUP6 ADD SLT ISZERO PUSH2 0xEB JUMPI PUSH1 0x40 MLOAD SWAP4 PUSH2 0xD0D DUP6 PUSH2 0x806 JUMP JUMPDEST DUP5 SWAP1 PUSH1 0xC0 DUP2 ADD SWAP4 DUP1 DUP6 GT PUSH2 0xEB JUMPI DUP2 SWAP3 JUMPDEST DUP6 DUP5 LT PUSH2 0xD2F JUMPI POP POP POP POP POP POP POP SWAP1 JUMP JUMPDEST DUP4 MLOAD DUP6 DUP2 GT PUSH2 0xEB JUMPI DUP8 SWAP2 PUSH2 0xD47 DUP5 DUP5 SWAP4 DUP8 ADD PUSH2 0xB36 JUMP JUMPDEST DUP2 MSTORE ADD SWAP4 ADD SWAP3 PUSH2 0xD1E JUMP JUMPDEST DUP1 EXTCODESIZE SWAP1 PUSH1 0x1 PUSH0 NOT DUP4 ADD SWAP2 PUSH1 0x40 MLOAD SWAP4 PUSH1 0x3E PUSH1 0x1F NOT SWAP2 ADD AND DUP5 ADD PUSH1 0x40 MSTORE DUP3 DUP5 MSTORE PUSH1 0x20 DUP5 ADD SWAP1 EXTCODECOPY SWAP1 JUMP INVALID 0xB1 0xE 0x2D MSTORE PUSH23 0x12073B26EECDFD717E6A320CF44B4AFAC2B0732D9FCBE2 0xB7 STATICCALL 0xC 0xF6 LOG2 PUSH5 0x6970667358 0x22 SLT KECCAK256 PUSH22 0xF741805A0DBD95552303B88DAA8956E879F8FFBF5C5E 0xCB MSTORE SDIV 0xBF DUP4 SWAP7 0xD6 SWAP4 0x25 PUSH5 0x736F6C6343 STOP ADDMOD XOR STOP CALLER "},"methodIdentifiers":{"HTML_TEMPLATE_ADDRESSES(uint256)":"5057fecb","SPATTERS_CONTRACT()":"ae397c90","STORAGE_ADDRESSES(uint256)":"c3d6e8a9","getHtmlTemplate()":"74004ffd","getHtmlTemplateAddresses()":"f4fc0c65","getHtmlTemplateCount()":"c3383541","getStorageAddress(uint256)":"ed1bebb3","getStorageAddresses()":"e5380755","getStorageCount()":"70059d5f","getTemplateConfig()":"7773736a","getTokenData(uint256)":"b09afec1","readStorageChunk(address)":"5b872111"}}}}}