{
  "_format": "hh-sol-artifact-1",
  "contractName": "SpattersGenerator",
  "sourceName": "contracts/SpattersGenerator.sol",
  "abi": [
    {
      "inputs": [
        {
          "internalType": "address",
          "name": "_spattersContract",
          "type": "address"
        },
        {
          "internalType": "address[]",
          "name": "_storageAddresses",
          "type": "address[]"
        },
        {
          "internalType": "address[]",
          "name": "_htmlTemplateAddresses",
          "type": "address[]"
        }
      ],
      "stateMutability": "nonpayable",
      "type": "constructor"
    },
    {
      "inputs": [
        {
          "internalType": "uint256",
          "name": "",
          "type": "uint256"
        }
      ],
      "name": "HTML_TEMPLATE_ADDRESSES",
      "outputs": [
        {
          "internalType": "address",
          "name": "",
          "type": "address"
        }
      ],
      "stateMutability": "view",
      "type": "function"
    },
    {
      "inputs": [],
      "name": "SPATTERS_CONTRACT",
      "outputs": [
        {
          "internalType": "address",
          "name": "",
          "type": "address"
        }
      ],
      "stateMutability": "view",
      "type": "function"
    },
    {
      "inputs": [
        {
          "internalType": "uint256",
          "name": "",
          "type": "uint256"
        }
      ],
      "name": "STORAGE_ADDRESSES",
      "outputs": [
        {
          "internalType": "address",
          "name": "",
          "type": "address"
        }
      ],
      "stateMutability": "view",
      "type": "function"
    },
    {
      "inputs": [],
      "name": "getHtmlTemplate",
      "outputs": [
        {
          "internalType": "string",
          "name": "",
          "type": "string"
        }
      ],
      "stateMutability": "view",
      "type": "function"
    },
    {
      "inputs": [],
      "name": "getHtmlTemplateAddresses",
      "outputs": [
        {
          "internalType": "address[]",
          "name": "",
          "type": "address[]"
        }
      ],
      "stateMutability": "view",
      "type": "function"
    },
    {
      "inputs": [],
      "name": "getHtmlTemplateCount",
      "outputs": [
        {
          "internalType": "uint256",
          "name": "",
          "type": "uint256"
        }
      ],
      "stateMutability": "view",
      "type": "function"
    },
    {
      "inputs": [
        {
          "internalType": "uint256",
          "name": "index",
          "type": "uint256"
        }
      ],
      "name": "getStorageAddress",
      "outputs": [
        {
          "internalType": "address",
          "name": "",
          "type": "address"
        }
      ],
      "stateMutability": "view",
      "type": "function"
    },
    {
      "inputs": [],
      "name": "getStorageAddresses",
      "outputs": [
        {
          "internalType": "address[]",
          "name": "",
          "type": "address[]"
        }
      ],
      "stateMutability": "view",
      "type": "function"
    },
    {
      "inputs": [],
      "name": "getStorageCount",
      "outputs": [
        {
          "internalType": "uint256",
          "name": "",
          "type": "uint256"
        }
      ],
      "stateMutability": "view",
      "type": "function"
    },
    {
      "inputs": [],
      "name": "getTemplateConfig",
      "outputs": [
        {
          "internalType": "address",
          "name": "spattersContract",
          "type": "address"
        },
        {
          "internalType": "address",
          "name": "generatorContract",
          "type": "address"
        },
        {
          "internalType": "address[]",
          "name": "storageAddresses",
          "type": "address[]"
        },
        {
          "internalType": "address[]",
          "name": "templateAddresses",
          "type": "address[]"
        }
      ],
      "stateMutability": "view",
      "type": "function"
    },
    {
      "inputs": [
        {
          "internalType": "uint256",
          "name": "tokenId",
          "type": "uint256"
        }
      ],
      "name": "getTokenData",
      "outputs": [
        {
          "internalType": "bytes32",
          "name": "seed",
          "type": "bytes32"
        },
        {
          "internalType": "bytes32[]",
          "name": "mutationSeeds",
          "type": "bytes32[]"
        },
        {
          "internalType": "string[]",
          "name": "mutationTypes",
          "type": "string[]"
        },
        {
          "internalType": "string[6]",
          "name": "customPalette",
          "type": "string[6]"
        }
      ],
      "stateMutability": "view",
      "type": "function"
    },
    {
      "inputs": [
        {
          "internalType": "address",
          "name": "storageAddress",
          "type": "address"
        }
      ],
      "name": "readStorageChunk",
      "outputs": [
        {
          "internalType": "bytes",
          "name": "",
          "type": "bytes"
        }
      ],
      "stateMutability": "view",
      "type": "function"
    }
  ],
  "bytecode": "0x604060a08152346200038b576200123690813803806200001f816200038f565b9384398201906060838303126200038b576200003b83620003b5565b6020848101516001600160401b0395919491908681116200038b578262000064918301620003ca565b91848201518781116200038b576200007d9201620003ca565b6001600160a01b0392908382161562000347578251156200030357805115620002bf575f5b83518110156200010e5784620000b982866200043d565b511615620000ca57600101620000a2565b855162461bcd60e51b815260048101889052601760248201527f496e76616c69642073746f7261676520616464726573730000000000000000006044820152606490fd5b50919590955f5b83518110156200018157846200012c82866200043d565b5116156200013d5760010162000115565b855162461bcd60e51b815260048101889052601860248201527f496e76616c69642074656d706c617465206164647265737300000000000000006044820152606490fd5b50849386918860805280518481116200026b5768010000000000000000918282116200026b5784905f54835f5580841062000294575b50015f8052845f205f5b8381106200027f575050505084519384116200026b5783116200026b578160019485548587558086106200023e575b500191845f52805f20915f5b8581106200022a578751610dcf90816200046782396080518181816102c90152818161032501526104790152f35b8451821684820155938201938601620001fc565b865f528686845f2092830192015b8281106200025c575050620001f0565b5f81558694508891016200024c565b634e487b7160e01b5f52604160045260245ffd5b825186168282015591860191600101620001c1565b5f805283835f2091820191015b818110620002b05750620001b7565b5f8155879350600101620002a1565b845162461bcd60e51b815260048101879052601f60248201527f4d7573742070726f766964652074656d706c61746520616464726573736573006044820152606490fd5b845162461bcd60e51b815260048101879052601e60248201527f4d7573742070726f766964652073746f726167652061646472657373657300006044820152606490fd5b845162461bcd60e51b815260048101879052601960248201527f496e76616c696420737061747465727320636f6e7472616374000000000000006044820152606490fd5b5f80fd5b6040519190601f01601f191682016001600160401b038111838210176200026b57604052565b51906001600160a01b03821682036200038b57565b81601f820112156200038b578051916020916001600160401b0384116200026b578360051b908380620003ff8185016200038f565b8097815201928201019283116200038b578301905b82821062000423575050505090565b8380916200043184620003b5565b81520191019062000414565b8051821015620004525760209160051b010190565b634e487b7160e01b5f52603260045260245ffdfe60806040526004361015610011575f80fd5b5f3560e01c80635057fecb146100d45780635b872111146100cf57806370059d5f146100ca57806374004ffd146100c55780637773736a146100c0578063ae397c90146100bb578063b09afec1146100b6578063c3383541146100b1578063c3d6e8a9146100ac578063e5380755146100a7578063ed1bebb3146100a25763f4fc0c651461009d575f80fd5b610795565b610708565b6106d9565b610687565b61066a565b610441565b610310565b610294565b61023d565b610221565b6101e1565b610149565b60209060031901126100eb5760043590565b5f80fd5b634e487b7160e01b5f52603260045260245ffd5b600154156101225760015f525f80516020610d7a833981519152905f90565b6100ef565b6001548110156101225760015f525f80516020610d7a83398151915201905f90565b346100eb57610157366100d9565b6001548110156100eb5760015f525f80516020610d7a83398151915201546040516001600160a01b039091168152602090f35b6001600160a01b038116036100eb57565b5f5b8381106101ac5750505f910152565b818101518382015260200161019d565b906020916101d58151809281855285808601910161019b565b601f01601f1916010190565b346100eb5760203660031901126100eb5761021d6102096004356102048161018a565b610d52565b6040519182916020835260208301906101bc565b0390f35b346100eb575f3660031901126100eb5760205f54604051908152f35b346100eb575f3660031901126100eb5761021d6102096108a3565b9081518082526020808093019301915f5b828110610277575050505090565b83516001600160a01b031685529381019392810192600101610269565b346100eb575f3660031901126100eb576103026102af6109a2565b61021d6102ba610a17565b60405193849360018060a01b037f0000000000000000000000000000000000000000000000000000000000000000168552306020860152608060408601526080850190610258565b908382036060850152610258565b346100eb575f3660031901126100eb576040517f00000000000000000000000000000000000000000000000000000000000000006001600160a01b03168152602090f35b60c0820191805f5b6006811061036b575050505090565b90919293610381818560019303855286516101bc565b946020908101949301910161035c565b90949391946080820190825260209060808284015286518091528160a084019701905f5b81811061042d5750505081860360408301528351808752600581901b87018201948201915f8189015b8382106104005750505050506103fd9394506060818403910152610354565b90565b9091929396838061041e6001938d601f199082030186528b516101bc565b990192019201909392916103de565b8251895297830197918301916001016103b5565b346100eb5761044f366100d9565b610457610a7b565b50604080516331a9108f60e11b81526004810183905290916001600160a01b037f00000000000000000000000000000000000000000000000000000000000000008116926020918282602481885afa80156105e2576104c0925f9161063b575b50161515610ac5565b83516327b2595f60e11b815260048101839052908482602481875afa9182156105e2575f9261060b575b5084516326985f4360e21b815260048101849052915f83602481885afa9283156105e2575f936105e7575b506105208351610c4d565b9561052b8451610c75565b945f5b855181101561057b57808561054560019389610cbe565b510151610552828c610cbe565b5261055d8188610cbe565b5151610569828a610cbe565b526105748189610cbe565b500161052e565b825163358250f160e11b81526004810183905289908590858a5f838e81806024810103915afa9182156105e25761021d935f936105be575b505194859485610391565b6105db9193503d805f833e6105d38183610822565b810190610cd2565b91866105b3565b610aba565b6106049193503d805f833e6105fc8183610822565b810190610b78565b915f610515565b61062c919250853d8711610634575b6106248183610822565b810190610b08565b50905f6104ea565b503d61061a565b61065d915060203d602011610663575b6106558183610822565b810190610aa5565b5f6104b7565b503d61064b565b346100eb575f3660031901126100eb576020600154604051908152f35b346100eb57610695366100d9565b5f548110156100eb575f80527f290decd9548b62a8d60345a988386fc84ba6bc95484008f6362f93160ef3e56301546040516001600160a01b039091168152602090f35b346100eb575f3660031901126100eb5761021d6106f46109a2565b604051918291602083526020830190610258565b346100eb57610716366100d9565b5f5481101561075a575f80527f290decd9548b62a8d60345a988386fc84ba6bc95484008f6362f93160ef3e56301546040516001600160a01b039091168152602090f35b60405162461bcd60e51b8152602060048201526013602482015272496e646578206f7574206f6620626f756e647360681b6044820152606490fd5b346100eb575f3660031901126100eb5761021d6106f4610a17565b919082018092116107bd57565b634e487b7160e01b5f52601160045260245ffd5b634e487b7160e01b5f52604160045260245ffd5b6060810190811067ffffffffffffffff82111761080157604052565b6107d1565b60c0810190811067ffffffffffffffff82111761080157604052565b90601f8019910116810190811067ffffffffffffffff82111761080157604052565b67ffffffffffffffff811161080157601f01601f191660200190565b9061086a82610844565b6108776040519182610822565b8281528092610888601f1991610844565b0190602036910137565b908151811015610122570160200190565b6001805490808214610992575f805b8284831061096f57506108c59150610860565b915f805b8282106108d7575050505090565b8380916108fe6102046108e986610127565b905460039190911b1c6001600160a01b031690565b5f935b61091b575b61091392935051906107b0565b9101906108c9565b91909282518110156109665780610944610936849386610892565b516001600160f81b03191690565b61095b61095183886107b0565b915f1a918b610892565b530192909182610901565b50908290610906565b9061098a906109836102046108e986610127565b51906107b0565b9101906108b2565b50506103fd6102046108e9610103565b604051905f548083528260209160208201905f80527f290decd9548b62a8d60345a988386fc84ba6bc95484008f6362f93160ef3e563935f905b8282106109f4575050506109f292500383610822565b565b85546001600160a01b0316845260019586019588955093810193909101906109dc565b60405190816001805490818352602090602084019260015f525f80516020610d7a833981519152925f905b828210610a5a575050505050906109f2910383610822565b84546001600160a01b03168652889650948501949383019390830190610a42565b60405190610a8882610806565b815f5b60c08110610a97575050565b606082820152602001610a8b565b908160209103126100eb57516103fd8161018a565b6040513d5f823e3d90fd5b15610acc57565b60405162461bcd60e51b8152602060048201526014602482015273151bdad95b88191bd95cc81b9bdd08195e1a5cdd60621b6044820152606490fd5b91908260409103126100eb576020825192015190565b67ffffffffffffffff81116108015760051b60200190565b81601f820112156100eb578051610b4c81610844565b92610b5a6040519485610822565b818452602082840101116100eb576103fd916020808501910161019b565b9060209081838203126100eb57825167ffffffffffffffff938482116100eb57019080601f830112156100eb578151610bb081610b1e565b946040610bc06040519788610822565b828752858088019360051b860101948486116100eb57868101935b868510610bed57505050505050505090565b84518481116100eb5782019060609081601f19848a0301126100eb578451610c14816107e5565b8a840151928784116100eb5784610c328b8e80989781980101610b36565b83528781015185840152015186820152815201940193610bdb565b90610c5782610b1e565b610c646040519182610822565b8281528092610888601f1991610b1e565b90610c7f82610b1e565b610c8c6040519182610822565b8281528092610c9d601f1991610b1e565b01905f5b828110610cad57505050565b806060602080938501015201610ca1565b80518210156101225760209160051b010190565b906020906020838203126100eb57825167ffffffffffffffff938482116100eb57019281601f850112156100eb5760405193610d0d85610806565b849060c08101938085116100eb5781925b858410610d2f575050505050505090565b83518581116100eb578791610d478484938701610b36565b815201930192610d1e565b803b9060015f1983019160405193603e601f19910116840160405282845260208401903c9056feb10e2d527612073b26eecdfd717e6a320cf44b4afac2b0732d9fcbe2b7fa0cf6a264697066735822122075f741805a0dbd95552303b88daa8956e879f8ffbf5c5ecb5205bf8396d6932564736f6c63430008180033",
  "linkReferences": {},
  "deployedLinkReferences": {}
}