{
  "_format": "hh-sol-artifact-1",
  "contractName": "Spatters",
  "sourceName": "contracts/Spatters.sol",
  "abi": [
    {
      "inputs": [],
      "stateMutability": "nonpayable",
      "type": "constructor"
    },
    {
      "inputs": [],
      "name": "ERC721EnumerableForbiddenBatchMint",
      "type": "error"
    },
    {
      "inputs": [
        {
          "internalType": "address",
          "name": "sender",
          "type": "address"
        },
        {
          "internalType": "uint256",
          "name": "tokenId",
          "type": "uint256"
        },
        {
          "internalType": "address",
          "name": "owner",
          "type": "address"
        }
      ],
      "name": "ERC721IncorrectOwner",
      "type": "error"
    },
    {
      "inputs": [
        {
          "internalType": "address",
          "name": "operator",
          "type": "address"
        },
        {
          "internalType": "uint256",
          "name": "tokenId",
          "type": "uint256"
        }
      ],
      "name": "ERC721InsufficientApproval",
      "type": "error"
    },
    {
      "inputs": [
        {
          "internalType": "address",
          "name": "approver",
          "type": "address"
        }
      ],
      "name": "ERC721InvalidApprover",
      "type": "error"
    },
    {
      "inputs": [
        {
          "internalType": "address",
          "name": "operator",
          "type": "address"
        }
      ],
      "name": "ERC721InvalidOperator",
      "type": "error"
    },
    {
      "inputs": [
        {
          "internalType": "address",
          "name": "owner",
          "type": "address"
        }
      ],
      "name": "ERC721InvalidOwner",
      "type": "error"
    },
    {
      "inputs": [
        {
          "internalType": "address",
          "name": "receiver",
          "type": "address"
        }
      ],
      "name": "ERC721InvalidReceiver",
      "type": "error"
    },
    {
      "inputs": [
        {
          "internalType": "address",
          "name": "sender",
          "type": "address"
        }
      ],
      "name": "ERC721InvalidSender",
      "type": "error"
    },
    {
      "inputs": [
        {
          "internalType": "uint256",
          "name": "tokenId",
          "type": "uint256"
        }
      ],
      "name": "ERC721NonexistentToken",
      "type": "error"
    },
    {
      "inputs": [
        {
          "internalType": "address",
          "name": "owner",
          "type": "address"
        },
        {
          "internalType": "uint256",
          "name": "index",
          "type": "uint256"
        }
      ],
      "name": "ERC721OutOfBoundsIndex",
      "type": "error"
    },
    {
      "inputs": [
        {
          "internalType": "address",
          "name": "owner",
          "type": "address"
        }
      ],
      "name": "OwnableInvalidOwner",
      "type": "error"
    },
    {
      "inputs": [
        {
          "internalType": "address",
          "name": "account",
          "type": "address"
        }
      ],
      "name": "OwnableUnauthorizedAccount",
      "type": "error"
    },
    {
      "inputs": [],
      "name": "ReentrancyGuardReentrantCall",
      "type": "error"
    },
    {
      "anonymous": false,
      "inputs": [
        {
          "indexed": false,
          "internalType": "uint256",
          "name": "newBanGeneration",
          "type": "uint256"
        }
      ],
      "name": "AllProposalBansCleared",
      "type": "event"
    },
    {
      "anonymous": false,
      "inputs": [
        {
          "indexed": true,
          "internalType": "address",
          "name": "owner",
          "type": "address"
        },
        {
          "indexed": true,
          "internalType": "address",
          "name": "approved",
          "type": "address"
        },
        {
          "indexed": true,
          "internalType": "uint256",
          "name": "tokenId",
          "type": "uint256"
        }
      ],
      "name": "Approval",
      "type": "event"
    },
    {
      "anonymous": false,
      "inputs": [
        {
          "indexed": true,
          "internalType": "address",
          "name": "owner",
          "type": "address"
        },
        {
          "indexed": true,
          "internalType": "address",
          "name": "operator",
          "type": "address"
        },
        {
          "indexed": false,
          "internalType": "bool",
          "name": "approved",
          "type": "bool"
        }
      ],
      "name": "ApprovalForAll",
      "type": "event"
    },
    {
      "anonymous": false,
      "inputs": [
        {
          "indexed": false,
          "internalType": "string",
          "name": "newURI",
          "type": "string"
        }
      ],
      "name": "BaseURIUpdatedByCommunity",
      "type": "event"
    },
    {
      "anonymous": false,
      "inputs": [
        {
          "indexed": false,
          "internalType": "string",
          "name": "newURI",
          "type": "string"
        }
      ],
      "name": "BaseURIUpdatedByOwner",
      "type": "event"
    },
    {
      "anonymous": false,
      "inputs": [
        {
          "indexed": true,
          "internalType": "address",
          "name": "oldGenerator",
          "type": "address"
        },
        {
          "indexed": true,
          "internalType": "address",
          "name": "newGenerator",
          "type": "address"
        }
      ],
      "name": "GeneratorContractUpdated",
      "type": "event"
    },
    {
      "anonymous": false,
      "inputs": [
        {
          "indexed": true,
          "internalType": "address",
          "name": "lockedGenerator",
          "type": "address"
        }
      ],
      "name": "GeneratorPermanentlyLocked",
      "type": "event"
    },
    {
      "anonymous": false,
      "inputs": [
        {
          "indexed": true,
          "internalType": "address",
          "name": "requester",
          "type": "address"
        },
        {
          "indexed": false,
          "internalType": "bytes32[3]",
          "name": "seeds",
          "type": "bytes32[3]"
        },
        {
          "indexed": false,
          "internalType": "uint256",
          "name": "timestamp",
          "type": "uint256"
        },
        {
          "indexed": false,
          "internalType": "bool",
          "name": "isOwnerMint",
          "type": "bool"
        }
      ],
      "name": "MintRequested",
      "type": "event"
    },
    {
      "anonymous": false,
      "inputs": [
        {
          "indexed": true,
          "internalType": "uint256",
          "name": "tokenId",
          "type": "uint256"
        },
        {
          "indexed": true,
          "internalType": "address",
          "name": "minter",
          "type": "address"
        },
        {
          "indexed": false,
          "internalType": "bytes32",
          "name": "seed",
          "type": "bytes32"
        },
        {
          "indexed": false,
          "internalType": "bool",
          "name": "hasCustomPalette",
          "type": "bool"
        },
        {
          "indexed": false,
          "internalType": "uint256",
          "name": "timestamp",
          "type": "uint256"
        }
      ],
      "name": "Minted",
      "type": "event"
    },
    {
      "anonymous": false,
      "inputs": [
        {
          "indexed": true,
          "internalType": "uint256",
          "name": "tokenId",
          "type": "uint256"
        },
        {
          "indexed": true,
          "internalType": "uint256",
          "name": "mutationIndex",
          "type": "uint256"
        },
        {
          "indexed": false,
          "internalType": "string",
          "name": "mutationType",
          "type": "string"
        },
        {
          "indexed": false,
          "internalType": "bytes32",
          "name": "seed",
          "type": "bytes32"
        },
        {
          "indexed": false,
          "internalType": "uint256",
          "name": "timestamp",
          "type": "uint256"
        }
      ],
      "name": "Mutated",
      "type": "event"
    },
    {
      "anonymous": false,
      "inputs": [
        {
          "indexed": true,
          "internalType": "address",
          "name": "previousOwner",
          "type": "address"
        },
        {
          "indexed": true,
          "internalType": "address",
          "name": "newOwner",
          "type": "address"
        }
      ],
      "name": "OwnershipTransferred",
      "type": "event"
    },
    {
      "anonymous": false,
      "inputs": [
        {
          "indexed": true,
          "internalType": "address",
          "name": "proposer",
          "type": "address"
        },
        {
          "indexed": false,
          "internalType": "string",
          "name": "proposedURI",
          "type": "string"
        },
        {
          "indexed": false,
          "internalType": "uint256",
          "name": "timestamp",
          "type": "uint256"
        },
        {
          "indexed": false,
          "internalType": "uint256",
          "name": "proposerTokenId",
          "type": "uint256"
        }
      ],
      "name": "ProposalCreated",
      "type": "event"
    },
    {
      "anonymous": false,
      "inputs": [
        {
          "indexed": false,
          "internalType": "string",
          "name": "proposedURI",
          "type": "string"
        },
        {
          "indexed": false,
          "internalType": "uint256",
          "name": "proposerTokenId",
          "type": "uint256"
        }
      ],
      "name": "ProposalExpired",
      "type": "event"
    },
    {
      "anonymous": false,
      "inputs": [
        {
          "indexed": false,
          "internalType": "string",
          "name": "lockedURI",
          "type": "string"
        }
      ],
      "name": "ProposalLocked",
      "type": "event"
    },
    {
      "anonymous": false,
      "inputs": [
        {
          "indexed": false,
          "internalType": "string",
          "name": "proposedURI",
          "type": "string"
        },
        {
          "indexed": false,
          "internalType": "uint256",
          "name": "timestamp",
          "type": "uint256"
        }
      ],
      "name": "ProposalThresholdReached",
      "type": "event"
    },
    {
      "anonymous": false,
      "inputs": [
        {
          "indexed": true,
          "internalType": "address",
          "name": "newReceiver",
          "type": "address"
        }
      ],
      "name": "RoyaltyReceiverUpdated",
      "type": "event"
    },
    {
      "anonymous": false,
      "inputs": [
        {
          "indexed": true,
          "internalType": "uint256",
          "name": "tokenId",
          "type": "uint256"
        }
      ],
      "name": "TokenBannedFromProposing",
      "type": "event"
    },
    {
      "anonymous": false,
      "inputs": [
        {
          "indexed": true,
          "internalType": "address",
          "name": "from",
          "type": "address"
        },
        {
          "indexed": true,
          "internalType": "address",
          "name": "to",
          "type": "address"
        },
        {
          "indexed": true,
          "internalType": "uint256",
          "name": "tokenId",
          "type": "uint256"
        }
      ],
      "name": "Transfer",
      "type": "event"
    },
    {
      "anonymous": false,
      "inputs": [
        {
          "indexed": true,
          "internalType": "address",
          "name": "voter",
          "type": "address"
        },
        {
          "indexed": false,
          "internalType": "uint256",
          "name": "tokenCount",
          "type": "uint256"
        }
      ],
      "name": "VoteCast",
      "type": "event"
    },
    {
      "inputs": [],
      "name": "CONFIRMATION_WINDOW",
      "outputs": [
        {
          "internalType": "uint256",
          "name": "",
          "type": "uint256"
        }
      ],
      "stateMutability": "view",
      "type": "function"
    },
    {
      "inputs": [],
      "name": "GLOBAL_COOLDOWN",
      "outputs": [
        {
          "internalType": "uint256",
          "name": "",
          "type": "uint256"
        }
      ],
      "stateMutability": "view",
      "type": "function"
    },
    {
      "inputs": [],
      "name": "GOVERNANCE_DELAY",
      "outputs": [
        {
          "internalType": "uint256",
          "name": "",
          "type": "uint256"
        }
      ],
      "stateMutability": "view",
      "type": "function"
    },
    {
      "inputs": [],
      "name": "MAX_SUPPLY",
      "outputs": [
        {
          "internalType": "uint256",
          "name": "",
          "type": "uint256"
        }
      ],
      "stateMutability": "view",
      "type": "function"
    },
    {
      "inputs": [],
      "name": "MILESTONE_100",
      "outputs": [
        {
          "internalType": "uint256",
          "name": "",
          "type": "uint256"
        }
      ],
      "stateMutability": "view",
      "type": "function"
    },
    {
      "inputs": [],
      "name": "MILESTONE_500",
      "outputs": [
        {
          "internalType": "uint256",
          "name": "",
          "type": "uint256"
        }
      ],
      "stateMutability": "view",
      "type": "function"
    },
    {
      "inputs": [],
      "name": "MILESTONE_750",
      "outputs": [
        {
          "internalType": "uint256",
          "name": "",
          "type": "uint256"
        }
      ],
      "stateMutability": "view",
      "type": "function"
    },
    {
      "inputs": [],
      "name": "MILESTONE_999",
      "outputs": [
        {
          "internalType": "uint256",
          "name": "",
          "type": "uint256"
        }
      ],
      "stateMutability": "view",
      "type": "function"
    },
    {
      "inputs": [],
      "name": "OWNER_RESERVE",
      "outputs": [
        {
          "internalType": "uint256",
          "name": "",
          "type": "uint256"
        }
      ],
      "stateMutability": "view",
      "type": "function"
    },
    {
      "inputs": [],
      "name": "PROPOSAL_COOLDOWN",
      "outputs": [
        {
          "internalType": "uint256",
          "name": "",
          "type": "uint256"
        }
      ],
      "stateMutability": "view",
      "type": "function"
    },
    {
      "inputs": [],
      "name": "REQUEST_EXPIRATION",
      "outputs": [
        {
          "internalType": "uint256",
          "name": "",
          "type": "uint256"
        }
      ],
      "stateMutability": "view",
      "type": "function"
    },
    {
      "inputs": [],
      "name": "ROYALTY_BPS",
      "outputs": [
        {
          "internalType": "uint96",
          "name": "",
          "type": "uint96"
        }
      ],
      "stateMutability": "view",
      "type": "function"
    },
    {
      "inputs": [],
      "name": "VOTING_PERIOD",
      "outputs": [
        {
          "internalType": "uint256",
          "name": "",
          "type": "uint256"
        }
      ],
      "stateMutability": "view",
      "type": "function"
    },
    {
      "inputs": [],
      "name": "activeMintRequestTime",
      "outputs": [
        {
          "internalType": "uint256",
          "name": "",
          "type": "uint256"
        }
      ],
      "stateMutability": "view",
      "type": "function"
    },
    {
      "inputs": [],
      "name": "activeMintRequester",
      "outputs": [
        {
          "internalType": "address",
          "name": "",
          "type": "address"
        }
      ],
      "stateMutability": "view",
      "type": "function"
    },
    {
      "inputs": [
        {
          "internalType": "uint256",
          "name": "",
          "type": "uint256"
        }
      ],
      "name": "allowedMutations",
      "outputs": [
        {
          "internalType": "string",
          "name": "",
          "type": "string"
        }
      ],
      "stateMutability": "view",
      "type": "function"
    },
    {
      "inputs": [
        {
          "internalType": "address",
          "name": "to",
          "type": "address"
        },
        {
          "internalType": "uint256",
          "name": "tokenId",
          "type": "uint256"
        }
      ],
      "name": "approve",
      "outputs": [],
      "stateMutability": "nonpayable",
      "type": "function"
    },
    {
      "inputs": [],
      "name": "approveProposal",
      "outputs": [],
      "stateMutability": "nonpayable",
      "type": "function"
    },
    {
      "inputs": [
        {
          "internalType": "address",
          "name": "owner",
          "type": "address"
        }
      ],
      "name": "balanceOf",
      "outputs": [
        {
          "internalType": "uint256",
          "name": "",
          "type": "uint256"
        }
      ],
      "stateMutability": "view",
      "type": "function"
    },
    {
      "inputs": [],
      "name": "banGeneration",
      "outputs": [
        {
          "internalType": "uint256",
          "name": "",
          "type": "uint256"
        }
      ],
      "stateMutability": "view",
      "type": "function"
    },
    {
      "inputs": [],
      "name": "baseURI",
      "outputs": [
        {
          "internalType": "string",
          "name": "",
          "type": "string"
        }
      ],
      "stateMutability": "view",
      "type": "function"
    },
    {
      "inputs": [
        {
          "internalType": "uint256",
          "name": "tokenId",
          "type": "uint256"
        }
      ],
      "name": "canMutate",
      "outputs": [
        {
          "internalType": "bool",
          "name": "",
          "type": "bool"
        }
      ],
      "stateMutability": "view",
      "type": "function"
    },
    {
      "inputs": [
        {
          "internalType": "uint8",
          "name": "seedChoice",
          "type": "uint8"
        }
      ],
      "name": "completeMint",
      "outputs": [],
      "stateMutability": "nonpayable",
      "type": "function"
    },
    {
      "inputs": [
        {
          "internalType": "uint8",
          "name": "seedChoice",
          "type": "uint8"
        }
      ],
      "name": "completeOwnerMint",
      "outputs": [],
      "stateMutability": "nonpayable",
      "type": "function"
    },
    {
      "inputs": [],
      "name": "confirmProposal",
      "outputs": [],
      "stateMutability": "nonpayable",
      "type": "function"
    },
    {
      "inputs": [],
      "name": "currentProposal",
      "outputs": [
        {
          "internalType": "address",
          "name": "proposer",
          "type": "address"
        },
        {
          "internalType": "string",
          "name": "proposedBaseURI",
          "type": "string"
        },
        {
          "internalType": "uint256",
          "name": "proposalTime",
          "type": "uint256"
        },
        {
          "internalType": "uint256",
          "name": "totalVotesWeight",
          "type": "uint256"
        },
        {
          "internalType": "bool",
          "name": "locked",
          "type": "bool"
        },
        {
          "internalType": "bool",
          "name": "thresholdReached",
          "type": "bool"
        },
        {
          "internalType": "uint256",
          "name": "thresholdReachedTime",
          "type": "uint256"
        },
        {
          "internalType": "bool",
          "name": "executed",
          "type": "bool"
        },
        {
          "internalType": "uint256",
          "name": "proposerTokenId",
          "type": "uint256"
        }
      ],
      "stateMutability": "view",
      "type": "function"
    },
    {
      "inputs": [
        {
          "internalType": "uint256",
          "name": "",
          "type": "uint256"
        },
        {
          "internalType": "uint256",
          "name": "",
          "type": "uint256"
        }
      ],
      "name": "customPalettes",
      "outputs": [
        {
          "internalType": "string",
          "name": "",
          "type": "string"
        }
      ],
      "stateMutability": "view",
      "type": "function"
    },
    {
      "inputs": [],
      "name": "deploymentTime",
      "outputs": [
        {
          "internalType": "uint256",
          "name": "",
          "type": "uint256"
        }
      ],
      "stateMutability": "view",
      "type": "function"
    },
    {
      "inputs": [],
      "name": "generatorContract",
      "outputs": [
        {
          "internalType": "address",
          "name": "",
          "type": "address"
        }
      ],
      "stateMutability": "view",
      "type": "function"
    },
    {
      "inputs": [],
      "name": "generatorLocked",
      "outputs": [
        {
          "internalType": "bool",
          "name": "",
          "type": "bool"
        }
      ],
      "stateMutability": "view",
      "type": "function"
    },
    {
      "inputs": [],
      "name": "getAllowedMutations",
      "outputs": [
        {
          "internalType": "string[]",
          "name": "",
          "type": "string[]"
        }
      ],
      "stateMutability": "view",
      "type": "function"
    },
    {
      "inputs": [
        {
          "internalType": "uint256",
          "name": "tokenId",
          "type": "uint256"
        }
      ],
      "name": "getApproved",
      "outputs": [
        {
          "internalType": "address",
          "name": "",
          "type": "address"
        }
      ],
      "stateMutability": "view",
      "type": "function"
    },
    {
      "inputs": [],
      "name": "getCurrentPrice",
      "outputs": [
        {
          "internalType": "uint256",
          "name": "",
          "type": "uint256"
        }
      ],
      "stateMutability": "view",
      "type": "function"
    },
    {
      "inputs": [],
      "name": "getCurrentProposal",
      "outputs": [
        {
          "components": [
            {
              "internalType": "address",
              "name": "proposer",
              "type": "address"
            },
            {
              "internalType": "string",
              "name": "proposedBaseURI",
              "type": "string"
            },
            {
              "internalType": "uint256",
              "name": "proposalTime",
              "type": "uint256"
            },
            {
              "internalType": "uint256",
              "name": "totalVotesWeight",
              "type": "uint256"
            },
            {
              "internalType": "bool",
              "name": "locked",
              "type": "bool"
            },
            {
              "internalType": "bool",
              "name": "thresholdReached",
              "type": "bool"
            },
            {
              "internalType": "uint256",
              "name": "thresholdReachedTime",
              "type": "uint256"
            },
            {
              "internalType": "bool",
              "name": "executed",
              "type": "bool"
            },
            {
              "internalType": "uint256",
              "name": "proposerTokenId",
              "type": "uint256"
            }
          ],
          "internalType": "struct Spatters.CommunityProposal",
          "name": "",
          "type": "tuple"
        }
      ],
      "stateMutability": "view",
      "type": "function"
    },
    {
      "inputs": [
        {
          "internalType": "uint256",
          "name": "tokenId",
          "type": "uint256"
        }
      ],
      "name": "getCustomPalette",
      "outputs": [
        {
          "internalType": "string[6]",
          "name": "",
          "type": "string[6]"
        }
      ],
      "stateMutability": "view",
      "type": "function"
    },
    {
      "inputs": [],
      "name": "getPendingRequest",
      "outputs": [
        {
          "components": [
            {
              "internalType": "bytes32[3]",
              "name": "seeds",
              "type": "bytes32[3]"
            },
            {
              "internalType": "uint256",
              "name": "timestamp",
              "type": "uint256"
            },
            {
              "internalType": "bool",
              "name": "completed",
              "type": "bool"
            },
            {
              "internalType": "bool",
              "name": "isOwnerMint",
              "type": "bool"
            },
            {
              "internalType": "bool",
              "name": "hasCustomPalette",
              "type": "bool"
            }
          ],
          "internalType": "struct Spatters.MintRequest",
          "name": "",
          "type": "tuple"
        }
      ],
      "stateMutability": "view",
      "type": "function"
    },
    {
      "inputs": [
        {
          "internalType": "uint256",
          "name": "tokenId",
          "type": "uint256"
        }
      ],
      "name": "getTokenMutations",
      "outputs": [
        {
          "components": [
            {
              "internalType": "string",
              "name": "mutationType",
              "type": "string"
            },
            {
              "internalType": "bytes32",
              "name": "seed",
              "type": "bytes32"
            },
            {
              "internalType": "uint256",
              "name": "timestamp",
              "type": "uint256"
            }
          ],
          "internalType": "struct Spatters.MutationRecord[]",
          "name": "",
          "type": "tuple[]"
        }
      ],
      "stateMutability": "view",
      "type": "function"
    },
    {
      "inputs": [
        {
          "internalType": "uint256",
          "name": "tokenId",
          "type": "uint256"
        }
      ],
      "name": "hasTokenVoted",
      "outputs": [
        {
          "internalType": "bool",
          "name": "",
          "type": "bool"
        }
      ],
      "stateMutability": "view",
      "type": "function"
    },
    {
      "inputs": [
        {
          "internalType": "address",
          "name": "owner",
          "type": "address"
        },
        {
          "internalType": "address",
          "name": "operator",
          "type": "address"
        }
      ],
      "name": "isApprovedForAll",
      "outputs": [
        {
          "internalType": "bool",
          "name": "",
          "type": "bool"
        }
      ],
      "stateMutability": "view",
      "type": "function"
    },
    {
      "inputs": [],
      "name": "isMintSelectionInProgress",
      "outputs": [
        {
          "internalType": "bool",
          "name": "active",
          "type": "bool"
        },
        {
          "internalType": "address",
          "name": "requester",
          "type": "address"
        },
        {
          "internalType": "uint256",
          "name": "expiresAt",
          "type": "uint256"
        }
      ],
      "stateMutability": "view",
      "type": "function"
    },
    {
      "inputs": [
        {
          "internalType": "uint256",
          "name": "tokenId",
          "type": "uint256"
        }
      ],
      "name": "isTokenBanned",
      "outputs": [
        {
          "internalType": "bool",
          "name": "",
          "type": "bool"
        }
      ],
      "stateMutability": "view",
      "type": "function"
    },
    {
      "inputs": [],
      "name": "lastGlobalMintTime",
      "outputs": [
        {
          "internalType": "uint256",
          "name": "",
          "type": "uint256"
        }
      ],
      "stateMutability": "view",
      "type": "function"
    },
    {
      "inputs": [
        {
          "internalType": "uint256",
          "name": "",
          "type": "uint256"
        }
      ],
      "name": "lastMutationDay",
      "outputs": [
        {
          "internalType": "uint256",
          "name": "",
          "type": "uint256"
        }
      ],
      "stateMutability": "view",
      "type": "function"
    },
    {
      "inputs": [],
      "name": "lastProposalTime",
      "outputs": [
        {
          "internalType": "uint256",
          "name": "",
          "type": "uint256"
        }
      ],
      "stateMutability": "view",
      "type": "function"
    },
    {
      "inputs": [],
      "name": "lockGenerator",
      "outputs": [],
      "stateMutability": "nonpayable",
      "type": "function"
    },
    {
      "inputs": [
        {
          "internalType": "uint256",
          "name": "tokenId",
          "type": "uint256"
        },
        {
          "internalType": "string",
          "name": "mutationType",
          "type": "string"
        }
      ],
      "name": "mutate",
      "outputs": [],
      "stateMutability": "nonpayable",
      "type": "function"
    },
    {
      "inputs": [],
      "name": "name",
      "outputs": [
        {
          "internalType": "string",
          "name": "",
          "type": "string"
        }
      ],
      "stateMutability": "view",
      "type": "function"
    },
    {
      "inputs": [],
      "name": "owner",
      "outputs": [
        {
          "internalType": "address",
          "name": "",
          "type": "address"
        }
      ],
      "stateMutability": "view",
      "type": "function"
    },
    {
      "inputs": [
        {
          "internalType": "string[6]",
          "name": "customPalette",
          "type": "string[6]"
        },
        {
          "internalType": "bytes32",
          "name": "customSeed",
          "type": "bytes32"
        }
      ],
      "name": "ownerMint",
      "outputs": [],
      "stateMutability": "nonpayable",
      "type": "function"
    },
    {
      "inputs": [
        {
          "internalType": "uint256",
          "name": "tokenId",
          "type": "uint256"
        }
      ],
      "name": "ownerOf",
      "outputs": [
        {
          "internalType": "address",
          "name": "",
          "type": "address"
        }
      ],
      "stateMutability": "view",
      "type": "function"
    },
    {
      "inputs": [
        {
          "internalType": "uint256",
          "name": "",
          "type": "uint256"
        }
      ],
      "name": "pendingPalette",
      "outputs": [
        {
          "internalType": "string",
          "name": "",
          "type": "string"
        }
      ],
      "stateMutability": "view",
      "type": "function"
    },
    {
      "inputs": [],
      "name": "pendingRequest",
      "outputs": [
        {
          "internalType": "uint256",
          "name": "timestamp",
          "type": "uint256"
        },
        {
          "internalType": "bool",
          "name": "completed",
          "type": "bool"
        },
        {
          "internalType": "bool",
          "name": "isOwnerMint",
          "type": "bool"
        },
        {
          "internalType": "bool",
          "name": "hasCustomPalette",
          "type": "bool"
        }
      ],
      "stateMutability": "view",
      "type": "function"
    },
    {
      "inputs": [],
      "name": "proposalGeneration",
      "outputs": [
        {
          "internalType": "uint256",
          "name": "",
          "type": "uint256"
        }
      ],
      "stateMutability": "view",
      "type": "function"
    },
    {
      "inputs": [
        {
          "internalType": "string",
          "name": "newURI",
          "type": "string"
        }
      ],
      "name": "proposeBaseURI",
      "outputs": [],
      "stateMutability": "nonpayable",
      "type": "function"
    },
    {
      "inputs": [],
      "name": "renounceOwnership",
      "outputs": [],
      "stateMutability": "nonpayable",
      "type": "function"
    },
    {
      "inputs": [],
      "name": "requestMint",
      "outputs": [
        {
          "internalType": "bytes32[3]",
          "name": "",
          "type": "bytes32[3]"
        }
      ],
      "stateMutability": "payable",
      "type": "function"
    },
    {
      "inputs": [
        {
          "internalType": "string[6]",
          "name": "customPalette",
          "type": "string[6]"
        }
      ],
      "name": "requestOwnerMint",
      "outputs": [
        {
          "internalType": "bytes32[3]",
          "name": "",
          "type": "bytes32[3]"
        }
      ],
      "stateMutability": "nonpayable",
      "type": "function"
    },
    {
      "inputs": [
        {
          "internalType": "uint256",
          "name": "tokenId",
          "type": "uint256"
        },
        {
          "internalType": "uint256",
          "name": "salePrice",
          "type": "uint256"
        }
      ],
      "name": "royaltyInfo",
      "outputs": [
        {
          "internalType": "address",
          "name": "receiver",
          "type": "address"
        },
        {
          "internalType": "uint256",
          "name": "royaltyAmount",
          "type": "uint256"
        }
      ],
      "stateMutability": "view",
      "type": "function"
    },
    {
      "inputs": [],
      "name": "royaltyReceiver",
      "outputs": [
        {
          "internalType": "address",
          "name": "",
          "type": "address"
        }
      ],
      "stateMutability": "view",
      "type": "function"
    },
    {
      "inputs": [
        {
          "internalType": "address",
          "name": "from",
          "type": "address"
        },
        {
          "internalType": "address",
          "name": "to",
          "type": "address"
        },
        {
          "internalType": "uint256",
          "name": "tokenId",
          "type": "uint256"
        }
      ],
      "name": "safeTransferFrom",
      "outputs": [],
      "stateMutability": "nonpayable",
      "type": "function"
    },
    {
      "inputs": [
        {
          "internalType": "address",
          "name": "from",
          "type": "address"
        },
        {
          "internalType": "address",
          "name": "to",
          "type": "address"
        },
        {
          "internalType": "uint256",
          "name": "tokenId",
          "type": "uint256"
        },
        {
          "internalType": "bytes",
          "name": "data",
          "type": "bytes"
        }
      ],
      "name": "safeTransferFrom",
      "outputs": [],
      "stateMutability": "nonpayable",
      "type": "function"
    },
    {
      "inputs": [
        {
          "internalType": "address",
          "name": "operator",
          "type": "address"
        },
        {
          "internalType": "bool",
          "name": "approved",
          "type": "bool"
        }
      ],
      "name": "setApprovalForAll",
      "outputs": [],
      "stateMutability": "nonpayable",
      "type": "function"
    },
    {
      "inputs": [
        {
          "internalType": "string",
          "name": "newURI",
          "type": "string"
        }
      ],
      "name": "setBaseURI",
      "outputs": [],
      "stateMutability": "nonpayable",
      "type": "function"
    },
    {
      "inputs": [
        {
          "internalType": "address",
          "name": "_generator",
          "type": "address"
        }
      ],
      "name": "setGeneratorContract",
      "outputs": [],
      "stateMutability": "nonpayable",
      "type": "function"
    },
    {
      "inputs": [
        {
          "internalType": "address",
          "name": "newReceiver",
          "type": "address"
        }
      ],
      "name": "setRoyaltyReceiver",
      "outputs": [],
      "stateMutability": "nonpayable",
      "type": "function"
    },
    {
      "inputs": [
        {
          "internalType": "bytes4",
          "name": "interfaceId",
          "type": "bytes4"
        }
      ],
      "name": "supportsInterface",
      "outputs": [
        {
          "internalType": "bool",
          "name": "",
          "type": "bool"
        }
      ],
      "stateMutability": "view",
      "type": "function"
    },
    {
      "inputs": [],
      "name": "symbol",
      "outputs": [
        {
          "internalType": "string",
          "name": "",
          "type": "string"
        }
      ],
      "stateMutability": "view",
      "type": "function"
    },
    {
      "inputs": [
        {
          "internalType": "uint256",
          "name": "",
          "type": "uint256"
        }
      ],
      "name": "tokenBanGeneration",
      "outputs": [
        {
          "internalType": "uint256",
          "name": "",
          "type": "uint256"
        }
      ],
      "stateMutability": "view",
      "type": "function"
    },
    {
      "inputs": [
        {
          "internalType": "uint256",
          "name": "index",
          "type": "uint256"
        }
      ],
      "name": "tokenByIndex",
      "outputs": [
        {
          "internalType": "uint256",
          "name": "",
          "type": "uint256"
        }
      ],
      "stateMutability": "view",
      "type": "function"
    },
    {
      "inputs": [
        {
          "internalType": "uint256",
          "name": "",
          "type": "uint256"
        },
        {
          "internalType": "uint256",
          "name": "",
          "type": "uint256"
        }
      ],
      "name": "tokenMutations",
      "outputs": [
        {
          "internalType": "string",
          "name": "mutationType",
          "type": "string"
        },
        {
          "internalType": "bytes32",
          "name": "seed",
          "type": "bytes32"
        },
        {
          "internalType": "uint256",
          "name": "timestamp",
          "type": "uint256"
        }
      ],
      "stateMutability": "view",
      "type": "function"
    },
    {
      "inputs": [
        {
          "internalType": "address",
          "name": "owner",
          "type": "address"
        },
        {
          "internalType": "uint256",
          "name": "index",
          "type": "uint256"
        }
      ],
      "name": "tokenOfOwnerByIndex",
      "outputs": [
        {
          "internalType": "uint256",
          "name": "",
          "type": "uint256"
        }
      ],
      "stateMutability": "view",
      "type": "function"
    },
    {
      "inputs": [
        {
          "internalType": "uint256",
          "name": "tokenId",
          "type": "uint256"
        }
      ],
      "name": "tokenURI",
      "outputs": [
        {
          "internalType": "string",
          "name": "",
          "type": "string"
        }
      ],
      "stateMutability": "view",
      "type": "function"
    },
    {
      "inputs": [
        {
          "internalType": "uint256",
          "name": "",
          "type": "uint256"
        }
      ],
      "name": "tokenVoteGeneration",
      "outputs": [
        {
          "internalType": "uint256",
          "name": "",
          "type": "uint256"
        }
      ],
      "stateMutability": "view",
      "type": "function"
    },
    {
      "inputs": [
        {
          "internalType": "uint256",
          "name": "",
          "type": "uint256"
        }
      ],
      "name": "tokens",
      "outputs": [
        {
          "internalType": "bytes32",
          "name": "mintSeed",
          "type": "bytes32"
        },
        {
          "internalType": "uint256",
          "name": "mintTimestamp",
          "type": "uint256"
        }
      ],
      "stateMutability": "view",
      "type": "function"
    },
    {
      "inputs": [],
      "name": "totalSupply",
      "outputs": [
        {
          "internalType": "uint256",
          "name": "",
          "type": "uint256"
        }
      ],
      "stateMutability": "view",
      "type": "function"
    },
    {
      "inputs": [
        {
          "internalType": "address",
          "name": "from",
          "type": "address"
        },
        {
          "internalType": "address",
          "name": "to",
          "type": "address"
        },
        {
          "internalType": "uint256",
          "name": "tokenId",
          "type": "uint256"
        }
      ],
      "name": "transferFrom",
      "outputs": [],
      "stateMutability": "nonpayable",
      "type": "function"
    },
    {
      "inputs": [
        {
          "internalType": "address",
          "name": "newOwner",
          "type": "address"
        }
      ],
      "name": "transferOwnership",
      "outputs": [],
      "stateMutability": "nonpayable",
      "type": "function"
    },
    {
      "inputs": [],
      "name": "withdraw",
      "outputs": [],
      "stateMutability": "nonpayable",
      "type": "function"
    }
  ],
  "bytecode": "0x60a03462001673576001600160401b0390604090808201838111828210176200165f5782526008815260209067537061747465727360c01b82820152825193838501858110828211176200165f5784526004918286526314d4105560e21b8487015280518281116200147f575f54906001928383811c9316801562001654575b8784101462001560578190601f9384811162001601575b5087908483116001146200159d575f9262001591575b50505f19600383901b1c191690831b175f555b8651908382116200157e5782548381811c9116801562001573575b87821014620015605781811162001518575b5085908211600114620014b457819293949596975f92620014a8575b50505f19600383901b1c191690821b1781555b33156200149257600a8054336001600160a01b03198083168217909355906001600160a01b03167f8be0079c531659141344cd1fd0a4f28419497f9722a3daafe3b4186f6b6457e05f80a3816029553390600b541617600b554260805280601955600d55620001ac6200018d62001677565b70617370656374526174696f4368616e676560781b858201526200198f565b620001da620001ba6200169b565b7162617365526164697573496e63726561736560701b858201526200198f565b62000208620001e86200169b565b7162617365526164697573446563726561736560701b858201526200198f565b62000236620002166200169b565b716772616469656e74547970654368616e676560701b858201526200198f565b62000264620002446200169b565b7164697669646572436f756e744368616e676560701b858201526200198f565b620002916200027262001677565b70636972636c65436f756e744368616e676560781b858201526200198f565b620002bc6200029f620016bf565b6e6c696e65436f756e744368616e676560881b858201526200198f565b620002ea620002ca6200169b565b71636972636c6553697a65496e63726561736560701b858201526200198f565b62000318620002f86200169b565b71636972636c6553697a65446563726561736560701b858201526200198f565b6200035162000326620016e3565b7f636972636c65506f736974696f6e4368616e6765000000000000000000000000858201526200198f565b6200037b6200035f62001707565b6d18da5c98db19535bdd995319599d60921b858201526200198f565b620003a662000389620016bf565b6e18da5c98db19535bdd99549a59da1d608a1b858201526200198f565b620003ce620003b46200172b565b6b0636972636c654d6f766555760a41b858201526200198f565b620003f8620003dc62001707565b6d31b4b931b632a6b7bb32a237bbb760911b858201526200198f565b620004256200040662001677565b706c696e655769647468496e63726561736560781b858201526200198f565b620004526200043362001677565b706c696e655769647468446563726561736560781b858201526200198f565b6200047d62000460620016bf565b6e6c696e65416e676c654368616e676560881b858201526200198f565b620004ab6200048b6200169b565b716c696e654c656e677468496e63726561736560701b858201526200198f565b620004d9620004b96200169b565b716c696e654c656e677468446563726561736560701b858201526200198f565b62000507620004e76200169b565b716c696e65506f736974696f6e4368616e676560701b858201526200198f565b6200052f620005156200172b565b6b1b1a5b99535bdd995319599d60a21b858201526200198f565b620005586200053d6200174f565b6c1b1a5b99535bdd99549a59da1d609a1b858201526200198f565b8351848101818110838211176200147f578552600a81526906c696e654d6f766555760b41b848201526200058c906200198f565b620005b46200059a6200172b565b6b3634b732a6b7bb32a237bbb760a11b858201526200198f565b620005e0620005c262001773565b6f70616c657474654368616e67654f6e6560801b858201526200198f565b6200060c620005ee62001773565b6f1c185b195d1d1950da185b99d9505b1b60821b858201526200198f565b620006396200061a62001677565b7070616c65747465436f6d62696e654f6e6560781b858201526200198f565b620006666200064762001677565b701c185b195d1d1950dbdb589a5b99505b1b607a1b858201526200198f565b6200069162000674620016bf565b6e70616c6574746552657365744f6e6560881b858201526200198f565b620006bc6200069f620016bf565b6e1c185b195d1d1954995cd95d105b1b608a1b858201526200198f565b620006e6620006ca62001707565b6d70616c6574746553687566666c6560901b858201526200198f565b6200070d620006f462001797565b6a646976696465724d6f766560a81b858201526200198f565b620007366200071b6200174f565b6c64697669646572526f7461746560981b858201526200198f565b8351848101818110838211176200147f5785526006815265726f7461746560d01b8482015262000766906200198f565b6200079f62000774620017bb565b7f73656564506f696e74436f756e74496e63726561736500000000000000000000858201526200198f565b620007d8620007ad620017bb565b7f73656564506f696e74436f756e74446563726561736500000000000000000000858201526200198f565b62000806620007e66200169b565b711cd959591c1bda5b9d135bdd99549a59da1d60721b858201526200198f565b620008336200081462001677565b701cd959591c1bda5b9d135bdd995319599d607a1b858201526200198f565b6200085e62000841620016bf565b6e073656564706f696e744d6f7665557608c1b858201526200198f565b6200088b6200086c62001677565b7039b2b2b23837b4b73a26b7bb32a237bbb760791b858201526200198f565b620008c462000899620017df565b7f73656564706f696e744368616e6765437572766543656e746572000000000000858201526200198f565b620008fd620008d2620017df565b7f73656564706f696e74496e637265617365436f6e636176697479000000000000858201526200198f565b620009366200090b620017df565b7f73656564706f696e744465637265617365436f6e636176697479000000000000858201526200198f565b6200096f6200094462001803565b7f73656564706f696e74496e637265617365526164697573000000000000000000858201526200198f565b620009a86200097d62001803565b7f73656564706f696e744465637265617365526164697573000000000000000000858201526200198f565b620009cf620009b662001797565b6a1cda185c19515e1c185b9960aa1b858201526200198f565b620009f6620009dd62001797565b6a7368617065536872696e6b60a81b858201526200198f565b62000a2062000a0462001707565b6d39b430b832a6b0b5b2abb4b232b960911b858201526200198f565b62000a4d62000a2e62001677565b7039b430b832a6b0b5b2a730b93937bbb2b960791b858201526200198f565b62000a7862000a5b620016bf565b6e39b430b832a6b0b5b2a434b3b432b960891b858201526200198f565b62000aa462000a8662001773565b6f39b430b832a6b0b5b2a9b437b93a32b960811b858201526200198f565b62000add62000ab262001803565b7f73686170654368616e6765437572766543656e74657273000000000000000000858201526200198f565b62000b1662000aeb620017bb565b7f7368617065496e637265617365436f6e63617669747900000000000000000000858201526200198f565b62000b4f62000b24620016e3565b7f7368617065526564756365436f6e636176697479000000000000000000000000858201526200198f565b62000b8862000b5d62001827565b7f73686170654368616e6765526164697573657300000000000000000000000000858201526200198f565b8351848101818110838211176200147f578552600981526873686170654d6f766560b81b8482015262000bbb906200198f565b62000be362000bc96200172b565b6b3ab73237a6baba30ba34b7b760a11b858201526200198f565b62000c1c62000bf162001803565b7f72657475726e546f50726576696f757356657273696f6e000000000000000000858201526200198f565b62000c5562000c2a620017bb565b7f73656564706f696e744d6f766552696768742d746f7000000000000000000000858201526200198f565b62000c8e62000c636200184b565b7f73656564706f696e744d6f76654c6566742d746f700000000000000000000000858201526200198f565b62000cc762000c9c62001827565b7f73656564706f696e744d6f766555702d746f7000000000000000000000000000858201526200198f565b62000d0062000cd56200184b565b7f73656564706f696e744d6f7665446f776e2d746f700000000000000000000000858201526200198f565b62000d3962000d0e6200186f565b7f73656564706f696e744368616e6765437572766543656e7465722d746f700000858201526200198f565b62000d7262000d476200186f565b7f73656564706f696e74496e637265617365436f6e6361766974792d746f700000858201526200198f565b62000dab62000d806200186f565b7f73656564706f696e744465637265617365436f6e6361766974792d746f700000858201526200198f565b62000de462000db962001893565b7f73656564706f696e74496e6372656173655261646975732d746f700000000000858201526200198f565b62000e1d62000df262001893565b7f73656564706f696e7444656372656173655261646975732d746f700000000000858201526200198f565b835191828501918211838310176200146c575062001447929162000e6c918552601981527f73656564706f696e744d6f766552696768742d626f74746f6d00000000000000838201526200198f565b62000ea562000e7a620018b7565b7f73656564706f696e744d6f76654c6566742d626f74746f6d0000000000000000838201526200198f565b62000ede62000eb3620017bb565b7f73656564706f696e744d6f766555702d626f74746f6d00000000000000000000838201526200198f565b62000f1762000eec620018b7565b7f73656564706f696e744d6f7665446f776e2d626f74746f6d0000000000000000838201526200198f565b62000fd762000f25620018db565b7f73656564706f696e744368616e6765437572766543656e7465722d626f74746f8382015262000f5f606d60f81b9182878201526200198f565b62000f9d62000f6d620018db565b7f73656564706f696e74496e637265617365436f6e6361766974792d626f74746f8582015282878201526200198f565b62000fa7620018db565b907f73656564706f696e744465637265617365436f6e6361766974792d626f74746f84830152858201526200198f565b6200101062000fe56200186f565b7f73656564706f696e74496e6372656173655261646975732d626f74746f6d0000838201526200198f565b620010496200101e6200186f565b7f73656564706f696e7444656372656173655261646975732d626f74746f6d0000838201526200198f565b620010826200105762001803565b7f73656564706f696e744d6f766552696768742d6c656674000000000000000000838201526200198f565b620010bb62001090620017bb565b7f73656564706f696e744d6f76654c6566742d6c65667400000000000000000000838201526200198f565b620010f4620010c9620016e3565b7f73656564706f696e744d6f766555702d6c656674000000000000000000000000838201526200198f565b6200112d62001102620017bb565b7f73656564706f696e744d6f7665446f776e2d6c65667400000000000000000000838201526200198f565b620011666200113b620018ff565b7f73656564706f696e744368616e6765437572766543656e7465722d6c65667400838201526200198f565b6200119f62001174620018ff565b7f73656564706f696e74496e637265617365436f6e6361766974792d6c65667400838201526200198f565b620011d8620011ad620018ff565b7f73656564706f696e744465637265617365436f6e6361766974792d6c65667400838201526200198f565b62001211620011e662001923565b7f73656564706f696e74496e6372656173655261646975732d6c65667400000000838201526200198f565b6200124a6200121f62001923565b7f73656564706f696e7444656372656173655261646975732d6c65667400000000838201526200198f565b6200128362001258620018b7565b7f73656564706f696e744d6f766552696768742d72696768740000000000000000838201526200198f565b620012bc6200129162001803565b7f73656564706f696e744d6f76654c6566742d7269676874000000000000000000838201526200198f565b620012f5620012ca6200184b565b7f73656564706f696e744d6f766555702d72696768740000000000000000000000838201526200198f565b6200132e6200130362001803565b7f73656564706f696e744d6f7665446f776e2d7269676874000000000000000000838201526200198f565b620013676200133c62001947565b7f73656564706f696e744368616e6765437572766543656e7465722d7269676874838201526200198f565b620013a06200137562001947565b7f73656564706f696e74496e637265617365436f6e6361766974792d7269676874838201526200198f565b620013d9620013ae62001947565b7f73656564706f696e744465637265617365436f6e6361766974792d7269676874838201526200198f565b62001412620013e76200196b565b7f73656564706f696e74496e6372656173655261646975732d7269676874000000838201526200198f565b7f73656564706f696e7444656372656173655261646975732d72696768740000006200143d6200196b565b918201526200198f565b516153ef908162001b4d823960805181818161064901528181611cfa0152612f6c0152f35b604190634e487b7160e01b5f525260245ffd5b604184634e487b7160e01b5f525260245ffd5b8451631e4fbdf760e01b81525f81850152602490fd5b015190505f8062000108565b601f19821690835f52865f20915f5b818110620015025750988385969798999a10620014e9575b505050811b0181556200011b565b01515f1960f88460031b161c191690555f8080620014db565b8a830151845592850192918801918801620014c3565b835f52865f208280850160051c82019289861062001556575b0160051c019084905b8281106200154a575050620000ec565b5f81550184906200153a565b9250819262001531565b602286634e487b7160e01b5f525260245ffd5b90607f1690620000da565b604185634e487b7160e01b5f525260245ffd5b015190505f80620000ac565b90859350601f198316915f8052895f20925f5b8b828210620015ea5750508411620015d1575b505050811b015f55620000bf565b01515f1960f88460031b161c191690555f8080620015c3565b8385015186558997909501949384019301620015b0565b9091505f8052875f208480850160051c8201928a86106200164a575b918791869594930160051c01915b8281106200163b57505062000096565b5f81558594508791016200162b565b925081926200161d565b92607f16926200007f565b634e487b7160e01b5f52604160045260245ffd5b5f80fd5b60408051919082016001600160401b038111838210176200165f5760405260118252565b60408051919082016001600160401b038111838210176200165f5760405260128252565b60408051919082016001600160401b038111838210176200165f57604052600f8252565b60408051919082016001600160401b038111838210176200165f5760405260148252565b60408051919082016001600160401b038111838210176200165f57604052600e8252565b60408051919082016001600160401b038111838210176200165f57604052600c8252565b60408051919082016001600160401b038111838210176200165f57604052600d8252565b60408051919082016001600160401b038111838210176200165f5760405260108252565b60408051919082016001600160401b038111838210176200165f57604052600b8252565b60408051919082016001600160401b038111838210176200165f5760405260168252565b60408051919082016001600160401b038111838210176200165f57604052601a8252565b60408051919082016001600160401b038111838210176200165f5760405260178252565b60408051919082016001600160401b038111838210176200165f5760405260138252565b60408051919082016001600160401b038111838210176200165f5760405260158252565b60408051919082016001600160401b038111838210176200165f57604052601e8252565b60408051919082016001600160401b038111838210176200165f57604052601b8252565b60408051919082016001600160401b038111838210176200165f5760405260188252565b60405190606082016001600160401b038111838210176200165f5760405260218252565b60408051919082016001600160401b038111838210176200165f57604052601f8252565b60408051919082016001600160401b038111838210176200165f57604052601c8252565b60408051919082016001600160401b038111838210176200165f5760405260208252565b60408051919082016001600160401b038111838210176200165f57604052601d8252565b90602d54680100000000000000008110156200165f5760019081810180602d5581101562001b3857602d5f528351936020917f4a2cc91ee622da3bc833a54c37ffcb6f3ec23b7793efc5eaf5e71b7b406c5c06016001600160401b0386116200165f5780548481811c9116801562001b2d575b8482101462001b1957601f811162001ace575b5082601f871160011462001a69579580602e9596975f9162001a5d575b505f19600383901b1c191690861b1790555b8181519101205f525260405f209060ff19825416179055565b90508301515f62001a32565b601f19871690825f52845f20915f5b81811062001ab85750918891879899602e98941062001a9f575b5050811b01905562001a44565b8501515f1960f88460031b161c191690555f8062001a92565b8583015184559287019291860191860162001a78565b815f52835f20601f880160051c81019185891062001b0e575b601f0160051c019085905b82811062001b0257505062001a15565b5f815501859062001af2565b909150819062001ae7565b634e487b7160e01b5f52602260045260245ffd5b90607f169062001a02565b634e487b7160e01b5f52603260045260245ffdfe6080604090808252600480361015610015575f80fd5b60e05f35811c9283629c4c7e146138665750826301ffc9a7146137c357826306fdde03146137165782630739ac06146136fa578263081812fc146136c1578263095ea7b3146135e557826309aaa61e146135c85782630ac6fc58146135505782630d3fd16114613524578263131f3a1e14612de7578263149e7b77146134c8578263161860d6146134a057826318160ddd1461348457826318bad1291461346657826323b872dd1461344f57826327189ca014612f3557826329777c3514612f195782632a55205a14612eb25782632b49d42514612e145782632f745c5914612dec57826332cb6b0c14612de75782633ccfd60b14612d305782633eea906f14612d0857826341ec687014612bd357826342842e0e14612ba5578263467f67f914612b8857826347a02aac1461288957826349c657db1461286d5782634e474dd9146128455782634f64b2be146128145782634f6ccce7146127ba57826354f484191461279c57826355f804b3146125f35782635ef46bc51461250c5782635fa951a7146123145782636352211e146122e45782636b04a1e2146122005782636c0360eb1461216457826370a082311461213f57826370a6f230146120e0578263715018a61461208557826371f951d8146120595782637e056b9114611ce657826385c639fe14611cbe57826386e2d5df14611ca15782638da5cb5b14611c795782638dc251e314611bca57826390f4fe7214611add5750816395d89b4114611a095781639a617d0c146118f15781639fbc8713146118c9578163a22cb4651461182e578163a7fa70ce14611807578163afb7bed914611598578163afe21c2914611249578163b0b548951461122c578163b1610d7e1461120f578163b6fd46221461104f578163b88d4fde14610fe4578163ba09768614610fae578163c83d07e314610f3b578163c87b56dd14610c70578163cb0f39901461095b578163ccad22de146107c3578163cdc3cc411461079b578163d088650a1461077d578163d9759f9a14610762578163e2b0a15d1461071c578163e985e9c5146106ce578163e9b3536114610692578163eb91d37e1461066c578163ecda10f514610632578163ede6fade14610617578163f2fde38b1461058d578163fa90eabf146104a4578163fc2deeed1461047e578163fe660dc614610460578163fefafa08146103a5575063ff9830bd14610386575f80fd5b346103a1575f3660031901126103a157602090516101f48152f35b5f80fd5b9050346103a15760203660031901126103a1576103c06138c6565b906103c9614867565b600f549260ff8460a01c1661041d5750506001600160a01b039081166001600160a01b031983168117600f5591167f4629afddec912ec503dd73bdff4ed7d1ddff82665cc12234d2050e12f518e5ed5f80a3005b906020606492519162461bcd60e51b8352820152601f60248201527f47656e657261746f72206973207065726d616e656e746c79206c6f636b6564006044820152fd5b82346103a1575f3660031901126103a157602090602c549051908152f35b82346103a1575f3660031901126103a15760209060ff600f5460a01c1690519015158152f35b9050346103a1575f3660031901126103a1576104be614867565b600f549060ff8260a01c16610559576001600160a01b03821692831561051657505060ff60a01b1916600160a01b17600f557f8dc9002242fe1d7789084ad61acb9adee344fd3e9d6c7bd89d94da389ea999145f80a2005b906020606492519162461bcd60e51b8352820152601c60248201527f5365742067656e657261746f72206265666f7265206c6f636b696e67000000006044820152fd5b606490602084519162461bcd60e51b8352820152600e60248201526d105b1c9958591e481b1bd8dad95960921b6044820152fd5b9050346103a15760203660031901126103a1576105a86138c6565b906105b1614867565b6001600160a01b03918216928315610601575050600a54826001600160601b0360a01b821617600a55167f8be0079c531659141344cd1fd0a4f28419497f9722a3daafe3b4186f6b6457e05f80a3005b905f6024925191631e4fbdf760e01b8352820152fd5b82346103a1575f3660031901126103a15760209051601e8152f35b82346103a1575f3660031901126103a157602090517f00000000000000000000000000000000000000000000000000000000000000008152f35b82346103a1575f3660031901126103a15760209061068b602954614ed4565b9051908152f35b82346103a1575f3660031901126103a1576060906106ae6147db565b835192151583526001600160a01b03909116602083015291810191909152f35b82346103a157806003193601126103a1576020906106ea6138c6565b6106f26138dc565b9060018060a01b038091165f5260058452825f2091165f52825260ff815f20541690519015158152f35b82346103a1575f3660031901126103a15760809060ff6021549160225490805193845282821615156020850152828260081c1615159084015260101c1615156060820152f35b82346103a1575f3660031901126103a1576020905160648152f35b82346103a1575f3660031901126103a157602090600c549051908152f35b82346103a1575f3660031901126103a157602b5490516001600160a01b039091168152602090f35b82346103a1576107d236613a39565b90916107dc614893565b6107e58361482d565b336001600160a01b03909116036109275761081b61081683602081519101205f52602e60205260ff60405f20541690565b613d33565b6108248361475a565b156108ef57825f52602f602052620151804204815f2055601c60205261084d815f2054846148bf565b90835f52601c60205261087b815f20825190610868826138f2565b8582528460208301524284830152613dc6565b835f52601c602052805f2054945f1986019586116108dc5750906108c77f4226f74e56624aaf998322a4bb5ebb847b5811ac4711df2f3d9b46d7a8f4a3e9939251928392429184613c99565b0390a35f5f8051602061539a8339815191525d005b601190634e487b7160e01b5f525260245ffd5b5162461bcd60e51b8152602081850152601360248201527243616e6e6f74206d757461746520746f64617960681b6044820152606490fd5b5162461bcd60e51b8152602081850152600f60248201526e2737ba103a37b5b2b71037bbb732b960891b6044820152606490fd5b9050346103a157816003193601126103a1578035906001600160401b03928383116103a1578282019260c4369101116103a1576024916024359261099d614867565b6109a5614893565b602954946109b76103e7871115614383565b8415610c0757602b546001600160a01b0316158015610bdd575b6109da906143c4565b6109e381614410565b905015159687610ba0575b42602a556109fb87614247565b602955845192610a0a84613958565b86845260209489868601954287528a5f52601b8852885f20905181556001809751910155610a83575b89897f35a71fd4ad36d3b5f42a9819d12284ac3592b91d09f274e2ff1639a4418c1a026108c78b8b610a658533614a80565b51908152931515602085015242604085015233939081906060820190565b5f5b60068110610a935750610a33565b610a9d8186614444565b8b5f52601d8952610ab0838b5f20613a9a565b929092610b8f57868211610b7d57908291610ad782610ad18c979654613abd565b85613d77565b5f90601f8311600114610b1957610b0592915f9183610b0e575b50508160011b915f199060031b1c19161790565b90555b01610a85565b013590505f80610af1565b5f8481528c81209290601f198516908e5b828210610b665750509084889594939210610b4d575b505050811b019055610b08565b01355f19600384901b60f8161c191690555f8080610b40565b8385013586558e999095019492830192018e610b2a565b85604186634e487b7160e01b5f52525ffd5b855f86634e487b7160e01b8252525ffd5b5f5b60068110610bb057506109ee565b80610bd7610bd2610bcd610bc660019588614444565b36916139e5565b614945565b614486565b01610ba2565b50602c54610ce48101809111610bf45742116109d1565b601184634e487b7160e01b5f525260245ffd5b835162461bcd60e51b8152602081850152603d60248201527f437573746f6d2073656564207265717569726564202d2075736520726571756560448201527f73744f776e65724d696e7420666f7220332d6f7074696f6e20666c6f770000006064820152608490fd5b82346103a157602090816003193601126103a15782355f8181526002845282902054610ca6906001600160a01b03161515613cf0565b600e54610cb281613abd565b15610ee3578180955f917a184f03e93ff9f4daa797ed6e38ed64bf6a1f0100000000000000009081811015610ed6575b50506d04ee2d6d415b85acef810000000080881015610ec8575b50662386f26fc1000080881015610eb9575b506305f5e10080881015610eaa575b5061271080881015610e9e575b50506064861015610e90575b600a80961015610e88575b6001906001810196610d6a610d55896139ca565b98610d6288519a8b6139a9565b808a526139ca565b94836021898b0194601f198099013687378b0101905b610e5a575b50505084519687935f93610d9882613abd565b91896001821691825f14610e38575050600114610deb575b50509180610dcb610dd89593610de798979551938491613880565b01039081018652856139a9565b519282849384528301906138a1565b0390f35b8892939450600e5f525f8051602061535a833981519152905f915b838310610e1e57505050840101919080610dcb610db0565b80549783018501979097528a968a94909201918101610e06565b60ff19168189015283151590930287019092019450829150610dcb9050610db0565b5f19019082906f181899199a1a9b1b9c1cb0b131b232b360811b8282061a835304908482610d805750610d85565b600101610d41565b946064600291049501610d36565b90960495018680610d2a565b60089192970496019087610d1d565b60109192970496019087610d0e565b869192970496019087610cfc565b0496508491508780610ce2565b825162461bcd60e51b8152808601859052602c60248201527f62617365555249206e6f7420736574202d206f776e6572206d7573742063616c60448201526b6c207365744261736555524960a01b6064820152608490fd5b9050346103a15760203660031901126103a15735602d548110156103a157610de791610f9c610f9592602d5f528251938480927f4a2cc91ee622da3bc833a54c37ffcb6f3ec23b7793efc5eaf5e71b7b406c5c0601613b93565b03836139a9565b519182916020835260208301906138a1565b9050346103a15760203660031901126103a1573560068110156103a15781610f9c610f9592610de7945193848092602301613b93565b346103a15760803660031901126103a157610ffd6138c6565b6110056138dc565b604435906064356001600160401b0381116103a157366023820112156103a15761104d9481602461103b933693013591016139e5565b92611047838383613f1a565b33614f55565b005b82346103a15760203660031901126103a157813560ff81168082036103a15760036110829161107c614893565b106144ee565b602b549061109a6001600160a01b0383163314614530565b602154936110a985151561457c565b602254946110ba60ff8716156145bd565b60ff8660081c166111be57610ce481018091116111ab576110dd90421115614609565b60038210156111985750601e015460ff199093166001176022556001600160a01b031916602b555f602c5542602a556029549061111982614247565b602955805161112781613958565b838152600160208201428152845f52601b602052835f2092518355519101556111508233614a80565b80519283525f602084015242908301527f35a71fd4ad36d3b5f42a9819d12284ac3592b91d09f274e2ff1639a4418c1a0260603393a35f5f8051602061539a8339815191525d005b603290634e487b7160e01b5f525260245ffd5b601182634e487b7160e01b5f525260245ffd5b845162461bcd60e51b8152602081840152602560248201527f55736520636f6d706c6574654f776e65724d696e7420666f72206f776e6572206044820152646d696e747360d81b6064820152608490fd5b82346103a1575f3660031901126103a157602090516220f5808152f35b82346103a1575f3660031901126103a157602090516203f4808152f35b82346103a1575f3660031901126103a1576010546001600160a01b031633036115555760ff60145460081c161561151a5760ff601654166114e4576015546202a30081018091116114d157421161148e576112a5601154613abd565b916001600160401b03831161147b57506112c0600e54613abd565b601f811161142b575b505f601f831160011461138357827fa621c5ad256761fd9191d8547f07ec26026684c11c01ce72024c5e8ca592524193611317925f91611377575b508160011b915f199060031b1c19161790565b600e555b600160ff1960165416176016557f861427b54efccb3916ffce06e33cfdc507ebe9587bd407e90a0af1dbc6fe7e4d6020611356601954614247565b806019558351908152a151602081528061137260208201613af5565b0390a1005b90506011015485611304565b601f19831690600e5f525f8051602061535a833981519152915f5b81811061140657509184917fa621c5ad256761fd9191d8547f07ec26026684c11c01ce72024c5e8ca592524195600194106113e1575b5050811b01600e5561131b565b5f8051602061537a83398151915201545f1960f88460031b161c1916905584806113d4565b5f8051602061537a83398151915283015484556001938401939092019160200161139e565b600e5f525f8051602061535a833981519152601f840160051c81019160208510611471575b601f0160051c01905b81811061146657506112c9565b5f8155600101611459565b9091508190611450565b604190634e487b7160e01b5f525260245ffd5b906020606492519162461bcd60e51b8352820152602060248201527f50726f706f73616c2065787069726564202d2077696e646f7720636c6f7365646044820152fd5b601183634e487b7160e01b5f525260245ffd5b906020606492519162461bcd60e51b8352820152601060248201526f105b1c9958591e48195e1958dd5d195960821b6044820152fd5b906020606492519162461bcd60e51b83528201526015602482015274151a1c995cda1bdb19081b9bdd081c995858da1959605a1b6044820152fd5b906020606492519162461bcd60e51b8352820152601960248201527f4f6e6c792070726f706f7365722063616e20636f6e6669726d000000000000006044820152fd5b825f3660031901126103a157606081516115b1816138f2565b3690376115bc614893565b6115c7323314614348565b60295491601e92601e8111156117c4576115e56103e7821115614383565b602b546001600160a01b03161580156117ad575b611602906143c4565b602a546201518081018091116114d15742106117715761162190614ed4565b34106117385750805190611634826138f2565b60603683375f5b60ff8116600381101561166b578160019161166361165c60ff954233614a36565b91876144c6565b52011661163b565b505080516116788161393d565b8281525f60806020924260208201528285820152826060820152015282935f5b6003811061172657606085611724864260215562ffffff1960225416602255336001600160601b0360a01b602b541617602b5542602c5580516116db8185613c59565b42858201525f60808201527fc904c26edfa19014321dad8ce50a657782d9f55cd41af2afd9737e4f2ec7630760a03392a25f5f8051602061539a8339815191525d518092613c59565bf35b85518282015594820194600101611698565b6020606492519162461bcd60e51b83528201526014602482015273125b9cdd59999a58da595b9d081c185e5b595b9d60621b6044820152fd5b506020606492519162461bcd60e51b83528201526016602482015275476c6f62616c20636f6f6c646f776e2061637469766560501b6044820152fd5b50602c54610ce481018091116114d15742116115f9565b506020606492519162461bcd60e51b8352820152601860248201527f4f776e6572206d696e7420706572696f642061637469766500000000000000006044820152fd5b82346103a15760203660031901126103a157602091355f5260188252805f20549051908152f35b82346103a157806003193601126103a1576118476138c6565b90602435918215158093036103a1576001600160a01b03169283156118b45750335f526005602052805f20835f52602052805f2060ff1981541660ff8416179055519081527f17307eab39ab6107e8899845ad3d59bd9653f200f220920489ca2b5937696c3160203392a3005b836024925191630b61174360e31b8352820152fd5b82346103a1575f3660031901126103a157600b5490516001600160a01b039091168152602090f35b9050346103a157602090816003193601126103a157355f52601c8152815f2080549161191c836144d7565b92611929855194856139a9565b80845281840180935f52825f205f915b8383106119ba5750505050835192818401908285525180915284840191858260051b86010193925f965b8388106119705786860387f35b90919293948380600192603f198a8203018652885190858061199b60608551908086528501906138a1565b9385810151868501520151910152970193019701969093929193611963565b6003856001928a999799516119ce816138f2565b8b516119e5816119de818a613b93565b03826139a9565b8152848601548382015260028601548c820152815201920192019190959395611939565b82346103a1575f3660031901126103a1578051905f908260019260015493611a3085613abd565b90818452602095866001821691825f14611abb575050600114611a60575b5050610de79291610dd89103856139a9565b9085925060015f527fb10e2d527612073b26eecdfd717e6a320cf44b4afac2b0732d9fcbe2b7fa0cf6915f925b828410611aa35750505082010181610dd8611a4e565b8054848a018601528895508794909301928101611a8d565b60ff19168682015292151560051b85019092019250839150610dd89050611a4e565b83346103a1575f3660031901126103a157805190611afa8261393d565b8051611b05816138f2565b606036823782525f6080602093826020820152828482015282606082015201528051611b308161393d565b81519283601e915f915b60038310611bb55750505050611b4f836138f2565b828152602154916020820192835260225492611b958284019260ff86161515845260ff60806060870196828960081c1615158852019660101c1615158652518096613c59565b516060850152511515608084015251151560a083015251151560c0820152f35b60018281928654815201940192019192611b3a565b8382346103a15760203660031901126103a157611be56138c6565b611bed614867565b6001600160a01b0316918215611c3657600b80546001600160a01b03191684179055827fc3696c23bd17454d95c44cb489c7a0db717d6d809e238813932720cc785ad5355f80a2005b906020606492519162461bcd60e51b8352820152601860248201527f496e76616c6964207265636569766572206164647265737300000000000000006044820152fd5b83346103a1575f3660031901126103a157600a5490516001600160a01b039091168152602090f35b83346103a1575f3660031901126103a157602090516202a3008152f35b5082346103a15760203660031901126103a157611cdd6020923561475a565b90519015158152f35b8382346103a1575f3660031901126103a1577f00000000000000000000000000000000000000000000000000000000000000006203f48081018091116111ab57611d32904210156141ba565b60125480156120215760ff60165416611fde576220f58081018091116111ab574211611fa4576014549060ff8260081c16158015611f8b575b15611f4857611d7933614724565b91611d85831515614206565b60ff811615611f00575b505f915f5b818110611ebe5750508115611e7b57611daf826013546141ad565b918260135583519081527fa36cc2bebb74db33e9f88110a07ef56e1b31b24b4c4f51b54b1664266e29f45b60203392a26029545f198101919082116108dc576043820291808304604314901517156108dc57506014549160ff8360081c16159182611e6c575b5050611e1d57005b61ff001916610100176014554260155580518181527fab69f06083afef0927640d007ea64293cf51d456c47ce52131e28ec5dd1366cf918190611e61908201613af5565b4260208301520390a1005b60649192500411158380611e15565b606490602084519162461bcd60e51b8352820152601d60248201527f416c6c20796f757220746f6b656e7320616c726561647920766f7465640000006044820152fd5b611ec881336142bd565b5f526018602052845f20805490600d54809203611eea575b5050600101611d94565b5592600190611ef890614247565b939086611ee0565b60019060ff1916176014557f8e409ff344f734c68d4e8a0f3acc9412ba807ede50cd1ea7263c6902f826819d83516020815280611f3f60208201613af5565b0390a183611d8f565b606490602084519162461bcd60e51b8352820152601b60248201527f436f6e6669726d6174696f6e2077696e646f77206578706972656400000000006044820152fd5b506015546202a30081018091116111ab57421115611d6b565b6020606492519162461bcd60e51b83528201526015602482015274159bdd1a5b99c81c195c9a5bd908195e1c1a5c9959605a1b6044820152fd5b506020606492519162461bcd60e51b8352820152601960248201527f50726f706f73616c20616c7265616479206578656375746564000000000000006044820152fd5b506020606492519162461bcd60e51b83528201526012602482015271139bc81858dd1a5d99481c1c9bdc1bdcd85b60721b6044820152fd5b5082346103a15760203660031901126103a157602091355f52601a8252805f2054601954149051908152f35b346103a1575f3660031901126103a15761209d614867565b600a80546001600160a01b031981169091555f906001600160a01b03167f8be0079c531659141344cd1fd0a4f28419497f9722a3daafe3b4186f6b6457e08280a3005b83346103a1576120ef36613a84565b905f52601c602052815f209081548110156103a15761210d91613c80565b5090610de781519161212a836121238187613b93565b03846139a9565b60026001850154940154905193849384613c99565b83346103a15760203660031901126103a15760209061068b61215f6138c6565b614724565b83346103a1575f3660031901126103a1578051600e549091825f61218784613abd565b808352602094600190866001821691825f14611abb5750506001146121b8575050610de79291610dd89103856139a9565b90859250600e5f525f8051602061535a833981519152915f925b8284106121e85750505082010181610dd8611a4e565b8054848a0186015288955087949093019281016121d2565b8382346103a157602091826003193601126103a15780516122208161398e565b835f5b60c081106122d65750505081355f52601d8352805f2081519260c08401908482106001600160401b0383111761147b575082529293925f835b600682106122ad57505050519183830184845290830191905f945b600686106122855784840385f35b90919281806122a0600193601f1989820301875287516138a1565b9501930195019490612277565b600187819286999899516122c5816119de818a613b93565b81520193019101909195949561225c565b606081840152018490612223565b5082346103a15760203660031901126103a1576123036020923561482d565b90516001600160a01b039091168152f35b8382346103a1576020806003193601126103a15781359260ff84168085036103a157600361234c91612344614867565b61107c614893565b602b54936123646001600160a01b0386163314614530565b6021549061237382151561457c565b6022549161238460ff8416156145bd565b60ff8360081c16156124c957610ce481018091116124b6576123a890421115614609565b60038110156124a357601e01549260ff8260101c16956001809360ff1916176022556001600160601b0360a01b16602b555f602c5542602a55602954946123ee86614247565b6029558684516123fd81613958565b868152600160208201428152895f52601b602052875f209251835551910155612454575b5050507f35a71fd4ad36d3b5f42a9819d12284ac3592b91d09f274e2ff1639a4418c1a02916108c791610a658533614a80565b5f5b600681106124645750612421565b865f52601d835261247781865f20613a9a565b612491579061248b85928260230190614647565b01612456565b5f83634e487b7160e01b82525260245ffd5b603285634e487b7160e01b5f525260245ffd5b601186634e487b7160e01b5f525260245ffd5b835162461bcd60e51b8152602081880152601960248201527f4e6f7420616e206f776e6572206d696e742072657175657374000000000000006044820152606490fd5b83346103a1575f3660031901126103a157602d54612529816144d7565b90612536835192836139a9565b80825260208083019182602d5f527f4a2cc91ee622da3bc833a54c37ffcb6f3ec23b7793efc5eaf5e71b7b406c5c065f915b8383106125ca57505050508351928184019082855251809152848401948160051b85010192915f955b82871061259e5785850386f35b9091929382806125ba600193603f198a820301865288516138a1565b9601920196019592919092612591565b60018581928a999799516125e2816119de8189613b93565b815201920192019190959395612568565b8382346103a1576020806003193601126103a1576001600160401b039282358481116103a1576126269036908501613a1b565b9261262f614867565b835194851161147b5750612644600e54613abd565b601f811161274d575b508193601f81116001146126bc579061269f82611372937feec356c13f485b7acbb74166d776fb50be80220a12df460b84716109009f9994975f916126b157508160011b915f199060031b1c19161790565b600e55519282849384528301906138a1565b905086015188611304565b601f19811694600e5f525f8051602061535a833981519152955f5b8181106127365750917feec356c13f485b7acbb74166d776fb50be80220a12df460b84716109009f9994966001928261137296951061271e575b5050811b01600e55610dd8565b8701515f1960f88460031b161c191690558780612711565b8683015188556001909701969185019185016126d7565b600e5f525f8051602061535a833981519152601f860160051c810191848710612792575b601f0160051c01905b818110612787575061264d565b5f815560010161277a565b9091508190612771565b83346103a1575f3660031901126103a157602090600d549051908152f35b8382346103a15760203660031901126103a1578035906127d8613f09565b8210156127f9576020836127eb84613cbb565b91905490519160031b1c8152f35b905f604493519263295f44f760e21b84528301526024820152fd5b8382346103a15760203660031901126103a157355f52601b602052805f206001815491015482519182526020820152f35b83346103a1575f3660031901126103a157600f5490516001600160a01b039091168152602090f35b83346103a1575f3660031901126103a157602090516101f48152f35b5082346103a157602091826003193601126103a1578035916001600160401b03938484116103a1578383019360c4369101116103a157606082516128cc816138f2565b3690376128d7614867565b6128df614893565b6128ea323314614348565b6128fa6103e76029541115614383565b602b546001600160a01b0316158015612b71575b612917906143c4565b61292084614410565b905015159081612b45575b825194612937866138f2565b60603687375f5b60ff8116600381101561296e578160019161296661295f60ff954233614a36565b918b6144c6565b52011661293e565b5050868694958651946129808661393d565b86865242858701525f88870152806080600197886060820152015286865f5b60038110612b32575050504260215561010060225462ff00008360101b169062ffffff19161717602255612a43575b6060866117248988336001600160601b0360a01b602b541617602b5542602c558151906129fb8286613c59565b428683015260808201527fc904c26edfa19014321dad8ce50a657782d9f55cd41af2afd9737e4f2ec7630760a03392a25f5f8051602061539a8339815191525d518092613c59565b5f5b60068110612a5357506129ce565b612a5d8185614444565b8260230191858211612b1f57908291612a7c82610ad18c979654613abd565b5f90601f8311600114612abd57612aa992915f9183612ab25750508160011b915f199060031b1c19161790565b90555b01612a45565b013590508d80610af1565b601f19831691845f528a5f20925f5b8c828210612b095750509084889594939210612af0575b505050811b019055612aac565b01355f19600384901b60f8161c191690558c8080612ae3565b8385013586558e99909501949283019201612acc565b604185634e487b7160e01b5f525260245ffd5b87835193019281601e015501879061299f565b5f5b60068110612b55575061292b565b80612b6b610bd2610bcd610bc66001958b614444565b01612b47565b50602c54610ce48101809111610bf457421161290e565b83346103a1575f3660031901126103a1576020905162278d008152f35b83346103a15761104d90612bb836613c24565b91925192612bc584613973565b5f8452611047838383613f1a565b83346103a1575f3660031901126103a157602091815191612bf383613921565b5f83526060848401525f818401525f60608401525f60808401525f60a08401525f60c08401525f828401525f610100809401528051612c3181613921565b6010546001600160a01b0390811682528251909490612c53816119de81613af5565b86830190815260125494848401958652601354606085019081526014546080860160ff82161515815260ff60a088019260081c16151582526015549260c08801938452612cd660ff6016541696868a019715158852601754998981019a8b528b519e8f9e8f928284525116910152518c6101209b8c9101526101408d01906138a1565b995160608c01525160808b015251151560a08a015251151560c089015251908701525115159085015251908301520390f35b5082346103a15760203660031901126103a157602091355f52601a8252805f20549051908152f35b8382346103a1575f3660031901126103a157612d4a614867565b478015612dad57600a545f918291829182916001600160a01b03165af1612d6f614319565b5015612d7757005b6020606492519162461bcd60e51b8352820152601160248201527015da5d1a191c985dd85b0819985a5b1959607a1b6044820152fd5b506020606492519162461bcd60e51b835282015260146024820152734e6f2066756e647320746f20776974686472617760601b6044820152fd5b613a68565b83346103a157806003193601126103a15760209061068b612e0b6138c6565b602435906142bd565b83346103a1575f3660031901126103a15760018060a01b036010541690805192612e4884612e4181613af5565b03856139a9565b6012549060135460145460ff6015549181601654169360175496612e7f89519b8c809c6020610120928392815201528c01906138a1565b988a015260608901528181161515608089015260081c16151560a087015260c08601521515908401526101008301520390f35b8382346103a157612ec236613a84565b91905f52600260205260018060a01b0390612ee382855f2054161515613cf0565b6101f4928381029381850414901517156108dc5750600b54925192166001600160a01b0316825261271090046020820152604090f35b83346103a1575f3660031901126103a15760209051610ce48152f35b8382346103a157602092836003193601126103a1576001600160401b039282358481116103a157612f699036908501613a1b565b927f00000000000000000000000000000000000000000000000000000000000000006203f48081018091116111ab57612fa4904210156141ba565b612fb7612fb033614724565b1515614206565b8351156134185760145460ff81168091816133fe575b60081c60ff16806133e6575b82156133de575b501580156133d7575b1561339557600c5462278d0081018091116114d15742106133535780613348575b6132a9575b613018336148f8565b9283156132555761302a600d54614247565b600d5582519061303982613921565b3382528588830152838201428152606083015f815260808401905f825260a08501925f845261010060c08701955f87528701965f88520196898852336001600160601b0360a01b60105416176010558a519b8c1161147b57508a8c61309f601154613abd565b601f8111613204575b5050508b8c601f8d1160011461317357508b7fe7890a17099f7377119f9bcc610136034f38d99a26a59ec393bd3f871d244c1f9c6130f9925f9161316857508160011b915f199060031b1c19161790565b6011555b51601255516013555115159060ff61ff006014549251151560081b1692169061ffff191617176014555160155551151560ff8019601654169116176016555160175542600c556131578151936060855260608501906138a1565b9442908401528201528033930390a2005b90508c01518f611304565b90601f198d1660115f525f8051602061537a833981519152925f905b8282106131eb575050918d917fe7890a17099f7377119f9bcc610136034f38d99a26a59ec393bd3f871d244c1f9e600194106131d3575b5050811b016011556130fd565b8d01515f1960f88460031b161c191690558e806131c6565b808f85968294966001920151815501950193019061318f565b60115f525f8051602061537a83398151915291601f840160051c8301931061324b575b601f0160051c01905b81811061324057508c8c916130a8565b5f8155600101613230565b9091508190613227565b5085608492519162461bcd60e51b8352820152602960248201527f416c6c20796f757220746f6b656e73206172652062616e6e65642066726f6d2060448201526870726f706f73696e6760b81b6064820152fd5b7ff3a4daeb2d0c46baa4922d40b36bc79601cd7a23c37a5b3cf658bb36101b3bfa60175480151580613332575b6132fa575b835180918582526132ed868301613af5565b908a8301520390a161300f565b601954815f52601a8952845f2055807f8fcebe7b587cb6a82a1b6b75d67f45402181b45ab78f2355219e4bccaf5079375f80a26132db565b50805f52601a8852835f205460195414156132d6565b50601754151561300a565b5085606492519162461bcd60e51b8352820152601860248201527f50726f706f73616c20636f6f6c646f776e2061637469766500000000000000006044820152fd5b5085606492519162461bcd60e51b8352820152601b60248201527f4163746976652070726f706f73616c20696e2070726f677265737300000000006044820152fd5b5080612fe9565b915088612fe0565b506015546202a3008101809111610bf4574211612fd9565b91506012546220f5808101809111610bf457421191612fcd565b85606492519162461bcd60e51b835282015260136024820152725552492063616e6e6f7420626520656d70747960681b6044820152fd5b346103a15761104d61346036613c24565b91613f1a565b83346103a1575f3660031901126103a1576020906019549051908152f35b83346103a1575f3660031901126103a15760209061068b613f09565b5082346103a15760203660031901126103a157602091355f52602f8252805f20549051908152f35b8382346103a1576134d836613a84565b905f52601d602052825f209060068110156103a1576134f691613a9a565b919091613512578251610de79084610f9c82610f958188613b93565b5f90634e487b7160e01b82525260245ffd5b5082346103a15760203660031901126103a157602091355f5260188252805f2054600d54149051908152f35b5082346103a15761356036613a39565b909161356a614867565b613572614893565b5f838152600260205281902054613593906001600160a01b03161515613cf0565b6135b361081683602081519101205f52602e60205260ff60405f20541690565b825f52601c60205261084d815f2054846148bf565b83346103a1575f3660031901126103a15760209051620151808152f35b5082346103a157806003193601126103a1576135ff6138c6565b9160243561360c8161482d565b331515806136ae575b80613687575b613671576001600160a01b039485169482918691167f8c5be1e5ebec7d5bd14f71427d1e84f3dd0314c0f7b2291e5b200ac8c7c3b9255f80a45f526020525f20906001600160601b0360a01b8254161790555f80f35b835163a9fbf51f60e01b81523381850152602490fd5b5060018060a01b0381165f526005602052835f20335f5260205260ff845f2054161561361b565b506001600160a01b038116331415613615565b5082346103a15760203660031901126103a15781602092356136e28161482d565b505f52825260018060a01b03815f2054169051908152f35b83346103a1575f3660031901126103a157602090516102ee8152f35b83346103a1575f3660031901126103a1578051905f90825f549261373984613abd565b808352602094600190866001821691825f14611abb57505060011461376a575050610de79291610dd89103856139a9565b5f80805286935091907f290decd9548b62a8d60345a988386fc84ba6bc95484008f6362f93160ef3e5635b8284106137ab5750505082010181610dd8611a4e565b8054848a018601528895508794909301928101613795565b8382346103a15760203660031901126103a1573563ffffffff60e01b81168091036103a15760209163152a902d60e11b8214918215613806575b50519015158152f35b90915063780e9d6360e01b8114908115613823575b5090836137fd565b6380ac58cd60e01b811491508115613855575b8115613844575b508361381b565b6301ffc9a760e01b1490508361383d565b635b5e139f60e01b81149150613836565b346103a1575f3660031901126103a157602090602a548152f35b5f5b8381106138915750505f910152565b8181015183820152602001613882565b906020916138ba81518092818552858086019101613880565b601f01601f1916010190565b600435906001600160a01b03821682036103a157565b602435906001600160a01b03821682036103a157565b606081019081106001600160401b0382111761390d57604052565b634e487b7160e01b5f52604160045260245ffd5b61012081019081106001600160401b0382111761390d57604052565b60a081019081106001600160401b0382111761390d57604052565b604081019081106001600160401b0382111761390d57604052565b602081019081106001600160401b0382111761390d57604052565b60c081019081106001600160401b0382111761390d57604052565b90601f801991011681019081106001600160401b0382111761390d57604052565b6001600160401b03811161390d57601f01601f191660200190565b9291926139f1826139ca565b916139ff60405193846139a9565b8294818452818301116103a1578281602093845f960137010152565b9080601f830112156103a157816020613a36933591016139e5565b90565b9060406003198301126103a15760043591602435906001600160401b0382116103a157613a3691600401613a1b565b346103a1575f3660031901126103a15760206040516103e78152f35b60409060031901126103a1576004359060243590565b6006821015613aa95701905f90565b634e487b7160e01b5f52603260045260245ffd5b90600182811c92168015613aeb575b6020831014613ad757565b634e487b7160e01b5f52602260045260245ffd5b91607f1691613acc565b6011545f9291613b0482613abd565b80825291602090600190818116908115613b6e5750600114613b27575b50505050565b9293945060115f525f8051602061537a833981519152925f935b858510613b5b57505050602092500101905f808080613b21565b8054858501840152938201938101613b41565b92505050602093945060ff929192191683830152151560051b0101905f808080613b21565b80545f9392613ba182613abd565b918282526020936001916001811690815f14613c055750600114613bc7575b5050505050565b90939495505f92919252835f2092845f945b838610613bf157505050500101905f80808080613bc0565b805485870183015294019385908201613bd9565b60ff19168685015250505090151560051b010191505f80808080613bc0565b60609060031901126103a1576001600160a01b039060043582811681036103a1579160243590811681036103a1579060443590565b5f915b60038310613c6957505050565b600190825181526020809101920192019190613c5c565b8054821015613aa9575f52600360205f20910201905f90565b613cb1604092959493956060835260608301906138a1565b9460208201520152565b600854811015613aa95760085f527ff3f7a9fe364faab93b216da50a3214154f22a0a2b415b23a84c8169e8b636ee301905f90565b15613cf757565b60405162461bcd60e51b8152602060048201526014602482015273151bdad95b88191bd95cc81b9bdd08195e1a5cdd60621b6044820152606490fd5b15613d3a57565b60405162461bcd60e51b8152602060048201526015602482015274496e76616c6964206d75746174696f6e207479706560581b6044820152606490fd5b601f8211613d8457505050565b5f5260205f20906020601f840160051c83019310613dbc575b601f0160051c01905b818110613db1575050565b5f8155600101613da6565b9091508190613d9d565b908154600160401b81101561390d57613de790600193600182018155613c80565b929092613ed5578151908151916001600160401b03831161390d57613e1683613e108754613abd565b87613d77565b602091601f8411600114613e6a57508260409360029593613e4b935f92613e5f5750508160011b915f199060031b1c19161790565b84555b602081015160018501550151910155565b015190505f80610af1565b9190601f198416865f52825f20935f905b828210613ebc5750509260019285926040966002989610613ea4575b505050811b018455613e4e565b01515f1960f88460031b161c191690555f8080613e97565b9093946020828192888701518155019601940190613e7b565b634e487b7160e01b5f525f60045260245ffd5b91908203918211613ef557565b634e487b7160e01b5f52601160045260245ffd5b6029545f198101908111613ef55790565b6001600160a01b038281169391841561419557825f5260206002815260409583875f2054169533151580614107575b50861580156140d6575b825f5260038452885f2060018154019055865f5260028452885f20836001600160601b0360a01b8254161790558683897fddf252ad1be2c89b69c2b068fc378daa952ba7f163c4a11628f55a4df523b3ef5f80a41561406a57600854865f526009845280895f2055600160401b81101561390d57613ff1613fdb8260018a9401600855613cbb565b819391549060031b91821b915f19901b19161790565b90555b81870361402f575b505050169283830361400e5750505050565b6064945051926364283d7b60e01b8452600484015260248301526044820152fd5b61403890614724565b5f19810192908311613ef5576007915f5260068152875f20835f52815285885f2055855f5252855f20555f8080613ffc565b868214613ff45761407a87614724565b865f5260078452885f205490885f5260068552895f20918181036140b4575b50875f52600785525f8a8120555f5283525f88812055613ff4565b815f528286528a5f2054815f52808c5f20555f52600786528a5f20555f614099565b5f87815260046020526040812080546001600160a01b03191690558881526003855289902080545f19019055613f53565b80614154575b15614118575f613f49565b878688614135576024915190637e27328960e01b82526004820152fd5b905163177e802f60e01b81523360048201526024810191909152604490fd5b503387148015614179575b8061410d5750855f52600483523385895f2054161461410d565b50865f5260058352875f20335f52835260ff885f20541661415f565b604051633250574960e11b81525f6004820152602490fd5b91908201809211613ef557565b156141c157565b60405162461bcd60e51b815260206004820152601960248201527f476f7665726e616e6365206e6f742061637469766520796574000000000000006044820152606490fd5b1561420d57565b60405162461bcd60e51b815260206004820152601260248201527126bab9ba1037bbb710309029b830ba3a32b960711b6044820152606490fd5b5f198114613ef55760010190565b90670de0b6b3a764000091828102928184041490151715613ef557565b81810292918115918404141715613ef557565b801561429f576ec097ce7bc90715b34b9f10000000000490565b634e487b7160e01b5f52601260045260245ffd5b811561429f570490565b6142c681614724565b8210156142ee5760018060a01b03165f52600660205260405f20905f5260205260405f205490565b60405163295f44f760e21b81526001600160a01b039190911660048201526024810191909152604490fd5b3d15614343573d9061432a826139ca565b9161433860405193846139a9565b82523d5f602084013e565b606090565b1561434f57565b60405162461bcd60e51b815260206004820152600c60248201526b4e6f20636f6e74726163747360a01b6044820152606490fd5b1561438a57565b60405162461bcd60e51b815260206004820152601260248201527113585e081cdd5c1c1b1e481c995858da195960721b6044820152606490fd5b156143cb57565b60405162461bcd60e51b815260206004820152601a60248201527f4d696e742073656c656374696f6e20696e2070726f67726573730000000000006044820152606490fd5b803590601e19813603018212156103a15701908135916001600160401b0383116103a15760200182360381136103a1579190565b906006811015613aa95760051b81013590601e19813603018212156103a15701908135916001600160401b0383116103a15760200182360381136103a1579190565b1561448d57565b60405162461bcd60e51b815260206004820152601160248201527024b73b30b634b2103432bc1031b7b637b960791b6044820152606490fd5b906003811015613aa95760051b0190565b6001600160401b03811161390d5760051b60200190565b156144f557565b60405162461bcd60e51b8152602060048201526013602482015272496e76616c696420736565642063686f69636560681b6044820152606490fd5b1561453757565b60405162461bcd60e51b815260206004820152601860248201527f4e6f7420796f75722070656e64696e67207265717565737400000000000000006044820152606490fd5b1561458357565b60405162461bcd60e51b8152602060048201526012602482015271139bc81c195b991a5b99c81c995c5d595cdd60721b6044820152606490fd5b156145c457565b60405162461bcd60e51b815260206004820152601960248201527f5265717565737420616c726561647920636f6d706c65746564000000000000006044820152606490fd5b1561461057565b60405162461bcd60e51b815260206004820152600f60248201526e14995c5d595cdd08195e1c1a5c9959608a1b6044820152606490fd5b90808214614720576146598154613abd565b906001600160401b03821161390d5761467682610ad18554613abd565b5f90601f83116001146146b2576146a392915f91836146a75750508160011b915f199060031b1c19161790565b9055565b015490505f80610af1565b90601f198316915f5260209160205f2090855f5260205f20935f905b8282106147075750509084600195949392106146ef575b505050811b019055565b01545f1960f88460031b161c191690555f80806146e5565b84958192958501548155600180910196019401906146ce565b5050565b6001600160a01b03168015614742575f52600360205260405f205490565b6040516322718ad960e21b81525f6004820152602490fd5b5f8181526002602052604090205461477c906001600160a01b03161515613cf0565b805f52601b602052602060405f2060016040519161479983613958565b805483520154918291015262015180804204910481146147d557815f52602f60205260405f2054146147d057613a36904290614d61565b505f90565b50505f90565b602b546001600160a01b031680151580614815575b6147fd57505f905f905f90565b90602c5490610ce48201809211613ef5576001929190565b50602c54610ce48101809111613ef5574211156147f0565b5f818152600260205260409020546001600160a01b031690811561484f575090565b60249060405190637e27328960e01b82526004820152fd5b600a546001600160a01b0316330361487b57565b60405163118cdaa760e01b8152336004820152602490fd5b5f8051602061539a833981519152805c6148ad576001905d565b604051633ee5aeb560e01b8152600490fd5b9060405190602082019283523360601b60408301526054820152426074820152446094820152609481526148f28161398e565b51902090565b61490181614724565b60195490915f5b83811061491757505050505f90565b61492181836142bd565b805f52601a6020528360405f20540361493d5750600101614908565b935050505090565b80519060079160078103614a2f5715613aa9576020818101516001600160f81b03199290831660dd60f81b01614a275760015b848110614989575050505050600190565b8151811015613aa9578383828401015116600360fc1b8110159081614a18575b81156149f4575b81156149ce575b50156149c557600101614978565b50505050505f90565b604160f81b8110159150816149e5575b505f6149b7565b602360f91b101590505f6149de565b9050606160f81b81101580614a0a575b906149b0565b50603360f91b811115614a04565b603960f81b81111591506149a9565b505050505f90565b5050505f90565b91602954906040519260208401946001600160601b03199060601b168552603484015260ff60f81b9060f81b1660548301524460558301526075820152607581526148f28161393d565b6040805192614a8e84613973565b5f84526001600160a01b0393838516938415614d4a57825f5260209560028752845f2054168015908682159283614d19575b815f5260038a52875f2060018154019055865f5260028a52875f20826001600160601b0360a01b8254161790558682847fddf252ad1be2c89b69c2b068fc378daa952ba7f163c4a11628f55a4df523b3ef5f80a415614cac575060085490855f526009895281875f2055600160401b82101561390d5785614b4b613fdb8460018c9601600855613cbb565b90555b03614c74575b614c5d573b614b64575050505050565b84614ba19184959697945180938192630a85bd0160e11b968784523360048501525f602485015260448401526080606484015260848301906138a1565b03815f895af15f9181614c1d575b50614be657505050614bbf614319565b8051939084614be0578251633250574960e11b815260048101859052602490fd5b84925001fd5b9194506001600160e01b031990911603614c065750505f80808080613bc0565b602492505190633250574960e11b82526004820152fd5b9091508681813d8311614c56575b614c3581836139a9565b810103126103a157516001600160e01b0319811681036103a157905f614baf565b503d614c2b565b83516339e3563760e11b81525f6004820152602490fd5b614c7d82614724565b5f198101908111613ef557865f5260068852855f20815f52885284865f2055845f5260078852855f2055614b54565b90808214614b4e57614cbd81614724565b865f5260078a52875f205490825f5260068b52885f2091818103614cf7575b50875f5260078b525f898120555f5289525f87812055614b4e565b815f52828c52895f2054815f52808b5f20555f5260078c52895f20555f614cdc565b5f87815260046020526040812080546001600160a01b031916905583815260038b5288902080545f19019055614ac0565b8351633250574960e11b81525f6004820152602490fd5b5f52601b6020818152604092835f2093805193614d7d85613958565b8554855283600180970154950194855260295494868611614e9b575b614da490518461506e565b614e485760648511614e73575b6101f4808611614e50575b506102ee808611614e14575b506103e7809511614dde575b5050505050505f90565b614e06945f52835284815f20915191614df683613958565b805483520154928391015261506e565b613a36578080808080614dd4565b5f52808452614e3e84835f2088855191614e2d83613958565b80548352015491829101528461506e565b614e48575f614dc8565b505050505090565b5f52808452614e6984835f2088855191614e2d83613958565b614e48575f614dbc565b60645f52808452614e8e84835f2088855191614e2d83613958565b15614db157505050505090565b865f52818552614ec685845f2089865191614eb583613958565b80548352015491829101528561506e565b15614d995750505050505090565b601e8111156147d0576018198101908111613ef5578015614f49576103ce80821015614f3a5767867f8164e739bbf080830292830503613ef557614f1891056150b5565b6615f4ad60b640009080820291820403613ef557670de0b6b3a7640000900490565b505068056bc75e2d6310000090565b506615f4ad60b6400090565b9291803b614f64575050505050565b604051630a85bd0160e11b8082526001600160a01b03958616600483015292851660248201526044810193909352608060648401529092169260209082908190614fb29060848301906138a1565b03815f875af15f9181615029575b50614ff75782614fce614319565b8051919082614ff057604051633250574960e11b815260048101839052602490fd5b6020915001fd5b6001600160e01b0319160361501157505f80808080613bc0565b60249060405190633250574960e11b82526004820152fd5b9091506020813d602011615066575b81615045602093836139a9565b810103126103a157516001600160e01b0319811681036103a157905f614fc0565b3d9150615038565b61507a61508091615181565b91615181565b6020820151602082015114918261509657505090565b60409192508101519101511490565b600160ff1b8114613ef5575f0390565b680755bf798b4a1bf1e581121561514d575f811261513357670de0b6b3a764000090600190825b601e8311156150ec575b50505090565b61510b6150fc8361511293614272565b61510585614255565b906142b3565b80946141ad565b916064841061512b5761512490614247565b91926150dc565b8293506150e6565b61513f615144916150a5565b6150b5565b613a3690614285565b60405162461bcd60e51b815260206004820152600c60248201526b657870206f766572666c6f7760a01b6044820152606490fd5b62015180905f60408051615194816138f2565b8281528260208201520152046107b2905b6151ae82615256565b1561524b5761ffff61016e5b168082106151db576151cf906151d592613ee8565b91614247565b906151a5565b505f90600180915b600c83111561520b575b5050604051926151fc846138f2565b83526020830152604082015290565b615215858461527e565b90818110615236576152309161522a91613ee8565b92614247565b916151e3565b929350508101809111613ef557905f806151ed565b61ffff61016d6151ba565b600381166147d0576064810661527857610190900661527457600190565b5f90565b50600190565b60018114801561534f575b8015615345575b801561533b575b8015615331575b8015615327575b801561531d575b6153165760048114801561530c575b8015615302575b80156152f8575b6152f1576002146152d957505f90565b6152e290615256565b156152ec57601d90565b601c90565b5050601e90565b50600b81146152c9565b50600981146152c2565b50600681146152bb565b5050601f90565b50600c81146152ac565b50600a81146152a5565b506008811461529e565b5060078114615297565b5060058114615290565b506003811461528956febb7b4a454dc3493923482f07822329ed19e8244eff582cc204f8554c3620c3fd31ecc21a745e3968a04e9570e4425bc18fa8019c68028196b546d1669c200c689b779b17422d0df92223018b32b4d1fa46e071723d6817e2486d003becc55f00a2646970667358221220c4369c41af924f810f3662067778461882935a2fff53ef4aedabbd369215154464736f6c63430008180033",
  "linkReferences": {},
  "deployedLinkReferences": {}
}