{
  "_format": "hh-sol-artifact-1",
  "contractName": "Spatters",
  "sourceName": "contracts/Spatters.sol",
  "abi": [
    {
      "inputs": [],
      "stateMutability": "nonpayable",
      "type": "constructor"
    },
    {
      "inputs": [],
      "name": "ERC721EnumerableForbiddenBatchMint",
      "type": "error"
    },
    {
      "inputs": [
        {
          "internalType": "address",
          "name": "sender",
          "type": "address"
        },
        {
          "internalType": "uint256",
          "name": "tokenId",
          "type": "uint256"
        },
        {
          "internalType": "address",
          "name": "owner",
          "type": "address"
        }
      ],
      "name": "ERC721IncorrectOwner",
      "type": "error"
    },
    {
      "inputs": [
        {
          "internalType": "address",
          "name": "operator",
          "type": "address"
        },
        {
          "internalType": "uint256",
          "name": "tokenId",
          "type": "uint256"
        }
      ],
      "name": "ERC721InsufficientApproval",
      "type": "error"
    },
    {
      "inputs": [
        {
          "internalType": "address",
          "name": "approver",
          "type": "address"
        }
      ],
      "name": "ERC721InvalidApprover",
      "type": "error"
    },
    {
      "inputs": [
        {
          "internalType": "address",
          "name": "operator",
          "type": "address"
        }
      ],
      "name": "ERC721InvalidOperator",
      "type": "error"
    },
    {
      "inputs": [
        {
          "internalType": "address",
          "name": "owner",
          "type": "address"
        }
      ],
      "name": "ERC721InvalidOwner",
      "type": "error"
    },
    {
      "inputs": [
        {
          "internalType": "address",
          "name": "receiver",
          "type": "address"
        }
      ],
      "name": "ERC721InvalidReceiver",
      "type": "error"
    },
    {
      "inputs": [
        {
          "internalType": "address",
          "name": "sender",
          "type": "address"
        }
      ],
      "name": "ERC721InvalidSender",
      "type": "error"
    },
    {
      "inputs": [
        {
          "internalType": "uint256",
          "name": "tokenId",
          "type": "uint256"
        }
      ],
      "name": "ERC721NonexistentToken",
      "type": "error"
    },
    {
      "inputs": [
        {
          "internalType": "address",
          "name": "owner",
          "type": "address"
        },
        {
          "internalType": "uint256",
          "name": "index",
          "type": "uint256"
        }
      ],
      "name": "ERC721OutOfBoundsIndex",
      "type": "error"
    },
    {
      "inputs": [
        {
          "internalType": "address",
          "name": "owner",
          "type": "address"
        }
      ],
      "name": "OwnableInvalidOwner",
      "type": "error"
    },
    {
      "inputs": [
        {
          "internalType": "address",
          "name": "account",
          "type": "address"
        }
      ],
      "name": "OwnableUnauthorizedAccount",
      "type": "error"
    },
    {
      "inputs": [],
      "name": "ReentrancyGuardReentrantCall",
      "type": "error"
    },
    {
      "anonymous": false,
      "inputs": [
        {
          "indexed": false,
          "internalType": "uint256",
          "name": "newBanGeneration",
          "type": "uint256"
        }
      ],
      "name": "AllProposalBansCleared",
      "type": "event"
    },
    {
      "anonymous": false,
      "inputs": [
        {
          "indexed": true,
          "internalType": "address",
          "name": "owner",
          "type": "address"
        },
        {
          "indexed": true,
          "internalType": "address",
          "name": "approved",
          "type": "address"
        },
        {
          "indexed": true,
          "internalType": "uint256",
          "name": "tokenId",
          "type": "uint256"
        }
      ],
      "name": "Approval",
      "type": "event"
    },
    {
      "anonymous": false,
      "inputs": [
        {
          "indexed": true,
          "internalType": "address",
          "name": "owner",
          "type": "address"
        },
        {
          "indexed": true,
          "internalType": "address",
          "name": "operator",
          "type": "address"
        },
        {
          "indexed": false,
          "internalType": "bool",
          "name": "approved",
          "type": "bool"
        }
      ],
      "name": "ApprovalForAll",
      "type": "event"
    },
    {
      "anonymous": false,
      "inputs": [
        {
          "indexed": false,
          "internalType": "string",
          "name": "newURI",
          "type": "string"
        }
      ],
      "name": "BaseURIUpdatedByCommunity",
      "type": "event"
    },
    {
      "anonymous": false,
      "inputs": [
        {
          "indexed": false,
          "internalType": "string",
          "name": "newURI",
          "type": "string"
        }
      ],
      "name": "BaseURIUpdatedByOwner",
      "type": "event"
    },
    {
      "anonymous": false,
      "inputs": [
        {
          "indexed": true,
          "internalType": "address",
          "name": "oldGenerator",
          "type": "address"
        },
        {
          "indexed": true,
          "internalType": "address",
          "name": "newGenerator",
          "type": "address"
        }
      ],
      "name": "GeneratorContractUpdated",
      "type": "event"
    },
    {
      "anonymous": false,
      "inputs": [
        {
          "indexed": true,
          "internalType": "address",
          "name": "lockedGenerator",
          "type": "address"
        }
      ],
      "name": "GeneratorPermanentlyLocked",
      "type": "event"
    },
    {
      "anonymous": false,
      "inputs": [
        {
          "indexed": false,
          "internalType": "string",
          "name": "newNotice",
          "type": "string"
        }
      ],
      "name": "LegalNoticeUpdated",
      "type": "event"
    },
    {
      "anonymous": false,
      "inputs": [
        {
          "indexed": true,
          "internalType": "address",
          "name": "requester",
          "type": "address"
        },
        {
          "indexed": false,
          "internalType": "uint256",
          "name": "commitBlock",
          "type": "uint256"
        },
        {
          "indexed": false,
          "internalType": "uint256",
          "name": "timestamp",
          "type": "uint256"
        },
        {
          "indexed": false,
          "internalType": "bool",
          "name": "isOwnerMint",
          "type": "bool"
        }
      ],
      "name": "MintCommitted",
      "type": "event"
    },
    {
      "anonymous": false,
      "inputs": [
        {
          "indexed": true,
          "internalType": "address",
          "name": "requester",
          "type": "address"
        },
        {
          "indexed": false,
          "internalType": "bytes32[3]",
          "name": "seeds",
          "type": "bytes32[3]"
        },
        {
          "indexed": false,
          "internalType": "uint256",
          "name": "timestamp",
          "type": "uint256"
        },
        {
          "indexed": false,
          "internalType": "bool",
          "name": "isOwnerMint",
          "type": "bool"
        }
      ],
      "name": "MintRequested",
      "type": "event"
    },
    {
      "anonymous": false,
      "inputs": [
        {
          "indexed": true,
          "internalType": "uint256",
          "name": "tokenId",
          "type": "uint256"
        },
        {
          "indexed": true,
          "internalType": "address",
          "name": "minter",
          "type": "address"
        },
        {
          "indexed": false,
          "internalType": "bytes32",
          "name": "seed",
          "type": "bytes32"
        },
        {
          "indexed": false,
          "internalType": "bool",
          "name": "hasCustomPalette",
          "type": "bool"
        },
        {
          "indexed": false,
          "internalType": "uint256",
          "name": "timestamp",
          "type": "uint256"
        }
      ],
      "name": "Minted",
      "type": "event"
    },
    {
      "anonymous": false,
      "inputs": [
        {
          "indexed": true,
          "internalType": "uint256",
          "name": "tokenId",
          "type": "uint256"
        },
        {
          "indexed": true,
          "internalType": "uint256",
          "name": "mutationIndex",
          "type": "uint256"
        },
        {
          "indexed": false,
          "internalType": "string",
          "name": "mutationType",
          "type": "string"
        },
        {
          "indexed": false,
          "internalType": "bytes32",
          "name": "seed",
          "type": "bytes32"
        },
        {
          "indexed": false,
          "internalType": "uint256",
          "name": "timestamp",
          "type": "uint256"
        }
      ],
      "name": "Mutated",
      "type": "event"
    },
    {
      "anonymous": false,
      "inputs": [
        {
          "indexed": true,
          "internalType": "uint256",
          "name": "tokenId",
          "type": "uint256"
        },
        {
          "indexed": true,
          "internalType": "address",
          "name": "owner",
          "type": "address"
        },
        {
          "indexed": false,
          "internalType": "string",
          "name": "mutationType",
          "type": "string"
        },
        {
          "indexed": false,
          "internalType": "uint256",
          "name": "commitBlock",
          "type": "uint256"
        },
        {
          "indexed": false,
          "internalType": "uint256",
          "name": "timestamp",
          "type": "uint256"
        }
      ],
      "name": "MutationCommitted",
      "type": "event"
    },
    {
      "anonymous": false,
      "inputs": [
        {
          "indexed": true,
          "internalType": "address",
          "name": "previousOwner",
          "type": "address"
        },
        {
          "indexed": true,
          "internalType": "address",
          "name": "newOwner",
          "type": "address"
        }
      ],
      "name": "OwnershipTransferred",
      "type": "event"
    },
    {
      "anonymous": false,
      "inputs": [
        {
          "indexed": true,
          "internalType": "address",
          "name": "proposer",
          "type": "address"
        },
        {
          "indexed": false,
          "internalType": "string",
          "name": "proposedURI",
          "type": "string"
        },
        {
          "indexed": false,
          "internalType": "uint256",
          "name": "timestamp",
          "type": "uint256"
        },
        {
          "indexed": false,
          "internalType": "uint256",
          "name": "proposerTokenId",
          "type": "uint256"
        }
      ],
      "name": "ProposalCreated",
      "type": "event"
    },
    {
      "anonymous": false,
      "inputs": [
        {
          "indexed": false,
          "internalType": "string",
          "name": "proposedURI",
          "type": "string"
        },
        {
          "indexed": false,
          "internalType": "uint256",
          "name": "proposerTokenId",
          "type": "uint256"
        }
      ],
      "name": "ProposalExpired",
      "type": "event"
    },
    {
      "anonymous": false,
      "inputs": [
        {
          "indexed": false,
          "internalType": "string",
          "name": "lockedURI",
          "type": "string"
        }
      ],
      "name": "ProposalLocked",
      "type": "event"
    },
    {
      "anonymous": false,
      "inputs": [
        {
          "indexed": false,
          "internalType": "string",
          "name": "proposedURI",
          "type": "string"
        },
        {
          "indexed": false,
          "internalType": "uint256",
          "name": "timestamp",
          "type": "uint256"
        }
      ],
      "name": "ProposalThresholdReached",
      "type": "event"
    },
    {
      "anonymous": false,
      "inputs": [
        {
          "indexed": true,
          "internalType": "address",
          "name": "newReceiver",
          "type": "address"
        }
      ],
      "name": "RoyaltyReceiverUpdated",
      "type": "event"
    },
    {
      "anonymous": false,
      "inputs": [
        {
          "indexed": false,
          "internalType": "string",
          "name": "oldURL",
          "type": "string"
        },
        {
          "indexed": false,
          "internalType": "string",
          "name": "newURL",
          "type": "string"
        }
      ],
      "name": "TermsOfServiceURLUpdated",
      "type": "event"
    },
    {
      "anonymous": false,
      "inputs": [
        {
          "indexed": true,
          "internalType": "uint256",
          "name": "tokenId",
          "type": "uint256"
        }
      ],
      "name": "TokenBannedFromProposing",
      "type": "event"
    },
    {
      "anonymous": false,
      "inputs": [
        {
          "indexed": true,
          "internalType": "address",
          "name": "from",
          "type": "address"
        },
        {
          "indexed": true,
          "internalType": "address",
          "name": "to",
          "type": "address"
        },
        {
          "indexed": true,
          "internalType": "uint256",
          "name": "tokenId",
          "type": "uint256"
        }
      ],
      "name": "Transfer",
      "type": "event"
    },
    {
      "anonymous": false,
      "inputs": [
        {
          "indexed": true,
          "internalType": "address",
          "name": "voter",
          "type": "address"
        },
        {
          "indexed": false,
          "internalType": "uint256",
          "name": "tokenCount",
          "type": "uint256"
        }
      ],
      "name": "VoteCast",
      "type": "event"
    },
    {
      "inputs": [],
      "name": "CONFIRMATION_WINDOW",
      "outputs": [
        {
          "internalType": "uint256",
          "name": "",
          "type": "uint256"
        }
      ],
      "stateMutability": "view",
      "type": "function"
    },
    {
      "inputs": [],
      "name": "GLOBAL_COOLDOWN",
      "outputs": [
        {
          "internalType": "uint256",
          "name": "",
          "type": "uint256"
        }
      ],
      "stateMutability": "view",
      "type": "function"
    },
    {
      "inputs": [],
      "name": "GOVERNANCE_DELAY",
      "outputs": [
        {
          "internalType": "uint256",
          "name": "",
          "type": "uint256"
        }
      ],
      "stateMutability": "view",
      "type": "function"
    },
    {
      "inputs": [],
      "name": "MAX_SUPPLY",
      "outputs": [
        {
          "internalType": "uint256",
          "name": "",
          "type": "uint256"
        }
      ],
      "stateMutability": "view",
      "type": "function"
    },
    {
      "inputs": [],
      "name": "MILESTONE_100",
      "outputs": [
        {
          "internalType": "uint256",
          "name": "",
          "type": "uint256"
        }
      ],
      "stateMutability": "view",
      "type": "function"
    },
    {
      "inputs": [],
      "name": "MILESTONE_500",
      "outputs": [
        {
          "internalType": "uint256",
          "name": "",
          "type": "uint256"
        }
      ],
      "stateMutability": "view",
      "type": "function"
    },
    {
      "inputs": [],
      "name": "MILESTONE_750",
      "outputs": [
        {
          "internalType": "uint256",
          "name": "",
          "type": "uint256"
        }
      ],
      "stateMutability": "view",
      "type": "function"
    },
    {
      "inputs": [],
      "name": "MILESTONE_999",
      "outputs": [
        {
          "internalType": "uint256",
          "name": "",
          "type": "uint256"
        }
      ],
      "stateMutability": "view",
      "type": "function"
    },
    {
      "inputs": [],
      "name": "OWNER_RESERVE",
      "outputs": [
        {
          "internalType": "uint256",
          "name": "",
          "type": "uint256"
        }
      ],
      "stateMutability": "view",
      "type": "function"
    },
    {
      "inputs": [],
      "name": "PROPOSAL_COOLDOWN",
      "outputs": [
        {
          "internalType": "uint256",
          "name": "",
          "type": "uint256"
        }
      ],
      "stateMutability": "view",
      "type": "function"
    },
    {
      "inputs": [],
      "name": "REQUEST_EXPIRATION",
      "outputs": [
        {
          "internalType": "uint256",
          "name": "",
          "type": "uint256"
        }
      ],
      "stateMutability": "view",
      "type": "function"
    },
    {
      "inputs": [],
      "name": "ROYALTY_BPS",
      "outputs": [
        {
          "internalType": "uint96",
          "name": "",
          "type": "uint96"
        }
      ],
      "stateMutability": "view",
      "type": "function"
    },
    {
      "inputs": [],
      "name": "VOTING_PERIOD",
      "outputs": [
        {
          "internalType": "uint256",
          "name": "",
          "type": "uint256"
        }
      ],
      "stateMutability": "view",
      "type": "function"
    },
    {
      "inputs": [],
      "name": "activeMintRequestTime",
      "outputs": [
        {
          "internalType": "uint256",
          "name": "",
          "type": "uint256"
        }
      ],
      "stateMutability": "view",
      "type": "function"
    },
    {
      "inputs": [],
      "name": "activeMintRequester",
      "outputs": [
        {
          "internalType": "address",
          "name": "",
          "type": "address"
        }
      ],
      "stateMutability": "view",
      "type": "function"
    },
    {
      "inputs": [
        {
          "internalType": "uint256",
          "name": "",
          "type": "uint256"
        }
      ],
      "name": "allowedMutations",
      "outputs": [
        {
          "internalType": "string",
          "name": "",
          "type": "string"
        }
      ],
      "stateMutability": "view",
      "type": "function"
    },
    {
      "inputs": [
        {
          "internalType": "uint256",
          "name": "tokenId",
          "type": "uint256"
        }
      ],
      "name": "applyMutation",
      "outputs": [],
      "stateMutability": "nonpayable",
      "type": "function"
    },
    {
      "inputs": [
        {
          "internalType": "address",
          "name": "to",
          "type": "address"
        },
        {
          "internalType": "uint256",
          "name": "tokenId",
          "type": "uint256"
        }
      ],
      "name": "approve",
      "outputs": [],
      "stateMutability": "nonpayable",
      "type": "function"
    },
    {
      "inputs": [],
      "name": "approveProposal",
      "outputs": [],
      "stateMutability": "nonpayable",
      "type": "function"
    },
    {
      "inputs": [
        {
          "internalType": "address",
          "name": "owner",
          "type": "address"
        }
      ],
      "name": "balanceOf",
      "outputs": [
        {
          "internalType": "uint256",
          "name": "",
          "type": "uint256"
        }
      ],
      "stateMutability": "view",
      "type": "function"
    },
    {
      "inputs": [],
      "name": "banGeneration",
      "outputs": [
        {
          "internalType": "uint256",
          "name": "",
          "type": "uint256"
        }
      ],
      "stateMutability": "view",
      "type": "function"
    },
    {
      "inputs": [],
      "name": "baseURI",
      "outputs": [
        {
          "internalType": "string",
          "name": "",
          "type": "string"
        }
      ],
      "stateMutability": "view",
      "type": "function"
    },
    {
      "inputs": [
        {
          "internalType": "uint256",
          "name": "tokenId",
          "type": "uint256"
        }
      ],
      "name": "canMutate",
      "outputs": [
        {
          "internalType": "bool",
          "name": "",
          "type": "bool"
        }
      ],
      "stateMutability": "view",
      "type": "function"
    },
    {
      "inputs": [],
      "name": "commitMint",
      "outputs": [],
      "stateMutability": "payable",
      "type": "function"
    },
    {
      "inputs": [
        {
          "internalType": "uint256",
          "name": "tokenId",
          "type": "uint256"
        },
        {
          "internalType": "string",
          "name": "mutationType",
          "type": "string"
        }
      ],
      "name": "commitMutation",
      "outputs": [],
      "stateMutability": "nonpayable",
      "type": "function"
    },
    {
      "inputs": [
        {
          "internalType": "string[6]",
          "name": "customPalette",
          "type": "string[6]"
        }
      ],
      "name": "commitOwnerMint",
      "outputs": [],
      "stateMutability": "nonpayable",
      "type": "function"
    },
    {
      "inputs": [
        {
          "internalType": "uint8",
          "name": "seedChoice",
          "type": "uint8"
        }
      ],
      "name": "completeMint",
      "outputs": [],
      "stateMutability": "nonpayable",
      "type": "function"
    },
    {
      "inputs": [
        {
          "internalType": "uint8",
          "name": "seedChoice",
          "type": "uint8"
        }
      ],
      "name": "completeOwnerMint",
      "outputs": [],
      "stateMutability": "nonpayable",
      "type": "function"
    },
    {
      "inputs": [],
      "name": "confirmProposal",
      "outputs": [],
      "stateMutability": "nonpayable",
      "type": "function"
    },
    {
      "inputs": [],
      "name": "currentProposal",
      "outputs": [
        {
          "internalType": "address",
          "name": "proposer",
          "type": "address"
        },
        {
          "internalType": "string",
          "name": "proposedBaseURI",
          "type": "string"
        },
        {
          "internalType": "uint256",
          "name": "proposalTime",
          "type": "uint256"
        },
        {
          "internalType": "uint256",
          "name": "totalVotesWeight",
          "type": "uint256"
        },
        {
          "internalType": "bool",
          "name": "locked",
          "type": "bool"
        },
        {
          "internalType": "bool",
          "name": "thresholdReached",
          "type": "bool"
        },
        {
          "internalType": "uint256",
          "name": "thresholdReachedTime",
          "type": "uint256"
        },
        {
          "internalType": "bool",
          "name": "executed",
          "type": "bool"
        },
        {
          "internalType": "uint256",
          "name": "proposerTokenId",
          "type": "uint256"
        }
      ],
      "stateMutability": "view",
      "type": "function"
    },
    {
      "inputs": [
        {
          "internalType": "uint256",
          "name": "",
          "type": "uint256"
        },
        {
          "internalType": "uint256",
          "name": "",
          "type": "uint256"
        }
      ],
      "name": "customPalettes",
      "outputs": [
        {
          "internalType": "string",
          "name": "",
          "type": "string"
        }
      ],
      "stateMutability": "view",
      "type": "function"
    },
    {
      "inputs": [],
      "name": "deploymentTime",
      "outputs": [
        {
          "internalType": "uint256",
          "name": "",
          "type": "uint256"
        }
      ],
      "stateMutability": "view",
      "type": "function"
    },
    {
      "inputs": [],
      "name": "generatorContract",
      "outputs": [
        {
          "internalType": "address",
          "name": "",
          "type": "address"
        }
      ],
      "stateMutability": "view",
      "type": "function"
    },
    {
      "inputs": [],
      "name": "generatorLocked",
      "outputs": [
        {
          "internalType": "bool",
          "name": "",
          "type": "bool"
        }
      ],
      "stateMutability": "view",
      "type": "function"
    },
    {
      "inputs": [],
      "name": "getAllowedMutations",
      "outputs": [
        {
          "internalType": "string[]",
          "name": "",
          "type": "string[]"
        }
      ],
      "stateMutability": "view",
      "type": "function"
    },
    {
      "inputs": [
        {
          "internalType": "uint256",
          "name": "tokenId",
          "type": "uint256"
        }
      ],
      "name": "getApproved",
      "outputs": [
        {
          "internalType": "address",
          "name": "",
          "type": "address"
        }
      ],
      "stateMutability": "view",
      "type": "function"
    },
    {
      "inputs": [],
      "name": "getCurrentPrice",
      "outputs": [
        {
          "internalType": "uint256",
          "name": "",
          "type": "uint256"
        }
      ],
      "stateMutability": "view",
      "type": "function"
    },
    {
      "inputs": [],
      "name": "getCurrentProposal",
      "outputs": [
        {
          "components": [
            {
              "internalType": "address",
              "name": "proposer",
              "type": "address"
            },
            {
              "internalType": "string",
              "name": "proposedBaseURI",
              "type": "string"
            },
            {
              "internalType": "uint256",
              "name": "proposalTime",
              "type": "uint256"
            },
            {
              "internalType": "uint256",
              "name": "totalVotesWeight",
              "type": "uint256"
            },
            {
              "internalType": "bool",
              "name": "locked",
              "type": "bool"
            },
            {
              "internalType": "bool",
              "name": "thresholdReached",
              "type": "bool"
            },
            {
              "internalType": "uint256",
              "name": "thresholdReachedTime",
              "type": "uint256"
            },
            {
              "internalType": "bool",
              "name": "executed",
              "type": "bool"
            },
            {
              "internalType": "uint256",
              "name": "proposerTokenId",
              "type": "uint256"
            }
          ],
          "internalType": "struct Spatters.CommunityProposal",
          "name": "",
          "type": "tuple"
        }
      ],
      "stateMutability": "view",
      "type": "function"
    },
    {
      "inputs": [
        {
          "internalType": "uint256",
          "name": "tokenId",
          "type": "uint256"
        }
      ],
      "name": "getCustomPalette",
      "outputs": [
        {
          "internalType": "string[6]",
          "name": "",
          "type": "string[6]"
        }
      ],
      "stateMutability": "view",
      "type": "function"
    },
    {
      "inputs": [],
      "name": "getLegalNotice",
      "outputs": [
        {
          "internalType": "string",
          "name": "",
          "type": "string"
        }
      ],
      "stateMutability": "view",
      "type": "function"
    },
    {
      "inputs": [],
      "name": "getPendingRequest",
      "outputs": [
        {
          "components": [
            {
              "internalType": "bytes32[3]",
              "name": "seeds",
              "type": "bytes32[3]"
            },
            {
              "internalType": "uint256",
              "name": "timestamp",
              "type": "uint256"
            },
            {
              "internalType": "bool",
              "name": "completed",
              "type": "bool"
            },
            {
              "internalType": "bool",
              "name": "isOwnerMint",
              "type": "bool"
            },
            {
              "internalType": "bool",
              "name": "hasCustomPalette",
              "type": "bool"
            }
          ],
          "internalType": "struct Spatters.MintRequest",
          "name": "",
          "type": "tuple"
        }
      ],
      "stateMutability": "view",
      "type": "function"
    },
    {
      "inputs": [],
      "name": "getTermsOfServiceURL",
      "outputs": [
        {
          "internalType": "string",
          "name": "",
          "type": "string"
        }
      ],
      "stateMutability": "view",
      "type": "function"
    },
    {
      "inputs": [
        {
          "internalType": "uint256",
          "name": "tokenId",
          "type": "uint256"
        }
      ],
      "name": "getTokenMutations",
      "outputs": [
        {
          "components": [
            {
              "internalType": "string",
              "name": "mutationType",
              "type": "string"
            },
            {
              "internalType": "bytes32",
              "name": "seed",
              "type": "bytes32"
            },
            {
              "internalType": "uint256",
              "name": "timestamp",
              "type": "uint256"
            }
          ],
          "internalType": "struct Spatters.MutationRecord[]",
          "name": "",
          "type": "tuple[]"
        }
      ],
      "stateMutability": "view",
      "type": "function"
    },
    {
      "inputs": [
        {
          "internalType": "uint256",
          "name": "tokenId",
          "type": "uint256"
        }
      ],
      "name": "hasTokenVoted",
      "outputs": [
        {
          "internalType": "bool",
          "name": "",
          "type": "bool"
        }
      ],
      "stateMutability": "view",
      "type": "function"
    },
    {
      "inputs": [
        {
          "internalType": "address",
          "name": "owner",
          "type": "address"
        },
        {
          "internalType": "address",
          "name": "operator",
          "type": "address"
        }
      ],
      "name": "isApprovedForAll",
      "outputs": [
        {
          "internalType": "bool",
          "name": "",
          "type": "bool"
        }
      ],
      "stateMutability": "view",
      "type": "function"
    },
    {
      "inputs": [],
      "name": "isMintSelectionInProgress",
      "outputs": [
        {
          "internalType": "bool",
          "name": "active",
          "type": "bool"
        },
        {
          "internalType": "address",
          "name": "requester",
          "type": "address"
        },
        {
          "internalType": "uint256",
          "name": "expiresAt",
          "type": "uint256"
        }
      ],
      "stateMutability": "view",
      "type": "function"
    },
    {
      "inputs": [
        {
          "internalType": "uint256",
          "name": "tokenId",
          "type": "uint256"
        }
      ],
      "name": "isTokenBanned",
      "outputs": [
        {
          "internalType": "bool",
          "name": "",
          "type": "bool"
        }
      ],
      "stateMutability": "view",
      "type": "function"
    },
    {
      "inputs": [],
      "name": "lastGlobalMintTime",
      "outputs": [
        {
          "internalType": "uint256",
          "name": "",
          "type": "uint256"
        }
      ],
      "stateMutability": "view",
      "type": "function"
    },
    {
      "inputs": [
        {
          "internalType": "uint256",
          "name": "",
          "type": "uint256"
        }
      ],
      "name": "lastMutationDay",
      "outputs": [
        {
          "internalType": "uint256",
          "name": "",
          "type": "uint256"
        }
      ],
      "stateMutability": "view",
      "type": "function"
    },
    {
      "inputs": [],
      "name": "lastProposalTime",
      "outputs": [
        {
          "internalType": "uint256",
          "name": "",
          "type": "uint256"
        }
      ],
      "stateMutability": "view",
      "type": "function"
    },
    {
      "inputs": [],
      "name": "legalNotice",
      "outputs": [
        {
          "internalType": "string",
          "name": "",
          "type": "string"
        }
      ],
      "stateMutability": "view",
      "type": "function"
    },
    {
      "inputs": [],
      "name": "lockGenerator",
      "outputs": [],
      "stateMutability": "nonpayable",
      "type": "function"
    },
    {
      "inputs": [
        {
          "internalType": "uint256",
          "name": "",
          "type": "uint256"
        }
      ],
      "name": "mutationCommits",
      "outputs": [
        {
          "internalType": "uint256",
          "name": "tokenId",
          "type": "uint256"
        },
        {
          "internalType": "string",
          "name": "mutationType",
          "type": "string"
        },
        {
          "internalType": "uint256",
          "name": "commitBlock",
          "type": "uint256"
        },
        {
          "internalType": "uint256",
          "name": "timestamp",
          "type": "uint256"
        }
      ],
      "stateMutability": "view",
      "type": "function"
    },
    {
      "inputs": [],
      "name": "name",
      "outputs": [
        {
          "internalType": "string",
          "name": "",
          "type": "string"
        }
      ],
      "stateMutability": "view",
      "type": "function"
    },
    {
      "inputs": [],
      "name": "owner",
      "outputs": [
        {
          "internalType": "address",
          "name": "",
          "type": "address"
        }
      ],
      "stateMutability": "view",
      "type": "function"
    },
    {
      "inputs": [
        {
          "internalType": "string[6]",
          "name": "customPalette",
          "type": "string[6]"
        },
        {
          "internalType": "bytes32",
          "name": "customSeed",
          "type": "bytes32"
        }
      ],
      "name": "ownerMint",
      "outputs": [],
      "stateMutability": "nonpayable",
      "type": "function"
    },
    {
      "inputs": [
        {
          "internalType": "uint256",
          "name": "tokenId",
          "type": "uint256"
        }
      ],
      "name": "ownerOf",
      "outputs": [
        {
          "internalType": "address",
          "name": "",
          "type": "address"
        }
      ],
      "stateMutability": "view",
      "type": "function"
    },
    {
      "inputs": [],
      "name": "pendingCommit",
      "outputs": [
        {
          "internalType": "uint256",
          "name": "commitBlock",
          "type": "uint256"
        },
        {
          "internalType": "uint256",
          "name": "timestamp",
          "type": "uint256"
        },
        {
          "internalType": "bool",
          "name": "hasCustomPalette",
          "type": "bool"
        },
        {
          "internalType": "bool",
          "name": "isOwnerMint",
          "type": "bool"
        }
      ],
      "stateMutability": "view",
      "type": "function"
    },
    {
      "inputs": [
        {
          "internalType": "uint256",
          "name": "",
          "type": "uint256"
        }
      ],
      "name": "pendingPalette",
      "outputs": [
        {
          "internalType": "string",
          "name": "",
          "type": "string"
        }
      ],
      "stateMutability": "view",
      "type": "function"
    },
    {
      "inputs": [],
      "name": "pendingRequest",
      "outputs": [
        {
          "internalType": "uint256",
          "name": "timestamp",
          "type": "uint256"
        },
        {
          "internalType": "bool",
          "name": "completed",
          "type": "bool"
        },
        {
          "internalType": "bool",
          "name": "isOwnerMint",
          "type": "bool"
        },
        {
          "internalType": "bool",
          "name": "hasCustomPalette",
          "type": "bool"
        }
      ],
      "stateMutability": "view",
      "type": "function"
    },
    {
      "inputs": [],
      "name": "proposalGeneration",
      "outputs": [
        {
          "internalType": "uint256",
          "name": "",
          "type": "uint256"
        }
      ],
      "stateMutability": "view",
      "type": "function"
    },
    {
      "inputs": [
        {
          "internalType": "string",
          "name": "newURI",
          "type": "string"
        }
      ],
      "name": "proposeBaseURI",
      "outputs": [],
      "stateMutability": "nonpayable",
      "type": "function"
    },
    {
      "inputs": [],
      "name": "renounceOwnership",
      "outputs": [],
      "stateMutability": "nonpayable",
      "type": "function"
    },
    {
      "inputs": [],
      "name": "requestMint",
      "outputs": [
        {
          "internalType": "bytes32[3]",
          "name": "",
          "type": "bytes32[3]"
        }
      ],
      "stateMutability": "nonpayable",
      "type": "function"
    },
    {
      "inputs": [],
      "name": "requestOwnerMint",
      "outputs": [
        {
          "internalType": "bytes32[3]",
          "name": "",
          "type": "bytes32[3]"
        }
      ],
      "stateMutability": "nonpayable",
      "type": "function"
    },
    {
      "inputs": [
        {
          "internalType": "uint256",
          "name": "tokenId",
          "type": "uint256"
        },
        {
          "internalType": "uint256",
          "name": "salePrice",
          "type": "uint256"
        }
      ],
      "name": "royaltyInfo",
      "outputs": [
        {
          "internalType": "address",
          "name": "receiver",
          "type": "address"
        },
        {
          "internalType": "uint256",
          "name": "royaltyAmount",
          "type": "uint256"
        }
      ],
      "stateMutability": "view",
      "type": "function"
    },
    {
      "inputs": [],
      "name": "royaltyReceiver",
      "outputs": [
        {
          "internalType": "address",
          "name": "",
          "type": "address"
        }
      ],
      "stateMutability": "view",
      "type": "function"
    },
    {
      "inputs": [
        {
          "internalType": "address",
          "name": "from",
          "type": "address"
        },
        {
          "internalType": "address",
          "name": "to",
          "type": "address"
        },
        {
          "internalType": "uint256",
          "name": "tokenId",
          "type": "uint256"
        }
      ],
      "name": "safeTransferFrom",
      "outputs": [],
      "stateMutability": "nonpayable",
      "type": "function"
    },
    {
      "inputs": [
        {
          "internalType": "address",
          "name": "from",
          "type": "address"
        },
        {
          "internalType": "address",
          "name": "to",
          "type": "address"
        },
        {
          "internalType": "uint256",
          "name": "tokenId",
          "type": "uint256"
        },
        {
          "internalType": "bytes",
          "name": "data",
          "type": "bytes"
        }
      ],
      "name": "safeTransferFrom",
      "outputs": [],
      "stateMutability": "nonpayable",
      "type": "function"
    },
    {
      "inputs": [
        {
          "internalType": "address",
          "name": "operator",
          "type": "address"
        },
        {
          "internalType": "bool",
          "name": "approved",
          "type": "bool"
        }
      ],
      "name": "setApprovalForAll",
      "outputs": [],
      "stateMutability": "nonpayable",
      "type": "function"
    },
    {
      "inputs": [
        {
          "internalType": "string",
          "name": "newURI",
          "type": "string"
        }
      ],
      "name": "setBaseURI",
      "outputs": [],
      "stateMutability": "nonpayable",
      "type": "function"
    },
    {
      "inputs": [
        {
          "internalType": "address",
          "name": "_generator",
          "type": "address"
        }
      ],
      "name": "setGeneratorContract",
      "outputs": [],
      "stateMutability": "nonpayable",
      "type": "function"
    },
    {
      "inputs": [
        {
          "internalType": "string",
          "name": "_newNotice",
          "type": "string"
        }
      ],
      "name": "setLegalNotice",
      "outputs": [],
      "stateMutability": "nonpayable",
      "type": "function"
    },
    {
      "inputs": [
        {
          "internalType": "address",
          "name": "newReceiver",
          "type": "address"
        }
      ],
      "name": "setRoyaltyReceiver",
      "outputs": [],
      "stateMutability": "nonpayable",
      "type": "function"
    },
    {
      "inputs": [
        {
          "internalType": "string",
          "name": "_newURL",
          "type": "string"
        }
      ],
      "name": "setTermsOfServiceURL",
      "outputs": [],
      "stateMutability": "nonpayable",
      "type": "function"
    },
    {
      "inputs": [
        {
          "internalType": "bytes4",
          "name": "interfaceId",
          "type": "bytes4"
        }
      ],
      "name": "supportsInterface",
      "outputs": [
        {
          "internalType": "bool",
          "name": "",
          "type": "bool"
        }
      ],
      "stateMutability": "view",
      "type": "function"
    },
    {
      "inputs": [],
      "name": "symbol",
      "outputs": [
        {
          "internalType": "string",
          "name": "",
          "type": "string"
        }
      ],
      "stateMutability": "view",
      "type": "function"
    },
    {
      "inputs": [],
      "name": "termsOfServiceURL",
      "outputs": [
        {
          "internalType": "string",
          "name": "",
          "type": "string"
        }
      ],
      "stateMutability": "view",
      "type": "function"
    },
    {
      "inputs": [
        {
          "internalType": "uint256",
          "name": "",
          "type": "uint256"
        }
      ],
      "name": "tokenBanGeneration",
      "outputs": [
        {
          "internalType": "uint256",
          "name": "",
          "type": "uint256"
        }
      ],
      "stateMutability": "view",
      "type": "function"
    },
    {
      "inputs": [
        {
          "internalType": "uint256",
          "name": "index",
          "type": "uint256"
        }
      ],
      "name": "tokenByIndex",
      "outputs": [
        {
          "internalType": "uint256",
          "name": "",
          "type": "uint256"
        }
      ],
      "stateMutability": "view",
      "type": "function"
    },
    {
      "inputs": [
        {
          "internalType": "uint256",
          "name": "",
          "type": "uint256"
        },
        {
          "internalType": "uint256",
          "name": "",
          "type": "uint256"
        }
      ],
      "name": "tokenMutations",
      "outputs": [
        {
          "internalType": "string",
          "name": "mutationType",
          "type": "string"
        },
        {
          "internalType": "bytes32",
          "name": "seed",
          "type": "bytes32"
        },
        {
          "internalType": "uint256",
          "name": "timestamp",
          "type": "uint256"
        }
      ],
      "stateMutability": "view",
      "type": "function"
    },
    {
      "inputs": [
        {
          "internalType": "address",
          "name": "owner",
          "type": "address"
        },
        {
          "internalType": "uint256",
          "name": "index",
          "type": "uint256"
        }
      ],
      "name": "tokenOfOwnerByIndex",
      "outputs": [
        {
          "internalType": "uint256",
          "name": "",
          "type": "uint256"
        }
      ],
      "stateMutability": "view",
      "type": "function"
    },
    {
      "inputs": [
        {
          "internalType": "uint256",
          "name": "tokenId",
          "type": "uint256"
        }
      ],
      "name": "tokenURI",
      "outputs": [
        {
          "internalType": "string",
          "name": "",
          "type": "string"
        }
      ],
      "stateMutability": "view",
      "type": "function"
    },
    {
      "inputs": [
        {
          "internalType": "uint256",
          "name": "",
          "type": "uint256"
        }
      ],
      "name": "tokenVoteGeneration",
      "outputs": [
        {
          "internalType": "uint256",
          "name": "",
          "type": "uint256"
        }
      ],
      "stateMutability": "view",
      "type": "function"
    },
    {
      "inputs": [
        {
          "internalType": "uint256",
          "name": "",
          "type": "uint256"
        }
      ],
      "name": "tokens",
      "outputs": [
        {
          "internalType": "bytes32",
          "name": "mintSeed",
          "type": "bytes32"
        },
        {
          "internalType": "uint256",
          "name": "mintTimestamp",
          "type": "uint256"
        }
      ],
      "stateMutability": "view",
      "type": "function"
    },
    {
      "inputs": [],
      "name": "totalSupply",
      "outputs": [
        {
          "internalType": "uint256",
          "name": "",
          "type": "uint256"
        }
      ],
      "stateMutability": "view",
      "type": "function"
    },
    {
      "inputs": [
        {
          "internalType": "address",
          "name": "from",
          "type": "address"
        },
        {
          "internalType": "address",
          "name": "to",
          "type": "address"
        },
        {
          "internalType": "uint256",
          "name": "tokenId",
          "type": "uint256"
        }
      ],
      "name": "transferFrom",
      "outputs": [],
      "stateMutability": "nonpayable",
      "type": "function"
    },
    {
      "inputs": [
        {
          "internalType": "address",
          "name": "newOwner",
          "type": "address"
        }
      ],
      "name": "transferOwnership",
      "outputs": [],
      "stateMutability": "nonpayable",
      "type": "function"
    },
    {
      "inputs": [],
      "name": "withdraw",
      "outputs": [],
      "stateMutability": "nonpayable",
      "type": "function"
    }
  ],
  "bytecode": "0x60a03462001673576001600160401b0390604090808201838111828210176200165f5782526008815260209067537061747465727360c01b82820152825193838501858110828211176200165f5784526004918286526314d4105560e21b8487015280518281116200147f575f54906001928383811c9316801562001654575b8784101462001560578190601f9384811162001601575b5087908483116001146200159d575f9262001591575b50505f19600383901b1c191690831b175f555b8651908382116200157e5782548381811c9116801562001573575b87821014620015605781811162001518575b5085908211600114620014b457819293949596975f92620014a8575b50505f19600383901b1c191690821b1781555b33156200149257600a8054336001600160a01b03198083168217909355906001600160a01b03167f8be0079c531659141344cd1fd0a4f28419497f9722a3daafe3b4186f6b6457e05f80a381602f553390600b541617600b554260805280601b55600d55620001ac6200018d62001677565b70617370656374526174696f4368616e676560781b858201526200198f565b620001da620001ba6200169b565b7162617365526164697573496e63726561736560701b858201526200198f565b62000208620001e86200169b565b7162617365526164697573446563726561736560701b858201526200198f565b62000236620002166200169b565b716772616469656e74547970654368616e676560701b858201526200198f565b62000264620002446200169b565b7164697669646572436f756e744368616e676560701b858201526200198f565b620002916200027262001677565b70636972636c65436f756e744368616e676560781b858201526200198f565b620002bc6200029f620016bf565b6e6c696e65436f756e744368616e676560881b858201526200198f565b620002ea620002ca6200169b565b71636972636c6553697a65496e63726561736560701b858201526200198f565b62000318620002f86200169b565b71636972636c6553697a65446563726561736560701b858201526200198f565b6200035162000326620016e3565b7f636972636c65506f736974696f6e4368616e6765000000000000000000000000858201526200198f565b6200037b6200035f62001707565b6d18da5c98db19535bdd995319599d60921b858201526200198f565b620003a662000389620016bf565b6e18da5c98db19535bdd99549a59da1d608a1b858201526200198f565b620003ce620003b46200172b565b6b0636972636c654d6f766555760a41b858201526200198f565b620003f8620003dc62001707565b6d31b4b931b632a6b7bb32a237bbb760911b858201526200198f565b620004256200040662001677565b706c696e655769647468496e63726561736560781b858201526200198f565b620004526200043362001677565b706c696e655769647468446563726561736560781b858201526200198f565b6200047d62000460620016bf565b6e6c696e65416e676c654368616e676560881b858201526200198f565b620004ab6200048b6200169b565b716c696e654c656e677468496e63726561736560701b858201526200198f565b620004d9620004b96200169b565b716c696e654c656e677468446563726561736560701b858201526200198f565b62000507620004e76200169b565b716c696e65506f736974696f6e4368616e676560701b858201526200198f565b6200052f620005156200172b565b6b1b1a5b99535bdd995319599d60a21b858201526200198f565b620005586200053d6200174f565b6c1b1a5b99535bdd99549a59da1d609a1b858201526200198f565b8351848101818110838211176200147f578552600a81526906c696e654d6f766555760b41b848201526200058c906200198f565b620005b46200059a6200172b565b6b3634b732a6b7bb32a237bbb760a11b858201526200198f565b620005e0620005c262001773565b6f70616c657474654368616e67654f6e6560801b858201526200198f565b6200060c620005ee62001773565b6f1c185b195d1d1950da185b99d9505b1b60821b858201526200198f565b620006396200061a62001677565b7070616c65747465436f6d62696e654f6e6560781b858201526200198f565b620006666200064762001677565b701c185b195d1d1950dbdb589a5b99505b1b607a1b858201526200198f565b6200069162000674620016bf565b6e70616c6574746552657365744f6e6560881b858201526200198f565b620006bc6200069f620016bf565b6e1c185b195d1d1954995cd95d105b1b608a1b858201526200198f565b620006e6620006ca62001707565b6d70616c6574746553687566666c6560901b858201526200198f565b6200070d620006f462001797565b6a646976696465724d6f766560a81b858201526200198f565b620007366200071b6200174f565b6c64697669646572526f7461746560981b858201526200198f565b8351848101818110838211176200147f5785526006815265726f7461746560d01b8482015262000766906200198f565b6200079f62000774620017bb565b7f73656564506f696e74436f756e74496e63726561736500000000000000000000858201526200198f565b620007d8620007ad620017bb565b7f73656564506f696e74436f756e74446563726561736500000000000000000000858201526200198f565b62000806620007e66200169b565b711cd959591c1bda5b9d135bdd99549a59da1d60721b858201526200198f565b620008336200081462001677565b701cd959591c1bda5b9d135bdd995319599d607a1b858201526200198f565b6200085e62000841620016bf565b6e073656564706f696e744d6f7665557608c1b858201526200198f565b6200088b6200086c62001677565b7039b2b2b23837b4b73a26b7bb32a237bbb760791b858201526200198f565b620008c462000899620017df565b7f73656564706f696e744368616e6765437572766543656e746572000000000000858201526200198f565b620008fd620008d2620017df565b7f73656564706f696e74496e637265617365436f6e636176697479000000000000858201526200198f565b620009366200090b620017df565b7f73656564706f696e744465637265617365436f6e636176697479000000000000858201526200198f565b6200096f6200094462001803565b7f73656564706f696e74496e637265617365526164697573000000000000000000858201526200198f565b620009a86200097d62001803565b7f73656564706f696e744465637265617365526164697573000000000000000000858201526200198f565b620009cf620009b662001797565b6a1cda185c19515e1c185b9960aa1b858201526200198f565b620009f6620009dd62001797565b6a7368617065536872696e6b60a81b858201526200198f565b62000a2062000a0462001707565b6d39b430b832a6b0b5b2abb4b232b960911b858201526200198f565b62000a4d62000a2e62001677565b7039b430b832a6b0b5b2a730b93937bbb2b960791b858201526200198f565b62000a7862000a5b620016bf565b6e39b430b832a6b0b5b2a434b3b432b960891b858201526200198f565b62000aa462000a8662001773565b6f39b430b832a6b0b5b2a9b437b93a32b960811b858201526200198f565b62000add62000ab262001803565b7f73686170654368616e6765437572766543656e74657273000000000000000000858201526200198f565b62000b1662000aeb620017bb565b7f7368617065496e637265617365436f6e63617669747900000000000000000000858201526200198f565b62000b4f62000b24620016e3565b7f7368617065526564756365436f6e636176697479000000000000000000000000858201526200198f565b62000b8862000b5d62001827565b7f73686170654368616e6765526164697573657300000000000000000000000000858201526200198f565b8351848101818110838211176200147f578552600981526873686170654d6f766560b81b8482015262000bbb906200198f565b62000be362000bc96200172b565b6b3ab73237a6baba30ba34b7b760a11b858201526200198f565b62000c1c62000bf162001803565b7f72657475726e546f50726576696f757356657273696f6e000000000000000000858201526200198f565b62000c5562000c2a620017bb565b7f73656564706f696e744d6f766552696768742d746f7000000000000000000000858201526200198f565b62000c8e62000c636200184b565b7f73656564706f696e744d6f76654c6566742d746f700000000000000000000000858201526200198f565b62000cc762000c9c62001827565b7f73656564706f696e744d6f766555702d746f7000000000000000000000000000858201526200198f565b62000d0062000cd56200184b565b7f73656564706f696e744d6f7665446f776e2d746f700000000000000000000000858201526200198f565b62000d3962000d0e6200186f565b7f73656564706f696e744368616e6765437572766543656e7465722d746f700000858201526200198f565b62000d7262000d476200186f565b7f73656564706f696e74496e637265617365436f6e6361766974792d746f700000858201526200198f565b62000dab62000d806200186f565b7f73656564706f696e744465637265617365436f6e6361766974792d746f700000858201526200198f565b62000de462000db962001893565b7f73656564706f696e74496e6372656173655261646975732d746f700000000000858201526200198f565b62000e1d62000df262001893565b7f73656564706f696e7444656372656173655261646975732d746f700000000000858201526200198f565b835191828501918211838310176200146c575062001447929162000e6c918552601981527f73656564706f696e744d6f766552696768742d626f74746f6d00000000000000838201526200198f565b62000ea562000e7a620018b7565b7f73656564706f696e744d6f76654c6566742d626f74746f6d0000000000000000838201526200198f565b62000ede62000eb3620017bb565b7f73656564706f696e744d6f766555702d626f74746f6d00000000000000000000838201526200198f565b62000f1762000eec620018b7565b7f73656564706f696e744d6f7665446f776e2d626f74746f6d0000000000000000838201526200198f565b62000fd762000f25620018db565b7f73656564706f696e744368616e6765437572766543656e7465722d626f74746f8382015262000f5f606d60f81b9182878201526200198f565b62000f9d62000f6d620018db565b7f73656564706f696e74496e637265617365436f6e6361766974792d626f74746f8582015282878201526200198f565b62000fa7620018db565b907f73656564706f696e744465637265617365436f6e6361766974792d626f74746f84830152858201526200198f565b6200101062000fe56200186f565b7f73656564706f696e74496e6372656173655261646975732d626f74746f6d0000838201526200198f565b620010496200101e6200186f565b7f73656564706f696e7444656372656173655261646975732d626f74746f6d0000838201526200198f565b620010826200105762001803565b7f73656564706f696e744d6f766552696768742d6c656674000000000000000000838201526200198f565b620010bb62001090620017bb565b7f73656564706f696e744d6f76654c6566742d6c65667400000000000000000000838201526200198f565b620010f4620010c9620016e3565b7f73656564706f696e744d6f766555702d6c656674000000000000000000000000838201526200198f565b6200112d62001102620017bb565b7f73656564706f696e744d6f7665446f776e2d6c65667400000000000000000000838201526200198f565b620011666200113b620018ff565b7f73656564706f696e744368616e6765437572766543656e7465722d6c65667400838201526200198f565b6200119f62001174620018ff565b7f73656564706f696e74496e637265617365436f6e6361766974792d6c65667400838201526200198f565b620011d8620011ad620018ff565b7f73656564706f696e744465637265617365436f6e6361766974792d6c65667400838201526200198f565b62001211620011e662001923565b7f73656564706f696e74496e6372656173655261646975732d6c65667400000000838201526200198f565b6200124a6200121f62001923565b7f73656564706f696e7444656372656173655261646975732d6c65667400000000838201526200198f565b6200128362001258620018b7565b7f73656564706f696e744d6f766552696768742d72696768740000000000000000838201526200198f565b620012bc6200129162001803565b7f73656564706f696e744d6f76654c6566742d7269676874000000000000000000838201526200198f565b620012f5620012ca6200184b565b7f73656564706f696e744d6f766555702d72696768740000000000000000000000838201526200198f565b6200132e6200130362001803565b7f73656564706f696e744d6f7665446f776e2d7269676874000000000000000000838201526200198f565b620013676200133c62001947565b7f73656564706f696e744368616e6765437572766543656e7465722d7269676874838201526200198f565b620013a06200137562001947565b7f73656564706f696e74496e637265617365436f6e6361766974792d7269676874838201526200198f565b620013d9620013ae62001947565b7f73656564706f696e744465637265617365436f6e6361766974792d7269676874838201526200198f565b62001412620013e76200196b565b7f73656564706f696e74496e6372656173655261646975732d7269676874000000838201526200198f565b7f73656564706f696e7444656372656173655261646975732d72696768740000006200143d6200196b565b918201526200198f565b51615d8a908162001b4d82396080518181816109080152818161239101526137a90152f35b604190634e487b7160e01b5f525260245ffd5b604184634e487b7160e01b5f525260245ffd5b8451631e4fbdf760e01b81525f81850152602490fd5b015190505f8062000108565b601f19821690835f52865f20915f5b818110620015025750988385969798999a10620014e9575b505050811b0181556200011b565b01515f1960f88460031b161c191690555f8080620014db565b8a830151845592850192918801918801620014c3565b835f52865f208280850160051c82019289861062001556575b0160051c019084905b8281106200154a575050620000ec565b5f81550184906200153a565b9250819262001531565b602286634e487b7160e01b5f525260245ffd5b90607f1690620000da565b604185634e487b7160e01b5f525260245ffd5b015190505f80620000ac565b90859350601f198316915f8052895f20925f5b8b828210620015ea5750508411620015d1575b505050811b015f55620000bf565b01515f1960f88460031b161c191690555f8080620015c3565b8385015186558997909501949384019301620015b0565b9091505f8052875f208480850160051c8201928a86106200164a575b918791869594930160051c01915b8281106200163b57505062000096565b5f81558594508791016200162b565b925081926200161d565b92607f16926200007f565b634e487b7160e01b5f52604160045260245ffd5b5f80fd5b60408051919082016001600160401b038111838210176200165f5760405260118252565b60408051919082016001600160401b038111838210176200165f5760405260128252565b60408051919082016001600160401b038111838210176200165f57604052600f8252565b60408051919082016001600160401b038111838210176200165f5760405260148252565b60408051919082016001600160401b038111838210176200165f57604052600e8252565b60408051919082016001600160401b038111838210176200165f57604052600c8252565b60408051919082016001600160401b038111838210176200165f57604052600d8252565b60408051919082016001600160401b038111838210176200165f5760405260108252565b60408051919082016001600160401b038111838210176200165f57604052600b8252565b60408051919082016001600160401b038111838210176200165f5760405260168252565b60408051919082016001600160401b038111838210176200165f57604052601a8252565b60408051919082016001600160401b038111838210176200165f5760405260178252565b60408051919082016001600160401b038111838210176200165f5760405260138252565b60408051919082016001600160401b038111838210176200165f5760405260158252565b60408051919082016001600160401b038111838210176200165f57604052601e8252565b60408051919082016001600160401b038111838210176200165f57604052601b8252565b60408051919082016001600160401b038111838210176200165f5760405260188252565b60405190606082016001600160401b038111838210176200165f5760405260218252565b60408051919082016001600160401b038111838210176200165f57604052601f8252565b60408051919082016001600160401b038111838210176200165f57604052601c8252565b60408051919082016001600160401b038111838210176200165f5760405260208252565b60408051919082016001600160401b038111838210176200165f57604052601d8252565b90603354680100000000000000008110156200165f576001908181018060335581101562001b385760335f528351936020917f82a75bdeeae8604d839476ae9efd8b0e15aa447e21bfd7f41283bb54e22c9a82016001600160401b0386116200165f5780548481811c9116801562001b2d575b8482101462001b1957601f811162001ace575b5082601f871160011462001a6957958060349596975f9162001a5d575b505f19600383901b1c191690861b1790555b8181519101205f525260405f209060ff19825416179055565b90508301515f62001a32565b601f19871690825f52845f20915f5b81811062001ab85750918891879899603498941062001a9f575b5050811b01905562001a44565b8501515f1960f88460031b161c191690555f8062001a92565b8583015184559287019291860191860162001a78565b815f52835f20601f880160051c81019185891062001b0e575b601f0160051c019085905b82811062001b0257505062001a15565b5f815501859062001af2565b909150819062001ae7565b634e487b7160e01b5f52602260045260245ffd5b90607f169062001a02565b634e487b7160e01b5f52603260045260245ffdfe6080604081815260049182361015610015575f80fd5b60e05f35811c9182629c4c7e14613fcb5750816301ffc9a714613f2857816306fdde0314613e985781630739ac0614613e7c578163081812fc14613e43578163095ea7b314613d6657816309aaa61e14613d495781630d3fd16114613d1d578163131f3a1e14613634578163149e7b7714613cc1578163154080f214613c9d578163161860d614613c7557816318160ddd14613c5957816318bad12914613c3b57816323b872dd14613c2457816327189ca01461377357816329777c35146137575781632a55205a146136f85781632b49d425146136615781632f745c591461363957816332cb6b0c146136345781633ccfd60b146135945781633eea906f1461356c5781634141fc1e146133c757816341ec68701461329257816342842e0e14613264578163467f67f91461324757816349c657db1461322b5781634e474dd9146132035781634f64b2be146131d25781634f6ccce71461317857816354f484191461315a57816355f804b31461300f5781635bcd361814612dc65781635d58a75f14612d845781635ef46bc514612cbb5781635fa951a714612adb5781636352211e14612aab57816369ccf4c6146129365781636b04a1e2146128505781636c0360eb146127bf57816370a082311461279a57816370a6f2301461273b578163715018a6146126f357816371f951d8146126c75781637e056b911461237d57816385c639fe1461235557816386e2d5df146123385781638da5cb5b146123105781638dc251e31461226f57816390f4fe72146121825750806393a5a3db146108b257806395d89b41146120cc57806396e90f64146120635780639a617d0c14611f4b5780639fbc871314611f23578063a22cb46514611e88578063a7fa70ce14611e61578063afb7bed914611cc3578063afe21c29146119ec578063b0b54895146119ce578063b1610d7e146119b1578063b4448b1e14611842578063b6fd4622146116e4578063b88d4fde14611678578063ba09768614611642578063ba7a9c35146112f2578063c83d07e3146112b5578063c87b56dd14611021578063c9e5689814610d82578063cb0f399014610a82578063cdc3cc4114610a5a578063d088650a14610a3c578063d9759f9a14610a21578063e2b0a15d146109db578063e985e9c51461098d578063e9b3536114610951578063eb91d37e1461092b578063ecda10f5146108f1578063ede6fade146108d6578063f0fbfbcc146108b2578063f2fde38b1461083c578063fa90eabf14610764578063fbe1f90e14610723578063fc2deeed146106fd578063fe660dc6146106df578063fefafa0814610631578063ff9830bd146106155763ffe0c783146103f3575f80fd5b34610611575f366003190112610611576060815161041081614361565b36903761041b615147565b610423615173565b61043860018060a01b03603154163314614e3b565b60215491610447831515614e79565b6022549060ff9260ff8360081c16156105db57610466602c5415614ef2565b602094602054610477814311614f2c565b610100938482018083116105c85761049190431115614f67565b610a8c8301908184116105b557506104ab90421115614fa7565b40916104b8831515614fe4565b8051936104c485614361565b60603686375f5b87811660038110156104fa57816001916104f26104eb8c958a8a33615742565b918a61501f565b5201166104cb565b83878460808b8e855161050c81614346565b8581524260208201525f8782015260ff600193600160608401521615159384910152845f5b600381106105a3576060876105a18a898942602c5562ff0000602d549160101b169062ffffff19161717602d55805161056a81856144cf565b4285820152600160808201525f80516020615bd583398151915260a03392a25f5f80516020615cf58339815191525d5180926144cf565bf35b81516029820155908201908301610531565b601190634e487b7160e01b5f525260245ffd5b601182634e487b7160e01b5f525260245ffd5b906020606492519162461bcd60e51b8352820152601060248201526f139bdd081bdddb995c8818dbdb5b5a5d60821b6044820152fd5b5f80fd5b5034610611575f36600319011261061157602090516101f48152f35b5090346106115760203660031901126106115761064c61402b565b90610655615147565b600f549260ff8460a01c166106a95750506001600160a01b039081166001600160a01b031983168117600f5591167f4629afddec912ec503dd73bdff4ed7d1ddff82665cc12234d2050e12f518e5ed5f80a3005b906020606492519162461bcd60e51b8352820152601060248201526f11d95b995c985d1bdc881b1bd8dad95960821b6044820152fd5b5034610611575f366003190112610611576020906032549051908152f35b5034610611575f3660031901126106115760209060ff600f5460a01c1690519015158152f35b5034610611575f3660031901126106115780516107609161074e82610747816140e4565b03836143b2565b51918291602083526020830190614006565b0390f35b509034610611575f3660031901126106115761077e615147565b600f549060ff8260a01c16610808576001600160a01b0382169283156107d657505060ff60a01b1916600160a01b17600f557f8dc9002242fe1d7789084ad61acb9adee344fd3e9d6c7bd89d94da389ea999145f80a2005b906020606492519162461bcd60e51b8352820152600c60248201526b27379033b2b732b930ba37b960a11b6044820152fd5b606490602084519162461bcd60e51b8352820152600e60248201526d105b1c9958591e481b1bd8dad95960921b6044820152fd5b5090346106115760203660031901126106115761085761402b565b90610860615147565b6001600160a01b0391821692831561089c575050600a80546001600160a01b031981168417909155165f80516020615c358339815191525f80a3005b905f6024925191631e4fbdf760e01b8352820152fd5b5034610611575f3660031901126106115780516107609161074e82610747816141e0565b5034610611575f3660031901126106115760209051601e8152f35b5034610611575f36600319011261061157602090517f00000000000000000000000000000000000000000000000000000000000000008152f35b5034610611575f3660031901126106115760209061094a602f5461519f565b9051908152f35b5034610611575f3660031901126106115760609061096d61506e565b835192151583526001600160a01b03909116602083015291810191909152f35b50346106115780600319360112610611576020906109a961402b565b6109b1614041565b9060018060a01b038091165f5260058452825f2091165f52825260ff815f20541690519015158152f35b5034610611575f3660031901126106115760809060ff602c5491602d5490805193845282821615156020850152828260081c1615159084015260101c1615156060820152f35b5034610611575f366003190112610611576020905160648152f35b5034610611575f36600319011261061157602090600c549051908152f35b5034610611575f3660031901126106115760315490516001600160a01b039091168152602090f35b50346106115780600319360112610611576001600160401b0390823590828211610611578184019160c436910111610611576024803592610ac1615147565b610ac9615173565b602f5494610adb6103e7871115614a13565b8415610d49576031546001600160a01b0316158015610d20575b15610cf057610b0382614ab4565b905015159687610cb3575b42603055610b1b87614842565b602f55845193610b2a8561432b565b86855260209089828701964288528a5f52601d8452885f20905181556001809851910155610ba5575b89895f80516020615cb5833981519152610b908b8b610b728533615311565b51908152931515602085015242604085015233939081906060820190565b0390a35f5f80516020615cf58339815191525d005b5f5b60068110610bb55750610b53565b610bbf8187614ae8565b8b5f52601f808652610bd3848c5f20614089565b939093610ca257888311610c9057908291610bfb8594610bf58e9897546140ac565b86614866565b5f918311600114610c2e57610c1a92915f9183610c23575b50506148a0565b90555b01610ba7565b013590505f80610c13565b601f19831691845f52885f20925f5b8a828210610c7a5750509084889594939210610c61575b505050811b019055610c1d565b01355f19600384901b60f8161c191690555f8080610c54565b8385013586558f99909501949283019201610c3d565b85604189634e487b7160e01b5f52525ffd5b855f89634e487b7160e01b8252525ffd5b5f5b60068110610cc35750610b0e565b80610cea610ce5610ce0610cd960019589614ae8565b3691614425565b615220565b614b2a565b01610cb5565b835162461bcd60e51b8152602081890152600b818501526a4d696e742061637469766560a81b6044820152606490fd5b50603254610a8c8101809111610d37574211610af5565b83601189634e487b7160e01b5f52525ffd5b835162461bcd60e51b81526020818901526014818501527310dd5cdd1bdb481cd95959081c995c5d5a5c995960621b6044820152606490fd5b50346106115780600319360112610611578135906001600160401b036024803582811161061157610db6903690870161445b565b94610dbf615173565b610ddb610dcb866150c0565b6001600160a01b03163314615030565b8551602090818801205f526034815260ff855f20541615610ff257610dff86614dba565b15610fc257855f52602e81526003855f2001548015908115610f9a575b5015610f6957845193610e2e85614310565b86855281850191888352868601934385526060870195428752895f52602e8352885f2097518855600190600189019551928351958611610f58575050610e7e84610e7887546140ac565b87614866565b82601f8511600114610ede57505082600395935f80516020615bf58339815191529998979593610eb5935f92610ed35750506148a0565b90555b516002840155519101555180610b90339542904390846144ad565b015190505f80610c13565b5f868152818120949392601f19871692905b838310610f4157505050926001928592600398965f80516020615bf58339815191529c9b9a989610610f2a575b505050811b019055610eb8565b01515f1983891b60f8161c191690555f8080610f1d565b848601518755958601959481019491810191610ef0565b604190634e487b7160e01b5f52525ffd5b606492600e9186519362461bcd60e51b85528401528201526d436f6d6d69742070656e64696e6760901b6044820152fd5b9050610a8c8101809111610fb05742115f610e1c565b83601184634e487b7160e01b5f52525ffd5b606492600d9186519362461bcd60e51b85528401528201526c43616e6e6f74206d757461746560981b6044820152fd5b606492600c9186519362461bcd60e51b85528401528201526b496e76616c6964207479706560a01b6044820152fd5b503461061157602090816003193601126106115782355f8181526002845282902054611057906001600160a01b031615156148b2565b600e54611063816140ac565b15611280578180955f9172184f03e93ff9f4daa797ed6e38ed64bf6a1f0160401b9081811015611273575b506904ee2d6d415b85acef8160201b905080881015611265575b50662386f26fc1000080881015611256575b506305f5e10080881015611247575b506127108088101561123b575b5050606486101561122d575b600a80961015611225575b60019060018101966111166111018961440a565b9861110e88519a8b6143b2565b808a5261440a565b94836021898b0194601f198099013687378b0101905b6111f7575b50505084519687935f93611144826140ac565b91896001821691825f146111d5575050600114611193575b50509180611177611184959361076098979551938491613fe5565b01039081018652856143b2565b51928284938452830190614006565b8892939450600e5f52825f20905f915b8383106111bb5750505084010191908061117761115c565b80549783018501979097528a968a949092019181016111a3565b60ff19168189015283151590930287019092019450829150611177905061115c565b5f19019082906f181899199a1a9b1b9c1cb0b131b232b360811b8282061a83530490848261112c5750611131565b6001016110ed565b9460646002910495016110e2565b90960495015f806110d6565b6008919297049601905f6110c9565b6010919297049601905f6110ba565b86919297049601905f6110a8565b0496508491505f8061108e565b825162461bcd60e51b8152808601859052600f60248201526e18985cd9555492481b9bdd081cd95d608a1b6044820152606490fd5b5090346106115760203660031901126106115735603354811015610611576107609161074e6107479260335f5260205f200182519384809261424f565b5034610611576020908160031936011261061157823591611311615173565b61131d610dcb846150c0565b825f52602e8152815f2082519161133383614310565b815483526001928451926113548461134d8188850161424f565b03856143b2565b828201938452606060036002830154928885019384520154920191808352156116135761138381514311614f2c565b805161010081018091116116005761139d90431115614f67565b8151610a8c8101809111611600576113b790421115614fa7565b865f5260358352620151804204865f205551406113d5811515614fe4565b865f52601e8352855f2054915190865191848301938985523360601b898501526054840152607483015260948201526094815261141181614397565b51902092855f52602e82525f600386822082815583810161143281546140ac565b90816115c5575b50508260028201550155855f52601e8252845f2083519186519261145c84614361565b83528383018681524288850190815283549093600160401b8210156115a0579061148a918482018155614494565b9490946115b357518051906001600160401b0382116115a0576114b7826114b188546140ac565b88614866565b8690601f8311600114611537578260029593601e99989795936114e1935f92610ed35750506148a0565b85555b519084015551910155855f5252825f2054945f1986019586116105b5575090610b907f4226f74e56624aaf998322a4bb5ebb847b5811ac4711df2f3d9b46d7a8f4a3e993925192519283924291846144ad565b90601f19831691875f52885f20925f5b81811061158b575092869491926002979383601e9c9b9a989610611573575b505050811b0185556114e4565b01515f1960f88460031b161c191690555f8080611566565b82840151855593870193928a01928a01611547565b60418c634e487b7160e01b5f525260245ffd5b5f8b634e487b7160e01b82525260245ffd5b81601f8693116001146115dc5750555b5f80611439565b9080839182526115f9601f8a8420940160051c8401898501614850565b55556115d5565b601189634e487b7160e01b5f525260245ffd5b855162461bcd60e51b81528089018490526009602482015268139bc818dbdb5b5a5d60ba1b6044820152606490fd5b50903461061157602036600319011261061157356006811015610611578161074e6107479261076094519384809260230161424f565b82346106115760803660031901126106115761169261402b565b61169a614041565b604435906064356001600160401b0381116106115736602382011215610611576116e2948160246116d093369301359101614425565b926116dc838383614540565b33615793565b005b503461061157602036600319011261061157813560ff811680820361061157600361171791611711615173565b10614b81565b6031549061172f6001600160a01b0383163314614bc3565b61173c602c541515614c02565b602d549361174d60ff861615614c3b565b61175d60ff8660081c1615614eb9565b602154610a8c81018091116105c85761177890421115614c76565b600382101561182f57506029015460ff19909316600117602d556001600160a01b0319166031555f60328190556020819055602181905560225542603055602f54906117c382614842565b602f5580516117d18161432b565b838152600160208201428152845f52601d602052835f2092518355519101556117fa8233615311565b80519283525f602084015242908301525f80516020615cb583398151915260603393a35f5f80516020615cf58339815191525d005b603290634e487b7160e01b5f525260245ffd5b50903461061157602080600319360112610611576001600160401b0392823584811161061157611875903690850161445b565b9261187e615147565b835194851161199e57506118936010546140ac565b601f8111611964575b508193601f81116001146118f157906118cf826118e1935f80516020615d15833981519152975f916118e6575b506148a0565b60105551928284938452830190614006565b0390a1005b90508601515f6118c9565b601f1981169460105f52835f20955f5b81811061194d5750915f80516020615d1583398151915296600192826118e1969510611935575b5050811b01601055611184565b8701515f1960f88460031b161c191690555f80611928565b868301518855600190970196918501918501611901565b61198e9060105f52835f20601f870160051c810191858810611994575b601f0160051c0190614850565b5f61189c565b9091508190611981565b604190634e487b7160e01b5f525260245ffd5b5034610611575f36600319011261061157602090516220f5808152f35b5034610611575f36600319011261061157602090516312cc03008152f35b5034610611575f366003190112610611576012546001600160a01b03163303611c915760ff60165460081c1615611c5f5760ff60185416611c29576017546202a3008101809111611c16574211611be057611a486013546140ac565b916001600160401b03831161199e5750611a63600e546140ac565b601f8111611ba5575b505f601f8311600114611b0057825f80516020615d3583398151915293611a99925f91611af457506148a0565b600e555b600160ff1960185416176018557f861427b54efccb3916ffce06e33cfdc507ebe9587bd407e90a0af1dbc6fe7e4d6020611ad8601b54614842565b80601b558351908152a15160208152806118e160208201614171565b9050601301545f6118c9565b600e5f9081525f80516020615bb583398151915291907f66de8ffda797e3de9c05e8fc57b3bf0ec28a930d40b0d285d93c06501cf6a09090601f1986169060205b828210611b8c5750509160019391865f80516020615d35833981519152979410611b74575b505050811b01600e55611a9d565b01545f1960f88460031b161c191690555f8080611b66565b8495819295850154815560018091019601940190611b41565b600e5f52611bda905f80516020615bb5833981519152601f850160051c8101916020861061199457601f0160051c0190614850565b5f611a6c565b906020606492519162461bcd60e51b8352820152601060248201526f141c9bdc1bdcd85b08195e1c1a5c995960821b6044820152fd5b601183634e487b7160e01b5f525260245ffd5b906020606492519162461bcd60e51b8352820152601060248201526f105b1c9958591e48195e1958dd5d195960821b6044820152fd5b906020606492519162461bcd60e51b8352820152600c60248201526b139bc81d1a1c995cda1bdb1960a21b6044820152fd5b906020606492519162461bcd60e51b8352820152600c60248201526b2737ba10383937b837b9b2b960a11b6044820152fd5b5034610611575f3660031901126106115760608151611ce181614361565b369037611cec615173565b611d0160018060a01b03603154163314614e3b565b60215490611d10821515614e79565b60ff91611d2560ff60225460081c1615614eb9565b611d31602c5415614ef2565b60209360205490611d43824311614f2c565b61010082018083116105c857611d5b90431115614f67565b610a8c8301908184116105b55750611d7590421115614fa7565b40611d81811515614fe4565b825191611d8d83614361565b60603684375f5b8581166003811015611dc35781600191611dbb611db48a95888833615742565b918861501f565b520116611d94565b8585895f60808451611dd481614346565b84815242602082015282868201528260608201520152815f5b60038110611e4e576060846105a18742602c5562ffffff19602d5416602d558051611e1881856144cf565b42858201525f60808201525f80516020615bd583398151915260a03392a25f5f80516020615cf58339815191525d5180926144cf565b8151602982015590820190600101611ded565b503461061157602036600319011261061157602091355f52601a8252805f20549051908152f35b5034610611578060031936011261061157611ea161402b565b9060243591821515809303610611576001600160a01b0316928315611f0e5750335f526005602052805f20835f52602052805f2060ff1981541660ff8416179055519081527f17307eab39ab6107e8899845ad3d59bd9653f200f220920489ca2b5937696c3160203392a3005b836024925191630b61174360e31b8352820152fd5b5034610611575f36600319011261061157600b5490516001600160a01b039091168152602090f35b509034610611576020908160031936011261061157355f52601e8152815f20805491611f7683614b6a565b92611f83855194856143b2565b80845281840180935f52825f205f915b8383106120145750505050835192818401908285525180915284840191858260051b86010193925f965b838810611fca5786860387f35b90919293948380600192603f198a82030186528851908580611ff56060855190808652850190614006565b9385810151868501520151910152970193019701969093929193611fbd565b6003856001928a9997995161202881614361565b8b5161203f81612038818a61424f565b03826143b2565b8152848601548382015260028601548c820152815201920192019190959395611f93565b50903461061157602036600319011261061157355f52602e602052805f20908154908051926120998461134d816001850161424f565b60036002820154910154906120bf83519586958652608060208701526080860190614006565b9284015260608301520390f35b5034610611575f366003190112610611578051905f9082600192600154936120f3856140ac565b90818452602095866001821691825f14612160575050600114612123575b505061076092916111849103856143b2565b9085925060015f52825f20915f925b8284106121485750505082010181611184612111565b8054848a018601528895508794909301928101612132565b60ff19168682015292151560051b850190920192508391506111849050612111565b8234610611575f3660031901126106115780519061219f82614346565b80516121aa81614361565b606036823782525f60806020938260208201528284820152826060820152015280516121d581614346565b815192836029915f915b6003831061225a57505050506121f483614361565b828152602c549160208201928352602d549261223a8284019260ff86161515845260ff60806060870196828960081c1615158852019660101c16151586525180966144cf565b516060850152511515608084015251151560a083015251151560c0820152f35b600182819286548152019401920191926121df565b8284346106115760203660031901126106115761228a61402b565b612292615147565b6001600160a01b03169182156122db57600b80546001600160a01b03191684179055827fc3696c23bd17454d95c44cb489c7a0db717d6d809e238813932720cc785ad5355f80a2005b906020606492519162461bcd60e51b8352820152600f60248201526e496e76616c6964206164647265737360881b6044820152fd5b8234610611575f36600319011261061157600a5490516001600160a01b039091168152602090f35b8234610611575f36600319011261061157602090516202a3008152f35b5050346106115760203660031901126106115761237460209235614dba565b90519015158152f35b828434610611575f366003190112610611577f00000000000000000000000000000000000000000000000000000000000000006312cc030081018091116105c8576123ca904210156147bf565b601454801561268f5760ff60185416612650576220f58081018091116105c857421161261d576016549060ff8260081c16158015612604575b156125d05761241133614d84565b9161241d831515614801565b60ff811615612588575b505f915f5b818110612546575050811561251357612447826015546147b2565b918260155583519081527fa36cc2bebb74db33e9f88110a07ef56e1b31b24b4c4f51b54b1664266e29f45b60203392a2602f545f198101919082116105b5576043820291808304604314901517156105b557506016549160ff8360081c16159182612504575b50506124b557005b61ff001916610100176016554260175580518181527fab69f06083afef0927640d007ea64293cf51d456c47ce52131e28ec5dd1366cf9181906124f9908201614171565b4260208301520390a1005b606491925004111583806124ad565b606490602084519162461bcd60e51b8352820152600d60248201526c105b1c9958591e481d9bdd1959609a1b6044820152fd5b612550813361495c565b5f52601a602052845f20805490600d54809203612572575b505060010161242c565b559260019061258090614842565b939086612568565b60019060ff1916176016557f8e409ff344f734c68d4e8a0f3acc9412ba807ede50cd1ea7263c6902f826819d835160208152806125c760208201614171565b0390a183612427565b606490602084519162461bcd60e51b8352820152600e60248201526d15da5b991bddc8195e1c1a5c995960921b6044820152fd5b506017546202a30081018091116105c857421115612403565b6020606492519162461bcd60e51b8352820152600e60248201526d159bdd1a5b99c8195e1c1a5c995960921b6044820152fd5b506020606492519162461bcd60e51b83528201526019602482015278141c9bdc1bdcd85b08185b1c9958591e48195e1958dd5d1959603a1b6044820152fd5b506020606492519162461bcd60e51b83528201526012602482015271139bc81858dd1a5d99481c1c9bdc1bdcd85b60721b6044820152fd5b50503461061157602036600319011261061157602091355f52601c8252805f2054601b54149051908152f35b34610611575f3660031901126106115761270b615147565b600a80546001600160a01b031981169091555f906001600160a01b03165f80516020615c358339815191528280a3005b82346106115761274a36614073565b905f52601e602052815f209081548110156106115761276891614494565b50906107608151916127858361277e818761424f565b03846143b2565b600260018501549401549051938493846144ad565b82346106115760203660031901126106115760209061094a6127ba61402b565b614d84565b8234610611575f366003190112610611578051600e549091825f6127e2846140ac565b808352602094600190866001821691825f1461216057505060011461281357505061076092916111849103856143b2565b90859250600e5f52825f20915f925b8284106128385750505082010181611184612111565b8054848a018601528895508794909301928101612822565b828434610611576020918260031936011261061157805161287081614397565b835f5b60c081106129285750505081355f908152601f845281902081519260c08401906001600160401b0382118583101761199e575082529293925f835b600682106128ff57505050519183830184845290830191905f945b600686106128d75784840385f35b90919281806128f2600193601f198982030187528751614006565b95019301950194906128c9565b6001878192869998995161291781612038818a61424f565b8152019301910190919594956128ae565b606081840152018490612873565b8284346106115760209182600319360112610611576001600160401b03823581811161061157612969903690850161445b565b90612972615147565b82519361298985612982816141e0565b03866143b2565b825191821161199e575061299e6011546140ac565b601f8111612a7c575b5084601f8211600114612a0857916129d9825f80516020615c7583398151915297936118e1955f916129fd57506148a0565b6011555b6129f08451958587968752860190614006565b9184830390850152614006565b9050830151896118c9565b601f1982169060115f52865f20915f5b818110612a655750926118e19492600192825f80516020615c758339815191529a9610612a4d575b5050811b016011556129dd565b8401515f1960f88460031b161c191690558880612a40565b919288600181928689015181550194019201612a18565b612aa59060115f52865f20601f840160051c81019188851061199457601f0160051c0190614850565b856129a7565b50503461061157602036600319011261061157612aca602092356150c0565b90516001600160a01b039091168152f35b828434610611576020806003193601126106115781359260ff8416808503610611576003612b1391612b0b615147565b611711615173565b60315493612b2b6001600160a01b0386163314614bc3565b612b38602c541515614c02565b602d5490612b4960ff831615614c3b565b60ff8260081c1615612c8457602154610a8c8101809111612c7157612b7090421115614c76565b6003811015612c5e57602901549260ff8260101c16956001809360ff191617602d5560018060a01b0319166031555f6032555f81555f6021555f60225542603055602f5494612bbe86614842565b602f55868451612bcd8161432b565b8681526001848201428152895f52601d8652875f209251835551910155612c0f575b5050505f80516020615cb583398151915291610b9091610b728533615311565b5f5b60068110612c1f5750612bef565b865f52601f8352612c3281865f20614089565b612c4c5790612c4685928260230190614cb4565b01612c11565b5f83634e487b7160e01b82525260245ffd5b603285634e487b7160e01b5f525260245ffd5b601186634e487b7160e01b5f525260245ffd5b50505162461bcd60e51b8152918201526011602482015270139bdd081bdddb995c881c995c5d595cdd607a1b604482015260649150fd5b8234610611575f36600319011261061157603354612cd881614b6a565b90612ce5835192836143b2565b8082526020808301918260335f52825f205f915b838310612d5b57505050508351928184019082855251809152848401948160051b85010192915f955b828710612d2f5785850386f35b909192938280612d4b600193603f198a82030186528851614006565b9601920196019592919092612d22565b60018581928a99979951612d7381612038818961424f565b815201920192019190959395612cf9565b8234610611575f3660031901126106115760809060ff6020549160215490602254918151948552602085015282821615159084015260081c1615156060820152f35b50503461061157602090816003193601126106115782356001600160401b03808211610611578185019160c43691011161061157612e02615147565b612e0a615173565b612e153233146149d8565b612e256103e7602f541115614a13565b6031546001600160a01b0316158015612ff8575b612e4290614a54565b612e4b82614ab4565b905015159485612fcc575b606094958451612e6581614310565b43815242888201528186820152600196879101524387554260215561010060225460ff83169061ffff19161717602255612eed575b505050612ea5614a93565b3360018060a01b031960315416176031554260325580519243845242908401528201525f80516020615c1583398151915260603392a25f5f80516020615cf58339815191525d005b5f5b60068110612efd5750612e9a565b612f078185614ae8565b8260230191858211612fb957908291612f2c82612f268c9796546140ac565b85614866565b5f90601f8311600114612f5557612f4c92915f9183610c235750506148a0565b90555b01612eef565b5f8481528c81209290601f198516908e5b828210612fa25750509084889594939210612f89575b505050811b019055612f4f565b01355f19600384901b60f8161c191690555f8080612f7c565b8385013586558e999095019492830192018e612f66565b604185634e487b7160e01b5f525260245ffd5b5f5b60068110612fdc5750612e56565b80612ff2610ce5610ce0610cd960019589614ae8565b01612fce565b50603254610a8c8101809111612c71574211612e39565b82843461061157602080600319360112610611576001600160401b0392823584811161061157613042903690850161445b565b9261304b615147565b835194851161199e5750613060600e546140ac565b601f811161312b575b508193601f81116001146130b8579061309b826118e1935f80516020615c55833981519152975f916130ad57506148a0565b600e5551928284938452830190614006565b9050860151886118c9565b601f19811694600e5f52835f20955f5b8181106131145750915f80516020615c5583398151915296600192826118e19695106130fc575b5050811b01600e55611184565b8701515f1960f88460031b161c1916905587806130ef565b8683015188556001909701969185019185016130c8565b61315490600e5f52835f20601f870160051c81019185881061199457601f0160051c0190614850565b84613069565b8234610611575f36600319011261061157602090600d549051908152f35b8284346106115760203660031901126106115780359061319661452f565b8210156131b7576020836131a9846144f6565b91905490519160031b1c8152f35b905f604493519263295f44f760e21b84528301526024820152fd5b82843461061157602036600319011261061157355f52601d602052805f206001815491015482519182526020820152f35b8234610611575f36600319011261061157600f5490516001600160a01b039091168152602090f35b8234610611575f36600319011261061157602090516101f48152f35b8234610611575f366003190112610611576020905162278d008152f35b8234610611576116e290613277366143d5565b919251926132848461437c565b5f84526116dc838383614540565b8234610611575f366003190112610611576020918151916132b2836142e0565b5f83526060848401525f818401525f60608401525f60808401525f60a08401525f60c08401525f828401525f6101008094015280516132f0816142e0565b6012546001600160a01b03908116825282519094906133128161203881614171565b86830190815260145494848401958652601554606085019081526016546080860160ff82161515815260ff60a088019260081c16151582526017549260c0880193845261339560ff6018541696868a019715158852601954998981019a8b528b519e8f9e8f928284525116910152518c6101209b8c9101526101408d0190614006565b995160608c01525160808b015251151560a08a015251151560c089015251908701525115159085015251908301520390f35b82845f366003190112610611576133dc615173565b6133e73233146149d8565b602f54601e81111561353a576134016103e7821115614a13565b6031546001600160a01b0316158015613523575b61341e90614a54565b603054620151808101809111611c165742106134f55761343d9061519f565b34106134c757505f6060825161345281614310565b43815242602082015282848201520152436020554260215561ffff196022541660225561347d614a93565b3360018060a01b03196031541617603155426032555f8151914383524260208401528201525f80516020615c1583398151915260603392a25f5f80516020615cf58339815191525d005b6020606492519162461bcd60e51b83528201526009602482015268155b99195c9c185a5960ba1b6044820152fd5b506020606492519162461bcd60e51b8352820152600860248201526721b7b7b63237bbb760c11b6044820152fd5b50603254610a8c8101809111611c16574211613415565b506020606492519162461bcd60e51b8352820152600c60248201526b13dddb995c881c195c9a5bd960a21b6044820152fd5b50503461061157602036600319011261061157602091355f52601c8252805f20549051908152f35b828434610611575f366003190112610611576135ae615147565b47801561360657600a545f918291829182916001600160a01b03165af16135d36149a9565b50156135db57005b6020606492519162461bcd60e51b8352820152600660248201526511985a5b195960d21b6044820152fd5b506020606492519162461bcd60e51b835282015260086024820152674e6f2066756e647360c01b6044820152fd5b614057565b823461061157806003193601126106115760209061094a61365861402b565b6024359061495c565b8234610611575f3660031901126106115760018060a01b03601254169080519261368e8461134d81614171565b6014549060155460165460ff60175491816018541693601954966136c589519b8c809c6020610120928392815201528c0190614006565b988a015260608901528181161515608089015260081c16151560a087015260c08601521515908401526101008301520390f35b8284346106115761370836614073565b91905f52600260205260018060a01b039061372982855f20541615156148b2565b6101f4928381029381850414901517156105b557506127109261076091600b54169051938493049083614479565b8234610611575f3660031901126106115760209051610a8c8152f35b8383346106115760209182600319360112610611576001600160401b038135818111610611576137a6903690840161445b565b947f00000000000000000000000000000000000000000000000000000000000000006312cc03008101809111613c11576137e2904210156147bf565b6137f56137ee33614d84565b1515614801565b855115613bd85760165460ff8116809181613bbe575b60081c60ff1680613ba6575b8215613b9e575b50158015613b97575b15613b6257600c5462278d008101809111613b4f574210613b185780613b0d575b613a6e575b613856336150fa565b948515613a3c57613868600d54614842565b600d55845192613877846142e0565b338452878285015285840142815260608501905f825260808601925f845260a08701945f865261010060c08901975f89528901985f8a5201988b8a523360018060a01b031960125416176012558c5192831161199e57506138d96013546140ac565b601f8111613a0d575b508b81601f84116001146139875750826139779b999795935f80516020615cd58339815191529d9b9997959361391f935f9261397c5750506148a0565b6013555b51601455516015555115159060ff61ff006016549251151560081b1692169061ffff191617176016555160175551151560ff8019601854169116176018555160195542600c555191829133954290846144ad565b0390a2005b015190508f8f610c13565b9190601f19841660135f52835f20935f905b8282106139f15750509260019285925f80516020615cd58339815191529f9d9b999795966139779f9d9b9997106139d9575b505050811b01601355613923565b01515f1960f88460031b161c191690558e808f6139cb565b60018596829495968394970151815501950193018f9291613999565b613a369060135f52825f20601f850160051c81019184861061199457601f0160051c0190614850565b8c6138e2565b8360649186519162461bcd60e51b8352820152600d60248201526c151bdad95b9cc818985b9b9959609a1b6044820152fd5b7ff3a4daeb2d0c46baa4922d40b36bc79601cd7a23c37a5b3cf658bb36101b3bfa60195480151580613af7575b613abf575b85518091878252613ab2888301614171565b90898301520390a161384d565b601b54815f52601c8852865f2055807f8fcebe7b587cb6a82a1b6b75d67f45402181b45ab78f2355219e4bccaf5079375f80a2613aa0565b50805f52601c8752855f2054601b541415613a9b565b506019541515613848565b845162461bcd60e51b81528085018790526011602482015270283937b837b9b0b61031b7b7b63237bbb760791b6044820152606490fd5b601185634e487b7160e01b5f525260245ffd5b845162461bcd60e51b8152808501879052600f60248201526e50726f706f73616c2061637469766560881b6044820152606490fd5b5080613827565b91508861381e565b506017546202a3008101809111612c71574211613817565b91506014546220f5808101809111612c715742119161380b565b835162461bcd60e51b815280840186905260136024820152725552492063616e6e6f7420626520656d70747960681b6044820152606490fd5b601184634e487b7160e01b5f525260245ffd5b34610611576116e2613c35366143d5565b91614540565b8234610611575f36600319011261061157602090601b549051908152f35b8234610611575f3660031901126106115760209061094a61452f565b50503461061157602036600319011261061157602091355f5260358252805f20549051908152f35b8234610611575f3660031901126106115780516107609161074e82610747816140e4565b82843461061157613cd136614073565b905f52601f602052825f2090600681101561061157613cef91614089565b919091613d0b578251610760908461074e82610747818861424f565b5f90634e487b7160e01b82525260245ffd5b50503461061157602036600319011261061157602091355f52601a8252805f2054600d54149051908152f35b8234610611575f3660031901126106115760209051620151808152f35b505034610611578060031936011261061157613d8061402b565b91602435613d8d816150c0565b33151580613e30575b80613e09575b613df3576001600160a01b039485169482918691167f8c5be1e5ebec7d5bd14f71427d1e84f3dd0314c0f7b2291e5b200ac8c7c3b9255f80a45f9081526020919091522080546001600160a01b0319169091179055005b835163a9fbf51f60e01b81523381850152602490fd5b5060018060a01b0381165f526005602052835f20335f5260205260ff845f20541615613d9c565b506001600160a01b038116331415613d96565b505034610611576020366003190112610611578160209235613e64816150c0565b505f52825260018060a01b03815f2054169051908152f35b8234610611575f36600319011261061157602090516102ee8152f35b8234610611575f366003190112610611578051905f90825f5492613ebb846140ac565b808352602094600190866001821691825f14612160575050600114613eec57505061076092916111849103856143b2565b908592505f8052825f20915f925b828410613f105750505082010181611184612111565b8054848a018601528895508794909301928101613efa565b828434610611576020366003190112610611573563ffffffff60e01b81168091036106115760209163152a902d60e11b8214918215613f6b575b50519015158152f35b90915063780e9d6360e01b8114908115613f88575b509083613f62565b6380ac58cd60e01b811491508115613fba575b8115613fa9575b5083613f80565b6301ffc9a760e01b14905083613fa2565b635b5e139f60e01b81149150613f9b565b34610611575f366003190112610611576020906030548152f35b5f5b838110613ff65750505f910152565b8181015183820152602001613fe7565b9060209161401f81518092818552858086019101613fe5565b601f01601f1916010190565b600435906001600160a01b038216820361061157565b602435906001600160a01b038216820361061157565b34610611575f3660031901126106115760206040516103e78152f35b6040906003190112610611576004359060243590565b60068210156140985701905f90565b634e487b7160e01b5f52603260045260245ffd5b90600182811c921680156140da575b60208310146140c657565b634e487b7160e01b5f52602260045260245ffd5b91607f16916140bb565b6010545f92916140f3826140ac565b908181526020926001906001811690815f146141545750600114614118575b50505050565b929394509060105f52835f2092845f945b83861061414057505050500101905f808080614112565b805485870183015294019385908201614129565b60ff191685840152505090151560051b010191505f808080614112565b6013545f9291614180826140ac565b908181526020926001906001811690815f1461415457506001146141a45750505050565b929394509060135f52835f2092845f945b8386106141cc57505050500101905f808080614112565b8054858701830152940193859082016141b5565b6011545f92916141ef826140ac565b908181526020926001906001811690815f1461415457506001146142135750505050565b929394509060115f52835f2092845f945b83861061423b57505050500101905f808080614112565b805485870183015294019385908201614224565b80545f939261425d826140ac565b918282526020936001916001811690815f146142c15750600114614283575b5050505050565b90939495505f92919252835f2092845f945b8386106142ad57505050500101905f8080808061427c565b805485870183015294019385908201614295565b60ff19168685015250505090151560051b010191505f8080808061427c565b61012081019081106001600160401b038211176142fc57604052565b634e487b7160e01b5f52604160045260245ffd5b608081019081106001600160401b038211176142fc57604052565b604081019081106001600160401b038211176142fc57604052565b60a081019081106001600160401b038211176142fc57604052565b606081019081106001600160401b038211176142fc57604052565b602081019081106001600160401b038211176142fc57604052565b60c081019081106001600160401b038211176142fc57604052565b601f909101601f19168101906001600160401b038211908210176142fc57604052565b6060906003190112610611576001600160a01b0390600435828116810361061157916024359081168103610611579060443590565b6001600160401b0381116142fc57601f01601f191660200190565b9291926144318261440a565b9161443f60405193846143b2565b829481845281830111610611578281602093845f960137010152565b9080601f830112156106115781602061447693359101614425565b90565b6001600160a01b039091168152602081019190915260400190565b8054821015614098575f52600360205f20910201905f90565b6144c560409295949395606083526060830190614006565b9460208201520152565b5f915b600383106144df57505050565b6001908251815260208091019201920191906144d2565b6008548110156140985760085f5260205f2001905f90565b9190820391821161451b57565b634e487b7160e01b5f52601160045260245ffd5b602f545f19810190811161451b5790565b6001600160a01b038281169391841561479a57825f5260206002815260409583875f205416953315158061470a575b50861580156146eb575b5f83815260038552898120805460010190558781526002855289812080546001600160a01b03191685179055879084908a905f80516020615c958339815191529080a41561467f57600854865f526009845280895f2055600160401b8110156142fc576146066145f08260018a94016008556144f6565b819391549060031b91821b915f19901b19161790565b90555b818703614644575b50505016928383036146235750505050565b6064945051926364283d7b60e01b8452600484015260248301526044820152fd5b61464d90614d84565b5f1981019290831161451b576007915f5260068152875f20835f52815285885f2055855f5252855f20555f8080614611565b8682146146095761468f87614d84565b865f5260078452885f205490885f5260068552895f20918181036146c9575b50875f52600785525f8a8120555f5283525f88812055614609565b815f528286528a5f2054815f52808c5f20555f52600786528a5f20555f6146ae565b6146f4876158ac565b875f5260038452885f205f198154019055614579565b80614759575b1561471b575f61456f565b878688614738576024915190637e27328960e01b82526004820152fd5b905163177e802f60e01b8152908190614755903360048401614479565b0390fd5b50338714801561477e575b806147105750855f52600483523385895f20541614614710565b50865f5260058352875f20335f52835260ff885f205416614764565b604051633250574960e11b81525f6004820152602490fd5b9190820180921161451b57565b156147c657565b60405162461bcd60e51b8152602060048201526013602482015272476f7665726e616e636520696e61637469766560681b6044820152606490fd5b1561480857565b60405162461bcd60e51b815260206004820152601260248201527126bab9ba1037bbb710309029b830ba3a32b960711b6044820152606490fd5b5f19811461451b5760010190565b81811061485b575050565b5f8155600101614850565b9190601f811161487557505050565b61489e925f5260205f20906020601f840160051c8301931061199457601f0160051c0190614850565b565b8160011b915f199060031b1c19161790565b156148b957565b60405162461bcd60e51b8152602060048201526014602482015273151bdad95b88191bd95cc81b9bdd08195e1a5cdd60621b6044820152606490fd5b90670de0b6b3a76400009182810292818404149015171561451b57565b8181029291811591840414171561451b57565b801561493e576a0c097ce7bc90715b34b9f160241b0490565b634e487b7160e01b5f52601260045260245ffd5b811561493e570490565b61496581614d84565b82101561498d5760018060a01b03165f52600660205260405f20905f5260205260405f205490565b61475560405192839263295f44f760e21b845260048401614479565b3d156149d3573d906149ba8261440a565b916149c860405193846143b2565b82523d5f602084013e565b606090565b156149df57565b60405162461bcd60e51b815260206004820152600c60248201526b4e6f20636f6e74726163747360a01b6044820152606490fd5b15614a1a57565b60405162461bcd60e51b815260206004820152601260248201527113585e081cdd5c1c1b1e481c995858da195960721b6044820152606490fd5b15614a5b57565b60405162461bcd60e51b815260206004820152601060248201526f4d696e7420696e2070726f677265737360801b6044820152606490fd5b60295b602c8110614aa957505f602c555f602d55565b5f8155600101614a96565b803590601e19813603018212156106115701803591906001600160401b038311610611576020018236038113610611579190565b9060068110156140985760051b81013590601e19813603018212156106115701803591906001600160401b038311610611576020018236038113610611579190565b15614b3157565b60405162461bcd60e51b815260206004820152601160248201527024b73b30b634b2103432bc1031b7b637b960791b6044820152606490fd5b6001600160401b0381116142fc5760051b60200190565b15614b8857565b60405162461bcd60e51b8152602060048201526013602482015272496e76616c696420736565642063686f69636560681b6044820152606490fd5b15614bca57565b60405162461bcd60e51b815260206004820152601060248201526f139bdd081e5bdd5c881c995c5d595cdd60821b6044820152606490fd5b15614c0957565b60405162461bcd60e51b815260206004820152600a602482015269139bc81c995c5d595cdd60b21b6044820152606490fd5b15614c4257565b60405162461bcd60e51b815260206004820152600c60248201526b416c726561647920646f6e6560a01b6044820152606490fd5b15614c7d57565b60405162461bcd60e51b815260206004820152600f60248201526e14995c5d595cdd08195e1c1a5c9959608a1b6044820152606490fd5b90808214614d8057614cc681546140ac565b906001600160401b0382116142fc57614ce382612f2685546140ac565b5f90601f8311600114614d1257614d0392915f9183614d075750506148a0565b9055565b015490505f80610c13565b90601f198316915f5260209160205f2090855f5260205f20935f905b828210614d67575050908460019594939210614d4f575b505050811b019055565b01545f1960f88460031b161c191690555f8080614d45565b8495819295850154815560018091019601940190614d2e565b5050565b6001600160a01b03168015614da2575f52600360205260405f205490565b6040516322718ad960e21b81525f6004820152602490fd5b5f81815260026020526040902054614ddc906001600160a01b031615156148b2565b805f52601d602052602060405f20600160405191614df98361432b565b80548352015491829101526201518080420491048114614e3557815f52603560205260405f205414614e30576144769042906155cf565b505f90565b50505f90565b15614e4257565b60405162461bcd60e51b815260206004820152600f60248201526e139bdd081e5bdd5c8818dbdb5b5a5d608a1b6044820152606490fd5b15614e8057565b60405162461bcd60e51b8152602060048201526011602482015270139bc81c195b991a5b99c818dbdb5b5a5d607a1b6044820152606490fd5b15614ec057565b60405162461bcd60e51b815260206004820152600a60248201526913dddb995c881b5a5b9d60b21b6044820152606490fd5b15614ef957565b60405162461bcd60e51b815260206004820152600b60248201526a14d959591cc8195e1a5cdd60aa1b6044820152606490fd5b15614f3357565b60405162461bcd60e51b815260206004820152600c60248201526b57616974203120626c6f636b60a01b6044820152606490fd5b15614f6e57565b60405162461bcd60e51b8152602060048201526011602482015270109b1bd8dada185cda08195e1c1a5c9959607a1b6044820152606490fd5b15614fae57565b60405162461bcd60e51b815260206004820152600e60248201526d10dbdb5b5a5d08195e1c1a5c995960921b6044820152606490fd5b15614feb57565b60405162461bcd60e51b815260206004820152600c60248201526b09cde40c4d8dec6d6d0c2e6d60a31b6044820152606490fd5b9060038110156140985760051b0190565b1561503757565b60405162461bcd60e51b815260206004820152600f60248201526e2737ba103a37b5b2b71037bbb732b960891b6044820152606490fd5b6031546001600160a01b0316801515806150a8575b61509057505f905f905f90565b9060325490610a8c820180921161451b576001929190565b50603254610a8c810180911161451b57421115615083565b5f818152600260205260409020546001600160a01b03169081156150e2575090565b60249060405190637e27328960e01b82526004820152fd5b61510381614d84565b601b5490915f5b83811061511957505050505f90565b615123818361495c565b805f52601c6020528360405f20540361513f575060010161510a565b935050505090565b600a546001600160a01b0316330361515b57565b60405163118cdaa760e01b8152336004820152602490fd5b5f80516020615cf5833981519152805c61518d576001905d565b604051633ee5aeb560e01b8152600490fd5b601e811115614e3057601819810190811161451b578015615214576103ce808210156152055767867f8164e739bbf08083029283050361451b576151e391056158d9565b6615f4ad60b64000908082029182040361451b57670de0b6b3a7640000900490565b505068056bc75e2d6310000090565b506615f4ad60b6400090565b8051906007916007810361530a5715614098576020818101516001600160f81b03199290831660dd60f81b016153025760015b848110615264575050505050600190565b8151811015614098578383828401015116600360fc1b81101590816152f3575b81156152cf575b81156152a9575b50156152a057600101615253565b50505050505f90565b604160f81b8110159150816152c0575b505f615292565b602360f91b101590505f6152b9565b9050606160f81b811015806152e5575b9061528b565b50603360f91b8111156152df565b603960f81b8111159150615284565b505050505f90565b5050505f90565b604080519261531f8461437c565b5f84526001600160a01b03938385169384156155b857825f5260209560028752845f2054168015908682159283615599575b5f82815260038b528881208054600101905587815260028b5288812080546001600160a01b031916841790558790839085905f80516020615c958339815191529080a41561552c575060085490855f526009895281875f2055600160401b8210156142fc57856153cb6145f08460018c96016008556144f6565b90555b036154f4575b6154dd573b6153e4575050505050565b846154219184959697945180938192630a85bd0160e11b968784523360048501525f60248501526044840152608060648401526084830190614006565b03815f895af15f918161549d575b506154665750505061543f6149a9565b8051939084615460578251633250574960e11b815260048101859052602490fd5b84925001fd5b9194506001600160e01b0319909116036154865750505f8080808061427c565b602492505190633250574960e11b82526004820152fd5b9091508681813d83116154d6575b6154b581836143b2565b8101031261061157516001600160e01b03198116810361061157905f61542f565b503d6154ab565b83516339e3563760e11b81525f6004820152602490fd5b6154fd82614d84565b5f19810190811161451b57865f5260068852855f20815f52885284865f2055845f5260078852855f20556153d4565b908082146153ce5761553d81614d84565b865f5260078a52875f205490825f5260068b52885f2091818103615577575b50875f5260078b525f898120555f5289525f878120556153ce565b815f52828c52895f2054815f52808b5f20555f5260078c52895f20555f61555c565b6155a2876158ac565b825f5260038a52875f205f198154019055615351565b8351633250574960e11b81525f6004820152602490fd5b5f52601d6020818152604092835f20938051936155eb8561432b565b85548552836001809701549501948552602f5494868611615709575b6156129051846159a5565b6156b657606485116156e1575b6101f48086116156be575b506102ee808611615682575b506103e780951161564c575b5050505050505f90565b615674945f52835284815f209151916156648361432b565b80548352015492839101526159a5565b614476578080808080615642565b5f528084526156ac84835f208885519161569b8361432b565b8054835201549182910152846159a5565b6156b6575f615636565b505050505090565b5f528084526156d784835f208885519161569b8361432b565b6156b6575f61562a565b60645f528084526156fc84835f208885519161569b8361432b565b1561561f57505050505090565b865f5281855261573485845f20898651916157238361432b565b8054835201549182910152856159a5565b156156075750505050505090565b92919091602f549160405193602085019560018060601b03199060601b1686526034850152605484015260ff60f81b9060f81b16607483015260758201526075815261578d81614346565b51902090565b9291803b6157a2575050505050565b604051630a85bd0160e11b8082526001600160a01b039586166004830152928516602482015260448101939093526080606484015290921692602090829081906157f0906084830190614006565b03815f875af15f9181615867575b50615835578261580c6149a9565b805191908261582e57604051633250574960e11b815260048101839052602490fd5b6020915001fd5b6001600160e01b0319160361584f57505f8080808061427c565b60249060405190633250574960e11b82526004820152fd5b9091506020813d6020116158a4575b81615883602093836143b2565b8101031261061157516001600160e01b03198116810361061157905f6157fe565b3d9150615876565b5f90815260046020526040902080546001600160a01b0319169055565b600160ff1b811461451b575f0390565b680755bf798b4a1bf1e5811215615971575f811261595757670de0b6b3a764000090600190825b6028831115615910575b50505090565b61592f6159208361593693614912565b615929856148f5565b90614952565b80946147b2565b916064841061594f5761594890614842565b9192615900565b82935061590a565b615963615968916158c9565b6158d9565b61447690614925565b60405162461bcd60e51b815260206004820152600c60248201526b657870206f766572666c6f7760a01b6044820152606490fd5b6159b16159b7916159dc565b916159dc565b602082015160208201511491826159cd57505090565b60409192508101519101511490565b62015180905f604080516159ef81614361565b8281528260208201520152046107b2905b615a0982615ab1565b15615aa65761ffff61016e5b16808210615a3657615a2a90615a309261450e565b91614842565b90615a00565b505f90600180915b600c831115615a66575b505060405192615a5784614361565b83526020830152604082015290565b615a708584615ad9565b90818110615a9157615a8b91615a859161450e565b92614842565b91615a3e565b92935050810180911161451b57905f80615a48565b61ffff61016d615a15565b60038116614e305760648106615ad3576101909006615acf57600190565b5f90565b50600190565b600181148015615baa575b8015615ba0575b8015615b96575b8015615b8c575b8015615b82575b8015615b78575b615b7157600481148015615b67575b8015615b5d575b8015615b53575b615b4c57600214615b3457505f90565b615b3d90615ab1565b15615b4757601d90565b601c90565b5050601e90565b50600b8114615b24565b5060098114615b1d565b5060068114615b16565b5050601f90565b50600c8114615b07565b50600a8114615b00565b5060088114615af9565b5060078114615af2565b5060058114615aeb565b5060038114615ae456febb7b4a454dc3493923482f07822329ed19e8244eff582cc204f8554c3620c3fdc904c26edfa19014321dad8ce50a657782d9f55cd41af2afd9737e4f2ec76307ec78f5f1e98cae26027605fd7930828c2f00ccf5e53b03e6f83bb6ee7ee7171ee76693a509b276a8f091f368f5ee1fcd90a958858d61248bdb8588205bcd73458be0079c531659141344cd1fd0a4f28419497f9722a3daafe3b4186f6b6457e0eec356c13f485b7acbb74166d776fb50be80220a12df460b84716109009f9994cba316ce10b045ad8ac7399e6dfa3dc3bb4067039638900452ddf1812ab642caddf252ad1be2c89b69c2b068fc378daa952ba7f163c4a11628f55a4df523b3ef35a71fd4ad36d3b5f42a9819d12284ac3592b91d09f274e2ff1639a4418c1a02e7890a17099f7377119f9bcc610136034f38d99a26a59ec393bd3f871d244c1f9b779b17422d0df92223018b32b4d1fa46e071723d6817e2486d003becc55f008b5edbe967679126aeb81484c67dcc6968c24556dce2d1007f88f169f61f20bda621c5ad256761fd9191d8547f07ec26026684c11c01ce72024c5e8ca5925241a2646970667358221220d129ff5cfe6efddd67f851a5713eb0fcdd34ce9cfa3a99b95e3913c8a1f387b364736f6c63430008180033",
  "linkReferences": {},
  "deployedLinkReferences": {}
}