{
  "_format": "hh-sol-artifact-1",
  "contractName": "Spatters",
  "sourceName": "contracts/Spatters.sol",
  "abi": [
    {
      "inputs": [],
      "stateMutability": "nonpayable",
      "type": "constructor"
    },
    {
      "inputs": [],
      "name": "ERC721EnumerableForbiddenBatchMint",
      "type": "error"
    },
    {
      "inputs": [
        {
          "internalType": "address",
          "name": "sender",
          "type": "address"
        },
        {
          "internalType": "uint256",
          "name": "tokenId",
          "type": "uint256"
        },
        {
          "internalType": "address",
          "name": "owner",
          "type": "address"
        }
      ],
      "name": "ERC721IncorrectOwner",
      "type": "error"
    },
    {
      "inputs": [
        {
          "internalType": "address",
          "name": "operator",
          "type": "address"
        },
        {
          "internalType": "uint256",
          "name": "tokenId",
          "type": "uint256"
        }
      ],
      "name": "ERC721InsufficientApproval",
      "type": "error"
    },
    {
      "inputs": [
        {
          "internalType": "address",
          "name": "approver",
          "type": "address"
        }
      ],
      "name": "ERC721InvalidApprover",
      "type": "error"
    },
    {
      "inputs": [
        {
          "internalType": "address",
          "name": "operator",
          "type": "address"
        }
      ],
      "name": "ERC721InvalidOperator",
      "type": "error"
    },
    {
      "inputs": [
        {
          "internalType": "address",
          "name": "owner",
          "type": "address"
        }
      ],
      "name": "ERC721InvalidOwner",
      "type": "error"
    },
    {
      "inputs": [
        {
          "internalType": "address",
          "name": "receiver",
          "type": "address"
        }
      ],
      "name": "ERC721InvalidReceiver",
      "type": "error"
    },
    {
      "inputs": [
        {
          "internalType": "address",
          "name": "sender",
          "type": "address"
        }
      ],
      "name": "ERC721InvalidSender",
      "type": "error"
    },
    {
      "inputs": [
        {
          "internalType": "uint256",
          "name": "tokenId",
          "type": "uint256"
        }
      ],
      "name": "ERC721NonexistentToken",
      "type": "error"
    },
    {
      "inputs": [
        {
          "internalType": "address",
          "name": "owner",
          "type": "address"
        },
        {
          "internalType": "uint256",
          "name": "index",
          "type": "uint256"
        }
      ],
      "name": "ERC721OutOfBoundsIndex",
      "type": "error"
    },
    {
      "inputs": [
        {
          "internalType": "address",
          "name": "owner",
          "type": "address"
        }
      ],
      "name": "OwnableInvalidOwner",
      "type": "error"
    },
    {
      "inputs": [
        {
          "internalType": "address",
          "name": "account",
          "type": "address"
        }
      ],
      "name": "OwnableUnauthorizedAccount",
      "type": "error"
    },
    {
      "inputs": [],
      "name": "ReentrancyGuardReentrantCall",
      "type": "error"
    },
    {
      "anonymous": false,
      "inputs": [
        {
          "indexed": false,
          "internalType": "uint256",
          "name": "tokenCount",
          "type": "uint256"
        }
      ],
      "name": "AllProposalBansCleared",
      "type": "event"
    },
    {
      "anonymous": false,
      "inputs": [
        {
          "indexed": true,
          "internalType": "address",
          "name": "owner",
          "type": "address"
        },
        {
          "indexed": true,
          "internalType": "address",
          "name": "approved",
          "type": "address"
        },
        {
          "indexed": true,
          "internalType": "uint256",
          "name": "tokenId",
          "type": "uint256"
        }
      ],
      "name": "Approval",
      "type": "event"
    },
    {
      "anonymous": false,
      "inputs": [
        {
          "indexed": true,
          "internalType": "address",
          "name": "owner",
          "type": "address"
        },
        {
          "indexed": true,
          "internalType": "address",
          "name": "operator",
          "type": "address"
        },
        {
          "indexed": false,
          "internalType": "bool",
          "name": "approved",
          "type": "bool"
        }
      ],
      "name": "ApprovalForAll",
      "type": "event"
    },
    {
      "anonymous": false,
      "inputs": [
        {
          "indexed": false,
          "internalType": "string",
          "name": "newURI",
          "type": "string"
        }
      ],
      "name": "BaseURIUpdatedByCommunity",
      "type": "event"
    },
    {
      "anonymous": false,
      "inputs": [
        {
          "indexed": false,
          "internalType": "string",
          "name": "newURI",
          "type": "string"
        }
      ],
      "name": "BaseURIUpdatedByOwner",
      "type": "event"
    },
    {
      "anonymous": false,
      "inputs": [
        {
          "indexed": true,
          "internalType": "address",
          "name": "oldGenerator",
          "type": "address"
        },
        {
          "indexed": true,
          "internalType": "address",
          "name": "newGenerator",
          "type": "address"
        }
      ],
      "name": "GeneratorContractUpdated",
      "type": "event"
    },
    {
      "anonymous": false,
      "inputs": [
        {
          "indexed": true,
          "internalType": "address",
          "name": "lockedGenerator",
          "type": "address"
        }
      ],
      "name": "GeneratorPermanentlyLocked",
      "type": "event"
    },
    {
      "anonymous": false,
      "inputs": [
        {
          "indexed": true,
          "internalType": "address",
          "name": "requester",
          "type": "address"
        },
        {
          "indexed": false,
          "internalType": "bytes32[3]",
          "name": "seeds",
          "type": "bytes32[3]"
        },
        {
          "indexed": false,
          "internalType": "uint256",
          "name": "timestamp",
          "type": "uint256"
        },
        {
          "indexed": false,
          "internalType": "bool",
          "name": "isOwnerMint",
          "type": "bool"
        }
      ],
      "name": "MintRequested",
      "type": "event"
    },
    {
      "anonymous": false,
      "inputs": [
        {
          "indexed": true,
          "internalType": "uint256",
          "name": "tokenId",
          "type": "uint256"
        },
        {
          "indexed": true,
          "internalType": "address",
          "name": "minter",
          "type": "address"
        },
        {
          "indexed": false,
          "internalType": "bytes32",
          "name": "seed",
          "type": "bytes32"
        },
        {
          "indexed": false,
          "internalType": "bool",
          "name": "hasCustomPalette",
          "type": "bool"
        },
        {
          "indexed": false,
          "internalType": "uint256",
          "name": "timestamp",
          "type": "uint256"
        }
      ],
      "name": "Minted",
      "type": "event"
    },
    {
      "anonymous": false,
      "inputs": [
        {
          "indexed": true,
          "internalType": "uint256",
          "name": "tokenId",
          "type": "uint256"
        },
        {
          "indexed": true,
          "internalType": "uint256",
          "name": "mutationIndex",
          "type": "uint256"
        },
        {
          "indexed": false,
          "internalType": "string",
          "name": "mutationType",
          "type": "string"
        },
        {
          "indexed": false,
          "internalType": "bytes32",
          "name": "seed",
          "type": "bytes32"
        },
        {
          "indexed": false,
          "internalType": "uint256",
          "name": "timestamp",
          "type": "uint256"
        }
      ],
      "name": "Mutated",
      "type": "event"
    },
    {
      "anonymous": false,
      "inputs": [
        {
          "indexed": true,
          "internalType": "address",
          "name": "recipient",
          "type": "address"
        },
        {
          "indexed": false,
          "internalType": "bytes32[3]",
          "name": "seeds",
          "type": "bytes32[3]"
        },
        {
          "indexed": false,
          "internalType": "uint256",
          "name": "timestamp",
          "type": "uint256"
        }
      ],
      "name": "OwnerMintRequested",
      "type": "event"
    },
    {
      "anonymous": false,
      "inputs": [
        {
          "indexed": true,
          "internalType": "address",
          "name": "previousOwner",
          "type": "address"
        },
        {
          "indexed": true,
          "internalType": "address",
          "name": "newOwner",
          "type": "address"
        }
      ],
      "name": "OwnershipTransferred",
      "type": "event"
    },
    {
      "anonymous": false,
      "inputs": [
        {
          "indexed": true,
          "internalType": "address",
          "name": "proposer",
          "type": "address"
        },
        {
          "indexed": false,
          "internalType": "string",
          "name": "proposedURI",
          "type": "string"
        },
        {
          "indexed": false,
          "internalType": "uint256",
          "name": "timestamp",
          "type": "uint256"
        },
        {
          "indexed": false,
          "internalType": "uint256",
          "name": "proposerTokenId",
          "type": "uint256"
        }
      ],
      "name": "ProposalCreated",
      "type": "event"
    },
    {
      "anonymous": false,
      "inputs": [
        {
          "indexed": false,
          "internalType": "string",
          "name": "proposedURI",
          "type": "string"
        },
        {
          "indexed": false,
          "internalType": "uint256",
          "name": "proposerTokenId",
          "type": "uint256"
        }
      ],
      "name": "ProposalExpired",
      "type": "event"
    },
    {
      "anonymous": false,
      "inputs": [
        {
          "indexed": false,
          "internalType": "string",
          "name": "lockedURI",
          "type": "string"
        }
      ],
      "name": "ProposalLocked",
      "type": "event"
    },
    {
      "anonymous": false,
      "inputs": [
        {
          "indexed": false,
          "internalType": "string",
          "name": "proposedURI",
          "type": "string"
        },
        {
          "indexed": false,
          "internalType": "uint256",
          "name": "timestamp",
          "type": "uint256"
        }
      ],
      "name": "ProposalThresholdReached",
      "type": "event"
    },
    {
      "anonymous": false,
      "inputs": [
        {
          "indexed": true,
          "internalType": "address",
          "name": "newReceiver",
          "type": "address"
        }
      ],
      "name": "RoyaltyReceiverUpdated",
      "type": "event"
    },
    {
      "anonymous": false,
      "inputs": [
        {
          "indexed": true,
          "internalType": "uint256",
          "name": "tokenId",
          "type": "uint256"
        }
      ],
      "name": "TokenBannedFromProposing",
      "type": "event"
    },
    {
      "anonymous": false,
      "inputs": [
        {
          "indexed": true,
          "internalType": "address",
          "name": "from",
          "type": "address"
        },
        {
          "indexed": true,
          "internalType": "address",
          "name": "to",
          "type": "address"
        },
        {
          "indexed": true,
          "internalType": "uint256",
          "name": "tokenId",
          "type": "uint256"
        }
      ],
      "name": "Transfer",
      "type": "event"
    },
    {
      "anonymous": false,
      "inputs": [
        {
          "indexed": true,
          "internalType": "address",
          "name": "voter",
          "type": "address"
        },
        {
          "indexed": false,
          "internalType": "uint256",
          "name": "tokenCount",
          "type": "uint256"
        }
      ],
      "name": "VoteCast",
      "type": "event"
    },
    {
      "inputs": [],
      "name": "CONFIRMATION_WINDOW",
      "outputs": [
        {
          "internalType": "uint256",
          "name": "",
          "type": "uint256"
        }
      ],
      "stateMutability": "view",
      "type": "function"
    },
    {
      "inputs": [],
      "name": "GLOBAL_COOLDOWN",
      "outputs": [
        {
          "internalType": "uint256",
          "name": "",
          "type": "uint256"
        }
      ],
      "stateMutability": "view",
      "type": "function"
    },
    {
      "inputs": [],
      "name": "GOVERNANCE_DELAY",
      "outputs": [
        {
          "internalType": "uint256",
          "name": "",
          "type": "uint256"
        }
      ],
      "stateMutability": "view",
      "type": "function"
    },
    {
      "inputs": [],
      "name": "MAX_SUPPLY",
      "outputs": [
        {
          "internalType": "uint256",
          "name": "",
          "type": "uint256"
        }
      ],
      "stateMutability": "view",
      "type": "function"
    },
    {
      "inputs": [],
      "name": "MILESTONE_100",
      "outputs": [
        {
          "internalType": "uint256",
          "name": "",
          "type": "uint256"
        }
      ],
      "stateMutability": "view",
      "type": "function"
    },
    {
      "inputs": [],
      "name": "MILESTONE_500",
      "outputs": [
        {
          "internalType": "uint256",
          "name": "",
          "type": "uint256"
        }
      ],
      "stateMutability": "view",
      "type": "function"
    },
    {
      "inputs": [],
      "name": "MILESTONE_750",
      "outputs": [
        {
          "internalType": "uint256",
          "name": "",
          "type": "uint256"
        }
      ],
      "stateMutability": "view",
      "type": "function"
    },
    {
      "inputs": [],
      "name": "MILESTONE_999",
      "outputs": [
        {
          "internalType": "uint256",
          "name": "",
          "type": "uint256"
        }
      ],
      "stateMutability": "view",
      "type": "function"
    },
    {
      "inputs": [],
      "name": "OWNER_RESERVE",
      "outputs": [
        {
          "internalType": "uint256",
          "name": "",
          "type": "uint256"
        }
      ],
      "stateMutability": "view",
      "type": "function"
    },
    {
      "inputs": [],
      "name": "PROPOSAL_COOLDOWN",
      "outputs": [
        {
          "internalType": "uint256",
          "name": "",
          "type": "uint256"
        }
      ],
      "stateMutability": "view",
      "type": "function"
    },
    {
      "inputs": [],
      "name": "REQUEST_EXPIRATION",
      "outputs": [
        {
          "internalType": "uint256",
          "name": "",
          "type": "uint256"
        }
      ],
      "stateMutability": "view",
      "type": "function"
    },
    {
      "inputs": [],
      "name": "ROYALTY_BPS",
      "outputs": [
        {
          "internalType": "uint96",
          "name": "",
          "type": "uint96"
        }
      ],
      "stateMutability": "view",
      "type": "function"
    },
    {
      "inputs": [],
      "name": "VOTING_PERIOD",
      "outputs": [
        {
          "internalType": "uint256",
          "name": "",
          "type": "uint256"
        }
      ],
      "stateMutability": "view",
      "type": "function"
    },
    {
      "inputs": [],
      "name": "activeMintRequestTime",
      "outputs": [
        {
          "internalType": "uint256",
          "name": "",
          "type": "uint256"
        }
      ],
      "stateMutability": "view",
      "type": "function"
    },
    {
      "inputs": [],
      "name": "activeMintRequester",
      "outputs": [
        {
          "internalType": "address",
          "name": "",
          "type": "address"
        }
      ],
      "stateMutability": "view",
      "type": "function"
    },
    {
      "inputs": [
        {
          "internalType": "uint256",
          "name": "",
          "type": "uint256"
        }
      ],
      "name": "allowedMutations",
      "outputs": [
        {
          "internalType": "string",
          "name": "",
          "type": "string"
        }
      ],
      "stateMutability": "view",
      "type": "function"
    },
    {
      "inputs": [
        {
          "internalType": "address",
          "name": "to",
          "type": "address"
        },
        {
          "internalType": "uint256",
          "name": "tokenId",
          "type": "uint256"
        }
      ],
      "name": "approve",
      "outputs": [],
      "stateMutability": "nonpayable",
      "type": "function"
    },
    {
      "inputs": [],
      "name": "approveProposal",
      "outputs": [],
      "stateMutability": "nonpayable",
      "type": "function"
    },
    {
      "inputs": [
        {
          "internalType": "address",
          "name": "owner",
          "type": "address"
        }
      ],
      "name": "balanceOf",
      "outputs": [
        {
          "internalType": "uint256",
          "name": "",
          "type": "uint256"
        }
      ],
      "stateMutability": "view",
      "type": "function"
    },
    {
      "inputs": [
        {
          "internalType": "uint256",
          "name": "",
          "type": "uint256"
        }
      ],
      "name": "bannedTokenIds",
      "outputs": [
        {
          "internalType": "uint256",
          "name": "",
          "type": "uint256"
        }
      ],
      "stateMutability": "view",
      "type": "function"
    },
    {
      "inputs": [],
      "name": "baseURI",
      "outputs": [
        {
          "internalType": "string",
          "name": "",
          "type": "string"
        }
      ],
      "stateMutability": "view",
      "type": "function"
    },
    {
      "inputs": [
        {
          "internalType": "uint256",
          "name": "tokenId",
          "type": "uint256"
        }
      ],
      "name": "canMutate",
      "outputs": [
        {
          "internalType": "bool",
          "name": "",
          "type": "bool"
        }
      ],
      "stateMutability": "view",
      "type": "function"
    },
    {
      "inputs": [
        {
          "internalType": "uint8",
          "name": "seedChoice",
          "type": "uint8"
        }
      ],
      "name": "completeMint",
      "outputs": [],
      "stateMutability": "nonpayable",
      "type": "function"
    },
    {
      "inputs": [
        {
          "internalType": "uint8",
          "name": "seedChoice",
          "type": "uint8"
        }
      ],
      "name": "completeOwnerMint",
      "outputs": [],
      "stateMutability": "nonpayable",
      "type": "function"
    },
    {
      "inputs": [],
      "name": "confirmProposal",
      "outputs": [],
      "stateMutability": "nonpayable",
      "type": "function"
    },
    {
      "inputs": [],
      "name": "currentProposal",
      "outputs": [
        {
          "internalType": "address",
          "name": "proposer",
          "type": "address"
        },
        {
          "internalType": "string",
          "name": "proposedBaseURI",
          "type": "string"
        },
        {
          "internalType": "uint256",
          "name": "proposalTime",
          "type": "uint256"
        },
        {
          "internalType": "uint256",
          "name": "totalVotesWeight",
          "type": "uint256"
        },
        {
          "internalType": "bool",
          "name": "locked",
          "type": "bool"
        },
        {
          "internalType": "bool",
          "name": "thresholdReached",
          "type": "bool"
        },
        {
          "internalType": "uint256",
          "name": "thresholdReachedTime",
          "type": "uint256"
        },
        {
          "internalType": "bool",
          "name": "executed",
          "type": "bool"
        },
        {
          "internalType": "uint256",
          "name": "proposerTokenId",
          "type": "uint256"
        }
      ],
      "stateMutability": "view",
      "type": "function"
    },
    {
      "inputs": [
        {
          "internalType": "uint256",
          "name": "",
          "type": "uint256"
        },
        {
          "internalType": "uint256",
          "name": "",
          "type": "uint256"
        }
      ],
      "name": "customPalettes",
      "outputs": [
        {
          "internalType": "string",
          "name": "",
          "type": "string"
        }
      ],
      "stateMutability": "view",
      "type": "function"
    },
    {
      "inputs": [],
      "name": "deploymentTime",
      "outputs": [
        {
          "internalType": "uint256",
          "name": "",
          "type": "uint256"
        }
      ],
      "stateMutability": "view",
      "type": "function"
    },
    {
      "inputs": [],
      "name": "generatorContract",
      "outputs": [
        {
          "internalType": "address",
          "name": "",
          "type": "address"
        }
      ],
      "stateMutability": "view",
      "type": "function"
    },
    {
      "inputs": [],
      "name": "generatorLocked",
      "outputs": [
        {
          "internalType": "bool",
          "name": "",
          "type": "bool"
        }
      ],
      "stateMutability": "view",
      "type": "function"
    },
    {
      "inputs": [],
      "name": "getAllowedMutations",
      "outputs": [
        {
          "internalType": "string[]",
          "name": "",
          "type": "string[]"
        }
      ],
      "stateMutability": "view",
      "type": "function"
    },
    {
      "inputs": [
        {
          "internalType": "uint256",
          "name": "tokenId",
          "type": "uint256"
        }
      ],
      "name": "getApproved",
      "outputs": [
        {
          "internalType": "address",
          "name": "",
          "type": "address"
        }
      ],
      "stateMutability": "view",
      "type": "function"
    },
    {
      "inputs": [],
      "name": "getBannedTokenCount",
      "outputs": [
        {
          "internalType": "uint256",
          "name": "",
          "type": "uint256"
        }
      ],
      "stateMutability": "view",
      "type": "function"
    },
    {
      "inputs": [],
      "name": "getCurrentPrice",
      "outputs": [
        {
          "internalType": "uint256",
          "name": "",
          "type": "uint256"
        }
      ],
      "stateMutability": "view",
      "type": "function"
    },
    {
      "inputs": [],
      "name": "getCurrentProposal",
      "outputs": [
        {
          "internalType": "address",
          "name": "proposer",
          "type": "address"
        },
        {
          "internalType": "string",
          "name": "proposedURI",
          "type": "string"
        },
        {
          "internalType": "uint256",
          "name": "proposalTime",
          "type": "uint256"
        },
        {
          "internalType": "uint256",
          "name": "totalVotes",
          "type": "uint256"
        },
        {
          "internalType": "bool",
          "name": "locked",
          "type": "bool"
        },
        {
          "internalType": "bool",
          "name": "thresholdReached",
          "type": "bool"
        },
        {
          "internalType": "uint256",
          "name": "thresholdTime",
          "type": "uint256"
        },
        {
          "internalType": "bool",
          "name": "executed",
          "type": "bool"
        },
        {
          "internalType": "uint256",
          "name": "proposerTokenId",
          "type": "uint256"
        }
      ],
      "stateMutability": "view",
      "type": "function"
    },
    {
      "inputs": [
        {
          "internalType": "uint256",
          "name": "tokenId",
          "type": "uint256"
        }
      ],
      "name": "getCustomPalette",
      "outputs": [
        {
          "internalType": "string[6]",
          "name": "",
          "type": "string[6]"
        }
      ],
      "stateMutability": "view",
      "type": "function"
    },
    {
      "inputs": [],
      "name": "getPendingRequest",
      "outputs": [
        {
          "components": [
            {
              "internalType": "bytes32[3]",
              "name": "seeds",
              "type": "bytes32[3]"
            },
            {
              "internalType": "uint256",
              "name": "timestamp",
              "type": "uint256"
            },
            {
              "internalType": "bool",
              "name": "completed",
              "type": "bool"
            },
            {
              "internalType": "address",
              "name": "recipient",
              "type": "address"
            },
            {
              "internalType": "bool",
              "name": "isOwnerMint",
              "type": "bool"
            },
            {
              "internalType": "bool",
              "name": "hasCustomPalette",
              "type": "bool"
            }
          ],
          "internalType": "struct Spatters.MintRequest",
          "name": "",
          "type": "tuple"
        }
      ],
      "stateMutability": "view",
      "type": "function"
    },
    {
      "inputs": [
        {
          "internalType": "uint256",
          "name": "tokenId",
          "type": "uint256"
        }
      ],
      "name": "getTokenMutations",
      "outputs": [
        {
          "components": [
            {
              "internalType": "string",
              "name": "mutationType",
              "type": "string"
            },
            {
              "internalType": "bytes32",
              "name": "seed",
              "type": "bytes32"
            },
            {
              "internalType": "uint256",
              "name": "timestamp",
              "type": "uint256"
            }
          ],
          "internalType": "struct Spatters.MutationRecord[]",
          "name": "",
          "type": "tuple[]"
        }
      ],
      "stateMutability": "view",
      "type": "function"
    },
    {
      "inputs": [
        {
          "internalType": "uint256",
          "name": "tokenId",
          "type": "uint256"
        }
      ],
      "name": "hasTokenVoted",
      "outputs": [
        {
          "internalType": "bool",
          "name": "",
          "type": "bool"
        }
      ],
      "stateMutability": "view",
      "type": "function"
    },
    {
      "inputs": [
        {
          "internalType": "address",
          "name": "owner",
          "type": "address"
        },
        {
          "internalType": "address",
          "name": "operator",
          "type": "address"
        }
      ],
      "name": "isApprovedForAll",
      "outputs": [
        {
          "internalType": "bool",
          "name": "",
          "type": "bool"
        }
      ],
      "stateMutability": "view",
      "type": "function"
    },
    {
      "inputs": [],
      "name": "isMintSelectionInProgress",
      "outputs": [
        {
          "internalType": "bool",
          "name": "active",
          "type": "bool"
        },
        {
          "internalType": "address",
          "name": "requester",
          "type": "address"
        },
        {
          "internalType": "uint256",
          "name": "expiresAt",
          "type": "uint256"
        }
      ],
      "stateMutability": "view",
      "type": "function"
    },
    {
      "inputs": [
        {
          "internalType": "uint256",
          "name": "tokenId",
          "type": "uint256"
        }
      ],
      "name": "isTokenBanned",
      "outputs": [
        {
          "internalType": "bool",
          "name": "",
          "type": "bool"
        }
      ],
      "stateMutability": "view",
      "type": "function"
    },
    {
      "inputs": [],
      "name": "lastGlobalMintTime",
      "outputs": [
        {
          "internalType": "uint256",
          "name": "",
          "type": "uint256"
        }
      ],
      "stateMutability": "view",
      "type": "function"
    },
    {
      "inputs": [
        {
          "internalType": "uint256",
          "name": "",
          "type": "uint256"
        }
      ],
      "name": "lastMutationDay",
      "outputs": [
        {
          "internalType": "uint256",
          "name": "",
          "type": "uint256"
        }
      ],
      "stateMutability": "view",
      "type": "function"
    },
    {
      "inputs": [],
      "name": "lastProposalTime",
      "outputs": [
        {
          "internalType": "uint256",
          "name": "",
          "type": "uint256"
        }
      ],
      "stateMutability": "view",
      "type": "function"
    },
    {
      "inputs": [],
      "name": "lockGenerator",
      "outputs": [],
      "stateMutability": "nonpayable",
      "type": "function"
    },
    {
      "inputs": [
        {
          "internalType": "uint256",
          "name": "tokenId",
          "type": "uint256"
        },
        {
          "internalType": "string",
          "name": "mutationType",
          "type": "string"
        }
      ],
      "name": "mutate",
      "outputs": [],
      "stateMutability": "nonpayable",
      "type": "function"
    },
    {
      "inputs": [],
      "name": "name",
      "outputs": [
        {
          "internalType": "string",
          "name": "",
          "type": "string"
        }
      ],
      "stateMutability": "view",
      "type": "function"
    },
    {
      "inputs": [],
      "name": "owner",
      "outputs": [
        {
          "internalType": "address",
          "name": "",
          "type": "address"
        }
      ],
      "stateMutability": "view",
      "type": "function"
    },
    {
      "inputs": [
        {
          "internalType": "address",
          "name": "to",
          "type": "address"
        },
        {
          "internalType": "string[6]",
          "name": "customPalette",
          "type": "string[6]"
        },
        {
          "internalType": "bytes32",
          "name": "customSeed",
          "type": "bytes32"
        }
      ],
      "name": "ownerMint",
      "outputs": [],
      "stateMutability": "nonpayable",
      "type": "function"
    },
    {
      "inputs": [
        {
          "internalType": "uint256",
          "name": "tokenId",
          "type": "uint256"
        },
        {
          "internalType": "string",
          "name": "mutationType",
          "type": "string"
        }
      ],
      "name": "ownerMutate",
      "outputs": [],
      "stateMutability": "nonpayable",
      "type": "function"
    },
    {
      "inputs": [
        {
          "internalType": "uint256",
          "name": "tokenId",
          "type": "uint256"
        }
      ],
      "name": "ownerOf",
      "outputs": [
        {
          "internalType": "address",
          "name": "",
          "type": "address"
        }
      ],
      "stateMutability": "view",
      "type": "function"
    },
    {
      "inputs": [
        {
          "internalType": "uint256",
          "name": "",
          "type": "uint256"
        }
      ],
      "name": "pendingPalette",
      "outputs": [
        {
          "internalType": "string",
          "name": "",
          "type": "string"
        }
      ],
      "stateMutability": "view",
      "type": "function"
    },
    {
      "inputs": [],
      "name": "pendingRequest",
      "outputs": [
        {
          "internalType": "uint256",
          "name": "timestamp",
          "type": "uint256"
        },
        {
          "internalType": "bool",
          "name": "completed",
          "type": "bool"
        },
        {
          "internalType": "address",
          "name": "recipient",
          "type": "address"
        },
        {
          "internalType": "bool",
          "name": "isOwnerMint",
          "type": "bool"
        },
        {
          "internalType": "bool",
          "name": "hasCustomPalette",
          "type": "bool"
        }
      ],
      "stateMutability": "view",
      "type": "function"
    },
    {
      "inputs": [],
      "name": "proposalGeneration",
      "outputs": [
        {
          "internalType": "uint256",
          "name": "",
          "type": "uint256"
        }
      ],
      "stateMutability": "view",
      "type": "function"
    },
    {
      "inputs": [
        {
          "internalType": "string",
          "name": "newURI",
          "type": "string"
        }
      ],
      "name": "proposeBaseURI",
      "outputs": [],
      "stateMutability": "nonpayable",
      "type": "function"
    },
    {
      "inputs": [],
      "name": "renounceOwnership",
      "outputs": [],
      "stateMutability": "nonpayable",
      "type": "function"
    },
    {
      "inputs": [],
      "name": "requestMint",
      "outputs": [
        {
          "internalType": "bytes32[3]",
          "name": "",
          "type": "bytes32[3]"
        }
      ],
      "stateMutability": "payable",
      "type": "function"
    },
    {
      "inputs": [
        {
          "internalType": "address",
          "name": "to",
          "type": "address"
        },
        {
          "internalType": "string[6]",
          "name": "customPalette",
          "type": "string[6]"
        }
      ],
      "name": "requestOwnerMint",
      "outputs": [
        {
          "internalType": "bytes32[3]",
          "name": "",
          "type": "bytes32[3]"
        }
      ],
      "stateMutability": "nonpayable",
      "type": "function"
    },
    {
      "inputs": [
        {
          "internalType": "uint256",
          "name": "tokenId",
          "type": "uint256"
        },
        {
          "internalType": "uint256",
          "name": "salePrice",
          "type": "uint256"
        }
      ],
      "name": "royaltyInfo",
      "outputs": [
        {
          "internalType": "address",
          "name": "receiver",
          "type": "address"
        },
        {
          "internalType": "uint256",
          "name": "royaltyAmount",
          "type": "uint256"
        }
      ],
      "stateMutability": "view",
      "type": "function"
    },
    {
      "inputs": [],
      "name": "royaltyReceiver",
      "outputs": [
        {
          "internalType": "address",
          "name": "",
          "type": "address"
        }
      ],
      "stateMutability": "view",
      "type": "function"
    },
    {
      "inputs": [
        {
          "internalType": "address",
          "name": "from",
          "type": "address"
        },
        {
          "internalType": "address",
          "name": "to",
          "type": "address"
        },
        {
          "internalType": "uint256",
          "name": "tokenId",
          "type": "uint256"
        }
      ],
      "name": "safeTransferFrom",
      "outputs": [],
      "stateMutability": "nonpayable",
      "type": "function"
    },
    {
      "inputs": [
        {
          "internalType": "address",
          "name": "from",
          "type": "address"
        },
        {
          "internalType": "address",
          "name": "to",
          "type": "address"
        },
        {
          "internalType": "uint256",
          "name": "tokenId",
          "type": "uint256"
        },
        {
          "internalType": "bytes",
          "name": "data",
          "type": "bytes"
        }
      ],
      "name": "safeTransferFrom",
      "outputs": [],
      "stateMutability": "nonpayable",
      "type": "function"
    },
    {
      "inputs": [
        {
          "internalType": "address",
          "name": "operator",
          "type": "address"
        },
        {
          "internalType": "bool",
          "name": "approved",
          "type": "bool"
        }
      ],
      "name": "setApprovalForAll",
      "outputs": [],
      "stateMutability": "nonpayable",
      "type": "function"
    },
    {
      "inputs": [
        {
          "internalType": "string",
          "name": "newURI",
          "type": "string"
        }
      ],
      "name": "setBaseURI",
      "outputs": [],
      "stateMutability": "nonpayable",
      "type": "function"
    },
    {
      "inputs": [
        {
          "internalType": "address",
          "name": "_generator",
          "type": "address"
        }
      ],
      "name": "setGeneratorContract",
      "outputs": [],
      "stateMutability": "nonpayable",
      "type": "function"
    },
    {
      "inputs": [
        {
          "internalType": "address",
          "name": "newReceiver",
          "type": "address"
        }
      ],
      "name": "setRoyaltyReceiver",
      "outputs": [],
      "stateMutability": "nonpayable",
      "type": "function"
    },
    {
      "inputs": [
        {
          "internalType": "bytes4",
          "name": "interfaceId",
          "type": "bytes4"
        }
      ],
      "name": "supportsInterface",
      "outputs": [
        {
          "internalType": "bool",
          "name": "",
          "type": "bool"
        }
      ],
      "stateMutability": "view",
      "type": "function"
    },
    {
      "inputs": [],
      "name": "symbol",
      "outputs": [
        {
          "internalType": "string",
          "name": "",
          "type": "string"
        }
      ],
      "stateMutability": "view",
      "type": "function"
    },
    {
      "inputs": [
        {
          "internalType": "uint256",
          "name": "",
          "type": "uint256"
        }
      ],
      "name": "tokenBannedFromProposing",
      "outputs": [
        {
          "internalType": "bool",
          "name": "",
          "type": "bool"
        }
      ],
      "stateMutability": "view",
      "type": "function"
    },
    {
      "inputs": [
        {
          "internalType": "uint256",
          "name": "index",
          "type": "uint256"
        }
      ],
      "name": "tokenByIndex",
      "outputs": [
        {
          "internalType": "uint256",
          "name": "",
          "type": "uint256"
        }
      ],
      "stateMutability": "view",
      "type": "function"
    },
    {
      "inputs": [
        {
          "internalType": "uint256",
          "name": "",
          "type": "uint256"
        },
        {
          "internalType": "uint256",
          "name": "",
          "type": "uint256"
        }
      ],
      "name": "tokenMutations",
      "outputs": [
        {
          "internalType": "string",
          "name": "mutationType",
          "type": "string"
        },
        {
          "internalType": "bytes32",
          "name": "seed",
          "type": "bytes32"
        },
        {
          "internalType": "uint256",
          "name": "timestamp",
          "type": "uint256"
        }
      ],
      "stateMutability": "view",
      "type": "function"
    },
    {
      "inputs": [
        {
          "internalType": "address",
          "name": "owner",
          "type": "address"
        },
        {
          "internalType": "uint256",
          "name": "index",
          "type": "uint256"
        }
      ],
      "name": "tokenOfOwnerByIndex",
      "outputs": [
        {
          "internalType": "uint256",
          "name": "",
          "type": "uint256"
        }
      ],
      "stateMutability": "view",
      "type": "function"
    },
    {
      "inputs": [
        {
          "internalType": "uint256",
          "name": "tokenId",
          "type": "uint256"
        }
      ],
      "name": "tokenURI",
      "outputs": [
        {
          "internalType": "string",
          "name": "",
          "type": "string"
        }
      ],
      "stateMutability": "view",
      "type": "function"
    },
    {
      "inputs": [
        {
          "internalType": "uint256",
          "name": "",
          "type": "uint256"
        }
      ],
      "name": "tokenVoteGeneration",
      "outputs": [
        {
          "internalType": "uint256",
          "name": "",
          "type": "uint256"
        }
      ],
      "stateMutability": "view",
      "type": "function"
    },
    {
      "inputs": [
        {
          "internalType": "uint256",
          "name": "",
          "type": "uint256"
        }
      ],
      "name": "tokens",
      "outputs": [
        {
          "internalType": "bytes32",
          "name": "mintSeed",
          "type": "bytes32"
        },
        {
          "internalType": "uint256",
          "name": "mintTimestamp",
          "type": "uint256"
        }
      ],
      "stateMutability": "view",
      "type": "function"
    },
    {
      "inputs": [],
      "name": "totalSupply",
      "outputs": [
        {
          "internalType": "uint256",
          "name": "",
          "type": "uint256"
        }
      ],
      "stateMutability": "view",
      "type": "function"
    },
    {
      "inputs": [
        {
          "internalType": "address",
          "name": "from",
          "type": "address"
        },
        {
          "internalType": "address",
          "name": "to",
          "type": "address"
        },
        {
          "internalType": "uint256",
          "name": "tokenId",
          "type": "uint256"
        }
      ],
      "name": "transferFrom",
      "outputs": [],
      "stateMutability": "nonpayable",
      "type": "function"
    },
    {
      "inputs": [
        {
          "internalType": "address",
          "name": "newOwner",
          "type": "address"
        }
      ],
      "name": "transferOwnership",
      "outputs": [],
      "stateMutability": "nonpayable",
      "type": "function"
    },
    {
      "inputs": [],
      "name": "withdraw",
      "outputs": [],
      "stateMutability": "nonpayable",
      "type": "function"
    }
  ],
  "bytecode": "0x60a034620016985760406001600160401b0382820181811184821017620016825782526008835260209067537061747465727360c01b8285015282519083820182811082821117620016825784526004948583526314d4105560e21b848401528051928284116200166d576000938454906001938483811c9316801562001662575b888410146200156e578190601f938481116200160f575b508890848311600114620015ab5788926200159f575b5050600019600383901b1c191690841b1785555b8151918483116200158c5783548481811c9116801562001581575b888210146200156e579081838594931162001519575b5087918311600114620014b5578692620014a9575b5050600019600383901b1c191690821b1781555b33156200149257600a80546001600160a01b0319808216339081179093559291906001600160a01b03167f8be0079c531659141344cd1fd0a4f28419497f9722a3daafe3b4186f6b6457e08680a380600b55602a553390600c541617600c5542608052620001ac6200018d6200169d565b70617370656374526174696f4368616e676560781b85820152620019b5565b620001da620001ba620016c1565b7162617365526164697573496e63726561736560701b85820152620019b5565b62000208620001e8620016c1565b7162617365526164697573446563726561736560701b85820152620019b5565b6200023662000216620016c1565b716772616469656e74547970654368616e676560701b85820152620019b5565b6200026462000244620016c1565b7164697669646572436f756e744368616e676560701b85820152620019b5565b62000291620002726200169d565b70636972636c65436f756e744368616e676560781b85820152620019b5565b620002bc6200029f620016e5565b6e6c696e65436f756e744368616e676560881b85820152620019b5565b620002ea620002ca620016c1565b71636972636c6553697a65496e63726561736560701b85820152620019b5565b62000318620002f8620016c1565b71636972636c6553697a65446563726561736560701b85820152620019b5565b620003516200032662001709565b7f636972636c65506f736974696f6e4368616e676500000000000000000000000085820152620019b5565b6200037b6200035f6200172d565b6d18da5c98db19535bdd995319599d60921b85820152620019b5565b620003a662000389620016e5565b6e18da5c98db19535bdd99549a59da1d608a1b85820152620019b5565b620003ce620003b462001751565b6b0636972636c654d6f766555760a41b85820152620019b5565b620003f8620003dc6200172d565b6d31b4b931b632a6b7bb32a237bbb760911b85820152620019b5565b62000425620004066200169d565b706c696e655769647468496e63726561736560781b85820152620019b5565b62000452620004336200169d565b706c696e655769647468446563726561736560781b85820152620019b5565b6200047d62000460620016e5565b6e6c696e65416e676c654368616e676560881b85820152620019b5565b620004ab6200048b620016c1565b716c696e654c656e677468496e63726561736560701b85820152620019b5565b620004d9620004b9620016c1565b716c696e654c656e677468446563726561736560701b85820152620019b5565b62000507620004e7620016c1565b716c696e65506f736974696f6e4368616e676560701b85820152620019b5565b6200052f6200051562001751565b6b1b1a5b99535bdd995319599d60a21b85820152620019b5565b620005586200053d62001775565b6c1b1a5b99535bdd99549a59da1d609a1b85820152620019b5565b8351848101818110838211176200147f578552600a81526906c696e654d6f766555760b41b848201526200058c90620019b5565b620005b46200059a62001751565b6b3634b732a6b7bb32a237bbb760a11b85820152620019b5565b620005e0620005c262001799565b6f70616c657474654368616e67654f6e6560801b85820152620019b5565b6200060c620005ee62001799565b6f1c185b195d1d1950da185b99d9505b1b60821b85820152620019b5565b620006396200061a6200169d565b7070616c65747465436f6d62696e654f6e6560781b85820152620019b5565b62000666620006476200169d565b701c185b195d1d1950dbdb589a5b99505b1b607a1b85820152620019b5565b6200069162000674620016e5565b6e70616c6574746552657365744f6e6560881b85820152620019b5565b620006bc6200069f620016e5565b6e1c185b195d1d1954995cd95d105b1b608a1b85820152620019b5565b620006e6620006ca6200172d565b6d70616c6574746553687566666c6560901b85820152620019b5565b6200070d620006f4620017bd565b6a646976696465724d6f766560a81b85820152620019b5565b620007366200071b62001775565b6c64697669646572526f7461746560981b85820152620019b5565b8351848101818110838211176200147f5785526006815265726f7461746560d01b848201526200076690620019b5565b6200079f62000774620017e1565b7f73656564506f696e74436f756e74496e6372656173650000000000000000000085820152620019b5565b620007d8620007ad620017e1565b7f73656564506f696e74436f756e7444656372656173650000000000000000000085820152620019b5565b62000806620007e6620016c1565b711cd959591c1bda5b9d135bdd99549a59da1d60721b85820152620019b5565b62000833620008146200169d565b701cd959591c1bda5b9d135bdd995319599d607a1b85820152620019b5565b6200085e62000841620016e5565b6e073656564706f696e744d6f7665557608c1b85820152620019b5565b6200088b6200086c6200169d565b7039b2b2b23837b4b73a26b7bb32a237bbb760791b85820152620019b5565b620008c46200089962001805565b7f73656564706f696e744368616e6765437572766543656e74657200000000000085820152620019b5565b620008fd620008d262001805565b7f73656564706f696e74496e637265617365436f6e63617669747900000000000085820152620019b5565b620009366200090b62001805565b7f73656564706f696e744465637265617365436f6e63617669747900000000000085820152620019b5565b6200096f6200094462001829565b7f73656564706f696e74496e63726561736552616469757300000000000000000085820152620019b5565b620009a86200097d62001829565b7f73656564706f696e74446563726561736552616469757300000000000000000085820152620019b5565b620009cf620009b6620017bd565b6a1cda185c19515e1c185b9960aa1b85820152620019b5565b620009f6620009dd620017bd565b6a7368617065536872696e6b60a81b85820152620019b5565b62000a2062000a046200172d565b6d39b430b832a6b0b5b2abb4b232b960911b85820152620019b5565b62000a4d62000a2e6200169d565b7039b430b832a6b0b5b2a730b93937bbb2b960791b85820152620019b5565b62000a7862000a5b620016e5565b6e39b430b832a6b0b5b2a434b3b432b960891b85820152620019b5565b62000aa462000a8662001799565b6f39b430b832a6b0b5b2a9b437b93a32b960811b85820152620019b5565b62000add62000ab262001829565b7f73686170654368616e6765437572766543656e7465727300000000000000000085820152620019b5565b62000b1662000aeb620017e1565b7f7368617065496e637265617365436f6e6361766974790000000000000000000085820152620019b5565b62000b4f62000b2462001709565b7f7368617065526564756365436f6e63617669747900000000000000000000000085820152620019b5565b62000b8862000b5d6200184d565b7f73686170654368616e676552616469757365730000000000000000000000000085820152620019b5565b8351848101818110838211176200147f578552600981526873686170654d6f766560b81b8482015262000bbb90620019b5565b62000be362000bc962001751565b6b3ab73237a6baba30ba34b7b760a11b85820152620019b5565b62000c1c62000bf162001829565b7f72657475726e546f50726576696f757356657273696f6e00000000000000000085820152620019b5565b62000c5562000c2a620017e1565b7f73656564706f696e744d6f766552696768742d746f700000000000000000000085820152620019b5565b62000c8e62000c6362001871565b7f73656564706f696e744d6f76654c6566742d746f70000000000000000000000085820152620019b5565b62000cc762000c9c6200184d565b7f73656564706f696e744d6f766555702d746f700000000000000000000000000085820152620019b5565b62000d0062000cd562001871565b7f73656564706f696e744d6f7665446f776e2d746f70000000000000000000000085820152620019b5565b62000d3962000d0e62001895565b7f73656564706f696e744368616e6765437572766543656e7465722d746f70000085820152620019b5565b62000d7262000d4762001895565b7f73656564706f696e74496e637265617365436f6e6361766974792d746f70000085820152620019b5565b62000dab62000d8062001895565b7f73656564706f696e744465637265617365436f6e6361766974792d746f70000085820152620019b5565b62000de462000db9620018b9565b7f73656564706f696e74496e6372656173655261646975732d746f70000000000085820152620019b5565b62000e1d62000df2620018b9565b7f73656564706f696e7444656372656173655261646975732d746f70000000000085820152620019b5565b835191828501918211838310176200146c575062001447929162000e6c918552601981527f73656564706f696e744d6f766552696768742d626f74746f6d0000000000000083820152620019b5565b62000ea562000e7a620018dd565b7f73656564706f696e744d6f76654c6566742d626f74746f6d000000000000000083820152620019b5565b62000ede62000eb3620017e1565b7f73656564706f696e744d6f766555702d626f74746f6d0000000000000000000083820152620019b5565b62000f1762000eec620018dd565b7f73656564706f696e744d6f7665446f776e2d626f74746f6d000000000000000083820152620019b5565b62000fd762000f2562001901565b7f73656564706f696e744368616e6765437572766543656e7465722d626f74746f8382015262000f5f606d60f81b918287820152620019b5565b62000f9d62000f6d62001901565b7f73656564706f696e74496e637265617365436f6e6361766974792d626f74746f858201528287820152620019b5565b62000fa762001901565b907f73656564706f696e744465637265617365436f6e6361766974792d626f74746f8483015285820152620019b5565b6200101062000fe562001895565b7f73656564706f696e74496e6372656173655261646975732d626f74746f6d000083820152620019b5565b620010496200101e62001895565b7f73656564706f696e7444656372656173655261646975732d626f74746f6d000083820152620019b5565b620010826200105762001829565b7f73656564706f696e744d6f766552696768742d6c65667400000000000000000083820152620019b5565b620010bb62001090620017e1565b7f73656564706f696e744d6f76654c6566742d6c6566740000000000000000000083820152620019b5565b620010f4620010c962001709565b7f73656564706f696e744d6f766555702d6c65667400000000000000000000000083820152620019b5565b6200112d62001102620017e1565b7f73656564706f696e744d6f7665446f776e2d6c6566740000000000000000000083820152620019b5565b620011666200113b62001925565b7f73656564706f696e744368616e6765437572766543656e7465722d6c6566740083820152620019b5565b6200119f6200117462001925565b7f73656564706f696e74496e637265617365436f6e6361766974792d6c6566740083820152620019b5565b620011d8620011ad62001925565b7f73656564706f696e744465637265617365436f6e6361766974792d6c6566740083820152620019b5565b62001211620011e662001949565b7f73656564706f696e74496e6372656173655261646975732d6c6566740000000083820152620019b5565b6200124a6200121f62001949565b7f73656564706f696e7444656372656173655261646975732d6c6566740000000083820152620019b5565b6200128362001258620018dd565b7f73656564706f696e744d6f766552696768742d7269676874000000000000000083820152620019b5565b620012bc6200129162001829565b7f73656564706f696e744d6f76654c6566742d726967687400000000000000000083820152620019b5565b620012f5620012ca62001871565b7f73656564706f696e744d6f766555702d7269676874000000000000000000000083820152620019b5565b6200132e6200130362001829565b7f73656564706f696e744d6f7665446f776e2d726967687400000000000000000083820152620019b5565b620013676200133c6200196d565b7f73656564706f696e744368616e6765437572766543656e7465722d726967687483820152620019b5565b620013a0620013756200196d565b7f73656564706f696e74496e637265617365436f6e6361766974792d726967687483820152620019b5565b620013d9620013ae6200196d565b7f73656564706f696e744465637265617365436f6e6361766974792d726967687483820152620019b5565b62001412620013e762001991565b7f73656564706f696e74496e6372656173655261646975732d726967687400000083820152620019b5565b7f73656564706f696e7444656372656173655261646975732d72696768740000006200143d62001991565b91820152620019b5565b516155ef908162001b98823960805181818161065401528181611b8f01526129f40152f35b634e487b7160e01b815260418652602490fd5b634e487b7160e01b845260418752602484fd5b8451631e4fbdf760e01b8152808701849052602490fd5b01519050388062000108565b8487528787208594509190601f198416885b8a828210620015025750508411620014e8575b505050811b0181556200011c565b015160001960f88460031b161c19169055388080620014da565b8385015186558897909501949384019301620014c7565b909192508487528787208380860160051c8201928a871062001564575b91869588929594930160051c01915b82811062001555575050620000f3565b89815586955087910162001545565b9250819262001536565b634e487b7160e01b875260228a52602487fd5b90607f1690620000dd565b634e487b7160e01b865260418952602486fd5b015190503880620000ae565b8880528989208794509190601f1984168a5b8c828210620015f85750508411620015de575b505050811b018555620000c2565b015160001960f88460031b161c19169055388080620015d0565b8385015186558a97909501949384019301620015bd565b9091508780528888208480850160051c8201928b861062001658575b918891869594930160051c01915b8281106200164957505062000098565b8a815585945088910162001639565b925081926200162b565b92607f169262000081565b604187634e487b7160e01b6000525260246000fd5b634e487b7160e01b600052604160045260246000fd5b600080fd5b60408051919082016001600160401b03811183821017620016825760405260118252565b60408051919082016001600160401b03811183821017620016825760405260128252565b60408051919082016001600160401b038111838210176200168257604052600f8252565b60408051919082016001600160401b03811183821017620016825760405260148252565b60408051919082016001600160401b038111838210176200168257604052600e8252565b60408051919082016001600160401b038111838210176200168257604052600c8252565b60408051919082016001600160401b038111838210176200168257604052600d8252565b60408051919082016001600160401b03811183821017620016825760405260108252565b60408051919082016001600160401b038111838210176200168257604052600b8252565b60408051919082016001600160401b03811183821017620016825760405260168252565b60408051919082016001600160401b038111838210176200168257604052601a8252565b60408051919082016001600160401b03811183821017620016825760405260178252565b60408051919082016001600160401b03811183821017620016825760405260138252565b60408051919082016001600160401b03811183821017620016825760405260158252565b60408051919082016001600160401b038111838210176200168257604052601e8252565b60408051919082016001600160401b038111838210176200168257604052601b8252565b60408051919082016001600160401b03811183821017620016825760405260188252565b60405190606082016001600160401b03811183821017620016825760405260218252565b60408051919082016001600160401b038111838210176200168257604052601f8252565b60408051919082016001600160401b038111838210176200168257604052601c8252565b60408051919082016001600160401b03811183821017620016825760405260208252565b60408051919082016001600160401b038111838210176200168257604052601d8252565b90602e549168010000000000000000831015620016825760019081840180602e5584101562001b8157602e600090815281516020959192917f37fa166cbdbfbb1561ccd9ea985ec0218b5e68502e230525f544285b2bdf3d7e01906001600160401b03811162001b6d5781548581811c9116801562001b62575b8882101462001b4e57601f811162001b03575b5086601f821160011462001a99579181602f9492604097989994879162001a8d575b50600019600383901b1c191690881b1790555b818151910120835252209060ff19825416179055565b90508301513862001a64565b82855287852090601f198316865b81811062001aed57509287989994926040989282602f98961062001ad3575b5050811b01905562001a77565b85015160001960f88460031b161c19169055388062001ac6565b86830151845592880192918a01918a0162001aa7565b828552878520601f830160051c81019189841062001b43575b601f0160051c019086905b82811062001b3757505062001a42565b86815501869062001b27565b909150819062001b1c565b634e487b7160e01b85526022600452602485fd5b90607f169062001a2f565b634e487b7160e01b84526041600452602484fd5b634e487b7160e01b600052603260045260246000fdfe608080604052600436101561001357600080fd5b60003560e01c9081629c4c7e146139e95750806301ffc9a71461394757806306fdde03146138a45780630739ac061461388757806307488ccd14613590578063081812fc14613552578063095ea7b31461346b57806309aaa61e1461344d5780630ac6fc58146133d05780630d3fd161146133a0578063131f3a1e146128ac578063149e7b7714613357578063161860d61461332b5780631630881214612f8c57806318160ddd14612f7157806323b872dd14612f5a57806327189ca0146129be57806329777c35146129a15780632a55205a146129385780632b49d425146128d85780632f745c59146128b157806332cb6b0c146128ac5780633ccfd60b146127f057806341ec68701461278957806342842e0e1461275b578063467f67f91461273d57806349c657db1461038e5780634e474dd9146127145780634f64b2be146126df5780634f6ccce71461269257806354f484191461267457806355f804b3146124e15780635ef46bc5146123f05780635fa951a7146121985780636352211e146121685780636b04a1e2146120945780636c0360eb1461200057806370a0823114611fdd57806370a6f23014611f83578063715018a614611f2657806371f951d814611ef55780637af2a93314611ef55780637e056b9114611b7957806385c639fe14611b5157806386e2d5df14611b335780638da5cb5b14611b0a5780638dc251e314611a5c57806390f4fe721461194657806395d89b411461187b5780639a617d0c1461175e5780639fbc871314611735578063a22cb46514611690578063a7fa70ce14611664578063afb7bed91461137a578063afe21c2914610fb9578063b0b5489514610f9d578063b1610d7e14610f7f578063b6fd462214610dd3578063b88d4fde14610d66578063ba09768614610d30578063c06e887e14610d12578063c83d07e314610c9c578063c87b56dd146109bf578063ccad22de1461081c578063cdc3cc41146107f3578063d088650a146107d5578063d40d9d8b1461079e578063d9759f9a14610782578063e2b0a15d1461072d578063e985e9c5146106d7578063e9b353611461069d578063eb91d37e14610677578063ecda10f51461063c578063ede6fade14610620578063f2fde38b14610597578063fa90eabf146104ad578063fc2deeed14610487578063fe660dc614610469578063fefafa08146103b05763ff9830bd1461038e57600080fd5b346103ab5760003660031901126103ab5760206040516101f48152f35b600080fd5b346103ab5760203660031901126103ab576103c9613a4c565b6103d1613ea7565b6010549060ff8260a01c16610424576001600160a01b039081166001600160a01b03198316811760105591167f4629afddec912ec503dd73bdff4ed7d1ddff82665cc12234d2050e12f518e5ed600080a3005b60405162461bcd60e51b815260206004820152601f60248201527f47656e657261746f72206973207065726d616e656e746c79206c6f636b6564006044820152606490fd5b346103ab5760003660031901126103ab576020602d54604051908152f35b346103ab5760003660031901126103ab57602060ff60105460a01c166040519015158152f35b346103ab5760003660031901126103ab576104c6613ea7565b60105460ff8160a01c16610561576001600160a01b03811690811561051c5760ff60a01b1916600160a01b176010557f8dc9002242fe1d7789084ad61acb9adee344fd3e9d6c7bd89d94da389ea99914600080a2005b60405162461bcd60e51b815260206004820152601c60248201527f5365742067656e657261746f72206265666f7265206c6f636b696e67000000006044820152606490fd5b60405162461bcd60e51b815260206004820152600e60248201526d105b1c9958591e481b1bd8dad95960921b6044820152606490fd5b346103ab5760203660031901126103ab576105b0613a4c565b6105b8613ea7565b6001600160a01b0390811690811561060757600a54826001600160601b0360a01b821617600a55167f8be0079c531659141344cd1fd0a4f28419497f9722a3daafe3b4186f6b6457e0600080a3005b604051631e4fbdf760e01b815260006004820152602490fd5b346103ab5760003660031901126103ab576020604051601e8152f35b346103ab5760003660031901126103ab5760206040517f00000000000000000000000000000000000000000000000000000000000000008152f35b346103ab5760003660031901126103ab576020610695602a546144f5565b604051908152f35b346103ab5760003660031901126103ab5760606106b8615038565b6040805193151584526001600160a01b03909216602084015290820152f35b346103ab5760403660031901126103ab576106f0613a4c565b6106f8613a62565b9060018060a01b03809116600052600560205260406000209116600052602052602060ff604060002054166040519015158152f35b346103ab5760003660031901126103ab5760a060225460ff60235460405192835281811615156020840152600180851b038160081c166040840152818160a81c161515606084015260b01c1615156080820152f35b346103ab5760003660031901126103ab57602060405160648152f35b346103ab5760203660031901126103ab57600435601b548110156103ab576107c7602091613e70565b90546040519160031b1c8152f35b346103ab5760003660031901126103ab576020600d54604051908152f35b346103ab5760003660031901126103ab57602c546040516001600160a01b039091168152602090f35b346103ab5761082a36613b75565b90610833614498565b61083c8161418b565b336001600160a01b03909116036109885761087461086f8360208151910120600052602f60205260ff6040600020541690565b614c8d565b61087d81614e1c565b1561094d57806000526030602052620151804204604060002055601d6020526108ac82604060002054836150fe565b81600052601d6020526108de6040600020604051906108ca82613a93565b858252836020830152426040830152614cd1565b81600052601d602052604060002054926000198401938411610937577f4226f74e56624aaf998322a4bb5ebb847b5811ac4711df2f3d9b46d7a8f4a3e99161092d604051928392429184613e17565b0390a36001600b55005b634e487b7160e01b600052601160045260246000fd5b60405162461bcd60e51b815260206004820152601360248201527243616e6e6f74206d757461746520746f64617960681b6044820152606490fd5b60405162461bcd60e51b815260206004820152600f60248201526e2737ba103a37b5b2b71037bbb732b960891b6044820152606490fd5b346103ab576020806003193601126103ab576004359081600052600281526109f560018060a01b03604060002054161515614dd9565b600f54610a0181613be7565b15610c42578283916000947a184f03e93ff9f4daa797ed6e38ed64bf6a1f0100000000000000009081811015610c34575b50506d04ee2d6d415b85acef810000000080841015610c26575b50662386f26fc1000080841015610c17575b506305f5e10080841015610c08575b5061271080841015610bf9575b506064831015610be9575b600a80931015610bdf575b600180860193610ab8610aa286613b05565b95610ab06040519788613ae4565b808752613b05565b9382602188880199601f19809801368c37880101905b610bb0575b505050604051958692600092610ae882613be7565b91888282169182600014610b8c575050600114610b39575b5050610b148291610b219651938491613a04565b0103908101845283613ae4565b610b35604051928284938452830190613a27565b0390f35b8796929350600f60005260008051602061559a833981519152906000915b838310610b7457505050610b2195610b1491850101929195610b00565b8054838c018a015289988b9750909201918101610b57565b60ff19168782015283151590930286019092019350610b149150610b219050610b00565b600019019082906f181899199a1a9b1b9c1cb0b131b232b360811b8282061a835304908382610ace5750610ad3565b9360010193610a90565b9391606460029104920193610a85565b60049195930492019385610a7a565b60089195930492019385610a6d565b60109195930492019385610a5e565b849195930492019385610a4c565b604096500492508580610a32565b60405162461bcd60e51b815260048101839052602c60248201527f62617365555249206e6f7420736574202d206f776e6572206d7573742063616c60448201526b6c207365744261736555524960a01b6064820152608490fd5b346103ab5760203660031901126103ab57600435602e548110156103ab57610cf7610cfe610b3592602e600052604051928380927f37fa166cbdbfbb1561ccd9ea985ec0218b5e68502e230525f544285b2bdf3d7e01613cb3565b0382613ae4565b604051918291602083526020830190613a27565b346103ab5760003660031901126103ab576020601b54604051908152f35b346103ab5760203660031901126103ab5760043560068110156103ab57610cf7610cfe610b359260405192838092602401613cb3565b346103ab5760803660031901126103ab57610d7f613a4c565b610d87613a62565b90604435606435926001600160401b0384116103ab57366023850112156103ab57610dbf610dd1943690602481600401359101613b20565b92610dcb838383613f0c565b33614289565b005b346103ab5760203660031901126103ab5760043560ff81168082036103ab576003610e0691610e00614498565b10614669565b602c54610e1d6001600160a01b03821633146146ab565b60225491610e2c8315156146f7565b60235492610e3d60ff851615614738565b60ff8460a81c16610f2c57610ce4810180911161093757610e6090421115614784565b6003811015610f1657601f015460ff199092166001176023556001600160a01b031916602c556000602d5542602b55602a54610e9b8161458d565b602a55604051610eaa81613a78565b82815260016020820142815283600052601c60205260406000209251835551910155610ed681336147c2565b604051918252600060208301524260408301527f35a71fd4ad36d3b5f42a9819d12284ac3592b91d09f274e2ff1639a4418c1a0260603393a36001600b55005b634e487b7160e01b600052603260045260246000fd5b60405162461bcd60e51b815260206004820152602560248201527f55736520636f6d706c6574654f776e65724d696e7420666f72206f776e6572206044820152646d696e747360d81b6064820152608490fd5b346103ab5760003660031901126103ab5760206040516220f5808152f35b346103ab5760003660031901126103ab57602060405160008152f35b346103ab5760003660031901126103ab576011546001600160a01b031633036113355760ff60155460081c16156112f85760ff601754166112c0576016546202a300810180911161093757421161127c57611015601254613be7565b6001600160401b0381116112665761102e600f54613be7565b601f811161121e575b50600090601f8111600114611194578091600091611188575b508160011b916000199060031b1c191617600f555b600160ff199080826017541617601755601b549160005b838110611157575050601b546000601b5580611114575b5050806110e3575b6110a6600e5461458d565b600e557fa621c5ad256761fd9191d8547f07ec26026684c11c01ce72024c5e8ca592524160405160208152806110de60208201613c21565b0390a1005b60207f861427b54efccb3916ffce06e33cfdc507ebe9587bd407e90a0af1dbc6fe7e4d91604051908152a18061109b565b601b6000527f3ad8aa4f87544323a9d1e5dd902f40c356527a7955687113db5f9a85ad579dc1908101905b81811061114c5750611093565b60008155820161113f565b8061116461118392613e70565b90549060031b1c600052601a602052604060002083815416905561458d565b61107c565b90506012015482611050565b601f19811691600f60005260008051602061559a8339815191529060005b8481106111f8575082600194106111d1575b5050811b01600f55611065565b60008051602061557a833981519152015460001960f88460031b161c1916905582806111c4565b60008051602061557a8339815191528201548355600192830192909101906020016111b2565b61125690600f60005260008051602061559a833981519152601f840160051c8101916020851061125c575b601f0160051c0190614b5c565b81611037565b9091508190611249565b634e487b7160e01b600052604160045260246000fd5b606460405162461bcd60e51b815260206004820152602060248201527f50726f706f73616c2065787069726564202d2077696e646f7720636c6f7365646044820152fd5b60405162461bcd60e51b815260206004820152601060248201526f105b1c9958591e48195e1958dd5d195960821b6044820152606490fd5b60405162461bcd60e51b8152602060048201526015602482015274151a1c995cda1bdb19081b9bdd081c995858da1959605a1b6044820152606490fd5b60405162461bcd60e51b815260206004820152601960248201527f4f6e6c792070726f706f7365722063616e20636f6e6669726d000000000000006044820152606490fd5b60003660031901126103ab57606060405161139481613a93565b36903761139f614498565b602a54601e81111561161f576113b96103e78211156143ac565b602c546001600160a01b0316158015611608575b6113d6906143fa565b602b546201518081018091116109375742106115ca576113f5906144f5565b341061158e5760ff80602354168015611577575b15611539576040519061141b82613a93565b606036833760005b8181169060038210156114545761144f9161144961144283423361509f565b9186614457565b52614446565b611423565b8360405161146181613aae565b818152600060a0602092428482015282604082015233606082015282608082015201528160005b600381106115265760608442602255602354610100600160a81b033360081b169068ffffffffffffffffff60b81b1617602355336001600160601b0360a01b602c541617602c5542602d556040516114e08183613d49565b4283820152600060808201527fc904c26edfa19014321dad8ce50a657782d9f55cd41af2afd9737e4f2ec7630760a03392a26001600b556115246040518092613d49565bf35b8151601f82015590820190600101611488565b60405162461bcd60e51b815260206004820152601660248201527550656e64696e6720726571756573742065786973747360501b6044820152606490fd5b50602254610ce48101809111610937574211611409565b60405162461bcd60e51b8152602060048201526014602482015273125b9cdd59999a58da595b9d081c185e5b595b9d60621b6044820152606490fd5b60405162461bcd60e51b8152602060048201526016602482015275476c6f62616c20636f6f6c646f776e2061637469766560501b6044820152606490fd5b50602d54610ce481018091116109375742116113cd565b60405162461bcd60e51b815260206004820152601860248201527f4f776e6572206d696e7420706572696f642061637469766500000000000000006044820152606490fd5b346103ab5760203660031901126103ab5760043560005260196020526020604060002054604051908152f35b346103ab5760403660031901126103ab576116a9613a4c565b602435908115158092036103ab576001600160a01b031690811561171c57336000526005602052604060002082600052602052604060002060ff1981541660ff83161790556040519081527f17307eab39ab6107e8899845ad3d59bd9653f200f220920489ca2b5937696c3160203392a3005b604051630b61174360e31b815260048101839052602490fd5b346103ab5760003660031901126103ab57600c546040516001600160a01b039091168152602090f35b346103ab576020806003193601126103ab57600435600052601d815260406000209081549161178c83615021565b9261179a6040519485613ae4565b8084528284018092600052836000206000915b8383106118305750505050604051918083019381845251809452604083019360408160051b85010192916000955b8287106117e85785850386f35b909192938280600192603f1989820301855287519060408061181284516060808652850190613a27565b938581015186850152015191015296019201960195929190926117db565b60038660019260409998995161184581613a93565b60405161185681610cf7818a613cb3565b81528486015483820152600286015460408201528152019201920191909594956117ad565b346103ab5760003660031901126103ab576040516000600180549061189f82613be7565b8085529181811690811561191f57506001146118c6575b610b3584610cfe81860382613ae4565b600081815292507fb10e2d527612073b26eecdfd717e6a320cf44b4afac2b0732d9fcbe2b7fa0cf65b828410611907575050508101602001610cfe826118b6565b805460208587018101919091529093019281016118ef565b60ff191660208087019190915292151560051b85019092019250610cfe91508390506118b6565b346103ab5760003660031901126103ab5760405161196381613aae565b60405161196f81613a93565b60603682378152600060a060209282848201528260408201528260608201528260808201520152604051906119a382613aae565b60405190601f6000835b60038210611a4757505050610100926119c583613a93565b828152602254918101918252602354916040820160ff841615158152606083019060018060a01b0392838660081c16835260ff60a06080870196828960a81c1615158852019660b01c1615158652611a206040518098613d49565b5160608701525115156080860152511660a084015251151560c083015251151560e0820152f35b600184819285548152019301910190916119ad565b346103ab5760203660031901126103ab57611a75613a4c565b611a7d613ea7565b6001600160a01b03168015611ac557600c80546001600160a01b031916821790557fc3696c23bd17454d95c44cb489c7a0db717d6d809e238813932720cc785ad535600080a2005b60405162461bcd60e51b815260206004820152601860248201527f496e76616c6964207265636569766572206164647265737300000000000000006044820152606490fd5b346103ab5760003660031901126103ab57600a546040516001600160a01b039091168152602090f35b346103ab5760003660031901126103ab5760206040516202a3008152f35b346103ab5760203660031901126103ab576020611b6f600435614e1c565b6040519015158152f35b346103ab5760003660031901126103ab57611bb67f0000000000000000000000000000000000000000000000000000000000000000421015615499565b6013548015611ebb5760ff60175416611e76576220f5808101809111610937574211611e395760155460ff8160081c16158015611e20575b15611ddb57611bfc33613ed3565b90611c088215156154e5565b60ff811615611d92575b5060009060005b818110611d4657828015611d0157611c33816014546143ed565b90816014556040519081527fa36cc2bebb74db33e9f88110a07ef56e1b31b24b4c4f51b54b1664266e29f45b60203392a2602a54600019810190811161093757604381029080820460431490151715610937576015549160ff8360081c16159182611cf2575b5050611ca157005b6101009061ff00191617601555426016557fab69f06083afef0927640d007ea64293cf51d456c47ce52131e28ec5dd1366cf6040516040815280611ce760408201613c21565b4260208301520390a1005b60649192500411158280611c99565b60405162461bcd60e51b815260206004820152601d60248201527f416c6c20796f757220746f6b656e7320616c726561647920766f7465640000006044820152606490fd5b611d5081336141c6565b60005260196020526040600020805490600e54809203611d7b575b5050611d769061458d565b611c19565b5591611d7690611d8a9061458d565b929084611d6b565b60019060ff1916176015557f8e409ff344f734c68d4e8a0f3acc9412ba807ede50cd1ea7263c6902f826819d6040516020815280611dd260208201613c21565b0390a181611c12565b60405162461bcd60e51b815260206004820152601b60248201527f436f6e6669726d6174696f6e2077696e646f77206578706972656400000000006044820152606490fd5b506016546202a300810180911161093757421115611bee565b60405162461bcd60e51b8152602060048201526015602482015274159bdd1a5b99c81c195c9a5bd908195e1c1a5c9959605a1b6044820152606490fd5b60405162461bcd60e51b815260206004820152601960248201527f50726f706f73616c20616c7265616479206578656375746564000000000000006044820152606490fd5b60405162461bcd60e51b8152602060048201526012602482015271139bc81858dd1a5d99481c1c9bdc1bdcd85b60721b6044820152606490fd5b346103ab5760203660031901126103ab57600435600052601a602052602060ff604060002054166040519015158152f35b346103ab5760003660031901126103ab57611f3f613ea7565b600a80546001600160a01b031981169091556000906001600160a01b03167f8be0079c531659141344cd1fd0a4f28419497f9722a3daafe3b4186f6b6457e08280a3005b346103ab57611f9136613bc1565b90600052601d60205260406000209081548110156103ab57611fb291613dfb565b50604051611fc481610cf78185613cb3565b610b356002600184015493015460405193849384613e17565b346103ab5760203660031901126103ab576020610695611ffb613a4c565b613ed3565b346103ab5760003660031901126103ab576040516000600f5461202281613be7565b8084529060019081811690811561191f575060011461204b57610b3584610cfe81860382613ae4565b600f6000908152925060008051602061559a8339815191525b82841061207c575050508101602001610cfe826118b6565b80546020858701810191909152909301928101612064565b346103ab576020806003193601126103ab576040516120b281613aae565b8160005b60c0811061215a5750600435600052601e81526040600020604051906120db82613aae565b600083835b600683106121345750836040519082820183835260e0830191906000945b6006861061210c5784840385f35b9091928180612127600193601f198982030187528751613a27565b95019301950194906120fe565b600191829160405161214a81610cf7818a613cb3565b81520193019101909184906120e0565b6060818401520182906120b6565b346103ab5760203660031901126103ab57602061218660043561418b565b6040516001600160a01b039091168152f35b346103ab576020806003193601126103ab5760043560ff81168082036103ab5760036121ce916121c6613ea7565b610e00614498565b602c54916001600160a01b03906121e882851633146146ab565b602254906121f78215156146f7565b6023549161220860ff841615614738565b60ff8360a81c16156123ab57610ce481018091116109375761222c90421115614784565b6003841015610f1657601f93840154928260081c1694600160ff8460b01c169360ff1916176023556001600160601b0360a01b16602c556000602d5542602b55602a54936122798561458d565b602a558260405161228981613a78565b858152600184820142815288600052601c86526040600020925183555191015561234c575b60005b6006811061230757505050907f35a71fd4ad36d3b5f42a9819d12284ac3592b91d09f274e2ff1639a4418c1a02916122e984866147c2565b6040805192835290151560208301524290820152806060810161092d565b80600061232a9260240161231b8154613be7565b85811161232f575b505561458d565b6122b1565b81835286832061234691870160051c810190614b5c565b8a612323565b60005b6006811061235d57506122ae565b85600052601e8352612373816040600020613bd7565b9190916123955761238b612390928260240190614baf565b61458d565b61234f565b634e487b7160e01b600052600060045260246000fd5b60405162461bcd60e51b815260048101839052601960248201527f4e6f7420616e206f776e6572206d696e742072657175657374000000000000006044820152606490fd5b346103ab5760003660031901126103ab57602e5461240d81615021565b9061241b6040519283613ae4565b8082526020908183019081602e6000527f37fa166cbdbfbb1561ccd9ea985ec0218b5e68502e230525f544285b2bdf3d7e6000915b8383106124b75750505050604051918083019381845251809452604083019360408160051b85010192916000955b82871061248b5785850386f35b9091929382806124a7600193603f198a82030186528851613a27565b960192019601959291909261247e565b60018681926040999899516124d081610cf78189613cb3565b815201920192019190959495612450565b346103ab576020806003193601126103ab576001600160401b03906004358281116103ab57612514903690600401613b57565b9061251d613ea7565b815192831161126657612531600f54613be7565b601f8111612638575b508092601f81116001146125a757807feec356c13f485b7acbb74166d776fb50be80220a12df460b84716109009f99949460009161259c575b508160011b916000199060031b1c191617600f555b6110de604051928284938452830190613a27565b905083015185612573565b601f19811693600f60005260008051602061559a8339815191529460005b81811061262157509482916001937feec356c13f485b7acbb74166d776fb50be80220a12df460b84716109009f99949710612608575b5050811b01600f55612588565b85015160001960f88460031b161c1916905585806125fb565b8583015187556001909601959184019184016125c5565b61266e90600f60005260008051602061559a833981519152601f860160051c81019184871061125c57601f0160051c0190614b5c565b8361253a565b346103ab5760003660031901126103ab576020600e54604051908152f35b346103ab5760203660031901126103ab576004356126ae61508d565b8110156126c0576107c7602091613e39565b6044906040519063295f44f760e21b8252600060048301526024820152fd5b346103ab5760203660031901126103ab57600435600052601c6020526040806000206001815491015482519182526020820152f35b346103ab5760003660031901126103ab576010546040516001600160a01b039091168152602090f35b346103ab5760003660031901126103ab57602060405162278d008152f35b346103ab57610dd161276c36613d71565b906040519261277a84613ac9565b60008452610dcb838383613f0c565b346103ab5760003660031901126103ab5760018060a01b036011541660135490610b356014549160155460165460ff601754169160185493604051966127d9886127d281613c21565b0389613ae4565b60405198899860ff808660081c169516938a613da6565b346103ab5760003660031901126103ab57612809613ea7565b47801561287057600a546000918291829182916001600160a01b03165af161282f614259565b501561283757005b60405162461bcd60e51b815260206004820152601160248201527015da5d1a191c985dd85b0819985a5b1959607a1b6044820152606490fd5b60405162461bcd60e51b81526020600482015260146024820152734e6f2066756e647320746f20776974686472617760601b6044820152606490fd5b613ba4565b346103ab5760403660031901126103ab5760206106956128cf613a4c565b602435906141c6565b346103ab5760003660031901126103ab5760018060a01b036011541660405161290481610cf781613c21565b610b3560135492601454906015546016549060ff60175416926018549460405198899860ff808660081c169516938a613da6565b346103ab5761294636613bc1565b90600052600260205260018060a01b039061296982604060002054161515614dd9565b6101f49081810291818304149015171561093757600c5460408051939091166001600160a01b03168352612710909104602083015290f35b346103ab5760003660031901126103ab576020604051610ce48152f35b346103ab5760203660031901126103ab576001600160401b036004358181116103ab576129ef903690600401613b57565b612a1b7f0000000000000000000000000000000000000000000000000000000000000000421015615499565b612a2e612a2733613ed3565b15156154e5565b805115612f1f5760155460ff8116809181612f05575b60081c60ff1680612eed575b8215612ee5575b50158015612ede575b15612e9957600d5462278d008101809111610937574210612e545780612e49575b612d36575b612a8f33615526565b908115612cdf57612aa1600e5461458d565b600e55604051610120810181811085821117611266576040523381528160208201524260408201526000606082015260006080820152600060a0820152600060c0820152600060e082015282610100820152336001600160601b0360a01b6011541617601155815193841161126657612b1b601254613be7565b601f8111612ca2575b50602093601f8111600114612c0a579081610100927fe7890a17099f7377119f9bcc610136034f38d99a26a59ec393bd3f871d244c1f9596600091612bff575b508160011b916000199060031b1c1916176012555b604081015160135560608101516014556080810151151560155460ff61ff0060a0850151151560081b1692169061ffff1916171760155560c081015160165560e0810151151560ff801960175416911617601755015160185542600d55612beb60405191606083526060830190613a27565b9242602083015260408201528033930390a2005b905084015187612b64565b601260005260008051602061557a83398151915260005b601f1983168110612c8a5750816001917fe7890a17099f7377119f9bcc610136034f38d99a26a59ec393bd3f871d244c1f96976101009594601f19811610612c71575b5050811b01601255612b79565b86015160001960f88460031b161c191690558780612c64565b84870151825560209687019660019092019101612c21565b612cd990601260005260008051602061557a833981519152601f870160051c8101916020881061125c57601f0160051c0190614b5c565b84612b24565b60405162461bcd60e51b815260206004820152602960248201527f416c6c20796f757220746f6b656e73206172652062616e6e65642066726f6d2060448201526870726f706f73696e6760b81b6064820152608490fd5b60185480151580612e30575b612d8c575b7ff3a4daeb2d0c46baa4922d40b36bc79601cd7a23c37a5b3cf658bb36101b3bfa90604051809160408252612d7e60408301613c21565b9060208301520390a1612a86565b80600052601a6020526040600020600160ff19825416179055601b5490600160401b8210156112665780612e01612dea8460017ff3a4daeb2d0c46baa4922d40b36bc79601cd7a23c37a5b3cf658bb36101b3bfa9601601b55613e70565b819391549060031b91821b91600019901b19161790565b9055807f8fcebe7b587cb6a82a1b6b75d67f45402181b45ab78f2355219e4bccaf507937600080a29050612d47565b5080600052601a60205260ff6040600020541615612d42565b506018541515612a81565b60405162461bcd60e51b815260206004820152601860248201527f50726f706f73616c20636f6f6c646f776e2061637469766500000000000000006044820152606490fd5b60405162461bcd60e51b815260206004820152601b60248201527f4163746976652070726f706f73616c20696e2070726f677265737300000000006044820152606490fd5b5080612a60565b915084612a57565b506016546202a3008101809111610937574211612a50565b91506013546220f580810180911161093757421191612a44565b60405162461bcd60e51b81526020600482015260136024820152725552492063616e6e6f7420626520656d70747960681b6044820152606490fd5b346103ab57610dd1612f6b36613d71565b91613f0c565b346103ab5760003660031901126103ab57602061069561508d565b346103ab5760403660031901126103ab57612fa5613a4c565b60248035906001600160401b0382116103ab573660c48301116103ab576060604051612fd081613a93565b369037612fdb613ea7565b612fe3614498565b612ff36103e7602a5411156143ac565b602c546001600160a01b03939084161580156132ff575b613013906143fa565b61301f83600401614aa6565b9050151593846132b8575b6040519261303784613a93565b606036853760005b60ff8116600381101561306b57906130669161144961305f83428961509f565b9188614457565b61303f565b50509093858060a060405161307f81613aae565b8781524260208201526000604082015288871660608201526001608082015201528460005b600381106132a357505042602255602380546001600160b81b031916600886901b610100600160a81b03161760b083901b60ff60b01b1617600160a81b17905561318f575b50507f436cc48c6334b1dbe3160d3c717634aef61ee2db2f2065919b65b47d8d43d0336080606094336001600160601b0360a01b602c541617602c5542602d556040516131368187613d49565b42878201526001838201527fc904c26edfa19014321dad8ce50a657782d9f55cd41af2afd9737e4f2ec7630760a03392a2604051936131758587613d49565b42878601521692a26001600b556115246040518092613d49565b60005b600681106131a057506130e9565b6131ad8183600401614ada565b906001600160401b03821161328e576131d4826131cc85880154613be7565b858801614b73565b600090601f831160011461321c5761320c93929160009183613211575b50508160011b916000199060031b1c1916178185015561458d565b613192565b0135905089806131f1565b83860160005260206000209160005b601f1985168110613276575091839160019361320c9695601f1981161061325c575b505050811b018185015561458d565b0135600019600384901b60f8161c1916905589808061324d565b9092602060018192868601358155019401910161322b565b84634e487b7160e01b60005260416004526000fd5b6001906020835193019281601f0155016130a4565b60005b600681106132c9575061302a565b8061238b6132f26132ed6132e66132f7958a60049c9b9c01614ada565b3691613b20565b615157565b614b1c565b9493946132bb565b50602d54610ce4810180911161331657421161300a565b82634e487b7160e01b60005260116004526000fd5b346103ab5760203660031901126103ab5760043560005260306020526020604060002054604051908152f35b346103ab5761336536613bc1565b90600052601e60205260406000209060068110156103ab5761338691613bd7565b61239557610cf7610cfe610b359260405192838092613cb3565b346103ab5760203660031901126103ab5760043560005260196020526020604060002054600e5414604051908152f35b346103ab576133de36613b75565b906133e7613ea7565b6133ef614498565b600081815260026020526040902054613412906001600160a01b03161515614dd9565b61343461086f8360208151910120600052602f60205260ff6040600020541690565b80600052601d6020526108ac82604060002054836150fe565b346103ab5760003660031901126103ab576020604051620151808152f35b346103ab5760403660031901126103ab57613484613a4c565b6024356134908161418b565b3315158061353f575b80613512575b6134fa576001600160a01b039283169282918491167f8c5be1e5ebec7d5bd14f71427d1e84f3dd0314c0f7b2291e5b200ac8c7c3b925600080a4600090815260046020526040902080546001600160a01b0319169091179055005b60405163a9fbf51f60e01b8152336004820152602490fd5b5060018060a01b038116600052600560205260406000203360005260205260ff604060002054161561349f565b506001600160a01b038116331415613499565b346103ab5760203660031901126103ab5760043561356f8161418b565b506000526004602052602060018060a01b0360406000205416604051908152f35b346103ab5760603660031901126103ab576135a9613a4c565b602435906001600160401b0382116103ab573660c48301116103ab576135cd613ea7565b6135d5614498565b602a54906135e76103e78311156143ac565b6044351561381c57602c546001600160a01b0316158015613805575b61360c906143fa565b61361883600401614aa6565b809491506137d5575b42602b5561362e8361458d565b602a5560405161363d81613a78565b604435815260016020820142815285600052601c60205260406000209251835551910155836136c1575b5061092d81613697847f35a71fd4ad36d3b5f42a9819d12284ac3592b91d09f274e2ff1639a4418c1a02946147c2565b604080516044358152951515602087015242908601526001600160a01b0316939081906060820190565b60005b600681106136d25750613667565b6136df8183600401614ada565b85600052601e6020526136f6836040600020613bd7565b929092612395576001600160401b0382116112665761371f826137198554613be7565b85614b73565b600090601f831160011461376657613756949392916000918361375b575b50508160011b916000199060031b1c191617905561458d565b6136c4565b01359050898061373d565b8360005260206000209160005b601f19851681106137bd5750918391600193613756979695601f198116106137a3575b505050811b01905561458d565b0135600019600384901b60f8161c19169055898080613796565b90926020600181928686013581550194019101613773565b60005b600681106137e65750613621565b8061238b6132f26132ed6132e66138009587600401614ada565b6137d8565b50602d54610ce48101809111610937574211613603565b60405162461bcd60e51b815260206004820152603d60248201527f437573746f6d2073656564207265717569726564202d2075736520726571756560448201527f73744f776e65724d696e7420666f7220332d6f7074696f6e20666c6f770000006064820152608490fd5b346103ab5760003660031901126103ab5760206040516102ee8152f35b346103ab5760003660031901126103ab57604051600080546138c581613be7565b8084529060019081811690811561191f57506001146138ee57610b3584610cfe81860382613ae4565b600080805292507f290decd9548b62a8d60345a988386fc84ba6bc95484008f6362f93160ef3e5635b82841061392f575050508101602001610cfe826118b6565b80546020858701810191909152909301928101613917565b346103ab5760203660031901126103ab5760043563ffffffff60e01b81168091036103ab5760209063152a902d60e11b811490811561398c575b506040519015158152f35b63780e9d6360e01b8114915081156139a6575b5082613981565b6380ac58cd60e01b8114915081156139d8575b81156139c7575b508261399f565b6301ffc9a760e01b149050826139c0565b635b5e139f60e01b811491506139b9565b346103ab5760003660031901126103ab57602090602b548152f35b60005b838110613a175750506000910152565b8181015183820152602001613a07565b90602091613a4081518092818552858086019101613a04565b601f01601f1916010190565b600435906001600160a01b03821682036103ab57565b602435906001600160a01b03821682036103ab57565b604081019081106001600160401b0382111761126657604052565b606081019081106001600160401b0382111761126657604052565b60c081019081106001600160401b0382111761126657604052565b602081019081106001600160401b0382111761126657604052565b90601f801991011681019081106001600160401b0382111761126657604052565b6001600160401b03811161126657601f01601f191660200190565b929192613b2c82613b05565b91613b3a6040519384613ae4565b8294818452818301116103ab578281602093846000960137010152565b9080601f830112156103ab57816020613b7293359101613b20565b90565b9060406003198301126103ab5760043591602435906001600160401b0382116103ab57613b7291600401613b57565b346103ab5760003660031901126103ab5760206040516103e78152f35b60409060031901126103ab576004359060243590565b6006821015610f16570190600090565b90600182811c92168015613c17575b6020831014613c0157565b634e487b7160e01b600052602260045260246000fd5b91607f1691613bf6565b60125460009291613c3182613be7565b80825291600190818116908115613c965750600114613c4f57505050565b91929350601260005260008051602061557a833981519152916000925b848410613c7e57505060209250010190565b80546020858501810191909152909301928101613c6c565b915050602093945060ff929192191683830152151560051b010190565b9060009291805491613cc483613be7565b918282526001938481169081600014613d265750600114613ce6575b50505050565b90919394506000526020928360002092846000945b838610613d12575050505001019038808080613ce0565b805485870183015294019385908201613cfb565b9294505050602093945060ff191683830152151560051b01019038808080613ce0565b6000915b60038310613d5a57505050565b600190825181526020809101920192019190613d4d565b60609060031901126103ab576001600160a01b039060043582811681036103ab579160243590811681036103ab579060443590565b95929998979491613dd29061010098959260018060a01b031688526101208060208a0152880190613a27565b996040870152606086015215156080850152151560a084015260c0830152151560e08201520152565b8054821015610f16576000526003602060002091020190600090565b613e2f60409295949395606083526060830190613a27565b9460208201520152565b600854811015610f165760086000527ff3f7a9fe364faab93b216da50a3214154f22a0a2b415b23a84c8169e8b636ee30190600090565b601b54811015610f1657601b6000527f3ad8aa4f87544323a9d1e5dd902f40c356527a7955687113db5f9a85ad579dc10190600090565b600a546001600160a01b03163303613ebb57565b60405163118cdaa760e01b8152336004820152602490fd5b6001600160a01b03168015613ef357600052600360205260406000205490565b6040516322718ad960e21b815260006004820152602490fd5b6001600160a01b0382811693918415614172576000948386526020956002875260409684888320541696331515806140e4575b50871580156140b1575b84845260038352898420805460010190558784526002835289842080546001600160a01b0319168617905587858a7fddf252ad1be2c89b69c2b068fc378daa952ba7f163c4a11628f55a4df523b3ef8780a415614045576008548784526009835289842055613fb787614233565b838803613ff3575b505050501692838303613fd25750505050565b6064945051926364283d7b60e01b8452600484015260248301526044820152fd5b613ffc90613ed3565b6000198101939084116140315782916007918a9452600681528383208584528152878484205587835252205538808080613fbf565b634e487b7160e01b83526011600452602483fd5b878414613fb75761405588613ed3565b878452600783528984205490898552600684528a85209181810361408f575b5088855260078452848b812055845282528289812055613fb7565b8186528285528b862054818752808d8820558652600785528b86205538614074565b600088815260046020526040902080546001600160a01b0319169055888452600383528984208054600019019055613f49565b80614131575b156140f55738613f3f565b888789614112576024915190637e27328960e01b82526004820152fd5b905163177e802f60e01b81523360048201526024810191909152604490fd5b503388148015614156575b806140ea57508683526004825233868a85205416146140ea565b5087835260058252888320338452825260ff898420541661413c565b604051633250574960e11b815260006004820152602490fd5b6000818152600260205260409020546001600160a01b03169081156141ae575090565b60249060405190637e27328960e01b82526004820152fd5b6141cf81613ed3565b8210156141fb5760018060a01b0316600052600660205260406000209060005260205260406000205490565b60405163295f44f760e21b81526001600160a01b039190911660048201526024810191909152604490fd5b9190820391821161093757565b600854600160401b81101561126657612dea8160016142559301600855613e39565b9055565b3d15614284573d9061426a82613b05565b916142786040519384613ae4565b82523d6000602084013e565b606090565b9293823b614299575b5050505050565b6142dd9060018060a01b038094169560405194859481630a85bd0160e11b988988521660048701521660248501526044840152608060648401526084830190613a27565b03906020816000938185885af19082908261435d575b505061432b5782614302614259565b805191908261432457604051633250574960e11b815260048101839052602490fd5b6020915001fd5b6001600160e01b0319160361434557503880808080614292565b60249060405190633250574960e11b82526004820152fd5b909192506020813d82116143a4575b8161437960209383613ae4565b810103126143a05751906001600160e01b03198216820361439d57509038806142f3565b80fd5b5080fd5b3d915061436c565b156143b357565b60405162461bcd60e51b815260206004820152601260248201527113585e081cdd5c1c1b1e481c995858da195960721b6044820152606490fd5b9190820180921161093757565b1561440157565b60405162461bcd60e51b815260206004820152601a60248201527f4d696e742073656c656374696f6e20696e2070726f67726573730000000000006044820152606490fd5b60ff1660ff81146109375760010190565b906003811015610f165760051b0190565b90670de0b6b3a76400009182810292818404149015171561093757565b8181029291811591840414171561093757565b6002600b54146144a9576002600b55565b604051633ee5aeb560e01b8152600490fd5b80156144d5576ec097ce7bc90715b34b9f10000000000490565b634e487b7160e01b600052601260045260246000fd5b81156144d5570490565b601e81111561457657601819810190811161093757801561456a576103ce8082101561455b5767867d5927a64f80008083029283050361093757614539910561459c565b6615f4ad60b64000908082029182040361093757670de0b6b3a7640000900490565b505068056bc75e2d6310000090565b506615f4ad60b6400090565b50600090565b600160ff1b81146109375760000390565b60001981146109375760010190565b680755bf798b4a1bf1e5811215614635576000811261461b57670de0b6b3a764000090600190825b60148311156145d4575b50505090565b6145f36145e4836145fa93614485565b6145ed85614468565b906144eb565b80946143ed565b91606484106146135761460c9061458d565b91926145c4565b8293506145ce565b61462761462c9161457c565b61459c565b613b72906144bb565b60405162461bcd60e51b815260206004820152600c60248201526b657870206f766572666c6f7760a01b6044820152606490fd5b1561467057565b60405162461bcd60e51b8152602060048201526013602482015272496e76616c696420736565642063686f69636560681b6044820152606490fd5b156146b257565b60405162461bcd60e51b815260206004820152601860248201527f4e6f7420796f75722070656e64696e67207265717565737400000000000000006044820152606490fd5b156146fe57565b60405162461bcd60e51b8152602060048201526012602482015271139bc81c195b991a5b99c81c995c5d595cdd60721b6044820152606490fd5b1561473f57565b60405162461bcd60e51b815260206004820152601960248201527f5265717565737420616c726561647920636f6d706c65746564000000000000006044820152606490fd5b1561478b57565b60405162461bcd60e51b815260206004820152600f60248201526e14995c5d595cdd08195e1c1a5c9959608a1b6044820152606490fd5b60408051926147d084613ac9565b60008085526001600160a01b0394848616948515614a8e578383526020966002885285842054168681159182159283614a5b575b82875260038b528887208054600101905587875260028b5288872080546001600160a01b031916841790558783837fddf252ad1be2c89b69c2b068fc378daa952ba7f163c4a11628f55a4df523b3ef8a80a4156149ef5760085487875260098b528887205561487287614233565b036149a2575b61498a573b61488a575b505050505050565b856148c79185969798955180938192630a85bd0160e11b978884523360048501528760248501526044840152608060648401526084830190613a27565b0381858a5af190829082614946575b505061490e575050506148e7614259565b8051939084614908578251633250574960e11b815260048101859052602490fd5b84925001fd5b9194506001600160e01b03199091160361492f575050388080808080614882565b602492505190633250574960e11b82526004820152fd5b909192508781813d8311614983575b61495f8183613ae4565b810103126143a05751906001600160e01b03198216820361439d57509038806148d6565b503d614955565b84516339e3563760e11b815260048101849052602490fd5b6149ab82613ed3565b60001981019081116149db5787855260068952868520818652895285878620558585526007895286852055614878565b634e487b7160e01b85526011600452602485fd5b808214614872576149ff81613ed3565b87875260078b52888720549082885260068c5289882091818103614a39575b5088885260078c52878a81205587528a528588812055614872565b818952828d528a892054818a52808c8b2055895260078d528a89205538614a1e565b600088815260046020526040902080546001600160a01b031916905581875260038b528887208054600019019055614804565b8451633250574960e11b815260048101849052602490fd5b803590601e19813603018212156103ab5701908135916001600160401b0383116103ab5760200182360381136103ab579190565b906006811015610f165760051b81013590601e19813603018212156103ab5701908135916001600160401b0383116103ab5760200182360381136103ab579190565b15614b2357565b60405162461bcd60e51b815260206004820152601160248201527024b73b30b634b2103432bc1031b7b637b960791b6044820152606490fd5b818110614b67575050565b60008155600101614b5c565b9190601f8111614b8257505050565b614bad926000526020600020906020601f840160051c8301931061125c57601f0160051c0190614b5c565b565b90808214614c8957614bc18154613be7565b906001600160401b038211611266578190614be682614be08654613be7565b86614b73565b600090601f8311600114614c1d57600092614c12575b50508160011b916000199060031b1c1916179055565b015490503880614bfc565b81526020808220858352818320935090601f1985169083905b828210614c70575050908460019594939210614c57575b505050811b019055565b015460001960f88460031b161c19169055388080614c4d565b8495819295850154815560018091019601940190614c36565b5050565b15614c9457565b60405162461bcd60e51b8152602060048201526015602482015274496e76616c6964206d75746174696f6e207479706560581b6044820152606490fd5b908154600160401b81101561126657614cf1906001938482018155613dfb565b9290926123955781518051906001600160401b03821161126657614d1f82614d198754613be7565b87614b73565b602090601f8311600114614d6e5791806040949260029694600092614d63575b5050600019600383901b1c191690821b1785555b6020820151908501550151910155565b015190503880614d3f565b90601f1983169186600052816000209260005b818110614dc35750928593928592600298966040989510614daa575b505050811b018555614d53565b015160001960f88460031b161c19169055388080614d9d565b8284015185559386019360209384019301614d81565b15614de057565b60405162461bcd60e51b8152602060048201526014602482015273151bdad95b88191bd95cc81b9bdd08195e1a5cdd60621b6044820152606490fd5b600081815260026020526040812054909190614e42906001600160a01b03161515614dd9565b808252601c602052602060408320600160405191614e5f83613a78565b80548352015491829101526201518080420491048114614e9b578183526030602052604083205414614e9757613b7291504290614ea0565b5090565b505090565b906000918252601c602081815260409283852093805193614ec085613a78565b85548552836001809701549501948552602a5494868611614fe6575b614ee7905184615265565b614f8f5760648511614fbc575b6101f4808611614f99575b506102ee808611614f5b575b506103e7809511614f20575b50505050505090565b614f48948752835284818720915191614f3883613a78565b8054835201549283910152615265565b614f56578080808080614f17565b905090565b8752808452614f858483892088855191614f7483613a78565b805483520154918291015284615265565b614f8f5738614f0b565b5050505050905090565b8752808452614fb28483892088855191614f7483613a78565b614f8f5738614eff565b60648752808452614fd78483892088855191614f7483613a78565b15614ef4575050505050905090565b86885281855261501185848a208986519161500083613a78565b805483520154918291015285615265565b15614edc57505050505050905090565b6001600160401b0381116112665760051b60200190565b602c546001600160a01b031680151580615075575b61505d5750600090600090600090565b90602d5490610ce48201809211610937576001929190565b50602d54610ce481018091116109375742111561504d565b602a5460001981019081116109375790565b91602a546040519260208401946001600160601b03199060601b1685526034840152446054840152607483015260ff60f81b9060f81b1660948201526075815260a081018181106001600160401b038211176112665760405251902090565b919060b461515191604051938491602083019687523360601b60408401526054830152615135815180926020607486019101613a04565b8101426074820152446094820152036094810184520182613ae4565b51902090565b80519060079182810361525d5715610f16576020818101516001600160f81b03199290831660dd60f81b016152545760015b84811061519a575050505050600190565b815181101561523f578383828401015116600360fc1b8110159081615230575b811561520c575b81156151e6575b50156151dc576151d79061458d565b615189565b5050505050600090565b604160f81b8110159150816151fd575b50386151c8565b602360f91b10159050386151f6565b9050606160f81b81101580615222575b906151c1565b50603360f91b81111561521c565b603960f81b81111591506151ba565b60246000634e487b7160e01b81526032600452fd5b50505050600090565b505050600090565b6152716152779161529c565b9161529c565b6020820151602082015114918261528d57505090565b60409192508101519101511490565b906201518060409283516152af81613a93565b60009481868093528260208201520152046107b2905b6152ce82615394565b156153895761ffff61016e5b16908181106152fc576152f6916152f091614226565b9161458d565b906152c5565b9293919260019150829082905b600c841115615332575b5050506040519261532384613a93565b83526020830152604082015290565b61533f86859394956153bd565b9081811061535c57615354916152f091614226565b929190615309565b9392919450508201809211615375575090388080615313565b634e487b7160e01b81526011600452602490fd5b61ffff61016d6152da565b6003811661457657606481066153b75761019090066153b257600190565b600090565b50600190565b60018114801561548f575b8015615485575b801561547b575b8015615471575b8015615467575b801561545d575b6154565760048114801561544c575b8015615442575b8015615438575b615431576002146154195750600090565b61542290615394565b1561542c57601d90565b601c90565b5050601e90565b50600b8114615408565b5060098114615401565b50600681146153fa565b5050601f90565b50600c81146153eb565b50600a81146153e4565b50600881146153dd565b50600781146153d6565b50600581146153cf565b50600381146153c8565b156154a057565b60405162461bcd60e51b815260206004820152601960248201527f476f7665726e616e6365206e6f742061637469766520796574000000000000006044820152606490fd5b156154ec57565b60405162461bcd60e51b815260206004820152601260248201527126bab9ba1037bbb710309029b830ba3a32b960711b6044820152606490fd5b61552f81613ed3565b9060005b82811061554257505050600090565b61554c81836141c6565b80600052601a60205260ff6040600020541615615572575061556d9061458d565b615533565b925050509056febb8a6a4669ba250d26cd7a459eca9d215f8307e33aebe50379bc5a3617ec34448d1108e10bcb7c27dddfc02ed9d693a074039d026cf4ea4240b40f7d581ac802a2646970667358221220dbd967831a21dc28649d989e913928c2e0d032b2443b6f4a68240b699738ae5f64736f6c63430008140033",
  "linkReferences": {},
  "deployedLinkReferences": {}
}