{
  "_format": "hh-sol-artifact-1",
  "contractName": "Spatters",
  "sourceName": "contracts/Spatters.sol",
  "abi": [
    {
      "inputs": [],
      "stateMutability": "nonpayable",
      "type": "constructor"
    },
    {
      "inputs": [],
      "name": "ERC721EnumerableForbiddenBatchMint",
      "type": "error"
    },
    {
      "inputs": [
        {
          "internalType": "address",
          "name": "sender",
          "type": "address"
        },
        {
          "internalType": "uint256",
          "name": "tokenId",
          "type": "uint256"
        },
        {
          "internalType": "address",
          "name": "owner",
          "type": "address"
        }
      ],
      "name": "ERC721IncorrectOwner",
      "type": "error"
    },
    {
      "inputs": [
        {
          "internalType": "address",
          "name": "operator",
          "type": "address"
        },
        {
          "internalType": "uint256",
          "name": "tokenId",
          "type": "uint256"
        }
      ],
      "name": "ERC721InsufficientApproval",
      "type": "error"
    },
    {
      "inputs": [
        {
          "internalType": "address",
          "name": "approver",
          "type": "address"
        }
      ],
      "name": "ERC721InvalidApprover",
      "type": "error"
    },
    {
      "inputs": [
        {
          "internalType": "address",
          "name": "operator",
          "type": "address"
        }
      ],
      "name": "ERC721InvalidOperator",
      "type": "error"
    },
    {
      "inputs": [
        {
          "internalType": "address",
          "name": "owner",
          "type": "address"
        }
      ],
      "name": "ERC721InvalidOwner",
      "type": "error"
    },
    {
      "inputs": [
        {
          "internalType": "address",
          "name": "receiver",
          "type": "address"
        }
      ],
      "name": "ERC721InvalidReceiver",
      "type": "error"
    },
    {
      "inputs": [
        {
          "internalType": "address",
          "name": "sender",
          "type": "address"
        }
      ],
      "name": "ERC721InvalidSender",
      "type": "error"
    },
    {
      "inputs": [
        {
          "internalType": "uint256",
          "name": "tokenId",
          "type": "uint256"
        }
      ],
      "name": "ERC721NonexistentToken",
      "type": "error"
    },
    {
      "inputs": [
        {
          "internalType": "address",
          "name": "owner",
          "type": "address"
        },
        {
          "internalType": "uint256",
          "name": "index",
          "type": "uint256"
        }
      ],
      "name": "ERC721OutOfBoundsIndex",
      "type": "error"
    },
    {
      "inputs": [
        {
          "internalType": "address",
          "name": "owner",
          "type": "address"
        }
      ],
      "name": "OwnableInvalidOwner",
      "type": "error"
    },
    {
      "inputs": [
        {
          "internalType": "address",
          "name": "account",
          "type": "address"
        }
      ],
      "name": "OwnableUnauthorizedAccount",
      "type": "error"
    },
    {
      "inputs": [],
      "name": "ReentrancyGuardReentrantCall",
      "type": "error"
    },
    {
      "anonymous": false,
      "inputs": [
        {
          "indexed": false,
          "internalType": "uint256",
          "name": "newBanGeneration",
          "type": "uint256"
        }
      ],
      "name": "AllProposalBansCleared",
      "type": "event"
    },
    {
      "anonymous": false,
      "inputs": [
        {
          "indexed": true,
          "internalType": "address",
          "name": "owner",
          "type": "address"
        },
        {
          "indexed": true,
          "internalType": "address",
          "name": "approved",
          "type": "address"
        },
        {
          "indexed": true,
          "internalType": "uint256",
          "name": "tokenId",
          "type": "uint256"
        }
      ],
      "name": "Approval",
      "type": "event"
    },
    {
      "anonymous": false,
      "inputs": [
        {
          "indexed": true,
          "internalType": "address",
          "name": "owner",
          "type": "address"
        },
        {
          "indexed": true,
          "internalType": "address",
          "name": "operator",
          "type": "address"
        },
        {
          "indexed": false,
          "internalType": "bool",
          "name": "approved",
          "type": "bool"
        }
      ],
      "name": "ApprovalForAll",
      "type": "event"
    },
    {
      "anonymous": false,
      "inputs": [
        {
          "indexed": false,
          "internalType": "string",
          "name": "newURI",
          "type": "string"
        }
      ],
      "name": "BaseURIUpdatedByCommunity",
      "type": "event"
    },
    {
      "anonymous": false,
      "inputs": [
        {
          "indexed": false,
          "internalType": "string",
          "name": "newURI",
          "type": "string"
        }
      ],
      "name": "BaseURIUpdatedByOwner",
      "type": "event"
    },
    {
      "anonymous": false,
      "inputs": [
        {
          "indexed": true,
          "internalType": "address",
          "name": "oldGenerator",
          "type": "address"
        },
        {
          "indexed": true,
          "internalType": "address",
          "name": "newGenerator",
          "type": "address"
        }
      ],
      "name": "GeneratorContractUpdated",
      "type": "event"
    },
    {
      "anonymous": false,
      "inputs": [
        {
          "indexed": true,
          "internalType": "address",
          "name": "lockedGenerator",
          "type": "address"
        }
      ],
      "name": "GeneratorPermanentlyLocked",
      "type": "event"
    },
    {
      "anonymous": false,
      "inputs": [
        {
          "indexed": true,
          "internalType": "address",
          "name": "requester",
          "type": "address"
        },
        {
          "indexed": false,
          "internalType": "bytes32[3]",
          "name": "seeds",
          "type": "bytes32[3]"
        },
        {
          "indexed": false,
          "internalType": "uint256",
          "name": "timestamp",
          "type": "uint256"
        },
        {
          "indexed": false,
          "internalType": "bool",
          "name": "isOwnerMint",
          "type": "bool"
        }
      ],
      "name": "MintRequested",
      "type": "event"
    },
    {
      "anonymous": false,
      "inputs": [
        {
          "indexed": true,
          "internalType": "uint256",
          "name": "tokenId",
          "type": "uint256"
        },
        {
          "indexed": true,
          "internalType": "address",
          "name": "minter",
          "type": "address"
        },
        {
          "indexed": false,
          "internalType": "bytes32",
          "name": "seed",
          "type": "bytes32"
        },
        {
          "indexed": false,
          "internalType": "bool",
          "name": "hasCustomPalette",
          "type": "bool"
        },
        {
          "indexed": false,
          "internalType": "uint256",
          "name": "timestamp",
          "type": "uint256"
        }
      ],
      "name": "Minted",
      "type": "event"
    },
    {
      "anonymous": false,
      "inputs": [
        {
          "indexed": true,
          "internalType": "uint256",
          "name": "tokenId",
          "type": "uint256"
        },
        {
          "indexed": true,
          "internalType": "uint256",
          "name": "mutationIndex",
          "type": "uint256"
        },
        {
          "indexed": false,
          "internalType": "string",
          "name": "mutationType",
          "type": "string"
        },
        {
          "indexed": false,
          "internalType": "bytes32",
          "name": "seed",
          "type": "bytes32"
        },
        {
          "indexed": false,
          "internalType": "uint256",
          "name": "timestamp",
          "type": "uint256"
        }
      ],
      "name": "Mutated",
      "type": "event"
    },
    {
      "anonymous": false,
      "inputs": [
        {
          "indexed": true,
          "internalType": "address",
          "name": "previousOwner",
          "type": "address"
        },
        {
          "indexed": true,
          "internalType": "address",
          "name": "newOwner",
          "type": "address"
        }
      ],
      "name": "OwnershipTransferred",
      "type": "event"
    },
    {
      "anonymous": false,
      "inputs": [
        {
          "indexed": true,
          "internalType": "address",
          "name": "proposer",
          "type": "address"
        },
        {
          "indexed": false,
          "internalType": "string",
          "name": "proposedURI",
          "type": "string"
        },
        {
          "indexed": false,
          "internalType": "uint256",
          "name": "timestamp",
          "type": "uint256"
        },
        {
          "indexed": false,
          "internalType": "uint256",
          "name": "proposerTokenId",
          "type": "uint256"
        }
      ],
      "name": "ProposalCreated",
      "type": "event"
    },
    {
      "anonymous": false,
      "inputs": [
        {
          "indexed": false,
          "internalType": "string",
          "name": "proposedURI",
          "type": "string"
        },
        {
          "indexed": false,
          "internalType": "uint256",
          "name": "proposerTokenId",
          "type": "uint256"
        }
      ],
      "name": "ProposalExpired",
      "type": "event"
    },
    {
      "anonymous": false,
      "inputs": [
        {
          "indexed": false,
          "internalType": "string",
          "name": "lockedURI",
          "type": "string"
        }
      ],
      "name": "ProposalLocked",
      "type": "event"
    },
    {
      "anonymous": false,
      "inputs": [
        {
          "indexed": false,
          "internalType": "string",
          "name": "proposedURI",
          "type": "string"
        },
        {
          "indexed": false,
          "internalType": "uint256",
          "name": "timestamp",
          "type": "uint256"
        }
      ],
      "name": "ProposalThresholdReached",
      "type": "event"
    },
    {
      "anonymous": false,
      "inputs": [
        {
          "indexed": true,
          "internalType": "address",
          "name": "newReceiver",
          "type": "address"
        }
      ],
      "name": "RoyaltyReceiverUpdated",
      "type": "event"
    },
    {
      "anonymous": false,
      "inputs": [
        {
          "indexed": true,
          "internalType": "uint256",
          "name": "tokenId",
          "type": "uint256"
        }
      ],
      "name": "TokenBannedFromProposing",
      "type": "event"
    },
    {
      "anonymous": false,
      "inputs": [
        {
          "indexed": true,
          "internalType": "address",
          "name": "from",
          "type": "address"
        },
        {
          "indexed": true,
          "internalType": "address",
          "name": "to",
          "type": "address"
        },
        {
          "indexed": true,
          "internalType": "uint256",
          "name": "tokenId",
          "type": "uint256"
        }
      ],
      "name": "Transfer",
      "type": "event"
    },
    {
      "anonymous": false,
      "inputs": [
        {
          "indexed": true,
          "internalType": "address",
          "name": "voter",
          "type": "address"
        },
        {
          "indexed": false,
          "internalType": "uint256",
          "name": "tokenCount",
          "type": "uint256"
        }
      ],
      "name": "VoteCast",
      "type": "event"
    },
    {
      "inputs": [],
      "name": "CONFIRMATION_WINDOW",
      "outputs": [
        {
          "internalType": "uint256",
          "name": "",
          "type": "uint256"
        }
      ],
      "stateMutability": "view",
      "type": "function"
    },
    {
      "inputs": [],
      "name": "GLOBAL_COOLDOWN",
      "outputs": [
        {
          "internalType": "uint256",
          "name": "",
          "type": "uint256"
        }
      ],
      "stateMutability": "view",
      "type": "function"
    },
    {
      "inputs": [],
      "name": "GOVERNANCE_DELAY",
      "outputs": [
        {
          "internalType": "uint256",
          "name": "",
          "type": "uint256"
        }
      ],
      "stateMutability": "view",
      "type": "function"
    },
    {
      "inputs": [],
      "name": "MAX_SUPPLY",
      "outputs": [
        {
          "internalType": "uint256",
          "name": "",
          "type": "uint256"
        }
      ],
      "stateMutability": "view",
      "type": "function"
    },
    {
      "inputs": [],
      "name": "MILESTONE_100",
      "outputs": [
        {
          "internalType": "uint256",
          "name": "",
          "type": "uint256"
        }
      ],
      "stateMutability": "view",
      "type": "function"
    },
    {
      "inputs": [],
      "name": "MILESTONE_500",
      "outputs": [
        {
          "internalType": "uint256",
          "name": "",
          "type": "uint256"
        }
      ],
      "stateMutability": "view",
      "type": "function"
    },
    {
      "inputs": [],
      "name": "MILESTONE_750",
      "outputs": [
        {
          "internalType": "uint256",
          "name": "",
          "type": "uint256"
        }
      ],
      "stateMutability": "view",
      "type": "function"
    },
    {
      "inputs": [],
      "name": "MILESTONE_999",
      "outputs": [
        {
          "internalType": "uint256",
          "name": "",
          "type": "uint256"
        }
      ],
      "stateMutability": "view",
      "type": "function"
    },
    {
      "inputs": [],
      "name": "OWNER_RESERVE",
      "outputs": [
        {
          "internalType": "uint256",
          "name": "",
          "type": "uint256"
        }
      ],
      "stateMutability": "view",
      "type": "function"
    },
    {
      "inputs": [],
      "name": "PROPOSAL_COOLDOWN",
      "outputs": [
        {
          "internalType": "uint256",
          "name": "",
          "type": "uint256"
        }
      ],
      "stateMutability": "view",
      "type": "function"
    },
    {
      "inputs": [],
      "name": "REQUEST_EXPIRATION",
      "outputs": [
        {
          "internalType": "uint256",
          "name": "",
          "type": "uint256"
        }
      ],
      "stateMutability": "view",
      "type": "function"
    },
    {
      "inputs": [],
      "name": "ROYALTY_BPS",
      "outputs": [
        {
          "internalType": "uint96",
          "name": "",
          "type": "uint96"
        }
      ],
      "stateMutability": "view",
      "type": "function"
    },
    {
      "inputs": [],
      "name": "VOTING_PERIOD",
      "outputs": [
        {
          "internalType": "uint256",
          "name": "",
          "type": "uint256"
        }
      ],
      "stateMutability": "view",
      "type": "function"
    },
    {
      "inputs": [],
      "name": "activeMintRequestTime",
      "outputs": [
        {
          "internalType": "uint256",
          "name": "",
          "type": "uint256"
        }
      ],
      "stateMutability": "view",
      "type": "function"
    },
    {
      "inputs": [],
      "name": "activeMintRequester",
      "outputs": [
        {
          "internalType": "address",
          "name": "",
          "type": "address"
        }
      ],
      "stateMutability": "view",
      "type": "function"
    },
    {
      "inputs": [
        {
          "internalType": "uint256",
          "name": "",
          "type": "uint256"
        }
      ],
      "name": "allowedMutations",
      "outputs": [
        {
          "internalType": "string",
          "name": "",
          "type": "string"
        }
      ],
      "stateMutability": "view",
      "type": "function"
    },
    {
      "inputs": [
        {
          "internalType": "address",
          "name": "to",
          "type": "address"
        },
        {
          "internalType": "uint256",
          "name": "tokenId",
          "type": "uint256"
        }
      ],
      "name": "approve",
      "outputs": [],
      "stateMutability": "nonpayable",
      "type": "function"
    },
    {
      "inputs": [],
      "name": "approveProposal",
      "outputs": [],
      "stateMutability": "nonpayable",
      "type": "function"
    },
    {
      "inputs": [
        {
          "internalType": "address",
          "name": "owner",
          "type": "address"
        }
      ],
      "name": "balanceOf",
      "outputs": [
        {
          "internalType": "uint256",
          "name": "",
          "type": "uint256"
        }
      ],
      "stateMutability": "view",
      "type": "function"
    },
    {
      "inputs": [],
      "name": "banGeneration",
      "outputs": [
        {
          "internalType": "uint256",
          "name": "",
          "type": "uint256"
        }
      ],
      "stateMutability": "view",
      "type": "function"
    },
    {
      "inputs": [],
      "name": "baseURI",
      "outputs": [
        {
          "internalType": "string",
          "name": "",
          "type": "string"
        }
      ],
      "stateMutability": "view",
      "type": "function"
    },
    {
      "inputs": [
        {
          "internalType": "uint256",
          "name": "tokenId",
          "type": "uint256"
        }
      ],
      "name": "canMutate",
      "outputs": [
        {
          "internalType": "bool",
          "name": "",
          "type": "bool"
        }
      ],
      "stateMutability": "view",
      "type": "function"
    },
    {
      "inputs": [
        {
          "internalType": "uint8",
          "name": "seedChoice",
          "type": "uint8"
        }
      ],
      "name": "completeMint",
      "outputs": [],
      "stateMutability": "nonpayable",
      "type": "function"
    },
    {
      "inputs": [
        {
          "internalType": "uint8",
          "name": "seedChoice",
          "type": "uint8"
        }
      ],
      "name": "completeOwnerMint",
      "outputs": [],
      "stateMutability": "nonpayable",
      "type": "function"
    },
    {
      "inputs": [],
      "name": "confirmProposal",
      "outputs": [],
      "stateMutability": "nonpayable",
      "type": "function"
    },
    {
      "inputs": [],
      "name": "currentProposal",
      "outputs": [
        {
          "internalType": "address",
          "name": "proposer",
          "type": "address"
        },
        {
          "internalType": "string",
          "name": "proposedBaseURI",
          "type": "string"
        },
        {
          "internalType": "uint256",
          "name": "proposalTime",
          "type": "uint256"
        },
        {
          "internalType": "uint256",
          "name": "totalVotesWeight",
          "type": "uint256"
        },
        {
          "internalType": "bool",
          "name": "locked",
          "type": "bool"
        },
        {
          "internalType": "bool",
          "name": "thresholdReached",
          "type": "bool"
        },
        {
          "internalType": "uint256",
          "name": "thresholdReachedTime",
          "type": "uint256"
        },
        {
          "internalType": "bool",
          "name": "executed",
          "type": "bool"
        },
        {
          "internalType": "uint256",
          "name": "proposerTokenId",
          "type": "uint256"
        }
      ],
      "stateMutability": "view",
      "type": "function"
    },
    {
      "inputs": [
        {
          "internalType": "uint256",
          "name": "",
          "type": "uint256"
        },
        {
          "internalType": "uint256",
          "name": "",
          "type": "uint256"
        }
      ],
      "name": "customPalettes",
      "outputs": [
        {
          "internalType": "string",
          "name": "",
          "type": "string"
        }
      ],
      "stateMutability": "view",
      "type": "function"
    },
    {
      "inputs": [],
      "name": "deploymentTime",
      "outputs": [
        {
          "internalType": "uint256",
          "name": "",
          "type": "uint256"
        }
      ],
      "stateMutability": "view",
      "type": "function"
    },
    {
      "inputs": [],
      "name": "generatorContract",
      "outputs": [
        {
          "internalType": "address",
          "name": "",
          "type": "address"
        }
      ],
      "stateMutability": "view",
      "type": "function"
    },
    {
      "inputs": [],
      "name": "generatorLocked",
      "outputs": [
        {
          "internalType": "bool",
          "name": "",
          "type": "bool"
        }
      ],
      "stateMutability": "view",
      "type": "function"
    },
    {
      "inputs": [],
      "name": "getAllowedMutations",
      "outputs": [
        {
          "internalType": "string[]",
          "name": "",
          "type": "string[]"
        }
      ],
      "stateMutability": "view",
      "type": "function"
    },
    {
      "inputs": [
        {
          "internalType": "uint256",
          "name": "tokenId",
          "type": "uint256"
        }
      ],
      "name": "getApproved",
      "outputs": [
        {
          "internalType": "address",
          "name": "",
          "type": "address"
        }
      ],
      "stateMutability": "view",
      "type": "function"
    },
    {
      "inputs": [],
      "name": "getCurrentPrice",
      "outputs": [
        {
          "internalType": "uint256",
          "name": "",
          "type": "uint256"
        }
      ],
      "stateMutability": "view",
      "type": "function"
    },
    {
      "inputs": [],
      "name": "getCurrentProposal",
      "outputs": [
        {
          "internalType": "address",
          "name": "proposer",
          "type": "address"
        },
        {
          "internalType": "string",
          "name": "proposedURI",
          "type": "string"
        },
        {
          "internalType": "uint256",
          "name": "proposalTime",
          "type": "uint256"
        },
        {
          "internalType": "uint256",
          "name": "totalVotes",
          "type": "uint256"
        },
        {
          "internalType": "bool",
          "name": "locked",
          "type": "bool"
        },
        {
          "internalType": "bool",
          "name": "thresholdReached",
          "type": "bool"
        },
        {
          "internalType": "uint256",
          "name": "thresholdTime",
          "type": "uint256"
        },
        {
          "internalType": "bool",
          "name": "executed",
          "type": "bool"
        },
        {
          "internalType": "uint256",
          "name": "proposerTokenId",
          "type": "uint256"
        }
      ],
      "stateMutability": "view",
      "type": "function"
    },
    {
      "inputs": [
        {
          "internalType": "uint256",
          "name": "tokenId",
          "type": "uint256"
        }
      ],
      "name": "getCustomPalette",
      "outputs": [
        {
          "internalType": "string[6]",
          "name": "",
          "type": "string[6]"
        }
      ],
      "stateMutability": "view",
      "type": "function"
    },
    {
      "inputs": [],
      "name": "getPendingRequest",
      "outputs": [
        {
          "components": [
            {
              "internalType": "bytes32[3]",
              "name": "seeds",
              "type": "bytes32[3]"
            },
            {
              "internalType": "uint256",
              "name": "timestamp",
              "type": "uint256"
            },
            {
              "internalType": "bool",
              "name": "completed",
              "type": "bool"
            },
            {
              "internalType": "address",
              "name": "recipient",
              "type": "address"
            },
            {
              "internalType": "bool",
              "name": "isOwnerMint",
              "type": "bool"
            },
            {
              "internalType": "bool",
              "name": "hasCustomPalette",
              "type": "bool"
            }
          ],
          "internalType": "struct Spatters.MintRequest",
          "name": "",
          "type": "tuple"
        }
      ],
      "stateMutability": "view",
      "type": "function"
    },
    {
      "inputs": [
        {
          "internalType": "uint256",
          "name": "tokenId",
          "type": "uint256"
        }
      ],
      "name": "getTokenMutations",
      "outputs": [
        {
          "components": [
            {
              "internalType": "string",
              "name": "mutationType",
              "type": "string"
            },
            {
              "internalType": "bytes32",
              "name": "seed",
              "type": "bytes32"
            },
            {
              "internalType": "uint256",
              "name": "timestamp",
              "type": "uint256"
            }
          ],
          "internalType": "struct Spatters.MutationRecord[]",
          "name": "",
          "type": "tuple[]"
        }
      ],
      "stateMutability": "view",
      "type": "function"
    },
    {
      "inputs": [
        {
          "internalType": "uint256",
          "name": "tokenId",
          "type": "uint256"
        }
      ],
      "name": "hasTokenVoted",
      "outputs": [
        {
          "internalType": "bool",
          "name": "",
          "type": "bool"
        }
      ],
      "stateMutability": "view",
      "type": "function"
    },
    {
      "inputs": [
        {
          "internalType": "address",
          "name": "owner",
          "type": "address"
        },
        {
          "internalType": "address",
          "name": "operator",
          "type": "address"
        }
      ],
      "name": "isApprovedForAll",
      "outputs": [
        {
          "internalType": "bool",
          "name": "",
          "type": "bool"
        }
      ],
      "stateMutability": "view",
      "type": "function"
    },
    {
      "inputs": [],
      "name": "isMintSelectionInProgress",
      "outputs": [
        {
          "internalType": "bool",
          "name": "active",
          "type": "bool"
        },
        {
          "internalType": "address",
          "name": "requester",
          "type": "address"
        },
        {
          "internalType": "uint256",
          "name": "expiresAt",
          "type": "uint256"
        }
      ],
      "stateMutability": "view",
      "type": "function"
    },
    {
      "inputs": [
        {
          "internalType": "uint256",
          "name": "tokenId",
          "type": "uint256"
        }
      ],
      "name": "isTokenBanned",
      "outputs": [
        {
          "internalType": "bool",
          "name": "",
          "type": "bool"
        }
      ],
      "stateMutability": "view",
      "type": "function"
    },
    {
      "inputs": [],
      "name": "lastGlobalMintTime",
      "outputs": [
        {
          "internalType": "uint256",
          "name": "",
          "type": "uint256"
        }
      ],
      "stateMutability": "view",
      "type": "function"
    },
    {
      "inputs": [
        {
          "internalType": "uint256",
          "name": "",
          "type": "uint256"
        }
      ],
      "name": "lastMutationDay",
      "outputs": [
        {
          "internalType": "uint256",
          "name": "",
          "type": "uint256"
        }
      ],
      "stateMutability": "view",
      "type": "function"
    },
    {
      "inputs": [],
      "name": "lastProposalTime",
      "outputs": [
        {
          "internalType": "uint256",
          "name": "",
          "type": "uint256"
        }
      ],
      "stateMutability": "view",
      "type": "function"
    },
    {
      "inputs": [],
      "name": "lockGenerator",
      "outputs": [],
      "stateMutability": "nonpayable",
      "type": "function"
    },
    {
      "inputs": [
        {
          "internalType": "uint256",
          "name": "tokenId",
          "type": "uint256"
        },
        {
          "internalType": "string",
          "name": "mutationType",
          "type": "string"
        }
      ],
      "name": "mutate",
      "outputs": [],
      "stateMutability": "nonpayable",
      "type": "function"
    },
    {
      "inputs": [],
      "name": "name",
      "outputs": [
        {
          "internalType": "string",
          "name": "",
          "type": "string"
        }
      ],
      "stateMutability": "view",
      "type": "function"
    },
    {
      "inputs": [],
      "name": "owner",
      "outputs": [
        {
          "internalType": "address",
          "name": "",
          "type": "address"
        }
      ],
      "stateMutability": "view",
      "type": "function"
    },
    {
      "inputs": [
        {
          "internalType": "string[6]",
          "name": "customPalette",
          "type": "string[6]"
        },
        {
          "internalType": "bytes32",
          "name": "customSeed",
          "type": "bytes32"
        }
      ],
      "name": "ownerMint",
      "outputs": [],
      "stateMutability": "nonpayable",
      "type": "function"
    },
    {
      "inputs": [
        {
          "internalType": "uint256",
          "name": "tokenId",
          "type": "uint256"
        },
        {
          "internalType": "string",
          "name": "mutationType",
          "type": "string"
        }
      ],
      "name": "ownerMutate",
      "outputs": [],
      "stateMutability": "nonpayable",
      "type": "function"
    },
    {
      "inputs": [
        {
          "internalType": "uint256",
          "name": "tokenId",
          "type": "uint256"
        }
      ],
      "name": "ownerOf",
      "outputs": [
        {
          "internalType": "address",
          "name": "",
          "type": "address"
        }
      ],
      "stateMutability": "view",
      "type": "function"
    },
    {
      "inputs": [
        {
          "internalType": "uint256",
          "name": "",
          "type": "uint256"
        }
      ],
      "name": "pendingPalette",
      "outputs": [
        {
          "internalType": "string",
          "name": "",
          "type": "string"
        }
      ],
      "stateMutability": "view",
      "type": "function"
    },
    {
      "inputs": [],
      "name": "pendingRequest",
      "outputs": [
        {
          "internalType": "uint256",
          "name": "timestamp",
          "type": "uint256"
        },
        {
          "internalType": "bool",
          "name": "completed",
          "type": "bool"
        },
        {
          "internalType": "address",
          "name": "recipient",
          "type": "address"
        },
        {
          "internalType": "bool",
          "name": "isOwnerMint",
          "type": "bool"
        },
        {
          "internalType": "bool",
          "name": "hasCustomPalette",
          "type": "bool"
        }
      ],
      "stateMutability": "view",
      "type": "function"
    },
    {
      "inputs": [],
      "name": "proposalGeneration",
      "outputs": [
        {
          "internalType": "uint256",
          "name": "",
          "type": "uint256"
        }
      ],
      "stateMutability": "view",
      "type": "function"
    },
    {
      "inputs": [
        {
          "internalType": "string",
          "name": "newURI",
          "type": "string"
        }
      ],
      "name": "proposeBaseURI",
      "outputs": [],
      "stateMutability": "nonpayable",
      "type": "function"
    },
    {
      "inputs": [],
      "name": "renounceOwnership",
      "outputs": [],
      "stateMutability": "nonpayable",
      "type": "function"
    },
    {
      "inputs": [],
      "name": "requestMint",
      "outputs": [
        {
          "internalType": "bytes32[3]",
          "name": "",
          "type": "bytes32[3]"
        }
      ],
      "stateMutability": "payable",
      "type": "function"
    },
    {
      "inputs": [
        {
          "internalType": "string[6]",
          "name": "customPalette",
          "type": "string[6]"
        }
      ],
      "name": "requestOwnerMint",
      "outputs": [
        {
          "internalType": "bytes32[3]",
          "name": "",
          "type": "bytes32[3]"
        }
      ],
      "stateMutability": "nonpayable",
      "type": "function"
    },
    {
      "inputs": [
        {
          "internalType": "uint256",
          "name": "tokenId",
          "type": "uint256"
        },
        {
          "internalType": "uint256",
          "name": "salePrice",
          "type": "uint256"
        }
      ],
      "name": "royaltyInfo",
      "outputs": [
        {
          "internalType": "address",
          "name": "receiver",
          "type": "address"
        },
        {
          "internalType": "uint256",
          "name": "royaltyAmount",
          "type": "uint256"
        }
      ],
      "stateMutability": "view",
      "type": "function"
    },
    {
      "inputs": [],
      "name": "royaltyReceiver",
      "outputs": [
        {
          "internalType": "address",
          "name": "",
          "type": "address"
        }
      ],
      "stateMutability": "view",
      "type": "function"
    },
    {
      "inputs": [
        {
          "internalType": "address",
          "name": "from",
          "type": "address"
        },
        {
          "internalType": "address",
          "name": "to",
          "type": "address"
        },
        {
          "internalType": "uint256",
          "name": "tokenId",
          "type": "uint256"
        }
      ],
      "name": "safeTransferFrom",
      "outputs": [],
      "stateMutability": "nonpayable",
      "type": "function"
    },
    {
      "inputs": [
        {
          "internalType": "address",
          "name": "from",
          "type": "address"
        },
        {
          "internalType": "address",
          "name": "to",
          "type": "address"
        },
        {
          "internalType": "uint256",
          "name": "tokenId",
          "type": "uint256"
        },
        {
          "internalType": "bytes",
          "name": "data",
          "type": "bytes"
        }
      ],
      "name": "safeTransferFrom",
      "outputs": [],
      "stateMutability": "nonpayable",
      "type": "function"
    },
    {
      "inputs": [
        {
          "internalType": "address",
          "name": "operator",
          "type": "address"
        },
        {
          "internalType": "bool",
          "name": "approved",
          "type": "bool"
        }
      ],
      "name": "setApprovalForAll",
      "outputs": [],
      "stateMutability": "nonpayable",
      "type": "function"
    },
    {
      "inputs": [
        {
          "internalType": "string",
          "name": "newURI",
          "type": "string"
        }
      ],
      "name": "setBaseURI",
      "outputs": [],
      "stateMutability": "nonpayable",
      "type": "function"
    },
    {
      "inputs": [
        {
          "internalType": "address",
          "name": "_generator",
          "type": "address"
        }
      ],
      "name": "setGeneratorContract",
      "outputs": [],
      "stateMutability": "nonpayable",
      "type": "function"
    },
    {
      "inputs": [
        {
          "internalType": "address",
          "name": "newReceiver",
          "type": "address"
        }
      ],
      "name": "setRoyaltyReceiver",
      "outputs": [],
      "stateMutability": "nonpayable",
      "type": "function"
    },
    {
      "inputs": [
        {
          "internalType": "bytes4",
          "name": "interfaceId",
          "type": "bytes4"
        }
      ],
      "name": "supportsInterface",
      "outputs": [
        {
          "internalType": "bool",
          "name": "",
          "type": "bool"
        }
      ],
      "stateMutability": "view",
      "type": "function"
    },
    {
      "inputs": [],
      "name": "symbol",
      "outputs": [
        {
          "internalType": "string",
          "name": "",
          "type": "string"
        }
      ],
      "stateMutability": "view",
      "type": "function"
    },
    {
      "inputs": [
        {
          "internalType": "uint256",
          "name": "",
          "type": "uint256"
        }
      ],
      "name": "tokenBanGeneration",
      "outputs": [
        {
          "internalType": "uint256",
          "name": "",
          "type": "uint256"
        }
      ],
      "stateMutability": "view",
      "type": "function"
    },
    {
      "inputs": [
        {
          "internalType": "uint256",
          "name": "index",
          "type": "uint256"
        }
      ],
      "name": "tokenByIndex",
      "outputs": [
        {
          "internalType": "uint256",
          "name": "",
          "type": "uint256"
        }
      ],
      "stateMutability": "view",
      "type": "function"
    },
    {
      "inputs": [
        {
          "internalType": "uint256",
          "name": "",
          "type": "uint256"
        },
        {
          "internalType": "uint256",
          "name": "",
          "type": "uint256"
        }
      ],
      "name": "tokenMutations",
      "outputs": [
        {
          "internalType": "string",
          "name": "mutationType",
          "type": "string"
        },
        {
          "internalType": "bytes32",
          "name": "seed",
          "type": "bytes32"
        },
        {
          "internalType": "uint256",
          "name": "timestamp",
          "type": "uint256"
        }
      ],
      "stateMutability": "view",
      "type": "function"
    },
    {
      "inputs": [
        {
          "internalType": "address",
          "name": "owner",
          "type": "address"
        },
        {
          "internalType": "uint256",
          "name": "index",
          "type": "uint256"
        }
      ],
      "name": "tokenOfOwnerByIndex",
      "outputs": [
        {
          "internalType": "uint256",
          "name": "",
          "type": "uint256"
        }
      ],
      "stateMutability": "view",
      "type": "function"
    },
    {
      "inputs": [
        {
          "internalType": "uint256",
          "name": "tokenId",
          "type": "uint256"
        }
      ],
      "name": "tokenURI",
      "outputs": [
        {
          "internalType": "string",
          "name": "",
          "type": "string"
        }
      ],
      "stateMutability": "view",
      "type": "function"
    },
    {
      "inputs": [
        {
          "internalType": "uint256",
          "name": "",
          "type": "uint256"
        }
      ],
      "name": "tokenVoteGeneration",
      "outputs": [
        {
          "internalType": "uint256",
          "name": "",
          "type": "uint256"
        }
      ],
      "stateMutability": "view",
      "type": "function"
    },
    {
      "inputs": [
        {
          "internalType": "uint256",
          "name": "",
          "type": "uint256"
        }
      ],
      "name": "tokens",
      "outputs": [
        {
          "internalType": "bytes32",
          "name": "mintSeed",
          "type": "bytes32"
        },
        {
          "internalType": "uint256",
          "name": "mintTimestamp",
          "type": "uint256"
        }
      ],
      "stateMutability": "view",
      "type": "function"
    },
    {
      "inputs": [],
      "name": "totalSupply",
      "outputs": [
        {
          "internalType": "uint256",
          "name": "",
          "type": "uint256"
        }
      ],
      "stateMutability": "view",
      "type": "function"
    },
    {
      "inputs": [
        {
          "internalType": "address",
          "name": "from",
          "type": "address"
        },
        {
          "internalType": "address",
          "name": "to",
          "type": "address"
        },
        {
          "internalType": "uint256",
          "name": "tokenId",
          "type": "uint256"
        }
      ],
      "name": "transferFrom",
      "outputs": [],
      "stateMutability": "nonpayable",
      "type": "function"
    },
    {
      "inputs": [
        {
          "internalType": "address",
          "name": "newOwner",
          "type": "address"
        }
      ],
      "name": "transferOwnership",
      "outputs": [],
      "stateMutability": "nonpayable",
      "type": "function"
    },
    {
      "inputs": [],
      "name": "withdraw",
      "outputs": [],
      "stateMutability": "nonpayable",
      "type": "function"
    }
  ],
  "bytecode": "0x60a03462001678576040906001600160401b0381830181811183821017620016645783526008825260209067537061747465727360c01b8284015283519084820182811082821117620016645785526004918281526314d4105560e21b84820152845182811162001477575f54906001968783811c9316801562001659575b8784101462001565578190601f9384811162001606575b508790848311600114620015a2575f9262001596575b50505f19600383901b1c191690871b175f555b815191838311620015835786548781811c9116801562001578575b8782101462001565579081838594931162001510575b5086918311600114620014ac575f92620014a0575b50505f19600383901b1c191690851b1784555b33156200148a57600a8054336001600160a01b03198083168217909355906001600160a01b03167f8be0079c531659141344cd1fd0a4f28419497f9722a3daafe3b4186f6b6457e05f80a3846029553390600b541617600b5542608052620001a1620001826200167c565b70617370656374526174696f4368616e676560781b8582015262001994565b620001cf620001af620016a0565b7162617365526164697573496e63726561736560701b8582015262001994565b620001fd620001dd620016a0565b7162617365526164697573446563726561736560701b8582015262001994565b6200022b6200020b620016a0565b716772616469656e74547970654368616e676560701b8582015262001994565b6200025962000239620016a0565b7164697669646572436f756e744368616e676560701b8582015262001994565b62000286620002676200167c565b70636972636c65436f756e744368616e676560781b8582015262001994565b620002b162000294620016c4565b6e6c696e65436f756e744368616e676560881b8582015262001994565b620002df620002bf620016a0565b71636972636c6553697a65496e63726561736560701b8582015262001994565b6200030d620002ed620016a0565b71636972636c6553697a65446563726561736560701b8582015262001994565b620003466200031b620016e8565b7f636972636c65506f736974696f6e4368616e67650000000000000000000000008582015262001994565b62000370620003546200170c565b6d18da5c98db19535bdd995319599d60921b8582015262001994565b6200039b6200037e620016c4565b6e18da5c98db19535bdd99549a59da1d608a1b8582015262001994565b620003c3620003a962001730565b6b0636972636c654d6f766555760a41b8582015262001994565b620003ed620003d16200170c565b6d31b4b931b632a6b7bb32a237bbb760911b8582015262001994565b6200041a620003fb6200167c565b706c696e655769647468496e63726561736560781b8582015262001994565b62000447620004286200167c565b706c696e655769647468446563726561736560781b8582015262001994565b6200047262000455620016c4565b6e6c696e65416e676c654368616e676560881b8582015262001994565b620004a062000480620016a0565b716c696e654c656e677468496e63726561736560701b8582015262001994565b620004ce620004ae620016a0565b716c696e654c656e677468446563726561736560701b8582015262001994565b620004fc620004dc620016a0565b716c696e65506f736974696f6e4368616e676560701b8582015262001994565b620005246200050a62001730565b6b1b1a5b99535bdd995319599d60a21b8582015262001994565b6200054d6200053262001754565b6c1b1a5b99535bdd99549a59da1d609a1b8582015262001994565b84518581018181108382111762001477578652600a81526906c696e654d6f766555760b41b84820152620005819062001994565b620005a96200058f62001730565b6b3634b732a6b7bb32a237bbb760a11b8582015262001994565b620005d5620005b762001778565b6f70616c657474654368616e67654f6e6560801b8582015262001994565b62000601620005e362001778565b6f1c185b195d1d1950da185b99d9505b1b60821b8582015262001994565b6200062e6200060f6200167c565b7070616c65747465436f6d62696e654f6e6560781b8582015262001994565b6200065b6200063c6200167c565b701c185b195d1d1950dbdb589a5b99505b1b607a1b8582015262001994565b6200068662000669620016c4565b6e70616c6574746552657365744f6e6560881b8582015262001994565b620006b162000694620016c4565b6e1c185b195d1d1954995cd95d105b1b608a1b8582015262001994565b620006db620006bf6200170c565b6d70616c6574746553687566666c6560901b8582015262001994565b62000702620006e96200179c565b6a646976696465724d6f766560a81b8582015262001994565b6200072b6200071062001754565b6c64697669646572526f7461746560981b8582015262001994565b845185810181811083821117620014775786526006815265726f7461746560d01b848201526200075b9062001994565b6200079462000769620017c0565b7f73656564506f696e74436f756e74496e637265617365000000000000000000008582015262001994565b620007cd620007a2620017c0565b7f73656564506f696e74436f756e744465637265617365000000000000000000008582015262001994565b620007fb620007db620016a0565b711cd959591c1bda5b9d135bdd99549a59da1d60721b8582015262001994565b62000828620008096200167c565b701cd959591c1bda5b9d135bdd995319599d607a1b8582015262001994565b6200085362000836620016c4565b6e073656564706f696e744d6f7665557608c1b8582015262001994565b62000880620008616200167c565b7039b2b2b23837b4b73a26b7bb32a237bbb760791b8582015262001994565b620008b96200088e620017e4565b7f73656564706f696e744368616e6765437572766543656e7465720000000000008582015262001994565b620008f2620008c7620017e4565b7f73656564706f696e74496e637265617365436f6e6361766974790000000000008582015262001994565b6200092b62000900620017e4565b7f73656564706f696e744465637265617365436f6e6361766974790000000000008582015262001994565b620009646200093962001808565b7f73656564706f696e74496e6372656173655261646975730000000000000000008582015262001994565b6200099d6200097262001808565b7f73656564706f696e7444656372656173655261646975730000000000000000008582015262001994565b620009c4620009ab6200179c565b6a1cda185c19515e1c185b9960aa1b8582015262001994565b620009eb620009d26200179c565b6a7368617065536872696e6b60a81b8582015262001994565b62000a15620009f96200170c565b6d39b430b832a6b0b5b2abb4b232b960911b8582015262001994565b62000a4262000a236200167c565b7039b430b832a6b0b5b2a730b93937bbb2b960791b8582015262001994565b62000a6d62000a50620016c4565b6e39b430b832a6b0b5b2a434b3b432b960891b8582015262001994565b62000a9962000a7b62001778565b6f39b430b832a6b0b5b2a9b437b93a32b960811b8582015262001994565b62000ad262000aa762001808565b7f73686170654368616e6765437572766543656e746572730000000000000000008582015262001994565b62000b0b62000ae0620017c0565b7f7368617065496e637265617365436f6e636176697479000000000000000000008582015262001994565b62000b4462000b19620016e8565b7f7368617065526564756365436f6e6361766974790000000000000000000000008582015262001994565b62000b7d62000b526200182c565b7f73686170654368616e67655261646975736573000000000000000000000000008582015262001994565b84518581018181108382111762001477578652600981526873686170654d6f766560b81b8482015262000bb09062001994565b62000bd862000bbe62001730565b6b3ab73237a6baba30ba34b7b760a11b8582015262001994565b62000c1162000be662001808565b7f72657475726e546f50726576696f757356657273696f6e0000000000000000008582015262001994565b62000c4a62000c1f620017c0565b7f73656564706f696e744d6f766552696768742d746f70000000000000000000008582015262001994565b62000c8362000c5862001850565b7f73656564706f696e744d6f76654c6566742d746f7000000000000000000000008582015262001994565b62000cbc62000c916200182c565b7f73656564706f696e744d6f766555702d746f70000000000000000000000000008582015262001994565b62000cf562000cca62001850565b7f73656564706f696e744d6f7665446f776e2d746f7000000000000000000000008582015262001994565b62000d2e62000d0362001874565b7f73656564706f696e744368616e6765437572766543656e7465722d746f7000008582015262001994565b62000d6762000d3c62001874565b7f73656564706f696e74496e637265617365436f6e6361766974792d746f7000008582015262001994565b62000da062000d7562001874565b7f73656564706f696e744465637265617365436f6e6361766974792d746f7000008582015262001994565b62000dd962000dae62001898565b7f73656564706f696e74496e6372656173655261646975732d746f7000000000008582015262001994565b62000e1262000de762001898565b7f73656564706f696e7444656372656173655261646975732d746f7000000000008582015262001994565b845191828601918211838310176200146457506200143c929162000e61918652601981527f73656564706f696e744d6f766552696768742d626f74746f6d000000000000008382015262001994565b62000e9a62000e6f620018bc565b7f73656564706f696e744d6f76654c6566742d626f74746f6d00000000000000008382015262001994565b62000ed362000ea8620017c0565b7f73656564706f696e744d6f766555702d626f74746f6d000000000000000000008382015262001994565b62000f0c62000ee1620018bc565b7f73656564706f696e744d6f7665446f776e2d626f74746f6d00000000000000008382015262001994565b62000fcc62000f1a620018e0565b7f73656564706f696e744368616e6765437572766543656e7465722d626f74746f8382015262000f54606d60f81b91828882015262001994565b62000f9262000f62620018e0565b7f73656564706f696e74496e637265617365436f6e6361766974792d626f74746f85820152828882015262001994565b62000f9c620018e0565b907f73656564706f696e744465637265617365436f6e6361766974792d626f74746f848301528682015262001994565b6200100562000fda62001874565b7f73656564706f696e74496e6372656173655261646975732d626f74746f6d00008382015262001994565b6200103e6200101362001874565b7f73656564706f696e7444656372656173655261646975732d626f74746f6d00008382015262001994565b620010776200104c62001808565b7f73656564706f696e744d6f766552696768742d6c6566740000000000000000008382015262001994565b620010b062001085620017c0565b7f73656564706f696e744d6f76654c6566742d6c656674000000000000000000008382015262001994565b620010e9620010be620016e8565b7f73656564706f696e744d6f766555702d6c6566740000000000000000000000008382015262001994565b62001122620010f7620017c0565b7f73656564706f696e744d6f7665446f776e2d6c656674000000000000000000008382015262001994565b6200115b6200113062001904565b7f73656564706f696e744368616e6765437572766543656e7465722d6c656674008382015262001994565b620011946200116962001904565b7f73656564706f696e74496e637265617365436f6e6361766974792d6c656674008382015262001994565b620011cd620011a262001904565b7f73656564706f696e744465637265617365436f6e6361766974792d6c656674008382015262001994565b62001206620011db62001928565b7f73656564706f696e74496e6372656173655261646975732d6c656674000000008382015262001994565b6200123f6200121462001928565b7f73656564706f696e7444656372656173655261646975732d6c656674000000008382015262001994565b620012786200124d620018bc565b7f73656564706f696e744d6f766552696768742d726967687400000000000000008382015262001994565b620012b16200128662001808565b7f73656564706f696e744d6f76654c6566742d72696768740000000000000000008382015262001994565b620012ea620012bf62001850565b7f73656564706f696e744d6f766555702d726967687400000000000000000000008382015262001994565b62001323620012f862001808565b7f73656564706f696e744d6f7665446f776e2d72696768740000000000000000008382015262001994565b6200135c620013316200194c565b7f73656564706f696e744368616e6765437572766543656e7465722d72696768748382015262001994565b620013956200136a6200194c565b7f73656564706f696e74496e637265617365436f6e6361766974792d72696768748382015262001994565b620013ce620013a36200194c565b7f73656564706f696e744465637265617365436f6e6361766974792d72696768748382015262001994565b62001407620013dc62001970565b7f73656564706f696e74496e6372656173655261646975732d72696768740000008382015262001994565b7f73656564706f696e7444656372656173655261646975732d72696768740000006200143262001970565b9182015262001994565b601955516153f5908162001b52823960805181818161064701528181611daa0152612f580152f35b604190634e487b7160e01b5f525260245ffd5b604184634e487b7160e01b5f525260245ffd5b8451631e4fbdf760e01b81525f81840152602490fd5b015190505f8062000104565b90879350601f19831691845f52875f20925f5b89828210620014f95750508411620014e0575b505050811b01845562000117565b01515f1960f88460031b161c191690555f8080620014d2565b8385015186558b97909501949384019301620014bf565b90919250875f52865f208380860160051c8201928987106200155b575b9186958b929594930160051c01915b8281106200154c575050620000ef565b5f81558695508a91016200153c565b925081926200152d565b602286634e487b7160e01b5f525260245ffd5b90607f1690620000d9565b604185634e487b7160e01b5f525260245ffd5b015190505f80620000ab565b90899350601f198316915f8052895f20925f5b8b828210620015ef5750508411620015d6575b505050811b015f55620000be565b01515f1960f88460031b161c191690555f8080620015c8565b8385015186558d97909501949384019301620015b5565b9091505f8052875f208480850160051c8201928a86106200164f575b918b91869594930160051c01915b8281106200164057505062000095565b5f81558594508b910162001630565b9250819262001622565b92607f16926200007e565b634e487b7160e01b5f52604160045260245ffd5b5f80fd5b60408051919082016001600160401b03811183821017620016645760405260118252565b60408051919082016001600160401b03811183821017620016645760405260128252565b60408051919082016001600160401b038111838210176200166457604052600f8252565b60408051919082016001600160401b03811183821017620016645760405260148252565b60408051919082016001600160401b038111838210176200166457604052600e8252565b60408051919082016001600160401b038111838210176200166457604052600c8252565b60408051919082016001600160401b038111838210176200166457604052600d8252565b60408051919082016001600160401b03811183821017620016645760405260108252565b60408051919082016001600160401b038111838210176200166457604052600b8252565b60408051919082016001600160401b03811183821017620016645760405260168252565b60408051919082016001600160401b038111838210176200166457604052601a8252565b60408051919082016001600160401b03811183821017620016645760405260178252565b60408051919082016001600160401b03811183821017620016645760405260138252565b60408051919082016001600160401b03811183821017620016645760405260158252565b60408051919082016001600160401b038111838210176200166457604052601e8252565b60408051919082016001600160401b038111838210176200166457604052601b8252565b60408051919082016001600160401b03811183821017620016645760405260188252565b60405190606082016001600160401b03811183821017620016645760405260218252565b60408051919082016001600160401b038111838210176200166457604052601f8252565b60408051919082016001600160401b038111838210176200166457604052601c8252565b60408051919082016001600160401b03811183821017620016645760405260208252565b60408051919082016001600160401b038111838210176200166457604052601d8252565b90602d5468010000000000000000811015620016645760019081810180602d5581101562001b3d57602d5f528351936020917f4a2cc91ee622da3bc833a54c37ffcb6f3ec23b7793efc5eaf5e71b7b406c5c06016001600160401b038611620016645780548481811c9116801562001b32575b8482101462001b1e57601f811162001ad3575b5082601f871160011462001a6e579580602e9596975f9162001a62575b505f19600383901b1c191690861b1790555b8181519101205f525260405f209060ff19825416179055565b90508301515f62001a37565b601f19871690825f52845f20915f5b81811062001abd5750918891879899602e98941062001aa4575b5050811b01905562001a49565b8501515f1960f88460031b161c191690555f8062001a97565b8583015184559287019291860191860162001a7d565b815f52835f20601f880160051c81019185891062001b13575b601f0160051c019085905b82811062001b0757505062001a1a565b5f815501859062001af7565b909150819062001aec565b634e487b7160e01b5f52602260045260245ffd5b90607f169062001a07565b634e487b7160e01b5f52603260045260245ffdfe6080604090808252600480361015610015575f80fd5b5f3560e01c9182629c4c7e146138585750816301ffc9a7146137b557816306fdde03146137085781630739ac06146136ec578163081812fc146136b4578163095ea7b3146135d957816309aaa61e146135bc5781630ac6fc58146135445781630d3fd16114613519578163131f3a1e14612e0c578163149e7b77146134bd578163161860d61461349657816318160ddd1461347a57816318bad1291461345c57816323b872dd1461344557816327189ca014612f1e57816329777c3514612f025781632a55205a14612e9b5781632b49d42514612e395781632f745c5914612e1157816332cb6b0c14612e0c5781633ccfd60b14612d555781633eea906f14612d2e57816341ec687014612cc857816342842e0e14612c9a578163467f67f914612c7d57816347a02aac1461296e57816349c657db146129525781634e474dd91461292a5781634f64b2be146128f95781634f6ccce71461289f57816354f484191461288157816355f804b3146126ed5781635ef46bc5146126065781635fa951a71461239b5781636352211e1461236c5781636b04a1e21461229e5781636c0360eb1461220257816370a08231146121dd57816370a6f2301461217e578163715018a61461212357816371f951d8146120f85781637e056b9114611d9357816385c639fe14611d6c57816386e2d5df14611d4f5781638da5cb5b14611d275781638dc251e314611c7857816390f4fe7214611b6757816395d89b4114611a935781639a617d0c1461197b5781639fbc871314611953578163a22cb465146118b8578163a7fa70ce14611891578163afb7bed9146115a8578163afe21c2914611255578163b0b548951461123b578163b1610d7e1461121e578163b6fd46221461105e578163b88d4fde14610ff3578163ba09768614610fbd578163c83d07e314610f4a578163c87b56dd14610c7f578163cb0f39901461096a578163ccad22de146107d1578163cdc3cc41146107a9578163d088650a1461078b578163d9759f9a14610770578163e2b0a15d1461071a578163e985e9c5146106cc578163e9b3536114610690578163eb91d37e1461066a578163ecda10f514610630578163ede6fade14610615578163f2fde38b1461058b578163fa90eabf146104a2578163fc2deeed1461047c578163fe660dc61461045e578163fefafa08146103a3575063ff9830bd14610384575f80fd5b3461039f575f36600319011261039f57602090516101f48152f35b5f80fd5b90503461039f57602036600319011261039f576103be6138b8565b906103c761483e565b600f549260ff8460a01c1661041b5750506001600160a01b039081166001600160a01b031983168117600f5591167f4629afddec912ec503dd73bdff4ed7d1ddff82665cc12234d2050e12f518e5ed5f80a3005b906020606492519162461bcd60e51b8352820152601f60248201527f47656e657261746f72206973207065726d616e656e746c79206c6f636b6564006044820152fd5b823461039f575f36600319011261039f57602090602c549051908152f35b823461039f575f36600319011261039f5760209060ff600f5460a01c1690519015158152f35b90503461039f575f36600319011261039f576104bc61483e565b600f549060ff8260a01c16610557576001600160a01b03821692831561051457505060ff60a01b1916600160a01b17600f557f8dc9002242fe1d7789084ad61acb9adee344fd3e9d6c7bd89d94da389ea999145f80a2005b906020606492519162461bcd60e51b8352820152601c60248201527f5365742067656e657261746f72206265666f7265206c6f636b696e67000000006044820152fd5b606490602084519162461bcd60e51b8352820152600e60248201526d105b1c9958591e481b1bd8dad95960921b6044820152fd5b90503461039f57602036600319011261039f576105a66138b8565b906105af61483e565b6001600160a01b039182169283156105ff575050600a54826001600160601b0360a01b821617600a55167f8be0079c531659141344cd1fd0a4f28419497f9722a3daafe3b4186f6b6457e05f80a3005b905f6024925191631e4fbdf760e01b8352820152fd5b823461039f575f36600319011261039f5760209051601e8152f35b823461039f575f36600319011261039f57602090517f00000000000000000000000000000000000000000000000000000000000000008152f35b823461039f575f36600319011261039f57602090610689602954614ee0565b9051908152f35b823461039f575f36600319011261039f576060906106ac6147b2565b835192151583526001600160a01b03909116602083015291810191909152f35b823461039f578060031936011261039f576020906106e86138b8565b6106f06138ce565b9060018060a01b038091165f5260058452825f2091165f52825260ff815f20541690519015158152f35b823461039f575f36600319011261039f5760a09060ff6021549160225490805193845282821615156020850152600180861b038260081c1690840152818160a81c161515606084015260b01c1615156080820152f35b823461039f575f36600319011261039f576020905160648152f35b823461039f575f36600319011261039f57602090600c549051908152f35b823461039f575f36600319011261039f57602b5490516001600160a01b039091168152602090f35b823461039f576107e0366139f4565b90916107ea61486a565b6107f383614804565b336001600160a01b03909116036109365761082961082483602081519101205f52602e60205260ff60405f20541690565b613d44565b61083283614731565b156108fe57825f52602f602052620151804204815f2055601c60205261085c82825f205485614896565b90835f52601c60205261088a815f20825190610877826138e4565b8582528460208301524284830152613dd8565b835f52601c602052805f2054945f1986019586116108eb5750906108d67f4226f74e56624aaf998322a4bb5ebb847b5811ac4711df2f3d9b46d7a8f4a3e9939251928392429184613caa565b0390a35f5f805160206153a08339815191525d005b601190634e487b7160e01b5f525260245ffd5b5162461bcd60e51b8152602081850152601360248201527243616e6e6f74206d757461746520746f64617960681b6044820152606490fd5b5162461bcd60e51b8152602081850152600f60248201526e2737ba103a37b5b2b71037bbb732b960891b6044820152606490fd5b90503461039f578160031936011261039f578035906001600160401b039283831161039f578282019260c43691011161039f57602491602435926109ac61483e565b6109b461486a565b602954946109c66103e787111561435a565b8415610c1657602b546001600160a01b0316158015610bec575b6109e99061439b565b6109f2816143e7565b905015159687610baf575b42602a55610a0a87614259565b602955845192610a198461392e565b86845260209489868601954287528a5f52601b8852885f20905181556001809751910155610a92575b89897f35a71fd4ad36d3b5f42a9819d12284ac3592b91d09f274e2ff1639a4418c1a026108d68b8b610a748533614a8c565b51908152931515602085015242604085015233939081906060820190565b5f5b60068110610aa25750610a42565b610aac818661441b565b8b5f52601d8952610abf838b5f20613a55565b929092610b9e57868211610b8c57908291610ae682610ae08c979654613a78565b85613d9e565b5f90601f8311600114610b2857610b1492915f9183610b1d575b50508160011b915f199060031b1c19161790565b90555b01610a94565b013590505f80610b00565b5f8481528c81209290601f198516908e5b828210610b755750509084889594939210610b5c575b505050811b019055610b17565b01355f19600384901b60f8161c191690555f8080610b4f565b8385013586558e999095019492830192018e610b39565b85604186634e487b7160e01b5f52525ffd5b855f86634e487b7160e01b8252525ffd5b5f5b60068110610bbf57506109fd565b80610be6610be1610bdc610bd56001958861441b565b36916139a0565b61493c565b61445d565b01610bb1565b50602c54610ce48101809111610c035742116109e0565b601184634e487b7160e01b5f525260245ffd5b835162461bcd60e51b8152602081850152603d60248201527f437573746f6d2073656564207265717569726564202d2075736520726571756560448201527f73744f776e65724d696e7420666f7220332d6f7074696f6e20666c6f770000006064820152608490fd5b823461039f576020908160031936011261039f5782355f8181526002845282902054610cb5906001600160a01b03161515613d01565b600e54610cc181613a78565b15610ef2578180955f917a184f03e93ff9f4daa797ed6e38ed64bf6a1f0100000000000000009081811015610ee5575b50506d04ee2d6d415b85acef810000000080881015610ed7575b50662386f26fc1000080881015610ec8575b506305f5e10080881015610eb9575b5061271080881015610ead575b50506064861015610e9f575b600a80961015610e97575b6001906001810196610d79610d6489613985565b98610d7188519a8b613964565b808a52613985565b94836021898b0194601f198099013687378b0101905b610e69575b50505084519687935f93610da782613a78565b91896001821691825f14610e47575050600114610dfa575b50509180610dda610de79593610df698979551938491613872565b0103908101865285613964565b51928284938452830190613893565b0390f35b8892939450600e5f525f80516020615360833981519152905f915b838310610e2d57505050840101919080610dda610dbf565b80549783018501979097528a968a94909201918101610e15565b60ff19168189015283151590930287019092019450829150610dda9050610dbf565b5f19019082906f181899199a1a9b1b9c1cb0b131b232b360811b8282061a835304908482610d8f5750610d94565b600101610d50565b946064600291049501610d45565b90960495018680610d39565b60089192970496019087610d2c565b60109192970496019087610d1d565b869192970496019087610d0b565b0496508491508780610cf1565b825162461bcd60e51b8152808601859052602c60248201527f62617365555249206e6f7420736574202d206f776e6572206d7573742063616c60448201526b6c207365744261736555524960a01b6064820152608490fd5b90503461039f57602036600319011261039f5735602d5481101561039f57610df691610fab610fa492602d5f528251938480927f4a2cc91ee622da3bc833a54c37ffcb6f3ec23b7793efc5eaf5e71b7b406c5c0601613b4e565b0383613964565b51918291602083526020830190613893565b90503461039f57602036600319011261039f5735600681101561039f5781610fab610fa492610df6945193848092602301613b4e565b3461039f57608036600319011261039f5761100c6138b8565b6110146138ce565b604435906064356001600160401b03811161039f573660238201121561039f5761105c9481602461104a933693013591016139a0565b92611056838383613f2c565b33614f61565b005b823461039f57602036600319011261039f57813560ff811680820361039f5760036110919161108b61486a565b106144c5565b602b54906110a96001600160a01b0383163314614507565b602154936110b8851515614553565b602254946110c960ff871615614594565b60ff8660a81c166111cd57610ce481018091116111ba576110ec904211156145e0565b60038210156111a75750601e015460ff199093166001176022556001600160a01b031916602b555f602c5542602a556029549061112882614259565b60295580516111368161392e565b838152600160208201428152845f52601b602052835f20925183555191015561115f8233614a8c565b80519283525f602084015242908301527f35a71fd4ad36d3b5f42a9819d12284ac3592b91d09f274e2ff1639a4418c1a0260603393a35f5f805160206153a08339815191525d005b603290634e487b7160e01b5f525260245ffd5b601182634e487b7160e01b5f525260245ffd5b845162461bcd60e51b8152602081840152602560248201527f55736520636f6d706c6574654f776e65724d696e7420666f72206f776e6572206044820152646d696e747360d81b6064820152608490fd5b823461039f575f36600319011261039f57602090516220f5808152f35b823461039f575f36600319011261039f57602090515f8152f35b823461039f575f36600319011261039f576010546001600160a01b031633036115655760ff60145460081c161561152a5760ff601654166114f4576015546202a30081018091116114e157421161149e576112b1601154613a78565b916001600160401b03831161148b57506112cc600e54613a78565b601f8111611445575b505f601f831160011461139d57827fa621c5ad256761fd9191d8547f07ec26026684c11c01ce72024c5e8ca592524193611323925f91611391575b508160011b915f199060031b1c19161790565b600e555b600160ff1960165416176016557f861427b54efccb3916ffce06e33cfdc507ebe9587bd407e90a0af1dbc6fe7e4d6020611362601954614259565b806019558351908152a1611377600d54614259565b600d5551602081528061138c60208201613ab0565b0390a1005b90506011015485611310565b601f19831690600e5f525f80516020615360833981519152915f5b81811061142057509184917fa621c5ad256761fd9191d8547f07ec26026684c11c01ce72024c5e8ca592524195600194106113fb575b5050811b01600e55611327565b5f8051602061538083398151915201545f1960f88460031b161c1916905584806113ee565b5f805160206153808339815191528301548455600193840193909201916020016113b8565b61147b90600e5f525f80516020615360833981519152601f850160051c81019160208610611481575b601f0160051c0190613d88565b826112d5565b909150819061146e565b604190634e487b7160e01b5f525260245ffd5b906020606492519162461bcd60e51b8352820152602060248201527f50726f706f73616c2065787069726564202d2077696e646f7720636c6f7365646044820152fd5b601183634e487b7160e01b5f525260245ffd5b906020606492519162461bcd60e51b8352820152601060248201526f105b1c9958591e48195e1958dd5d195960821b6044820152fd5b906020606492519162461bcd60e51b83528201526015602482015274151a1c995cda1bdb19081b9bdd081c995858da1959605a1b6044820152fd5b906020606492519162461bcd60e51b8352820152601960248201527f4f6e6c792070726f706f7365722063616e20636f6e6669726d000000000000006044820152fd5b90505f36600319011261039f57606082516115c2816138e4565b3690376115cd61486a565b602954601e90601e81111561184e576115ea6103e782111561435a565b602b546001600160a01b0316158015611837575b6116079061439b565b602a54620151808101809111610c035742106117fb5761162690614ee0565b34106117c15760ff9160ff6022541680156117aa575b1561176e5750825161164d816138e4565b60603682375f5b8381166003811015611682578160019161167a61167388954233614a2d565b918661449d565b520116611654565b505083805161169081613913565b8281525f60a06020924260208201528285820152336060820152826080820152015282935f5b6003811061175c5760608561175a8642602155602254610100600160a81b033360081b169068ffffffffffffffffff60b81b1617602255336001600160601b0360a01b602b541617602b5542602c5580516117118185613c6a565b42858201525f60808201527fc904c26edfa19014321dad8ce50a657782d9f55cd41af2afd9737e4f2ec7630760a03392a25f5f805160206153a08339815191525d518092613c6a565bf35b855182820155948201946001016116b6565b606490602085519162461bcd60e51b8352820152601660248201527550656e64696e6720726571756573742065786973747360501b6044820152fd5b50602154610ce481018091116111ba57421161163c565b506020606492519162461bcd60e51b83528201526014602482015273125b9cdd59999a58da595b9d081c185e5b595b9d60621b6044820152fd5b835162461bcd60e51b81526020818501526016602482015275476c6f62616c20636f6f6c646f776e2061637469766560501b6044820152606490fd5b50602c54610ce48101809111610c035742116115fe565b835162461bcd60e51b8152602081850152601860248201527f4f776e6572206d696e7420706572696f642061637469766500000000000000006044820152606490fd5b823461039f57602036600319011261039f57602091355f5260188252805f20549051908152f35b823461039f578060031936011261039f576118d16138b8565b906024359182151580930361039f576001600160a01b031692831561193e5750335f526005602052805f20835f52602052805f2060ff1981541660ff8416179055519081527f17307eab39ab6107e8899845ad3d59bd9653f200f220920489ca2b5937696c3160203392a3005b836024925191630b61174360e31b8352820152fd5b823461039f575f36600319011261039f57600b5490516001600160a01b039091168152602090f35b90503461039f576020908160031936011261039f57355f52601c8152815f208054916119a6836144ae565b926119b385519485613964565b80845281840180935f52825f205f915b838310611a445750505050835192818401908285525180915284840191858260051b86010193925f965b8388106119fa5786860387f35b90919293948380600192603f198a82030186528851908580611a256060855190808652850190613893565b93858101518685015201519101529701930197019690939291936119ed565b6003856001928a99979951611a58816138e4565b8b51611a6f81611a68818a613b4e565b0382613964565b8152848601548382015260028601548c8201528152019201920191909593956119c3565b823461039f575f36600319011261039f578051905f908260019260015493611aba85613a78565b90818452602095866001821691825f14611b45575050600114611aea575b5050610df69291610de7910385613964565b9085925060015f527fb10e2d527612073b26eecdfd717e6a320cf44b4afac2b0732d9fcbe2b7fa0cf6915f925b828410611b2d5750505082010181610de7611ad8565b8054848a018601528895508794909301928101611b17565b60ff19168682015292151560051b85019092019250839150610de79050611ad8565b823461039f575f36600319011261039f57805190611b8482613913565b8051611b8f816138e4565b606036823782525f60a060209382602082015282848201528260608201528260808201520152805190611bc182613913565b8051918293601e945f905b60038210611c6357610100868686611be3836138e4565b828152602154602082019081526022549280830160ff85161515815260018060a01b0392611c3c6060860193858860081c16855260ff60a06080890198828b60a81c1615158a52019860b01c1615158852518098613c6a565b5160608701525115156080860152511660a084015251151560c083015251151560e0820152f35b60018381928954815201970191019095611bcc565b90503461039f57602036600319011261039f57611c936138b8565b611c9b61483e565b6001600160a01b0316918215611ce457600b80546001600160a01b03191684179055827fc3696c23bd17454d95c44cb489c7a0db717d6d809e238813932720cc785ad5355f80a2005b906020606492519162461bcd60e51b8352820152601860248201527f496e76616c6964207265636569766572206164647265737300000000000000006044820152fd5b823461039f575f36600319011261039f57600a5490516001600160a01b039091168152602090f35b823461039f575f36600319011261039f57602090516202a3008152f35b823461039f57602036600319011261039f57611d8a60209235614731565b90519015158152f35b90503461039f575f36600319011261039f57611dd17f00000000000000000000000000000000000000000000000000000000000000004210156141cc565b60125480156120c05760ff6016541661207d576220f58081018091116111ba574211612043576014549060ff8260081c1615801561202a575b15611fe757611e18336146fb565b91611e24831515614218565b60ff811615611f9f575b505f915f5b818110611f5d5750508115611f1a57611e4e826013546141bf565b918260135583519081527fa36cc2bebb74db33e9f88110a07ef56e1b31b24b4c4f51b54b1664266e29f45b60203392a26029545f198101919082116108eb576043820291808304604314901517156108eb57506014549160ff8360081c16159182611f0b575b5050611ebc57005b61ff001916610100176014554260155580518181527fab69f06083afef0927640d007ea64293cf51d456c47ce52131e28ec5dd1366cf918190611f00908201613ab0565b4260208301520390a1005b60649192500411155f80611eb4565b606490602084519162461bcd60e51b8352820152601d60248201527f416c6c20796f757220746f6b656e7320616c726561647920766f7465640000006044820152fd5b611f6781336142cf565b5f526018602052845f20805490600d54809203611f89575b5050600101611e33565b5592600190611f9790614259565b93905f611f7f565b60019060ff1916176014557f8e409ff344f734c68d4e8a0f3acc9412ba807ede50cd1ea7263c6902f826819d83516020815280611fde60208201613ab0565b0390a15f611e2e565b606490602084519162461bcd60e51b8352820152601b60248201527f436f6e6669726d6174696f6e2077696e646f77206578706972656400000000006044820152fd5b506015546202a30081018091116111ba57421115611e0a565b6020606492519162461bcd60e51b83528201526015602482015274159bdd1a5b99c81c195c9a5bd908195e1c1a5c9959605a1b6044820152fd5b506020606492519162461bcd60e51b8352820152601960248201527f50726f706f73616c20616c7265616479206578656375746564000000000000006044820152fd5b506020606492519162461bcd60e51b83528201526012602482015271139bc81858dd1a5d99481c1c9bdc1bdcd85b60721b6044820152fd5b823461039f57602036600319011261039f57602091355f52601a8252805f2054601954149051908152f35b3461039f575f36600319011261039f5761213b61483e565b600a80546001600160a01b031981169091555f906001600160a01b03167f8be0079c531659141344cd1fd0a4f28419497f9722a3daafe3b4186f6b6457e08280a3005b823461039f5761218d36613a3f565b905f52601c602052815f2090815481101561039f576121ab91613c91565b5090610df68151916121c8836121c18187613b4e565b0384613964565b60026001850154940154905193849384613caa565b823461039f57602036600319011261039f576020906106896121fd6138b8565b6146fb565b823461039f575f36600319011261039f578051600e549091825f61222584613a78565b808352602094600190866001821691825f14611b45575050600114612256575050610df69291610de7910385613964565b90859250600e5f525f80516020615360833981519152915f925b8284106122865750505082010181610de7611ad8565b8054848a018601528895508794909301928101612270565b823461039f576020918260031936011261039f5781516122bd81613913565b835f5b60c0811061235e57505050355f52601d8252805f20908051916122e283613913565b5f84845b600683106123395750505050519082820183835260e0830191905f945b600686106123115784840385f35b909192818061232c600193601f198982030187528751613893565b9501930195019490612303565b6001918291865161234e81611a68818a613b4e565b81520193019101909185906122e6565b6060818401520184906122c0565b823461039f57602036600319011261039f5761238a60209235614804565b90516001600160a01b039091168152f35b90503461039f576020918260031936011261039f5781359060ff821680830361039f5760036123d4916123cc61483e565b61108b61486a565b602b546001600160a01b03929091906123f08484163314614507565b602154906123ff821515614553565b6022549161241060ff841615614594565b60ff8360a81c16156125c357610ce481018091116125b057612434904211156145e0565b600381101561259d57601e0154938160081c169560ff8260b01c16936001809360ff1916176022556001600160601b0360a01b16602b555f602c5542602a556029549561248087614259565b60295584845161248f8161392e565b87815260018482014281528a5f52601b8652875f20925183555191015561254e575b505f5b6006811061250b57505050906108d67f35a71fd4ad36d3b5f42a9819d12284ac3592b91d09f274e2ff1639a4418c1a0293926124f08688614a8c565b51928352901515602083015242604083015281906060820190565b805f849260230161251c8154613a78565b601f90818111612530575b505055016124b4565b61254791838552878520910160051c810190613d88565b5f80612527565b5f5b6006811061255e57506124b1565b875f52601d835261257181865f20613a55565b61258b57906125858592826023019061461e565b01612550565b5f83634e487b7160e01b82525260245ffd5b603286634e487b7160e01b5f525260245ffd5b601187634e487b7160e01b5f525260245ffd5b835162461bcd60e51b8152808801899052601960248201527f4e6f7420616e206f776e6572206d696e742072657175657374000000000000006044820152606490fd5b823461039f575f36600319011261039f57602d54612623816144ae565b9061263083519283613964565b80825260208083019182602d5f527f4a2cc91ee622da3bc833a54c37ffcb6f3ec23b7793efc5eaf5e71b7b406c5c065f915b8383106126c457505050508351928184019082855251809152848401948160051b85010192915f955b8287106126985785850386f35b9091929382806126b4600193603f198a82030186528851613893565b960192019601959291909261268b565b60018581928a999799516126dc81611a688189613b4e565b815201920192019190959395612662565b90503461039f5760208060031936011261039f576001600160401b0392823584811161039f5761272090369085016139d6565b9261272961483e565b835194851161148b575061273e600e54613a78565b601f8111612847575b508193601f81116001146127b657906127998261138c937feec356c13f485b7acbb74166d776fb50be80220a12df460b84716109009f9994975f916127ab57508160011b915f199060031b1c19161790565b600e5551928284938452830190613893565b90508601515f611310565b601f19811694600e5f525f80516020615360833981519152955f5b8181106128305750917feec356c13f485b7acbb74166d776fb50be80220a12df460b84716109009f9994966001928261138c969510612818575b5050811b01600e55610de7565b8701515f1960f88460031b161c191690555f8061280b565b8683015188556001909701969185019185016127d1565b61287b90600e5f525f80516020615360833981519152601f870160051c81019185881061148157601f0160051c0190613d88565b5f612747565b823461039f575f36600319011261039f57602090600d549051908152f35b90503461039f57602036600319011261039f578035906128bd613f1b565b8210156128de576020836128d084613ccc565b91905490519160031b1c8152f35b905f604493519263295f44f760e21b84528301526024820152fd5b90503461039f57602036600319011261039f57355f52601b602052805f206001815491015482519182526020820152f35b823461039f575f36600319011261039f57600f5490516001600160a01b039091168152602090f35b823461039f575f36600319011261039f57602090516101f48152f35b823461039f576020918260031936011261039f578035916001600160401b039384841161039f578383019360c43691011161039f57606082516129b0816138e4565b3690376129bb61483e565b6129c361486a565b6129d36103e7602954111561435a565b602b546001600160a01b0316158015612c66575b6129f09061439b565b6129f9846143e7565b905015159081612c3a575b825194612a10866138e4565b60603687375f5b60ff81166003811015612a475781600191612a3f612a3860ff954233614a2d565b918b61449d565b520116612a17565b505086869495865194612a5986613913565b86865242858701525f888701523360608701528060a0600197886080820152015286865f5b60038110612c275750504260215550602280546001600160b81b0319163360081b610100600160a81b03161760b083901b60ff60b01b1617600160a81b179055612b38575b60608661175a8988336001600160601b0360a01b602b541617602b5542602c55815190612af08286613c6a565b428683015260808201527fc904c26edfa19014321dad8ce50a657782d9f55cd41af2afd9737e4f2ec7630760a03392a25f5f805160206153a08339815191525d518092613c6a565b5f5b60068110612b485750612ac3565b612b52818561441b565b8260230191858211612c1457908291612b7182610ae08c979654613a78565b5f90601f8311600114612bb257612b9e92915f9183612ba75750508160011b915f199060031b1c19161790565b90555b01612b3a565b013590508d80610b00565b601f19831691845f528a5f20925f5b8c828210612bfe5750509084889594939210612be5575b505050811b019055612ba1565b01355f19600384901b60f8161c191690558c8080612bd8565b8385013586558e99909501949283019201612bc1565b604185634e487b7160e01b5f525260245ffd5b87835193019281601e0155018790612a7e565b5f5b60068110612c4a5750612a04565b80612c60610be1610bdc610bd56001958b61441b565b01612c3c565b50602c54610ce48101809111610c035742116129e7565b823461039f575f36600319011261039f576020905162278d008152f35b823461039f5761105c90612cad36613bdf565b91925192612cba84613949565b5f8452611056838383613f2c565b823461039f575f36600319011261039f5760018060a01b036010541690610df660125492601354906014546015549060ff601654169260175494875197612d1989612d1281613ab0565b038a613964565b5198899860ff808660081c169516938a613c14565b823461039f57602036600319011261039f57602091355f52601a8252805f20549051908152f35b90503461039f575f36600319011261039f57612d6f61483e565b478015612dd257600a545f918291829182916001600160a01b03165af1612d9461432b565b5015612d9c57005b6020606492519162461bcd60e51b8352820152601160248201527015da5d1a191c985dd85b0819985a5b1959607a1b6044820152fd5b506020606492519162461bcd60e51b835282015260146024820152734e6f2066756e647320746f20776974686472617760601b6044820152fd5b613a23565b823461039f578060031936011261039f57602090610689612e306138b8565b602435906142cf565b823461039f575f36600319011261039f5760105481516001600160a01b0390911691610df690612e6c836121c181613ab0565b60125493601354906014546015549160ff6016541693601754955198899860ff808660081c169516938a613c14565b90503461039f57612eab36613a3f565b91905f52600260205260018060a01b0390612ecc82855f2054161515613d01565b6101f4928381029381850414901517156108eb5750600b54925192166001600160a01b0316825261271090046020820152604090f35b823461039f575f36600319011261039f5760209051610ce48152f35b90503461039f576020918260031936011261039f576001600160401b0391803583811161039f57612f5290369083016139d6565b91612f7f7f00000000000000000000000000000000000000000000000000000000000000004210156141cc565b612f92612f8b336146fb565b1515614218565b82511561340d5760145460ff81168091816133f3575b60081c60ff16806133c8575b82156133c0575b501580156133b9575b1561337657600c5462278d008101809111610c035742106133335780613328575b613289575b612ff3336148ef565b91821561323657613005600d54614259565b600d5581516101208101818110878211176132235783523381528487820152828101428152606082015f8152608083015f815260a08401915f835260c08501935f855261010060e08701965f88520196898852336001600160601b0360a01b60105416176010558a519b8c1161148b5750613081601154613a78565b8b8d601f83116131e8575b5050508b8c601f8d1160011461315757508b7fe7890a17099f7377119f9bcc610136034f38d99a26a59ec393bd3f871d244c1f9c6130dd925f9161314c57508160011b915f199060031b1c19161790565b6011555b51601255516013555115159060ff61ff006014549251151560081b1692169061ffff191617176014555160155551151560ff8019601654169116176016555160175542600c5561313b815193606085526060850190613893565b9442908401528201528033930390a2005b90508c01515f611310565b90601f198d1660115f525f80516020615380833981519152925f905b8282106131cf575050918d917fe7890a17099f7377119f9bcc610136034f38d99a26a59ec393bd3f871d244c1f9e600194106131b7575b5050811b016011556130e1565b8d01515f1960f88460031b161c191690555f806131aa565b808f859682949660019201518155019501930190613173565b61321b9260115f525f8051602061538083398151915291601f840160051c8301931061148157601f0160051c0190613d88565b5f8b8d61308c565b604183634e487b7160e01b5f525260245ffd5b85608492519162461bcd60e51b8352820152602960248201527f416c6c20796f757220746f6b656e73206172652062616e6e65642066726f6d2060448201526870726f706f73696e6760b81b6064820152fd5b7ff3a4daeb2d0c46baa4922d40b36bc79601cd7a23c37a5b3cf658bb36101b3bfa60175480151580613312575b6132da575b825180918482526132cd858301613ab0565b90898301520390a1612fea565b601954815f52601a8852835f2055807f8fcebe7b587cb6a82a1b6b75d67f45402181b45ab78f2355219e4bccaf5079375f80a26132bb565b50805f52601a8752825f205460195414156132b6565b506017541515612fe5565b815162461bcd60e51b8152808401879052601860248201527f50726f706f73616c20636f6f6c646f776e2061637469766500000000000000006044820152606490fd5b815162461bcd60e51b8152808401879052601b60248201527f4163746976652070726f706f73616c20696e2070726f677265737300000000006044820152606490fd5b5080612fc4565b91505f612fbb565b506015546202a30081018091116133e0574211612fb4565b601185634e487b7160e01b5f525260245ffd5b91506012546220f58081018091116133e057421191612fa8565b5162461bcd60e51b815290810184905260136024820152725552492063616e6e6f7420626520656d70747960681b6044820152606490fd5b3461039f5761105c61345636613bdf565b91613f2c565b823461039f575f36600319011261039f576020906019549051908152f35b823461039f575f36600319011261039f57602090610689613f1b565b823461039f57602036600319011261039f57602091355f52602f8252805f20549051908152f35b90503461039f576134cd36613a3f565b905f52601d602052825f2090600681101561039f576134eb91613a55565b919091613507578251610df69084610fab82610fa48188613b4e565b5f90634e487b7160e01b82525260245ffd5b823461039f57602036600319011261039f57602091355f5260188252805f2054600d54149051908152f35b823461039f57613553366139f4565b909161355d61483e565b61356561486a565b5f838152600260205281902054613586906001600160a01b03161515613d01565b6135a661082483602081519101205f52602e60205260ff60405f20541690565b825f52601c60205261085c82825f205485614896565b823461039f575f36600319011261039f5760209051620151808152f35b823461039f578060031936011261039f576135f26138b8565b916024356135ff81614804565b331515806136a1575b8061367a575b613664576001600160a01b039485169482918691167f8c5be1e5ebec7d5bd14f71427d1e84f3dd0314c0f7b2291e5b200ac8c7c3b9255f80a45f526020525f20906001600160601b0360a01b8254161790555f80f35b835163a9fbf51f60e01b81523381850152602490fd5b5060018060a01b0381165f526005602052835f20335f5260205260ff845f2054161561360e565b506001600160a01b038116331415613608565b823461039f57602036600319011261039f5781602092356136d481614804565b505f52825260018060a01b03815f2054169051908152f35b823461039f575f36600319011261039f57602090516102ee8152f35b823461039f575f36600319011261039f578051905f90825f549261372b84613a78565b808352602094600190866001821691825f14611b4557505060011461375c575050610df69291610de7910385613964565b5f80805286935091907f290decd9548b62a8d60345a988386fc84ba6bc95484008f6362f93160ef3e5635b82841061379d5750505082010181610de7611ad8565b8054848a018601528895508794909301928101613787565b90503461039f57602036600319011261039f573563ffffffff60e01b811680910361039f5760209163152a902d60e11b82149182156137f8575b50519015158152f35b90915063780e9d6360e01b8114908115613815575b50905f6137ef565b6380ac58cd60e01b811491508115613847575b8115613836575b505f61380d565b6301ffc9a760e01b1490505f61382f565b635b5e139f60e01b81149150613828565b3461039f575f36600319011261039f57602090602a548152f35b5f5b8381106138835750505f910152565b8181015183820152602001613874565b906020916138ac81518092818552858086019101613872565b601f01601f1916010190565b600435906001600160a01b038216820361039f57565b602435906001600160a01b038216820361039f57565b606081019081106001600160401b038211176138ff57604052565b634e487b7160e01b5f52604160045260245ffd5b60c081019081106001600160401b038211176138ff57604052565b604081019081106001600160401b038211176138ff57604052565b602081019081106001600160401b038211176138ff57604052565b90601f801991011681019081106001600160401b038211176138ff57604052565b6001600160401b0381116138ff57601f01601f191660200190565b9291926139ac82613985565b916139ba6040519384613964565b82948184528183011161039f578281602093845f960137010152565b9080601f8301121561039f578160206139f1933591016139a0565b90565b90604060031983011261039f5760043591602435906001600160401b03821161039f576139f1916004016139d6565b3461039f575f36600319011261039f5760206040516103e78152f35b604090600319011261039f576004359060243590565b6006821015613a645701905f90565b634e487b7160e01b5f52603260045260245ffd5b90600182811c92168015613aa6575b6020831014613a9257565b634e487b7160e01b5f52602260045260245ffd5b91607f1691613a87565b6011545f9291613abf82613a78565b80825291602090600190818116908115613b295750600114613ae2575b50505050565b9293945060115f525f80516020615380833981519152925f935b858510613b1657505050602092500101905f808080613adc565b8054858501840152938201938101613afc565b92505050602093945060ff929192191683830152151560051b0101905f808080613adc565b80545f9392613b5c82613a78565b918282526020936001916001811690815f14613bc05750600114613b82575b5050505050565b90939495505f92919252835f2092845f945b838610613bac57505050500101905f80808080613b7b565b805485870183015294019385908201613b94565b60ff19168685015250505090151560051b010191505f80808080613b7b565b606090600319011261039f576001600160a01b0390600435828116810361039f5791602435908116810361039f579060443590565b95929998979491613c41906101009895926101209060018060a01b031689528060208a0152880190613893565b996040870152606086015215156080850152151560a084015260c0830152151560e08201520152565b5f915b60038310613c7a57505050565b600190825181526020809101920192019190613c6d565b8054821015613a64575f52600360205f20910201905f90565b613cc260409295949395606083526060830190613893565b9460208201520152565b600854811015613a645760085f527ff3f7a9fe364faab93b216da50a3214154f22a0a2b415b23a84c8169e8b636ee301905f90565b15613d0857565b60405162461bcd60e51b8152602060048201526014602482015273151bdad95b88191bd95cc81b9bdd08195e1a5cdd60621b6044820152606490fd5b15613d4b57565b60405162461bcd60e51b8152602060048201526015602482015274496e76616c6964206d75746174696f6e207479706560581b6044820152606490fd5b818110613d93575050565b5f8155600101613d88565b9190601f8111613dad57505050565b613dd6925f5260205f20906020601f840160051c8301931061148157601f0160051c0190613d88565b565b908154600160401b8110156138ff57613df990600193600182018155613c91565b929092613ee7578151908151916001600160401b0383116138ff57613e2883613e228754613a78565b87613d9e565b602091601f8411600114613e7c57508260409360029593613e5d935f92613e715750508160011b915f199060031b1c19161790565b84555b602081015160018501550151910155565b015190505f80610b00565b9190601f198416865f52825f20935f905b828210613ece5750509260019285926040966002989610613eb6575b505050811b018455613e60565b01515f1960f88460031b161c191690555f8080613ea9565b9093946020828192888701518155019601940190613e8d565b634e487b7160e01b5f525f60045260245ffd5b91908203918211613f0757565b634e487b7160e01b5f52601160045260245ffd5b6029545f198101908111613f075790565b6001600160a01b03828116939184156141a757825f5260206002815260409583875f2054169533151580614119575b50861580156140e8575b825f5260038452885f2060018154019055865f5260028452885f20836001600160601b0360a01b8254161790558683897fddf252ad1be2c89b69c2b068fc378daa952ba7f163c4a11628f55a4df523b3ef5f80a41561407c57600854865f526009845280895f2055600160401b8110156138ff57614003613fed8260018a9401600855613ccc565b819391549060031b91821b915f19901b19161790565b90555b818703614041575b50505016928383036140205750505050565b6064945051926364283d7b60e01b8452600484015260248301526044820152fd5b61404a906146fb565b5f19810192908311613f07576007915f5260068152875f20835f52815285885f2055855f5252855f20555f808061400e565b8682146140065761408c876146fb565b865f5260078452885f205490885f5260068552895f20918181036140c6575b50875f52600785525f8a8120555f5283525f88812055614006565b815f528286528a5f2054815f52808c5f20555f52600786528a5f20555f6140ab565b5f87815260046020526040812080546001600160a01b03191690558881526003855289902080545f19019055613f65565b80614166575b1561412a575f613f5b565b878688614147576024915190637e27328960e01b82526004820152fd5b905163177e802f60e01b81523360048201526024810191909152604490fd5b50338714801561418b575b8061411f5750855f52600483523385895f2054161461411f565b50865f5260058352875f20335f52835260ff885f205416614171565b604051633250574960e11b81525f6004820152602490fd5b91908201809211613f0757565b156141d357565b60405162461bcd60e51b815260206004820152601960248201527f476f7665726e616e6365206e6f742061637469766520796574000000000000006044820152606490fd5b1561421f57565b60405162461bcd60e51b815260206004820152601260248201527126bab9ba1037bbb710309029b830ba3a32b960711b6044820152606490fd5b5f198114613f075760010190565b90670de0b6b3a764000091828102928184041490151715613f0757565b81810292918115918404141715613f0757565b80156142b1576ec097ce7bc90715b34b9f10000000000490565b634e487b7160e01b5f52601260045260245ffd5b81156142b1570490565b6142d8816146fb565b8210156143005760018060a01b03165f52600660205260405f20905f5260205260405f205490565b60405163295f44f760e21b81526001600160a01b039190911660048201526024810191909152604490fd5b3d15614355573d9061433c82613985565b9161434a6040519384613964565b82523d5f602084013e565b606090565b1561436157565b60405162461bcd60e51b815260206004820152601260248201527113585e081cdd5c1c1b1e481c995858da195960721b6044820152606490fd5b156143a257565b60405162461bcd60e51b815260206004820152601a60248201527f4d696e742073656c656374696f6e20696e2070726f67726573730000000000006044820152606490fd5b803590601e198136030182121561039f5701908135916001600160401b03831161039f57602001823603811361039f579190565b906006811015613a645760051b81013590601e198136030182121561039f5701908135916001600160401b03831161039f57602001823603811361039f579190565b1561446457565b60405162461bcd60e51b815260206004820152601160248201527024b73b30b634b2103432bc1031b7b637b960791b6044820152606490fd5b906003811015613a645760051b0190565b6001600160401b0381116138ff5760051b60200190565b156144cc57565b60405162461bcd60e51b8152602060048201526013602482015272496e76616c696420736565642063686f69636560681b6044820152606490fd5b1561450e57565b60405162461bcd60e51b815260206004820152601860248201527f4e6f7420796f75722070656e64696e67207265717565737400000000000000006044820152606490fd5b1561455a57565b60405162461bcd60e51b8152602060048201526012602482015271139bc81c195b991a5b99c81c995c5d595cdd60721b6044820152606490fd5b1561459b57565b60405162461bcd60e51b815260206004820152601960248201527f5265717565737420616c726561647920636f6d706c65746564000000000000006044820152606490fd5b156145e757565b60405162461bcd60e51b815260206004820152600f60248201526e14995c5d595cdd08195e1c1a5c9959608a1b6044820152606490fd5b908082146146f7576146308154613a78565b906001600160401b0382116138ff5761464d82610ae08554613a78565b5f90601f83116001146146895761467a92915f918361467e5750508160011b915f199060031b1c19161790565b9055565b015490505f80610b00565b90601f198316915f5260209160205f2090855f5260205f20935f905b8282106146de5750509084600195949392106146c6575b505050811b019055565b01545f1960f88460031b161c191690555f80806146bc565b84958192958501548155600180910196019401906146a5565b5050565b6001600160a01b03168015614719575f52600360205260405f205490565b6040516322718ad960e21b81525f6004820152602490fd5b5f81815260026020526040902054614753906001600160a01b03161515613d01565b805f52601b602052602060405f206001604051916147708361392e565b805483520154918291015262015180804204910481146147ac57815f52602f60205260405f2054146147a7576139f1904290614d6d565b505f90565b50505f90565b602b546001600160a01b0316801515806147ec575b6147d457505f905f905f90565b90602c5490610ce48201809211613f07576001929190565b50602c54610ce48101809111613f07574211156147c7565b5f818152600260205260409020546001600160a01b0316908115614826575090565b60249060405190637e27328960e01b82526004820152fd5b600a546001600160a01b0316330361485257565b60405163118cdaa760e01b8152336004820152602490fd5b5f805160206153a0833981519152805c614884576001905d565b604051633ee5aeb560e01b8152600490fd5b919060b46148e991604051938491602083019687523360601b604084015260548301526148cd815180926020607486019101613872565b8101426074820152446094820152036094810184520182613964565b51902090565b6148f8816146fb565b60195490915f5b83811061490e57505050505f90565b61491881836142cf565b805f52601a6020528360405f20540361493457506001016148ff565b935050505090565b80519060079160078103614a265715613a64576020818101516001600160f81b03199290831660dd60f81b01614a1e5760015b848110614980575050505050600190565b8151811015613a64578383828401015116600360fc1b8110159081614a0f575b81156149eb575b81156149c5575b50156149bc5760010161496f565b50505050505f90565b604160f81b8110159150816149dc575b505f6149ae565b602360f91b101590505f6149d5565b9050606160f81b81101580614a01575b906149a7565b50603360f91b8111156149fb565b603960f81b81111591506149a0565b505050505f90565b5050505f90565b916029546040519260208401946001600160601b03199060601b1685526034840152446054840152607483015260ff60f81b9060f81b1660948201526075815260a081018181106001600160401b038211176138ff5760405251902090565b6040805192614a9a84613949565b5f84526001600160a01b0393838516938415614d5657825f5260209560028752845f2054168015908682159283614d25575b815f5260038a52875f2060018154019055865f5260028a52875f20826001600160601b0360a01b8254161790558682847fddf252ad1be2c89b69c2b068fc378daa952ba7f163c4a11628f55a4df523b3ef5f80a415614cb8575060085490855f526009895281875f2055600160401b8210156138ff5785614b57613fed8460018c9601600855613ccc565b90555b03614c80575b614c69573b614b70575050505050565b84614bad9184959697945180938192630a85bd0160e11b968784523360048501525f60248501526044840152608060648401526084830190613893565b03815f895af15f9181614c29575b50614bf257505050614bcb61432b565b8051939084614bec578251633250574960e11b815260048101859052602490fd5b84925001fd5b9194506001600160e01b031990911603614c125750505f80808080613b7b565b602492505190633250574960e11b82526004820152fd5b9091508681813d8311614c62575b614c418183613964565b8101031261039f57516001600160e01b03198116810361039f57905f614bbb565b503d614c37565b83516339e3563760e11b81525f6004820152602490fd5b614c89826146fb565b5f198101908111613f0757865f5260068852855f20815f52885284865f2055845f5260078852855f2055614b60565b90808214614b5a57614cc9816146fb565b865f5260078a52875f205490825f5260068b52885f2091818103614d03575b50875f5260078b525f898120555f5289525f87812055614b5a565b815f52828c52895f2054815f52808b5f20555f5260078c52895f20555f614ce8565b5f87815260046020526040812080546001600160a01b031916905583815260038b5288902080545f19019055614acc565b8351633250574960e11b81525f6004820152602490fd5b5f52601b6020818152604092835f2093805193614d898561392e565b8554855283600180970154950194855260295494868611614ea7575b614db090518461507a565b614e545760648511614e7f575b6101f4808611614e5c575b506102ee808611614e20575b506103e7809511614dea575b5050505050505f90565b614e12945f52835284815f20915191614e028361392e565b805483520154928391015261507a565b6139f1578080808080614de0565b5f52808452614e4a84835f2088855191614e398361392e565b80548352015491829101528461507a565b614e54575f614dd4565b505050505090565b5f52808452614e7584835f2088855191614e398361392e565b614e54575f614dc8565b60645f52808452614e9a84835f2088855191614e398361392e565b15614dbd57505050505090565b865f52818552614ed285845f2089865191614ec18361392e565b80548352015491829101528561507a565b15614da55750505050505090565b601e8111156147a7576018198101908111613f07578015614f55576103ce80821015614f465767867d5927a64f800080830292830503613f0757614f2491056150c1565b6615f4ad60b640009080820291820403613f0757670de0b6b3a7640000900490565b505068056bc75e2d6310000090565b506615f4ad60b6400090565b9291803b614f70575050505050565b604051630a85bd0160e11b8082526001600160a01b03958616600483015292851660248201526044810193909352608060648401529092169260209082908190614fbe906084830190613893565b03815f875af15f9181615035575b506150035782614fda61432b565b8051919082614ffc57604051633250574960e11b815260048101839052602490fd5b6020915001fd5b6001600160e01b0319160361501d57505f80808080613b7b565b60249060405190633250574960e11b82526004820152fd5b9091506020813d602011615072575b8161505160209383613964565b8101031261039f57516001600160e01b03198116810361039f57905f614fcc565b3d9150615044565b61508661508c9161518d565b9161518d565b602082015160208201511491826150a257505090565b60409192508101519101511490565b600160ff1b8114613f07575f0390565b680755bf798b4a1bf1e5811215615159575f811261513f57670de0b6b3a764000090600190825b60148311156150f8575b50505090565b6151176151088361511e93614284565b61511185614267565b906142c5565b80946141bf565b91606484106151375761513090614259565b91926150e8565b8293506150f2565b61514b615150916150b1565b6150c1565b6139f190614297565b60405162461bcd60e51b815260206004820152600c60248201526b657870206f766572666c6f7760a01b6044820152606490fd5b62015180905f604080516151a0816138e4565b8281528260208201520152046107b2905b6151ba8261525c565b156152515761ffff61016e5b168082106151e7576151db906151e192613efa565b91614259565b906151b1565b505f906001905b600c821115615215575b5060405192615206846138e4565b83526020830152604082015290565b61521f8483615284565b9081811061523a57615234916151db91613efa565b906151ee565b809293506001915001809111613f0757905f6151f8565b61ffff61016d6151c6565b600381166147a7576064810661527e57610190900661527a57600190565b5f90565b50600190565b600181148015615355575b801561534b575b8015615341575b8015615337575b801561532d575b8015615323575b61531c57600481148015615312575b8015615308575b80156152fe575b6152f7576002146152df57505f90565b6152e89061525c565b156152f257601d90565b601c90565b5050601e90565b50600b81146152cf565b50600981146152c8565b50600681146152c1565b5050601f90565b50600c81146152b2565b50600a81146152ab565b50600881146152a4565b506007811461529d565b5060058114615296565b506003811461528f56febb7b4a454dc3493923482f07822329ed19e8244eff582cc204f8554c3620c3fd31ecc21a745e3968a04e9570e4425bc18fa8019c68028196b546d1669c200c689b779b17422d0df92223018b32b4d1fa46e071723d6817e2486d003becc55f00a26469706673582212207cc9f57bc72eb3961fc07f37361a1256fe1641fa3d1c6df51fc686ca25ef67e064736f6c63430008180033",
  "linkReferences": {},
  "deployedLinkReferences": {}
}